{
  "contractName": "ByteUtils",
  "abi": [
    {
      "constant": true,
      "inputs": [
        {
          "name": "x",
          "type": "bytes32"
        }
      ],
      "name": "bytes32ToString",
      "outputs": [
        {
          "name": "",
          "type": "string"
        }
      ],
      "payable": false,
      "stateMutability": "pure",
      "type": "function"
    },
    {
      "constant": true,
      "inputs": [
        {
          "name": "x",
          "type": "bytes32"
        }
      ],
      "name": "getStringLength",
      "outputs": [
        {
          "name": "",
          "type": "uint256"
        }
      ],
      "payable": false,
      "stateMutability": "pure",
      "type": "function"
    }
  ],
  "bytecode": "0x61037e610030600b82828239805160001a6073146000811461002057610022565bfe5b5030600052607381538281f3007300000000000000000000000000000000000000003014608060405260043610610063576000357c0100000000000000000000000000000000000000000000000000000000900463ffffffff16806335d7654d146100685780639201de55146100a0575b600080fd5b61008a600480360381019080803560001916906020019092919050505061013d565b6040518082815260200191505060405180910390f35b6100c26004803603810190808035600019169060200190929190505050610156565b6040518080602001828103825283818151815260200191508051906020019080838360005b838110156101025780820151818401526020810190506100e7565b50505050905090810190601f16801561012f5780820380516001836020036101000a031916815260200191505b509250505060405180910390f35b6000606061014a83610156565b90508051915050919050565b6060806000806000606060206040519080825280601f01601f1916602001820160405280156101945781602001602082028038833980820191505090505b50945060009350600092505b602083101561025e578260080260020a876001900402600102915060007f010000000000000000000000000000000000000000000000000000000000000002827effffffffffffffffffffffffffffffffffffffffffffffffffffffffffffff19161415156102515781858581518110151561021857fe5b9060200101907effffffffffffffffffffffffffffffffffffffffffffffffffffffffffffff1916908160001a90535083806001019450505b82806001019350506101a0565b836040519080825280601f01601f1916602001820160405280156102915781602001602082028038833980820191505090505b509050600092505b838310156103455784838151811015156102af57fe5b9060200101517f010000000000000000000000000000000000000000000000000000000000000090047f010000000000000000000000000000000000000000000000000000000000000002818481518110151561030857fe5b9060200101907effffffffffffffffffffffffffffffffffffffffffffffffffffffffffffff1916908160001a9053508280600101935050610299565b80955050505050509190505600a165627a7a72305820e5db0b1a8b52646e7ff1131f3322f20abdf638466ebfb9f800b599753e3d92220029",
  "source": "pragma solidity ^0.4.23;\r\n\r\nlibrary ByteUtils {\r\n\r\n    function bytes32ToString(bytes32 x) public pure returns (string) {\r\n        bytes memory bytesString = new bytes(32);\r\n        uint charCount = 0;\r\n        for (uint j = 0; j < 32; j++) {\r\n            byte char = byte(bytes32(uint(x) * 2 ** (8 * j)));\r\n            if (char != 0) {\r\n                bytesString[charCount] = char;\r\n                charCount++;\r\n            }\r\n        }\r\n\r\n        bytes memory bytesStringTrimmed = new bytes(charCount);\r\n        for (j = 0; j < charCount; j++) {\r\n            bytesStringTrimmed[j] = bytesString[j];\r\n        }\r\n        return string(bytesStringTrimmed);\r\n    }\r\n\r\n    function getStringLength(bytes32 x) public pure returns (uint) {\r\n        string memory s = bytes32ToString(x);\r\n        return bytes(s).length;        \r\n    }\r\n}",
  "sourcePath": "C:\\dev\\repos\\VehicleMaintenanceRegistry\\src\\vmr\\contracts\\ByteUtils.sol",
  "compiler": {
    "name": "solc",
    "version": "0.4.24+commit.e67f0147.Emscripten.clang"
  },
  "schemaVersion": "2.0.1",
  "updatedAt": "2018-07-09T16:03:14.595Z"
}