{
  "contractName": "EternalStorage",
  "abi": [
    {
      "constant": false,
      "inputs": [],
      "name": "claimOwnership",
      "outputs": [],
      "payable": false,
      "stateMutability": "nonpayable",
      "type": "function"
    },
    {
      "constant": false,
      "inputs": [],
      "name": "renounceOwnership",
      "outputs": [],
      "payable": false,
      "stateMutability": "nonpayable",
      "type": "function"
    },
    {
      "constant": true,
      "inputs": [],
      "name": "owner",
      "outputs": [
        {
          "name": "",
          "type": "address"
        }
      ],
      "payable": false,
      "stateMutability": "view",
      "type": "function"
    },
    {
      "constant": true,
      "inputs": [],
      "name": "pendingOwner",
      "outputs": [
        {
          "name": "",
          "type": "address"
        }
      ],
      "payable": false,
      "stateMutability": "view",
      "type": "function"
    },
    {
      "constant": false,
      "inputs": [
        {
          "name": "newOwner",
          "type": "address"
        }
      ],
      "name": "transferOwnership",
      "outputs": [],
      "payable": false,
      "stateMutability": "nonpayable",
      "type": "function"
    },
    {
      "anonymous": false,
      "inputs": [
        {
          "indexed": true,
          "name": "previousOwner",
          "type": "address"
        }
      ],
      "name": "OwnershipRenounced",
      "type": "event"
    },
    {
      "anonymous": false,
      "inputs": [
        {
          "indexed": true,
          "name": "previousOwner",
          "type": "address"
        },
        {
          "indexed": true,
          "name": "newOwner",
          "type": "address"
        }
      ],
      "name": "OwnershipTransferred",
      "type": "event"
    },
    {
      "constant": false,
      "inputs": [
        {
          "name": "_address",
          "type": "address"
        }
      ],
      "name": "setContractAddress",
      "outputs": [],
      "payable": false,
      "stateMutability": "nonpayable",
      "type": "function"
    },
    {
      "constant": true,
      "inputs": [],
      "name": "getContractAddress",
      "outputs": [
        {
          "name": "",
          "type": "address"
        }
      ],
      "payable": false,
      "stateMutability": "view",
      "type": "function"
    },
    {
      "constant": false,
      "inputs": [
        {
          "name": "_initialised",
          "type": "bool"
        }
      ],
      "name": "setStorageInitialised",
      "outputs": [],
      "payable": false,
      "stateMutability": "nonpayable",
      "type": "function"
    },
    {
      "constant": true,
      "inputs": [],
      "name": "getStorageInitialised",
      "outputs": [
        {
          "name": "",
          "type": "bool"
        }
      ],
      "payable": false,
      "stateMutability": "view",
      "type": "function"
    },
    {
      "constant": true,
      "inputs": [
        {
          "name": "record",
          "type": "bytes32"
        }
      ],
      "name": "getUint256Value",
      "outputs": [
        {
          "name": "",
          "type": "uint256"
        }
      ],
      "payable": false,
      "stateMutability": "view",
      "type": "function"
    },
    {
      "constant": false,
      "inputs": [
        {
          "name": "record",
          "type": "bytes32"
        },
        {
          "name": "value256",
          "type": "uint256"
        }
      ],
      "name": "setUint256Value",
      "outputs": [],
      "payable": false,
      "stateMutability": "nonpayable",
      "type": "function"
    },
    {
      "constant": true,
      "inputs": [
        {
          "name": "record",
          "type": "bytes32"
        }
      ],
      "name": "getStringValue",
      "outputs": [
        {
          "name": "",
          "type": "string"
        }
      ],
      "payable": false,
      "stateMutability": "view",
      "type": "function"
    },
    {
      "constant": false,
      "inputs": [
        {
          "name": "record",
          "type": "bytes32"
        },
        {
          "name": "value",
          "type": "string"
        }
      ],
      "name": "setStringValue",
      "outputs": [],
      "payable": false,
      "stateMutability": "nonpayable",
      "type": "function"
    },
    {
      "constant": true,
      "inputs": [
        {
          "name": "record",
          "type": "bytes32"
        }
      ],
      "name": "getAddressValue",
      "outputs": [
        {
          "name": "",
          "type": "address"
        }
      ],
      "payable": false,
      "stateMutability": "view",
      "type": "function"
    },
    {
      "constant": false,
      "inputs": [
        {
          "name": "record",
          "type": "bytes32"
        },
        {
          "name": "value",
          "type": "address"
        }
      ],
      "name": "setAddressValue",
      "outputs": [],
      "payable": false,
      "stateMutability": "nonpayable",
      "type": "function"
    },
    {
      "constant": true,
      "inputs": [
        {
          "name": "record",
          "type": "bytes32"
        }
      ],
      "name": "getBytes32Value",
      "outputs": [
        {
          "name": "",
          "type": "bytes32"
        }
      ],
      "payable": false,
      "stateMutability": "view",
      "type": "function"
    },
    {
      "constant": false,
      "inputs": [
        {
          "name": "record",
          "type": "bytes32"
        },
        {
          "name": "value",
          "type": "bytes32"
        }
      ],
      "name": "setBytes32Value",
      "outputs": [],
      "payable": false,
      "stateMutability": "nonpayable",
      "type": "function"
    },
    {
      "constant": true,
      "inputs": [
        {
          "name": "record",
          "type": "bytes32"
        }
      ],
      "name": "getBooleanValue",
      "outputs": [
        {
          "name": "",
          "type": "bool"
        }
      ],
      "payable": false,
      "stateMutability": "view",
      "type": "function"
    },
    {
      "constant": false,
      "inputs": [
        {
          "name": "record",
          "type": "bytes32"
        },
        {
          "name": "value",
          "type": "bool"
        }
      ],
      "name": "setBooleanValue",
      "outputs": [],
      "payable": false,
      "stateMutability": "nonpayable",
      "type": "function"
    },
    {
      "constant": true,
      "inputs": [
        {
          "name": "record",
          "type": "bytes32"
        }
      ],
      "name": "getIntValue",
      "outputs": [
        {
          "name": "",
          "type": "int256"
        }
      ],
      "payable": false,
      "stateMutability": "view",
      "type": "function"
    },
    {
      "constant": false,
      "inputs": [
        {
          "name": "record",
          "type": "bytes32"
        },
        {
          "name": "value",
          "type": "int256"
        }
      ],
      "name": "setIntValue",
      "outputs": [],
      "payable": false,
      "stateMutability": "nonpayable",
      "type": "function"
    }
  ],
  "bytecode": "0x6080604052336000806101000a81548173ffffffffffffffffffffffffffffffffffffffff021916908373ffffffffffffffffffffffffffffffffffffffff160217905550611c59806100536000396000f30060806040526004361061011c576000357c0100000000000000000000000000000000000000000000000000000000900463ffffffff1680626d941a14610121578063025ec81a146101505780630f3dcedb1461019d57806317e7dd22146101cc57806325cf512d1461021557806332a2c5d0146102545780633eba9ed2146102ab578063477bddaa146102e85780634c77e5ba1461032b5780634e71e0c81461039c5780635a2bf25a146103b3578063715018a6146104045780638da5cb5b1461041b5780639007127b14610472578063a209a29c146104b7578063a77aa49e14610561578063ac0945531461059c578063dde5b9d5146105e1578063e30c39781461061c578063f2fde38b14610673578063f5866066146106b6575b600080fd5b34801561012d57600080fd5b5061014e60048036038101908080351515906020019092919050505061072d565b005b34801561015c57600080fd5b5061017f60048036038101908080356000191690602001909291905050506107f3565b60405180826000191660001916815260200191505060405180910390f35b3480156101a957600080fd5b506101b2610818565b604051808215151515815260200191505060405180910390f35b3480156101d857600080fd5b506101fb600480360381019080803560001916906020019092919050505061087d565b604051808215151515815260200191505060405180910390f35b34801561022157600080fd5b50610252600480360381019080803560001916906020019092919080356000191690602001909291905050506108af565b005b34801561026057600080fd5b50610269610abd565b604051808273ffffffffffffffffffffffffffffffffffffffff1673ffffffffffffffffffffffffffffffffffffffff16815260200191505060405180910390f35b3480156102b757600080fd5b506102e66004803603810190808035600019169060200190929190803515159060200190929190505050610b35565b005b3480156102f457600080fd5b50610329600480360381019080803573ffffffffffffffffffffffffffffffffffffffff169060200190929190505050610d52565b005b34801561033757600080fd5b5061035a6004803603810190808035600019169060200190929190505050610e3f565b604051808273ffffffffffffffffffffffffffffffffffffffff1673ffffffffffffffffffffffffffffffffffffffff16815260200191505060405180910390f35b3480156103a857600080fd5b506103b1610e84565b005b3480156103bf57600080fd5b506104026004803603810190808035600019169060200190929190803573ffffffffffffffffffffffffffffffffffffffff169060200190929190505050611023565b005b34801561041057600080fd5b50610419611267565b005b34801561042757600080fd5b50610430611369565b604051808273ffffffffffffffffffffffffffffffffffffffff1673ffffffffffffffffffffffffffffffffffffffff16815260200191505060405180910390f35b34801561047e57600080fd5b506104a1600480360381019080803560001916906020019092919050505061138e565b6040518082815260200191505060405180910390f35b3480156104c357600080fd5b506104e660048036038101908080356000191690602001909291905050506113b3565b6040518080602001828103825283818151815260200191508051906020019080838360005b8381101561052657808201518184015260208101905061050b565b50505050905090810190601f1680156105535780820380516001836020036101000a031916815260200191505b509250505060405180910390f35b34801561056d57600080fd5b5061059a600480360381019080803560001916906020019092919080359060200190929190505050611470565b005b3480156105a857600080fd5b506105cb600480360381019080803560001916906020019092919050505061167a565b6040518082815260200191505060405180910390f35b3480156105ed57600080fd5b5061061a60048036038101908080356000191690602001909291908035906020019092919050505061169f565b005b34801561062857600080fd5b506106316118a9565b604051808273ffffffffffffffffffffffffffffffffffffffff1673ffffffffffffffffffffffffffffffffffffffff16815260200191505060405180910390f35b34801561067f57600080fd5b506106b4600480360381019080803573ffffffffffffffffffffffffffffffffffffffff1690602001909291905050506118cf565b005b3480156106c257600080fd5b5061072b6004803603810190808035600019169060200190929190803590602001908201803590602001908080601f016020809104026020016040519081016040528093929190818152602001838380828437820191505050505050919291929050505061196e565b005b6000809054906101000a900473ffffffffffffffffffffffffffffffffffffffff1673ffffffffffffffffffffffffffffffffffffffff163373ffffffffffffffffffffffffffffffffffffffff1614151561078857600080fd5b806007600060405180807f636f6e74726163742e73746f726167652e696e697469616c6973656400000000815250601c01905060405180910390206000191660001916815260200190815260200160002060006101000a81548160ff02191690831515021790555050565b6000600660008360001916600019168152602001908152602001600020549050919050565b60006007600060405180807f636f6e74726163742e73746f726167652e696e697469616c6973656400000000815250601c01905060405180910390206000191660001916815260200190815260200160002060009054906101000a900460ff16905090565b600060076000836000191660001916815260200190815260200160002060009054906101000a900460ff169050919050565b6000809054906101000a900473ffffffffffffffffffffffffffffffffffffffff1673ffffffffffffffffffffffffffffffffffffffff163373ffffffffffffffffffffffffffffffffffffffff1614156109d85760001515610910610818565b15151415156109d3576040517f08c379a00000000000000000000000000000000000000000000000000000000081526004018080602001828103825260558152602001807f4f6e63652074686520636f6e747261637420697320696e697469616c6973656481526020017f202d206f6e6c792074686520636f6e747261637420616464726573732063616e81526020017f20696e766f6b6520746869732066756e6374696f6e000000000000000000000081525060600191505060405180910390fd5b610a95565b60006109e2610abd565b73ffffffffffffffffffffffffffffffffffffffff1614151515610a94576040517f08c379a00000000000000000000000000000000000000000000000000000000081526004018080602001828103825260328152602001807f4f6e6c792074686520636f6e747261637420616464726573732063616e20696e81526020017f766f6b6520746869732066756e6374696f6e000000000000000000000000000081525060400191505060405180910390fd5b5b8060066000846000191660001916815260200190815260200160002081600019169055505050565b60006005600060405180807f636f6e74726163742e6164647265737300000000000000000000000000000000815250601001905060405180910390206000191660001916815260200190815260200160002060009054906101000a900473ffffffffffffffffffffffffffffffffffffffff16905090565b6000809054906101000a900473ffffffffffffffffffffffffffffffffffffffff1673ffffffffffffffffffffffffffffffffffffffff163373ffffffffffffffffffffffffffffffffffffffff161415610c5e5760001515610b96610818565b1515141515610c59576040517f08c379a00000000000000000000000000000000000000000000000000000000081526004018080602001828103825260558152602001807f4f6e63652074686520636f6e747261637420697320696e697469616c6973656481526020017f202d206f6e6c792074686520636f6e747261637420616464726573732063616e81526020017f20696e766f6b6520746869732066756e6374696f6e000000000000000000000081525060600191505060405180910390fd5b610d1b565b6000610c68610abd565b73ffffffffffffffffffffffffffffffffffffffff1614151515610d1a576040517f08c379a00000000000000000000000000000000000000000000000000000000081526004018080602001828103825260328152602001807f4f6e6c792074686520636f6e747261637420616464726573732063616e20696e81526020017f766f6b6520746869732066756e6374696f6e000000000000000000000000000081525060400191505060405180910390fd5b5b8060076000846000191660001916815260200190815260200160002060006101000a81548160ff0219169083151502179055505050565b6000809054906101000a900473ffffffffffffffffffffffffffffffffffffffff1673ffffffffffffffffffffffffffffffffffffffff163373ffffffffffffffffffffffffffffffffffffffff16141515610dad57600080fd5b806005600060405180807f636f6e74726163742e6164647265737300000000000000000000000000000000815250601001905060405180910390206000191660001916815260200190815260200160002060006101000a81548173ffffffffffffffffffffffffffffffffffffffff021916908373ffffffffffffffffffffffffffffffffffffffff16021790555050565b600060056000836000191660001916815260200190815260200160002060009054906101000a900473ffffffffffffffffffffffffffffffffffffffff169050919050565b600160009054906101000a900473ffffffffffffffffffffffffffffffffffffffff1673ffffffffffffffffffffffffffffffffffffffff163373ffffffffffffffffffffffffffffffffffffffff16141515610ee057600080fd5b600160009054906101000a900473ffffffffffffffffffffffffffffffffffffffff1673ffffffffffffffffffffffffffffffffffffffff166000809054906101000a900473ffffffffffffffffffffffffffffffffffffffff1673ffffffffffffffffffffffffffffffffffffffff167f8be0079c531659141344cd1fd0a4f28419497f9722a3daafe3b4186f6b6457e060405160405180910390a3600160009054906101000a900473ffffffffffffffffffffffffffffffffffffffff166000806101000a81548173ffffffffffffffffffffffffffffffffffffffff021916908373ffffffffffffffffffffffffffffffffffffffff1602179055506000600160006101000a81548173ffffffffffffffffffffffffffffffffffffffff021916908373ffffffffffffffffffffffffffffffffffffffff160217905550565b6000809054906101000a900473ffffffffffffffffffffffffffffffffffffffff1673ffffffffffffffffffffffffffffffffffffffff163373ffffffffffffffffffffffffffffffffffffffff16141561114c5760001515611084610818565b1515141515611147576040517f08c379a00000000000000000000000000000000000000000000000000000000081526004018080602001828103825260558152602001807f4f6e63652074686520636f6e747261637420697320696e697469616c6973656481526020017f202d206f6e6c792074686520636f6e747261637420616464726573732063616e81526020017f20696e766f6b6520746869732066756e6374696f6e000000000000000000000081525060600191505060405180910390fd5b611209565b6000611156610abd565b73ffffffffffffffffffffffffffffffffffffffff1614151515611208576040517f08c379a00000000000000000000000000000000000000000000000000000000081526004018080602001828103825260328152602001807f4f6e6c792074686520636f6e747261637420616464726573732063616e20696e81526020017f766f6b6520746869732066756e6374696f6e000000000000000000000000000081525060400191505060405180910390fd5b5b8060056000846000191660001916815260200190815260200160002060006101000a81548173ffffffffffffffffffffffffffffffffffffffff021916908373ffffffffffffffffffffffffffffffffffffffff1602179055505050565b6000809054906101000a900473ffffffffffffffffffffffffffffffffffffffff1673ffffffffffffffffffffffffffffffffffffffff163373ffffffffffffffffffffffffffffffffffffffff161415156112c257600080fd5b6000809054906101000a900473ffffffffffffffffffffffffffffffffffffffff1673ffffffffffffffffffffffffffffffffffffffff167ff8df31144d9c2f0f6b59d69b8b98abd5459d07f2742c4df920b25aae33c6482060405160405180910390a260008060006101000a81548173ffffffffffffffffffffffffffffffffffffffff021916908373ffffffffffffffffffffffffffffffffffffffff160217905550565b6000809054906101000a900473ffffffffffffffffffffffffffffffffffffffff1681565b6000600360008360001916600019168152602001908152602001600020549050919050565b60606004600083600019166000191681526020019081526020016000208054600181600116156101000203166002900480601f0160208091040260200160405190810160405280929190818152602001828054600181600116156101000203166002900480156114645780601f1061143957610100808354040283529160200191611464565b820191906000526020600020905b81548152906001019060200180831161144757829003601f168201915b50505050509050919050565b6000809054906101000a900473ffffffffffffffffffffffffffffffffffffffff1673ffffffffffffffffffffffffffffffffffffffff163373ffffffffffffffffffffffffffffffffffffffff16141561159957600015156114d1610818565b1515141515611594576040517f08c379a00000000000000000000000000000000000000000000000000000000081526004018080602001828103825260558152602001807f4f6e63652074686520636f6e747261637420697320696e697469616c6973656481526020017f202d206f6e6c792074686520636f6e747261637420616464726573732063616e81526020017f20696e766f6b6520746869732066756e6374696f6e000000000000000000000081525060600191505060405180910390fd5b611656565b60006115a3610abd565b73ffffffffffffffffffffffffffffffffffffffff1614151515611655576040517f08c379a00000000000000000000000000000000000000000000000000000000081526004018080602001828103825260328152602001807f4f6e6c792074686520636f6e747261637420616464726573732063616e20696e81526020017f766f6b6520746869732066756e6374696f6e000000000000000000000000000081525060400191505060405180910390fd5b5b80600360008460001916600019168152602001908152602001600020819055505050565b6000600260008360001916600019168152602001908152602001600020549050919050565b6000809054906101000a900473ffffffffffffffffffffffffffffffffffffffff1673ffffffffffffffffffffffffffffffffffffffff163373ffffffffffffffffffffffffffffffffffffffff1614156117c85760001515611700610818565b15151415156117c3576040517f08c379a00000000000000000000000000000000000000000000000000000000081526004018080602001828103825260558152602001807f4f6e63652074686520636f6e747261637420697320696e697469616c6973656481526020017f202d206f6e6c792074686520636f6e747261637420616464726573732063616e81526020017f20696e766f6b6520746869732066756e6374696f6e000000000000000000000081525060600191505060405180910390fd5b611885565b60006117d2610abd565b73ffffffffffffffffffffffffffffffffffffffff1614151515611884576040517f08c379a00000000000000000000000000000000000000000000000000000000081526004018080602001828103825260328152602001807f4f6e6c792074686520636f6e747261637420616464726573732063616e20696e81526020017f766f6b6520746869732066756e6374696f6e000000000000000000000000000081525060400191505060405180910390fd5b5b80600260008460001916600019168152602001908152602001600020819055505050565b600160009054906101000a900473ffffffffffffffffffffffffffffffffffffffff1681565b6000809054906101000a900473ffffffffffffffffffffffffffffffffffffffff1673ffffffffffffffffffffffffffffffffffffffff163373ffffffffffffffffffffffffffffffffffffffff1614151561192a57600080fd5b80600160006101000a81548173ffffffffffffffffffffffffffffffffffffffff021916908373ffffffffffffffffffffffffffffffffffffffff16021790555050565b6000809054906101000a900473ffffffffffffffffffffffffffffffffffffffff1673ffffffffffffffffffffffffffffffffffffffff163373ffffffffffffffffffffffffffffffffffffffff161415611a9757600015156119cf610818565b1515141515611a92576040517f08c379a00000000000000000000000000000000000000000000000000000000081526004018080602001828103825260558152602001807f4f6e63652074686520636f6e747261637420697320696e697469616c6973656481526020017f202d206f6e6c792074686520636f6e747261637420616464726573732063616e81526020017f20696e766f6b6520746869732066756e6374696f6e000000000000000000000081525060600191505060405180910390fd5b611b54565b6000611aa1610abd565b73ffffffffffffffffffffffffffffffffffffffff1614151515611b53576040517f08c379a00000000000000000000000000000000000000000000000000000000081526004018080602001828103825260328152602001807f4f6e6c792074686520636f6e747261637420616464726573732063616e20696e81526020017f766f6b6520746869732066756e6374696f6e000000000000000000000000000081525060400191505060405180910390fd5b5b806004600084600019166000191681526020019081526020016000209080519060200190611b83929190611b88565b505050565b828054600181600116156101000203166002900490600052602060002090601f016020900481019282601f10611bc957805160ff1916838001178555611bf7565b82800160010185558215611bf7579182015b82811115611bf6578251825591602001919060010190611bdb565b5b509050611c049190611c08565b5090565b611c2a91905b80821115611c26576000816000905550600101611c0e565b5090565b905600a165627a7a72305820f8b80f0f59872eaafbad026aeb12f0d1fde5f905614126dde62e347b18833c750029",
  "source": "pragma solidity ^0.4.23;\r\n\r\nimport \"../node_modules/openzeppelin-solidity/contracts/ownership/Claimable.sol\";\r\n\r\ncontract EternalStorage is Claimable {\r\n\r\n    modifier onlyRegisteredCaller() {\r\n        // The owner is only allowed to set the storage upon deployment to register the initial contracts, afterwards their direct access is disabled\r\n        if (msg.sender == owner) {\r\n            require(getStorageInitialised() == false, \"Once the contract is initialised - only the contract address can invoke this function\");\r\n        } else {\r\n            // Make sure the access is permitted to only contracts in our Dapp\r\n            require(getContractAddress() != 0x0, \"Only the contract address can invoke this function\");\r\n        }\r\n        _;\r\n    }\r\n\r\n    mapping(bytes32 => uint256) private UIntStorage;\r\n    mapping(bytes32 => int) private IntStorage;\r\n    mapping(bytes32 => string) private StringStorage;\r\n    mapping(bytes32 => address) private AddressStorage;    \r\n    mapping(bytes32 => bytes32) private BytesStorage;    \r\n    mapping(bytes32 => bool) private BooleanStorage;    \r\n\r\n    function setContractAddress(address _address) onlyOwner() public {\r\n        AddressStorage[keccak256(\"contract.address\")] = _address;\r\n    }\r\n\r\n    function getContractAddress() public view returns (address) {\r\n        return AddressStorage[keccak256(\"contract.address\")];\r\n    }    \r\n\r\n    function setStorageInitialised(bool _initialised) onlyOwner() public {\r\n        BooleanStorage[keccak256(\"contract.storage.initialised\")] = _initialised;\r\n    }\r\n\r\n    function getStorageInitialised() public view returns (bool) {\r\n        return BooleanStorage[keccak256(\"contract.storage.initialised\")];\r\n    }\r\n\r\n    function getUint256Value(bytes32 record) public view returns (uint256){\r\n        return UIntStorage[record];\r\n    }\r\n\r\n    function setUint256Value(bytes32 record, uint256 value256) onlyRegisteredCaller() public\r\n    {\r\n        UIntStorage[record] = value256;\r\n    }\r\n\r\n    function getStringValue(bytes32 record)  public view returns (string){\r\n        return StringStorage[record];\r\n    }\r\n\r\n    function setStringValue(bytes32 record, string value) onlyRegisteredCaller() public\r\n    {\r\n        StringStorage[record] = value;\r\n    }\r\n\r\n    function getAddressValue(bytes32 record)  public view returns (address){\r\n        return AddressStorage[record];\r\n    }\r\n\r\n    function setAddressValue(bytes32 record, address value) onlyRegisteredCaller() public\r\n    {\r\n        AddressStorage[record] = value;\r\n    }\r\n\r\n    function getBytes32Value(bytes32 record)  public view returns (bytes32){\r\n        return BytesStorage[record];\r\n    }\r\n\r\n    function setBytes32Value(bytes32 record, bytes32 value)  onlyRegisteredCaller() public\r\n    {\r\n        BytesStorage[record] = value;\r\n    }\r\n\r\n    function getBooleanValue(bytes32 record)  public view returns (bool){\r\n        return BooleanStorage[record];\r\n    }\r\n\r\n    function setBooleanValue(bytes32 record, bool value) onlyRegisteredCaller() public\r\n    {\r\n        BooleanStorage[record] = value;\r\n    }\r\n    \r\n    function getIntValue(bytes32 record) public view returns (int){\r\n        return IntStorage[record];\r\n    }\r\n\r\n    function setIntValue(bytes32 record, int value) onlyRegisteredCaller() public\r\n    {\r\n        IntStorage[record] = value;\r\n    }\r\n}",
  "sourcePath": "C:\\dev\\repos\\VehicleMaintenanceRegistry\\src\\vmr\\contracts\\EternalStorage.sol",
  "compiler": {
    "name": "solc",
    "version": "0.4.24+commit.e67f0147.Emscripten.clang"
  },
  "schemaVersion": "2.0.1",
  "updatedAt": "2018-07-09T16:03:14.596Z"
}