{
  "contractName": "EternalStorage",
  "abi": [
    {
      "constant": true,
      "inputs": [
        {
          "name": "record",
          "type": "bytes32"
        }
      ],
      "name": "getUint256Value",
      "outputs": [
        {
          "name": "",
          "type": "uint256"
        }
      ],
      "payable": false,
      "stateMutability": "view",
      "type": "function"
    },
    {
      "constant": false,
      "inputs": [
        {
          "name": "record",
          "type": "bytes32"
        },
        {
          "name": "value256",
          "type": "uint256"
        }
      ],
      "name": "setUint256Value",
      "outputs": [],
      "payable": false,
      "stateMutability": "nonpayable",
      "type": "function"
    },
    {
      "constant": true,
      "inputs": [
        {
          "name": "record",
          "type": "bytes32"
        }
      ],
      "name": "getStringValue",
      "outputs": [
        {
          "name": "",
          "type": "string"
        }
      ],
      "payable": false,
      "stateMutability": "view",
      "type": "function"
    },
    {
      "constant": false,
      "inputs": [
        {
          "name": "record",
          "type": "bytes32"
        },
        {
          "name": "value",
          "type": "string"
        }
      ],
      "name": "setStringValue",
      "outputs": [],
      "payable": false,
      "stateMutability": "nonpayable",
      "type": "function"
    },
    {
      "constant": true,
      "inputs": [
        {
          "name": "record",
          "type": "bytes32"
        }
      ],
      "name": "getAddressValue",
      "outputs": [
        {
          "name": "",
          "type": "address"
        }
      ],
      "payable": false,
      "stateMutability": "view",
      "type": "function"
    },
    {
      "constant": false,
      "inputs": [
        {
          "name": "record",
          "type": "bytes32"
        },
        {
          "name": "value",
          "type": "address"
        }
      ],
      "name": "setAddressValue",
      "outputs": [],
      "payable": false,
      "stateMutability": "nonpayable",
      "type": "function"
    },
    {
      "constant": true,
      "inputs": [
        {
          "name": "record",
          "type": "bytes32"
        }
      ],
      "name": "getBytes32Value",
      "outputs": [
        {
          "name": "",
          "type": "bytes32"
        }
      ],
      "payable": false,
      "stateMutability": "view",
      "type": "function"
    },
    {
      "constant": false,
      "inputs": [
        {
          "name": "record",
          "type": "bytes32"
        },
        {
          "name": "value",
          "type": "bytes32"
        }
      ],
      "name": "setBytes32Value",
      "outputs": [],
      "payable": false,
      "stateMutability": "nonpayable",
      "type": "function"
    },
    {
      "constant": true,
      "inputs": [
        {
          "name": "record",
          "type": "bytes32"
        }
      ],
      "name": "getBooleanValue",
      "outputs": [
        {
          "name": "",
          "type": "bool"
        }
      ],
      "payable": false,
      "stateMutability": "view",
      "type": "function"
    },
    {
      "constant": false,
      "inputs": [
        {
          "name": "record",
          "type": "bytes32"
        },
        {
          "name": "value",
          "type": "bool"
        }
      ],
      "name": "setBooleanValue",
      "outputs": [],
      "payable": false,
      "stateMutability": "nonpayable",
      "type": "function"
    },
    {
      "constant": true,
      "inputs": [
        {
          "name": "record",
          "type": "bytes32"
        }
      ],
      "name": "getIntValue",
      "outputs": [
        {
          "name": "",
          "type": "int256"
        }
      ],
      "payable": false,
      "stateMutability": "view",
      "type": "function"
    },
    {
      "constant": false,
      "inputs": [
        {
          "name": "record",
          "type": "bytes32"
        },
        {
          "name": "value",
          "type": "int256"
        }
      ],
      "name": "setIntValue",
      "outputs": [],
      "payable": false,
      "stateMutability": "nonpayable",
      "type": "function"
    }
  ],
  "bytecode": "0x608060405234801561001057600080fd5b5061085f806100206000396000f3006080604052600436106100ba576000357c0100000000000000000000000000000000000000000000000000000000900463ffffffff168063025ec81a146100bf57806317e7dd221461010c57806325cf512d146101555780633eba9ed2146101945780634c77e5ba146101d15780635a2bf25a146102425780639007127b14610293578063a209a29c146102d8578063a77aa49e14610382578063ac094553146103bd578063dde5b9d514610402578063f58660661461043d575b600080fd5b3480156100cb57600080fd5b506100ee60048036038101908080356000191690602001909291905050506104b4565b60405180826000191660001916815260200191505060405180910390f35b34801561011857600080fd5b5061013b60048036038101908080356000191690602001909291905050506104d9565b604051808215151515815260200191505060405180910390f35b34801561016157600080fd5b506101926004803603810190808035600019169060200190929190803560001916906020019092919050505061050b565b005b3480156101a057600080fd5b506101cf6004803603810190808035600019169060200190929190803515159060200190929190505050610533565b005b3480156101dd57600080fd5b50610200600480360381019080803560001916906020019092919050505061056a565b604051808273ffffffffffffffffffffffffffffffffffffffff1673ffffffffffffffffffffffffffffffffffffffff16815260200191505060405180910390f35b34801561024e57600080fd5b506102916004803603810190808035600019169060200190929190803573ffffffffffffffffffffffffffffffffffffffff1690602001909291905050506105af565b005b34801561029f57600080fd5b506102c2600480360381019080803560001916906020019092919050505061060d565b6040518082815260200191505060405180910390f35b3480156102e457600080fd5b506103076004803603810190808035600019169060200190929190505050610632565b6040518080602001828103825283818151815260200191508051906020019080838360005b8381101561034757808201518184015260208101905061032c565b50505050905090810190601f1680156103745780820380516001836020036101000a031916815260200191505b509250505060405180910390f35b34801561038e57600080fd5b506103bb6004803603810190808035600019169060200190929190803590602001909291905050506106ef565b005b3480156103c957600080fd5b506103ec6004803603810190808035600019169060200190929190505050610713565b6040518082815260200191505060405180910390f35b34801561040e57600080fd5b5061043b600480360381019080803560001916906020019092919080359060200190929190505050610737565b005b34801561044957600080fd5b506104b26004803603810190808035600019169060200190929190803590602001908201803590602001908080601f016020809104026020016040519081016040528093929190818152602001838380828437820191505050505050919291929050505061075a565b005b6000600460008360001916600019168152602001908152602001600020549050919050565b600060056000836000191660001916815260200190815260200160002060009054906101000a900460ff169050919050565b8060046000846000191660001916815260200190815260200160002081600019169055505050565b8060056000846000191660001916815260200190815260200160002060006101000a81548160ff0219169083151502179055505050565b600060036000836000191660001916815260200190815260200160002060009054906101000a900473ffffffffffffffffffffffffffffffffffffffff169050919050565b8060036000846000191660001916815260200190815260200160002060006101000a81548173ffffffffffffffffffffffffffffffffffffffff021916908373ffffffffffffffffffffffffffffffffffffffff1602179055505050565b6000600160008360001916600019168152602001908152602001600020549050919050565b60606002600083600019166000191681526020019081526020016000208054600181600116156101000203166002900480601f0160208091040260200160405190810160405280929190818152602001828054600181600116156101000203166002900480156106e35780601f106106b8576101008083540402835291602001916106e3565b820191906000526020600020905b8154815290600101906020018083116106c657829003601f168201915b50505050509050919050565b80600160008460001916600019168152602001908152602001600020819055505050565b60008060008360001916600019168152602001908152602001600020549050919050565b806000808460001916600019168152602001908152602001600020819055505050565b80600260008460001916600019168152602001908152602001600020908051906020019061078992919061078e565b505050565b828054600181600116156101000203166002900490600052602060002090601f016020900481019282601f106107cf57805160ff19168380011785556107fd565b828001600101855582156107fd579182015b828111156107fc5782518255916020019190600101906107e1565b5b50905061080a919061080e565b5090565b61083091905b8082111561082c576000816000905550600101610814565b5090565b905600a165627a7a72305820ff723bf134b121856ed002e62efbedfc20b00e9d604697da26a6fa1d954db2660029",
  "source": "pragma solidity ^0.4.23;\r\n\r\ncontract EternalStorage{\r\n\r\n    mapping(bytes32 => uint256) private UIntStorage;\r\n    mapping(bytes32 => int) private IntStorage;\r\n    mapping(bytes32 => string) private StringStorage;\r\n    mapping(bytes32 => address) private AddressStorage;    \r\n    mapping(bytes32 => bytes32) private BytesStorage;    \r\n    mapping(bytes32 => bool) private BooleanStorage;    \r\n\r\n    function getUint256Value(bytes32 record) public view returns (uint256){\r\n        return UIntStorage[record];\r\n    }\r\n\r\n    function setUint256Value(bytes32 record, uint256 value256) public\r\n    {\r\n        UIntStorage[record] = value256;\r\n    }\r\n\r\n    function getStringValue(bytes32 record)  public view returns (string){\r\n        return StringStorage[record];\r\n    }\r\n\r\n    function setStringValue(bytes32 record, string value) public\r\n    {\r\n        StringStorage[record] = value;\r\n    }\r\n\r\n    function getAddressValue(bytes32 record)  public view returns (address){\r\n        return AddressStorage[record];\r\n    }\r\n\r\n    function setAddressValue(bytes32 record, address value) public\r\n    {\r\n        AddressStorage[record] = value;\r\n    }\r\n\r\n    function getBytes32Value(bytes32 record)  public view returns (bytes32){\r\n        return BytesStorage[record];\r\n    }\r\n\r\n    function setBytes32Value(bytes32 record, bytes32 value) public\r\n    {\r\n        BytesStorage[record] = value;\r\n    }\r\n\r\n    function getBooleanValue(bytes32 record)  public view returns (bool){\r\n        return BooleanStorage[record];\r\n    }\r\n\r\n    function setBooleanValue(bytes32 record, bool value) public\r\n    {\r\n        BooleanStorage[record] = value;\r\n    }\r\n    \r\n    function getIntValue(bytes32 record) public view returns (int){\r\n        return IntStorage[record];\r\n    }\r\n\r\n    function setIntValue(bytes32 record, int value) public\r\n    {\r\n        IntStorage[record] = value;\r\n    }\r\n}",
  "sourcePath": "C:\\dev\\repos\\VehicleMaintenanceRegistry\\src\\VMR\\contracts\\EternalStorage.sol",
  "compiler": {
    "name": "solc",
    "version": "0.4.24+commit.e67f0147.Emscripten.clang"
  },
  "schemaVersion": "2.0.1",
  "updatedAt": "2018-07-06T16:35:45.599Z"
}