{
  "contractName": "EternalStorage",
  "abi": [
    {
      "constant": false,
      "inputs": [],
      "name": "claimOwnership",
      "outputs": [],
      "payable": false,
      "stateMutability": "nonpayable",
      "type": "function"
    },
    {
      "constant": false,
      "inputs": [],
      "name": "renounceOwnership",
      "outputs": [],
      "payable": false,
      "stateMutability": "nonpayable",
      "type": "function"
    },
    {
      "constant": true,
      "inputs": [],
      "name": "owner",
      "outputs": [
        {
          "name": "",
          "type": "address"
        }
      ],
      "payable": false,
      "stateMutability": "view",
      "type": "function"
    },
    {
      "constant": true,
      "inputs": [],
      "name": "pendingOwner",
      "outputs": [
        {
          "name": "",
          "type": "address"
        }
      ],
      "payable": false,
      "stateMutability": "view",
      "type": "function"
    },
    {
      "constant": false,
      "inputs": [
        {
          "name": "newOwner",
          "type": "address"
        }
      ],
      "name": "transferOwnership",
      "outputs": [],
      "payable": false,
      "stateMutability": "nonpayable",
      "type": "function"
    },
    {
      "anonymous": false,
      "inputs": [
        {
          "indexed": true,
          "name": "previousOwner",
          "type": "address"
        }
      ],
      "name": "OwnershipRenounced",
      "type": "event"
    },
    {
      "anonymous": false,
      "inputs": [
        {
          "indexed": true,
          "name": "previousOwner",
          "type": "address"
        },
        {
          "indexed": true,
          "name": "newOwner",
          "type": "address"
        }
      ],
      "name": "OwnershipTransferred",
      "type": "event"
    },
    {
      "constant": false,
      "inputs": [
        {
          "name": "_address",
          "type": "address"
        }
      ],
      "name": "setContractAddress",
      "outputs": [],
      "payable": false,
      "stateMutability": "nonpayable",
      "type": "function"
    },
    {
      "constant": true,
      "inputs": [],
      "name": "getContractAddress",
      "outputs": [
        {
          "name": "",
          "type": "address"
        }
      ],
      "payable": false,
      "stateMutability": "view",
      "type": "function"
    },
    {
      "constant": false,
      "inputs": [
        {
          "name": "_initialised",
          "type": "bool"
        }
      ],
      "name": "setStorageInitialised",
      "outputs": [],
      "payable": false,
      "stateMutability": "nonpayable",
      "type": "function"
    },
    {
      "constant": true,
      "inputs": [],
      "name": "getStorageInitialised",
      "outputs": [
        {
          "name": "",
          "type": "bool"
        }
      ],
      "payable": false,
      "stateMutability": "view",
      "type": "function"
    },
    {
      "constant": true,
      "inputs": [
        {
          "name": "record",
          "type": "bytes32"
        }
      ],
      "name": "getUint256Value",
      "outputs": [
        {
          "name": "",
          "type": "uint256"
        }
      ],
      "payable": false,
      "stateMutability": "view",
      "type": "function"
    },
    {
      "constant": false,
      "inputs": [
        {
          "name": "record",
          "type": "bytes32"
        },
        {
          "name": "value256",
          "type": "uint256"
        }
      ],
      "name": "setUint256Value",
      "outputs": [],
      "payable": false,
      "stateMutability": "nonpayable",
      "type": "function"
    },
    {
      "constant": true,
      "inputs": [
        {
          "name": "record",
          "type": "bytes32"
        }
      ],
      "name": "getStringValue",
      "outputs": [
        {
          "name": "",
          "type": "string"
        }
      ],
      "payable": false,
      "stateMutability": "view",
      "type": "function"
    },
    {
      "constant": false,
      "inputs": [
        {
          "name": "record",
          "type": "bytes32"
        },
        {
          "name": "value",
          "type": "string"
        }
      ],
      "name": "setStringValue",
      "outputs": [],
      "payable": false,
      "stateMutability": "nonpayable",
      "type": "function"
    },
    {
      "constant": true,
      "inputs": [
        {
          "name": "record",
          "type": "bytes32"
        }
      ],
      "name": "getAddressValue",
      "outputs": [
        {
          "name": "",
          "type": "address"
        }
      ],
      "payable": false,
      "stateMutability": "view",
      "type": "function"
    },
    {
      "constant": false,
      "inputs": [
        {
          "name": "record",
          "type": "bytes32"
        },
        {
          "name": "value",
          "type": "address"
        }
      ],
      "name": "setAddressValue",
      "outputs": [],
      "payable": false,
      "stateMutability": "nonpayable",
      "type": "function"
    },
    {
      "constant": true,
      "inputs": [
        {
          "name": "record",
          "type": "bytes32"
        }
      ],
      "name": "getBytes32Value",
      "outputs": [
        {
          "name": "",
          "type": "bytes32"
        }
      ],
      "payable": false,
      "stateMutability": "view",
      "type": "function"
    },
    {
      "constant": false,
      "inputs": [
        {
          "name": "record",
          "type": "bytes32"
        },
        {
          "name": "value",
          "type": "bytes32"
        }
      ],
      "name": "setBytes32Value",
      "outputs": [],
      "payable": false,
      "stateMutability": "nonpayable",
      "type": "function"
    },
    {
      "constant": true,
      "inputs": [
        {
          "name": "record",
          "type": "bytes32"
        }
      ],
      "name": "getBooleanValue",
      "outputs": [
        {
          "name": "",
          "type": "bool"
        }
      ],
      "payable": false,
      "stateMutability": "view",
      "type": "function"
    },
    {
      "constant": false,
      "inputs": [
        {
          "name": "record",
          "type": "bytes32"
        },
        {
          "name": "value",
          "type": "bool"
        }
      ],
      "name": "setBooleanValue",
      "outputs": [],
      "payable": false,
      "stateMutability": "nonpayable",
      "type": "function"
    }
  ],
  "bytecode": "0x6080604052336000806101000a81548173ffffffffffffffffffffffffffffffffffffffff021916908373ffffffffffffffffffffffffffffffffffffffff160217905550611a93806100536000396000f300608060405260043610610106576000357c0100000000000000000000000000000000000000000000000000000000900463ffffffff1680626d941a1461010b578063025ec81a1461013a5780630f3dcedb1461018757806317e7dd22146101b657806325cf512d146101ff57806332a2c5d01461023e5780633eba9ed214610295578063477bddaa146102d25780634c77e5ba146103155780634e71e0c8146103865780635a2bf25a1461039d578063715018a6146103ee5780638da5cb5b14610405578063a209a29c1461045c578063ac09455314610506578063dde5b9d51461054b578063e30c397814610586578063f2fde38b146105dd578063f586606614610620575b600080fd5b34801561011757600080fd5b50610138600480360381019080803515159060200190929190505050610697565b005b34801561014657600080fd5b50610169600480360381019080803560001916906020019092919050505061075d565b60405180826000191660001916815260200191505060405180910390f35b34801561019357600080fd5b5061019c610782565b604051808215151515815260200191505060405180910390f35b3480156101c257600080fd5b506101e560048036038101908080356000191690602001909291905050506107e7565b604051808215151515815260200191505060405180910390f35b34801561020b57600080fd5b5061023c60048036038101908080356000191690602001909291908035600019169060200190929190505050610819565b005b34801561024a57600080fd5b50610253610a5a565b604051808273ffffffffffffffffffffffffffffffffffffffff1673ffffffffffffffffffffffffffffffffffffffff16815260200191505060405180910390f35b3480156102a157600080fd5b506102d06004803603810190808035600019169060200190929190803515159060200190929190505050610ad2565b005b3480156102de57600080fd5b50610313600480360381019080803573ffffffffffffffffffffffffffffffffffffffff169060200190929190505050610d22565b005b34801561032157600080fd5b506103446004803603810190808035600019169060200190929190505050610e0f565b604051808273ffffffffffffffffffffffffffffffffffffffff1673ffffffffffffffffffffffffffffffffffffffff16815260200191505060405180910390f35b34801561039257600080fd5b5061039b610e54565b005b3480156103a957600080fd5b506103ec6004803603810190808035600019169060200190929190803573ffffffffffffffffffffffffffffffffffffffff169060200190929190505050610ff3565b005b3480156103fa57600080fd5b5061040361126a565b005b34801561041157600080fd5b5061041a61136c565b604051808273ffffffffffffffffffffffffffffffffffffffff1673ffffffffffffffffffffffffffffffffffffffff16815260200191505060405180910390f35b34801561046857600080fd5b5061048b6004803603810190808035600019169060200190929190505050611391565b6040518080602001828103825283818151815260200191508051906020019080838360005b838110156104cb5780820151818401526020810190506104b0565b50505050905090810190601f1680156104f85780820380516001836020036101000a031916815260200191505b509250505060405180910390f35b34801561051257600080fd5b50610535600480360381019080803560001916906020019092919050505061144e565b6040518082815260200191505060405180910390f35b34801561055757600080fd5b50610584600480360381019080803560001916906020019092919080359060200190929190505050611473565b005b34801561059257600080fd5b5061059b6116b0565b604051808273ffffffffffffffffffffffffffffffffffffffff1673ffffffffffffffffffffffffffffffffffffffff16815260200191505060405180910390f35b3480156105e957600080fd5b5061061e600480360381019080803573ffffffffffffffffffffffffffffffffffffffff1690602001909291905050506116d6565b005b34801561062c57600080fd5b506106956004803603810190808035600019169060200190929190803590602001908201803590602001908080601f0160208091040260200160405190810160405280939291908181526020018383808284378201915050505050509192919290505050611775565b005b6000809054906101000a900473ffffffffffffffffffffffffffffffffffffffff1673ffffffffffffffffffffffffffffffffffffffff163373ffffffffffffffffffffffffffffffffffffffff161415156106f257600080fd5b806007600060405180807f636f6e74726163742e73746f726167652e696e697469616c6973656400000000815250601c01905060405180910390206000191660001916815260200190815260200160002060006101000a81548160ff02191690831515021790555050565b6000600660008360001916600019168152602001908152602001600020549050919050565b60006007600060405180807f636f6e74726163742e73746f726167652e696e697469616c6973656400000000815250601c01905060405180910390206000191660001916815260200190815260200160002060009054906101000a900460ff16905090565b600060076000836000191660001916815260200190815260200160002060009054906101000a900460ff169050919050565b610821610782565b15610921573373ffffffffffffffffffffffffffffffffffffffff16610845610a5a565b73ffffffffffffffffffffffffffffffffffffffff1614151561091c576040517f08c379a00000000000000000000000000000000000000000000000000000000081526004018080602001828103825260508152602001807f4f6e63652073746f7261676520697320696e697469616c69736564202d206f6e81526020017f6c792074686520636f6e747261637420616464726573732063616e20696e766f81526020017f6b6520746869732066756e6374696f6e0000000000000000000000000000000081525060600191505060405180910390fd5b610a32565b6000809054906101000a900473ffffffffffffffffffffffffffffffffffffffff1673ffffffffffffffffffffffffffffffffffffffff163373ffffffffffffffffffffffffffffffffffffffff16141515610a31576040517f08c379a000000000000000000000000000000000000000000000000000000000815260040180806020018281038252604a8152602001807f556e74696c207468652073746f7261676520697320696e697469616c6973656481526020017f202d206f6e6c7920746865206f776e65722063616e20696e766f6b652074686981526020017f732066756e6374696f6e0000000000000000000000000000000000000000000081525060600191505060405180910390fd5b5b8060066000846000191660001916815260200190815260200160002081600019169055505050565b60006005600060405180807f636f6e74726163742e6164647265737300000000000000000000000000000000815250601001905060405180910390206000191660001916815260200190815260200160002060009054906101000a900473ffffffffffffffffffffffffffffffffffffffff16905090565b610ada610782565b15610bda573373ffffffffffffffffffffffffffffffffffffffff16610afe610a5a565b73ffffffffffffffffffffffffffffffffffffffff16141515610bd5576040517f08c379a00000000000000000000000000000000000000000000000000000000081526004018080602001828103825260508152602001807f4f6e63652073746f7261676520697320696e697469616c69736564202d206f6e81526020017f6c792074686520636f6e747261637420616464726573732063616e20696e766f81526020017f6b6520746869732066756e6374696f6e0000000000000000000000000000000081525060600191505060405180910390fd5b610ceb565b6000809054906101000a900473ffffffffffffffffffffffffffffffffffffffff1673ffffffffffffffffffffffffffffffffffffffff163373ffffffffffffffffffffffffffffffffffffffff16141515610cea576040517f08c379a000000000000000000000000000000000000000000000000000000000815260040180806020018281038252604a8152602001807f556e74696c207468652073746f7261676520697320696e697469616c6973656481526020017f202d206f6e6c7920746865206f776e65722063616e20696e766f6b652074686981526020017f732066756e6374696f6e0000000000000000000000000000000000000000000081525060600191505060405180910390fd5b5b8060076000846000191660001916815260200190815260200160002060006101000a81548160ff0219169083151502179055505050565b6000809054906101000a900473ffffffffffffffffffffffffffffffffffffffff1673ffffffffffffffffffffffffffffffffffffffff163373ffffffffffffffffffffffffffffffffffffffff16141515610d7d57600080fd5b806005600060405180807f636f6e74726163742e6164647265737300000000000000000000000000000000815250601001905060405180910390206000191660001916815260200190815260200160002060006101000a81548173ffffffffffffffffffffffffffffffffffffffff021916908373ffffffffffffffffffffffffffffffffffffffff16021790555050565b600060056000836000191660001916815260200190815260200160002060009054906101000a900473ffffffffffffffffffffffffffffffffffffffff169050919050565b600160009054906101000a900473ffffffffffffffffffffffffffffffffffffffff1673ffffffffffffffffffffffffffffffffffffffff163373ffffffffffffffffffffffffffffffffffffffff16141515610eb057600080fd5b600160009054906101000a900473ffffffffffffffffffffffffffffffffffffffff1673ffffffffffffffffffffffffffffffffffffffff166000809054906101000a900473ffffffffffffffffffffffffffffffffffffffff1673ffffffffffffffffffffffffffffffffffffffff167f8be0079c531659141344cd1fd0a4f28419497f9722a3daafe3b4186f6b6457e060405160405180910390a3600160009054906101000a900473ffffffffffffffffffffffffffffffffffffffff166000806101000a81548173ffffffffffffffffffffffffffffffffffffffff021916908373ffffffffffffffffffffffffffffffffffffffff1602179055506000600160006101000a81548173ffffffffffffffffffffffffffffffffffffffff021916908373ffffffffffffffffffffffffffffffffffffffff160217905550565b610ffb610782565b156110fb573373ffffffffffffffffffffffffffffffffffffffff1661101f610a5a565b73ffffffffffffffffffffffffffffffffffffffff161415156110f6576040517f08c379a00000000000000000000000000000000000000000000000000000000081526004018080602001828103825260508152602001807f4f6e63652073746f7261676520697320696e697469616c69736564202d206f6e81526020017f6c792074686520636f6e747261637420616464726573732063616e20696e766f81526020017f6b6520746869732066756e6374696f6e0000000000000000000000000000000081525060600191505060405180910390fd5b61120c565b6000809054906101000a900473ffffffffffffffffffffffffffffffffffffffff1673ffffffffffffffffffffffffffffffffffffffff163373ffffffffffffffffffffffffffffffffffffffff1614151561120b576040517f08c379a000000000000000000000000000000000000000000000000000000000815260040180806020018281038252604a8152602001807f556e74696c207468652073746f7261676520697320696e697469616c6973656481526020017f202d206f6e6c7920746865206f776e65722063616e20696e766f6b652074686981526020017f732066756e6374696f6e0000000000000000000000000000000000000000000081525060600191505060405180910390fd5b5b8060056000846000191660001916815260200190815260200160002060006101000a81548173ffffffffffffffffffffffffffffffffffffffff021916908373ffffffffffffffffffffffffffffffffffffffff1602179055505050565b6000809054906101000a900473ffffffffffffffffffffffffffffffffffffffff1673ffffffffffffffffffffffffffffffffffffffff163373ffffffffffffffffffffffffffffffffffffffff161415156112c557600080fd5b6000809054906101000a900473ffffffffffffffffffffffffffffffffffffffff1673ffffffffffffffffffffffffffffffffffffffff167ff8df31144d9c2f0f6b59d69b8b98abd5459d07f2742c4df920b25aae33c6482060405160405180910390a260008060006101000a81548173ffffffffffffffffffffffffffffffffffffffff021916908373ffffffffffffffffffffffffffffffffffffffff160217905550565b6000809054906101000a900473ffffffffffffffffffffffffffffffffffffffff1681565b60606004600083600019166000191681526020019081526020016000208054600181600116156101000203166002900480601f0160208091040260200160405190810160405280929190818152602001828054600181600116156101000203166002900480156114425780601f1061141757610100808354040283529160200191611442565b820191906000526020600020905b81548152906001019060200180831161142557829003601f168201915b50505050509050919050565b6000600260008360001916600019168152602001908152602001600020549050919050565b61147b610782565b1561157b573373ffffffffffffffffffffffffffffffffffffffff1661149f610a5a565b73ffffffffffffffffffffffffffffffffffffffff16141515611576576040517f08c379a00000000000000000000000000000000000000000000000000000000081526004018080602001828103825260508152602001807f4f6e63652073746f7261676520697320696e697469616c69736564202d206f6e81526020017f6c792074686520636f6e747261637420616464726573732063616e20696e766f81526020017f6b6520746869732066756e6374696f6e0000000000000000000000000000000081525060600191505060405180910390fd5b61168c565b6000809054906101000a900473ffffffffffffffffffffffffffffffffffffffff1673ffffffffffffffffffffffffffffffffffffffff163373ffffffffffffffffffffffffffffffffffffffff1614151561168b576040517f08c379a000000000000000000000000000000000000000000000000000000000815260040180806020018281038252604a8152602001807f556e74696c207468652073746f7261676520697320696e697469616c6973656481526020017f202d206f6e6c7920746865206f776e65722063616e20696e766f6b652074686981526020017f732066756e6374696f6e0000000000000000000000000000000000000000000081525060600191505060405180910390fd5b5b80600260008460001916600019168152602001908152602001600020819055505050565b600160009054906101000a900473ffffffffffffffffffffffffffffffffffffffff1681565b6000809054906101000a900473ffffffffffffffffffffffffffffffffffffffff1673ffffffffffffffffffffffffffffffffffffffff163373ffffffffffffffffffffffffffffffffffffffff1614151561173157600080fd5b80600160006101000a81548173ffffffffffffffffffffffffffffffffffffffff021916908373ffffffffffffffffffffffffffffffffffffffff16021790555050565b61177d610782565b1561187d573373ffffffffffffffffffffffffffffffffffffffff166117a1610a5a565b73ffffffffffffffffffffffffffffffffffffffff16141515611878576040517f08c379a00000000000000000000000000000000000000000000000000000000081526004018080602001828103825260508152602001807f4f6e63652073746f7261676520697320696e697469616c69736564202d206f6e81526020017f6c792074686520636f6e747261637420616464726573732063616e20696e766f81526020017f6b6520746869732066756e6374696f6e0000000000000000000000000000000081525060600191505060405180910390fd5b61198e565b6000809054906101000a900473ffffffffffffffffffffffffffffffffffffffff1673ffffffffffffffffffffffffffffffffffffffff163373ffffffffffffffffffffffffffffffffffffffff1614151561198d576040517f08c379a000000000000000000000000000000000000000000000000000000000815260040180806020018281038252604a8152602001807f556e74696c207468652073746f7261676520697320696e697469616c6973656481526020017f202d206f6e6c7920746865206f776e65722063616e20696e766f6b652074686981526020017f732066756e6374696f6e0000000000000000000000000000000000000000000081525060600191505060405180910390fd5b5b8060046000846000191660001916815260200190815260200160002090805190602001906119bd9291906119c2565b505050565b828054600181600116156101000203166002900490600052602060002090601f016020900481019282601f10611a0357805160ff1916838001178555611a31565b82800160010185558215611a31579182015b82811115611a30578251825591602001919060010190611a15565b5b509050611a3e9190611a42565b5090565b611a6491905b80821115611a60576000816000905550600101611a48565b5090565b905600a165627a7a723058204629ccd14d9e4e830b94381b9fd8bdef25069391ff87e7229eac07e69ff322c80029",
  "source": "pragma solidity ^0.4.23;\r\n\r\nimport \"../node_modules/openzeppelin-solidity/contracts/ownership/Claimable.sol\";\r\n\r\ncontract EternalStorage is Claimable {\r\n\r\n    mapping(bytes32 => uint256) private UIntStorage;\r\n    mapping(bytes32 => int) private IntStorage;\r\n    mapping(bytes32 => string) private StringStorage;\r\n    mapping(bytes32 => address) private AddressStorage;    \r\n    mapping(bytes32 => bytes32) private BytesStorage;    \r\n    mapping(bytes32 => bool) private BooleanStorage;    \r\n\r\n    modifier onlyRegisteredCaller() {\r\n        if(getStorageInitialised()) {\r\n            require(getContractAddress() == msg.sender, \"Once storage is initialised - only the contract address can invoke this function\");\r\n        }\r\n        else{\r\n            require(msg.sender == owner, \"Until the storage is initialised - only the owner can invoke this function\");\r\n        }\r\n        _;\r\n    }    \r\n\r\n    function setContractAddress(address _address) onlyOwner() public {\r\n        AddressStorage[keccak256(\"contract.address\")] = _address;\r\n    }\r\n\r\n    function getContractAddress() public view returns (address) {\r\n        return AddressStorage[keccak256(\"contract.address\")];\r\n    }    \r\n\r\n    function setStorageInitialised(bool _initialised) onlyOwner() public {\r\n        BooleanStorage[keccak256(\"contract.storage.initialised\")] = _initialised;\r\n    }\r\n\r\n    function getStorageInitialised() public view returns (bool) {\r\n        return BooleanStorage[keccak256(\"contract.storage.initialised\")];\r\n    }\r\n\r\n    function getUint256Value(bytes32 record) public view returns (uint256){\r\n        return UIntStorage[record];\r\n    }\r\n\r\n    function setUint256Value(bytes32 record, uint256 value256) onlyRegisteredCaller() public\r\n    {\r\n        UIntStorage[record] = value256;\r\n    }\r\n\r\n    function getStringValue(bytes32 record)  public view returns (string){\r\n        return StringStorage[record];\r\n    }\r\n\r\n    function setStringValue(bytes32 record, string value) onlyRegisteredCaller() public\r\n    {\r\n        StringStorage[record] = value;\r\n    }\r\n\r\n    function getAddressValue(bytes32 record)  public view returns (address){\r\n        return AddressStorage[record];\r\n    }\r\n\r\n    function setAddressValue(bytes32 record, address value) onlyRegisteredCaller() public\r\n    {\r\n        AddressStorage[record] = value;\r\n    }\r\n\r\n    function getBytes32Value(bytes32 record)  public view returns (bytes32){\r\n        return BytesStorage[record];\r\n    }\r\n\r\n    function setBytes32Value(bytes32 record, bytes32 value) onlyRegisteredCaller() public\r\n    {\r\n        BytesStorage[record] = value;\r\n    }\r\n\r\n    function getBooleanValue(bytes32 record)  public view returns (bool){\r\n        return BooleanStorage[record];\r\n    }\r\n\r\n    function setBooleanValue(bytes32 record, bool value) onlyRegisteredCaller() public\r\n    {\r\n        BooleanStorage[record] = value;\r\n    }\r\n}",
  "sourcePath": "C:\\dev\\repos\\VehicleMaintenanceRegistry\\src\\VMR\\contracts\\EternalStorage.sol",
  "compiler": {
    "name": "solc",
    "version": "0.4.24+commit.e67f0147.Emscripten.clang"
  },
  "schemaVersion": "2.0.1",
  "updatedAt": "2018-07-17T14:29:23.086Z"
}