{
  "contractName": "LimitBalance",
  "abi": [
    {
      "constant": true,
      "inputs": [],
      "name": "limit",
      "outputs": [
        {
          "name": "",
          "type": "uint256"
        }
      ],
      "payable": false,
      "stateMutability": "view",
      "type": "function"
    },
    {
      "inputs": [
        {
          "name": "_limit",
          "type": "uint256"
        }
      ],
      "payable": false,
      "stateMutability": "nonpayable",
      "type": "constructor"
    }
  ],
  "bytecode": "0x608060405234801561001057600080fd5b506040516020806100e7833981018060405281019080805190602001909291905050508060008190555050609e806100496000396000f300608060405260043610603f576000357c0100000000000000000000000000000000000000000000000000000000900463ffffffff168063a4d66daf146044575b600080fd5b348015604f57600080fd5b506056606c565b6040518082815260200191505060405180910390f35b600054815600a165627a7a72305820a79dc5681ce49e21174151da11129fd729b1640a5eaac665b5c97a711deef07a0029",
  "source": "pragma solidity ^0.4.23;\n\n\n/**\n * @title LimitBalance\n * @dev Simple contract to limit the balance of child contract.\n * @dev Note this doesn't prevent other contracts to send funds by using selfdestruct(address);\n * @dev See: https://github.com/ConsenSys/smart-contract-best-practices#remember-that-ether-can-be-forcibly-sent-to-an-account\n */\ncontract LimitBalance {\n\n  uint256 public limit;\n\n  /**\n   * @dev Constructor that sets the passed value as a limit.\n   * @param _limit uint256 to represent the limit.\n   */\n  constructor(uint256 _limit) public {\n    limit = _limit;\n  }\n\n  /**\n   * @dev Checks if limit was reached. Case true, it throws.\n   */\n  modifier limitedPayable() {\n    require(address(this).balance <= limit);\n    _;\n\n  }\n\n}\n",
  "sourcePath": "C:\\dev\\repos\\VehicleMaintenanceRegistry\\src\\VMR\\contracts\\node_modules\\openzeppelin-solidity\\contracts\\LimitBalance.sol",
  "compiler": {
    "name": "solc",
    "version": "0.4.24+commit.e67f0147.Emscripten.clang"
  },
  "schemaVersion": "2.0.0",
  "updatedAt": "2018-07-02T11:50:24.093Z"
}