{
  "contractName": "VehicleManufacturerRegistry",
  "abi": [
    {
      "constant": false,
      "inputs": [],
      "name": "unpause",
      "outputs": [],
      "payable": false,
      "stateMutability": "nonpayable",
      "type": "function"
    },
    {
      "constant": false,
      "inputs": [],
      "name": "claimOwnership",
      "outputs": [],
      "payable": false,
      "stateMutability": "nonpayable",
      "type": "function"
    },
    {
      "constant": true,
      "inputs": [],
      "name": "paused",
      "outputs": [
        {
          "name": "",
          "type": "bool"
        }
      ],
      "payable": false,
      "stateMutability": "view",
      "type": "function"
    },
    {
      "constant": false,
      "inputs": [],
      "name": "renounceOwnership",
      "outputs": [],
      "payable": false,
      "stateMutability": "nonpayable",
      "type": "function"
    },
    {
      "constant": false,
      "inputs": [],
      "name": "pause",
      "outputs": [],
      "payable": false,
      "stateMutability": "nonpayable",
      "type": "function"
    },
    {
      "constant": true,
      "inputs": [],
      "name": "owner",
      "outputs": [
        {
          "name": "",
          "type": "address"
        }
      ],
      "payable": false,
      "stateMutability": "view",
      "type": "function"
    },
    {
      "constant": false,
      "inputs": [
        {
          "name": "tokens",
          "type": "address[]"
        }
      ],
      "name": "destroy",
      "outputs": [],
      "payable": false,
      "stateMutability": "nonpayable",
      "type": "function"
    },
    {
      "constant": true,
      "inputs": [],
      "name": "pendingOwner",
      "outputs": [
        {
          "name": "",
          "type": "address"
        }
      ],
      "payable": false,
      "stateMutability": "view",
      "type": "function"
    },
    {
      "constant": false,
      "inputs": [
        {
          "name": "newOwner",
          "type": "address"
        }
      ],
      "name": "transferOwnership",
      "outputs": [],
      "payable": false,
      "stateMutability": "nonpayable",
      "type": "function"
    },
    {
      "inputs": [
        {
          "name": "_storageAddress",
          "type": "address"
        }
      ],
      "payable": false,
      "stateMutability": "nonpayable",
      "type": "constructor"
    },
    {
      "anonymous": false,
      "inputs": [
        {
          "indexed": true,
          "name": "name",
          "type": "bytes32"
        }
      ],
      "name": "ManufacturerRegistered",
      "type": "event"
    },
    {
      "anonymous": false,
      "inputs": [
        {
          "indexed": true,
          "name": "name",
          "type": "bytes32"
        }
      ],
      "name": "ManufacturerEnabled",
      "type": "event"
    },
    {
      "anonymous": false,
      "inputs": [
        {
          "indexed": true,
          "name": "name",
          "type": "bytes32"
        }
      ],
      "name": "ManufacturerDisabled",
      "type": "event"
    },
    {
      "anonymous": false,
      "inputs": [
        {
          "indexed": true,
          "name": "name",
          "type": "bytes32"
        },
        {
          "indexed": true,
          "name": "from",
          "type": "address"
        },
        {
          "indexed": true,
          "name": "to",
          "type": "address"
        }
      ],
      "name": "ManufacturerOwnershipTransferRequest",
      "type": "event"
    },
    {
      "anonymous": false,
      "inputs": [
        {
          "indexed": true,
          "name": "name",
          "type": "bytes32"
        },
        {
          "indexed": true,
          "name": "newOwner",
          "type": "address"
        }
      ],
      "name": "ManufacturerOwnershipTransferAccepted",
      "type": "event"
    },
    {
      "anonymous": false,
      "inputs": [],
      "name": "Pause",
      "type": "event"
    },
    {
      "anonymous": false,
      "inputs": [],
      "name": "Unpause",
      "type": "event"
    },
    {
      "anonymous": false,
      "inputs": [
        {
          "indexed": true,
          "name": "previousOwner",
          "type": "address"
        }
      ],
      "name": "OwnershipRenounced",
      "type": "event"
    },
    {
      "anonymous": false,
      "inputs": [
        {
          "indexed": true,
          "name": "previousOwner",
          "type": "address"
        },
        {
          "indexed": true,
          "name": "newOwner",
          "type": "address"
        }
      ],
      "name": "OwnershipTransferred",
      "type": "event"
    },
    {
      "constant": true,
      "inputs": [],
      "name": "getStorageAddress",
      "outputs": [
        {
          "name": "",
          "type": "address"
        }
      ],
      "payable": false,
      "stateMutability": "view",
      "type": "function"
    },
    {
      "constant": true,
      "inputs": [
        {
          "name": "_name",
          "type": "bytes32"
        }
      ],
      "name": "isRegistered",
      "outputs": [
        {
          "name": "",
          "type": "bool"
        }
      ],
      "payable": false,
      "stateMutability": "view",
      "type": "function"
    },
    {
      "constant": true,
      "inputs": [
        {
          "name": "_name",
          "type": "bytes32"
        }
      ],
      "name": "isEnabled",
      "outputs": [
        {
          "name": "",
          "type": "bool"
        }
      ],
      "payable": false,
      "stateMutability": "view",
      "type": "function"
    },
    {
      "constant": true,
      "inputs": [],
      "name": "getCount",
      "outputs": [
        {
          "name": "",
          "type": "uint256"
        }
      ],
      "payable": false,
      "stateMutability": "view",
      "type": "function"
    },
    {
      "constant": true,
      "inputs": [
        {
          "name": "_name",
          "type": "bytes32"
        }
      ],
      "name": "getNumber",
      "outputs": [
        {
          "name": "",
          "type": "uint256"
        }
      ],
      "payable": false,
      "stateMutability": "view",
      "type": "function"
    },
    {
      "constant": true,
      "inputs": [
        {
          "name": "_number",
          "type": "uint256"
        }
      ],
      "name": "getName",
      "outputs": [
        {
          "name": "",
          "type": "bytes32"
        }
      ],
      "payable": false,
      "stateMutability": "view",
      "type": "function"
    },
    {
      "constant": true,
      "inputs": [
        {
          "name": "_name",
          "type": "bytes32"
        }
      ],
      "name": "getAttributeCount",
      "outputs": [
        {
          "name": "",
          "type": "uint256"
        }
      ],
      "payable": false,
      "stateMutability": "view",
      "type": "function"
    },
    {
      "constant": true,
      "inputs": [
        {
          "name": "_name",
          "type": "bytes32"
        },
        {
          "name": "_attributeNumber",
          "type": "uint256"
        }
      ],
      "name": "getAttributeValue",
      "outputs": [
        {
          "name": "",
          "type": "string"
        }
      ],
      "payable": false,
      "stateMutability": "view",
      "type": "function"
    },
    {
      "constant": false,
      "inputs": [
        {
          "name": "_name",
          "type": "bytes32"
        }
      ],
      "name": "registerManufacturer",
      "outputs": [
        {
          "name": "",
          "type": "uint256"
        }
      ],
      "payable": true,
      "stateMutability": "payable",
      "type": "function"
    },
    {
      "constant": false,
      "inputs": [
        {
          "name": "_name",
          "type": "bytes32"
        },
        {
          "name": "_attributeName",
          "type": "bytes32"
        },
        {
          "name": "_val",
          "type": "string"
        }
      ],
      "name": "addAttribute",
      "outputs": [
        {
          "name": "",
          "type": "uint256"
        }
      ],
      "payable": true,
      "stateMutability": "payable",
      "type": "function"
    },
    {
      "constant": false,
      "inputs": [
        {
          "name": "_name",
          "type": "bytes32"
        },
        {
          "name": "_attributeName",
          "type": "bytes32"
        },
        {
          "name": "_val",
          "type": "string"
        }
      ],
      "name": "setAttribute",
      "outputs": [],
      "payable": true,
      "stateMutability": "payable",
      "type": "function"
    },
    {
      "constant": true,
      "inputs": [
        {
          "name": "_name",
          "type": "bytes32"
        }
      ],
      "name": "getManufacturerOwner",
      "outputs": [
        {
          "name": "",
          "type": "address"
        }
      ],
      "payable": false,
      "stateMutability": "view",
      "type": "function"
    },
    {
      "constant": false,
      "inputs": [
        {
          "name": "_name",
          "type": "bytes32"
        }
      ],
      "name": "disableManufacturer",
      "outputs": [],
      "payable": true,
      "stateMutability": "payable",
      "type": "function"
    },
    {
      "constant": false,
      "inputs": [
        {
          "name": "_name",
          "type": "bytes32"
        }
      ],
      "name": "enableManufacturer",
      "outputs": [],
      "payable": true,
      "stateMutability": "payable",
      "type": "function"
    },
    {
      "constant": false,
      "inputs": [
        {
          "name": "_name",
          "type": "bytes32"
        },
        {
          "name": "_newOwner",
          "type": "address"
        },
        {
          "name": "_keyHash",
          "type": "bytes32"
        }
      ],
      "name": "transferManufacturerOwnership",
      "outputs": [],
      "payable": true,
      "stateMutability": "payable",
      "type": "function"
    },
    {
      "constant": false,
      "inputs": [
        {
          "name": "_name",
          "type": "bytes32"
        },
        {
          "name": "_keyHash",
          "type": "bytes32"
        }
      ],
      "name": "acceptManufacturerOwnership",
      "outputs": [],
      "payable": true,
      "stateMutability": "payable",
      "type": "function"
    }
  ],
  "bytecode": "0x60806040526000600160146101000a81548160ff02191690831515021790555034801561002b57600080fd5b506040516020806145ab83398101806040528101908080519060200190929190505050336000806101000a81548173ffffffffffffffffffffffffffffffffffffffff021916908373ffffffffffffffffffffffffffffffffffffffff16021790555080600260006101000a81548173ffffffffffffffffffffffffffffffffffffffff021916908373ffffffffffffffffffffffffffffffffffffffff160217905550506144cc806100df6000396000f300608060405260043610610149576000357c0100000000000000000000000000000000000000000000000000000000900463ffffffff168063010681731461014e5780630610e037146101ac578063068f6319146101f557806327258b221461023a5780632ecb0d6414610283578063393a4d34146102c85780633f4ba83a1461031f5780634e71e0c8146103365780635c975abb1461034d5780636b8ff5741461037c578063715018a6146103c557806373fd7bcb146103dc57806379f3f7a1146104145780638456cb59146104385780638da5cb5b1461044f57806394d85e0b146104a6578063a87d942c1461055a578063acc0189014610585578063b64898a6146105d7578063bfba7b3314610621578063c6786e5a14610645578063c9787805146106ab578063cd9bed951461071c578063e30c39781461074e578063f2fde38b146107a5575b600080fd5b610196600480360381019080803560001916906020019092919080356000191690602001909291908035906020019082018035906020019190919293919293905050506107e8565b6040518082815260200191505060405180910390f35b3480156101b857600080fd5b506101db6004803603810190808035600019169060200190929190505050610cd5565b604051808215151515815260200191505060405180910390f35b34801561020157600080fd5b506102246004803603810190808035600019169060200190929190505050610de2565b6040518082815260200191505060405180910390f35b34801561024657600080fd5b506102696004803603810190808035600019169060200190929190505050611069565b604051808215151515815260200191505060405180910390f35b34801561028f57600080fd5b506102b26004803603810190808035600019169060200190929190505050611176565b6040518082815260200191505060405180910390f35b3480156102d457600080fd5b506102dd611302565b604051808273ffffffffffffffffffffffffffffffffffffffff1673ffffffffffffffffffffffffffffffffffffffff16815260200191505060405180910390f35b34801561032b57600080fd5b5061033461132c565b005b34801561034257600080fd5b5061034b6113eb565b005b34801561035957600080fd5b5061036261158a565b604051808215151515815260200191505060405180910390f35b34801561038857600080fd5b506103a76004803603810190808035906020019092919050505061159d565b60405180826000191660001916815260200191505060405180910390f35b3480156103d157600080fd5b506103da611814565b005b6103fe6004803603810190808035600019169060200190929190505050611916565b6040518082815260200191505060405180910390f35b6104366004803603810190808035600019169060200190929190505050611cd3565b005b34801561044457600080fd5b5061044d612161565b005b34801561045b57600080fd5b50610464612220565b604051808273ffffffffffffffffffffffffffffffffffffffff1673ffffffffffffffffffffffffffffffffffffffff16815260200191505060405180910390f35b3480156104b257600080fd5b506104df600480360381019080803560001916906020019092919080359060200190929190505050612245565b6040518080602001828103825283818151815260200191508051906020019080838360005b8381101561051f578082015181840152602081019050610504565b50505050905090810190601f16801561054c5780820380516001836020036101000a031916815260200191505b509250505060405180910390f35b34801561056657600080fd5b5061056f61252b565b6040518082815260200191505060405180910390f35b6105d56004803603810190808035600019169060200190929190803573ffffffffffffffffffffffffffffffffffffffff1690602001909291908035600019169060200190929190505050612626565b005b61061f60048036038101908080356000191690602001909291908035600019169060200190929190803590602001908201803590602001919091929391929390505050612cf2565b005b610643600480360381019080803560001916906020019092919050505061329c565b005b34801561065157600080fd5b506106a960048036038101908080359060200190820180359060200190808060200260200160405190810160405280939291908181526020018383602002808284378201915050505050509192919290505050613729565b005b3480156106b757600080fd5b506106da60048036038101908080356000191690602001909291905050506139d0565b604051808273ffffffffffffffffffffffffffffffffffffffff1673ffffffffffffffffffffffffffffffffffffffff16815260200191505060405180910390f35b61074c60048036038101908080356000191690602001909291908035600019169060200190929190505050613c57565b005b34801561075a57600080fd5b506107636142ce565b604051808273ffffffffffffffffffffffffffffffffffffffff1673ffffffffffffffffffffffffffffffffffffffff16815260200191505060405180910390f35b3480156107b157600080fd5b506107e6600480360381019080803573ffffffffffffffffffffffffffffffffffffffff1690602001909291905050506142f4565b005b600080600160149054906101000a900460ff1615151561080757600080fd5b6000809054906101000a900473ffffffffffffffffffffffffffffffffffffffff1673ffffffffffffffffffffffffffffffffffffffff163373ffffffffffffffffffffffffffffffffffffffff1614151561086257600080fd5b8573__VehicleManufacturerStorage____________63ed2933ed600260009054906101000a900473ffffffffffffffffffffffffffffffffffffffff166108a984614393565b6040518363ffffffff167c0100000000000000000000000000000000000000000000000000000000028152600401808373ffffffffffffffffffffffffffffffffffffffff1673ffffffffffffffffffffffffffffffffffffffff1681526020018281526020019250505060206040518083038186803b15801561092c57600080fd5b505af4158015610940573d6000803e3d6000fd5b505050506040513d602081101561095657600080fd5b810190808051906020019092919050505015156109db576040517f08c379a000000000000000000000000000000000000000000000000000000000815260040180806020018281038252601f8152602001807f4d616e756661637475726572206d75737420626520726567697374657265640081525060200191505060405180910390fd5b8686600073__VehicleManufacturerStorage____________639b15b8b2600260009054906101000a900473ffffffffffffffffffffffffffffffffffffffff16610a2586614393565b856040518463ffffffff167c0100000000000000000000000000000000000000000000000000000000028152600401808473ffffffffffffffffffffffffffffffffffffffff1673ffffffffffffffffffffffffffffffffffffffff1681526020018381526020018260001916600019168152602001935050505060206040518083038186803b158015610ab857600080fd5b505af4158015610acc573d6000803e3d6000fd5b505050506040513d6020811015610ae257600080fd5b8101908080519060200190929190505050141515610b8e576040517f08c379a00000000000000000000000000000000000000000000000000000000081526004018080602001828103825260258152602001807f417474726962757465206e616d65206d757374206e6f7420616c72656164792081526020017f657869737400000000000000000000000000000000000000000000000000000081525060400191505060405180910390fd5b73__VehicleManufacturerStorage____________63e5864281600260009054906101000a900473ffffffffffffffffffffffffffffffffffffffff16610bd48c614393565b8b8b8b6040518663ffffffff167c0100000000000000000000000000000000000000000000000000000000028152600401808673ffffffffffffffffffffffffffffffffffffffff1673ffffffffffffffffffffffffffffffffffffffff16815260200185815260200184600019166000191681526020018060200182810382528484828181526020019250808284378201915050965050505050505060206040518083038186803b158015610c8957600080fd5b505af4158015610c9d573d6000803e3d6000fd5b505050506040513d6020811015610cb357600080fd5b8101908080519060200190929190505050935083945050505050949350505050565b600073__VehicleManufacturerStorage____________6302a992b0600260009054906101000a900473ffffffffffffffffffffffffffffffffffffffff16610d1d85614393565b6040518363ffffffff167c0100000000000000000000000000000000000000000000000000000000028152600401808373ffffffffffffffffffffffffffffffffffffffff1673ffffffffffffffffffffffffffffffffffffffff1681526020018281526020019250505060206040518083038186803b158015610da057600080fd5b505af4158015610db4573d6000803e3d6000fd5b505050506040513d6020811015610dca57600080fd5b81019080805190602001909291905050509050919050565b60008173__VehicleManufacturerStorage____________63ed2933ed600260009054906101000a900473ffffffffffffffffffffffffffffffffffffffff16610e2b84614393565b6040518363ffffffff167c0100000000000000000000000000000000000000000000000000000000028152600401808373ffffffffffffffffffffffffffffffffffffffff1673ffffffffffffffffffffffffffffffffffffffff1681526020018281526020019250505060206040518083038186803b158015610eae57600080fd5b505af4158015610ec2573d6000803e3d6000fd5b505050506040513d6020811015610ed857600080fd5b81019080805190602001909291905050501515610f5d576040517f08c379a000000000000000000000000000000000000000000000000000000000815260040180806020018281038252601f8152602001807f4d616e756661637475726572206d75737420626520726567697374657265640081525060200191505060405180910390fd5b73__VehicleManufacturerStorage____________631cb1bb44600260009054906101000a900473ffffffffffffffffffffffffffffffffffffffff16610fa386614393565b6040518363ffffffff167c0100000000000000000000000000000000000000000000000000000000028152600401808373ffffffffffffffffffffffffffffffffffffffff1673ffffffffffffffffffffffffffffffffffffffff1681526020018281526020019250505060206040518083038186803b15801561102657600080fd5b505af415801561103a573d6000803e3d6000fd5b505050506040513d602081101561105057600080fd5b8101908080519060200190929190505050915050919050565b600073__VehicleManufacturerStorage____________63ed2933ed600260009054906101000a900473ffffffffffffffffffffffffffffffffffffffff166110b185614393565b6040518363ffffffff167c0100000000000000000000000000000000000000000000000000000000028152600401808373ffffffffffffffffffffffffffffffffffffffff1673ffffffffffffffffffffffffffffffffffffffff1681526020018281526020019250505060206040518083038186803b15801561113457600080fd5b505af4158015611148573d6000803e3d6000fd5b505050506040513d602081101561115e57600080fd5b81019080805190602001909291905050509050919050565b60008173__VehicleManufacturerStorage____________63ed2933ed600260009054906101000a900473ffffffffffffffffffffffffffffffffffffffff166111bf84614393565b6040518363ffffffff167c0100000000000000000000000000000000000000000000000000000000028152600401808373ffffffffffffffffffffffffffffffffffffffff1673ffffffffffffffffffffffffffffffffffffffff1681526020018281526020019250505060206040518083038186803b15801561124257600080fd5b505af4158015611256573d6000803e3d6000fd5b505050506040513d602081101561126c57600080fd5b810190808051906020019092919050505015156112f1576040517f08c379a000000000000000000000000000000000000000000000000000000000815260040180806020018281038252601f8152602001807f4d616e756661637475726572206d75737420626520726567697374657265640081525060200191505060405180910390fd5b6112fa83614393565b915050919050565b6000600260009054906101000a900473ffffffffffffffffffffffffffffffffffffffff16905090565b6000809054906101000a900473ffffffffffffffffffffffffffffffffffffffff1673ffffffffffffffffffffffffffffffffffffffff163373ffffffffffffffffffffffffffffffffffffffff1614151561138757600080fd5b600160149054906101000a900460ff1615156113a257600080fd5b6000600160146101000a81548160ff0219169083151502179055507f7805862f689e2f13df9f062ff482ad3ad112aca9e0847911ed832e158c525b3360405160405180910390a1565b600160009054906101000a900473ffffffffffffffffffffffffffffffffffffffff1673ffffffffffffffffffffffffffffffffffffffff163373ffffffffffffffffffffffffffffffffffffffff1614151561144757600080fd5b600160009054906101000a900473ffffffffffffffffffffffffffffffffffffffff1673ffffffffffffffffffffffffffffffffffffffff166000809054906101000a900473ffffffffffffffffffffffffffffffffffffffff1673ffffffffffffffffffffffffffffffffffffffff167f8be0079c531659141344cd1fd0a4f28419497f9722a3daafe3b4186f6b6457e060405160405180910390a3600160009054906101000a900473ffffffffffffffffffffffffffffffffffffffff166000806101000a81548173ffffffffffffffffffffffffffffffffffffffff021916908373ffffffffffffffffffffffffffffffffffffffff1602179055506000600160006101000a81548173ffffffffffffffffffffffffffffffffffffffff021916908373ffffffffffffffffffffffffffffffffffffffff160217905550565b600160149054906101000a900460ff1681565b60008173__VehicleManufacturerStorage____________63ed2933ed600260009054906101000a900473ffffffffffffffffffffffffffffffffffffffff16836040518363ffffffff167c0100000000000000000000000000000000000000000000000000000000028152600401808373ffffffffffffffffffffffffffffffffffffffff1673ffffffffffffffffffffffffffffffffffffffff1681526020018281526020019250505060206040518083038186803b15801561166157600080fd5b505af4158015611675573d6000803e3d6000fd5b505050506040513d602081101561168b57600080fd5b81019080805190602001909291905050501515611710576040517f08c379a000000000000000000000000000000000000000000000000000000000815260040180806020018281038252601f8152602001807f4d616e756661637475726572206d75737420626520726567697374657265640081525060200191505060405180910390fd5b73__VehicleManufacturerStorage____________63e1090cff600260009054906101000a900473ffffffffffffffffffffffffffffffffffffffff16856040518363ffffffff167c0100000000000000000000000000000000000000000000000000000000028152600401808373ffffffffffffffffffffffffffffffffffffffff1673ffffffffffffffffffffffffffffffffffffffff1681526020018281526020019250505060206040518083038186803b1580156117d157600080fd5b505af41580156117e5573d6000803e3d6000fd5b505050506040513d60208110156117fb57600080fd5b8101908080519060200190929190505050915050919050565b6000809054906101000a900473ffffffffffffffffffffffffffffffffffffffff1673ffffffffffffffffffffffffffffffffffffffff163373ffffffffffffffffffffffffffffffffffffffff1614151561186f57600080fd5b6000809054906101000a900473ffffffffffffffffffffffffffffffffffffffff1673ffffffffffffffffffffffffffffffffffffffff167ff8df31144d9c2f0f6b59d69b8b98abd5459d07f2742c4df920b25aae33c6482060405160405180910390a260008060006101000a81548173ffffffffffffffffffffffffffffffffffffffff021916908373ffffffffffffffffffffffffffffffffffffffff160217905550565b600080600160149054906101000a900460ff1615151561193557600080fd5b6000809054906101000a900473ffffffffffffffffffffffffffffffffffffffff1673ffffffffffffffffffffffffffffffffffffffff163373ffffffffffffffffffffffffffffffffffffffff1614151561199057600080fd5b8273__VehicleManufacturerStorage____________63ed2933ed600260009054906101000a900473ffffffffffffffffffffffffffffffffffffffff166119d784614393565b6040518363ffffffff167c0100000000000000000000000000000000000000000000000000000000028152600401808373ffffffffffffffffffffffffffffffffffffffff1673ffffffffffffffffffffffffffffffffffffffff1681526020018281526020019250505060206040518083038186803b158015611a5a57600080fd5b505af4158015611a6e573d6000803e3d6000fd5b505050506040513d6020811015611a8457600080fd5b8101908080519060200190929190505050151515611b30576040517f08c379a000000000000000000000000000000000000000000000000000000000815260040180806020018281038252602b8152602001807f4d616e756661637475726572206d757374206e6f7420616c726561647920626581526020017f207265676973746572656400000000000000000000000000000000000000000081525060400191505060405180910390fd5b73__VehicleManufacturerStorage____________632a985727600260009054906101000a900473ffffffffffffffffffffffffffffffffffffffff16866000809054906101000a900473ffffffffffffffffffffffffffffffffffffffff1660016040518563ffffffff167c0100000000000000000000000000000000000000000000000000000000028152600401808573ffffffffffffffffffffffffffffffffffffffff1673ffffffffffffffffffffffffffffffffffffffff16815260200184600019166000191681526020018373ffffffffffffffffffffffffffffffffffffffff1673ffffffffffffffffffffffffffffffffffffffff1681526020018215151515815260200194505050505060206040518083038186803b158015611c5b57600080fd5b505af4158015611c6f573d6000803e3d6000fd5b505050506040513d6020811015611c8557600080fd5b8101908080519060200190929190505050915083600019167f609592dd74d4a989c42f9f7e517a8498a6fe30a610e5fbf7f8df3344b1c5a66460405160405180910390a28192505050919050565b600160149054906101000a900460ff16151515611cef57600080fd5b6000809054906101000a900473ffffffffffffffffffffffffffffffffffffffff1673ffffffffffffffffffffffffffffffffffffffff163373ffffffffffffffffffffffffffffffffffffffff16141515611d4a57600080fd5b8073__VehicleManufacturerStorage____________63ed2933ed600260009054906101000a900473ffffffffffffffffffffffffffffffffffffffff16611d9184614393565b6040518363ffffffff167c0100000000000000000000000000000000000000000000000000000000028152600401808373ffffffffffffffffffffffffffffffffffffffff1673ffffffffffffffffffffffffffffffffffffffff1681526020018281526020019250505060206040518083038186803b158015611e1457600080fd5b505af4158015611e28573d6000803e3d6000fd5b505050506040513d6020811015611e3e57600080fd5b81019080805190602001909291905050501515611ec3576040517f08c379a000000000000000000000000000000000000000000000000000000000815260040180806020018281038252601f8152602001807f4d616e756661637475726572206d75737420626520726567697374657265640081525060200191505060405180910390fd5b8173__VehicleManufacturerStorage____________6302a992b0600260009054906101000a900473ffffffffffffffffffffffffffffffffffffffff16611f0a84614393565b6040518363ffffffff167c0100000000000000000000000000000000000000000000000000000000028152600401808373ffffffffffffffffffffffffffffffffffffffff1673ffffffffffffffffffffffffffffffffffffffff1681526020018281526020019250505060206040518083038186803b158015611f8d57600080fd5b505af4158015611fa1573d6000803e3d6000fd5b505050506040513d6020811015611fb757600080fd5b810190808051906020019092919050505015151561203d576040517f08c379a000000000000000000000000000000000000000000000000000000000815260040180806020018281038252601d8152602001807f4d616e756661637475726572206d7573742062652064697361626c656400000081525060200191505060405180910390fd5b73__VehicleManufacturerStorage____________63fe415110600260009054906101000a900473ffffffffffffffffffffffffffffffffffffffff1661208386614393565b60016040518463ffffffff167c0100000000000000000000000000000000000000000000000000000000028152600401808473ffffffffffffffffffffffffffffffffffffffff1673ffffffffffffffffffffffffffffffffffffffff16815260200183815260200182151515158152602001935050505060006040518083038186803b15801561211357600080fd5b505af4158015612127573d6000803e3d6000fd5b5050505082600019167f228ea707ffe35bf7295db73bc8c9e56eba2bbc705a6c9f9b0ac645f7b758697060405160405180910390a2505050565b6000809054906101000a900473ffffffffffffffffffffffffffffffffffffffff1673ffffffffffffffffffffffffffffffffffffffff163373ffffffffffffffffffffffffffffffffffffffff161415156121bc57600080fd5b600160149054906101000a900460ff161515156121d857600080fd5b60018060146101000a81548160ff0219169083151502179055507f6985a02210a168e66602d3235cb6db0e70f92b3ba4d376a33c0f3d9434bff62560405160405180910390a1565b6000809054906101000a900473ffffffffffffffffffffffffffffffffffffffff1681565b60608273__VehicleManufacturerStorage____________63ed2933ed600260009054906101000a900473ffffffffffffffffffffffffffffffffffffffff1661228e84614393565b6040518363ffffffff167c0100000000000000000000000000000000000000000000000000000000028152600401808373ffffffffffffffffffffffffffffffffffffffff1673ffffffffffffffffffffffffffffffffffffffff1681526020018281526020019250505060206040518083038186803b15801561231157600080fd5b505af4158015612325573d6000803e3d6000fd5b505050506040513d602081101561233b57600080fd5b810190808051906020019092919050505015156123c0576040517f08c379a000000000000000000000000000000000000000000000000000000000815260040180806020018281038252601f8152602001807f4d616e756661637475726572206d75737420626520726567697374657265640081525060200191505060405180910390fd5b73__VehicleManufacturerStorage____________639f66058e600260009054906101000a900473ffffffffffffffffffffffffffffffffffffffff1661240687614393565b866040518463ffffffff167c0100000000000000000000000000000000000000000000000000000000028152600401808473ffffffffffffffffffffffffffffffffffffffff1673ffffffffffffffffffffffffffffffffffffffff168152602001838152602001828152602001935050505060006040518083038186803b15801561249157600080fd5b505af41580156124a5573d6000803e3d6000fd5b505050506040513d6000823e3d601f19601f8201168201806040525060208110156124cf57600080fd5b8101908080516401000000008111156124e757600080fd5b828101905060208101848111156124fd57600080fd5b815185600182028301116401000000008211171561251a57600080fd5b505092919050505091505092915050565b600073__VehicleManufacturerStorage____________63bdea633a600260009054906101000a900473ffffffffffffffffffffffffffffffffffffffff166040518263ffffffff167c0100000000000000000000000000000000000000000000000000000000028152600401808273ffffffffffffffffffffffffffffffffffffffff1673ffffffffffffffffffffffffffffffffffffffff16815260200191505060206040518083038186803b1580156125e657600080fd5b505af41580156125fa573d6000803e3d6000fd5b505050506040513d602081101561261057600080fd5b8101908080519060200190929190505050905090565b600080600160149054906101000a900460ff1615151561264557600080fd5b8473__VehicleManufacturerStorage____________63ed2933ed600260009054906101000a900473ffffffffffffffffffffffffffffffffffffffff1661268c84614393565b6040518363ffffffff167c0100000000000000000000000000000000000000000000000000000000028152600401808373ffffffffffffffffffffffffffffffffffffffff1673ffffffffffffffffffffffffffffffffffffffff1681526020018281526020019250505060206040518083038186803b15801561270f57600080fd5b505af4158015612723573d6000803e3d6000fd5b505050506040513d602081101561273957600080fd5b810190808051906020019092919050505015156127be576040517f08c379a000000000000000000000000000000000000000000000000000000000815260040180806020018281038252601f8152602001807f4d616e756661637475726572206d75737420626520726567697374657265640081525060200191505060405180910390fd5b853373ffffffffffffffffffffffffffffffffffffffff1673__VehicleManufacturerStorage____________632f634a90600260009054906101000a900473ffffffffffffffffffffffffffffffffffffffff1661281c85614393565b6040518363ffffffff167c0100000000000000000000000000000000000000000000000000000000028152600401808373ffffffffffffffffffffffffffffffffffffffff1673ffffffffffffffffffffffffffffffffffffffff1681526020018281526020019250505060206040518083038186803b15801561289f57600080fd5b505af41580156128b3573d6000803e3d6000fd5b505050506040513d60208110156128c957600080fd5b810190808051906020019092919050505073ffffffffffffffffffffffffffffffffffffffff1614151561298b576040517f08c379a00000000000000000000000000000000000000000000000000000000081526004018080602001828103825260388152602001807f4f6e6c7920746865206f776e6572206f6620746865206d616e7566616374757281526020017f65722063616e20706572666f726d2074686973207461736b000000000000000081525060400191505060405180910390fd5b61299487614393565b935073__VehicleManufacturerStorage____________632f634a90600260009054906101000a900473ffffffffffffffffffffffffffffffffffffffff16866040518363ffffffff167c0100000000000000000000000000000000000000000000000000000000028152600401808373ffffffffffffffffffffffffffffffffffffffff1673ffffffffffffffffffffffffffffffffffffffff1681526020018281526020019250505060206040518083038186803b158015612a5757600080fd5b505af4158015612a6b573d6000803e3d6000fd5b505050506040513d6020811015612a8157600080fd5b8101908080519060200190929190505050925073__VehicleManufacturerStorage____________63e24bb305600260009054906101000a900473ffffffffffffffffffffffffffffffffffffffff1686896040518463ffffffff167c0100000000000000000000000000000000000000000000000000000000028152600401808473ffffffffffffffffffffffffffffffffffffffff1673ffffffffffffffffffffffffffffffffffffffff1681526020018381526020018273ffffffffffffffffffffffffffffffffffffffff1673ffffffffffffffffffffffffffffffffffffffff168152602001935050505060006040518083038186803b158015612b8957600080fd5b505af4158015612b9d573d6000803e3d6000fd5b5050505073__VehicleManufacturerStorage____________6359774ca1600260009054906101000a900473ffffffffffffffffffffffffffffffffffffffff1686886040518463ffffffff167c0100000000000000000000000000000000000000000000000000000000028152600401808473ffffffffffffffffffffffffffffffffffffffff1673ffffffffffffffffffffffffffffffffffffffff1681526020018381526020018260001916600019168152602001935050505060006040518083038186803b158015612c7257600080fd5b505af4158015612c86573d6000803e3d6000fd5b505050508573ffffffffffffffffffffffffffffffffffffffff168373ffffffffffffffffffffffffffffffffffffffff1688600019167fada589b9351a396c2e7312d4ee9fc2bcf8505233ca0766798e54bd94989ebf5860405160405180910390a450505050505050565b6000600160149054906101000a900460ff16151515612d1057600080fd5b6000809054906101000a900473ffffffffffffffffffffffffffffffffffffffff1673ffffffffffffffffffffffffffffffffffffffff163373ffffffffffffffffffffffffffffffffffffffff16141515612d6b57600080fd5b8473__VehicleManufacturerStorage____________63ed2933ed600260009054906101000a900473ffffffffffffffffffffffffffffffffffffffff16612db284614393565b6040518363ffffffff167c0100000000000000000000000000000000000000000000000000000000028152600401808373ffffffffffffffffffffffffffffffffffffffff1673ffffffffffffffffffffffffffffffffffffffff1681526020018281526020019250505060206040518083038186803b158015612e3557600080fd5b505af4158015612e49573d6000803e3d6000fd5b505050506040513d6020811015612e5f57600080fd5b81019080805190602001909291905050501515612ee4576040517f08c379a000000000000000000000000000000000000000000000000000000000815260040180806020018281038252601f8152602001807f4d616e756661637475726572206d75737420626520726567697374657265640081525060200191505060405180910390fd5b8585600073__VehicleManufacturerStorage____________639b15b8b2600260009054906101000a900473ffffffffffffffffffffffffffffffffffffffff16612f2e86614393565b856040518463ffffffff167c0100000000000000000000000000000000000000000000000000000000028152600401808473ffffffffffffffffffffffffffffffffffffffff1673ffffffffffffffffffffffffffffffffffffffff1681526020018381526020018260001916600019168152602001935050505060206040518083038186803b158015612fc157600080fd5b505af4158015612fd5573d6000803e3d6000fd5b505050506040513d6020811015612feb57600080fd5b8101908080519060200190929190505050111515613071576040517f08c379a00000000000000000000000000000000000000000000000000000000081526004018080602001828103825260198152602001807f417474726962757465206e616d65206d7573742065786973740000000000000081525060200191505060405180910390fd5b73__VehicleManufacturerStorage____________639b15b8b2600260009054906101000a900473ffffffffffffffffffffffffffffffffffffffff166130b78b614393565b8a6040518463ffffffff167c0100000000000000000000000000000000000000000000000000000000028152600401808473ffffffffffffffffffffffffffffffffffffffff1673ffffffffffffffffffffffffffffffffffffffff1681526020018381526020018260001916600019168152602001935050505060206040518083038186803b15801561314a57600080fd5b505af415801561315e573d6000803e3d6000fd5b505050506040513d602081101561317457600080fd5b8101908080519060200190929190505050935073__VehicleManufacturerStorage____________635e8adda7600260009054906101000a900473ffffffffffffffffffffffffffffffffffffffff166131cd8b614393565b878a8a6040518663ffffffff167c0100000000000000000000000000000000000000000000000000000000028152600401808673ffffffffffffffffffffffffffffffffffffffff1673ffffffffffffffffffffffffffffffffffffffff1681526020018581526020018481526020018060200182810382528484828181526020019250808284378201915050965050505050505060006040518083038186803b15801561327a57600080fd5b505af415801561328e573d6000803e3d6000fd5b505050505050505050505050565b600160149054906101000a900460ff161515156132b857600080fd5b6000809054906101000a900473ffffffffffffffffffffffffffffffffffffffff1673ffffffffffffffffffffffffffffffffffffffff163373ffffffffffffffffffffffffffffffffffffffff1614151561331357600080fd5b8073__VehicleManufacturerStorage____________63ed2933ed600260009054906101000a900473ffffffffffffffffffffffffffffffffffffffff1661335a84614393565b6040518363ffffffff167c0100000000000000000000000000000000000000000000000000000000028152600401808373ffffffffffffffffffffffffffffffffffffffff1673ffffffffffffffffffffffffffffffffffffffff1681526020018281526020019250505060206040518083038186803b1580156133dd57600080fd5b505af41580156133f1573d6000803e3d6000fd5b505050506040513d602081101561340757600080fd5b8101908080519060200190929190505050151561348c576040517f08c379a000000000000000000000000000000000000000000000000000000000815260040180806020018281038252601f8152602001807f4d616e756661637475726572206d75737420626520726567697374657265640081525060200191505060405180910390fd5b8173__VehicleManufacturerStorage____________6302a992b0600260009054906101000a900473ffffffffffffffffffffffffffffffffffffffff166134d384614393565b6040518363ffffffff167c0100000000000000000000000000000000000000000000000000000000028152600401808373ffffffffffffffffffffffffffffffffffffffff1673ffffffffffffffffffffffffffffffffffffffff1681526020018281526020019250505060206040518083038186803b15801561355657600080fd5b505af415801561356a573d6000803e3d6000fd5b505050506040513d602081101561358057600080fd5b81019080805190602001909291905050501515613605576040517f08c379a000000000000000000000000000000000000000000000000000000000815260040180806020018281038252601c8152602001807f4d616e756661637475726572206d75737420626520656e61626c65640000000081525060200191505060405180910390fd5b73__VehicleManufacturerStorage____________63fe415110600260009054906101000a900473ffffffffffffffffffffffffffffffffffffffff1661364b86614393565b60006040518463ffffffff167c0100000000000000000000000000000000000000000000000000000000028152600401808473ffffffffffffffffffffffffffffffffffffffff1673ffffffffffffffffffffffffffffffffffffffff16815260200183815260200182151515158152602001935050505060006040518083038186803b1580156136db57600080fd5b505af41580156136ef573d6000803e3d6000fd5b5050505082600019167f06323fa6050c06977a789317f58e2827ab1390a6e26d5dc9e5dadca320611b8160405160405180910390a2505050565b60008060008060009054906101000a900473ffffffffffffffffffffffffffffffffffffffff1673ffffffffffffffffffffffffffffffffffffffff163373ffffffffffffffffffffffffffffffffffffffff1614151561378957600080fd5b600092505b83518310156139965783838151811015156137a557fe5b9060200190602002015191508173ffffffffffffffffffffffffffffffffffffffff166370a08231306040518263ffffffff167c0100000000000000000000000000000000000000000000000000000000028152600401808273ffffffffffffffffffffffffffffffffffffffff1673ffffffffffffffffffffffffffffffffffffffff168152602001915050602060405180830381600087803b15801561384c57600080fd5b505af1158015613860573d6000803e3d6000fd5b505050506040513d602081101561387657600080fd5b810190808051906020019092919050505090508173ffffffffffffffffffffffffffffffffffffffff1663a9059cbb6000809054906101000a900473ffffffffffffffffffffffffffffffffffffffff16836040518363ffffffff167c0100000000000000000000000000000000000000000000000000000000028152600401808373ffffffffffffffffffffffffffffffffffffffff1673ffffffffffffffffffffffffffffffffffffffff16815260200182815260200192505050602060405180830381600087803b15801561394d57600080fd5b505af1158015613961573d6000803e3d6000fd5b505050506040513d602081101561397757600080fd5b810190808051906020019092919050505050828060010193505061378e565b6000809054906101000a900473ffffffffffffffffffffffffffffffffffffffff1673ffffffffffffffffffffffffffffffffffffffff16ff5b60008173__VehicleManufacturerStorage____________63ed2933ed600260009054906101000a900473ffffffffffffffffffffffffffffffffffffffff16613a1984614393565b6040518363ffffffff167c0100000000000000000000000000000000000000000000000000000000028152600401808373ffffffffffffffffffffffffffffffffffffffff1673ffffffffffffffffffffffffffffffffffffffff1681526020018281526020019250505060206040518083038186803b158015613a9c57600080fd5b505af4158015613ab0573d6000803e3d6000fd5b505050506040513d6020811015613ac657600080fd5b81019080805190602001909291905050501515613b4b576040517f08c379a000000000000000000000000000000000000000000000000000000000815260040180806020018281038252601f8152602001807f4d616e756661637475726572206d75737420626520726567697374657265640081525060200191505060405180910390fd5b73__VehicleManufacturerStorage____________632f634a90600260009054906101000a900473ffffffffffffffffffffffffffffffffffffffff16613b9186614393565b6040518363ffffffff167c0100000000000000000000000000000000000000000000000000000000028152600401808373ffffffffffffffffffffffffffffffffffffffff1673ffffffffffffffffffffffffffffffffffffffff1681526020018281526020019250505060206040518083038186803b158015613c1457600080fd5b505af4158015613c28573d6000803e3d6000fd5b505050506040513d6020811015613c3e57600080fd5b8101908080519060200190929190505050915050919050565b600160149054906101000a900460ff16151515613c7357600080fd5b8173__VehicleManufacturerStorage____________63ed2933ed600260009054906101000a900473ffffffffffffffffffffffffffffffffffffffff16613cba84614393565b6040518363ffffffff167c0100000000000000000000000000000000000000000000000000000000028152600401808373ffffffffffffffffffffffffffffffffffffffff1673ffffffffffffffffffffffffffffffffffffffff1681526020018281526020019250505060206040518083038186803b158015613d3d57600080fd5b505af4158015613d51573d6000803e3d6000fd5b505050506040513d6020811015613d6757600080fd5b81019080805190602001909291905050501515613dec576040517f08c379a000000000000000000000000000000000000000000000000000000000815260040180806020018281038252601f8152602001807f4d616e756661637475726572206d75737420626520726567697374657265640081525060200191505060405180910390fd5b823373ffffffffffffffffffffffffffffffffffffffff1673__VehicleManufacturerStorage____________6382045caa600260009054906101000a900473ffffffffffffffffffffffffffffffffffffffff16613e4a85614393565b6040518363ffffffff167c0100000000000000000000000000000000000000000000000000000000028152600401808373ffffffffffffffffffffffffffffffffffffffff1673ffffffffffffffffffffffffffffffffffffffff1681526020018281526020019250505060206040518083038186803b158015613ecd57600080fd5b505af4158015613ee1573d6000803e3d6000fd5b505050506040513d6020811015613ef757600080fd5b810190808051906020019092919050505073ffffffffffffffffffffffffffffffffffffffff16141515613fb9576040517f08c379a00000000000000000000000000000000000000000000000000000000081526004018080602001828103825260408152602001807f4f6e6c79207468652070656e64696e67206f776e6572206f6620746865206d6181526020017f6e7566616374757265722063616e20706572666f726d2074686973207461736b81525060400191505060405180910390fd5b8383600073__VehicleManufacturerStorage____________6366126894600260009054906101000a900473ffffffffffffffffffffffffffffffffffffffff1661400386614393565b6040518363ffffffff167c0100000000000000000000000000000000000000000000000000000000028152600401808373ffffffffffffffffffffffffffffffffffffffff1673ffffffffffffffffffffffffffffffffffffffff1681526020018281526020019250505060206040518083038186803b15801561408657600080fd5b505af415801561409a573d6000803e3d6000fd5b505050506040513d60208110156140b057600080fd5b8101908080519060200190929190505050905081600019168160001916141515614168576040517f08c379a00000000000000000000000000000000000000000000000000000000081526004018080602001828103825260358152602001807f546865206b65792070726f7669646564206d757374206d61746368207468652081526020017f6578697374696e67207472616e73666572206b6579000000000000000000000081525060400191505060405180910390fd5b73__VehicleManufacturerStorage____________6319409a95600260009054906101000a900473ffffffffffffffffffffffffffffffffffffffff166141ae8a614393565b336040518463ffffffff167c0100000000000000000000000000000000000000000000000000000000028152600401808473ffffffffffffffffffffffffffffffffffffffff1673ffffffffffffffffffffffffffffffffffffffff1681526020018381526020018273ffffffffffffffffffffffffffffffffffffffff1673ffffffffffffffffffffffffffffffffffffffff168152602001935050505060006040518083038186803b15801561426557600080fd5b505af4158015614279573d6000803e3d6000fd5b505050503373ffffffffffffffffffffffffffffffffffffffff1687600019167f6f0f4baa8b626fcd5e98d6472e00bea0c4c2da5d3389b0bb5fb178034acdc33060405160405180910390a350505050505050565b600160009054906101000a900473ffffffffffffffffffffffffffffffffffffffff1681565b6000809054906101000a900473ffffffffffffffffffffffffffffffffffffffff1673ffffffffffffffffffffffffffffffffffffffff163373ffffffffffffffffffffffffffffffffffffffff1614151561434f57600080fd5b80600160006101000a81548173ffffffffffffffffffffffffffffffffffffffff021916908373ffffffffffffffffffffffffffffffffffffffff16021790555050565b600073__VehicleManufacturerStorage____________63aae7df05600260009054906101000a900473ffffffffffffffffffffffffffffffffffffffff16846040518363ffffffff167c0100000000000000000000000000000000000000000000000000000000028152600401808373ffffffffffffffffffffffffffffffffffffffff1673ffffffffffffffffffffffffffffffffffffffff16815260200182600019166000191681526020019250505060206040518083038186803b15801561445e57600080fd5b505af4158015614472573d6000803e3d6000fd5b505050506040513d602081101561448857600080fd5b810190808051906020019092919050505090509190505600a165627a7a72305820cb47eedfba34dcf5f9ca599bbcd83c4882ebd71842a7edc53abd33d965789c550029",
  "source": "pragma solidity ^0.4.23;\r\n\r\nimport \"../node_modules/openzeppelin-solidity/contracts/ownership/Claimable.sol\";\r\nimport \"../node_modules/openzeppelin-solidity/contracts/lifecycle/TokenDestructible.sol\";\r\nimport \"../node_modules/openzeppelin-solidity/contracts/lifecycle/Pausable.sol\";\r\nimport \"./VehicleManufacturerStorage.sol\";\r\nimport \"./IVehicleManufacturerRegistry.sol\";\r\nimport \"./ByteUtils.sol\";\r\n\r\ncontract VehicleManufacturerRegistry is IVehicleManufacturerRegistry, Claimable, TokenDestructible, Pausable {\r\n\r\n    using ByteUtils for bytes32;\r\n\r\n    address private storageAddress;\r\n    \r\n    event ManufacturerRegistered(bytes32 indexed name);\r\n    event ManufacturerEnabled(bytes32 indexed indexed name);\r\n    event ManufacturerDisabled(bytes32 indexed name);\r\n    event ManufacturerOwnershipTransferRequest(bytes32 indexed name, address indexed from, address indexed to);\r\n    event ManufacturerOwnershipTransferAccepted(bytes32 indexed name, address indexed newOwner);\r\n\r\n    constructor(address _storageAddress) public {\r\n        storageAddress = _storageAddress;\r\n    }\r\n\r\n    modifier isARegisteredManufacturer(bytes32 _name) {\r\n        require(VehicleManufacturerStorage.exists(storageAddress, getNum(_name)), \"Manufacturer must be registered\");\r\n        _;\r\n    }\r\n\r\n    modifier isARegisteredManufacturerNumber(uint256 _number) {\r\n        require(VehicleManufacturerStorage.exists(storageAddress, _number), \"Manufacturer must be registered\");\r\n        _;\r\n    }\r\n\r\n    modifier manufacturerMustBeEnabled(bytes32 _name) {\r\n        require(VehicleManufacturerStorage.getEnabled(storageAddress, getNum(_name)), \"Manufacturer must be enabled\");\r\n        _;\r\n    }\r\n\r\n    modifier manufacturerMustBeDisabled(bytes32 _name) {\r\n        require(!VehicleManufacturerStorage.getEnabled(storageAddress, getNum(_name)), \"Manufacturer must be disabled\");\r\n        _;\r\n    }      \r\n\r\n    modifier manufacturerIsNotRegistered(bytes32 _name) {\r\n        require(!VehicleManufacturerStorage.exists(storageAddress, getNum(_name)), \"Manufacturer must not already be registered\");\r\n        _;\r\n    }\r\n\r\n    modifier onlyManufacturerOwner(bytes32 _name) {\r\n        require(\r\n            VehicleManufacturerStorage.getOwner(storageAddress, getNum(_name)) == msg.sender, \r\n            \"Only the owner of the manufacturer can perform this task\");\r\n        _;\r\n    }\r\n\r\n    modifier onlyPendingManufacturerOwner(bytes32 _name) {\r\n        require(\r\n            VehicleManufacturerStorage.getPendingOwner(storageAddress, getNum(_name)) == msg.sender, \r\n            \"Only the pending owner of the manufacturer can perform this task\");\r\n        _;\r\n    }    \r\n\r\n    modifier manufacturerTransferKeyMatches(bytes32 _name, bytes32 _keyHash) {\r\n        bytes32 transferKey = VehicleManufacturerStorage.getTransferKey(storageAddress, getNum(_name));\r\n        require(transferKey == _keyHash, \"The key provided must match the existing transfer key\");\r\n        _;        \r\n    }\r\n\r\n    modifier attributeNameDoesNotExist(bytes32 _name, bytes32 _attribName) {\r\n        require(VehicleManufacturerStorage.getAttributeNumber(storageAddress, getNum(_name), _attribName) == 0,\r\n        \"Attribute name must not already exist\");\r\n        _;\r\n    }\r\n\r\n    modifier attributeNameExists(bytes32 _name, bytes32 _attribName) {\r\n        require(VehicleManufacturerStorage.getAttributeNumber(storageAddress, getNum(_name), _attribName) > 0,\r\n        \"Attribute name must exist\");\r\n        _;\r\n    }    \r\n\r\n    function getStorageAddress() \r\n        public view \r\n        returns(address) {\r\n        return storageAddress;\r\n    }      \r\n\r\n    function isRegistered(bytes32 _name) \r\n        external view \r\n        returns (bool) {\r\n        return VehicleManufacturerStorage.exists(storageAddress, getNum(_name));\r\n    }\r\n\r\n    function isEnabled(bytes32 _name) \r\n        external view \r\n        returns (bool) {\r\n        return VehicleManufacturerStorage.getEnabled(storageAddress, getNum(_name));\r\n    }\r\n\r\n    function getCount() \r\n        external view \r\n        returns (uint256) {\r\n        return VehicleManufacturerStorage.getTotalCount(storageAddress);\r\n    }\r\n\r\n    function getNumber(bytes32 _name) \r\n        external view \r\n        isARegisteredManufacturer(_name)\r\n        returns (uint256) {\r\n        return getNum(_name);\r\n    }    \r\n\r\n    function getName(uint256 _number)\r\n        external view \r\n        isARegisteredManufacturerNumber(_number)\r\n        returns (bytes32) {\r\n        return VehicleManufacturerStorage.getName(storageAddress, _number);\r\n    }\r\n\r\n    function getAttributeCount(bytes32 _name) \r\n        external view\r\n        isARegisteredManufacturer(_name)\r\n        returns (uint256) {\r\n        return VehicleManufacturerStorage.getAttributeCount(storageAddress, getNum(_name));\r\n    }\r\n\r\n    function getAttributeValue(bytes32 _name, uint256 _attributeNumber) \r\n        external view \r\n        isARegisteredManufacturer(_name)\r\n        returns (string) {\r\n        return VehicleManufacturerStorage.getAttributeValue(storageAddress, getNum(_name), _attributeNumber);\r\n    }\r\n\r\n    function registerManufacturer(bytes32 _name) \r\n        external payable\r\n        whenNotPaused()\r\n        onlyOwner()\r\n        manufacturerIsNotRegistered(_name)\r\n        returns (uint256) {\r\n        uint256 number = VehicleManufacturerStorage.store(storageAddress, _name, owner, true);\r\n        emit ManufacturerRegistered(_name);\r\n        return number;\r\n    }\r\n\r\n    function addAttribute(bytes32 _name, bytes32 _attributeName, string _val) \r\n        external payable \r\n        whenNotPaused()\r\n        onlyOwner()\r\n        isARegisteredManufacturer(_name)\r\n        attributeNameDoesNotExist(_name, _attributeName)\r\n        returns (uint256) {\r\n        uint256 attribNumber = VehicleManufacturerStorage.storeAttribute(storageAddress, getNum(_name), _attributeName, _val);\r\n        return attribNumber;\r\n    } \r\n\r\n    function setAttribute(bytes32 _name, bytes32 _attributeName, string _val) \r\n        external payable \r\n        whenNotPaused()\r\n        onlyOwner()\r\n        isARegisteredManufacturer(_name)\r\n        attributeNameExists(_name, _attributeName) {\r\n        uint256 attribNumber = VehicleManufacturerStorage.getAttributeNumber(storageAddress, getNum(_name), _attributeName);\r\n        VehicleManufacturerStorage.setAttributeValue(storageAddress, getNum(_name), attribNumber, _val);\r\n    }        \r\n\r\n    function getManufacturerOwner(bytes32 _name)\r\n        external view \r\n        isARegisteredManufacturer(_name)\r\n        returns (address) {\r\n            return VehicleManufacturerStorage.getOwner(storageAddress, getNum(_name));\r\n    }\r\n\r\n    function disableManufacturer(bytes32 _name) \r\n        external payable\r\n        whenNotPaused()\r\n        onlyOwner()\r\n        isARegisteredManufacturer(_name)\r\n        manufacturerMustBeEnabled(_name)\r\n         {\r\n        VehicleManufacturerStorage.setEnabled(storageAddress, getNum(_name), false);    \r\n        emit ManufacturerDisabled(_name);\r\n    }\r\n\r\n    function enableManufacturer(bytes32 _name) \r\n        external payable \r\n        whenNotPaused()\r\n        onlyOwner()\r\n        isARegisteredManufacturer(_name)\r\n        manufacturerMustBeDisabled(_name)\r\n        {     \r\n        VehicleManufacturerStorage.setEnabled(storageAddress, getNum(_name), true);    \r\n        emit ManufacturerEnabled(_name);\r\n    }\r\n\r\n    function transferManufacturerOwnership(bytes32 _name, address _newOwner, bytes32 _keyHash) \r\n        external payable \r\n        whenNotPaused()\r\n        isARegisteredManufacturer(_name)\r\n        onlyManufacturerOwner(_name)\r\n        {\r\n        uint256 number = getNum(_name);            \r\n        address currentOwner = VehicleManufacturerStorage.getOwner(storageAddress, number);  \r\n        VehicleManufacturerStorage.setPendingOwner(storageAddress, number, _newOwner);  \r\n        VehicleManufacturerStorage.setTransferKey(storageAddress, number, _keyHash);  \r\n        emit ManufacturerOwnershipTransferRequest(_name, currentOwner, _newOwner);\r\n    }\r\n\r\n    function acceptManufacturerOwnership(bytes32 _name, bytes32 _keyHash) \r\n        external payable\r\n        whenNotPaused()\r\n        isARegisteredManufacturer(_name)\r\n        onlyPendingManufacturerOwner(_name)\r\n        manufacturerTransferKeyMatches(_name, _keyHash)\r\n         {  \r\n        VehicleManufacturerStorage.setOwner(storageAddress, getNum(_name), msg.sender);\r\n        emit ManufacturerOwnershipTransferAccepted(_name, msg.sender);\r\n    } \r\n\r\n    function getNum(bytes32 _name) \r\n        private view \r\n        returns (uint256) {\r\n        return VehicleManufacturerStorage.getNumber(storageAddress, _name);  \r\n    }   \r\n}",
  "sourcePath": "C:\\dev\\repos\\VehicleMaintenanceRegistry\\src\\VMR\\contracts\\VehicleManufacturerRegistry.sol",
  "compiler": {
    "name": "solc",
    "version": "0.4.24+commit.e67f0147.Emscripten.clang"
  },
  "schemaVersion": "2.0.1",
  "updatedAt": "2018-07-10T21:01:41.996Z"
}