{
  "contractName": "VehicleMaintenanceLog",
  "abi": [
    {
      "constant": false,
      "inputs": [],
      "name": "unpause",
      "outputs": [],
      "payable": false,
      "stateMutability": "nonpayable",
      "type": "function"
    },
    {
      "constant": false,
      "inputs": [],
      "name": "claimOwnership",
      "outputs": [],
      "payable": false,
      "stateMutability": "nonpayable",
      "type": "function"
    },
    {
      "constant": true,
      "inputs": [],
      "name": "paused",
      "outputs": [
        {
          "name": "",
          "type": "bool"
        }
      ],
      "payable": false,
      "stateMutability": "view",
      "type": "function"
    },
    {
      "constant": false,
      "inputs": [],
      "name": "renounceOwnership",
      "outputs": [],
      "payable": false,
      "stateMutability": "nonpayable",
      "type": "function"
    },
    {
      "constant": false,
      "inputs": [],
      "name": "pause",
      "outputs": [],
      "payable": false,
      "stateMutability": "nonpayable",
      "type": "function"
    },
    {
      "constant": true,
      "inputs": [],
      "name": "owner",
      "outputs": [
        {
          "name": "",
          "type": "address"
        }
      ],
      "payable": false,
      "stateMutability": "view",
      "type": "function"
    },
    {
      "constant": false,
      "inputs": [
        {
          "name": "tokens",
          "type": "address[]"
        }
      ],
      "name": "destroy",
      "outputs": [],
      "payable": false,
      "stateMutability": "nonpayable",
      "type": "function"
    },
    {
      "constant": true,
      "inputs": [],
      "name": "pendingOwner",
      "outputs": [
        {
          "name": "",
          "type": "address"
        }
      ],
      "payable": false,
      "stateMutability": "view",
      "type": "function"
    },
    {
      "constant": false,
      "inputs": [
        {
          "name": "newOwner",
          "type": "address"
        }
      ],
      "name": "transferOwnership",
      "outputs": [],
      "payable": false,
      "stateMutability": "nonpayable",
      "type": "function"
    },
    {
      "inputs": [
        {
          "name": "_storageAddress",
          "type": "address"
        },
        {
          "name": "_vehicleRegistryAddress",
          "type": "address"
        },
        {
          "name": "_VIN",
          "type": "bytes32"
        }
      ],
      "payable": false,
      "stateMutability": "nonpayable",
      "type": "constructor"
    },
    {
      "anonymous": false,
      "inputs": [
        {
          "indexed": true,
          "name": "maintainer",
          "type": "address"
        }
      ],
      "name": "WorkAuthorisationAdded",
      "type": "event"
    },
    {
      "anonymous": false,
      "inputs": [
        {
          "indexed": true,
          "name": "maintainer",
          "type": "address"
        }
      ],
      "name": "WorkAuthorisationRemoved",
      "type": "event"
    },
    {
      "anonymous": false,
      "inputs": [
        {
          "indexed": true,
          "name": "logNumber",
          "type": "uint256"
        },
        {
          "indexed": true,
          "name": "maintainer",
          "type": "address"
        }
      ],
      "name": "LogAdded",
      "type": "event"
    },
    {
      "anonymous": false,
      "inputs": [
        {
          "indexed": true,
          "name": "logNumber",
          "type": "uint256"
        },
        {
          "indexed": true,
          "name": "docNumber",
          "type": "uint256"
        }
      ],
      "name": "LogDocAdded",
      "type": "event"
    },
    {
      "anonymous": false,
      "inputs": [
        {
          "indexed": true,
          "name": "logNumber",
          "type": "uint256"
        }
      ],
      "name": "LogVerified",
      "type": "event"
    },
    {
      "anonymous": false,
      "inputs": [],
      "name": "Pause",
      "type": "event"
    },
    {
      "anonymous": false,
      "inputs": [],
      "name": "Unpause",
      "type": "event"
    },
    {
      "anonymous": false,
      "inputs": [
        {
          "indexed": true,
          "name": "previousOwner",
          "type": "address"
        }
      ],
      "name": "OwnershipRenounced",
      "type": "event"
    },
    {
      "anonymous": false,
      "inputs": [
        {
          "indexed": true,
          "name": "previousOwner",
          "type": "address"
        },
        {
          "indexed": true,
          "name": "newOwner",
          "type": "address"
        }
      ],
      "name": "OwnershipTransferred",
      "type": "event"
    },
    {
      "constant": true,
      "inputs": [],
      "name": "getVin",
      "outputs": [
        {
          "name": "",
          "type": "bytes32"
        }
      ],
      "payable": false,
      "stateMutability": "view",
      "type": "function"
    },
    {
      "constant": false,
      "inputs": [
        {
          "name": "_maintainer",
          "type": "address"
        }
      ],
      "name": "addWorkAuthorisation",
      "outputs": [],
      "payable": true,
      "stateMutability": "payable",
      "type": "function"
    },
    {
      "constant": false,
      "inputs": [
        {
          "name": "_maintainer",
          "type": "address"
        }
      ],
      "name": "removeWorkAuthorisation",
      "outputs": [],
      "payable": true,
      "stateMutability": "payable",
      "type": "function"
    },
    {
      "constant": false,
      "inputs": [
        {
          "name": "_logId",
          "type": "bytes32"
        },
        {
          "name": "_date",
          "type": "uint256"
        },
        {
          "name": "_title",
          "type": "string"
        },
        {
          "name": "_description",
          "type": "string"
        }
      ],
      "name": "add",
      "outputs": [],
      "payable": true,
      "stateMutability": "payable",
      "type": "function"
    },
    {
      "constant": false,
      "inputs": [
        {
          "name": "_logNumber",
          "type": "uint256"
        },
        {
          "name": "_title",
          "type": "string"
        },
        {
          "name": "_ipfsAddressForDoc",
          "type": "bytes32"
        }
      ],
      "name": "addDoc",
      "outputs": [],
      "payable": true,
      "stateMutability": "payable",
      "type": "function"
    },
    {
      "constant": false,
      "inputs": [
        {
          "name": "_logId",
          "type": "bytes32"
        }
      ],
      "name": "verify",
      "outputs": [],
      "payable": true,
      "stateMutability": "payable",
      "type": "function"
    },
    {
      "constant": true,
      "inputs": [],
      "name": "getLogCount",
      "outputs": [
        {
          "name": "",
          "type": "uint256"
        }
      ],
      "payable": false,
      "stateMutability": "view",
      "type": "function"
    },
    {
      "constant": true,
      "inputs": [
        {
          "name": "_logId",
          "type": "bytes32"
        }
      ],
      "name": "getLogNumber",
      "outputs": [
        {
          "name": "",
          "type": "uint256"
        }
      ],
      "payable": false,
      "stateMutability": "view",
      "type": "function"
    },
    {
      "constant": true,
      "inputs": [
        {
          "name": "_logNumber",
          "type": "uint256"
        }
      ],
      "name": "getLog",
      "outputs": [
        {
          "name": "logNumber",
          "type": "uint256"
        },
        {
          "name": "id",
          "type": "bytes32"
        },
        {
          "name": "maintainer",
          "type": "address"
        },
        {
          "name": "date",
          "type": "uint256"
        },
        {
          "name": "title",
          "type": "string"
        },
        {
          "name": "description",
          "type": "string"
        },
        {
          "name": "verified",
          "type": "bool"
        }
      ],
      "payable": false,
      "stateMutability": "view",
      "type": "function"
    },
    {
      "constant": true,
      "inputs": [
        {
          "name": "_logNumber",
          "type": "uint256"
        }
      ],
      "name": "getDocCount",
      "outputs": [
        {
          "name": "",
          "type": "uint256"
        }
      ],
      "payable": false,
      "stateMutability": "view",
      "type": "function"
    },
    {
      "constant": true,
      "inputs": [
        {
          "name": "_logNumber",
          "type": "uint256"
        },
        {
          "name": "_docNumber",
          "type": "uint256"
        }
      ],
      "name": "getDoc",
      "outputs": [
        {
          "name": "docNumber",
          "type": "uint256"
        },
        {
          "name": "title",
          "type": "string"
        },
        {
          "name": "ipfsAddress",
          "type": "bytes32"
        }
      ],
      "payable": false,
      "stateMutability": "view",
      "type": "function"
    }
  ],
  "bytecode": "0x60806040526000600160146101000a81548160ff0219169083151502179055503480156200002c57600080fd5b5060405160608062004296833981018060405281019080805190602001909291908051906020019092919080519060200190929190505050336000806101000a81548173ffffffffffffffffffffffffffffffffffffffff021916908373ffffffffffffffffffffffffffffffffffffffff160217905550620000d98273ffffffffffffffffffffffffffffffffffffffff16620004036401000000000262003e31176401000000009004565b1515620000e557600080fd5b8173ffffffffffffffffffffffffffffffffffffffff1663c02b4991826040518263ffffffff167c0100000000000000000000000000000000000000000000000000000000028152600401808260001916600019168152602001915050602060405180830381600087803b1580156200015d57600080fd5b505af115801562000172573d6000803e3d6000fd5b505050506040513d60208110156200018957600080fd5b81019080805190602001909291905050501515620001a657600080fd5b3373ffffffffffffffffffffffffffffffffffffffff168273ffffffffffffffffffffffffffffffffffffffff16634b3cb584836040518263ffffffff167c0100000000000000000000000000000000000000000000000000000000028152600401808260001916600019168152602001915050602060405180830381600087803b1580156200023557600080fd5b505af11580156200024a573d6000803e3d6000fd5b505050506040513d60208110156200026157600080fd5b810190808051906020019092919050505073ffffffffffffffffffffffffffffffffffffffff161415156200029557600080fd5b82600260006101000a81548173ffffffffffffffffffffffffffffffffffffffff021916908373ffffffffffffffffffffffffffffffffffffffff16021790555081600360006101000a81548173ffffffffffffffffffffffffffffffffffffffff021916908373ffffffffffffffffffffffffffffffffffffffff16021790555073__VehicleMaintenanceLogStorage__________632e0ca6c2600260009054906101000a900473ffffffffffffffffffffffffffffffffffffffff16836040518363ffffffff167c0100000000000000000000000000000000000000000000000000000000028152600401808373ffffffffffffffffffffffffffffffffffffffff1673ffffffffffffffffffffffffffffffffffffffff16815260200182600019166000191681526020019250505060006040518083038186803b158015620003e157600080fd5b505af4158015620003f6573d6000803e3d6000fd5b5050505050505062000416565b600080823b905060008111915050919050565b613e7080620004266000396000f300608060405260043610610112576000357c0100000000000000000000000000000000000000000000000000000000900463ffffffff1680631b01ebb7146101175780632ed2dc9b146101dd5780633206b2c61461021e5780633f4ba83a1461038b5780634e71e0c8146103a25780635c975abb146103b9578063618033db146103e8578063715018a61461041357806375e366161461042a5780638456cb591461044e5780638a264dc5146104655780638da5cb5b146104aa578063a992f48314610501578063bf20f94014610537578063c6786e5a1461056a578063e30c3978146105d0578063e9a455b614610627578063f2fde38b1461066d578063f325c925146106b0578063f9622a8e146106e6575b600080fd5b34801561012357600080fd5b5061014c6004803603810190808035906020019092919080359060200190929190505050610744565b60405180848152602001806020018360001916600019168152602001828103825284818151815260200191508051906020019080838360005b838110156101a0578082015181840152602081019050610185565b50505050905090810190601f1680156101cd5780820380516001836020036101000a031916815260200191505b5094505050505060405180910390f35b3480156101e957600080fd5b5061020860048036038101908080359060200190929190505050610ae6565b6040518082815260200191505060405180910390f35b34801561022a57600080fd5b5061024960048036038101908080359060200190929190505050610d8a565b6040518088815260200187600019166000191681526020018673ffffffffffffffffffffffffffffffffffffffff1673ffffffffffffffffffffffffffffffffffffffff168152602001858152602001806020018060200184151515158152602001838103835286818151815260200191508051906020019080838360005b838110156102e35780820151818401526020810190506102c8565b50505050905090810190601f1680156103105780820380516001836020036101000a031916815260200191505b50838103825285818151815260200191508051906020019080838360005b8381101561034957808201518184015260208101905061032e565b50505050905090810190601f1680156103765780820380516001836020036101000a031916815260200191505b50995050505050505050505060405180910390f35b34801561039757600080fd5b506103a0610fa7565b005b3480156103ae57600080fd5b506103b7611066565b005b3480156103c557600080fd5b506103ce611205565b604051808215151515815260200191505060405180910390f35b3480156103f457600080fd5b506103fd611218565b6040518082815260200191505060405180910390f35b34801561041f57600080fd5b50610428611313565b005b61044c6004803603810190808035600019169060200190929190505050611415565b005b34801561045a57600080fd5b50610463611996565b005b34801561047157600080fd5b506104946004803603810190808035600019169060200190929190505050611a55565b6040518082815260200191505060405180910390f35b3480156104b657600080fd5b506104bf611d05565b604051808273ffffffffffffffffffffffffffffffffffffffff1673ffffffffffffffffffffffffffffffffffffffff16815260200191505060405180910390f35b610535600480360381019080803573ffffffffffffffffffffffffffffffffffffffff169060200190929190505050611d2a565b005b34801561054357600080fd5b5061054c612034565b60405180826000191660001916815260200191505060405180910390f35b34801561057657600080fd5b506105ce6004803603810190808035906020019082018035906020019080806020026020016040519081016040528093929190818152602001838360200280828437820191505050505050919291929050505061212f565b005b3480156105dc57600080fd5b506105e56123d6565b604051808273ffffffffffffffffffffffffffffffffffffffff1673ffffffffffffffffffffffffffffffffffffffff16815260200191505060405180910390f35b61066b6004803603810190808035906020019092919080359060200190820180359060200191909192939192939080356000191690602001909291905050506123fc565b005b34801561067957600080fd5b506106ae600480360381019080803573ffffffffffffffffffffffffffffffffffffffff169060200190929190505050612926565b005b6106e4600480360381019080803573ffffffffffffffffffffffffffffffffffffffff1690602001909291905050506129c5565b005b610742600480360381019080803560001916906020019092919080359060200190929190803590602001908201803590602001919091929391929390803590602001908201803590602001919091929391929390505050612ccf565b005b600060606000610752613db3565b85600081118015610856575073__VehicleMaintenanceLogStorage__________634f0cd27b600260009054906101000a900473ffffffffffffffffffffffffffffffffffffffff166040518263ffffffff167c0100000000000000000000000000000000000000000000000000000000028152600401808273ffffffffffffffffffffffffffffffffffffffff1673ffffffffffffffffffffffffffffffffffffffff16815260200191505060206040518083038186803b15801561081757600080fd5b505af415801561082b573d6000803e3d6000fd5b505050506040513d602081101561084157600080fd5b81019080805190602001909291905050508111155b15156108f0576040517f08c379a00000000000000000000000000000000000000000000000000000000081526004018080602001828103825260318152602001807f546865206c6f67206e756d626572206d75737420657869737420746f20696e7681526020017f6f6b6520746869732066756e6374696f6e00000000000000000000000000000081525060400191505060405180910390fd5b86866000811180156109fd575073__VehicleMaintenanceLogStorage__________63a5981800600260009054906101000a900473ffffffffffffffffffffffffffffffffffffffff16846040518363ffffffff167c0100000000000000000000000000000000000000000000000000000000028152600401808373ffffffffffffffffffffffffffffffffffffffff1673ffffffffffffffffffffffffffffffffffffffff1681526020018281526020019250505060206040518083038186803b1580156109be57600080fd5b505af41580156109d2573d6000803e3d6000fd5b505050506040513d60208110156109e857600080fd5b81019080805190602001909291905050508111155b1515610a97576040517f08c379a00000000000000000000000000000000000000000000000000000000081526004018080602001828103825260318152602001807f546865206c6f67206e756d626572206d75737420657869737420746f20696e7681526020017f6f6b6520746869732066756e6374696f6e00000000000000000000000000000081525060400191505060405180910390fd5b610ac4600260009054906101000a900473ffffffffffffffffffffffffffffffffffffffff168a8a613084565b9350836000015196508360200151955083604001519450505050509250925092565b600081600081118015610bec575073__VehicleMaintenanceLogStorage__________634f0cd27b600260009054906101000a900473ffffffffffffffffffffffffffffffffffffffff166040518263ffffffff167c0100000000000000000000000000000000000000000000000000000000028152600401808273ffffffffffffffffffffffffffffffffffffffff1673ffffffffffffffffffffffffffffffffffffffff16815260200191505060206040518083038186803b158015610bad57600080fd5b505af4158015610bc1573d6000803e3d6000fd5b505050506040513d6020811015610bd757600080fd5b81019080805190602001909291905050508111155b1515610c86576040517f08c379a00000000000000000000000000000000000000000000000000000000081526004018080602001828103825260318152602001807f546865206c6f67206e756d626572206d75737420657869737420746f20696e7681526020017f6f6b6520746869732066756e6374696f6e00000000000000000000000000000081525060400191505060405180910390fd5b73__VehicleMaintenanceLogStorage__________63a5981800600260009054906101000a900473ffffffffffffffffffffffffffffffffffffffff16856040518363ffffffff167c0100000000000000000000000000000000000000000000000000000000028152600401808373ffffffffffffffffffffffffffffffffffffffff1673ffffffffffffffffffffffffffffffffffffffff1681526020018281526020019250505060206040518083038186803b158015610d4757600080fd5b505af4158015610d5b573d6000803e3d6000fd5b505050506040513d6020811015610d7157600080fd5b8101908080519060200190929190505050915050919050565b6000806000806060806000610d9d613dd8565b88600081118015610ea1575073__VehicleMaintenanceLogStorage__________634f0cd27b600260009054906101000a900473ffffffffffffffffffffffffffffffffffffffff166040518263ffffffff167c0100000000000000000000000000000000000000000000000000000000028152600401808273ffffffffffffffffffffffffffffffffffffffff1673ffffffffffffffffffffffffffffffffffffffff16815260200191505060206040518083038186803b158015610e6257600080fd5b505af4158015610e76573d6000803e3d6000fd5b505050506040513d6020811015610e8c57600080fd5b81019080805190602001909291905050508111155b1515610f3b576040517f08c379a00000000000000000000000000000000000000000000000000000000081526004018080602001828103825260318152602001807f546865206c6f67206e756d626572206d75737420657869737420746f20696e7681526020017f6f6b6520746869732066756e6374696f6e00000000000000000000000000000081525060400191505060405180910390fd5b610f67600260009054906101000a900473ffffffffffffffffffffffffffffffffffffffff168b6130d5565b915081600001519850816020015197508160400151965081606001519550816080015194508160a0015193508160c0015192505050919395979092949650565b6000809054906101000a900473ffffffffffffffffffffffffffffffffffffffff1673ffffffffffffffffffffffffffffffffffffffff163373ffffffffffffffffffffffffffffffffffffffff1614151561100257600080fd5b600160149054906101000a900460ff16151561101d57600080fd5b6000600160146101000a81548160ff0219169083151502179055507f7805862f689e2f13df9f062ff482ad3ad112aca9e0847911ed832e158c525b3360405160405180910390a1565b600160009054906101000a900473ffffffffffffffffffffffffffffffffffffffff1673ffffffffffffffffffffffffffffffffffffffff163373ffffffffffffffffffffffffffffffffffffffff161415156110c257600080fd5b600160009054906101000a900473ffffffffffffffffffffffffffffffffffffffff1673ffffffffffffffffffffffffffffffffffffffff166000809054906101000a900473ffffffffffffffffffffffffffffffffffffffff1673ffffffffffffffffffffffffffffffffffffffff167f8be0079c531659141344cd1fd0a4f28419497f9722a3daafe3b4186f6b6457e060405160405180910390a3600160009054906101000a900473ffffffffffffffffffffffffffffffffffffffff166000806101000a81548173ffffffffffffffffffffffffffffffffffffffff021916908373ffffffffffffffffffffffffffffffffffffffff1602179055506000600160006101000a81548173ffffffffffffffffffffffffffffffffffffffff021916908373ffffffffffffffffffffffffffffffffffffffff160217905550565b600160149054906101000a900460ff1681565b600073__VehicleMaintenanceLogStorage__________634f0cd27b600260009054906101000a900473ffffffffffffffffffffffffffffffffffffffff166040518263ffffffff167c0100000000000000000000000000000000000000000000000000000000028152600401808273ffffffffffffffffffffffffffffffffffffffff1673ffffffffffffffffffffffffffffffffffffffff16815260200191505060206040518083038186803b1580156112d357600080fd5b505af41580156112e7573d6000803e3d6000fd5b505050506040513d60208110156112fd57600080fd5b8101908080519060200190929190505050905090565b6000809054906101000a900473ffffffffffffffffffffffffffffffffffffffff1673ffffffffffffffffffffffffffffffffffffffff163373ffffffffffffffffffffffffffffffffffffffff1614151561136e57600080fd5b6000809054906101000a900473ffffffffffffffffffffffffffffffffffffffff1673ffffffffffffffffffffffffffffffffffffffff167ff8df31144d9c2f0f6b59d69b8b98abd5459d07f2742c4df920b25aae33c6482060405160405180910390a260008060006101000a81548173ffffffffffffffffffffffffffffffffffffffff021916908373ffffffffffffffffffffffffffffffffffffffff160217905550565b6000600160149054906101000a900460ff1615151561143357600080fd5b3373ffffffffffffffffffffffffffffffffffffffff16600360009054906101000a900473ffffffffffffffffffffffffffffffffffffffff1673ffffffffffffffffffffffffffffffffffffffff16634b3cb584611490612034565b6040518263ffffffff167c0100000000000000000000000000000000000000000000000000000000028152600401808260001916600019168152602001915050602060405180830381600087803b1580156114ea57600080fd5b505af11580156114fe573d6000803e3d6000fd5b505050506040513d602081101561151457600080fd5b810190808051906020019092919050505073ffffffffffffffffffffffffffffffffffffffff161415156115d6576040517f08c379a00000000000000000000000000000000000000000000000000000000081526004018080602001828103825260368152602001807f596f75206d757374206265207468652076656869636c65206f776e657220746f81526020017f20706572666f726d20746869732066756e6374696f6e0000000000000000000081525060400191505060405180910390fd5b81600073__VehicleMaintenanceLogStorage__________63af442970600260009054906101000a900473ffffffffffffffffffffffffffffffffffffffff16846040518363ffffffff167c0100000000000000000000000000000000000000000000000000000000028152600401808373ffffffffffffffffffffffffffffffffffffffff1673ffffffffffffffffffffffffffffffffffffffff16815260200182600019166000191681526020019250505060206040518083038186803b1580156116a257600080fd5b505af41580156116b6573d6000803e3d6000fd5b505050506040513d60208110156116cc57600080fd5b8101908080519060200190929190505050111515611778576040517f08c379a000000000000000000000000000000000000000000000000000000000815260040180806020018281038252602d8152602001807f546865206c6f67204964206d75737420657869737420746f20696e766f6b652081526020017f746869732066756e6374696f6e0000000000000000000000000000000000000081525060400191505060405180910390fd5b73__VehicleMaintenanceLogStorage__________63af442970600260009054906101000a900473ffffffffffffffffffffffffffffffffffffffff16856040518363ffffffff167c0100000000000000000000000000000000000000000000000000000000028152600401808373ffffffffffffffffffffffffffffffffffffffff1673ffffffffffffffffffffffffffffffffffffffff16815260200182600019166000191681526020019250505060206040518083038186803b15801561184157600080fd5b505af4158015611855573d6000803e3d6000fd5b505050506040513d602081101561186b57600080fd5b8101908080519060200190929190505050915073__VehicleMaintenanceLogStorage__________63e4d742b7600260009054906101000a900473ffffffffffffffffffffffffffffffffffffffff168460016040518463ffffffff167c0100000000000000000000000000000000000000000000000000000000028152600401808473ffffffffffffffffffffffffffffffffffffffff1673ffffffffffffffffffffffffffffffffffffffff16815260200183815260200182151515158152602001935050505060006040518083038186803b15801561194c57600080fd5b505af4158015611960573d6000803e3d6000fd5b50505050817fa0e0952eeb8a29015c32288f8634da6a95d211a98004c160bc627df27c3dbecf60405160405180910390a2505050565b6000809054906101000a900473ffffffffffffffffffffffffffffffffffffffff1673ffffffffffffffffffffffffffffffffffffffff163373ffffffffffffffffffffffffffffffffffffffff161415156119f157600080fd5b600160149054906101000a900460ff16151515611a0d57600080fd5b60018060146101000a81548160ff0219169083151502179055507f6985a02210a168e66602d3235cb6db0e70f92b3ba4d376a33c0f3d9434bff62560405160405180910390a1565b600081600073__VehicleMaintenanceLogStorage__________63af442970600260009054906101000a900473ffffffffffffffffffffffffffffffffffffffff16846040518363ffffffff167c0100000000000000000000000000000000000000000000000000000000028152600401808373ffffffffffffffffffffffffffffffffffffffff1673ffffffffffffffffffffffffffffffffffffffff16815260200182600019166000191681526020019250505060206040518083038186803b158015611b2357600080fd5b505af4158015611b37573d6000803e3d6000fd5b505050506040513d6020811015611b4d57600080fd5b8101908080519060200190929190505050111515611bf9576040517f08c379a000000000000000000000000000000000000000000000000000000000815260040180806020018281038252602d8152602001807f546865206c6f67204964206d75737420657869737420746f20696e766f6b652081526020017f746869732066756e6374696f6e0000000000000000000000000000000000000081525060400191505060405180910390fd5b73__VehicleMaintenanceLogStorage__________63af442970600260009054906101000a900473ffffffffffffffffffffffffffffffffffffffff16856040518363ffffffff167c0100000000000000000000000000000000000000000000000000000000028152600401808373ffffffffffffffffffffffffffffffffffffffff1673ffffffffffffffffffffffffffffffffffffffff16815260200182600019166000191681526020019250505060206040518083038186803b158015611cc257600080fd5b505af4158015611cd6573d6000803e3d6000fd5b505050506040513d6020811015611cec57600080fd5b8101908080519060200190929190505050915050919050565b6000809054906101000a900473ffffffffffffffffffffffffffffffffffffffff1681565b600160149054906101000a900460ff16151515611d4657600080fd5b3373ffffffffffffffffffffffffffffffffffffffff16600360009054906101000a900473ffffffffffffffffffffffffffffffffffffffff1673ffffffffffffffffffffffffffffffffffffffff16634b3cb584611da3612034565b6040518263ffffffff167c0100000000000000000000000000000000000000000000000000000000028152600401808260001916600019168152602001915050602060405180830381600087803b158015611dfd57600080fd5b505af1158015611e11573d6000803e3d6000fd5b505050506040513d6020811015611e2757600080fd5b810190808051906020019092919050505073ffffffffffffffffffffffffffffffffffffffff16141515611ee9576040517f08c379a00000000000000000000000000000000000000000000000000000000081526004018080602001828103825260368152602001807f596f75206d757374206265207468652076656869636c65206f776e657220746f81526020017f20706572666f726d20746869732066756e6374696f6e0000000000000000000081525060400191505060405180910390fd5b73__VehicleMaintenanceLogStorage__________633f374470600260009054906101000a900473ffffffffffffffffffffffffffffffffffffffff16836040518363ffffffff167c0100000000000000000000000000000000000000000000000000000000028152600401808373ffffffffffffffffffffffffffffffffffffffff1673ffffffffffffffffffffffffffffffffffffffff1681526020018273ffffffffffffffffffffffffffffffffffffffff1673ffffffffffffffffffffffffffffffffffffffff1681526020019250505060006040518083038186803b158015611fd657600080fd5b505af4158015611fea573d6000803e3d6000fd5b505050508073ffffffffffffffffffffffffffffffffffffffff167f17e4403dbabb1c8097fe6eef20b1202c84e36b59ffd96ac52c4a2aeb92c6325360405160405180910390a250565b600073__VehicleMaintenanceLogStorage__________63d2895d5f600260009054906101000a900473ffffffffffffffffffffffffffffffffffffffff166040518263ffffffff167c0100000000000000000000000000000000000000000000000000000000028152600401808273ffffffffffffffffffffffffffffffffffffffff1673ffffffffffffffffffffffffffffffffffffffff16815260200191505060206040518083038186803b1580156120ef57600080fd5b505af4158015612103573d6000803e3d6000fd5b505050506040513d602081101561211957600080fd5b8101908080519060200190929190505050905090565b60008060008060009054906101000a900473ffffffffffffffffffffffffffffffffffffffff1673ffffffffffffffffffffffffffffffffffffffff163373ffffffffffffffffffffffffffffffffffffffff1614151561218f57600080fd5b600092505b835183101561239c5783838151811015156121ab57fe5b9060200190602002015191508173ffffffffffffffffffffffffffffffffffffffff166370a08231306040518263ffffffff167c0100000000000000000000000000000000000000000000000000000000028152600401808273ffffffffffffffffffffffffffffffffffffffff1673ffffffffffffffffffffffffffffffffffffffff168152602001915050602060405180830381600087803b15801561225257600080fd5b505af1158015612266573d6000803e3d6000fd5b505050506040513d602081101561227c57600080fd5b810190808051906020019092919050505090508173ffffffffffffffffffffffffffffffffffffffff1663a9059cbb6000809054906101000a900473ffffffffffffffffffffffffffffffffffffffff16836040518363ffffffff167c0100000000000000000000000000000000000000000000000000000000028152600401808373ffffffffffffffffffffffffffffffffffffffff1673ffffffffffffffffffffffffffffffffffffffff16815260200182815260200192505050602060405180830381600087803b15801561235357600080fd5b505af1158015612367573d6000803e3d6000fd5b505050506040513d602081101561237d57600080fd5b8101908080519060200190929190505050508280600101935050612194565b6000809054906101000a900473ffffffffffffffffffffffffffffffffffffffff1673ffffffffffffffffffffffffffffffffffffffff16ff5b600160009054906101000a900473ffffffffffffffffffffffffffffffffffffffff1681565b6000600160149054906101000a900460ff1615151561241a57600080fd5b3373__VehicleMaintenanceLogStorage__________63ac83a81e600260009054906101000a900473ffffffffffffffffffffffffffffffffffffffff16836040518363ffffffff167c0100000000000000000000000000000000000000000000000000000000028152600401808373ffffffffffffffffffffffffffffffffffffffff1673ffffffffffffffffffffffffffffffffffffffff1681526020018273ffffffffffffffffffffffffffffffffffffffff1673ffffffffffffffffffffffffffffffffffffffff1681526020019250505060206040518083038186803b15801561250857600080fd5b505af415801561251c573d6000803e3d6000fd5b505050506040513d602081101561253257600080fd5b810190808051906020019092919050505015156125dd576040517f08c379a000000000000000000000000000000000000000000000000000000000815260040180806020018281038252603e8152602001807f5468652063616c6c6572206d757374206265206120726567697374657265642081526020017f67617261676520746f20696e766f6b6520746869732066756e6374696f6e000081525060400191505060405180910390fd5b84848080601f0160208091040260200160405190810160405280939291908181526020018383808284378201915050505050506000815111151561262057600080fd5b86600081118015612724575073__VehicleMaintenanceLogStorage__________634f0cd27b600260009054906101000a900473ffffffffffffffffffffffffffffffffffffffff166040518263ffffffff167c0100000000000000000000000000000000000000000000000000000000028152600401808273ffffffffffffffffffffffffffffffffffffffff1673ffffffffffffffffffffffffffffffffffffffff16815260200191505060206040518083038186803b1580156126e557600080fd5b505af41580156126f9573d6000803e3d6000fd5b505050506040513d602081101561270f57600080fd5b81019080805190602001909291905050508111155b15156127be576040517f08c379a00000000000000000000000000000000000000000000000000000000081526004018080602001828103825260318152602001807f546865206c6f67206e756d626572206d75737420657869737420746f20696e7681526020017f6f6b6520746869732066756e6374696f6e00000000000000000000000000000081525060400191505060405180910390fd5b73__VehicleMaintenanceLogStorage__________638bee0ae8600260009054906101000a900473ffffffffffffffffffffffffffffffffffffffff168a8a8a8a6040518663ffffffff167c0100000000000000000000000000000000000000000000000000000000028152600401808673ffffffffffffffffffffffffffffffffffffffff1673ffffffffffffffffffffffffffffffffffffffff16815260200185815260200180602001836000191660001916815260200182810382528585828181526020019250808284378201915050965050505050505060206040518083038186803b1580156128b157600080fd5b505af41580156128c5573d6000803e3d6000fd5b505050506040513d60208110156128db57600080fd5b8101908080519060200190929190505050935083887f3d5bcb174d7de098fe9682cb080cd2d94d9eb386d8c5d6768a2319f37995db0d60405160405180910390a35050505050505050565b6000809054906101000a900473ffffffffffffffffffffffffffffffffffffffff1673ffffffffffffffffffffffffffffffffffffffff163373ffffffffffffffffffffffffffffffffffffffff1614151561298157600080fd5b80600160006101000a81548173ffffffffffffffffffffffffffffffffffffffff021916908373ffffffffffffffffffffffffffffffffffffffff16021790555050565b600160149054906101000a900460ff161515156129e157600080fd5b3373ffffffffffffffffffffffffffffffffffffffff16600360009054906101000a900473ffffffffffffffffffffffffffffffffffffffff1673ffffffffffffffffffffffffffffffffffffffff16634b3cb584612a3e612034565b6040518263ffffffff167c0100000000000000000000000000000000000000000000000000000000028152600401808260001916600019168152602001915050602060405180830381600087803b158015612a9857600080fd5b505af1158015612aac573d6000803e3d6000fd5b505050506040513d6020811015612ac257600080fd5b810190808051906020019092919050505073ffffffffffffffffffffffffffffffffffffffff16141515612b84576040517f08c379a00000000000000000000000000000000000000000000000000000000081526004018080602001828103825260368152602001807f596f75206d757374206265207468652076656869636c65206f776e657220746f81526020017f20706572666f726d20746869732066756e6374696f6e0000000000000000000081525060400191505060405180910390fd5b73__VehicleMaintenanceLogStorage__________635cf42ff3600260009054906101000a900473ffffffffffffffffffffffffffffffffffffffff16836040518363ffffffff167c0100000000000000000000000000000000000000000000000000000000028152600401808373ffffffffffffffffffffffffffffffffffffffff1673ffffffffffffffffffffffffffffffffffffffff1681526020018273ffffffffffffffffffffffffffffffffffffffff1673ffffffffffffffffffffffffffffffffffffffff1681526020019250505060006040518083038186803b158015612c7157600080fd5b505af4158015612c85573d6000803e3d6000fd5b505050508073ffffffffffffffffffffffffffffffffffffffff167f94dbd315775fd5226c7b13fd1a5d6403eab5ffbe11de9fd0aeaaa2bd83cc535460405160405180910390a250565b6000600160149054906101000a900460ff16151515612ced57600080fd5b3373__VehicleMaintenanceLogStorage__________63ac83a81e600260009054906101000a900473ffffffffffffffffffffffffffffffffffffffff16836040518363ffffffff167c0100000000000000000000000000000000000000000000000000000000028152600401808373ffffffffffffffffffffffffffffffffffffffff1673ffffffffffffffffffffffffffffffffffffffff1681526020018273ffffffffffffffffffffffffffffffffffffffff1673ffffffffffffffffffffffffffffffffffffffff1681526020019250505060206040518083038186803b158015612ddb57600080fd5b505af4158015612def573d6000803e3d6000fd5b505050506040513d6020811015612e0557600080fd5b81019080805190602001909291905050501515612eb0576040517f08c379a000000000000000000000000000000000000000000000000000000000815260040180806020018281038252603e8152602001807f5468652063616c6c6572206d757374206265206120726567697374657265642081526020017f67617261676520746f20696e766f6b6520746869732066756e6374696f6e000081525060400191505060405180910390fd5b73__VehicleMaintenanceLogStorage__________6367158f22600260009054906101000a900473ffffffffffffffffffffffffffffffffffffffff16338b8b8b8b8b8b6040518963ffffffff167c0100000000000000000000000000000000000000000000000000000000028152600401808973ffffffffffffffffffffffffffffffffffffffff1673ffffffffffffffffffffffffffffffffffffffff1681526020018873ffffffffffffffffffffffffffffffffffffffff1673ffffffffffffffffffffffffffffffffffffffff1681526020018760001916600019168152602001868152602001806020018060200183810383528787828181526020019250808284378201915050838103825285858281815260200192508082843782019150509a505050505050505050505060206040518083038186803b158015612ff957600080fd5b505af415801561300d573d6000803e3d6000fd5b505050506040513d602081101561302357600080fd5b810190808051906020019092919050505091503373ffffffffffffffffffffffffffffffffffffffff16827f9f9a37d042a6c494d26795123eb989bc47bb1dec08621269594f0b6f45ad476860405160405180910390a35050505050505050565b61308c613db3565b613094613db3565b6060604051908101604052808481526020016130b1878787613177565b81526020016130c187878761333b565b600019168152509050809150509392505050565b6130dd613dd8565b6130e5613dd8565b60e06040519081016040528084815260200161310186866134a9565b600019168152602001613114868661360e565b73ffffffffffffffffffffffffffffffffffffffff1681526020016131398686613773565b815260200161314886866138d8565b81526020016131578686613a93565b81526020016131668686613c4e565b151581525090508091505092915050565b60608373ffffffffffffffffffffffffffffffffffffffff1663a209a29c848460405160200180838152602001828152602001807f7469746c65000000000000000000000000000000000000000000000000000000815250600501925050506040516020818303038152906040526040518082805190602001908083835b60208310151561321a57805182526020820191506020810190506020830392506131f5565b6001836020036101000a03801982511681845116808217855250505050505090500191505060405180910390206040518263ffffffff167c0100000000000000000000000000000000000000000000000000000000028152600401808260001916600019168152602001915050600060405180830381600087803b1580156132a157600080fd5b505af11580156132b5573d6000803e3d6000fd5b505050506040513d6000823e3d601f19601f8201168201806040525060208110156132df57600080fd5b8101908080516401000000008111156132f757600080fd5b8281019050602081018481111561330d57600080fd5b815185600182028301116401000000008211171561332a57600080fd5b505092919050505090509392505050565b60008373ffffffffffffffffffffffffffffffffffffffff1663025ec81a848460405160200180838152602001828152602001807f6970667341646472657373000000000000000000000000000000000000000000815250600b01925050506040516020818303038152906040526040518082805190602001908083835b6020831015156133de57805182526020820191506020810190506020830392506133b9565b6001836020036101000a03801982511681845116808217855250505050505090500191505060405180910390206040518263ffffffff167c0100000000000000000000000000000000000000000000000000000000028152600401808260001916600019168152602001915050602060405180830381600087803b15801561346557600080fd5b505af1158015613479573d6000803e3d6000fd5b505050506040513d602081101561348f57600080fd5b810190808051906020019092919050505090509392505050565b60008273ffffffffffffffffffffffffffffffffffffffff1663025ec81a8360405160200180828152602001807f69640000000000000000000000000000000000000000000000000000000000008152506002019150506040516020818303038152906040526040518082805190602001908083835b602083101515613544578051825260208201915060208101905060208303925061351f565b6001836020036101000a03801982511681845116808217855250505050505090500191505060405180910390206040518263ffffffff167c0100000000000000000000000000000000000000000000000000000000028152600401808260001916600019168152602001915050602060405180830381600087803b1580156135cb57600080fd5b505af11580156135df573d6000803e3d6000fd5b505050506040513d60208110156135f557600080fd5b8101908080519060200190929190505050905092915050565b60008273ffffffffffffffffffffffffffffffffffffffff16634c77e5ba8360405160200180828152602001807f6d61696e7461696e657200000000000000000000000000000000000000000000815250600a019150506040516020818303038152906040526040518082805190602001908083835b6020831015156136a95780518252602082019150602081019050602083039250613684565b6001836020036101000a03801982511681845116808217855250505050505090500191505060405180910390206040518263ffffffff167c0100000000000000000000000000000000000000000000000000000000028152600401808260001916600019168152602001915050602060405180830381600087803b15801561373057600080fd5b505af1158015613744573d6000803e3d6000fd5b505050506040513d602081101561375a57600080fd5b8101908080519060200190929190505050905092915050565b60008273ffffffffffffffffffffffffffffffffffffffff1663ac0945538360405160200180828152602001807f64617465000000000000000000000000000000000000000000000000000000008152506004019150506040516020818303038152906040526040518082805190602001908083835b60208310151561380e57805182526020820191506020810190506020830392506137e9565b6001836020036101000a03801982511681845116808217855250505050505090500191505060405180910390206040518263ffffffff167c0100000000000000000000000000000000000000000000000000000000028152600401808260001916600019168152602001915050602060405180830381600087803b15801561389557600080fd5b505af11580156138a9573d6000803e3d6000fd5b505050506040513d60208110156138bf57600080fd5b8101908080519060200190929190505050905092915050565b60608273ffffffffffffffffffffffffffffffffffffffff1663a209a29c8360405160200180828152602001807f7469746c650000000000000000000000000000000000000000000000000000008152506005019150506040516020818303038152906040526040518082805190602001908083835b602083101515613973578051825260208201915060208101905060208303925061394e565b6001836020036101000a03801982511681845116808217855250505050505090500191505060405180910390206040518263ffffffff167c0100000000000000000000000000000000000000000000000000000000028152600401808260001916600019168152602001915050600060405180830381600087803b1580156139fa57600080fd5b505af1158015613a0e573d6000803e3d6000fd5b505050506040513d6000823e3d601f19601f820116820180604052506020811015613a3857600080fd5b810190808051640100000000811115613a5057600080fd5b82810190506020810184811115613a6657600080fd5b8151856001820283011164010000000082111715613a8357600080fd5b5050929190505050905092915050565b60608273ffffffffffffffffffffffffffffffffffffffff1663a209a29c8360405160200180828152602001807f6465736372697074696f6e000000000000000000000000000000000000000000815250600b019150506040516020818303038152906040526040518082805190602001908083835b602083101515613b2e5780518252602082019150602081019050602083039250613b09565b6001836020036101000a03801982511681845116808217855250505050505090500191505060405180910390206040518263ffffffff167c0100000000000000000000000000000000000000000000000000000000028152600401808260001916600019168152602001915050600060405180830381600087803b158015613bb557600080fd5b505af1158015613bc9573d6000803e3d6000fd5b505050506040513d6000823e3d601f19601f820116820180604052506020811015613bf357600080fd5b810190808051640100000000811115613c0b57600080fd5b82810190506020810184811115613c2157600080fd5b8151856001820283011164010000000082111715613c3e57600080fd5b5050929190505050905092915050565b60008273ffffffffffffffffffffffffffffffffffffffff166317e7dd228360405160200180828152602001807f76657269666965640000000000000000000000000000000000000000000000008152506008019150506040516020818303038152906040526040518082805190602001908083835b602083101515613ce95780518252602082019150602081019050602083039250613cc4565b6001836020036101000a03801982511681845116808217855250505050505090500191505060405180910390206040518263ffffffff167c0100000000000000000000000000000000000000000000000000000000028152600401808260001916600019168152602001915050602060405180830381600087803b158015613d7057600080fd5b505af1158015613d84573d6000803e3d6000fd5b505050506040513d6020811015613d9a57600080fd5b8101908080519060200190929190505050905092915050565b6060604051908101604052806000815260200160608152602001600080191681525090565b60e0604051908101604052806000815260200160008019168152602001600073ffffffffffffffffffffffffffffffffffffffff1681526020016000815260200160608152602001606081526020016000151581525090565b600080823b9050600081119150509190505600a165627a7a72305820c222da1f44178b9a0805e217c0c2c68cdbb5eebde6a36bce4a1cba83eaddd2e90029",
  "source": "pragma solidity ^0.4.23;\r\n\r\nimport \"./VehicleMaintenanceLogStorage.sol\";\r\nimport \"./IRegistryLookup.sol\";\r\nimport \"../node_modules/openzeppelin-solidity/contracts/AddressUtils.sol\";\r\nimport \"../node_modules/openzeppelin-solidity/contracts/ownership/Claimable.sol\";\r\nimport \"../node_modules/openzeppelin-solidity/contracts/lifecycle/TokenDestructible.sol\";\r\nimport \"../node_modules/openzeppelin-solidity/contracts/lifecycle/Pausable.sol\";\r\n\r\ncontract VehicleMaintenanceLog is TokenDestructible, Claimable, Pausable {\r\n\r\n    using AddressUtils for address;\r\n\r\n    address private storageAddress;\r\n    address private vehicleRegistryAddress;\r\n    \r\n    event WorkAuthorisationAdded(address indexed maintainer);\r\n    event WorkAuthorisationRemoved(address indexed maintainer);\r\n    event LogAdded(uint indexed logNumber, address indexed maintainer);\r\n    event LogDocAdded(uint indexed logNumber, uint indexed docNumber);\r\n    event LogVerified(uint indexed logNumber);\r\n\r\n    constructor(address _storageAddress, address _vehicleRegistryAddress, bytes32 _VIN) public {\r\n        \r\n        require(_vehicleRegistryAddress.isContract());\r\n\r\n        require(\r\n            IRegistryLookup(_vehicleRegistryAddress).isMemberRegisteredAndEnabled(_VIN));\r\n\r\n        require(\r\n            IRegistryLookup(_vehicleRegistryAddress).getMemberOwner(_VIN) == msg.sender);\r\n\r\n        storageAddress = _storageAddress;\r\n        vehicleRegistryAddress = _vehicleRegistryAddress;            \r\n        VehicleMaintenanceLogStorage.setVin(storageAddress, _VIN);\r\n    }\r\n\r\n    function getVin() public view returns (bytes32) {\r\n        return VehicleMaintenanceLogStorage.getVin(storageAddress);\r\n    }\r\n\r\n    modifier onlyVehicleOwner() {\r\n        require(\r\n            IRegistryLookup(vehicleRegistryAddress).getMemberOwner(getVin()) == msg.sender, \r\n            \"You must be the vehicle owner to perform this function\");\r\n        _;\r\n    }\r\n\r\n    modifier isAuthorised(address _maintainer) {\r\n        require(\r\n            VehicleMaintenanceLogStorage.isAuthorised(storageAddress, _maintainer), \r\n            \"The caller must be a registered garage to invoke this function\");\r\n        _;\r\n    }\r\n\r\n    modifier logExists(bytes32 _logId) {\r\n        require(\r\n            VehicleMaintenanceLogStorage.getLogNumber(storageAddress, _logId) > 0,\r\n            \"The log Id must exist to invoke this function\");\r\n        _;\r\n    }\r\n\r\n    modifier logNumberExists(uint256 _logNumber) {\r\n        require(\r\n            _logNumber > 0 && _logNumber <= VehicleMaintenanceLogStorage.getCount(storageAddress),\r\n            \"The log number must exist to invoke this function\"\r\n        );\r\n        _;\r\n    }\r\n\r\n    modifier docNumberExists(uint256 _logNumber, uint _docNumber) {\r\n        require(\r\n            _docNumber > 0 && _docNumber <= VehicleMaintenanceLogStorage.getDocCount(storageAddress, _logNumber),\r\n            \"The log number must exist to invoke this function\"\r\n        );\r\n        _;\r\n    }    \r\n\r\n    modifier isNotEmpty(string s) {\r\n        require(bytes(s).length > 0);\r\n        _;\r\n    }\r\n\r\n    function addWorkAuthorisation(address _maintainer) \r\n        whenNotPaused()\r\n        onlyVehicleOwner()        \r\n        external payable\r\n         {\r\n        VehicleMaintenanceLogStorage.addAuthorisation(storageAddress, _maintainer);\r\n        emit WorkAuthorisationAdded(_maintainer);\r\n    }\r\n\r\n    function removeWorkAuthorisation(address _maintainer) \r\n        whenNotPaused()\r\n        onlyVehicleOwner()        \r\n        external payable\r\n         {\r\n        VehicleMaintenanceLogStorage.removeAuthorisation(storageAddress, _maintainer);\r\n        emit WorkAuthorisationRemoved(_maintainer);\r\n    }    \r\n   \r\n    function add(bytes32 _logId, uint256 _date, string _title, string _description) \r\n        whenNotPaused() \r\n        isAuthorised(msg.sender) \r\n        external payable {\r\n        uint256 logNumber = VehicleMaintenanceLogStorage.storeLog(storageAddress, msg.sender, _logId, _date, _title, _description);\r\n        emit LogAdded(logNumber, msg.sender);\r\n    }\r\n\r\n    function addDoc(uint256 _logNumber, string _title, bytes32 _ipfsAddressForDoc) \r\n        whenNotPaused() \r\n        isAuthorised(msg.sender)\r\n        isNotEmpty(_title)\r\n        logNumberExists(_logNumber)\r\n        external payable {\r\n        uint256 docNumber = VehicleMaintenanceLogStorage.storeLogDoc(storageAddress, _logNumber, _title, _ipfsAddressForDoc);\r\n        emit LogDocAdded(_logNumber, docNumber);\r\n    }\r\n\r\n    function verify(bytes32 _logId) \r\n        whenNotPaused() \r\n        onlyVehicleOwner() \r\n        logExists(_logId) \r\n        external payable {\r\n        uint256 logNumber = VehicleMaintenanceLogStorage.getLogNumber(storageAddress, _logId);\r\n        VehicleMaintenanceLogStorage.setVerified(storageAddress, logNumber, true);\r\n        emit LogVerified(logNumber);\r\n    }\r\n\r\n    function getLogCount() external view returns (uint256) {\r\n        return VehicleMaintenanceLogStorage.getCount(storageAddress);\r\n    }\r\n\r\n    function getLogNumber(bytes32 _logId)\r\n        logExists(_logId)\r\n        external view \r\n        returns (uint256) {\r\n        return VehicleMaintenanceLogStorage.getLogNumber(storageAddress, _logId);\r\n    }\r\n\r\n    function getLog(uint256 _logNumber) \r\n        external view \r\n        logNumberExists(_logNumber)\r\n        returns \r\n    (uint256 logNumber, bytes32 id, address maintainer, uint256 date, string  title, string description, bool verified) {\r\n\r\n        VehicleMaintenanceLogStorage.Log memory log = VehicleMaintenanceLogStorage.getLog(storageAddress, _logNumber);\r\n\r\n        logNumber = log.logNumber;\r\n        id = log.id;\r\n        maintainer = log.maintainer;\r\n        date = log.date;\r\n        title = log.title;\r\n        description = log.description;\r\n        verified = log.verified;\r\n    }\r\n\r\n    function getDocCount(uint256 _logNumber) \r\n        logNumberExists(_logNumber)\r\n        external view returns (uint256) {\r\n        return VehicleMaintenanceLogStorage.getDocCount(storageAddress, _logNumber);\r\n    }\r\n\r\n    function getDoc(uint256 _logNumber, uint256 _docNumber) \r\n        logNumberExists(_logNumber)\r\n        docNumberExists(_logNumber, _docNumber)\r\n        external view returns (uint256 docNumber, string title, bytes32 ipfsAddress) {\r\n        VehicleMaintenanceLogStorage.Doc memory doc = VehicleMaintenanceLogStorage.getDoc(storageAddress, _logNumber, _docNumber);\r\n        docNumber = doc.docNumber;\r\n        title = doc.title;\r\n        ipfsAddress = doc.ipfsAddress;\r\n    }\r\n}",
  "sourcePath": "C:\\dev\\repos\\VehicleMaintenanceRegistry\\src\\VMR\\contracts\\VehicleMaintenanceLog.sol",
  "compiler": {
    "name": "solc",
    "version": "0.4.24+commit.e67f0147.Emscripten.clang"
  },
  "schemaVersion": "2.0.1",
  "updatedAt": "2018-07-17T11:01:18.282Z"
}