{
  "contractName": "VehicleRegistry",
  "abi": [
    {
      "constant": false,
      "inputs": [],
      "name": "unpause",
      "outputs": [],
      "payable": false,
      "stateMutability": "nonpayable",
      "type": "function"
    },
    {
      "constant": false,
      "inputs": [],
      "name": "claimOwnership",
      "outputs": [],
      "payable": false,
      "stateMutability": "nonpayable",
      "type": "function"
    },
    {
      "constant": true,
      "inputs": [],
      "name": "paused",
      "outputs": [
        {
          "name": "",
          "type": "bool"
        }
      ],
      "payable": false,
      "stateMutability": "view",
      "type": "function"
    },
    {
      "constant": false,
      "inputs": [],
      "name": "renounceOwnership",
      "outputs": [],
      "payable": false,
      "stateMutability": "nonpayable",
      "type": "function"
    },
    {
      "constant": false,
      "inputs": [],
      "name": "pause",
      "outputs": [],
      "payable": false,
      "stateMutability": "nonpayable",
      "type": "function"
    },
    {
      "constant": true,
      "inputs": [],
      "name": "owner",
      "outputs": [
        {
          "name": "",
          "type": "address"
        }
      ],
      "payable": false,
      "stateMutability": "view",
      "type": "function"
    },
    {
      "constant": false,
      "inputs": [
        {
          "name": "tokens",
          "type": "address[]"
        }
      ],
      "name": "destroy",
      "outputs": [],
      "payable": false,
      "stateMutability": "nonpayable",
      "type": "function"
    },
    {
      "constant": true,
      "inputs": [],
      "name": "pendingOwner",
      "outputs": [
        {
          "name": "",
          "type": "address"
        }
      ],
      "payable": false,
      "stateMutability": "view",
      "type": "function"
    },
    {
      "constant": false,
      "inputs": [
        {
          "name": "newOwner",
          "type": "address"
        }
      ],
      "name": "transferOwnership",
      "outputs": [],
      "payable": false,
      "stateMutability": "nonpayable",
      "type": "function"
    },
    {
      "inputs": [
        {
          "name": "_vehicleRegistryStorageAddress",
          "type": "address"
        },
        {
          "name": "_vehicleManufacturerRegistryAddress",
          "type": "address"
        },
        {
          "name": "_feeCheckerAddress",
          "type": "address"
        }
      ],
      "payable": false,
      "stateMutability": "nonpayable",
      "type": "constructor"
    },
    {
      "anonymous": false,
      "inputs": [
        {
          "indexed": true,
          "name": "_VIN",
          "type": "bytes32"
        }
      ],
      "name": "Registered",
      "type": "event"
    },
    {
      "anonymous": false,
      "inputs": [
        {
          "indexed": true,
          "name": "_VIN",
          "type": "bytes32"
        },
        {
          "indexed": true,
          "name": "_from",
          "type": "address"
        },
        {
          "indexed": true,
          "name": "_to",
          "type": "address"
        }
      ],
      "name": "VehicleOwnershipTransferRequest",
      "type": "event"
    },
    {
      "anonymous": false,
      "inputs": [
        {
          "indexed": true,
          "name": "_VIN",
          "type": "bytes32"
        },
        {
          "indexed": true,
          "name": "_newOwner",
          "type": "address"
        }
      ],
      "name": "VehicleOwnershipTransferAccepted",
      "type": "event"
    },
    {
      "anonymous": false,
      "inputs": [
        {
          "indexed": true,
          "name": "_VIN",
          "type": "bytes32"
        },
        {
          "indexed": true,
          "name": "_from",
          "type": "address"
        },
        {
          "indexed": true,
          "name": "_to",
          "type": "address"
        }
      ],
      "name": "VehicleMaintenanceLogAddressChanged",
      "type": "event"
    },
    {
      "anonymous": false,
      "inputs": [],
      "name": "Pause",
      "type": "event"
    },
    {
      "anonymous": false,
      "inputs": [],
      "name": "Unpause",
      "type": "event"
    },
    {
      "anonymous": false,
      "inputs": [
        {
          "indexed": true,
          "name": "previousOwner",
          "type": "address"
        }
      ],
      "name": "OwnershipRenounced",
      "type": "event"
    },
    {
      "anonymous": false,
      "inputs": [
        {
          "indexed": true,
          "name": "previousOwner",
          "type": "address"
        },
        {
          "indexed": true,
          "name": "newOwner",
          "type": "address"
        }
      ],
      "name": "OwnershipTransferred",
      "type": "event"
    },
    {
      "constant": false,
      "inputs": [
        {
          "name": "_address",
          "type": "address"
        }
      ],
      "name": "setStorageAddress",
      "outputs": [],
      "payable": true,
      "stateMutability": "payable",
      "type": "function"
    },
    {
      "constant": false,
      "inputs": [
        {
          "name": "_address",
          "type": "address"
        }
      ],
      "name": "setManufacturerRegistryAddress",
      "outputs": [],
      "payable": true,
      "stateMutability": "payable",
      "type": "function"
    },
    {
      "constant": false,
      "inputs": [
        {
          "name": "_address",
          "type": "address"
        }
      ],
      "name": "setFeeCheckerAddress",
      "outputs": [],
      "payable": true,
      "stateMutability": "payable",
      "type": "function"
    },
    {
      "constant": true,
      "inputs": [
        {
          "name": "_VIN",
          "type": "bytes32"
        }
      ],
      "name": "isRegistered",
      "outputs": [
        {
          "name": "",
          "type": "bool"
        }
      ],
      "payable": false,
      "stateMutability": "view",
      "type": "function"
    },
    {
      "constant": true,
      "inputs": [
        {
          "name": "_VIN",
          "type": "bytes32"
        }
      ],
      "name": "getVehicleManufacturerName",
      "outputs": [
        {
          "name": "manufacturerName",
          "type": "bytes32"
        }
      ],
      "payable": false,
      "stateMutability": "view",
      "type": "function"
    },
    {
      "constant": true,
      "inputs": [
        {
          "name": "_VIN",
          "type": "bytes32"
        }
      ],
      "name": "getVehicleLicencePlate",
      "outputs": [
        {
          "name": "licencePlate",
          "type": "bytes32"
        }
      ],
      "payable": false,
      "stateMutability": "view",
      "type": "function"
    },
    {
      "constant": true,
      "inputs": [
        {
          "name": "_VIN",
          "type": "bytes32"
        }
      ],
      "name": "getVehicleOwner",
      "outputs": [
        {
          "name": "owner",
          "type": "address"
        }
      ],
      "payable": false,
      "stateMutability": "view",
      "type": "function"
    },
    {
      "constant": true,
      "inputs": [
        {
          "name": "_VIN",
          "type": "bytes32"
        }
      ],
      "name": "getVehicleMaintenanceLogAddress",
      "outputs": [
        {
          "name": "serviceHistoryAddress",
          "type": "address"
        }
      ],
      "payable": false,
      "stateMutability": "view",
      "type": "function"
    },
    {
      "constant": true,
      "inputs": [
        {
          "name": "_VIN",
          "type": "bytes32"
        }
      ],
      "name": "getVehicleRegisteredDate",
      "outputs": [
        {
          "name": "registeredDate",
          "type": "uint256"
        }
      ],
      "payable": false,
      "stateMutability": "view",
      "type": "function"
    },
    {
      "constant": false,
      "inputs": [
        {
          "name": "_VIN",
          "type": "bytes32"
        },
        {
          "name": "_licencePlate",
          "type": "bytes32"
        },
        {
          "name": "_manufacturerName",
          "type": "bytes32"
        }
      ],
      "name": "register",
      "outputs": [],
      "payable": true,
      "stateMutability": "payable",
      "type": "function"
    },
    {
      "constant": false,
      "inputs": [
        {
          "name": "_VIN",
          "type": "bytes32"
        },
        {
          "name": "_newOwner",
          "type": "address"
        },
        {
          "name": "_keyHash",
          "type": "bytes32"
        }
      ],
      "name": "transferVehicleOwnership",
      "outputs": [],
      "payable": true,
      "stateMutability": "payable",
      "type": "function"
    },
    {
      "constant": false,
      "inputs": [
        {
          "name": "_VIN",
          "type": "bytes32"
        },
        {
          "name": "_keyHash",
          "type": "bytes32"
        }
      ],
      "name": "acceptVehicleOwnership",
      "outputs": [],
      "payable": true,
      "stateMutability": "payable",
      "type": "function"
    },
    {
      "constant": false,
      "inputs": [
        {
          "name": "_VIN",
          "type": "bytes32"
        },
        {
          "name": "_maintenanceLogAddress",
          "type": "address"
        }
      ],
      "name": "setVehicleMaintenanceLogAddress",
      "outputs": [],
      "payable": true,
      "stateMutability": "payable",
      "type": "function"
    }
  ],
  "bytecode": "0x60806040526000600160146101000a81548160ff02191690831515021790555034801561002b57600080fd5b5060405160608061421c833981018060405281019080805190602001909291908051906020019092919080519060200190929190505050336000806101000a81548173ffffffffffffffffffffffffffffffffffffffff021916908373ffffffffffffffffffffffffffffffffffffffff16021790555082600260006101000a81548173ffffffffffffffffffffffffffffffffffffffff021916908373ffffffffffffffffffffffffffffffffffffffff16021790555081600360006101000a81548173ffffffffffffffffffffffffffffffffffffffff021916908373ffffffffffffffffffffffffffffffffffffffff16021790555080600460006101000a81548173ffffffffffffffffffffffffffffffffffffffff021916908373ffffffffffffffffffffffffffffffffffffffff1602179055505050506140a5806101776000396000f300608060405260043610610128576000357c0100000000000000000000000000000000000000000000000000000000900463ffffffff168063196039161461012d57806327258b22146101715780632c9df151146101ba5780632e52e026146101ec5780633f4ba83a1461025d5780634b8d1979146102745780634da274fd146102e55780634e71e0c81461032557806359b910d61461033c5780635c975abb146103725780636122a134146103a1578063715018a6146103ee5780638456cb59146104055780638da5cb5b1461041c578063c2dea66a14610473578063c3b4410a146104b8578063c6786e5a14610505578063e30c39781461056b578063e7c6336a146105c2578063ea8bcc8a146105f8578063f2fde38b1461062e578063f9d3102b14610671575b600080fd5b61016f6004803603810190808035600019169060200190929190803573ffffffffffffffffffffffffffffffffffffffff1690602001909291905050506106c3565b005b34801561017d57600080fd5b506101a06004803603810190808035600019169060200190929190505050610e22565b604051808215151515815260200191505060405180910390f35b6101ea60048036038101908080356000191690602001909291908035600019169060200190929190505050610ef8565b005b3480156101f857600080fd5b5061021b6004803603810190808035600019169060200190929190505050611664565b604051808273ffffffffffffffffffffffffffffffffffffffff1673ffffffffffffffffffffffffffffffffffffffff16815260200191505060405180910390f35b34801561026957600080fd5b506102726118da565b005b34801561028057600080fd5b506102a36004803603810190808035600019169060200190929190505050611999565b604051808273ffffffffffffffffffffffffffffffffffffffff1673ffffffffffffffffffffffffffffffffffffffff16815260200191505060405180910390f35b610323600480360381019080803560001916906020019092919080356000191690602001909291908035600019169060200190929190505050611c0f565b005b34801561033157600080fd5b5061033a6123cc565b005b610370600480360381019080803573ffffffffffffffffffffffffffffffffffffffff16906020019092919050505061256b565b005b34801561037e57600080fd5b506103876126c5565b604051808215151515815260200191505060405180910390f35b3480156103ad57600080fd5b506103d060048036038101908080356000191690602001909291905050506126d8565b60405180826000191660001916815260200191505060405180910390f35b3480156103fa57600080fd5b5061040361294e565b005b34801561041157600080fd5b5061041a612a50565b005b34801561042857600080fd5b50610431612b0f565b604051808273ffffffffffffffffffffffffffffffffffffffff1673ffffffffffffffffffffffffffffffffffffffff16815260200191505060405180910390f35b34801561047f57600080fd5b506104a26004803603810190808035600019169060200190929190505050612b34565b6040518082815260200191505060405180910390f35b3480156104c457600080fd5b506104e76004803603810190808035600019169060200190929190505050612daa565b60405180826000191660001916815260200191505060405180910390f35b34801561051157600080fd5b5061056960048036038101908080359060200190820180359060200190808060200260200160405190810160405280939291908181526020018383602002808284378201915050505050509192919290505050613020565b005b34801561057757600080fd5b506105806132c7565b604051808273ffffffffffffffffffffffffffffffffffffffff1673ffffffffffffffffffffffffffffffffffffffff16815260200191505060405180910390f35b6105f6600480360381019080803573ffffffffffffffffffffffffffffffffffffffff1690602001909291905050506132ed565b005b61062c600480360381019080803573ffffffffffffffffffffffffffffffffffffffff169060200190929190505050613447565b005b34801561063a57600080fd5b5061066f600480360381019080803573ffffffffffffffffffffffffffffffffffffffff1690602001909291905050506135a1565b005b6106c16004803603810190808035600019169060200190929190803573ffffffffffffffffffffffffffffffffffffffff1690602001909291908035600019169060200190929190505050613640565b005b6000600160149054906101000a900460ff161515156106e157600080fd5b826011816000191673__ByteUtils_____________________________6335d7654d90916040518263ffffffff167c010000000000000000000000000000000000000000000000000000000002815260040180826000191660001916815260200191505060206040518083038186803b15801561075d57600080fd5b505af4158015610771573d6000803e3d6000fd5b505050506040513d602081101561078757600080fd5b81019080805190602001909291905050501415156107a457600080fd5b836107ae81613db6565b1515610848576040517f08c379a00000000000000000000000000000000000000000000000000000000081526004018080602001828103825260378152602001807f5468652076656869636c65206d7573742062652072656769737465726564207481526020017f6f20706572666f726d20746869732066756e6374696f6e00000000000000000081525060400191505060405180910390fd5b84600073__VehicleRegistryStorage________________6369c5b2b8600260009054906101000a900473ffffffffffffffffffffffffffffffffffffffff16846040518363ffffffff167c0100000000000000000000000000000000000000000000000000000000028152600401808373ffffffffffffffffffffffffffffffffffffffff1673ffffffffffffffffffffffffffffffffffffffff16815260200182600019166000191681526020019250505060206040518083038186803b15801561091457600080fd5b505af4158015610928573d6000803e3d6000fd5b505050506040513d602081101561093e57600080fd5b810190808051906020019092919050505090508073ffffffffffffffffffffffffffffffffffffffff163373ffffffffffffffffffffffffffffffffffffffff16141515610a1a576040517f08c379a00000000000000000000000000000000000000000000000000000000081526004018080602001828103825260308152602001807f4f6e6c79207468652076656869636c65206f776e65722063616e20706572666f81526020017f726d20746869732066756e6374696f6e0000000000000000000000000000000081525060400191505060405180910390fd5b85610a3a8173ffffffffffffffffffffffffffffffffffffffff16613ec3565b1515610ad4576040517f08c379a00000000000000000000000000000000000000000000000000000000081526004018080602001828103825260308152602001807f546865206164647265737320737065636966696564206d75737420626520612081526020017f636f6e747261637420616464726573730000000000000000000000000000000081525060400191505060405180910390fd5b73__VehicleRegistryStorage________________63f58354d4600260009054906101000a900473ffffffffffffffffffffffffffffffffffffffff168a6040518363ffffffff167c0100000000000000000000000000000000000000000000000000000000028152600401808373ffffffffffffffffffffffffffffffffffffffff1673ffffffffffffffffffffffffffffffffffffffff16815260200182600019166000191681526020019250505060206040518083038186803b158015610b9d57600080fd5b505af4158015610bb1573d6000803e3d6000fd5b505050506040513d6020811015610bc757600080fd5b810190808051906020019092919050505095508673ffffffffffffffffffffffffffffffffffffffff168673ffffffffffffffffffffffffffffffffffffffff1614151515610ca4576040517f08c379a00000000000000000000000000000000000000000000000000000000081526004018080602001828103825260348152602001807f546865206e65772061646472657373206d75737420626520646966666572656e81526020017f7420746f20746865206f6c64206164647265737300000000000000000000000081525060400191505060405180910390fd5b73__VehicleRegistryStorage________________6346154cd2600260009054906101000a900473ffffffffffffffffffffffffffffffffffffffff168a8a6040518463ffffffff167c0100000000000000000000000000000000000000000000000000000000028152600401808473ffffffffffffffffffffffffffffffffffffffff1673ffffffffffffffffffffffffffffffffffffffff16815260200183600019166000191681526020018273ffffffffffffffffffffffffffffffffffffffff1673ffffffffffffffffffffffffffffffffffffffff168152602001935050505060006040518083038186803b158015610da157600080fd5b505af4158015610db5573d6000803e3d6000fd5b505050508673ffffffffffffffffffffffffffffffffffffffff168673ffffffffffffffffffffffffffffffffffffffff1689600019167f759f5841dc7511c4c521b37230632e9959ba72b2959321d1fd61ed0d0b39c7e560405160405180910390a45050505050505050565b6000816011816000191673__ByteUtils_____________________________6335d7654d90916040518263ffffffff167c010000000000000000000000000000000000000000000000000000000002815260040180826000191660001916815260200191505060206040518083038186803b158015610ea057600080fd5b505af4158015610eb4573d6000803e3d6000fd5b505050506040513d6020811015610eca57600080fd5b8101908080519060200190929190505050141515610ee757600080fd5b610ef083613db6565b915050919050565b600160149054906101000a900460ff16151515610f1457600080fd5b816011816000191673__ByteUtils_____________________________6335d7654d90916040518263ffffffff167c010000000000000000000000000000000000000000000000000000000002815260040180826000191660001916815260200191505060206040518083038186803b158015610f9057600080fd5b505af4158015610fa4573d6000803e3d6000fd5b505050506040513d6020811015610fba57600080fd5b8101908080519060200190929190505050141515610fd757600080fd5b82610fe181613db6565b151561107b576040517f08c379a00000000000000000000000000000000000000000000000000000000081526004018080602001828103825260378152602001807f5468652076656869636c65206d7573742062652072656769737465726564207481526020017f6f20706572666f726d20746869732066756e6374696f6e00000000000000000081525060400191505060405180910390fd5b83600073__VehicleRegistryStorage________________63bb544060600260009054906101000a900473ffffffffffffffffffffffffffffffffffffffff16846040518363ffffffff167c0100000000000000000000000000000000000000000000000000000000028152600401808373ffffffffffffffffffffffffffffffffffffffff1673ffffffffffffffffffffffffffffffffffffffff16815260200182600019166000191681526020019250505060206040518083038186803b15801561114757600080fd5b505af415801561115b573d6000803e3d6000fd5b505050506040513d602081101561117157600080fd5b810190808051906020019092919050505090508073ffffffffffffffffffffffffffffffffffffffff163373ffffffffffffffffffffffffffffffffffffffff1614151561124d576040517f08c379a00000000000000000000000000000000000000000000000000000000081526004018080602001828103825260388152602001807f4f6e6c79207468652070656e64696e672076656869636c65206f776e6572206381526020017f616e20706572666f726d20746869732066756e6374696f6e000000000000000081525060400191505060405180910390fd5b8585600073__VehicleRegistryStorage________________639f7d4a2f600260009054906101000a900473ffffffffffffffffffffffffffffffffffffffff16856040518363ffffffff167c0100000000000000000000000000000000000000000000000000000000028152600401808373ffffffffffffffffffffffffffffffffffffffff1673ffffffffffffffffffffffffffffffffffffffff16815260200182600019166000191681526020019250505060206040518083038186803b15801561131a57600080fd5b505af415801561132e573d6000803e3d6000fd5b505050506040513d602081101561134457600080fd5b81019080805190602001909291905050509050816000191681600019161415156113fc576040517f08c379a00000000000000000000000000000000000000000000000000000000081526004018080602001828103825260358152602001807f546865206b65792070726f7669646564206d757374206d61746368207468652081526020017f6578697374696e67207472616e73666572206b6579000000000000000000000081525060400191505060405180910390fd5b73__VehicleRegistryStorage________________630f1ed0c6600260009054906101000a900473ffffffffffffffffffffffffffffffffffffffff168b336040518463ffffffff167c0100000000000000000000000000000000000000000000000000000000028152600401808473ffffffffffffffffffffffffffffffffffffffff1673ffffffffffffffffffffffffffffffffffffffff16815260200183600019166000191681526020018273ffffffffffffffffffffffffffffffffffffffff1673ffffffffffffffffffffffffffffffffffffffff168152602001935050505060006040518083038186803b1580156114f957600080fd5b505af415801561150d573d6000803e3d6000fd5b5050505073__VehicleRegistryStorage________________638b8fa92f600260009054906101000a900473ffffffffffffffffffffffffffffffffffffffff168b60006040518463ffffffff167c0100000000000000000000000000000000000000000000000000000000028152600401808473ffffffffffffffffffffffffffffffffffffffff1673ffffffffffffffffffffffffffffffffffffffff16815260200183600019166000191681526020018273ffffffffffffffffffffffffffffffffffffffff168152602001935050505060006040518083038186803b1580156115f957600080fd5b505af415801561160d573d6000803e3d6000fd5b505050503373ffffffffffffffffffffffffffffffffffffffff1689600019167f07da1ce8cfc572f78d8bf120feca8a8d4ca65803ccc7395b6056dd3c7aef9eee60405160405180910390a3505050505050505050565b6000816011816000191673__ByteUtils_____________________________6335d7654d90916040518263ffffffff167c010000000000000000000000000000000000000000000000000000000002815260040180826000191660001916815260200191505060206040518083038186803b1580156116e257600080fd5b505af41580156116f6573d6000803e3d6000fd5b505050506040513d602081101561170c57600080fd5b810190808051906020019092919050505014151561172957600080fd5b8261173381613db6565b15156117cd576040517f08c379a00000000000000000000000000000000000000000000000000000000081526004018080602001828103825260378152602001807f5468652076656869636c65206d7573742062652072656769737465726564207481526020017f6f20706572666f726d20746869732066756e6374696f6e00000000000000000081525060400191505060405180910390fd5b73__VehicleRegistryStorage________________6369c5b2b8600260009054906101000a900473ffffffffffffffffffffffffffffffffffffffff16866040518363ffffffff167c0100000000000000000000000000000000000000000000000000000000028152600401808373ffffffffffffffffffffffffffffffffffffffff1673ffffffffffffffffffffffffffffffffffffffff16815260200182600019166000191681526020019250505060206040518083038186803b15801561189657600080fd5b505af41580156118aa573d6000803e3d6000fd5b505050506040513d60208110156118c057600080fd5b810190808051906020019092919050505092505050919050565b6000809054906101000a900473ffffffffffffffffffffffffffffffffffffffff1673ffffffffffffffffffffffffffffffffffffffff163373ffffffffffffffffffffffffffffffffffffffff1614151561193557600080fd5b600160149054906101000a900460ff16151561195057600080fd5b6000600160146101000a81548160ff0219169083151502179055507f7805862f689e2f13df9f062ff482ad3ad112aca9e0847911ed832e158c525b3360405160405180910390a1565b6000816011816000191673__ByteUtils_____________________________6335d7654d90916040518263ffffffff167c010000000000000000000000000000000000000000000000000000000002815260040180826000191660001916815260200191505060206040518083038186803b158015611a1757600080fd5b505af4158015611a2b573d6000803e3d6000fd5b505050506040513d6020811015611a4157600080fd5b8101908080519060200190929190505050141515611a5e57600080fd5b82611a6881613db6565b1515611b02576040517f08c379a00000000000000000000000000000000000000000000000000000000081526004018080602001828103825260378152602001807f5468652076656869636c65206d7573742062652072656769737465726564207481526020017f6f20706572666f726d20746869732066756e6374696f6e00000000000000000081525060400191505060405180910390fd5b73__VehicleRegistryStorage________________63f58354d4600260009054906101000a900473ffffffffffffffffffffffffffffffffffffffff16866040518363ffffffff167c0100000000000000000000000000000000000000000000000000000000028152600401808373ffffffffffffffffffffffffffffffffffffffff1673ffffffffffffffffffffffffffffffffffffffff16815260200182600019166000191681526020019250505060206040518083038186803b158015611bcb57600080fd5b505af4158015611bdf573d6000803e3d6000fd5b505050506040513d6020811015611bf557600080fd5b810190808051906020019092919050505092505050919050565b6000600160149054906101000a900460ff16151515611c2d57600080fd5b836011816000191673__ByteUtils_____________________________6335d7654d90916040518263ffffffff167c010000000000000000000000000000000000000000000000000000000002815260040180826000191660001916815260200191505060206040518083038186803b158015611ca957600080fd5b505af4158015611cbd573d6000803e3d6000fd5b505050506040513d6020811015611cd357600080fd5b8101908080519060200190929190505050141515611cf057600080fd5b84611cfa81613ed6565b1515611d94576040517f08c379a00000000000000000000000000000000000000000000000000000000081526004018080602001828103825260398152602001807f5468652076656869636c65206d75737420626520756e7265676973746572656481526020017f20746f20706572666f726d20746869732066756e6374696f6e0000000000000081525060400191505060405180910390fd5b6000611d9e613ee9565b90508034101515611e3d576040517f08c379a000000000000000000000000000000000000000000000000000000000815260040180806020018281038252602f8152602001807f4e6f7420656e6f75676820457468207761732073656e7420746f20636f76657281526020017f206120726567697374726174696f6e000000000000000000000000000000000081525060400191505060405180910390fd5b84600360009054906101000a900473ffffffffffffffffffffffffffffffffffffffff1673ffffffffffffffffffffffffffffffffffffffff166327258b22826040518263ffffffff167c0100000000000000000000000000000000000000000000000000000000028152600401808260001916600019168152602001915050602060405180830381600087803b158015611ed757600080fd5b505af1158015611eeb573d6000803e3d6000fd5b505050506040513d6020811015611f0157600080fd5b81019080805190602001909291905050501515611fac576040517f08c379a000000000000000000000000000000000000000000000000000000000815260040180806020018281038252603b8152602001807f546865206d616e756661637475726572206d757374206265207265676973746581526020017f72656420746f20696e766f6b6520746869732066756e6374696f6e000000000081525060400191505060405180910390fd5b85600360009054906101000a900473ffffffffffffffffffffffffffffffffffffffff1673ffffffffffffffffffffffffffffffffffffffff16630610e037826040518263ffffffff167c0100000000000000000000000000000000000000000000000000000000028152600401808260001916600019168152602001915050602060405180830381600087803b15801561204657600080fd5b505af115801561205a573d6000803e3d6000fd5b505050506040513d602081101561207057600080fd5b8101908080519060200190929190505050151561211b576040517f08c379a00000000000000000000000000000000000000000000000000000000081526004018080602001828103825260388152602001807f546865206d616e756661637475726572206d75737420626520656e61626c656481526020017f20746f20696e766f6b6520746869732066756e6374696f6e000000000000000081525060400191505060405180910390fd5b6000955073__VehicleRegistryStorage________________63a729e966600260009054906101000a900473ffffffffffffffffffffffffffffffffffffffff168b8a8c336000426040518863ffffffff167c0100000000000000000000000000000000000000000000000000000000028152600401808873ffffffffffffffffffffffffffffffffffffffff1673ffffffffffffffffffffffffffffffffffffffff1681526020018760001916600019168152602001866000191660001916815260200185600019166000191681526020018473ffffffffffffffffffffffffffffffffffffffff1673ffffffffffffffffffffffffffffffffffffffff1681526020018373ffffffffffffffffffffffffffffffffffffffff16815260200182815260200197505050505050505060006040518083038186803b15801561226357600080fd5b505af4158015612277573d6000803e3d6000fd5b5050505073__VehicleRegistryStorage________________6346154cd2600260009054906101000a900473ffffffffffffffffffffffffffffffffffffffff168b896040518463ffffffff167c0100000000000000000000000000000000000000000000000000000000028152600401808473ffffffffffffffffffffffffffffffffffffffff1673ffffffffffffffffffffffffffffffffffffffff16815260200183600019166000191681526020018273ffffffffffffffffffffffffffffffffffffffff1673ffffffffffffffffffffffffffffffffffffffff168152602001935050505060006040518083038186803b15801561237857600080fd5b505af415801561238c573d6000803e3d6000fd5b5050505088600019167f10906fae603eebfac53ddc0f103bee8a044dd7643c425c7a90f921dfa15ef62c60405160405180910390a2505050505050505050565b600160009054906101000a900473ffffffffffffffffffffffffffffffffffffffff1673ffffffffffffffffffffffffffffffffffffffff163373ffffffffffffffffffffffffffffffffffffffff1614151561242857600080fd5b600160009054906101000a900473ffffffffffffffffffffffffffffffffffffffff1673ffffffffffffffffffffffffffffffffffffffff166000809054906101000a900473ffffffffffffffffffffffffffffffffffffffff1673ffffffffffffffffffffffffffffffffffffffff167f8be0079c531659141344cd1fd0a4f28419497f9722a3daafe3b4186f6b6457e060405160405180910390a3600160009054906101000a900473ffffffffffffffffffffffffffffffffffffffff166000806101000a81548173ffffffffffffffffffffffffffffffffffffffff021916908373ffffffffffffffffffffffffffffffffffffffff1602179055506000600160006101000a81548173ffffffffffffffffffffffffffffffffffffffff021916908373ffffffffffffffffffffffffffffffffffffffff160217905550565b6000809054906101000a900473ffffffffffffffffffffffffffffffffffffffff1673ffffffffffffffffffffffffffffffffffffffff163373ffffffffffffffffffffffffffffffffffffffff161415156125c657600080fd5b806125e68173ffffffffffffffffffffffffffffffffffffffff16613ec3565b1515612680576040517f08c379a00000000000000000000000000000000000000000000000000000000081526004018080602001828103825260308152602001807f546865206164647265737320737065636966696564206d75737420626520612081526020017f636f6e747261637420616464726573730000000000000000000000000000000081525060400191505060405180910390fd5b81600260006101000a81548173ffffffffffffffffffffffffffffffffffffffff021916908373ffffffffffffffffffffffffffffffffffffffff1602179055505050565b600160149054906101000a900460ff1681565b6000816011816000191673__ByteUtils_____________________________6335d7654d90916040518263ffffffff167c010000000000000000000000000000000000000000000000000000000002815260040180826000191660001916815260200191505060206040518083038186803b15801561275657600080fd5b505af415801561276a573d6000803e3d6000fd5b505050506040513d602081101561278057600080fd5b810190808051906020019092919050505014151561279d57600080fd5b826127a781613db6565b1515612841576040517f08c379a00000000000000000000000000000000000000000000000000000000081526004018080602001828103825260378152602001807f5468652076656869636c65206d7573742062652072656769737465726564207481526020017f6f20706572666f726d20746869732066756e6374696f6e00000000000000000081525060400191505060405180910390fd5b73__VehicleRegistryStorage________________6399d54f40600260009054906101000a900473ffffffffffffffffffffffffffffffffffffffff16866040518363ffffffff167c0100000000000000000000000000000000000000000000000000000000028152600401808373ffffffffffffffffffffffffffffffffffffffff1673ffffffffffffffffffffffffffffffffffffffff16815260200182600019166000191681526020019250505060206040518083038186803b15801561290a57600080fd5b505af415801561291e573d6000803e3d6000fd5b505050506040513d602081101561293457600080fd5b810190808051906020019092919050505092505050919050565b6000809054906101000a900473ffffffffffffffffffffffffffffffffffffffff1673ffffffffffffffffffffffffffffffffffffffff163373ffffffffffffffffffffffffffffffffffffffff161415156129a957600080fd5b6000809054906101000a900473ffffffffffffffffffffffffffffffffffffffff1673ffffffffffffffffffffffffffffffffffffffff167ff8df31144d9c2f0f6b59d69b8b98abd5459d07f2742c4df920b25aae33c6482060405160405180910390a260008060006101000a81548173ffffffffffffffffffffffffffffffffffffffff021916908373ffffffffffffffffffffffffffffffffffffffff160217905550565b6000809054906101000a900473ffffffffffffffffffffffffffffffffffffffff1673ffffffffffffffffffffffffffffffffffffffff163373ffffffffffffffffffffffffffffffffffffffff16141515612aab57600080fd5b600160149054906101000a900460ff16151515612ac757600080fd5b60018060146101000a81548160ff0219169083151502179055507f6985a02210a168e66602d3235cb6db0e70f92b3ba4d376a33c0f3d9434bff62560405160405180910390a1565b6000809054906101000a900473ffffffffffffffffffffffffffffffffffffffff1681565b6000816011816000191673__ByteUtils_____________________________6335d7654d90916040518263ffffffff167c010000000000000000000000000000000000000000000000000000000002815260040180826000191660001916815260200191505060206040518083038186803b158015612bb257600080fd5b505af4158015612bc6573d6000803e3d6000fd5b505050506040513d6020811015612bdc57600080fd5b8101908080519060200190929190505050141515612bf957600080fd5b82612c0381613db6565b1515612c9d576040517f08c379a00000000000000000000000000000000000000000000000000000000081526004018080602001828103825260378152602001807f5468652076656869636c65206d7573742062652072656769737465726564207481526020017f6f20706572666f726d20746869732066756e6374696f6e00000000000000000081525060400191505060405180910390fd5b73__VehicleRegistryStorage________________6372c72a7d600260009054906101000a900473ffffffffffffffffffffffffffffffffffffffff16866040518363ffffffff167c0100000000000000000000000000000000000000000000000000000000028152600401808373ffffffffffffffffffffffffffffffffffffffff1673ffffffffffffffffffffffffffffffffffffffff16815260200182600019166000191681526020019250505060206040518083038186803b158015612d6657600080fd5b505af4158015612d7a573d6000803e3d6000fd5b505050506040513d6020811015612d9057600080fd5b810190808051906020019092919050505092505050919050565b6000816011816000191673__ByteUtils_____________________________6335d7654d90916040518263ffffffff167c010000000000000000000000000000000000000000000000000000000002815260040180826000191660001916815260200191505060206040518083038186803b158015612e2857600080fd5b505af4158015612e3c573d6000803e3d6000fd5b505050506040513d6020811015612e5257600080fd5b8101908080519060200190929190505050141515612e6f57600080fd5b82612e7981613db6565b1515612f13576040517f08c379a00000000000000000000000000000000000000000000000000000000081526004018080602001828103825260378152602001807f5468652076656869636c65206d7573742062652072656769737465726564207481526020017f6f20706572666f726d20746869732066756e6374696f6e00000000000000000081525060400191505060405180910390fd5b73__VehicleRegistryStorage________________63171321d5600260009054906101000a900473ffffffffffffffffffffffffffffffffffffffff16866040518363ffffffff167c0100000000000000000000000000000000000000000000000000000000028152600401808373ffffffffffffffffffffffffffffffffffffffff1673ffffffffffffffffffffffffffffffffffffffff16815260200182600019166000191681526020019250505060206040518083038186803b158015612fdc57600080fd5b505af4158015612ff0573d6000803e3d6000fd5b505050506040513d602081101561300657600080fd5b810190808051906020019092919050505092505050919050565b60008060008060009054906101000a900473ffffffffffffffffffffffffffffffffffffffff1673ffffffffffffffffffffffffffffffffffffffff163373ffffffffffffffffffffffffffffffffffffffff1614151561308057600080fd5b600092505b835183101561328d57838381518110151561309c57fe5b9060200190602002015191508173ffffffffffffffffffffffffffffffffffffffff166370a08231306040518263ffffffff167c0100000000000000000000000000000000000000000000000000000000028152600401808273ffffffffffffffffffffffffffffffffffffffff1673ffffffffffffffffffffffffffffffffffffffff168152602001915050602060405180830381600087803b15801561314357600080fd5b505af1158015613157573d6000803e3d6000fd5b505050506040513d602081101561316d57600080fd5b810190808051906020019092919050505090508173ffffffffffffffffffffffffffffffffffffffff1663a9059cbb6000809054906101000a900473ffffffffffffffffffffffffffffffffffffffff16836040518363ffffffff167c0100000000000000000000000000000000000000000000000000000000028152600401808373ffffffffffffffffffffffffffffffffffffffff1673ffffffffffffffffffffffffffffffffffffffff16815260200182815260200192505050602060405180830381600087803b15801561324457600080fd5b505af1158015613258573d6000803e3d6000fd5b505050506040513d602081101561326e57600080fd5b8101908080519060200190929190505050508280600101935050613085565b6000809054906101000a900473ffffffffffffffffffffffffffffffffffffffff1673ffffffffffffffffffffffffffffffffffffffff16ff5b600160009054906101000a900473ffffffffffffffffffffffffffffffffffffffff1681565b6000809054906101000a900473ffffffffffffffffffffffffffffffffffffffff1673ffffffffffffffffffffffffffffffffffffffff163373ffffffffffffffffffffffffffffffffffffffff1614151561334857600080fd5b806133688173ffffffffffffffffffffffffffffffffffffffff16613ec3565b1515613402576040517f08c379a00000000000000000000000000000000000000000000000000000000081526004018080602001828103825260308152602001807f546865206164647265737320737065636966696564206d75737420626520612081526020017f636f6e747261637420616464726573730000000000000000000000000000000081525060400191505060405180910390fd5b81600360006101000a81548173ffffffffffffffffffffffffffffffffffffffff021916908373ffffffffffffffffffffffffffffffffffffffff1602179055505050565b6000809054906101000a900473ffffffffffffffffffffffffffffffffffffffff1673ffffffffffffffffffffffffffffffffffffffff163373ffffffffffffffffffffffffffffffffffffffff161415156134a257600080fd5b806134c28173ffffffffffffffffffffffffffffffffffffffff16613ec3565b151561355c576040517f08c379a00000000000000000000000000000000000000000000000000000000081526004018080602001828103825260308152602001807f546865206164647265737320737065636966696564206d75737420626520612081526020017f636f6e747261637420616464726573730000000000000000000000000000000081525060400191505060405180910390fd5b81600460006101000a81548173ffffffffffffffffffffffffffffffffffffffff021916908373ffffffffffffffffffffffffffffffffffffffff1602179055505050565b6000809054906101000a900473ffffffffffffffffffffffffffffffffffffffff1673ffffffffffffffffffffffffffffffffffffffff163373ffffffffffffffffffffffffffffffffffffffff161415156135fc57600080fd5b80600160006101000a81548173ffffffffffffffffffffffffffffffffffffffff021916908373ffffffffffffffffffffffffffffffffffffffff16021790555050565b6000600160149054906101000a900460ff1615151561365e57600080fd5b836011816000191673__ByteUtils_____________________________6335d7654d90916040518263ffffffff167c010000000000000000000000000000000000000000000000000000000002815260040180826000191660001916815260200191505060206040518083038186803b1580156136da57600080fd5b505af41580156136ee573d6000803e3d6000fd5b505050506040513d602081101561370457600080fd5b810190808051906020019092919050505014151561372157600080fd5b8461372b81613db6565b15156137c5576040517f08c379a00000000000000000000000000000000000000000000000000000000081526004018080602001828103825260378152602001807f5468652076656869636c65206d7573742062652072656769737465726564207481526020017f6f20706572666f726d20746869732066756e6374696f6e00000000000000000081525060400191505060405180910390fd5b85600073__VehicleRegistryStorage________________6369c5b2b8600260009054906101000a900473ffffffffffffffffffffffffffffffffffffffff16846040518363ffffffff167c0100000000000000000000000000000000000000000000000000000000028152600401808373ffffffffffffffffffffffffffffffffffffffff1673ffffffffffffffffffffffffffffffffffffffff16815260200182600019166000191681526020019250505060206040518083038186803b15801561389157600080fd5b505af41580156138a5573d6000803e3d6000fd5b505050506040513d60208110156138bb57600080fd5b810190808051906020019092919050505090508073ffffffffffffffffffffffffffffffffffffffff163373ffffffffffffffffffffffffffffffffffffffff16141515613997576040517f08c379a00000000000000000000000000000000000000000000000000000000081526004018080602001828103825260308152602001807f4f6e6c79207468652076656869636c65206f776e65722063616e20706572666f81526020017f726d20746869732066756e6374696f6e0000000000000000000000000000000081525060400191505060405180910390fd5b60006139a1613fb1565b90508034101515613a40576040517f08c379a000000000000000000000000000000000000000000000000000000000815260040180806020018281038252602b8152602001807f4e6f7420656e6f75676820457468207761732073656e7420746f20636f76657281526020017f2061207472616e7366657200000000000000000000000000000000000000000081525060400191505060405180910390fd5b73__VehicleRegistryStorage________________6369c5b2b8600260009054906101000a900473ffffffffffffffffffffffffffffffffffffffff168b6040518363ffffffff167c0100000000000000000000000000000000000000000000000000000000028152600401808373ffffffffffffffffffffffffffffffffffffffff1673ffffffffffffffffffffffffffffffffffffffff16815260200182600019166000191681526020019250505060206040518083038186803b158015613b0957600080fd5b505af4158015613b1d573d6000803e3d6000fd5b505050506040513d6020811015613b3357600080fd5b8101908080519060200190929190505050955073__VehicleRegistryStorage________________638b8fa92f600260009054906101000a900473ffffffffffffffffffffffffffffffffffffffff168b8b6040518463ffffffff167c0100000000000000000000000000000000000000000000000000000000028152600401808473ffffffffffffffffffffffffffffffffffffffff1673ffffffffffffffffffffffffffffffffffffffff16815260200183600019166000191681526020018273ffffffffffffffffffffffffffffffffffffffff1673ffffffffffffffffffffffffffffffffffffffff168152602001935050505060006040518083038186803b158015613c4357600080fd5b505af4158015613c57573d6000803e3d6000fd5b5050505073__VehicleRegistryStorage________________63d93b8c14600260009054906101000a900473ffffffffffffffffffffffffffffffffffffffff168b8a6040518463ffffffff167c0100000000000000000000000000000000000000000000000000000000028152600401808473ffffffffffffffffffffffffffffffffffffffff1673ffffffffffffffffffffffffffffffffffffffff16815260200183600019166000191681526020018260001916600019168152602001935050505060006040518083038186803b158015613d3457600080fd5b505af4158015613d48573d6000803e3d6000fd5b505050508773ffffffffffffffffffffffffffffffffffffffff168673ffffffffffffffffffffffffffffffffffffffff168a600019167f0b6aa8bb444256cc851e9ba81d86b7262267fb388273a816090c109b4b6b214460405160405180910390a4505050505050505050565b600073__VehicleRegistryStorage________________6345120511600260009054906101000a900473ffffffffffffffffffffffffffffffffffffffff16846040518363ffffffff167c0100000000000000000000000000000000000000000000000000000000028152600401808373ffffffffffffffffffffffffffffffffffffffff1673ffffffffffffffffffffffffffffffffffffffff16815260200182600019166000191681526020019250505060206040518083038186803b158015613e8157600080fd5b505af4158015613e95573d6000803e3d6000fd5b505050506040513d6020811015613eab57600080fd5b81019080805190602001909291905050509050919050565b600080823b905060008111915050919050565b6000613ee182613db6565b159050919050565b6000600460009054906101000a900473ffffffffffffffffffffffffffffffffffffffff1673ffffffffffffffffffffffffffffffffffffffff1663aa1d5e7d6040518163ffffffff167c0100000000000000000000000000000000000000000000000000000000028152600401602060405180830381600087803b158015613f7157600080fd5b505af1158015613f85573d6000803e3d6000fd5b505050506040513d6020811015613f9b57600080fd5b8101908080519060200190929190505050905090565b6000600460009054906101000a900473ffffffffffffffffffffffffffffffffffffffff1673ffffffffffffffffffffffffffffffffffffffff166354bb3da96040518163ffffffff167c0100000000000000000000000000000000000000000000000000000000028152600401602060405180830381600087803b15801561403957600080fd5b505af115801561404d573d6000803e3d6000fd5b505050506040513d602081101561406357600080fd5b81019080805190602001909291905050509050905600a165627a7a72305820a14fa003b268967df9feb99070ca025a39369296582d1f8d9c97d94a81efe40f0029",
  "source": "pragma solidity ^0.4.23;\r\n\r\nimport \"./IVehicleRegistry.sol\";\r\nimport \"./IVehicleManufacturerRegistry.sol\";\r\nimport \"./ByteUtils.sol\";\r\nimport \"./VehicleRegistryStorage.sol\";\r\nimport \"./VehicleManufacturerRegistry.sol\";\r\nimport \"./VehicleRegistryFeeChecker.sol\";\r\nimport \"../node_modules/openzeppelin-solidity/contracts/AddressUtils.sol\";\r\nimport \"../node_modules/openzeppelin-solidity/contracts/ownership/Claimable.sol\";\r\nimport \"../node_modules/openzeppelin-solidity/contracts/lifecycle/TokenDestructible.sol\";\r\nimport \"../node_modules/openzeppelin-solidity/contracts/lifecycle/Pausable.sol\";\r\n\r\n/** @title Vehicle Registry. */\r\ncontract VehicleRegistry is IVehicleRegistry, TokenDestructible, Claimable, Pausable {\r\n\r\n    using ByteUtils for bytes32;\r\n    using AddressUtils for address;\r\n\r\n//events\r\n    event Registered(bytes32 indexed _VIN);\r\n    event VehicleOwnershipTransferRequest(bytes32 indexed _VIN, address indexed _from, address indexed _to);\r\n    event VehicleOwnershipTransferAccepted(bytes32 indexed _VIN, address indexed _newOwner);\r\n    event VehicleMaintenanceLogAddressChanged(bytes32 indexed _VIN, address indexed _from, address indexed _to);\r\n\r\n//storage vars\r\n    address private vehicleRegistryStorageAddress;\r\n    address private vehicleManufacturerRegistryAddress;\r\n    address private feeCheckerAddress;\r\n\r\n//admin only functions\r\n    function setStorageAddress(address _address) \r\n        public \r\n        payable \r\n        onlyOwner() \r\n        addressIsContract(_address) {\r\n        vehicleRegistryStorageAddress = _address;\r\n    }\r\n\r\n    function setManufacturerRegistryAddress(address _address) \r\n        public \r\n        payable \r\n        onlyOwner() \r\n        addressIsContract(_address) {\r\n        vehicleManufacturerRegistryAddress = _address;\r\n    } \r\n\r\n    function setFeeCheckerAddress(address _address) \r\n        public \r\n        payable \r\n        onlyOwner() \r\n        addressIsContract(_address) {\r\n        feeCheckerAddress = _address;\r\n    }        \r\n\r\n//constructor\r\n    constructor(address _vehicleRegistryStorageAddress, address _vehicleManufacturerRegistryAddress, address _feeCheckerAddress) public {\r\n        vehicleRegistryStorageAddress = _vehicleRegistryStorageAddress;\r\n        vehicleManufacturerRegistryAddress = _vehicleManufacturerRegistryAddress;\r\n        feeCheckerAddress = _feeCheckerAddress;\r\n    }\r\n\r\n//modifiers\r\n    modifier vehicleOwner (bytes32 _VIN) {\r\n        address owner = VehicleRegistryStorage.getOwner(vehicleRegistryStorageAddress, _VIN);\r\n        require(msg.sender == owner, \"Only the vehicle owner can perform this function\"); \r\n        _;\r\n    }\r\n\r\n    modifier pendingVehicleOwner (bytes32 _VIN) {\r\n        address owner = VehicleRegistryStorage.getPendingOwner(vehicleRegistryStorageAddress, _VIN);\r\n        require(msg.sender == owner, \"Only the pending vehicle owner can perform this function\"); \r\n        _;\r\n    }    \r\n\r\n    modifier transferKeyMatches(bytes32 _VIN, bytes32 _keyHash) {\r\n        bytes32 transferKey = VehicleRegistryStorage.getTransferKey(vehicleRegistryStorageAddress, _VIN);\r\n        require(transferKey == _keyHash, \"The key provided must match the existing transfer key\");\r\n        _;        \r\n    }\r\n\r\n    modifier registered(bytes32 _VIN) {\r\n        require(privateIsRegistered(_VIN), \"The vehicle must be registered to perform this function\"); \r\n        _;\r\n    }\r\n\r\n    modifier unregistered(bytes32 _VIN) {\r\n        require(privateIsUnRegistered(_VIN), \"The vehicle must be unregistered to perform this function\"); \r\n        _;\r\n    }    \r\n\r\n    modifier addressIsContract(address _address) {\r\n        require(_address.isContract(), \"The address specified must be a contract address\"); \r\n        _;\r\n    }\r\n\r\n    modifier validVin(bytes32 _VIN) {\r\n        require(_VIN.getStringLength() == 17);\r\n        _;\r\n    }\r\n\r\n    modifier paidEnoughToRegister() {\r\n        uint minRegistrationFee = getMinRegistrationFee();\r\n        require(msg.value < minRegistrationFee, \"Not enough Eth was sent to cover a registration\");\r\n        _;\r\n    }\r\n\r\n    modifier paidEnoughToTransfer() {\r\n        uint minTransferFee = getMinTransferFee();\r\n        require(msg.value < minTransferFee, \"Not enough Eth was sent to cover a transfer\");\r\n        _;\r\n    }    \r\n\r\n    modifier isARegisteredManufacturer(bytes32 _name) {\r\n        require (\r\n            IVehicleManufacturerRegistry(vehicleManufacturerRegistryAddress).isRegistered(_name),\r\n            \"The manufacturer must be registered to invoke this function\");\r\n        _;\r\n    }\r\n\r\n    modifier manufacturerMustBeEnabled(bytes32 _name) {\r\n        require (\r\n            IVehicleManufacturerRegistry(vehicleManufacturerRegistryAddress).isEnabled(_name),\r\n            \"The manufacturer must be enabled to invoke this function\");\r\n        _;\r\n    }    \r\n  \r\n//external methods\r\n\r\n//view\r\n    function isRegistered(bytes32 _VIN) \r\n        external view \r\n        validVin(_VIN)\r\n        returns(bool) {\r\n        return privateIsRegistered(_VIN);\r\n    }\r\n\r\n    function getVehicleManufacturerName(bytes32 _VIN) external view validVin(_VIN) registered(_VIN) returns (bytes32 manufacturerName) {\r\n        return VehicleRegistryStorage.getManufacturerName(vehicleRegistryStorageAddress, _VIN);\r\n    }\r\n\r\n    function getVehicleLicencePlate(bytes32 _VIN) external view validVin(_VIN) registered(_VIN) returns (bytes32 licencePlate) {\r\n        return VehicleRegistryStorage.getLicencePlate(vehicleRegistryStorageAddress, _VIN);\r\n    }\r\n\r\n    function getVehicleOwner(bytes32 _VIN) external view validVin(_VIN) registered(_VIN) returns (address owner) {\r\n        return VehicleRegistryStorage.getOwner(vehicleRegistryStorageAddress, _VIN);\r\n    }\r\n\r\n    function getVehicleMaintenanceLogAddress(bytes32 _VIN) \r\n        external view \r\n        validVin(_VIN) registered(_VIN) \r\n        returns (address serviceHistoryAddress) {\r\n        return VehicleRegistryStorage.getMaintenanceLogAddress(vehicleRegistryStorageAddress, _VIN);\r\n    }\r\n\r\n    function getVehicleRegisteredDate(bytes32 _VIN) external view validVin(_VIN) registered(_VIN) returns (uint256 registeredDate) {\r\n        return VehicleRegistryStorage.getRegistered(vehicleRegistryStorageAddress, _VIN);\r\n    }\r\n\r\n//state altering\r\n\r\n    /** @dev Registers a vehicle.\r\n      * @param _VIN the vehicle identification number.\r\n      * @param _licencePlate the licence / number plate of the vehicle.\r\n      * @param _manufacturerName - the unique id of the manufacturer\r\n      */\r\n    function register(bytes32 _VIN, bytes32 _licencePlate, bytes32 _manufacturerName) \r\n        external payable \r\n        whenNotPaused()\r\n        validVin(_VIN) \r\n        unregistered(_VIN) \r\n        paidEnoughToRegister()\r\n        isARegisteredManufacturer(_manufacturerName)\r\n        manufacturerMustBeEnabled(_manufacturerName)\r\n        {\r\n\r\n        address maintenanceLogAddress = 0;\r\n        VehicleRegistryStorage.storeVehicle(vehicleRegistryStorageAddress, _VIN, _manufacturerName, _licencePlate, msg.sender, 0, now);\r\n        VehicleRegistryStorage.setMaintenanceLogAddress(vehicleRegistryStorageAddress, _VIN, maintenanceLogAddress);\r\n        //deploy new serviceHistoryAddress\r\n        //which contract - how do we know...?\r\n        //set contract address\r\n        //v.maintenanceContractAddress = newAddress;\r\n\r\n        emit Registered(_VIN);\r\n    }\r\n\r\n    function transferVehicleOwnership(bytes32 _VIN, address _newOwner, bytes32 _keyHash) \r\n        external payable \r\n        whenNotPaused()\r\n        validVin(_VIN) \r\n        registered(_VIN) \r\n        vehicleOwner(_VIN) \r\n        paidEnoughToTransfer()\r\n        {\r\n        address oldOwner = VehicleRegistryStorage.getOwner(vehicleRegistryStorageAddress, _VIN);\r\n        VehicleRegistryStorage.setPendingOwner(vehicleRegistryStorageAddress, _VIN, _newOwner);\r\n        VehicleRegistryStorage.setTransferKey(vehicleRegistryStorageAddress, _VIN, _keyHash);\r\n        emit VehicleOwnershipTransferRequest(_VIN, oldOwner, _newOwner);\r\n    }\r\n\r\n    function acceptVehicleOwnership(bytes32 _VIN, bytes32 _keyHash)\r\n        external payable\r\n        whenNotPaused()\r\n        validVin(_VIN)\r\n        registered(_VIN)\r\n        pendingVehicleOwner(_VIN)\r\n        transferKeyMatches(_VIN, _keyHash)\r\n        {\r\n        VehicleRegistryStorage.setOwner(vehicleRegistryStorageAddress, _VIN, msg.sender);\r\n        VehicleRegistryStorage.setPendingOwner(vehicleRegistryStorageAddress, _VIN, 0);\r\n        emit VehicleOwnershipTransferAccepted(_VIN, msg.sender);         \r\n    }\r\n\r\n    //allow contract to be upgraded\r\n    function setVehicleMaintenanceLogAddress(bytes32 _VIN, address _maintenanceLogAddress) \r\n        external payable\r\n        whenNotPaused()\r\n        validVin(_VIN)\r\n        registered(_VIN)\r\n        vehicleOwner(_VIN)\r\n        addressIsContract(_maintenanceLogAddress)\r\n        {\r\n        address oldAddress = VehicleRegistryStorage.getMaintenanceLogAddress(vehicleRegistryStorageAddress, _VIN);\r\n        require(oldAddress != _maintenanceLogAddress, \"The new address must be different to the old address\");\r\n        VehicleRegistryStorage.setMaintenanceLogAddress(vehicleRegistryStorageAddress, _VIN, _maintenanceLogAddress);\r\n        emit VehicleMaintenanceLogAddressChanged(_VIN, oldAddress, _maintenanceLogAddress);\r\n    }    \r\n\r\n//private functions\r\n\r\n    function privateIsUnRegistered(bytes32 _VIN) private view returns(bool) {\r\n        return !privateIsRegistered(_VIN);\r\n    }      \r\n\r\n    function privateIsRegistered(bytes32 _VIN) private view returns(bool)  {\r\n        return VehicleRegistryStorage.exists(vehicleRegistryStorageAddress, _VIN);\r\n    }    \r\n\r\n    function getMinRegistrationFee() private view returns(uint) {\r\n        return IVehicleRegistryFeeChecker(feeCheckerAddress).getRegistrationFeeEth();\r\n    }\r\n\r\n    function getMinTransferFee() private view returns(uint) {\r\n        return IVehicleRegistryFeeChecker(feeCheckerAddress).getTransferFeeEth();\r\n    }    \r\n \r\n}",
  "sourcePath": "C:\\dev\\repos\\VehicleMaintenanceRegistry\\src\\vmr\\contracts\\VehicleRegistry.sol",
  "compiler": {
    "name": "solc",
    "version": "0.4.24+commit.e67f0147.Emscripten.clang"
  },
  "schemaVersion": "2.0.1",
  "updatedAt": "2018-07-09T16:03:14.613Z"
}