{
  "contractName": "VehicleRegistry",
  "abi": [
    {
      "constant": false,
      "inputs": [],
      "name": "unpause",
      "outputs": [],
      "payable": false,
      "stateMutability": "nonpayable",
      "type": "function"
    },
    {
      "constant": false,
      "inputs": [],
      "name": "claimOwnership",
      "outputs": [],
      "payable": false,
      "stateMutability": "nonpayable",
      "type": "function"
    },
    {
      "constant": true,
      "inputs": [],
      "name": "paused",
      "outputs": [
        {
          "name": "",
          "type": "bool"
        }
      ],
      "payable": false,
      "stateMutability": "view",
      "type": "function"
    },
    {
      "constant": false,
      "inputs": [],
      "name": "renounceOwnership",
      "outputs": [],
      "payable": false,
      "stateMutability": "nonpayable",
      "type": "function"
    },
    {
      "constant": false,
      "inputs": [],
      "name": "pause",
      "outputs": [],
      "payable": false,
      "stateMutability": "nonpayable",
      "type": "function"
    },
    {
      "constant": true,
      "inputs": [],
      "name": "owner",
      "outputs": [
        {
          "name": "",
          "type": "address"
        }
      ],
      "payable": false,
      "stateMutability": "view",
      "type": "function"
    },
    {
      "constant": false,
      "inputs": [
        {
          "name": "tokens",
          "type": "address[]"
        }
      ],
      "name": "destroy",
      "outputs": [],
      "payable": false,
      "stateMutability": "nonpayable",
      "type": "function"
    },
    {
      "constant": true,
      "inputs": [],
      "name": "pendingOwner",
      "outputs": [
        {
          "name": "",
          "type": "address"
        }
      ],
      "payable": false,
      "stateMutability": "view",
      "type": "function"
    },
    {
      "constant": false,
      "inputs": [
        {
          "name": "newOwner",
          "type": "address"
        }
      ],
      "name": "transferOwnership",
      "outputs": [],
      "payable": false,
      "stateMutability": "nonpayable",
      "type": "function"
    },
    {
      "inputs": [
        {
          "name": "_vehicleRegistryStorageAddress",
          "type": "address"
        },
        {
          "name": "_vehicleManufacturerRegistryAddress",
          "type": "address"
        }
      ],
      "payable": false,
      "stateMutability": "nonpayable",
      "type": "constructor"
    },
    {
      "anonymous": false,
      "inputs": [
        {
          "indexed": false,
          "name": "_VIN",
          "type": "bytes32"
        }
      ],
      "name": "Registered",
      "type": "event"
    },
    {
      "anonymous": false,
      "inputs": [
        {
          "indexed": false,
          "name": "_VIN",
          "type": "bytes32"
        },
        {
          "indexed": false,
          "name": "_from",
          "type": "address"
        },
        {
          "indexed": false,
          "name": "_to",
          "type": "address"
        }
      ],
      "name": "VehicleOwnershipTransferRequest",
      "type": "event"
    },
    {
      "anonymous": false,
      "inputs": [
        {
          "indexed": false,
          "name": "_VIN",
          "type": "bytes32"
        },
        {
          "indexed": false,
          "name": "_newOwner",
          "type": "address"
        }
      ],
      "name": "VehicleOwnershipTransferAccepted",
      "type": "event"
    },
    {
      "anonymous": false,
      "inputs": [
        {
          "indexed": false,
          "name": "_VIN",
          "type": "bytes32"
        },
        {
          "indexed": false,
          "name": "_from",
          "type": "address"
        },
        {
          "indexed": false,
          "name": "_to",
          "type": "address"
        }
      ],
      "name": "VehicleServiceHistoryAddressChanged",
      "type": "event"
    },
    {
      "anonymous": false,
      "inputs": [],
      "name": "Pause",
      "type": "event"
    },
    {
      "anonymous": false,
      "inputs": [],
      "name": "Unpause",
      "type": "event"
    },
    {
      "anonymous": false,
      "inputs": [
        {
          "indexed": true,
          "name": "previousOwner",
          "type": "address"
        }
      ],
      "name": "OwnershipRenounced",
      "type": "event"
    },
    {
      "anonymous": false,
      "inputs": [
        {
          "indexed": true,
          "name": "previousOwner",
          "type": "address"
        },
        {
          "indexed": true,
          "name": "newOwner",
          "type": "address"
        }
      ],
      "name": "OwnershipTransferred",
      "type": "event"
    },
    {
      "constant": true,
      "inputs": [
        {
          "name": "_VIN",
          "type": "bytes32"
        }
      ],
      "name": "isRegistered",
      "outputs": [
        {
          "name": "",
          "type": "bool"
        }
      ],
      "payable": false,
      "stateMutability": "view",
      "type": "function"
    },
    {
      "constant": true,
      "inputs": [
        {
          "name": "_VIN",
          "type": "bytes32"
        }
      ],
      "name": "getVehicleManufacturerName",
      "outputs": [
        {
          "name": "manufacturerName",
          "type": "bytes32"
        }
      ],
      "payable": false,
      "stateMutability": "view",
      "type": "function"
    },
    {
      "constant": true,
      "inputs": [
        {
          "name": "_VIN",
          "type": "bytes32"
        }
      ],
      "name": "getVehicleLicencePlate",
      "outputs": [
        {
          "name": "licencePlate",
          "type": "bytes32"
        }
      ],
      "payable": false,
      "stateMutability": "view",
      "type": "function"
    },
    {
      "constant": true,
      "inputs": [
        {
          "name": "_VIN",
          "type": "bytes32"
        }
      ],
      "name": "getVehicleOwner",
      "outputs": [
        {
          "name": "owner",
          "type": "address"
        }
      ],
      "payable": false,
      "stateMutability": "view",
      "type": "function"
    },
    {
      "constant": true,
      "inputs": [
        {
          "name": "_VIN",
          "type": "bytes32"
        }
      ],
      "name": "getVehicleServiceHistoryAddress",
      "outputs": [
        {
          "name": "serviceHistoryAddress",
          "type": "address"
        }
      ],
      "payable": false,
      "stateMutability": "view",
      "type": "function"
    },
    {
      "constant": true,
      "inputs": [
        {
          "name": "_VIN",
          "type": "bytes32"
        }
      ],
      "name": "getVehicleRegisteredDate",
      "outputs": [
        {
          "name": "registeredDate",
          "type": "uint256"
        }
      ],
      "payable": false,
      "stateMutability": "view",
      "type": "function"
    },
    {
      "constant": false,
      "inputs": [
        {
          "name": "_VIN",
          "type": "bytes32"
        },
        {
          "name": "_licencePlate",
          "type": "bytes32"
        },
        {
          "name": "_manufacturerName",
          "type": "bytes32"
        }
      ],
      "name": "register",
      "outputs": [],
      "payable": true,
      "stateMutability": "payable",
      "type": "function"
    },
    {
      "constant": false,
      "inputs": [
        {
          "name": "_VIN",
          "type": "bytes32"
        },
        {
          "name": "_newOwner",
          "type": "address"
        },
        {
          "name": "_keyHash",
          "type": "bytes32"
        }
      ],
      "name": "transferVehicleOwnership",
      "outputs": [],
      "payable": true,
      "stateMutability": "payable",
      "type": "function"
    },
    {
      "constant": false,
      "inputs": [
        {
          "name": "_VIN",
          "type": "bytes32"
        },
        {
          "name": "_keyHash",
          "type": "bytes32"
        }
      ],
      "name": "acceptVehicleOwnership",
      "outputs": [],
      "payable": true,
      "stateMutability": "payable",
      "type": "function"
    },
    {
      "constant": false,
      "inputs": [
        {
          "name": "_VIN",
          "type": "bytes32"
        },
        {
          "name": "_serviceHistoryAddress",
          "type": "address"
        }
      ],
      "name": "setServiceHistoryAddress",
      "outputs": [],
      "payable": true,
      "stateMutability": "payable",
      "type": "function"
    }
  ],
  "bytecode": "0x60806040526000600160146101000a81548160ff02191690831515021790555034801561002b57600080fd5b50604051604080613c2e8339810180604052810190808051906020019092919080519060200190929190505050336000806101000a81548173ffffffffffffffffffffffffffffffffffffffff021916908373ffffffffffffffffffffffffffffffffffffffff16021790555081600260006101000a81548173ffffffffffffffffffffffffffffffffffffffff021916908373ffffffffffffffffffffffffffffffffffffffff16021790555080600360006101000a81548173ffffffffffffffffffffffffffffffffffffffff021916908373ffffffffffffffffffffffffffffffffffffffff1602179055505050613b038061012b6000396000f300608060405260043610610107576000357c0100000000000000000000000000000000000000000000000000000000900463ffffffff16806327258b221461010c5780632c9df151146101555780632e52e026146101875780633f4ba83a146101f85780634da274fd1461020f5780634e71e0c81461024f57806359f1a879146102665780635c975abb146102aa5780636122a134146102d9578063715018a6146103265780638456cb591461033d5780638da5cb5b14610354578063c2dea66a146103ab578063c3b4410a146103f0578063c6786e5a1461043d578063e30c3978146104a3578063f2fde38b146104fa578063f9d3102b1461053d578063faf0c0ed1461058f575b600080fd5b34801561011857600080fd5b5061013b6004803603810190808035600019169060200190929190505050610600565b604051808215151515815260200191505060405180910390f35b610185600480360381019080803560001916906020019092919080356000191690602001909291905050506106d6565b005b34801561019357600080fd5b506101b66004803603810190808035600019169060200190929190505050610e6d565b604051808273ffffffffffffffffffffffffffffffffffffffff1673ffffffffffffffffffffffffffffffffffffffff16815260200191505060405180910390f35b34801561020457600080fd5b5061020d6110e3565b005b61024d6004803603810190808035600019169060200190929190803560001916906020019092919080356000191690602001909291905050506111a2565b005b34801561025b57600080fd5b50610264611951565b005b6102a86004803603810190808035600019169060200190929190803573ffffffffffffffffffffffffffffffffffffffff169060200190929190505050611af0565b005b3480156102b657600080fd5b506102bf612297565b604051808215151515815260200191505060405180910390f35b3480156102e557600080fd5b5061030860048036038101908080356000191690602001909291905050506122aa565b60405180826000191660001916815260200191505060405180910390f35b34801561033257600080fd5b5061033b612520565b005b34801561034957600080fd5b50610352612622565b005b34801561036057600080fd5b506103696126e1565b604051808273ffffffffffffffffffffffffffffffffffffffff1673ffffffffffffffffffffffffffffffffffffffff16815260200191505060405180910390f35b3480156103b757600080fd5b506103da6004803603810190808035600019169060200190929190505050612706565b6040518082815260200191505060405180910390f35b3480156103fc57600080fd5b5061041f600480360381019080803560001916906020019092919050505061297c565b60405180826000191660001916815260200191505060405180910390f35b34801561044957600080fd5b506104a160048036038101908080359060200190820180359060200190808060200260200160405190810160405280939291908181526020018383602002808284378201915050505050509192919290505050612bf2565b005b3480156104af57600080fd5b506104b8612e99565b604051808273ffffffffffffffffffffffffffffffffffffffff1673ffffffffffffffffffffffffffffffffffffffff16815260200191505060405180910390f35b34801561050657600080fd5b5061053b600480360381019080803573ffffffffffffffffffffffffffffffffffffffff169060200190929190505050612ebf565b005b61058d6004803603810190808035600019169060200190929190803573ffffffffffffffffffffffffffffffffffffffff1690602001909291908035600019169060200190929190505050612f5e565b005b34801561059b57600080fd5b506105be600480360381019080803560001916906020019092919050505061371c565b604051808273ffffffffffffffffffffffffffffffffffffffff1673ffffffffffffffffffffffffffffffffffffffff16815260200191505060405180910390f35b6000816011816000191673__ByteUtils_____________________________6335d7654d90916040518263ffffffff167c010000000000000000000000000000000000000000000000000000000002815260040180826000191660001916815260200191505060206040518083038186803b15801561067e57600080fd5b505af4158015610692573d6000803e3d6000fd5b505050506040513d60208110156106a857600080fd5b81019080805190602001909291905050501415156106c557600080fd5b6106ce83613992565b915050919050565b600160149054906101000a900460ff161515156106f257600080fd5b816011816000191673__ByteUtils_____________________________6335d7654d90916040518263ffffffff167c010000000000000000000000000000000000000000000000000000000002815260040180826000191660001916815260200191505060206040518083038186803b15801561076e57600080fd5b505af4158015610782573d6000803e3d6000fd5b505050506040513d602081101561079857600080fd5b81019080805190602001909291905050501415156107b557600080fd5b826107bf81613992565b1515610859576040517f08c379a00000000000000000000000000000000000000000000000000000000081526004018080602001828103825260378152602001807f5468652076656869636c65206d7573742062652072656769737465726564207481526020017f6f20706572666f726d20746869732066756e6374696f6e00000000000000000081525060400191505060405180910390fd5b83600073__VehicleRegistryStorage________________63bb544060600260009054906101000a900473ffffffffffffffffffffffffffffffffffffffff16846040518363ffffffff167c0100000000000000000000000000000000000000000000000000000000028152600401808373ffffffffffffffffffffffffffffffffffffffff1673ffffffffffffffffffffffffffffffffffffffff16815260200182600019166000191681526020019250505060206040518083038186803b15801561092557600080fd5b505af4158015610939573d6000803e3d6000fd5b505050506040513d602081101561094f57600080fd5b810190808051906020019092919050505090508073ffffffffffffffffffffffffffffffffffffffff163373ffffffffffffffffffffffffffffffffffffffff16141515610a2b576040517f08c379a00000000000000000000000000000000000000000000000000000000081526004018080602001828103825260388152602001807f4f6e6c79207468652070656e64696e672076656869636c65206f776e6572206381526020017f616e20706572666f726d20746869732066756e6374696f6e000000000000000081525060400191505060405180910390fd5b8585600073__VehicleRegistryStorage________________639f7d4a2f600260009054906101000a900473ffffffffffffffffffffffffffffffffffffffff16856040518363ffffffff167c0100000000000000000000000000000000000000000000000000000000028152600401808373ffffffffffffffffffffffffffffffffffffffff1673ffffffffffffffffffffffffffffffffffffffff16815260200182600019166000191681526020019250505060206040518083038186803b158015610af857600080fd5b505af4158015610b0c573d6000803e3d6000fd5b505050506040513d6020811015610b2257600080fd5b8101908080519060200190929190505050905081600019168160001916141515610bda576040517f08c379a00000000000000000000000000000000000000000000000000000000081526004018080602001828103825260358152602001807f546865206b65792070726f7669646564206d757374206d61746368207468652081526020017f6578697374696e67207472616e73666572206b6579000000000000000000000081525060400191505060405180910390fd5b73__VehicleRegistryStorage________________630f1ed0c6600260009054906101000a900473ffffffffffffffffffffffffffffffffffffffff168b336040518463ffffffff167c0100000000000000000000000000000000000000000000000000000000028152600401808473ffffffffffffffffffffffffffffffffffffffff1673ffffffffffffffffffffffffffffffffffffffff16815260200183600019166000191681526020018273ffffffffffffffffffffffffffffffffffffffff1673ffffffffffffffffffffffffffffffffffffffff168152602001935050505060006040518083038186803b158015610cd757600080fd5b505af4158015610ceb573d6000803e3d6000fd5b5050505073__VehicleRegistryStorage________________638b8fa92f600260009054906101000a900473ffffffffffffffffffffffffffffffffffffffff168b60006040518463ffffffff167c0100000000000000000000000000000000000000000000000000000000028152600401808473ffffffffffffffffffffffffffffffffffffffff1673ffffffffffffffffffffffffffffffffffffffff16815260200183600019166000191681526020018273ffffffffffffffffffffffffffffffffffffffff168152602001935050505060006040518083038186803b158015610dd757600080fd5b505af4158015610deb573d6000803e3d6000fd5b505050507f07da1ce8cfc572f78d8bf120feca8a8d4ca65803ccc7395b6056dd3c7aef9eee89336040518083600019166000191681526020018273ffffffffffffffffffffffffffffffffffffffff1673ffffffffffffffffffffffffffffffffffffffff1681526020019250505060405180910390a1505050505050505050565b6000816011816000191673__ByteUtils_____________________________6335d7654d90916040518263ffffffff167c010000000000000000000000000000000000000000000000000000000002815260040180826000191660001916815260200191505060206040518083038186803b158015610eeb57600080fd5b505af4158015610eff573d6000803e3d6000fd5b505050506040513d6020811015610f1557600080fd5b8101908080519060200190929190505050141515610f3257600080fd5b82610f3c81613992565b1515610fd6576040517f08c379a00000000000000000000000000000000000000000000000000000000081526004018080602001828103825260378152602001807f5468652076656869636c65206d7573742062652072656769737465726564207481526020017f6f20706572666f726d20746869732066756e6374696f6e00000000000000000081525060400191505060405180910390fd5b73__VehicleRegistryStorage________________6369c5b2b8600260009054906101000a900473ffffffffffffffffffffffffffffffffffffffff16866040518363ffffffff167c0100000000000000000000000000000000000000000000000000000000028152600401808373ffffffffffffffffffffffffffffffffffffffff1673ffffffffffffffffffffffffffffffffffffffff16815260200182600019166000191681526020019250505060206040518083038186803b15801561109f57600080fd5b505af41580156110b3573d6000803e3d6000fd5b505050506040513d60208110156110c957600080fd5b810190808051906020019092919050505092505050919050565b6000809054906101000a900473ffffffffffffffffffffffffffffffffffffffff1673ffffffffffffffffffffffffffffffffffffffff163373ffffffffffffffffffffffffffffffffffffffff1614151561113e57600080fd5b600160149054906101000a900460ff16151561115957600080fd5b6000600160146101000a81548160ff0219169083151502179055507f7805862f689e2f13df9f062ff482ad3ad112aca9e0847911ed832e158c525b3360405160405180910390a1565b600160149054906101000a900460ff161515156111be57600080fd5b826011816000191673__ByteUtils_____________________________6335d7654d90916040518263ffffffff167c010000000000000000000000000000000000000000000000000000000002815260040180826000191660001916815260200191505060206040518083038186803b15801561123a57600080fd5b505af415801561124e573d6000803e3d6000fd5b505050506040513d602081101561126457600080fd5b810190808051906020019092919050505014151561128157600080fd5b8361128b81613a9f565b1515611325576040517f08c379a00000000000000000000000000000000000000000000000000000000081526004018080602001828103825260398152602001807f5468652076656869636c65206d75737420626520756e7265676973746572656481526020017f20746f20706572666f726d20746869732066756e6374696f6e0000000000000081525060400191505060405180910390fd5b600061132f613ab2565b905080341015156113ce576040517f08c379a000000000000000000000000000000000000000000000000000000000815260040180806020018281038252602f8152602001807f4e6f7420656e6f75676820457468207761732073656e7420746f20636f76657281526020017f206120726567697374726174696f6e000000000000000000000000000000000081525060400191505060405180910390fd5b83600360009054906101000a900473ffffffffffffffffffffffffffffffffffffffff1673ffffffffffffffffffffffffffffffffffffffff166327258b22826040518263ffffffff167c0100000000000000000000000000000000000000000000000000000000028152600401808260001916600019168152602001915050602060405180830381600087803b15801561146857600080fd5b505af115801561147c573d6000803e3d6000fd5b505050506040513d602081101561149257600080fd5b8101908080519060200190929190505050151561153d576040517f08c379a000000000000000000000000000000000000000000000000000000000815260040180806020018281038252603b8152602001807f546865206d616e756661637475726572206d757374206265207265676973746581526020017f72656420746f20696e766f6b6520746869732066756e6374696f6e000000000081525060400191505060405180910390fd5b84600360009054906101000a900473ffffffffffffffffffffffffffffffffffffffff1673ffffffffffffffffffffffffffffffffffffffff16630610e037826040518263ffffffff167c0100000000000000000000000000000000000000000000000000000000028152600401808260001916600019168152602001915050602060405180830381600087803b1580156115d757600080fd5b505af11580156115eb573d6000803e3d6000fd5b505050506040513d602081101561160157600080fd5b810190808051906020019092919050505015156116ac576040517f08c379a00000000000000000000000000000000000000000000000000000000081526004018080602001828103825260388152602001807f546865206d616e756661637475726572206d75737420626520656e61626c656481526020017f20746f20696e766f6b6520746869732066756e6374696f6e000000000000000081525060400191505060405180910390fd5b73__VehicleRegistryStorage________________63a729e966600260009054906101000a900473ffffffffffffffffffffffffffffffffffffffff168a898b336000426040518863ffffffff167c0100000000000000000000000000000000000000000000000000000000028152600401808873ffffffffffffffffffffffffffffffffffffffff1673ffffffffffffffffffffffffffffffffffffffff1681526020018760001916600019168152602001866000191660001916815260200185600019166000191681526020018473ffffffffffffffffffffffffffffffffffffffff1673ffffffffffffffffffffffffffffffffffffffff1681526020018373ffffffffffffffffffffffffffffffffffffffff16815260200182815260200197505050505050505060006040518083038186803b1580156117f057600080fd5b505af4158015611804573d6000803e3d6000fd5b5050505073__VehicleRegistryStorage________________63fee3dc99600260009054906101000a900473ffffffffffffffffffffffffffffffffffffffff168a60006040518463ffffffff167c0100000000000000000000000000000000000000000000000000000000028152600401808473ffffffffffffffffffffffffffffffffffffffff1673ffffffffffffffffffffffffffffffffffffffff16815260200183600019166000191681526020018273ffffffffffffffffffffffffffffffffffffffff168152602001935050505060006040518083038186803b1580156118f057600080fd5b505af4158015611904573d6000803e3d6000fd5b505050507f10906fae603eebfac53ddc0f103bee8a044dd7643c425c7a90f921dfa15ef62c8860405180826000191660001916815260200191505060405180910390a15050505050505050565b600160009054906101000a900473ffffffffffffffffffffffffffffffffffffffff1673ffffffffffffffffffffffffffffffffffffffff163373ffffffffffffffffffffffffffffffffffffffff161415156119ad57600080fd5b600160009054906101000a900473ffffffffffffffffffffffffffffffffffffffff1673ffffffffffffffffffffffffffffffffffffffff166000809054906101000a900473ffffffffffffffffffffffffffffffffffffffff1673ffffffffffffffffffffffffffffffffffffffff167f8be0079c531659141344cd1fd0a4f28419497f9722a3daafe3b4186f6b6457e060405160405180910390a3600160009054906101000a900473ffffffffffffffffffffffffffffffffffffffff166000806101000a81548173ffffffffffffffffffffffffffffffffffffffff021916908373ffffffffffffffffffffffffffffffffffffffff1602179055506000600160006101000a81548173ffffffffffffffffffffffffffffffffffffffff021916908373ffffffffffffffffffffffffffffffffffffffff160217905550565b6000600160149054906101000a900460ff16151515611b0e57600080fd5b826011816000191673__ByteUtils_____________________________6335d7654d90916040518263ffffffff167c010000000000000000000000000000000000000000000000000000000002815260040180826000191660001916815260200191505060206040518083038186803b158015611b8a57600080fd5b505af4158015611b9e573d6000803e3d6000fd5b505050506040513d6020811015611bb457600080fd5b8101908080519060200190929190505050141515611bd157600080fd5b83611bdb81613992565b1515611c75576040517f08c379a00000000000000000000000000000000000000000000000000000000081526004018080602001828103825260378152602001807f5468652076656869636c65206d7573742062652072656769737465726564207481526020017f6f20706572666f726d20746869732066756e6374696f6e00000000000000000081525060400191505060405180910390fd5b84600073__VehicleRegistryStorage________________6369c5b2b8600260009054906101000a900473ffffffffffffffffffffffffffffffffffffffff16846040518363ffffffff167c0100000000000000000000000000000000000000000000000000000000028152600401808373ffffffffffffffffffffffffffffffffffffffff1673ffffffffffffffffffffffffffffffffffffffff16815260200182600019166000191681526020019250505060206040518083038186803b158015611d4157600080fd5b505af4158015611d55573d6000803e3d6000fd5b505050506040513d6020811015611d6b57600080fd5b810190808051906020019092919050505090508073ffffffffffffffffffffffffffffffffffffffff163373ffffffffffffffffffffffffffffffffffffffff16141515611e47576040517f08c379a00000000000000000000000000000000000000000000000000000000081526004018080602001828103825260308152602001807f4f6e6c79207468652076656869636c65206f776e65722063616e20706572666f81526020017f726d20746869732066756e6374696f6e0000000000000000000000000000000081525060400191505060405180910390fd5b85611e678173ffffffffffffffffffffffffffffffffffffffff16613abb565b1515611f01576040517f08c379a00000000000000000000000000000000000000000000000000000000081526004018080602001828103825260308152602001807f546865206164647265737320737065636966696564206d75737420626520612081526020017f636f6e747261637420616464726573730000000000000000000000000000000081525060400191505060405180910390fd5b73__VehicleRegistryStorage________________6380a9f75b600260009054906101000a900473ffffffffffffffffffffffffffffffffffffffff168a6040518363ffffffff167c0100000000000000000000000000000000000000000000000000000000028152600401808373ffffffffffffffffffffffffffffffffffffffff1673ffffffffffffffffffffffffffffffffffffffff16815260200182600019166000191681526020019250505060206040518083038186803b158015611fca57600080fd5b505af4158015611fde573d6000803e3d6000fd5b505050506040513d6020811015611ff457600080fd5b810190808051906020019092919050505095508673ffffffffffffffffffffffffffffffffffffffff168673ffffffffffffffffffffffffffffffffffffffff16141515156120d1576040517f08c379a00000000000000000000000000000000000000000000000000000000081526004018080602001828103825260348152602001807f546865206e65772061646472657373206d75737420626520646966666572656e81526020017f7420746f20746865206f6c64206164647265737300000000000000000000000081525060400191505060405180910390fd5b73__VehicleRegistryStorage________________63fee3dc99600260009054906101000a900473ffffffffffffffffffffffffffffffffffffffff168a8a6040518463ffffffff167c0100000000000000000000000000000000000000000000000000000000028152600401808473ffffffffffffffffffffffffffffffffffffffff1673ffffffffffffffffffffffffffffffffffffffff16815260200183600019166000191681526020018273ffffffffffffffffffffffffffffffffffffffff1673ffffffffffffffffffffffffffffffffffffffff168152602001935050505060006040518083038186803b1580156121ce57600080fd5b505af41580156121e2573d6000803e3d6000fd5b505050507fa858aa396ce169b6a3c6a22e661665721305b5be9ed57258b85f3cbc4fe08ddf8887896040518084600019166000191681526020018373ffffffffffffffffffffffffffffffffffffffff1673ffffffffffffffffffffffffffffffffffffffff1681526020018273ffffffffffffffffffffffffffffffffffffffff1673ffffffffffffffffffffffffffffffffffffffff168152602001935050505060405180910390a15050505050505050565b600160149054906101000a900460ff1681565b6000816011816000191673__ByteUtils_____________________________6335d7654d90916040518263ffffffff167c010000000000000000000000000000000000000000000000000000000002815260040180826000191660001916815260200191505060206040518083038186803b15801561232857600080fd5b505af415801561233c573d6000803e3d6000fd5b505050506040513d602081101561235257600080fd5b810190808051906020019092919050505014151561236f57600080fd5b8261237981613992565b1515612413576040517f08c379a00000000000000000000000000000000000000000000000000000000081526004018080602001828103825260378152602001807f5468652076656869636c65206d7573742062652072656769737465726564207481526020017f6f20706572666f726d20746869732066756e6374696f6e00000000000000000081525060400191505060405180910390fd5b73__VehicleRegistryStorage________________6399d54f40600260009054906101000a900473ffffffffffffffffffffffffffffffffffffffff16866040518363ffffffff167c0100000000000000000000000000000000000000000000000000000000028152600401808373ffffffffffffffffffffffffffffffffffffffff1673ffffffffffffffffffffffffffffffffffffffff16815260200182600019166000191681526020019250505060206040518083038186803b1580156124dc57600080fd5b505af41580156124f0573d6000803e3d6000fd5b505050506040513d602081101561250657600080fd5b810190808051906020019092919050505092505050919050565b6000809054906101000a900473ffffffffffffffffffffffffffffffffffffffff1673ffffffffffffffffffffffffffffffffffffffff163373ffffffffffffffffffffffffffffffffffffffff1614151561257b57600080fd5b6000809054906101000a900473ffffffffffffffffffffffffffffffffffffffff1673ffffffffffffffffffffffffffffffffffffffff167ff8df31144d9c2f0f6b59d69b8b98abd5459d07f2742c4df920b25aae33c6482060405160405180910390a260008060006101000a81548173ffffffffffffffffffffffffffffffffffffffff021916908373ffffffffffffffffffffffffffffffffffffffff160217905550565b6000809054906101000a900473ffffffffffffffffffffffffffffffffffffffff1673ffffffffffffffffffffffffffffffffffffffff163373ffffffffffffffffffffffffffffffffffffffff1614151561267d57600080fd5b600160149054906101000a900460ff1615151561269957600080fd5b60018060146101000a81548160ff0219169083151502179055507f6985a02210a168e66602d3235cb6db0e70f92b3ba4d376a33c0f3d9434bff62560405160405180910390a1565b6000809054906101000a900473ffffffffffffffffffffffffffffffffffffffff1681565b6000816011816000191673__ByteUtils_____________________________6335d7654d90916040518263ffffffff167c010000000000000000000000000000000000000000000000000000000002815260040180826000191660001916815260200191505060206040518083038186803b15801561278457600080fd5b505af4158015612798573d6000803e3d6000fd5b505050506040513d60208110156127ae57600080fd5b81019080805190602001909291905050501415156127cb57600080fd5b826127d581613992565b151561286f576040517f08c379a00000000000000000000000000000000000000000000000000000000081526004018080602001828103825260378152602001807f5468652076656869636c65206d7573742062652072656769737465726564207481526020017f6f20706572666f726d20746869732066756e6374696f6e00000000000000000081525060400191505060405180910390fd5b73__VehicleRegistryStorage________________6372c72a7d600260009054906101000a900473ffffffffffffffffffffffffffffffffffffffff16866040518363ffffffff167c0100000000000000000000000000000000000000000000000000000000028152600401808373ffffffffffffffffffffffffffffffffffffffff1673ffffffffffffffffffffffffffffffffffffffff16815260200182600019166000191681526020019250505060206040518083038186803b15801561293857600080fd5b505af415801561294c573d6000803e3d6000fd5b505050506040513d602081101561296257600080fd5b810190808051906020019092919050505092505050919050565b6000816011816000191673__ByteUtils_____________________________6335d7654d90916040518263ffffffff167c010000000000000000000000000000000000000000000000000000000002815260040180826000191660001916815260200191505060206040518083038186803b1580156129fa57600080fd5b505af4158015612a0e573d6000803e3d6000fd5b505050506040513d6020811015612a2457600080fd5b8101908080519060200190929190505050141515612a4157600080fd5b82612a4b81613992565b1515612ae5576040517f08c379a00000000000000000000000000000000000000000000000000000000081526004018080602001828103825260378152602001807f5468652076656869636c65206d7573742062652072656769737465726564207481526020017f6f20706572666f726d20746869732066756e6374696f6e00000000000000000081525060400191505060405180910390fd5b73__VehicleRegistryStorage________________63171321d5600260009054906101000a900473ffffffffffffffffffffffffffffffffffffffff16866040518363ffffffff167c0100000000000000000000000000000000000000000000000000000000028152600401808373ffffffffffffffffffffffffffffffffffffffff1673ffffffffffffffffffffffffffffffffffffffff16815260200182600019166000191681526020019250505060206040518083038186803b158015612bae57600080fd5b505af4158015612bc2573d6000803e3d6000fd5b505050506040513d6020811015612bd857600080fd5b810190808051906020019092919050505092505050919050565b60008060008060009054906101000a900473ffffffffffffffffffffffffffffffffffffffff1673ffffffffffffffffffffffffffffffffffffffff163373ffffffffffffffffffffffffffffffffffffffff16141515612c5257600080fd5b600092505b8351831015612e5f578383815181101515612c6e57fe5b9060200190602002015191508173ffffffffffffffffffffffffffffffffffffffff166370a08231306040518263ffffffff167c0100000000000000000000000000000000000000000000000000000000028152600401808273ffffffffffffffffffffffffffffffffffffffff1673ffffffffffffffffffffffffffffffffffffffff168152602001915050602060405180830381600087803b158015612d1557600080fd5b505af1158015612d29573d6000803e3d6000fd5b505050506040513d6020811015612d3f57600080fd5b810190808051906020019092919050505090508173ffffffffffffffffffffffffffffffffffffffff1663a9059cbb6000809054906101000a900473ffffffffffffffffffffffffffffffffffffffff16836040518363ffffffff167c0100000000000000000000000000000000000000000000000000000000028152600401808373ffffffffffffffffffffffffffffffffffffffff1673ffffffffffffffffffffffffffffffffffffffff16815260200182815260200192505050602060405180830381600087803b158015612e1657600080fd5b505af1158015612e2a573d6000803e3d6000fd5b505050506040513d6020811015612e4057600080fd5b8101908080519060200190929190505050508280600101935050612c57565b6000809054906101000a900473ffffffffffffffffffffffffffffffffffffffff1673ffffffffffffffffffffffffffffffffffffffff16ff5b600160009054906101000a900473ffffffffffffffffffffffffffffffffffffffff1681565b6000809054906101000a900473ffffffffffffffffffffffffffffffffffffffff1673ffffffffffffffffffffffffffffffffffffffff163373ffffffffffffffffffffffffffffffffffffffff16141515612f1a57600080fd5b80600160006101000a81548173ffffffffffffffffffffffffffffffffffffffff021916908373ffffffffffffffffffffffffffffffffffffffff16021790555050565b6000600160149054906101000a900460ff16151515612f7c57600080fd5b836011816000191673__ByteUtils_____________________________6335d7654d90916040518263ffffffff167c010000000000000000000000000000000000000000000000000000000002815260040180826000191660001916815260200191505060206040518083038186803b158015612ff857600080fd5b505af415801561300c573d6000803e3d6000fd5b505050506040513d602081101561302257600080fd5b810190808051906020019092919050505014151561303f57600080fd5b8461304981613992565b15156130e3576040517f08c379a00000000000000000000000000000000000000000000000000000000081526004018080602001828103825260378152602001807f5468652076656869636c65206d7573742062652072656769737465726564207481526020017f6f20706572666f726d20746869732066756e6374696f6e00000000000000000081525060400191505060405180910390fd5b85600073__VehicleRegistryStorage________________6369c5b2b8600260009054906101000a900473ffffffffffffffffffffffffffffffffffffffff16846040518363ffffffff167c0100000000000000000000000000000000000000000000000000000000028152600401808373ffffffffffffffffffffffffffffffffffffffff1673ffffffffffffffffffffffffffffffffffffffff16815260200182600019166000191681526020019250505060206040518083038186803b1580156131af57600080fd5b505af41580156131c3573d6000803e3d6000fd5b505050506040513d60208110156131d957600080fd5b810190808051906020019092919050505090508073ffffffffffffffffffffffffffffffffffffffff163373ffffffffffffffffffffffffffffffffffffffff161415156132b5576040517f08c379a00000000000000000000000000000000000000000000000000000000081526004018080602001828103825260308152602001807f4f6e6c79207468652076656869636c65206f776e65722063616e20706572666f81526020017f726d20746869732066756e6374696f6e0000000000000000000000000000000081525060400191505060405180910390fd5b60006132bf613ace565b9050803410151561335e576040517f08c379a000000000000000000000000000000000000000000000000000000000815260040180806020018281038252602b8152602001807f4e6f7420656e6f75676820457468207761732073656e7420746f20636f76657281526020017f2061207472616e7366657200000000000000000000000000000000000000000081525060400191505060405180910390fd5b73__VehicleRegistryStorage________________6369c5b2b8600260009054906101000a900473ffffffffffffffffffffffffffffffffffffffff168b6040518363ffffffff167c0100000000000000000000000000000000000000000000000000000000028152600401808373ffffffffffffffffffffffffffffffffffffffff1673ffffffffffffffffffffffffffffffffffffffff16815260200182600019166000191681526020019250505060206040518083038186803b15801561342757600080fd5b505af415801561343b573d6000803e3d6000fd5b505050506040513d602081101561345157600080fd5b8101908080519060200190929190505050955073__VehicleRegistryStorage________________638b8fa92f600260009054906101000a900473ffffffffffffffffffffffffffffffffffffffff168b8b6040518463ffffffff167c0100000000000000000000000000000000000000000000000000000000028152600401808473ffffffffffffffffffffffffffffffffffffffff1673ffffffffffffffffffffffffffffffffffffffff16815260200183600019166000191681526020018273ffffffffffffffffffffffffffffffffffffffff1673ffffffffffffffffffffffffffffffffffffffff168152602001935050505060006040518083038186803b15801561356157600080fd5b505af4158015613575573d6000803e3d6000fd5b5050505073__VehicleRegistryStorage________________63d93b8c14600260009054906101000a900473ffffffffffffffffffffffffffffffffffffffff168b8a6040518463ffffffff167c0100000000000000000000000000000000000000000000000000000000028152600401808473ffffffffffffffffffffffffffffffffffffffff1673ffffffffffffffffffffffffffffffffffffffff16815260200183600019166000191681526020018260001916600019168152602001935050505060006040518083038186803b15801561365257600080fd5b505af4158015613666573d6000803e3d6000fd5b505050507f0b6aa8bb444256cc851e9ba81d86b7262267fb388273a816090c109b4b6b214489878a6040518084600019166000191681526020018373ffffffffffffffffffffffffffffffffffffffff1673ffffffffffffffffffffffffffffffffffffffff1681526020018273ffffffffffffffffffffffffffffffffffffffff1673ffffffffffffffffffffffffffffffffffffffff168152602001935050505060405180910390a1505050505050505050565b6000816011816000191673__ByteUtils_____________________________6335d7654d90916040518263ffffffff167c010000000000000000000000000000000000000000000000000000000002815260040180826000191660001916815260200191505060206040518083038186803b15801561379a57600080fd5b505af41580156137ae573d6000803e3d6000fd5b505050506040513d60208110156137c457600080fd5b81019080805190602001909291905050501415156137e157600080fd5b826137eb81613992565b1515613885576040517f08c379a00000000000000000000000000000000000000000000000000000000081526004018080602001828103825260378152602001807f5468652076656869636c65206d7573742062652072656769737465726564207481526020017f6f20706572666f726d20746869732066756e6374696f6e00000000000000000081525060400191505060405180910390fd5b73__VehicleRegistryStorage________________6380a9f75b600260009054906101000a900473ffffffffffffffffffffffffffffffffffffffff16866040518363ffffffff167c0100000000000000000000000000000000000000000000000000000000028152600401808373ffffffffffffffffffffffffffffffffffffffff1673ffffffffffffffffffffffffffffffffffffffff16815260200182600019166000191681526020019250505060206040518083038186803b15801561394e57600080fd5b505af4158015613962573d6000803e3d6000fd5b505050506040513d602081101561397857600080fd5b810190808051906020019092919050505092505050919050565b600073__VehicleRegistryStorage________________6345120511600260009054906101000a900473ffffffffffffffffffffffffffffffffffffffff16846040518363ffffffff167c0100000000000000000000000000000000000000000000000000000000028152600401808373ffffffffffffffffffffffffffffffffffffffff1673ffffffffffffffffffffffffffffffffffffffff16815260200182600019166000191681526020019250505060206040518083038186803b158015613a5d57600080fd5b505af4158015613a71573d6000803e3d6000fd5b505050506040513d6020811015613a8757600080fd5b81019080805190602001909291905050509050919050565b6000613aaa82613992565b159050919050565b60006064905090565b600080823b905060008111915050919050565b600060649050905600a165627a7a72305820fe4aee8f830f683b551821291f1827d9914fd199a55ffd71932a75201b4e082f0029",
  "source": "pragma solidity ^0.4.23;\r\n\r\nimport \"./IVehicleRegistry.sol\";\r\nimport \"./IVehicleManufacturerRegistry.sol\";\r\nimport \"./ByteUtils.sol\";\r\nimport \"./VehicleRegistryStorage.sol\";\r\nimport \"./VehicleManufacturerRegistry.sol\";\r\nimport \"../node_modules/openzeppelin-solidity/contracts/AddressUtils.sol\";\r\nimport \"../node_modules/openzeppelin-solidity/contracts/ownership/Claimable.sol\";\r\nimport \"../node_modules/openzeppelin-solidity/contracts/lifecycle/TokenDestructible.sol\";\r\nimport \"../node_modules/openzeppelin-solidity/contracts/lifecycle/Pausable.sol\";\r\n\r\n/** @title Vehicle Registry. */\r\ncontract VehicleRegistry is IVehicleRegistry, TokenDestructible, Claimable, Pausable {\r\n\r\n//todo\r\n// master storage of VIN to eternal storage contracts\r\n\r\n//charge for each registration\r\n//charge for transferral\r\n//use oracle for current price ??\r\n\r\n    using ByteUtils for bytes32;\r\n    using AddressUtils for address;\r\n\r\n    address private vehicleRegistryStorageAddress;\r\n    address private vehicleManufacturerRegistryAddress;\r\n\r\n    constructor(address _vehicleRegistryStorageAddress, address _vehicleManufacturerRegistryAddress) public {\r\n        vehicleRegistryStorageAddress = _vehicleRegistryStorageAddress;\r\n        vehicleManufacturerRegistryAddress = _vehicleManufacturerRegistryAddress;\r\n    }\r\n\r\n    //events\r\n    event Registered(bytes32 _VIN);\r\n    event VehicleOwnershipTransferRequest(bytes32 _VIN, address _from, address _to);\r\n    event VehicleOwnershipTransferAccepted(bytes32 _VIN, address _newOwner);\r\n    event VehicleServiceHistoryAddressChanged(bytes32 _VIN, address _from, address _to);\r\n\r\n    //modifiers\r\n    modifier vehicleOwner (bytes32 _VIN) {\r\n        address owner = VehicleRegistryStorage.getOwner(vehicleRegistryStorageAddress, _VIN);\r\n        require(msg.sender == owner, \"Only the vehicle owner can perform this function\"); \r\n        _;\r\n    }\r\n\r\n    modifier pendingVehicleOwner (bytes32 _VIN) {\r\n        address owner = VehicleRegistryStorage.getPendingOwner(vehicleRegistryStorageAddress, _VIN);\r\n        require(msg.sender == owner, \"Only the pending vehicle owner can perform this function\"); \r\n        _;\r\n    }    \r\n\r\n    modifier transferKeyMatches(bytes32 _VIN, bytes32 _keyHash) {\r\n        bytes32 transferKey = VehicleRegistryStorage.getTransferKey(vehicleRegistryStorageAddress, _VIN);\r\n        require(transferKey == _keyHash, \"The key provided must match the existing transfer key\");\r\n        _;        \r\n    }\r\n\r\n    modifier registered(bytes32 _VIN) {\r\n        require(privateIsRegistered(_VIN), \"The vehicle must be registered to perform this function\"); \r\n        _;\r\n    }\r\n\r\n    modifier unregistered(bytes32 _VIN) {\r\n        require(privateIsUnRegistered(_VIN), \"The vehicle must be unregistered to perform this function\"); \r\n        _;\r\n    }    \r\n\r\n    modifier addressIsContract(address _address) {\r\n        require(_address.isContract(), \"The address specified must be a contract address\"); \r\n        _;\r\n    }\r\n\r\n    modifier validVin(bytes32 _VIN) {\r\n        require(_VIN.getStringLength() == 17);\r\n        _;\r\n    }\r\n\r\n    modifier paidEnoughToRegister() {\r\n        uint minRegistrationFee = getMinRegistrationFee();\r\n        require(msg.value < minRegistrationFee, \"Not enough Eth was sent to cover a registration\");\r\n        _;\r\n    }\r\n\r\n    modifier paidEnoughToTransfer() {\r\n        uint minTransferFee = getMinTransferFee();\r\n        require(msg.value < minTransferFee, \"Not enough Eth was sent to cover a transfer\");\r\n        _;\r\n    }    \r\n\r\n    modifier isARegisteredManufacturer(bytes32 _name) {\r\n        require (\r\n            IVehicleManufacturerRegistry(vehicleManufacturerRegistryAddress).isRegistered(_name),\r\n            \"The manufacturer must be registered to invoke this function\");\r\n        _;\r\n    }\r\n\r\n    modifier manufacturerMustBeEnabled(bytes32 _name) {\r\n        require (\r\n            IVehicleManufacturerRegistry(vehicleManufacturerRegistryAddress).isEnabled(_name),\r\n            \"The manufacturer must be enabled to invoke this function\");\r\n        _;\r\n    }    \r\n  \r\n    //external methods\r\n\r\n//view\r\n    function isRegistered(bytes32 _VIN) \r\n        external view \r\n        validVin(_VIN)\r\n        returns(bool) {\r\n        return privateIsRegistered(_VIN);\r\n    }\r\n\r\n    function getVehicleManufacturerName(bytes32 _VIN) external view validVin(_VIN) registered(_VIN) returns (bytes32 manufacturerName) {\r\n        return VehicleRegistryStorage.getManufacturerName(vehicleRegistryStorageAddress, _VIN);\r\n    }\r\n\r\n    function getVehicleLicencePlate(bytes32 _VIN) external view validVin(_VIN) registered(_VIN) returns (bytes32 licencePlate) {\r\n        return VehicleRegistryStorage.getLicencePlate(vehicleRegistryStorageAddress, _VIN);\r\n    }\r\n\r\n    function getVehicleOwner(bytes32 _VIN) external view validVin(_VIN) registered(_VIN) returns (address owner) {\r\n        return VehicleRegistryStorage.getOwner(vehicleRegistryStorageAddress, _VIN);\r\n    }\r\n\r\n    function getVehicleServiceHistoryAddress(bytes32 _VIN) \r\n        external view \r\n        validVin(_VIN) registered(_VIN) \r\n        returns (address serviceHistoryAddress) {\r\n        return VehicleRegistryStorage.getServiceHistoryAddress(vehicleRegistryStorageAddress, _VIN);\r\n    }\r\n\r\n    function getVehicleRegisteredDate(bytes32 _VIN) external view validVin(_VIN) registered(_VIN) returns (uint256 registeredDate) {\r\n        return VehicleRegistryStorage.getRegistered(vehicleRegistryStorageAddress, _VIN);\r\n    }\r\n\r\n//state altering\r\n\r\n    /** @dev Registers a vehicle.\r\n      * @param _VIN the vehicle identification number.\r\n      * @param _licencePlate the licence / number plate of the vehicle.\r\n      * @param _manufacturerName - the unique id of the manufacturer\r\n      */\r\n    function register(bytes32 _VIN, bytes32 _licencePlate, bytes32 _manufacturerName) \r\n        external payable \r\n        whenNotPaused()\r\n        validVin(_VIN) \r\n        unregistered(_VIN) \r\n        paidEnoughToRegister()\r\n        isARegisteredManufacturer(_manufacturerName)\r\n        manufacturerMustBeEnabled(_manufacturerName)\r\n        {\r\n\r\n        VehicleRegistryStorage.storeVehicle(vehicleRegistryStorageAddress, _VIN, _manufacturerName, _licencePlate, msg.sender, 0, now);\r\n        VehicleRegistryStorage.setServiceHistoryAddress(vehicleRegistryStorageAddress, _VIN, 0);\r\n        //deploy new serviceHistoryAddress\r\n        //which contract - how do we know...?\r\n        //set contract address\r\n        //v.maintenanceContractAddress = newAddress;\r\n\r\n        emit Registered(_VIN);\r\n    }\r\n\r\n    function transferVehicleOwnership(bytes32 _VIN, address _newOwner, bytes32 _keyHash) \r\n        external payable \r\n        whenNotPaused()\r\n        validVin(_VIN) \r\n        registered(_VIN) \r\n        vehicleOwner(_VIN) \r\n        paidEnoughToTransfer()\r\n        {\r\n        address oldOwner = VehicleRegistryStorage.getOwner(vehicleRegistryStorageAddress, _VIN);\r\n        VehicleRegistryStorage.setPendingOwner(vehicleRegistryStorageAddress, _VIN, _newOwner);\r\n        VehicleRegistryStorage.setTransferKey(vehicleRegistryStorageAddress, _VIN, _keyHash);\r\n        emit VehicleOwnershipTransferRequest(_VIN, oldOwner, _newOwner);\r\n    }\r\n\r\n    function acceptVehicleOwnership(bytes32 _VIN, bytes32 _keyHash)\r\n        external payable\r\n        whenNotPaused()\r\n        validVin(_VIN)\r\n        registered(_VIN)\r\n        pendingVehicleOwner(_VIN)\r\n        transferKeyMatches(_VIN, _keyHash)\r\n        {\r\n        VehicleRegistryStorage.setOwner(vehicleRegistryStorageAddress, _VIN, msg.sender);\r\n        VehicleRegistryStorage.setPendingOwner(vehicleRegistryStorageAddress, _VIN, 0);\r\n        emit VehicleOwnershipTransferAccepted(_VIN, msg.sender);         \r\n    }\r\n\r\n    //allow contract to be upgraded\r\n    function setServiceHistoryAddress(bytes32 _VIN, address _serviceHistoryAddress) \r\n        external payable\r\n        whenNotPaused()\r\n        validVin(_VIN)\r\n        registered(_VIN)\r\n        vehicleOwner(_VIN)\r\n        addressIsContract(_serviceHistoryAddress)\r\n        {\r\n        address oldAddress = VehicleRegistryStorage.getServiceHistoryAddress(vehicleRegistryStorageAddress, _VIN);\r\n        require(oldAddress != _serviceHistoryAddress, \"The new address must be different to the old address\");\r\n        VehicleRegistryStorage.setServiceHistoryAddress(vehicleRegistryStorageAddress, _VIN, _serviceHistoryAddress);\r\n        emit VehicleServiceHistoryAddressChanged(_VIN, oldAddress, _serviceHistoryAddress);\r\n    }    \r\n\r\n//private functions\r\n\r\n    function privateIsUnRegistered(bytes32 _VIN) private view returns(bool) {\r\n        return !privateIsRegistered(_VIN);\r\n    }      \r\n\r\n    function privateIsRegistered(bytes32 _VIN) private view returns(bool)  {\r\n        return VehicleRegistryStorage.exists(vehicleRegistryStorageAddress, _VIN);\r\n    }    \r\n\r\n    function getMinRegistrationFee() private pure returns(uint) {\r\n        return 100;\r\n    }\r\n\r\n    function getMinTransferFee() private pure returns(uint) {\r\n        return 100;\r\n    }    \r\n \r\n}",
  "sourcePath": "C:\\dev\\repos\\VehicleMaintenanceRegistry\\src\\VMR\\contracts\\VehicleRegistry.sol",
  "compiler": {
    "name": "solc",
    "version": "0.4.24+commit.e67f0147.Emscripten.clang"
  },
  "schemaVersion": "2.0.1",
  "updatedAt": "2018-07-06T16:01:22.308Z"
}