{
  "contractName": "VehicleManufacturerStorage",
  "abi": [
    {
      "constant": false,
      "inputs": [
        {
          "name": "_storageAccount",
          "type": "address"
        },
        {
          "name": "_name",
          "type": "bytes32"
        },
        {
          "name": "_owner",
          "type": "address"
        },
        {
          "name": "_enabled",
          "type": "bool"
        }
      ],
      "name": "storeManufacturer",
      "outputs": [],
      "payable": false,
      "stateMutability": "nonpayable",
      "type": "function"
    },
    {
      "constant": true,
      "inputs": [
        {
          "name": "_storageAccount",
          "type": "address"
        },
        {
          "name": "_name",
          "type": "bytes32"
        }
      ],
      "name": "getName",
      "outputs": [
        {
          "name": "",
          "type": "bytes32"
        }
      ],
      "payable": false,
      "stateMutability": "view",
      "type": "function"
    },
    {
      "constant": true,
      "inputs": [
        {
          "name": "_storageAccount",
          "type": "address"
        },
        {
          "name": "_name",
          "type": "bytes32"
        }
      ],
      "name": "getOwner",
      "outputs": [
        {
          "name": "",
          "type": "address"
        }
      ],
      "payable": false,
      "stateMutability": "view",
      "type": "function"
    },
    {
      "constant": true,
      "inputs": [
        {
          "name": "_storageAccount",
          "type": "address"
        },
        {
          "name": "_name",
          "type": "bytes32"
        }
      ],
      "name": "getEnabled",
      "outputs": [
        {
          "name": "",
          "type": "bool"
        }
      ],
      "payable": false,
      "stateMutability": "view",
      "type": "function"
    },
    {
      "constant": true,
      "inputs": [
        {
          "name": "_storageAccount",
          "type": "address"
        },
        {
          "name": "_name",
          "type": "bytes32"
        }
      ],
      "name": "exists",
      "outputs": [
        {
          "name": "",
          "type": "bool"
        }
      ],
      "payable": false,
      "stateMutability": "view",
      "type": "function"
    },
    {
      "constant": true,
      "inputs": [
        {
          "name": "_storageAccount",
          "type": "address"
        },
        {
          "name": "_name",
          "type": "bytes32"
        }
      ],
      "name": "getTransferKey",
      "outputs": [
        {
          "name": "",
          "type": "bytes32"
        }
      ],
      "payable": false,
      "stateMutability": "view",
      "type": "function"
    },
    {
      "constant": true,
      "inputs": [
        {
          "name": "_storageAccount",
          "type": "address"
        },
        {
          "name": "_name",
          "type": "bytes32"
        }
      ],
      "name": "getPendingOwner",
      "outputs": [
        {
          "name": "",
          "type": "address"
        }
      ],
      "payable": false,
      "stateMutability": "view",
      "type": "function"
    },
    {
      "constant": false,
      "inputs": [
        {
          "name": "_storageAccount",
          "type": "address"
        },
        {
          "name": "_name",
          "type": "bytes32"
        }
      ],
      "name": "setName",
      "outputs": [],
      "payable": false,
      "stateMutability": "nonpayable",
      "type": "function"
    },
    {
      "constant": false,
      "inputs": [
        {
          "name": "_storageAccount",
          "type": "address"
        },
        {
          "name": "_name",
          "type": "bytes32"
        },
        {
          "name": "_owner",
          "type": "address"
        }
      ],
      "name": "setOwner",
      "outputs": [],
      "payable": false,
      "stateMutability": "nonpayable",
      "type": "function"
    },
    {
      "constant": false,
      "inputs": [
        {
          "name": "_storageAccount",
          "type": "address"
        },
        {
          "name": "_name",
          "type": "bytes32"
        },
        {
          "name": "_enabled",
          "type": "bool"
        }
      ],
      "name": "setEnabled",
      "outputs": [],
      "payable": false,
      "stateMutability": "nonpayable",
      "type": "function"
    },
    {
      "constant": false,
      "inputs": [
        {
          "name": "_storageAccount",
          "type": "address"
        },
        {
          "name": "_name",
          "type": "bytes32"
        },
        {
          "name": "_pendingOwner",
          "type": "address"
        }
      ],
      "name": "setPendingOwner",
      "outputs": [],
      "payable": false,
      "stateMutability": "nonpayable",
      "type": "function"
    },
    {
      "constant": false,
      "inputs": [
        {
          "name": "_storageAccount",
          "type": "address"
        },
        {
          "name": "_name",
          "type": "bytes32"
        },
        {
          "name": "_keyHash",
          "type": "bytes32"
        }
      ],
      "name": "setTransferKey",
      "outputs": [],
      "payable": false,
      "stateMutability": "nonpayable",
      "type": "function"
    }
  ],
  "bytecode": "0x6115a6610030600b82828239805160001a6073146000811461002057610022565bfe5b5030600052607381538281f30073000000000000000000000000000000000000000030146080604052600436106100d1576000357c0100000000000000000000000000000000000000000000000000000000900463ffffffff1680630f1ed0c6146100d657806335fe620f14610147578063451205111461019857806369c5b2b8146101f45780638b8fa92f146102785780639f7d4a2f146102e9578063b8754dd114610349578063bb544060146103a6578063bc741bed1461042a578063c935d73714610486578063cbb19ac0146104e6578063d93b8c1414610563575b600080fd5b8180156100e257600080fd5b50610145600480360381019080803573ffffffffffffffffffffffffffffffffffffffff1690602001909291908035600019169060200190929190803573ffffffffffffffffffffffffffffffffffffffff1690602001909291905050506105c2565b005b81801561015357600080fd5b50610196600480360381019080803573ffffffffffffffffffffffffffffffffffffffff169060200190929190803560001916906020019092919050505061073b565b005b6101da600480360381019080803573ffffffffffffffffffffffffffffffffffffffff169060200190929190803560001916906020019092919050505061088f565b604051808215151515815260200191505060405180910390f35b610236600480360381019080803573ffffffffffffffffffffffffffffffffffffffff1690602001909291908035600019169060200190929190505050610a14565b604051808273ffffffffffffffffffffffffffffffffffffffff1673ffffffffffffffffffffffffffffffffffffffff16815260200191505060405180910390f35b81801561028457600080fd5b506102e7600480360381019080803573ffffffffffffffffffffffffffffffffffffffff1690602001909291908035600019169060200190929190803573ffffffffffffffffffffffffffffffffffffffff169060200190929190505050610b81565b005b61032b600480360381019080803573ffffffffffffffffffffffffffffffffffffffff1690602001909291908035600019169060200190929190505050610cfa565b60405180826000191660001916815260200191505060405180910390f35b81801561035557600080fd5b506103a4600480360381019080803573ffffffffffffffffffffffffffffffffffffffff1690602001909291908035600019169060200190929190803515159060200190929190505050610e67565b005b6103e8600480360381019080803573ffffffffffffffffffffffffffffffffffffffff1690602001909291908035600019169060200190929190505050610fb8565b604051808273ffffffffffffffffffffffffffffffffffffffff1673ffffffffffffffffffffffffffffffffffffffff16815260200191505060405180910390f35b61046c600480360381019080803573ffffffffffffffffffffffffffffffffffffffff1690602001909291908035600019169060200190929190505050611125565b604051808215151515815260200191505060405180910390f35b6104c8600480360381019080803573ffffffffffffffffffffffffffffffffffffffff1690602001909291908035600019169060200190929190505050611292565b60405180826000191660001916815260200191505060405180910390f35b8180156104f257600080fd5b50610561600480360381019080803573ffffffffffffffffffffffffffffffffffffffff1690602001909291908035600019169060200190929190803573ffffffffffffffffffffffffffffffffffffffff1690602001909291908035151590602001909291905050506113ff565b005b81801561056f57600080fd5b506105c0600480360381019080803573ffffffffffffffffffffffffffffffffffffffff16906020019092919080356000191690602001909291908035600019169060200190929190505050611425565b005b8273ffffffffffffffffffffffffffffffffffffffff16635a2bf25a83604051602001808260001916600019168152602001807f6f776e65720000000000000000000000000000000000000000000000000000008152506005019150506040516020818303038152906040526040518082805190602001908083835b602083101515610663578051825260208201915060208101905060208303925061063e565b6001836020036101000a0380198251168184511680821785525050505050509050019150506040518091039020836040518363ffffffff167c01000000000000000000000000000000000000000000000000000000000281526004018083600019166000191681526020018273ffffffffffffffffffffffffffffffffffffffff1673ffffffffffffffffffffffffffffffffffffffff16815260200192505050600060405180830381600087803b15801561071e57600080fd5b505af1158015610732573d6000803e3d6000fd5b50505050505050565b8173ffffffffffffffffffffffffffffffffffffffff166325cf512d82604051602001808260001916600019168152602001807f6e616d65000000000000000000000000000000000000000000000000000000008152506004019150506040516020818303038152906040526040518082805190602001908083835b6020831015156107dc57805182526020820191506020810190506020830392506107b7565b6001836020036101000a0380198251168184511680821785525050505050509050019150506040518091039020836040518363ffffffff167c0100000000000000000000000000000000000000000000000000000000028152600401808360001916600019168152602001826000191660001916815260200192505050600060405180830381600087803b15801561087357600080fd5b505af1158015610887573d6000803e3d6000fd5b505050505050565b6000808373ffffffffffffffffffffffffffffffffffffffff16634c77e5ba84604051602001808260001916600019168152602001807f6f776e65720000000000000000000000000000000000000000000000000000008152506005019150506040516020818303038152906040526040518082805190602001908083835b602083101515610933578051825260208201915060208101905060208303925061090e565b6001836020036101000a03801982511681845116808217855250505050505090500191505060405180910390206040518263ffffffff167c0100000000000000000000000000000000000000000000000000000000028152600401808260001916600019168152602001915050602060405180830381600087803b1580156109ba57600080fd5b505af11580156109ce573d6000803e3d6000fd5b505050506040513d60208110156109e457600080fd5b810190808051906020019092919050505073ffffffffffffffffffffffffffffffffffffffff1611905092915050565b60008273ffffffffffffffffffffffffffffffffffffffff16634c77e5ba83604051602001808260001916600019168152602001807f6f776e65720000000000000000000000000000000000000000000000000000008152506005019150506040516020818303038152906040526040518082805190602001908083835b602083101515610ab75780518252602082019150602081019050602083039250610a92565b6001836020036101000a03801982511681845116808217855250505050505090500191505060405180910390206040518263ffffffff167c0100000000000000000000000000000000000000000000000000000000028152600401808260001916600019168152602001915050602060405180830381600087803b158015610b3e57600080fd5b505af1158015610b52573d6000803e3d6000fd5b505050506040513d6020811015610b6857600080fd5b8101908080519060200190929190505050905092915050565b8273ffffffffffffffffffffffffffffffffffffffff16635a2bf25a83604051602001808260001916600019168152602001807f70656e64696e674f776e65720000000000000000000000000000000000000000815250600c019150506040516020818303038152906040526040518082805190602001908083835b602083101515610c225780518252602082019150602081019050602083039250610bfd565b6001836020036101000a0380198251168184511680821785525050505050509050019150506040518091039020836040518363ffffffff167c01000000000000000000000000000000000000000000000000000000000281526004018083600019166000191681526020018273ffffffffffffffffffffffffffffffffffffffff1673ffffffffffffffffffffffffffffffffffffffff16815260200192505050600060405180830381600087803b158015610cdd57600080fd5b505af1158015610cf1573d6000803e3d6000fd5b50505050505050565b60008273ffffffffffffffffffffffffffffffffffffffff1663025ec81a83604051602001808260001916600019168152602001807f7472616e736665724b6579000000000000000000000000000000000000000000815250600b019150506040516020818303038152906040526040518082805190602001908083835b602083101515610d9d5780518252602082019150602081019050602083039250610d78565b6001836020036101000a03801982511681845116808217855250505050505090500191505060405180910390206040518263ffffffff167c0100000000000000000000000000000000000000000000000000000000028152600401808260001916600019168152602001915050602060405180830381600087803b158015610e2457600080fd5b505af1158015610e38573d6000803e3d6000fd5b505050506040513d6020811015610e4e57600080fd5b8101908080519060200190929190505050905092915050565b8273ffffffffffffffffffffffffffffffffffffffff16633eba9ed283604051602001808260001916600019168152602001807f656e61626c6564000000000000000000000000000000000000000000000000008152506007019150506040516020818303038152906040526040518082805190602001908083835b602083101515610f085780518252602082019150602081019050602083039250610ee3565b6001836020036101000a0380198251168184511680821785525050505050509050019150506040518091039020836040518363ffffffff167c01000000000000000000000000000000000000000000000000000000000281526004018083600019166000191681526020018215151515815260200192505050600060405180830381600087803b158015610f9b57600080fd5b505af1158015610faf573d6000803e3d6000fd5b50505050505050565b60008273ffffffffffffffffffffffffffffffffffffffff16634c77e5ba83604051602001808260001916600019168152602001807f70656e64696e674f776e65720000000000000000000000000000000000000000815250600c019150506040516020818303038152906040526040518082805190602001908083835b60208310151561105b5780518252602082019150602081019050602083039250611036565b6001836020036101000a03801982511681845116808217855250505050505090500191505060405180910390206040518263ffffffff167c0100000000000000000000000000000000000000000000000000000000028152600401808260001916600019168152602001915050602060405180830381600087803b1580156110e257600080fd5b505af11580156110f6573d6000803e3d6000fd5b505050506040513d602081101561110c57600080fd5b8101908080519060200190929190505050905092915050565b60008273ffffffffffffffffffffffffffffffffffffffff166317e7dd2283604051602001808260001916600019168152602001807f656e61626c6564000000000000000000000000000000000000000000000000008152506007019150506040516020818303038152906040526040518082805190602001908083835b6020831015156111c857805182526020820191506020810190506020830392506111a3565b6001836020036101000a03801982511681845116808217855250505050505090500191505060405180910390206040518263ffffffff167c0100000000000000000000000000000000000000000000000000000000028152600401808260001916600019168152602001915050602060405180830381600087803b15801561124f57600080fd5b505af1158015611263573d6000803e3d6000fd5b505050506040513d602081101561127957600080fd5b8101908080519060200190929190505050905092915050565b60008273ffffffffffffffffffffffffffffffffffffffff1663025ec81a83604051602001808260001916600019168152602001807f6e616d65000000000000000000000000000000000000000000000000000000008152506004019150506040516020818303038152906040526040518082805190602001908083835b6020831015156113355780518252602082019150602081019050602083039250611310565b6001836020036101000a03801982511681845116808217855250505050505090500191505060405180910390206040518263ffffffff167c0100000000000000000000000000000000000000000000000000000000028152600401808260001916600019168152602001915050602060405180830381600087803b1580156113bc57600080fd5b505af11580156113d0573d6000803e3d6000fd5b505050506040513d60208110156113e657600080fd5b8101908080519060200190929190505050905092915050565b611409848461073b565b6114148484846105c2565b61141f848483610e67565b50505050565b8273ffffffffffffffffffffffffffffffffffffffff166325cf512d83604051602001808260001916600019168152602001807f7472616e736665724b6579000000000000000000000000000000000000000000815250600b019150506040516020818303038152906040526040518082805190602001908083835b6020831015156114c657805182526020820191506020810190506020830392506114a1565b6001836020036101000a0380198251168184511680821785525050505050509050019150506040518091039020836040518363ffffffff167c0100000000000000000000000000000000000000000000000000000000028152600401808360001916600019168152602001826000191660001916815260200192505050600060405180830381600087803b15801561155d57600080fd5b505af1158015611571573d6000803e3d6000fd5b505050505050505600a165627a7a723058206e2f6206778c7285e73696d76a41650bcacb21c659f83f6359b3e64e60f5e6970029",
  "source": "pragma solidity ^0.4.23;\r\n\r\nimport \"./EternalStorage.sol\";\r\n\r\nlibrary VehicleManufacturerStorage {\r\n\r\n    function storeManufacturer (\r\n        address _storageAccount, \r\n        bytes32 _name,\r\n        address _owner, \r\n        bool _enabled) \r\n        public {\r\n\r\n        setName(_storageAccount, _name);\r\n        setOwner(_storageAccount, _name, _owner);\r\n        setEnabled(_storageAccount, _name, _enabled);\r\n    }\r\n\r\n    function getName(address _storageAccount, bytes32 _name) public view returns(bytes32) {\r\n\r\n        return EternalStorage(_storageAccount).getBytes32Value(keccak256(abi.encodePacked(_name, \"name\")));\r\n    }\r\n\r\n    function getOwner(address _storageAccount, bytes32 _name) public view returns(address) {\r\n\r\n        return EternalStorage(_storageAccount).getAddressValue(keccak256(abi.encodePacked(_name, \"owner\")));\r\n    } \r\n\r\n    function getEnabled(address _storageAccount, bytes32 _name) public view returns(bool) {\r\n\r\n        return EternalStorage(_storageAccount).getBooleanValue(keccak256(abi.encodePacked(_name, \"enabled\")));\r\n    }           \r\n\r\n    function exists(address _storageAccount, bytes32 _name) public view returns(bool) {\r\n        return EternalStorage(_storageAccount).getAddressValue(keccak256(abi.encodePacked(_name, \"owner\"))) > 0;\r\n    } \r\n\r\n      \r\n    function getTransferKey(address _storageAccount, bytes32 _name) public view returns(bytes32) {\r\n        return EternalStorage(_storageAccount).getBytes32Value(keccak256(abi.encodePacked(_name, \"transferKey\")));\r\n    }    \r\n\r\n    function getPendingOwner(address _storageAccount, bytes32 _name) public view returns(address) {\r\n        return EternalStorage(_storageAccount).getAddressValue(keccak256(abi.encodePacked(_name, \"pendingOwner\")));\r\n    } \r\n\r\n    function setName(address _storageAccount, bytes32 _name) public {\r\n        return EternalStorage(_storageAccount).setBytes32Value(keccak256(abi.encodePacked(_name, \"name\")), _name);\r\n    }    \r\n\r\n    function setOwner(address _storageAccount, bytes32 _name, address _owner) public {\r\n        return EternalStorage(_storageAccount).setAddressValue(keccak256(abi.encodePacked(_name, \"owner\")), _owner);\r\n    } \r\n\r\n    function setEnabled(address _storageAccount, bytes32 _name, bool _enabled) public {\r\n        return EternalStorage(_storageAccount).setBooleanValue(keccak256(abi.encodePacked(_name, \"enabled\")), _enabled);\r\n    }          \r\n\r\n    function setPendingOwner(address _storageAccount, bytes32 _name, address _pendingOwner) public {\r\n        return EternalStorage(_storageAccount).setAddressValue(keccak256(abi.encodePacked(_name, \"pendingOwner\")), _pendingOwner);\r\n    }   \r\n\r\n    function setTransferKey(address _storageAccount, bytes32 _name, bytes32 _keyHash) public {\r\n        return EternalStorage(_storageAccount).setBytes32Value(keccak256(abi.encodePacked(_name, \"transferKey\")), _keyHash);\r\n    }    \r\n\r\n}",
  "sourcePath": "C:\\dev\\repos\\VehicleMaintenanceRegistry\\src\\vmr\\contracts\\VehicleManufacturerStorage.sol",
  "compiler": {
    "name": "solc",
    "version": "0.4.24+commit.e67f0147.Emscripten.clang"
  },
  "schemaVersion": "2.0.1",
  "updatedAt": "2018-07-09T16:03:14.600Z"
}