{
  "contractName": "VehicleRegistry",
  "abi": [
    {
      "constant": true,
      "inputs": [
        {
          "name": "_memberId",
          "type": "bytes32"
        }
      ],
      "name": "getMemberNumber",
      "outputs": [
        {
          "name": "",
          "type": "uint256"
        }
      ],
      "payable": false,
      "stateMutability": "view",
      "type": "function"
    },
    {
      "constant": false,
      "inputs": [
        {
          "name": "_memberNumber",
          "type": "uint256"
        },
        {
          "name": "_attributeNumber",
          "type": "uint256"
        },
        {
          "name": "_attributeType",
          "type": "bytes32"
        },
        {
          "name": "_attributeValue",
          "type": "bytes32"
        }
      ],
      "name": "setMemberAttribute",
      "outputs": [],
      "payable": true,
      "stateMutability": "payable",
      "type": "function"
    },
    {
      "constant": true,
      "inputs": [
        {
          "name": "_memberNumber",
          "type": "uint256"
        },
        {
          "name": "_attributeNumber",
          "type": "uint256"
        }
      ],
      "name": "getMemberAttribute",
      "outputs": [
        {
          "name": "attributeNumber",
          "type": "uint256"
        },
        {
          "name": "attributeName",
          "type": "bytes32"
        },
        {
          "name": "attributeType",
          "type": "bytes32"
        },
        {
          "name": "attributeValue",
          "type": "bytes32"
        }
      ],
      "payable": false,
      "stateMutability": "view",
      "type": "function"
    },
    {
      "constant": false,
      "inputs": [],
      "name": "unpause",
      "outputs": [],
      "payable": false,
      "stateMutability": "nonpayable",
      "type": "function"
    },
    {
      "constant": true,
      "inputs": [],
      "name": "getMemberTotalCount",
      "outputs": [
        {
          "name": "",
          "type": "uint256"
        }
      ],
      "payable": false,
      "stateMutability": "view",
      "type": "function"
    },
    {
      "constant": false,
      "inputs": [
        {
          "name": "_memberNumber",
          "type": "uint256"
        },
        {
          "name": "_keyHash",
          "type": "bytes32"
        }
      ],
      "name": "acceptMemberOwnership",
      "outputs": [],
      "payable": true,
      "stateMutability": "payable",
      "type": "function"
    },
    {
      "constant": true,
      "inputs": [
        {
          "name": "_memberId",
          "type": "bytes32"
        }
      ],
      "name": "getMemberOwner",
      "outputs": [
        {
          "name": "",
          "type": "address"
        }
      ],
      "payable": false,
      "stateMutability": "view",
      "type": "function"
    },
    {
      "constant": false,
      "inputs": [
        {
          "name": "_memberNumber",
          "type": "uint256"
        }
      ],
      "name": "enableMember",
      "outputs": [],
      "payable": true,
      "stateMutability": "payable",
      "type": "function"
    },
    {
      "constant": false,
      "inputs": [],
      "name": "claimOwnership",
      "outputs": [],
      "payable": false,
      "stateMutability": "nonpayable",
      "type": "function"
    },
    {
      "constant": true,
      "inputs": [],
      "name": "feeLookupAddress",
      "outputs": [
        {
          "name": "",
          "type": "address"
        }
      ],
      "payable": false,
      "stateMutability": "view",
      "type": "function"
    },
    {
      "constant": true,
      "inputs": [],
      "name": "paused",
      "outputs": [
        {
          "name": "",
          "type": "bool"
        }
      ],
      "payable": false,
      "stateMutability": "view",
      "type": "function"
    },
    {
      "constant": false,
      "inputs": [],
      "name": "renounceOwnership",
      "outputs": [],
      "payable": false,
      "stateMutability": "nonpayable",
      "type": "function"
    },
    {
      "constant": false,
      "inputs": [
        {
          "name": "_memberNumber",
          "type": "uint256"
        },
        {
          "name": "_attributeName",
          "type": "bytes32"
        },
        {
          "name": "_attributeType",
          "type": "bytes32"
        },
        {
          "name": "_attributeValue",
          "type": "bytes32"
        }
      ],
      "name": "addMemberAttribute",
      "outputs": [
        {
          "name": "",
          "type": "uint256"
        }
      ],
      "payable": true,
      "stateMutability": "payable",
      "type": "function"
    },
    {
      "constant": false,
      "inputs": [],
      "name": "pause",
      "outputs": [],
      "payable": false,
      "stateMutability": "nonpayable",
      "type": "function"
    },
    {
      "constant": true,
      "inputs": [],
      "name": "storageAddress",
      "outputs": [
        {
          "name": "",
          "type": "address"
        }
      ],
      "payable": false,
      "stateMutability": "view",
      "type": "function"
    },
    {
      "constant": true,
      "inputs": [],
      "name": "owner",
      "outputs": [
        {
          "name": "",
          "type": "address"
        }
      ],
      "payable": false,
      "stateMutability": "view",
      "type": "function"
    },
    {
      "constant": true,
      "inputs": [
        {
          "name": "_memberNumber",
          "type": "uint256"
        }
      ],
      "name": "isMemberRegistered",
      "outputs": [
        {
          "name": "",
          "type": "bool"
        }
      ],
      "payable": false,
      "stateMutability": "view",
      "type": "function"
    },
    {
      "constant": true,
      "inputs": [
        {
          "name": "_memberNumber",
          "type": "uint256"
        }
      ],
      "name": "getMember",
      "outputs": [
        {
          "name": "memberNumber",
          "type": "uint256"
        },
        {
          "name": "memberId",
          "type": "bytes32"
        },
        {
          "name": "owner",
          "type": "address"
        },
        {
          "name": "enabled",
          "type": "bool"
        }
      ],
      "payable": false,
      "stateMutability": "view",
      "type": "function"
    },
    {
      "constant": false,
      "inputs": [
        {
          "name": "_memberNumber",
          "type": "uint256"
        },
        {
          "name": "_newOwner",
          "type": "address"
        },
        {
          "name": "_keyHash",
          "type": "bytes32"
        }
      ],
      "name": "transferMemberOwnership",
      "outputs": [],
      "payable": true,
      "stateMutability": "payable",
      "type": "function"
    },
    {
      "constant": true,
      "inputs": [
        {
          "name": "_memberNumber",
          "type": "uint256"
        },
        {
          "name": "_attributeName",
          "type": "bytes32"
        }
      ],
      "name": "getMemberAttributeNumber",
      "outputs": [
        {
          "name": "",
          "type": "uint256"
        }
      ],
      "payable": false,
      "stateMutability": "view",
      "type": "function"
    },
    {
      "constant": false,
      "inputs": [
        {
          "name": "_memberNumber",
          "type": "uint256"
        }
      ],
      "name": "disableMember",
      "outputs": [],
      "payable": true,
      "stateMutability": "payable",
      "type": "function"
    },
    {
      "constant": true,
      "inputs": [
        {
          "name": "_memberId",
          "type": "bytes32"
        }
      ],
      "name": "isMemberRegisteredAndEnabled",
      "outputs": [
        {
          "name": "",
          "type": "bool"
        }
      ],
      "payable": false,
      "stateMutability": "view",
      "type": "function"
    },
    {
      "constant": true,
      "inputs": [
        {
          "name": "_address",
          "type": "address"
        }
      ],
      "name": "isAllowedToRegisterMember",
      "outputs": [
        {
          "name": "",
          "type": "bool"
        }
      ],
      "payable": false,
      "stateMutability": "view",
      "type": "function"
    },
    {
      "constant": false,
      "inputs": [
        {
          "name": "tokens",
          "type": "address[]"
        }
      ],
      "name": "destroy",
      "outputs": [],
      "payable": false,
      "stateMutability": "nonpayable",
      "type": "function"
    },
    {
      "constant": false,
      "inputs": [
        {
          "name": "_feeLookupAddress",
          "type": "address"
        }
      ],
      "name": "setFeeLookupAddress",
      "outputs": [],
      "payable": false,
      "stateMutability": "nonpayable",
      "type": "function"
    },
    {
      "constant": true,
      "inputs": [
        {
          "name": "_memberNumber",
          "type": "uint256"
        }
      ],
      "name": "getMemberAttributeTotalCount",
      "outputs": [
        {
          "name": "",
          "type": "uint256"
        }
      ],
      "payable": false,
      "stateMutability": "view",
      "type": "function"
    },
    {
      "constant": true,
      "inputs": [],
      "name": "pendingOwner",
      "outputs": [
        {
          "name": "",
          "type": "address"
        }
      ],
      "payable": false,
      "stateMutability": "view",
      "type": "function"
    },
    {
      "constant": false,
      "inputs": [
        {
          "name": "newOwner",
          "type": "address"
        }
      ],
      "name": "transferOwnership",
      "outputs": [],
      "payable": false,
      "stateMutability": "nonpayable",
      "type": "function"
    },
    {
      "inputs": [
        {
          "name": "_storageAddress",
          "type": "address"
        },
        {
          "name": "_feeLookupAddres",
          "type": "address"
        },
        {
          "name": "_manufacturerRegistryStorageAddress",
          "type": "address"
        }
      ],
      "payable": false,
      "stateMutability": "nonpayable",
      "type": "constructor"
    },
    {
      "anonymous": false,
      "inputs": [
        {
          "indexed": false,
          "name": "message",
          "type": "string"
        }
      ],
      "name": "LogInfo",
      "type": "event"
    },
    {
      "anonymous": false,
      "inputs": [
        {
          "indexed": true,
          "name": "memberNumber",
          "type": "uint256"
        },
        {
          "indexed": true,
          "name": "memberId",
          "type": "bytes32"
        }
      ],
      "name": "MemberRegistered",
      "type": "event"
    },
    {
      "anonymous": false,
      "inputs": [
        {
          "indexed": true,
          "name": "memberNumber",
          "type": "uint256"
        }
      ],
      "name": "MemberEnabled",
      "type": "event"
    },
    {
      "anonymous": false,
      "inputs": [
        {
          "indexed": true,
          "name": "memberNumber",
          "type": "uint256"
        }
      ],
      "name": "MemberDisabled",
      "type": "event"
    },
    {
      "anonymous": false,
      "inputs": [
        {
          "indexed": true,
          "name": "memberNumber",
          "type": "uint256"
        },
        {
          "indexed": true,
          "name": "from",
          "type": "address"
        },
        {
          "indexed": true,
          "name": "to",
          "type": "address"
        }
      ],
      "name": "MemberOwnershipTransferRequest",
      "type": "event"
    },
    {
      "anonymous": false,
      "inputs": [
        {
          "indexed": true,
          "name": "memberNumber",
          "type": "uint256"
        },
        {
          "indexed": true,
          "name": "newOwner",
          "type": "address"
        }
      ],
      "name": "MemberOwnershipTransferAccepted",
      "type": "event"
    },
    {
      "anonymous": false,
      "inputs": [
        {
          "indexed": true,
          "name": "memberNumber",
          "type": "uint256"
        },
        {
          "indexed": true,
          "name": "attributeNumber",
          "type": "uint256"
        },
        {
          "indexed": true,
          "name": "attributeName",
          "type": "bytes32"
        },
        {
          "indexed": false,
          "name": "attributeType",
          "type": "bytes32"
        },
        {
          "indexed": false,
          "name": "attributeValue",
          "type": "bytes32"
        }
      ],
      "name": "MemberAttributeChanged",
      "type": "event"
    },
    {
      "anonymous": false,
      "inputs": [],
      "name": "Pause",
      "type": "event"
    },
    {
      "anonymous": false,
      "inputs": [],
      "name": "Unpause",
      "type": "event"
    },
    {
      "anonymous": false,
      "inputs": [
        {
          "indexed": true,
          "name": "previousOwner",
          "type": "address"
        }
      ],
      "name": "OwnershipRenounced",
      "type": "event"
    },
    {
      "anonymous": false,
      "inputs": [
        {
          "indexed": true,
          "name": "previousOwner",
          "type": "address"
        },
        {
          "indexed": true,
          "name": "newOwner",
          "type": "address"
        }
      ],
      "name": "OwnershipTransferred",
      "type": "event"
    },
    {
      "constant": false,
      "inputs": [
        {
          "name": "",
          "type": "bytes32"
        }
      ],
      "name": "registerMember",
      "outputs": [
        {
          "name": "",
          "type": "uint256"
        }
      ],
      "payable": true,
      "stateMutability": "payable",
      "type": "function"
    },
    {
      "constant": false,
      "inputs": [
        {
          "name": "_memberId",
          "type": "bytes32"
        },
        {
          "name": "_manufacturerId",
          "type": "bytes32"
        }
      ],
      "name": "registerVehicle",
      "outputs": [
        {
          "name": "",
          "type": "uint256"
        }
      ],
      "payable": true,
      "stateMutability": "payable",
      "type": "function"
    }
  ],
  "bytecode": "0x60806040526000600160146101000a81548160ff02191690831515021790555034801561002b57600080fd5b5060405160608062005b4a8339810180604052810190808051906020019092919080519060200190929190805190602001909291905050508282336000806101000a81548173ffffffffffffffffffffffffffffffffffffffff021916908373ffffffffffffffffffffffffffffffffffffffff16021790555081600260006101000a81548173ffffffffffffffffffffffffffffffffffffffff021916908373ffffffffffffffffffffffffffffffffffffffff16021790555080600360006101000a81548173ffffffffffffffffffffffffffffffffffffffff021916908373ffffffffffffffffffffffffffffffffffffffff160217905550505080600460006101000a81548173ffffffffffffffffffffffffffffffffffffffff021916908373ffffffffffffffffffffffffffffffffffffffff1602179055505050506159cd806200017d6000396000f300608060405260043610610180576000357c0100000000000000000000000000000000000000000000000000000000900463ffffffff16806314ef55b91461018557806324ce2195146101ca5780632a9cbbed146102105780633f4ba83a1461028857806346dbf2541461029f57806347bd3489146102ca5780634b3cb584146102f85780634bd3dbb9146103695780634e71e0c81461038957806358c34074146103a05780635c975abb146103f757806369c6fbfb14610426578063715018a61461046c5780637aaca2f8146104835780638456cb59146104e157806385aa92a7146104f85780638da5cb5b1461054f578063a79e6533146105a6578063ab3545e5146105eb578063ad1c5a7a14610679578063b44691d6146106c7578063b8f5138e14610716578063c02b499114610736578063c65a9d301461077f578063c6786e5a146107da578063ca4967d514610840578063de71e19a14610883578063e30c3978146108c4578063f2fde38b1461091b578063fd8785c91461095e575b600080fd5b34801561019157600080fd5b506101b46004803603810190808035600019169060200190929190505050610996565b6040518082815260200191505060405180910390f35b61020e600480360381019080803590602001909291908035906020019092919080356000191690602001909291908035600019169060200190929190505050610b22565b005b34801561021c57600080fd5b5061024560048036038101908080359060200190929190803590602001909291905050506111ce565b6040518085815260200184600019166000191681526020018360001916600019168152602001826000191660001916815260200194505050505060405180910390f35b34801561029457600080fd5b5061029d6117e0565b005b3480156102ab57600080fd5b506102b461189f565b6040518082815260200191505060405180910390f35b6102f660048036038101908080359060200190929190803560001916906020019092919050505061199a565b005b34801561030457600080fd5b506103276004803603810190808035600019169060200190929190505050611fed565b604051808273ffffffffffffffffffffffffffffffffffffffff1673ffffffffffffffffffffffffffffffffffffffff16815260200191505060405180910390f35b61038760048036038101908080359060200190929190505050612196565b005b34801561039557600080fd5b5061039e612608565b005b3480156103ac57600080fd5b506103b56127a7565b604051808273ffffffffffffffffffffffffffffffffffffffff1673ffffffffffffffffffffffffffffffffffffffff16815260200191505060405180910390f35b34801561040357600080fd5b5061040c6127cd565b604051808215151515815260200191505060405180910390f35b610456600480360381019080803560001916906020019092919080356000191690602001909291905050506127e0565b6040518082815260200191505060405180910390f35b34801561047857600080fd5b506104816131a4565b005b6104cb600480360381019080803590602001909291908035600019169060200190929190803560001916906020019092919080356000191690602001909291905050506132a6565b6040518082815260200191505060405180910390f35b3480156104ed57600080fd5b506104f66137cf565b005b34801561050457600080fd5b5061050d61388e565b604051808273ffffffffffffffffffffffffffffffffffffffff1673ffffffffffffffffffffffffffffffffffffffff16815260200191505060405180910390f35b34801561055b57600080fd5b506105646138b4565b604051808273ffffffffffffffffffffffffffffffffffffffff1673ffffffffffffffffffffffffffffffffffffffff16815260200191505060405180910390f35b3480156105b257600080fd5b506105d1600480360381019080803590602001909291905050506138d9565b604051808215151515815260200191505060405180910390f35b3480156105f757600080fd5b50610616600480360381019080803590602001909291905050506139de565b6040518085815260200184600019166000191681526020018373ffffffffffffffffffffffffffffffffffffffff1673ffffffffffffffffffffffffffffffffffffffff1681526020018215151515815260200194505050505060405180910390f35b6106c560048036038101908080359060200190929190803573ffffffffffffffffffffffffffffffffffffffff1690602001909291908035600019169060200190929190505050613b8d565b005b3480156106d357600080fd5b50610700600480360381019080803590602001909291908035600019169060200190929190505050614396565b6040518082815260200191505060405180910390f35b610734600480360381019080803590602001909291905050506147a5565b005b34801561074257600080fd5b506107656004803603810190808035600019169060200190929190505050614c16565b604051808215151515815260200191505060405180910390f35b34801561078b57600080fd5b506107c0600480360381019080803573ffffffffffffffffffffffffffffffffffffffff169060200190929190505050614c58565b604051808215151515815260200191505060405180910390f35b3480156107e657600080fd5b5061083e60048036038101908080359060200190820180359060200190808060200260200160405190810160405280939291908181526020018383602002808284378201915050505050509192919290505050614cb1565b005b34801561084c57600080fd5b50610881600480360381019080803573ffffffffffffffffffffffffffffffffffffffff169060200190929190505050614f58565b005b34801561088f57600080fd5b506108ae600480360381019080803590602001909291905050506150fe565b6040518082815260200191505060405180910390f35b3480156108d057600080fd5b506108d9615375565b604051808273ffffffffffffffffffffffffffffffffffffffff1673ffffffffffffffffffffffffffffffffffffffff16815260200191505060405180910390f35b34801561092757600080fd5b5061095c600480360381019080803573ffffffffffffffffffffffffffffffffffffffff16906020019092919050505061539b565b005b610980600480360381019080803560001916906020019092919050505061543a565b6040518082815260200191505060405180910390f35b60008173__RegistryStorageLib____________________63cc40ddc0600260009054906101000a900473ffffffffffffffffffffffffffffffffffffffff166109df84615506565b6040518363ffffffff167c0100000000000000000000000000000000000000000000000000000000028152600401808373ffffffffffffffffffffffffffffffffffffffff1673ffffffffffffffffffffffffffffffffffffffff1681526020018281526020019250505060206040518083038186803b158015610a6257600080fd5b505af4158015610a76573d6000803e3d6000fd5b505050506040513d6020811015610a8c57600080fd5b81019080805190602001909291905050501515610b11576040517f08c379a00000000000000000000000000000000000000000000000000000000081526004018080602001828103825260198152602001807f4d656d626572206d75737420626520726567697374657265640000000000000081525060200191505060405180910390fd5b610b1a83615506565b915050919050565b6000600160149054906101000a900460ff16151515610b4057600080fd5b6000809054906101000a900473ffffffffffffffffffffffffffffffffffffffff1673ffffffffffffffffffffffffffffffffffffffff163373ffffffffffffffffffffffffffffffffffffffff16141515610b9b57600080fd5b8473__RegistryStorageLib____________________63cc40ddc0600260009054906101000a900473ffffffffffffffffffffffffffffffffffffffff16836040518363ffffffff167c0100000000000000000000000000000000000000000000000000000000028152600401808373ffffffffffffffffffffffffffffffffffffffff1673ffffffffffffffffffffffffffffffffffffffff1681526020018281526020019250505060206040518083038186803b158015610c5d57600080fd5b505af4158015610c71573d6000803e3d6000fd5b505050506040513d6020811015610c8757600080fd5b81019080805190602001909291905050501515610d0c576040517f08c379a00000000000000000000000000000000000000000000000000000000081526004018080602001828103825260198152602001807f4d656d626572206d75737420626520726567697374657265640000000000000081525060200191505060405180910390fd5b858573__RegistryStorageLib____________________63775abae4600260009054906101000a900473ffffffffffffffffffffffffffffffffffffffff1684846040518463ffffffff167c0100000000000000000000000000000000000000000000000000000000028152600401808473ffffffffffffffffffffffffffffffffffffffff1673ffffffffffffffffffffffffffffffffffffffff168152602001838152602001828152602001935050505060206040518083038186803b158015610dd757600080fd5b505af4158015610deb573d6000803e3d6000fd5b505050506040513d6020811015610e0157600080fd5b81019080805190602001909291905050501515610e86576040517f08c379a000000000000000000000000000000000000000000000000000000000815260040180806020018281038252601b8152602001807f417474726962757465206e756d626572206d757374206578697374000000000081525060200191505060405180910390fd5b73__RegistryStorageLib____________________6345d16469600260009054906101000a900473ffffffffffffffffffffffffffffffffffffffff168a8a8a6040518563ffffffff167c0100000000000000000000000000000000000000000000000000000000028152600401808573ffffffffffffffffffffffffffffffffffffffff1673ffffffffffffffffffffffffffffffffffffffff168152602001848152602001838152602001826000191660001916815260200194505050505060006040518083038186803b158015610f5f57600080fd5b505af4158015610f73573d6000803e3d6000fd5b5050505073__RegistryStorageLib____________________63ea3f86cf600260009054906101000a900473ffffffffffffffffffffffffffffffffffffffff168a8a896040518563ffffffff167c0100000000000000000000000000000000000000000000000000000000028152600401808573ffffffffffffffffffffffffffffffffffffffff1673ffffffffffffffffffffffffffffffffffffffff168152602001848152602001838152602001826000191660001916815260200194505050505060006040518083038186803b15801561105057600080fd5b505af4158015611064573d6000803e3d6000fd5b5050505073__RegistryStorageLib____________________63afeef9b8600260009054906101000a900473ffffffffffffffffffffffffffffffffffffffff168a8a6040518463ffffffff167c0100000000000000000000000000000000000000000000000000000000028152600401808473ffffffffffffffffffffffffffffffffffffffff1673ffffffffffffffffffffffffffffffffffffffff168152602001838152602001828152602001935050505060206040518083038186803b15801561113157600080fd5b505af4158015611145573d6000803e3d6000fd5b505050506040513d602081101561115b57600080fd5b81019080805190602001909291905050509350836000191687897fc4970cc78910aa0998aca6333d6db8a393651a6560a464ddc2d6bbbed55cfc1e898960405180836000191660001916815260200182600019166000191681526020019250505060405180910390a45050505050505050565b6000806000808573__RegistryStorageLib____________________63cc40ddc0600260009054906101000a900473ffffffffffffffffffffffffffffffffffffffff16836040518363ffffffff167c0100000000000000000000000000000000000000000000000000000000028152600401808373ffffffffffffffffffffffffffffffffffffffff1673ffffffffffffffffffffffffffffffffffffffff1681526020018281526020019250505060206040518083038186803b15801561129657600080fd5b505af41580156112aa573d6000803e3d6000fd5b505050506040513d60208110156112c057600080fd5b81019080805190602001909291905050501515611345576040517f08c379a00000000000000000000000000000000000000000000000000000000081526004018080602001828103825260198152602001807f4d656d626572206d75737420626520726567697374657265640000000000000081525060200191505060405180910390fd5b868673__RegistryStorageLib____________________63775abae4600260009054906101000a900473ffffffffffffffffffffffffffffffffffffffff1684846040518463ffffffff167c0100000000000000000000000000000000000000000000000000000000028152600401808473ffffffffffffffffffffffffffffffffffffffff1673ffffffffffffffffffffffffffffffffffffffff168152602001838152602001828152602001935050505060206040518083038186803b15801561141057600080fd5b505af4158015611424573d6000803e3d6000fd5b505050506040513d602081101561143a57600080fd5b810190808051906020019092919050505015156114bf576040517f08c379a000000000000000000000000000000000000000000000000000000000815260040180806020018281038252601b8152602001807f417474726962757465206e756d626572206d757374206578697374000000000081525060200191505060405180910390fd5b87965073__RegistryStorageLib____________________63afeef9b8600260009054906101000a900473ffffffffffffffffffffffffffffffffffffffff168b8b6040518463ffffffff167c0100000000000000000000000000000000000000000000000000000000028152600401808473ffffffffffffffffffffffffffffffffffffffff1673ffffffffffffffffffffffffffffffffffffffff168152602001838152602001828152602001935050505060206040518083038186803b15801561158b57600080fd5b505af415801561159f573d6000803e3d6000fd5b505050506040513d60208110156115b557600080fd5b8101908080519060200190929190505050955073__RegistryStorageLib____________________631f91a7f5600260009054906101000a900473ffffffffffffffffffffffffffffffffffffffff168b8b6040518463ffffffff167c0100000000000000000000000000000000000000000000000000000000028152600401808473ffffffffffffffffffffffffffffffffffffffff1673ffffffffffffffffffffffffffffffffffffffff168152602001838152602001828152602001935050505060206040518083038186803b15801561169157600080fd5b505af41580156116a5573d6000803e3d6000fd5b505050506040513d60208110156116bb57600080fd5b8101908080519060200190929190505050945073__RegistryStorageLib____________________639f66058e600260009054906101000a900473ffffffffffffffffffffffffffffffffffffffff168b8b6040518463ffffffff167c0100000000000000000000000000000000000000000000000000000000028152600401808473ffffffffffffffffffffffffffffffffffffffff1673ffffffffffffffffffffffffffffffffffffffff168152602001838152602001828152602001935050505060206040518083038186803b15801561179757600080fd5b505af41580156117ab573d6000803e3d6000fd5b505050506040513d60208110156117c157600080fd5b8101908080519060200190929190505050935050505092959194509250565b6000809054906101000a900473ffffffffffffffffffffffffffffffffffffffff1673ffffffffffffffffffffffffffffffffffffffff163373ffffffffffffffffffffffffffffffffffffffff1614151561183b57600080fd5b600160149054906101000a900460ff16151561185657600080fd5b6000600160146101000a81548160ff0219169083151502179055507f7805862f689e2f13df9f062ff482ad3ad112aca9e0847911ed832e158c525b3360405160405180910390a1565b600073__RegistryStorageLib____________________6304543b61600260009054906101000a900473ffffffffffffffffffffffffffffffffffffffff166040518263ffffffff167c0100000000000000000000000000000000000000000000000000000000028152600401808273ffffffffffffffffffffffffffffffffffffffff1673ffffffffffffffffffffffffffffffffffffffff16815260200191505060206040518083038186803b15801561195a57600080fd5b505af415801561196e573d6000803e3d6000fd5b505050506040513d602081101561198457600080fd5b8101908080519060200190929190505050905090565b600160149054906101000a900460ff161515156119b657600080fd5b8173__RegistryStorageLib____________________63cc40ddc0600260009054906101000a900473ffffffffffffffffffffffffffffffffffffffff16836040518363ffffffff167c0100000000000000000000000000000000000000000000000000000000028152600401808373ffffffffffffffffffffffffffffffffffffffff1673ffffffffffffffffffffffffffffffffffffffff1681526020018281526020019250505060206040518083038186803b158015611a7857600080fd5b505af4158015611a8c573d6000803e3d6000fd5b505050506040513d6020811015611aa257600080fd5b81019080805190602001909291905050501515611b27576040517f08c379a00000000000000000000000000000000000000000000000000000000081526004018080602001828103825260198152602001807f4d656d626572206d75737420626520726567697374657265640000000000000081525060200191505060405180910390fd5b823373ffffffffffffffffffffffffffffffffffffffff1673__RegistryStorageLib____________________63b3931864600260009054906101000a900473ffffffffffffffffffffffffffffffffffffffff16846040518363ffffffff167c0100000000000000000000000000000000000000000000000000000000028152600401808373ffffffffffffffffffffffffffffffffffffffff1673ffffffffffffffffffffffffffffffffffffffff1681526020018281526020019250505060206040518083038186803b158015611c0057600080fd5b505af4158015611c14573d6000803e3d6000fd5b505050506040513d6020811015611c2a57600080fd5b810190808051906020019092919050505073ffffffffffffffffffffffffffffffffffffffff16141515611cec576040517f08c379a000000000000000000000000000000000000000000000000000000000815260040180806020018281038252603a8152602001807f4f6e6c79207468652070656e64696e67206f776e6572206f6620746865206d6581526020017f6d6265722063616e20706572666f726d2074686973207461736b00000000000081525060400191505060405180910390fd5b8383600073__RegistryStorageLib____________________6322a04c45600260009054906101000a900473ffffffffffffffffffffffffffffffffffffffff16856040518363ffffffff167c0100000000000000000000000000000000000000000000000000000000028152600401808373ffffffffffffffffffffffffffffffffffffffff1673ffffffffffffffffffffffffffffffffffffffff1681526020018281526020019250505060206040518083038186803b158015611db157600080fd5b505af4158015611dc5573d6000803e3d6000fd5b505050506040513d6020811015611ddb57600080fd5b8101908080519060200190929190505050905081600019168160001916141515611e93576040517f08c379a00000000000000000000000000000000000000000000000000000000081526004018080602001828103825260358152602001807f546865206b65792070726f7669646564206d757374206d61746368207468652081526020017f6578697374696e67207472616e73666572206b6579000000000000000000000081525060400191505060405180910390fd5b73__RegistryStorageLib____________________635821edb0600260009054906101000a900473ffffffffffffffffffffffffffffffffffffffff1689336040518463ffffffff167c0100000000000000000000000000000000000000000000000000000000028152600401808473ffffffffffffffffffffffffffffffffffffffff1673ffffffffffffffffffffffffffffffffffffffff1681526020018381526020018273ffffffffffffffffffffffffffffffffffffffff1673ffffffffffffffffffffffffffffffffffffffff168152602001935050505060006040518083038186803b158015611f8857600080fd5b505af4158015611f9c573d6000803e3d6000fd5b505050503373ffffffffffffffffffffffffffffffffffffffff16877feacf7aee9e4ba56fb2dcdea3b816570de0f2a2e54f43a87a96286bcddec9488960405160405180910390a350505050505050565b600080611ff861595d565b8373__RegistryStorageLib____________________63cc40ddc0600260009054906101000a900473ffffffffffffffffffffffffffffffffffffffff1661203f84615506565b6040518363ffffffff167c0100000000000000000000000000000000000000000000000000000000028152600401808373ffffffffffffffffffffffffffffffffffffffff1673ffffffffffffffffffffffffffffffffffffffff1681526020018281526020019250505060206040518083038186803b1580156120c257600080fd5b505af41580156120d6573d6000803e3d6000fd5b505050506040513d60208110156120ec57600080fd5b81019080805190602001909291905050501515612171576040517f08c379a00000000000000000000000000000000000000000000000000000000081526004018080602001828103825260198152602001807f4d656d626572206d75737420626520726567697374657265640000000000000081525060200191505060405180910390fd5b61217a85610996565b925061218583615613565b915081604001519350505050919050565b600160149054906101000a900460ff161515156121b257600080fd5b6000809054906101000a900473ffffffffffffffffffffffffffffffffffffffff1673ffffffffffffffffffffffffffffffffffffffff163373ffffffffffffffffffffffffffffffffffffffff1614151561220d57600080fd5b8073__RegistryStorageLib____________________63cc40ddc0600260009054906101000a900473ffffffffffffffffffffffffffffffffffffffff16836040518363ffffffff167c0100000000000000000000000000000000000000000000000000000000028152600401808373ffffffffffffffffffffffffffffffffffffffff1673ffffffffffffffffffffffffffffffffffffffff1681526020018281526020019250505060206040518083038186803b1580156122cf57600080fd5b505af41580156122e3573d6000803e3d6000fd5b505050506040513d60208110156122f957600080fd5b8101908080519060200190929190505050151561237e576040517f08c379a00000000000000000000000000000000000000000000000000000000081526004018080602001828103825260198152602001807f4d656d626572206d75737420626520726567697374657265640000000000000081525060200191505060405180910390fd5b8173__RegistryStorageLib____________________63ac926120600260009054906101000a900473ffffffffffffffffffffffffffffffffffffffff16836040518363ffffffff167c0100000000000000000000000000000000000000000000000000000000028152600401808373ffffffffffffffffffffffffffffffffffffffff1673ffffffffffffffffffffffffffffffffffffffff1681526020018281526020019250505060206040518083038186803b15801561244057600080fd5b505af4158015612454573d6000803e3d6000fd5b505050506040513d602081101561246a57600080fd5b81019080805190602001909291905050501515156124f0576040517f08c379a00000000000000000000000000000000000000000000000000000000081526004018080602001828103825260178152602001807f4d656d626572206d7573742062652064697361626c656400000000000000000081525060200191505060405180910390fd5b73__RegistryStorageLib____________________63d8263dac600260009054906101000a900473ffffffffffffffffffffffffffffffffffffffff168560016040518463ffffffff167c0100000000000000000000000000000000000000000000000000000000028152600401808473ffffffffffffffffffffffffffffffffffffffff1673ffffffffffffffffffffffffffffffffffffffff16815260200183815260200182151515158152602001935050505060006040518083038186803b1580156125be57600080fd5b505af41580156125d2573d6000803e3d6000fd5b50505050827f6c1c54cd1cc41dc1d40182830f8d9a3d73a7775038c567cb154b38a2355da9a160405160405180910390a2505050565b600160009054906101000a900473ffffffffffffffffffffffffffffffffffffffff1673ffffffffffffffffffffffffffffffffffffffff163373ffffffffffffffffffffffffffffffffffffffff1614151561266457600080fd5b600160009054906101000a900473ffffffffffffffffffffffffffffffffffffffff1673ffffffffffffffffffffffffffffffffffffffff166000809054906101000a900473ffffffffffffffffffffffffffffffffffffffff1673ffffffffffffffffffffffffffffffffffffffff167f8be0079c531659141344cd1fd0a4f28419497f9722a3daafe3b4186f6b6457e060405160405180910390a3600160009054906101000a900473ffffffffffffffffffffffffffffffffffffffff166000806101000a81548173ffffffffffffffffffffffffffffffffffffffff021916908373ffffffffffffffffffffffffffffffffffffffff1602179055506000600160006101000a81548173ffffffffffffffffffffffffffffffffffffffff021916908373ffffffffffffffffffffffffffffffffffffffff160217905550565b600360009054906101000a900473ffffffffffffffffffffffffffffffffffffffff1681565b600160149054906101000a900460ff1681565b600080600080600160149054906101000a900460ff1615151561280257600080fd5b8573__RegistryStorageLib____________________63cc40ddc0600260009054906101000a900473ffffffffffffffffffffffffffffffffffffffff1661284984615506565b6040518363ffffffff167c0100000000000000000000000000000000000000000000000000000000028152600401808373ffffffffffffffffffffffffffffffffffffffff1673ffffffffffffffffffffffffffffffffffffffff1681526020018281526020019250505060206040518083038186803b1580156128cc57600080fd5b505af41580156128e0573d6000803e3d6000fd5b505050506040513d60208110156128f657600080fd5b81019080805190602001909291905050501515156129a2576040517f08c379a00000000000000000000000000000000000000000000000000000000081526004018080602001828103825260258152602001807f4d656d626572206d757374206e6f7420616c726561647920626520726567697381526020017f746572656400000000000000000000000000000000000000000000000000000081525060400191505060405180910390fd5b34600360009054906101000a900473ffffffffffffffffffffffffffffffffffffffff1673ffffffffffffffffffffffffffffffffffffffff166388a6f5726040518163ffffffff167c0100000000000000000000000000000000000000000000000000000000028152600401602060405180830381600087803b158015612a2957600080fd5b505af1158015612a3d573d6000803e3d6000fd5b505050506040513d6020811015612a5357600080fd5b810190808051906020019092919050505011151515612ada576040517f08c379a000000000000000000000000000000000000000000000000000000000815260040180806020018281038252601f8152602001807f56616c75652069732062656c6f7720726567697374726174696f6e206665650081525060200191505060405180910390fd5b85600460009054906101000a900473ffffffffffffffffffffffffffffffffffffffff1673ffffffffffffffffffffffffffffffffffffffff1663c02b4991826040518263ffffffff167c0100000000000000000000000000000000000000000000000000000000028152600401808260001916600019168152602001915050602060405180830381600087803b158015612b7457600080fd5b505af1158015612b88573d6000803e3d6000fd5b505050506040513d6020811015612b9e57600080fd5b81019080805190602001909291905050501515612c49576040517f08c379a000000000000000000000000000000000000000000000000000000000815260040180806020018281038252602b8152602001807f4d616e756661637475726572206d75737420626520726567697374657265642081526020017f616e6420656e61626c656400000000000000000000000000000000000000000081525060400191505060405180910390fd5b863373ffffffffffffffffffffffffffffffffffffffff16600460009054906101000a900473ffffffffffffffffffffffffffffffffffffffff1673ffffffffffffffffffffffffffffffffffffffff16634b3cb584836040518263ffffffff167c0100000000000000000000000000000000000000000000000000000000028152600401808260001916600019168152602001915050602060405180830381600087803b158015612cfa57600080fd5b505af1158015612d0e573d6000803e3d6000fd5b505050506040513d6020811015612d2457600080fd5b810190808051906020019092919050505073ffffffffffffffffffffffffffffffffffffffff16141515612de6576040517f08c379a00000000000000000000000000000000000000000000000000000000081526004018080602001828103825260398152602001807f4f6e6c7920746865206f776e6572206f6620746865206d616e7566616374757281526020017f65722063616e2063616c6c20746869732066756e6374696f6e0000000000000081525060400191505060405180910390fd5b7ffee95ecae0c8f7f0743ec0ad254c78ab75e5ecca9f1ddcd9f11f9a98124b96bc6040518080602001828103825260158152602001807f426567696e20726567697374657256656869636c65000000000000000000000081525060200191505060405180910390a173__RegistryStorageLib____________________631e87dd3a600260009054906101000a900473ffffffffffffffffffffffffffffffffffffffff168b336040518463ffffffff167c0100000000000000000000000000000000000000000000000000000000028152600401808473ffffffffffffffffffffffffffffffffffffffff1673ffffffffffffffffffffffffffffffffffffffff16815260200183600019166000191681526020018273ffffffffffffffffffffffffffffffffffffffff1673ffffffffffffffffffffffffffffffffffffffff168152602001935050505060206040518083038186803b158015612f4b57600080fd5b505af4158015612f5f573d6000803e3d6000fd5b505050506040513d6020811015612f7557600080fd5b810190808051906020019092919050505095507f6d616e756661637475726572000000000000000000000000000000000000000094507f6964000000000000000000000000000000000000000000000000000000000000935073__RegistryStorageLib____________________63cbc4a142600260009054906101000a900473ffffffffffffffffffffffffffffffffffffffff168888888d6040518663ffffffff167c0100000000000000000000000000000000000000000000000000000000028152600401808673ffffffffffffffffffffffffffffffffffffffff1673ffffffffffffffffffffffffffffffffffffffff1681526020018581526020018460001916600019168152602001836000191660001916815260200182600019166000191681526020019550505050505060206040518083038186803b1580156130bf57600080fd5b505af41580156130d3573d6000803e3d6000fd5b505050506040513d60208110156130e957600080fd5b8101908080519060200190929190505050508860001916867f477b3314cd7115720db0596138d56c5433466f6c53df7c920e096fbc06bc175e60405160405180910390a37ffee95ecae0c8f7f0743ec0ad254c78ab75e5ecca9f1ddcd9f11f9a98124b96bc6040518080602001828103825260138152602001807f456e6420726567697374657256656869636c650000000000000000000000000081525060200191505060405180910390a185965050505050505092915050565b6000809054906101000a900473ffffffffffffffffffffffffffffffffffffffff1673ffffffffffffffffffffffffffffffffffffffff163373ffffffffffffffffffffffffffffffffffffffff161415156131ff57600080fd5b6000809054906101000a900473ffffffffffffffffffffffffffffffffffffffff1673ffffffffffffffffffffffffffffffffffffffff167ff8df31144d9c2f0f6b59d69b8b98abd5459d07f2742c4df920b25aae33c6482060405160405180910390a260008060006101000a81548173ffffffffffffffffffffffffffffffffffffffff021916908373ffffffffffffffffffffffffffffffffffffffff160217905550565b600080600160149054906101000a900460ff161515156132c557600080fd5b6000809054906101000a900473ffffffffffffffffffffffffffffffffffffffff1673ffffffffffffffffffffffffffffffffffffffff163373ffffffffffffffffffffffffffffffffffffffff1614151561332057600080fd5b8573__RegistryStorageLib____________________63cc40ddc0600260009054906101000a900473ffffffffffffffffffffffffffffffffffffffff16836040518363ffffffff167c0100000000000000000000000000000000000000000000000000000000028152600401808373ffffffffffffffffffffffffffffffffffffffff1673ffffffffffffffffffffffffffffffffffffffff1681526020018281526020019250505060206040518083038186803b1580156133e257600080fd5b505af41580156133f6573d6000803e3d6000fd5b505050506040513d602081101561340c57600080fd5b81019080805190602001909291905050501515613491576040517f08c379a00000000000000000000000000000000000000000000000000000000081526004018080602001828103825260198152602001807f4d656d626572206d75737420626520726567697374657265640000000000000081525060200191505060405180910390fd5b8686600073__RegistryStorageLib____________________639b15b8b2600260009054906101000a900473ffffffffffffffffffffffffffffffffffffffff1685856040518463ffffffff167c0100000000000000000000000000000000000000000000000000000000028152600401808473ffffffffffffffffffffffffffffffffffffffff1673ffffffffffffffffffffffffffffffffffffffff1681526020018381526020018260001916600019168152602001935050505060206040518083038186803b15801561356657600080fd5b505af415801561357a573d6000803e3d6000fd5b505050506040513d602081101561359057600080fd5b810190808051906020019092919050505014151561363c576040517f08c379a00000000000000000000000000000000000000000000000000000000081526004018080602001828103825260258152602001807f417474726962757465206e616d65206d757374206e6f7420616c72656164792081526020017f657869737400000000000000000000000000000000000000000000000000000081525060400191505060405180910390fd5b73__RegistryStorageLib____________________63cbc4a142600260009054906101000a900473ffffffffffffffffffffffffffffffffffffffff168b8b8b8b6040518663ffffffff167c0100000000000000000000000000000000000000000000000000000000028152600401808673ffffffffffffffffffffffffffffffffffffffff1673ffffffffffffffffffffffffffffffffffffffff1681526020018581526020018460001916600019168152602001836000191660001916815260200182600019166000191681526020019550505050505060206040518083038186803b15801561372d57600080fd5b505af4158015613741573d6000803e3d6000fd5b505050506040513d602081101561375757600080fd5b810190808051906020019092919050505093508760001916848a7fc4970cc78910aa0998aca6333d6db8a393651a6560a464ddc2d6bbbed55cfc1e8a8a60405180836000191660001916815260200182600019166000191681526020019250505060405180910390a483945050505050949350505050565b6000809054906101000a900473ffffffffffffffffffffffffffffffffffffffff1673ffffffffffffffffffffffffffffffffffffffff163373ffffffffffffffffffffffffffffffffffffffff1614151561382a57600080fd5b600160149054906101000a900460ff1615151561384657600080fd5b60018060146101000a81548160ff0219169083151502179055507f6985a02210a168e66602d3235cb6db0e70f92b3ba4d376a33c0f3d9434bff62560405160405180910390a1565b600260009054906101000a900473ffffffffffffffffffffffffffffffffffffffff1681565b6000809054906101000a900473ffffffffffffffffffffffffffffffffffffffff1681565b600073__RegistryStorageLib____________________63cc40ddc0600260009054906101000a900473ffffffffffffffffffffffffffffffffffffffff16846040518363ffffffff167c0100000000000000000000000000000000000000000000000000000000028152600401808373ffffffffffffffffffffffffffffffffffffffff1673ffffffffffffffffffffffffffffffffffffffff1681526020018281526020019250505060206040518083038186803b15801561399c57600080fd5b505af41580156139b0573d6000803e3d6000fd5b505050506040513d60208110156139c657600080fd5b81019080805190602001909291905050509050919050565b6000806000806139ec61595d565b8573__RegistryStorageLib____________________63cc40ddc0600260009054906101000a900473ffffffffffffffffffffffffffffffffffffffff16836040518363ffffffff167c0100000000000000000000000000000000000000000000000000000000028152600401808373ffffffffffffffffffffffffffffffffffffffff1673ffffffffffffffffffffffffffffffffffffffff1681526020018281526020019250505060206040518083038186803b158015613aae57600080fd5b505af4158015613ac2573d6000803e3d6000fd5b505050506040513d6020811015613ad857600080fd5b81019080805190602001909291905050501515613b5d576040517f08c379a00000000000000000000000000000000000000000000000000000000081526004018080602001828103825260198152602001807f4d656d626572206d75737420626520726567697374657265640000000000000081525060200191505060405180910390fd5b613b6687615613565b91508160000151955081602001519450816040015193508160600151925050509193509193565b6000600160149054906101000a900460ff16151515613bab57600080fd5b8373__RegistryStorageLib____________________63cc40ddc0600260009054906101000a900473ffffffffffffffffffffffffffffffffffffffff16836040518363ffffffff167c0100000000000000000000000000000000000000000000000000000000028152600401808373ffffffffffffffffffffffffffffffffffffffff1673ffffffffffffffffffffffffffffffffffffffff1681526020018281526020019250505060206040518083038186803b158015613c6d57600080fd5b505af4158015613c81573d6000803e3d6000fd5b505050506040513d6020811015613c9757600080fd5b81019080805190602001909291905050501515613d1c576040517f08c379a00000000000000000000000000000000000000000000000000000000081526004018080602001828103825260198152602001807f4d656d626572206d75737420626520726567697374657265640000000000000081525060200191505060405180910390fd5b843373ffffffffffffffffffffffffffffffffffffffff1673__RegistryStorageLib____________________63df3967f2600260009054906101000a900473ffffffffffffffffffffffffffffffffffffffff16846040518363ffffffff167c0100000000000000000000000000000000000000000000000000000000028152600401808373ffffffffffffffffffffffffffffffffffffffff1673ffffffffffffffffffffffffffffffffffffffff1681526020018281526020019250505060206040518083038186803b158015613df557600080fd5b505af4158015613e09573d6000803e3d6000fd5b505050506040513d6020811015613e1f57600080fd5b810190808051906020019092919050505073ffffffffffffffffffffffffffffffffffffffff16141515613ee1576040517f08c379a00000000000000000000000000000000000000000000000000000000081526004018080602001828103825260328152602001807f4f6e6c7920746865206f776e6572206f6620746865206d656d6265722063616e81526020017f20706572666f726d2074686973207461736b000000000000000000000000000081525060400191505060405180910390fd5b34600360009054906101000a900473ffffffffffffffffffffffffffffffffffffffff1673ffffffffffffffffffffffffffffffffffffffff166388a6f5726040518163ffffffff167c0100000000000000000000000000000000000000000000000000000000028152600401602060405180830381600087803b158015613f6857600080fd5b505af1158015613f7c573d6000803e3d6000fd5b505050506040513d6020811015613f9257600080fd5b81019080805190602001909291905050501115151561403f576040517f08c379a00000000000000000000000000000000000000000000000000000000081526004018080602001828103825260288152602001807f56616c75652069732062656c6f7720726567697374726174696f6e207472616e81526020017f736665722066656500000000000000000000000000000000000000000000000081525060400191505060405180910390fd5b73__RegistryStorageLib____________________63df3967f2600260009054906101000a900473ffffffffffffffffffffffffffffffffffffffff16886040518363ffffffff167c0100000000000000000000000000000000000000000000000000000000028152600401808373ffffffffffffffffffffffffffffffffffffffff1673ffffffffffffffffffffffffffffffffffffffff1681526020018281526020019250505060206040518083038186803b15801561410057600080fd5b505af4158015614114573d6000803e3d6000fd5b505050506040513d602081101561412a57600080fd5b8101908080519060200190929190505050925073__RegistryStorageLib____________________6339e7c3d6600260009054906101000a900473ffffffffffffffffffffffffffffffffffffffff1688886040518463ffffffff167c0100000000000000000000000000000000000000000000000000000000028152600401808473ffffffffffffffffffffffffffffffffffffffff1673ffffffffffffffffffffffffffffffffffffffff1681526020018381526020018273ffffffffffffffffffffffffffffffffffffffff1673ffffffffffffffffffffffffffffffffffffffff168152602001935050505060006040518083038186803b15801561423257600080fd5b505af4158015614246573d6000803e3d6000fd5b5050505073__RegistryStorageLib____________________63e9a56575600260009054906101000a900473ffffffffffffffffffffffffffffffffffffffff1688876040518463ffffffff167c0100000000000000000000000000000000000000000000000000000000028152600401808473ffffffffffffffffffffffffffffffffffffffff1673ffffffffffffffffffffffffffffffffffffffff1681526020018381526020018260001916600019168152602001935050505060006040518083038186803b15801561431b57600080fd5b505af415801561432f573d6000803e3d6000fd5b505050508473ffffffffffffffffffffffffffffffffffffffff168373ffffffffffffffffffffffffffffffffffffffff16877f16da62289fb03291b4545b27ad6fd3329305dfae113f331e8523fcb90148cc6560405160405180910390a4505050505050565b60008273__RegistryStorageLib____________________63cc40ddc0600260009054906101000a900473ffffffffffffffffffffffffffffffffffffffff16836040518363ffffffff167c0100000000000000000000000000000000000000000000000000000000028152600401808373ffffffffffffffffffffffffffffffffffffffff1673ffffffffffffffffffffffffffffffffffffffff1681526020018281526020019250505060206040518083038186803b15801561445a57600080fd5b505af415801561446e573d6000803e3d6000fd5b505050506040513d602081101561448457600080fd5b81019080805190602001909291905050501515614509576040517f08c379a00000000000000000000000000000000000000000000000000000000081526004018080602001828103825260198152602001807f4d656d626572206d75737420626520726567697374657265640000000000000081525060200191505060405180910390fd5b8383600073__RegistryStorageLib____________________639b15b8b2600260009054906101000a900473ffffffffffffffffffffffffffffffffffffffff1685856040518463ffffffff167c0100000000000000000000000000000000000000000000000000000000028152600401808473ffffffffffffffffffffffffffffffffffffffff1673ffffffffffffffffffffffffffffffffffffffff1681526020018381526020018260001916600019168152602001935050505060206040518083038186803b1580156145de57600080fd5b505af41580156145f2573d6000803e3d6000fd5b505050506040513d602081101561460857600080fd5b810190808051906020019092919050505011151561468e576040517f08c379a00000000000000000000000000000000000000000000000000000000081526004018080602001828103825260198152602001807f417474726962757465206e616d65206d7573742065786973740000000000000081525060200191505060405180910390fd5b73__RegistryStorageLib____________________639b15b8b2600260009054906101000a900473ffffffffffffffffffffffffffffffffffffffff1688886040518463ffffffff167c0100000000000000000000000000000000000000000000000000000000028152600401808473ffffffffffffffffffffffffffffffffffffffff1673ffffffffffffffffffffffffffffffffffffffff1681526020018381526020018260001916600019168152602001935050505060206040518083038186803b15801561475f57600080fd5b505af4158015614773573d6000803e3d6000fd5b505050506040513d602081101561478957600080fd5b8101908080519060200190929190505050935050505092915050565b600160149054906101000a900460ff161515156147c157600080fd5b6000809054906101000a900473ffffffffffffffffffffffffffffffffffffffff1673ffffffffffffffffffffffffffffffffffffffff163373ffffffffffffffffffffffffffffffffffffffff1614151561481c57600080fd5b8073__RegistryStorageLib____________________63cc40ddc0600260009054906101000a900473ffffffffffffffffffffffffffffffffffffffff16836040518363ffffffff167c0100000000000000000000000000000000000000000000000000000000028152600401808373ffffffffffffffffffffffffffffffffffffffff1673ffffffffffffffffffffffffffffffffffffffff1681526020018281526020019250505060206040518083038186803b1580156148de57600080fd5b505af41580156148f2573d6000803e3d6000fd5b505050506040513d602081101561490857600080fd5b8101908080519060200190929190505050151561498d576040517f08c379a00000000000000000000000000000000000000000000000000000000081526004018080602001828103825260198152602001807f4d656d626572206d75737420626520726567697374657265640000000000000081525060200191505060405180910390fd5b8173__RegistryStorageLib____________________63ac926120600260009054906101000a900473ffffffffffffffffffffffffffffffffffffffff16836040518363ffffffff167c0100000000000000000000000000000000000000000000000000000000028152600401808373ffffffffffffffffffffffffffffffffffffffff1673ffffffffffffffffffffffffffffffffffffffff1681526020018281526020019250505060206040518083038186803b158015614a4f57600080fd5b505af4158015614a63573d6000803e3d6000fd5b505050506040513d6020811015614a7957600080fd5b81019080805190602001909291905050501515614afe576040517f08c379a00000000000000000000000000000000000000000000000000000000081526004018080602001828103825260168152602001807f4d656d626572206d75737420626520656e61626c65640000000000000000000081525060200191505060405180910390fd5b73__RegistryStorageLib____________________63d8263dac600260009054906101000a900473ffffffffffffffffffffffffffffffffffffffff168560006040518463ffffffff167c0100000000000000000000000000000000000000000000000000000000028152600401808473ffffffffffffffffffffffffffffffffffffffff1673ffffffffffffffffffffffffffffffffffffffff16815260200183815260200182151515158152602001935050505060006040518083038186803b158015614bcc57600080fd5b505af4158015614be0573d6000803e3d6000fd5b50505050827f77a26bc01a7c1a1fc488dda7972e7db7e69f5d94fb4a553c00e2dfc462f2167860405160405180910390a2505050565b600080614c2161595d565b614c2a84615506565b91506000821415614c3e5760009250614c51565b614c4782615613565b9050806060015192505b5050919050565b60008060009054906101000a900473ffffffffffffffffffffffffffffffffffffffff1673ffffffffffffffffffffffffffffffffffffffff168273ffffffffffffffffffffffffffffffffffffffff16149050919050565b60008060008060009054906101000a900473ffffffffffffffffffffffffffffffffffffffff1673ffffffffffffffffffffffffffffffffffffffff163373ffffffffffffffffffffffffffffffffffffffff16141515614d1157600080fd5b600092505b8351831015614f1e578383815181101515614d2d57fe5b9060200190602002015191508173ffffffffffffffffffffffffffffffffffffffff166370a08231306040518263ffffffff167c0100000000000000000000000000000000000000000000000000000000028152600401808273ffffffffffffffffffffffffffffffffffffffff1673ffffffffffffffffffffffffffffffffffffffff168152602001915050602060405180830381600087803b158015614dd457600080fd5b505af1158015614de8573d6000803e3d6000fd5b505050506040513d6020811015614dfe57600080fd5b810190808051906020019092919050505090508173ffffffffffffffffffffffffffffffffffffffff1663a9059cbb6000809054906101000a900473ffffffffffffffffffffffffffffffffffffffff16836040518363ffffffff167c0100000000000000000000000000000000000000000000000000000000028152600401808373ffffffffffffffffffffffffffffffffffffffff1673ffffffffffffffffffffffffffffffffffffffff16815260200182815260200192505050602060405180830381600087803b158015614ed557600080fd5b505af1158015614ee9573d6000803e3d6000fd5b505050506040513d6020811015614eff57600080fd5b8101908080519060200190929190505050508280600101935050614d16565b6000809054906101000a900473ffffffffffffffffffffffffffffffffffffffff1673ffffffffffffffffffffffffffffffffffffffff16ff5b6000809054906101000a900473ffffffffffffffffffffffffffffffffffffffff1673ffffffffffffffffffffffffffffffffffffffff163373ffffffffffffffffffffffffffffffffffffffff16141515614fb357600080fd5b600160149054906101000a900460ff161515614fce57600080fd5b600360009054906101000a900473ffffffffffffffffffffffffffffffffffffffff1673ffffffffffffffffffffffffffffffffffffffff168173ffffffffffffffffffffffffffffffffffffffff16141515156150ba576040517f08c379a000000000000000000000000000000000000000000000000000000000815260040180806020018281038252602e8152602001807f466565204c6f6f6b75702061646472657373206d75737420626520612064696681526020017f666572656e74206164647265737300000000000000000000000000000000000081525060400191505060405180910390fd5b80600360006101000a81548173ffffffffffffffffffffffffffffffffffffffff021916908373ffffffffffffffffffffffffffffffffffffffff16021790555050565b60008173__RegistryStorageLib____________________63cc40ddc0600260009054906101000a900473ffffffffffffffffffffffffffffffffffffffff16836040518363ffffffff167c0100000000000000000000000000000000000000000000000000000000028152600401808373ffffffffffffffffffffffffffffffffffffffff1673ffffffffffffffffffffffffffffffffffffffff1681526020018281526020019250505060206040518083038186803b1580156151c257600080fd5b505af41580156151d6573d6000803e3d6000fd5b505050506040513d60208110156151ec57600080fd5b81019080805190602001909291905050501515615271576040517f08c379a00000000000000000000000000000000000000000000000000000000081526004018080602001828103825260198152602001807f4d656d626572206d75737420626520726567697374657265640000000000000081525060200191505060405180910390fd5b73__RegistryStorageLib____________________6315f22968600260009054906101000a900473ffffffffffffffffffffffffffffffffffffffff16856040518363ffffffff167c0100000000000000000000000000000000000000000000000000000000028152600401808373ffffffffffffffffffffffffffffffffffffffff1673ffffffffffffffffffffffffffffffffffffffff1681526020018281526020019250505060206040518083038186803b15801561533257600080fd5b505af4158015615346573d6000803e3d6000fd5b505050506040513d602081101561535c57600080fd5b8101908080519060200190929190505050915050919050565b600160009054906101000a900473ffffffffffffffffffffffffffffffffffffffff1681565b6000809054906101000a900473ffffffffffffffffffffffffffffffffffffffff1673ffffffffffffffffffffffffffffffffffffffff163373ffffffffffffffffffffffffffffffffffffffff161415156153f657600080fd5b80600160006101000a81548173ffffffffffffffffffffffffffffffffffffffff021916908373ffffffffffffffffffffffffffffffffffffffff16021790555050565b60008015156154fd576040517f08c379a00000000000000000000000000000000000000000000000000000000081526004018080602001828103825260478152602001807f546869732066756e6374696f6e2069732064697361626c6564206f6e2074686981526020017f7320636f6e74726163742c2075736520726567697374657256656869636c652081526020017f696e73746561640000000000000000000000000000000000000000000000000081525060600191505060405180910390fd5b60009050919050565b600073__RegistryStorageLib____________________63bd64b8a6600260009054906101000a900473ffffffffffffffffffffffffffffffffffffffff16846040518363ffffffff167c0100000000000000000000000000000000000000000000000000000000028152600401808373ffffffffffffffffffffffffffffffffffffffff1673ffffffffffffffffffffffffffffffffffffffff16815260200182600019166000191681526020019250505060206040518083038186803b1580156155d157600080fd5b505af41580156155e5573d6000803e3d6000fd5b505050506040513d60208110156155fb57600080fd5b81019080805190602001909291905050509050919050565b61561b61595d565b61562361595d565b60806040519081016040528084815260200173__RegistryStorageLib____________________631eef249c600260009054906101000a900473ffffffffffffffffffffffffffffffffffffffff16876040518363ffffffff167c0100000000000000000000000000000000000000000000000000000000028152600401808373ffffffffffffffffffffffffffffffffffffffff1673ffffffffffffffffffffffffffffffffffffffff1681526020018281526020019250505060206040518083038186803b1580156156f657600080fd5b505af415801561570a573d6000803e3d6000fd5b505050506040513d602081101561572057600080fd5b810190808051906020019092919050505060001916815260200173__RegistryStorageLib____________________63df3967f2600260009054906101000a900473ffffffffffffffffffffffffffffffffffffffff16876040518363ffffffff167c0100000000000000000000000000000000000000000000000000000000028152600401808373ffffffffffffffffffffffffffffffffffffffff1673ffffffffffffffffffffffffffffffffffffffff1681526020018281526020019250505060206040518083038186803b1580156157fb57600080fd5b505af415801561580f573d6000803e3d6000fd5b505050506040513d602081101561582557600080fd5b810190808051906020019092919050505073ffffffffffffffffffffffffffffffffffffffff16815260200173__RegistryStorageLib____________________63ac926120600260009054906101000a900473ffffffffffffffffffffffffffffffffffffffff16876040518363ffffffff167c0100000000000000000000000000000000000000000000000000000000028152600401808373ffffffffffffffffffffffffffffffffffffffff1673ffffffffffffffffffffffffffffffffffffffff1681526020018281526020019250505060206040518083038186803b15801561591257600080fd5b505af4158015615926573d6000803e3d6000fd5b505050506040513d602081101561593c57600080fd5b81019080805190602001909291905050501515815250905080915050919050565b6080604051908101604052806000815260200160008019168152602001600073ffffffffffffffffffffffffffffffffffffffff16815260200160001515815250905600a165627a7a7230582053b39e55dddbb48887153f501c32dc3f8b8cb908510259cae58bc99c28f069ae0029",
  "source": "pragma solidity ^0.4.23;\r\n\r\nimport \"./ByteUtilsLib.sol\";\r\nimport \"./Registry.sol\";\r\nimport \"./IRegistryLookup.sol\";\r\nimport \"../node_modules/openzeppelin-solidity/contracts/AddressUtils.sol\";\r\nimport \"./RegistryStorageLib.sol\";\r\n\r\ncontract VehicleRegistry is Registry {\r\n\r\n    using ByteUtilsLib for bytes32;\r\n    using AddressUtils for address;\r\n\r\n    address private manufacturerRegistryStorageAddress;\r\n\r\n    constructor(address _storageAddress, address _feeLookupAddres, address _manufacturerRegistryStorageAddress) \r\n        Registry(_storageAddress, _feeLookupAddres)\r\n        public {\r\n        manufacturerRegistryStorageAddress = _manufacturerRegistryStorageAddress;\r\n    }\r\n\r\n//modifiers\r\n    modifier registeredAndEnabledManufacturer (bytes32 _manufacturerId) {\r\n        require(\r\n            IRegistryLookup(manufacturerRegistryStorageAddress).isMemberRegisteredAndEnabled(_manufacturerId), \r\n            \"Manufacturer must be registered and enabled\");\r\n        _;\r\n    }\r\n\r\n    modifier senderIsManufacturerOwner (bytes32 _manufacturerId) {\r\n        require(\r\n            IRegistryLookup(manufacturerRegistryStorageAddress).getMemberOwner(_manufacturerId) == msg.sender, \r\n            \"Only the owner of the manufacturer can call this function\");\r\n        _;\r\n    }\r\n\r\n    modifier isContractAddress(address _address) {\r\n        require(_address.isContract(), \"Address must be a contract\");\r\n        _;\r\n    }\r\n\r\n//base overrides\r\n    //override base function to disable it - must use registerVehicle\r\n    function registerMember(bytes32) \r\n        public payable\r\n        returns (uint256) {\r\n        require(false, \"This function is disabled on this contract, use registerVehicle instead\");\r\n        return 0;\r\n    }    \r\n\r\n\r\n//external VehicleRegistry specific\r\n    function registerVehicle(bytes32 _memberId, bytes32 _manufacturerId) \r\n        public payable\r\n        whenNotPaused()\r\n        memberIdNotRegistered(_memberId)\r\n        paidMemberRegistrationFee()\r\n        registeredAndEnabledManufacturer(_manufacturerId)\r\n        senderIsManufacturerOwner(_manufacturerId)        \r\n        returns (uint256) {\r\n\r\n        emit LogInfo(\"Begin registerVehicle\");\r\n        uint256 memberNumber = RegistryStorageLib.storeMember(storageAddress, _memberId, msg.sender);\r\n        bytes32 attributeName = \"manufacturer\";\r\n        bytes32 attributeType = \"id\";\r\n        RegistryStorageLib.storeMemberAttribute(storageAddress, memberNumber, attributeName, attributeType, _manufacturerId);\r\n        emit MemberRegistered(memberNumber, _memberId);\r\n        emit LogInfo(\"End registerVehicle\");\r\n        return memberNumber;\r\n    }    \r\n}",
  "sourcePath": "C:\\dev\\repos\\VehicleMaintenanceRegistry\\src\\VMR\\contracts\\VehicleRegistry.sol",
  "compiler": {
    "name": "solc",
    "version": "0.4.24+commit.e67f0147.Emscripten.clang"
  },
  "schemaVersion": "2.0.1",
  "updatedAt": "2018-07-13T10:57:14.055Z"
}