{
  "contractName": "VehicleRegistry",
  "abi": [
    {
      "constant": true,
      "inputs": [
        {
          "name": "_memberId",
          "type": "bytes32"
        }
      ],
      "name": "getMemberNumber",
      "outputs": [
        {
          "name": "",
          "type": "uint256"
        }
      ],
      "payable": false,
      "stateMutability": "view",
      "type": "function"
    },
    {
      "constant": true,
      "inputs": [
        {
          "name": "_memberNumber",
          "type": "uint256"
        },
        {
          "name": "_attributeNumber",
          "type": "uint256"
        }
      ],
      "name": "getMemberAttribute",
      "outputs": [
        {
          "name": "attributeNumber",
          "type": "uint256"
        },
        {
          "name": "attributeName",
          "type": "bytes32"
        },
        {
          "name": "attributeType",
          "type": "bytes32"
        },
        {
          "name": "attributeValue",
          "type": "bytes32"
        }
      ],
      "payable": false,
      "stateMutability": "view",
      "type": "function"
    },
    {
      "constant": true,
      "inputs": [],
      "name": "manufacturerRegistryAddress",
      "outputs": [
        {
          "name": "",
          "type": "address"
        }
      ],
      "payable": false,
      "stateMutability": "view",
      "type": "function"
    },
    {
      "constant": false,
      "inputs": [],
      "name": "unpause",
      "outputs": [],
      "payable": false,
      "stateMutability": "nonpayable",
      "type": "function"
    },
    {
      "constant": false,
      "inputs": [
        {
          "name": "_memberNumber",
          "type": "uint256"
        },
        {
          "name": "_key",
          "type": "string"
        }
      ],
      "name": "acceptMemberOwnership",
      "outputs": [],
      "payable": true,
      "stateMutability": "payable",
      "type": "function"
    },
    {
      "constant": true,
      "inputs": [],
      "name": "getMemberTotalCount",
      "outputs": [
        {
          "name": "",
          "type": "uint256"
        }
      ],
      "payable": false,
      "stateMutability": "view",
      "type": "function"
    },
    {
      "constant": true,
      "inputs": [
        {
          "name": "_memberId",
          "type": "bytes32"
        }
      ],
      "name": "getMemberOwner",
      "outputs": [
        {
          "name": "",
          "type": "address"
        }
      ],
      "payable": false,
      "stateMutability": "view",
      "type": "function"
    },
    {
      "constant": false,
      "inputs": [
        {
          "name": "_memberNumber",
          "type": "uint256"
        }
      ],
      "name": "enableMember",
      "outputs": [],
      "payable": true,
      "stateMutability": "payable",
      "type": "function"
    },
    {
      "constant": true,
      "inputs": [],
      "name": "maintenanceLogAttributeType",
      "outputs": [
        {
          "name": "",
          "type": "bytes32"
        }
      ],
      "payable": false,
      "stateMutability": "view",
      "type": "function"
    },
    {
      "constant": false,
      "inputs": [],
      "name": "claimOwnership",
      "outputs": [],
      "payable": false,
      "stateMutability": "nonpayable",
      "type": "function"
    },
    {
      "constant": true,
      "inputs": [],
      "name": "feeLookupAddress",
      "outputs": [
        {
          "name": "",
          "type": "address"
        }
      ],
      "payable": false,
      "stateMutability": "view",
      "type": "function"
    },
    {
      "constant": true,
      "inputs": [],
      "name": "paused",
      "outputs": [
        {
          "name": "",
          "type": "bool"
        }
      ],
      "payable": false,
      "stateMutability": "view",
      "type": "function"
    },
    {
      "constant": false,
      "inputs": [],
      "name": "renounceOwnership",
      "outputs": [],
      "payable": false,
      "stateMutability": "nonpayable",
      "type": "function"
    },
    {
      "constant": false,
      "inputs": [
        {
          "name": "_memberNumber",
          "type": "uint256"
        },
        {
          "name": "_attributeName",
          "type": "bytes32"
        },
        {
          "name": "_attributeType",
          "type": "bytes32"
        },
        {
          "name": "_attributeValue",
          "type": "bytes32"
        }
      ],
      "name": "addMemberAttribute",
      "outputs": [
        {
          "name": "",
          "type": "uint256"
        }
      ],
      "payable": true,
      "stateMutability": "payable",
      "type": "function"
    },
    {
      "constant": false,
      "inputs": [],
      "name": "pause",
      "outputs": [],
      "payable": false,
      "stateMutability": "nonpayable",
      "type": "function"
    },
    {
      "constant": true,
      "inputs": [],
      "name": "storageAddress",
      "outputs": [
        {
          "name": "",
          "type": "address"
        }
      ],
      "payable": false,
      "stateMutability": "view",
      "type": "function"
    },
    {
      "constant": true,
      "inputs": [],
      "name": "owner",
      "outputs": [
        {
          "name": "",
          "type": "address"
        }
      ],
      "payable": false,
      "stateMutability": "view",
      "type": "function"
    },
    {
      "constant": true,
      "inputs": [],
      "name": "maintenanceLogAttributeName",
      "outputs": [
        {
          "name": "",
          "type": "bytes32"
        }
      ],
      "payable": false,
      "stateMutability": "view",
      "type": "function"
    },
    {
      "constant": true,
      "inputs": [
        {
          "name": "_memberNumber",
          "type": "uint256"
        }
      ],
      "name": "isMemberRegistered",
      "outputs": [
        {
          "name": "",
          "type": "bool"
        }
      ],
      "payable": false,
      "stateMutability": "view",
      "type": "function"
    },
    {
      "constant": true,
      "inputs": [
        {
          "name": "_memberNumber",
          "type": "uint256"
        }
      ],
      "name": "getMember",
      "outputs": [
        {
          "name": "memberNumber",
          "type": "uint256"
        },
        {
          "name": "memberId",
          "type": "bytes32"
        },
        {
          "name": "owner",
          "type": "address"
        },
        {
          "name": "enabled",
          "type": "bool"
        },
        {
          "name": "created",
          "type": "uint256"
        }
      ],
      "payable": false,
      "stateMutability": "view",
      "type": "function"
    },
    {
      "constant": false,
      "inputs": [
        {
          "name": "_memberNumber",
          "type": "uint256"
        },
        {
          "name": "_newOwner",
          "type": "address"
        },
        {
          "name": "_keyHash",
          "type": "bytes32"
        }
      ],
      "name": "transferMemberOwnership",
      "outputs": [],
      "payable": true,
      "stateMutability": "payable",
      "type": "function"
    },
    {
      "constant": true,
      "inputs": [
        {
          "name": "_memberNumber",
          "type": "uint256"
        },
        {
          "name": "_attributeName",
          "type": "bytes32"
        }
      ],
      "name": "getMemberAttributeNumber",
      "outputs": [
        {
          "name": "",
          "type": "uint256"
        }
      ],
      "payable": false,
      "stateMutability": "view",
      "type": "function"
    },
    {
      "constant": false,
      "inputs": [
        {
          "name": "_memberNumber",
          "type": "uint256"
        }
      ],
      "name": "disableMember",
      "outputs": [],
      "payable": true,
      "stateMutability": "payable",
      "type": "function"
    },
    {
      "constant": true,
      "inputs": [
        {
          "name": "_memberId",
          "type": "bytes32"
        }
      ],
      "name": "isMemberRegisteredAndEnabled",
      "outputs": [
        {
          "name": "",
          "type": "bool"
        }
      ],
      "payable": false,
      "stateMutability": "view",
      "type": "function"
    },
    {
      "constant": true,
      "inputs": [
        {
          "name": "_address",
          "type": "address"
        }
      ],
      "name": "isAllowedToRegisterMember",
      "outputs": [
        {
          "name": "",
          "type": "bool"
        }
      ],
      "payable": false,
      "stateMutability": "view",
      "type": "function"
    },
    {
      "constant": false,
      "inputs": [
        {
          "name": "tokens",
          "type": "address[]"
        }
      ],
      "name": "destroy",
      "outputs": [],
      "payable": false,
      "stateMutability": "nonpayable",
      "type": "function"
    },
    {
      "constant": false,
      "inputs": [
        {
          "name": "_feeLookupAddress",
          "type": "address"
        }
      ],
      "name": "setFeeLookupAddress",
      "outputs": [],
      "payable": false,
      "stateMutability": "nonpayable",
      "type": "function"
    },
    {
      "constant": true,
      "inputs": [],
      "name": "manufacturerAttributeType",
      "outputs": [
        {
          "name": "",
          "type": "bytes32"
        }
      ],
      "payable": false,
      "stateMutability": "view",
      "type": "function"
    },
    {
      "constant": true,
      "inputs": [],
      "name": "manufacturerAttributeName",
      "outputs": [
        {
          "name": "",
          "type": "bytes32"
        }
      ],
      "payable": false,
      "stateMutability": "view",
      "type": "function"
    },
    {
      "constant": true,
      "inputs": [
        {
          "name": "_memberNumber",
          "type": "uint256"
        }
      ],
      "name": "getMemberAttributeTotalCount",
      "outputs": [
        {
          "name": "",
          "type": "uint256"
        }
      ],
      "payable": false,
      "stateMutability": "view",
      "type": "function"
    },
    {
      "constant": true,
      "inputs": [],
      "name": "pendingOwner",
      "outputs": [
        {
          "name": "",
          "type": "address"
        }
      ],
      "payable": false,
      "stateMutability": "view",
      "type": "function"
    },
    {
      "constant": false,
      "inputs": [
        {
          "name": "newOwner",
          "type": "address"
        }
      ],
      "name": "transferOwnership",
      "outputs": [],
      "payable": false,
      "stateMutability": "nonpayable",
      "type": "function"
    },
    {
      "inputs": [
        {
          "name": "_storageAddress",
          "type": "address"
        },
        {
          "name": "_feeLookupAddress",
          "type": "address"
        },
        {
          "name": "_manufacturerRegistryAddress",
          "type": "address"
        }
      ],
      "payable": false,
      "stateMutability": "nonpayable",
      "type": "constructor"
    },
    {
      "anonymous": false,
      "inputs": [
        {
          "indexed": false,
          "name": "message",
          "type": "string"
        }
      ],
      "name": "LogInfo",
      "type": "event"
    },
    {
      "anonymous": false,
      "inputs": [
        {
          "indexed": true,
          "name": "memberNumber",
          "type": "uint256"
        },
        {
          "indexed": true,
          "name": "memberId",
          "type": "bytes32"
        }
      ],
      "name": "MemberRegistered",
      "type": "event"
    },
    {
      "anonymous": false,
      "inputs": [
        {
          "indexed": true,
          "name": "memberNumber",
          "type": "uint256"
        }
      ],
      "name": "MemberEnabled",
      "type": "event"
    },
    {
      "anonymous": false,
      "inputs": [
        {
          "indexed": true,
          "name": "memberNumber",
          "type": "uint256"
        }
      ],
      "name": "MemberDisabled",
      "type": "event"
    },
    {
      "anonymous": false,
      "inputs": [
        {
          "indexed": true,
          "name": "memberNumber",
          "type": "uint256"
        },
        {
          "indexed": true,
          "name": "from",
          "type": "address"
        },
        {
          "indexed": true,
          "name": "to",
          "type": "address"
        }
      ],
      "name": "MemberOwnershipTransferRequest",
      "type": "event"
    },
    {
      "anonymous": false,
      "inputs": [
        {
          "indexed": true,
          "name": "memberNumber",
          "type": "uint256"
        },
        {
          "indexed": true,
          "name": "newOwner",
          "type": "address"
        }
      ],
      "name": "MemberOwnershipTransferAccepted",
      "type": "event"
    },
    {
      "anonymous": false,
      "inputs": [
        {
          "indexed": true,
          "name": "memberNumber",
          "type": "uint256"
        },
        {
          "indexed": true,
          "name": "attributeNumber",
          "type": "uint256"
        },
        {
          "indexed": true,
          "name": "attributeName",
          "type": "bytes32"
        },
        {
          "indexed": false,
          "name": "attributeType",
          "type": "bytes32"
        },
        {
          "indexed": false,
          "name": "attributeValue",
          "type": "bytes32"
        }
      ],
      "name": "MemberAttributeChanged",
      "type": "event"
    },
    {
      "anonymous": false,
      "inputs": [],
      "name": "Pause",
      "type": "event"
    },
    {
      "anonymous": false,
      "inputs": [],
      "name": "Unpause",
      "type": "event"
    },
    {
      "anonymous": false,
      "inputs": [
        {
          "indexed": true,
          "name": "previousOwner",
          "type": "address"
        }
      ],
      "name": "OwnershipRenounced",
      "type": "event"
    },
    {
      "anonymous": false,
      "inputs": [
        {
          "indexed": true,
          "name": "previousOwner",
          "type": "address"
        },
        {
          "indexed": true,
          "name": "newOwner",
          "type": "address"
        }
      ],
      "name": "OwnershipTransferred",
      "type": "event"
    },
    {
      "constant": false,
      "inputs": [
        {
          "name": "",
          "type": "bytes32"
        }
      ],
      "name": "registerMember",
      "outputs": [
        {
          "name": "",
          "type": "uint256"
        }
      ],
      "payable": true,
      "stateMutability": "payable",
      "type": "function"
    },
    {
      "constant": false,
      "inputs": [
        {
          "name": "_vin",
          "type": "bytes32"
        },
        {
          "name": "_manufacturerId",
          "type": "bytes32"
        }
      ],
      "name": "registerVehicle",
      "outputs": [
        {
          "name": "",
          "type": "uint256"
        }
      ],
      "payable": true,
      "stateMutability": "payable",
      "type": "function"
    },
    {
      "constant": false,
      "inputs": [
        {
          "name": "_memberNumber",
          "type": "uint256"
        },
        {
          "name": "_attributeNumber",
          "type": "uint256"
        },
        {
          "name": "_attributeType",
          "type": "bytes32"
        },
        {
          "name": "_attributeValue",
          "type": "bytes32"
        }
      ],
      "name": "setMemberAttribute",
      "outputs": [],
      "payable": true,
      "stateMutability": "payable",
      "type": "function"
    },
    {
      "constant": false,
      "inputs": [
        {
          "name": "_memberNumber",
          "type": "uint256"
        },
        {
          "name": "_address",
          "type": "address"
        }
      ],
      "name": "setMaintenanceLogAddress",
      "outputs": [],
      "payable": true,
      "stateMutability": "payable",
      "type": "function"
    },
    {
      "constant": true,
      "inputs": [
        {
          "name": "_memberNumber",
          "type": "uint256"
        }
      ],
      "name": "getMaintenanceLogAddress",
      "outputs": [
        {
          "name": "",
          "type": "address"
        }
      ],
      "payable": false,
      "stateMutability": "view",
      "type": "function"
    }
  ],
  "bytecode": "0x60806040526000600160146101000a81548160ff0219169083151502179055503480156200002c57600080fd5b50604051606080620066f98339810180604052810190808051906020019092919080519060200190929190805190602001909291905050508282336000806101000a81548173ffffffffffffffffffffffffffffffffffffffff021916908373ffffffffffffffffffffffffffffffffffffffff160217905550620000db8273ffffffffffffffffffffffffffffffffffffffff16620002e36401000000000262005095176401000000009004565b1515620000e757600080fd5b6200011c8173ffffffffffffffffffffffffffffffffffffffff16620002e36401000000000262005095176401000000009004565b15156200012857600080fd5b81600260006101000a81548173ffffffffffffffffffffffffffffffffffffffff021916908373ffffffffffffffffffffffffffffffffffffffff16021790555080600360006101000a81548173ffffffffffffffffffffffffffffffffffffffff021916908373ffffffffffffffffffffffffffffffffffffffff1602179055505050620001e18173ffffffffffffffffffffffffffffffffffffffff16620002e36401000000000262005095176401000000009004565b1515620001ed57600080fd5b80600860006101000a81548173ffffffffffffffffffffffffffffffffffffffff021916908373ffffffffffffffffffffffffffffffffffffffff1602179055507f6d616e7566616374757265720000000000000000000000000000000000000000600681600019169055507f6964000000000000000000000000000000000000000000000000000000000000600781600019169055507f6d61696e74656e616e63654c6f67000000000000000000000000000000000000600481600019169055507f616464726573730000000000000000000000000000000000000000000000000060058160001916905550505050620002f6565b600080823b905060008111915050919050565b6163f380620003066000396000f3006080604052600436106101cd576000357c0100000000000000000000000000000000000000000000000000000000900463ffffffff16806314ef55b9146101d25780631c894c1f1461021757806324ce2195146102575780632a9cbbed1461029d5780632d2d741414610315578063330ccf0b1461036c5780633f4ba83a146103d95780633f97cddc146103f057806346dbf254146104565780634b3cb584146104815780634bd3dbb9146104f25780634c93da8f146105125780634e71e0c81461054557806358c340741461055c5780635c975abb146105b357806369c6fbfb146105e2578063715018a6146106285780637aaca2f81461063f5780638456cb591461069d57806385aa92a7146106b45780638da5cb5b1461070b578063909dd98614610762578063a79e653314610795578063ab3545e5146107da578063ad1c5a7a1461086f578063b44691d6146108bd578063b8f5138e1461090c578063c02b49911461092c578063c65a9d3014610975578063c6786e5a146109d0578063ca4967d514610a36578063d9b577b014610a79578063de6c625c14610aac578063de71e19a14610adf578063e30c397814610b20578063f2fde38b14610b77578063fd8785c914610bba575b600080fd5b3480156101de57600080fd5b506102016004803603810190808035600019169060200190929190505050610bf2565b6040518082815260200191505060405180910390f35b61025560048036038101908080359060200190929190803573ffffffffffffffffffffffffffffffffffffffff169060200190929190505050610d15565b005b61029b6004803603810190808035906020019092919080359060200190929190803560001916906020019092919080356000191690602001909291905050506111f4565b005b3480156102a957600080fd5b506102d2600480360381019080803590602001909291908035906020019092919050505061169b565b6040518085815260200184600019166000191681526020018360001916600019168152602001826000191660001916815260200194505050505060405180910390f35b34801561032157600080fd5b5061032a61191a565b604051808273ffffffffffffffffffffffffffffffffffffffff1673ffffffffffffffffffffffffffffffffffffffff16815260200191505060405180910390f35b34801561037857600080fd5b5061039760048036038101908080359060200190929190505050611940565b604051808273ffffffffffffffffffffffffffffffffffffffff1673ffffffffffffffffffffffffffffffffffffffff16815260200191505060405180910390f35b3480156103e557600080fd5b506103ee611a95565b005b61045460048036038101908080359060200190929190803590602001908201803590602001908080601f0160208091040260200160405190810160405280939291908181526020018383808284378201915050505050509192919290505050611b54565b005b34801561046257600080fd5b5061046b6120f3565b6040518082815260200191505060405180910390f35b34801561048d57600080fd5b506104b060048036038101908080356000191690602001909291905050506121ee565b604051808273ffffffffffffffffffffffffffffffffffffffff1673ffffffffffffffffffffffffffffffffffffffff16815260200191505060405180910390f35b6105106004803603810190808035906020019092919050505061232e565b005b34801561051e57600080fd5b506105276126ce565b60405180826000191660001916815260200191505060405180910390f35b34801561055157600080fd5b5061055a6126d4565b005b34801561056857600080fd5b50610571612873565b604051808273ffffffffffffffffffffffffffffffffffffffff1673ffffffffffffffffffffffffffffffffffffffff16815260200191505060405180910390f35b3480156105bf57600080fd5b506105c8612899565b604051808215151515815260200191505060405180910390f35b610612600480360381019080803560001916906020019092919080356000191690602001909291905050506128ac565b6040518082815260200191505060405180910390f35b34801561063457600080fd5b5061063d6130d7565b005b610687600480360381019080803590602001909291908035600019169060200190929190803560001916906020019092919080356000191690602001909291905050506131d9565b6040518082815260200191505060405180910390f35b3480156106a957600080fd5b506106b26136e6565b005b3480156106c057600080fd5b506106c96137a5565b604051808273ffffffffffffffffffffffffffffffffffffffff1673ffffffffffffffffffffffffffffffffffffffff16815260200191505060405180910390f35b34801561071757600080fd5b506107206137cb565b604051808273ffffffffffffffffffffffffffffffffffffffff1673ffffffffffffffffffffffffffffffffffffffff16815260200191505060405180910390f35b34801561076e57600080fd5b506107776137f0565b60405180826000191660001916815260200191505060405180910390f35b3480156107a157600080fd5b506107c0600480360381019080803590602001909291905050506137f6565b604051808215151515815260200191505060405180910390f35b3480156107e657600080fd5b50610805600480360381019080803590602001909291905050506138fb565b6040518086815260200185600019166000191681526020018473ffffffffffffffffffffffffffffffffffffffff1673ffffffffffffffffffffffffffffffffffffffff168152602001831515151581526020018281526020019550505050505060405180910390f35b6108bb60048036038101908080359060200190929190803573ffffffffffffffffffffffffffffffffffffffff1690602001909291908035600019169060200190929190505050613a4c565b005b3480156108c957600080fd5b506108f66004803603810190808035906020019092919080356000191690602001909291905050506140ce565b6040518082815260200191505060405180910390f35b61092a6004803603810190808035906020019092919050505061440b565b005b34801561093857600080fd5b5061095b60048036038101908080356000191690602001909291905050506147aa565b604051808215151515815260200191505060405180910390f35b34801561098157600080fd5b506109b6600480360381019080803573ffffffffffffffffffffffffffffffffffffffff1690602001909291905050506147ec565b604051808215151515815260200191505060405180910390f35b3480156109dc57600080fd5b50610a3460048036038101908080359060200190820180359060200190808060200260200160405190810160405280939291908181526020018383602002808284378201915050505050509192919290505050614845565b005b348015610a4257600080fd5b50610a77600480360381019080803573ffffffffffffffffffffffffffffffffffffffff169060200190929190505050614aec565b005b348015610a8557600080fd5b50610a8e614c03565b60405180826000191660001916815260200191505060405180910390f35b348015610ab857600080fd5b50610ac1614c09565b60405180826000191660001916815260200191505060405180910390f35b348015610aeb57600080fd5b50610b0a60048036038101908080359060200190929190505050614c0f565b6040518082815260200191505060405180910390f35b348015610b2c57600080fd5b50610b35614e1d565b604051808273ffffffffffffffffffffffffffffffffffffffff1673ffffffffffffffffffffffffffffffffffffffff16815260200191505060405180910390f35b348015610b8357600080fd5b50610bb8600480360381019080803573ffffffffffffffffffffffffffffffffffffffff169060200190929190505050614e43565b005b610bdc6004803603810190808035600019169060200190929190505050614ee2565b6040518082815260200191505060405180910390f35b60008173__RegistryStorageLib____________________63cc40ddc0600260009054906101000a900473ffffffffffffffffffffffffffffffffffffffff16610c3b84614f88565b6040518363ffffffff167c0100000000000000000000000000000000000000000000000000000000028152600401808373ffffffffffffffffffffffffffffffffffffffff1673ffffffffffffffffffffffffffffffffffffffff1681526020018281526020019250505060206040518083038186803b158015610cbe57600080fd5b505af4158015610cd2573d6000803e3d6000fd5b505050506040513d6020811015610ce857600080fd5b81019080805190602001909291905050501515610d0457600080fd5b610d0d83614f88565b915050919050565b600160149054906101000a900460ff16151515610d3157600080fd5b8173__RegistryStorageLib____________________63cc40ddc0600260009054906101000a900473ffffffffffffffffffffffffffffffffffffffff16836040518363ffffffff167c0100000000000000000000000000000000000000000000000000000000028152600401808373ffffffffffffffffffffffffffffffffffffffff1673ffffffffffffffffffffffffffffffffffffffff1681526020018281526020019250505060206040518083038186803b158015610df357600080fd5b505af4158015610e07573d6000803e3d6000fd5b505050506040513d6020811015610e1d57600080fd5b81019080805190602001909291905050501515610e3957600080fd5b8273__RegistryStorageLib____________________63ac926120600260009054906101000a900473ffffffffffffffffffffffffffffffffffffffff16836040518363ffffffff167c0100000000000000000000000000000000000000000000000000000000028152600401808373ffffffffffffffffffffffffffffffffffffffff1673ffffffffffffffffffffffffffffffffffffffff1681526020018281526020019250505060206040518083038186803b158015610efb57600080fd5b505af4158015610f0f573d6000803e3d6000fd5b505050506040513d6020811015610f2557600080fd5b81019080805190602001909291905050501515610f4157600080fd5b833373ffffffffffffffffffffffffffffffffffffffff1673__RegistryStorageLib____________________63df3967f2600260009054906101000a900473ffffffffffffffffffffffffffffffffffffffff16846040518363ffffffff167c0100000000000000000000000000000000000000000000000000000000028152600401808373ffffffffffffffffffffffffffffffffffffffff1673ffffffffffffffffffffffffffffffffffffffff1681526020018281526020019250505060206040518083038186803b15801561101a57600080fd5b505af415801561102e573d6000803e3d6000fd5b505050506040513d602081101561104457600080fd5b810190808051906020019092919050505073ffffffffffffffffffffffffffffffffffffffff1614151561107757600080fd5b836110978173ffffffffffffffffffffffffffffffffffffffff16615095565b15156110a257600080fd5b73__RegistryStorageLib____________________6347cc57f8600260009054906101000a900473ffffffffffffffffffffffffffffffffffffffff16886004546005548a73ffffffffffffffffffffffffffffffffffffffff166001026040518663ffffffff167c0100000000000000000000000000000000000000000000000000000000028152600401808673ffffffffffffffffffffffffffffffffffffffff1673ffffffffffffffffffffffffffffffffffffffff1681526020018581526020018460001916600019168152602001836000191660001916815260200182600019166000191681526020019550505050505060206040518083038186803b1580156111b057600080fd5b505af41580156111c4573d6000803e3d6000fd5b505050506040513d60208110156111da57600080fd5b810190808051906020019092919050505050505050505050565b600160149054906101000a900460ff1615151561121057600080fd5b8373__RegistryStorageLib____________________63cc40ddc0600260009054906101000a900473ffffffffffffffffffffffffffffffffffffffff16836040518363ffffffff167c0100000000000000000000000000000000000000000000000000000000028152600401808373ffffffffffffffffffffffffffffffffffffffff1673ffffffffffffffffffffffffffffffffffffffff1681526020018281526020019250505060206040518083038186803b1580156112d257600080fd5b505af41580156112e6573d6000803e3d6000fd5b505050506040513d60208110156112fc57600080fd5b8101908080519060200190929190505050151561131857600080fd5b843373ffffffffffffffffffffffffffffffffffffffff1673__RegistryStorageLib____________________63df3967f2600260009054906101000a900473ffffffffffffffffffffffffffffffffffffffff16846040518363ffffffff167c0100000000000000000000000000000000000000000000000000000000028152600401808373ffffffffffffffffffffffffffffffffffffffff1673ffffffffffffffffffffffffffffffffffffffff1681526020018281526020019250505060206040518083038186803b1580156113f157600080fd5b505af4158015611405573d6000803e3d6000fd5b505050506040513d602081101561141b57600080fd5b810190808051906020019092919050505073ffffffffffffffffffffffffffffffffffffffff1614151561144e57600080fd5b858573__RegistryStorageLib____________________63775abae4600260009054906101000a900473ffffffffffffffffffffffffffffffffffffffff1684846040518463ffffffff167c0100000000000000000000000000000000000000000000000000000000028152600401808473ffffffffffffffffffffffffffffffffffffffff1673ffffffffffffffffffffffffffffffffffffffff168152602001838152602001828152602001935050505060206040518083038186803b15801561151957600080fd5b505af415801561152d573d6000803e3d6000fd5b505050506040513d602081101561154357600080fd5b8101908080519060200190929190505050151561155f57600080fd5b8787600073__RegistryStorageLib____________________63afeef9b8600260009054906101000a900473ffffffffffffffffffffffffffffffffffffffff1685856040518463ffffffff167c0100000000000000000000000000000000000000000000000000000000028152600401808473ffffffffffffffffffffffffffffffffffffffff1673ffffffffffffffffffffffffffffffffffffffff168152602001838152602001828152602001935050505060206040518083038186803b15801561162c57600080fd5b505af4158015611640573d6000803e3d6000fd5b505050506040513d602081101561165657600080fd5b810190808051906020019092919050505090506006546000191681600019161415151561168257600080fd5b61168e8b8b8b8b6150a8565b5050505050505050505050565b6000806000806116a9616343565b8673__RegistryStorageLib____________________63cc40ddc0600260009054906101000a900473ffffffffffffffffffffffffffffffffffffffff16836040518363ffffffff167c0100000000000000000000000000000000000000000000000000000000028152600401808373ffffffffffffffffffffffffffffffffffffffff1673ffffffffffffffffffffffffffffffffffffffff1681526020018281526020019250505060206040518083038186803b15801561176b57600080fd5b505af415801561177f573d6000803e3d6000fd5b505050506040513d602081101561179557600080fd5b810190808051906020019092919050505015156117b157600080fd5b878773__RegistryStorageLib____________________63775abae4600260009054906101000a900473ffffffffffffffffffffffffffffffffffffffff1684846040518463ffffffff167c0100000000000000000000000000000000000000000000000000000000028152600401808473ffffffffffffffffffffffffffffffffffffffff1673ffffffffffffffffffffffffffffffffffffffff168152602001838152602001828152602001935050505060206040518083038186803b15801561187c57600080fd5b505af4158015611890573d6000803e3d6000fd5b505050506040513d60208110156118a657600080fd5b810190808051906020019092919050505015156118c257600080fd5b6118ef600260009054906101000a900473ffffffffffffffffffffffffffffffffffffffff168b8b61567d565b9350836020015184606001518560400151866080015197509750975097505050505092959194509250565b600860009054906101000a900473ffffffffffffffffffffffffffffffffffffffff1681565b600061194a616343565b8273__RegistryStorageLib____________________63cc40ddc0600260009054906101000a900473ffffffffffffffffffffffffffffffffffffffff16836040518363ffffffff167c0100000000000000000000000000000000000000000000000000000000028152600401808373ffffffffffffffffffffffffffffffffffffffff1673ffffffffffffffffffffffffffffffffffffffff1681526020018281526020019250505060206040518083038186803b158015611a0c57600080fd5b505af4158015611a20573d6000803e3d6000fd5b505050506040513d6020811015611a3657600080fd5b81019080805190602001909291905050501515611a5257600080fd5b611a81600260009054906101000a900473ffffffffffffffffffffffffffffffffffffffff16856004546156ec565b915081608001516001900492505050919050565b6000809054906101000a900473ffffffffffffffffffffffffffffffffffffffff1673ffffffffffffffffffffffffffffffffffffffff163373ffffffffffffffffffffffffffffffffffffffff16141515611af057600080fd5b600160149054906101000a900460ff161515611b0b57600080fd5b6000600160146101000a81548160ff0219169083151502179055507f7805862f689e2f13df9f062ff482ad3ad112aca9e0847911ed832e158c525b3360405160405180910390a1565b600160149054906101000a900460ff16151515611b7057600080fd5b8173__RegistryStorageLib____________________63cc40ddc0600260009054906101000a900473ffffffffffffffffffffffffffffffffffffffff16836040518363ffffffff167c0100000000000000000000000000000000000000000000000000000000028152600401808373ffffffffffffffffffffffffffffffffffffffff1673ffffffffffffffffffffffffffffffffffffffff1681526020018281526020019250505060206040518083038186803b158015611c3257600080fd5b505af4158015611c46573d6000803e3d6000fd5b505050506040513d6020811015611c5c57600080fd5b81019080805190602001909291905050501515611c7857600080fd5b823373ffffffffffffffffffffffffffffffffffffffff1673__RegistryStorageLib____________________63b3931864600260009054906101000a900473ffffffffffffffffffffffffffffffffffffffff16846040518363ffffffff167c0100000000000000000000000000000000000000000000000000000000028152600401808373ffffffffffffffffffffffffffffffffffffffff1673ffffffffffffffffffffffffffffffffffffffff1681526020018281526020019250505060206040518083038186803b158015611d5157600080fd5b505af4158015611d65573d6000803e3d6000fd5b505050506040513d6020811015611d7b57600080fd5b810190808051906020019092919050505073ffffffffffffffffffffffffffffffffffffffff16141515611dae57600080fd5b838360008073__RegistryStorageLib____________________63634a349d600260009054906101000a900473ffffffffffffffffffffffffffffffffffffffff16866040518363ffffffff167c0100000000000000000000000000000000000000000000000000000000028152600401808373ffffffffffffffffffffffffffffffffffffffff1673ffffffffffffffffffffffffffffffffffffffff1681526020018281526020019250505060206040518083038186803b158015611e7457600080fd5b505af4158015611e88573d6000803e3d6000fd5b505050506040513d6020811015611e9e57600080fd5b81019080805190602001909291905050509150826040516020018082805190602001908083835b602083101515611eea5780518252602082019150602081019050602083039250611ec5565b6001836020036101000a0380198251168184511680821785525050505050509050019150506040516020818303038152906040526040518082805190602001908083835b602083101515611f535780518252602082019150602081019050602083039250611f2e565b6001836020036101000a0380198251168184511680821785525050505050509050019150506040518091039020905080600019168260001916141515611f9857600080fd5b73__RegistryStorageLib____________________635821edb0600260009054906101000a900473ffffffffffffffffffffffffffffffffffffffff168a336040518463ffffffff167c0100000000000000000000000000000000000000000000000000000000028152600401808473ffffffffffffffffffffffffffffffffffffffff1673ffffffffffffffffffffffffffffffffffffffff1681526020018381526020018273ffffffffffffffffffffffffffffffffffffffff1673ffffffffffffffffffffffffffffffffffffffff168152602001935050505060006040518083038186803b15801561208d57600080fd5b505af41580156120a1573d6000803e3d6000fd5b505050503373ffffffffffffffffffffffffffffffffffffffff16887feacf7aee9e4ba56fb2dcdea3b816570de0f2a2e54f43a87a96286bcddec9488960405160405180910390a35050505050505050565b600073__RegistryStorageLib____________________6304543b61600260009054906101000a900473ffffffffffffffffffffffffffffffffffffffff166040518263ffffffff167c0100000000000000000000000000000000000000000000000000000000028152600401808273ffffffffffffffffffffffffffffffffffffffff1673ffffffffffffffffffffffffffffffffffffffff16815260200191505060206040518083038186803b1580156121ae57600080fd5b505af41580156121c2573d6000803e3d6000fd5b505050506040513d60208110156121d857600080fd5b8101908080519060200190929190505050905090565b6000806121f961637c565b8373__RegistryStorageLib____________________63cc40ddc0600260009054906101000a900473ffffffffffffffffffffffffffffffffffffffff1661224084614f88565b6040518363ffffffff167c0100000000000000000000000000000000000000000000000000000000028152600401808373ffffffffffffffffffffffffffffffffffffffff1673ffffffffffffffffffffffffffffffffffffffff1681526020018281526020019250505060206040518083038186803b1580156122c357600080fd5b505af41580156122d7573d6000803e3d6000fd5b505050506040513d60208110156122ed57600080fd5b8101908080519060200190929190505050151561230957600080fd5b61231285610bf2565b925061231d83615724565b915081604001519350505050919050565b600160149054906101000a900460ff1615151561234a57600080fd5b6000809054906101000a900473ffffffffffffffffffffffffffffffffffffffff1673ffffffffffffffffffffffffffffffffffffffff163373ffffffffffffffffffffffffffffffffffffffff161415156123a557600080fd5b8073__RegistryStorageLib____________________63cc40ddc0600260009054906101000a900473ffffffffffffffffffffffffffffffffffffffff16836040518363ffffffff167c0100000000000000000000000000000000000000000000000000000000028152600401808373ffffffffffffffffffffffffffffffffffffffff1673ffffffffffffffffffffffffffffffffffffffff1681526020018281526020019250505060206040518083038186803b15801561246757600080fd5b505af415801561247b573d6000803e3d6000fd5b505050506040513d602081101561249157600080fd5b810190808051906020019092919050505015156124ad57600080fd5b8173__RegistryStorageLib____________________63ac926120600260009054906101000a900473ffffffffffffffffffffffffffffffffffffffff16836040518363ffffffff167c0100000000000000000000000000000000000000000000000000000000028152600401808373ffffffffffffffffffffffffffffffffffffffff1673ffffffffffffffffffffffffffffffffffffffff1681526020018281526020019250505060206040518083038186803b15801561256f57600080fd5b505af4158015612583573d6000803e3d6000fd5b505050506040513d602081101561259957600080fd5b81019080805190602001909291905050501515156125b657600080fd5b73__RegistryStorageLib____________________63d8263dac600260009054906101000a900473ffffffffffffffffffffffffffffffffffffffff168560016040518463ffffffff167c0100000000000000000000000000000000000000000000000000000000028152600401808473ffffffffffffffffffffffffffffffffffffffff1673ffffffffffffffffffffffffffffffffffffffff16815260200183815260200182151515158152602001935050505060006040518083038186803b15801561268457600080fd5b505af4158015612698573d6000803e3d6000fd5b50505050827f6c1c54cd1cc41dc1d40182830f8d9a3d73a7775038c567cb154b38a2355da9a160405160405180910390a2505050565b60055481565b600160009054906101000a900473ffffffffffffffffffffffffffffffffffffffff1673ffffffffffffffffffffffffffffffffffffffff163373ffffffffffffffffffffffffffffffffffffffff1614151561273057600080fd5b600160009054906101000a900473ffffffffffffffffffffffffffffffffffffffff1673ffffffffffffffffffffffffffffffffffffffff166000809054906101000a900473ffffffffffffffffffffffffffffffffffffffff1673ffffffffffffffffffffffffffffffffffffffff167f8be0079c531659141344cd1fd0a4f28419497f9722a3daafe3b4186f6b6457e060405160405180910390a3600160009054906101000a900473ffffffffffffffffffffffffffffffffffffffff166000806101000a81548173ffffffffffffffffffffffffffffffffffffffff021916908373ffffffffffffffffffffffffffffffffffffffff1602179055506000600160006101000a81548173ffffffffffffffffffffffffffffffffffffffff021916908373ffffffffffffffffffffffffffffffffffffffff160217905550565b600360009054906101000a900473ffffffffffffffffffffffffffffffffffffffff1681565b600160149054906101000a900460ff1681565b600080600160149054906101000a900460ff161515156128cb57600080fd5b836011816000191673__ByteUtilsLib__________________________6335d7654d90916040518263ffffffff167c010000000000000000000000000000000000000000000000000000000002815260040180826000191660001916815260200191505060206040518083038186803b15801561294757600080fd5b505af415801561295b573d6000803e3d6000fd5b505050506040513d602081101561297157600080fd5b810190808051906020019092919050505014151561298e57600080fd5b8473__RegistryStorageLib____________________63cc40ddc0600260009054906101000a900473ffffffffffffffffffffffffffffffffffffffff166129d584614f88565b6040518363ffffffff167c0100000000000000000000000000000000000000000000000000000000028152600401808373ffffffffffffffffffffffffffffffffffffffff1673ffffffffffffffffffffffffffffffffffffffff1681526020018281526020019250505060206040518083038186803b158015612a5857600080fd5b505af4158015612a6c573d6000803e3d6000fd5b505050506040513d6020811015612a8257600080fd5b8101908080519060200190929190505050151515612a9f57600080fd5b34600360009054906101000a900473ffffffffffffffffffffffffffffffffffffffff1673ffffffffffffffffffffffffffffffffffffffff166388a6f5726040518163ffffffff167c0100000000000000000000000000000000000000000000000000000000028152600401602060405180830381600087803b158015612b2657600080fd5b505af1158015612b3a573d6000803e3d6000fd5b505050506040513d6020811015612b5057600080fd5b810190808051906020019092919050505011151515612b6e57600080fd5b84600860009054906101000a900473ffffffffffffffffffffffffffffffffffffffff1673ffffffffffffffffffffffffffffffffffffffff1663c02b4991826040518263ffffffff167c0100000000000000000000000000000000000000000000000000000000028152600401808260001916600019168152602001915050602060405180830381600087803b158015612c0857600080fd5b505af1158015612c1c573d6000803e3d6000fd5b505050506040513d6020811015612c3257600080fd5b81019080805190602001909291905050501515612c4e57600080fd5b853373ffffffffffffffffffffffffffffffffffffffff16600860009054906101000a900473ffffffffffffffffffffffffffffffffffffffff1673ffffffffffffffffffffffffffffffffffffffff16634b3cb584836040518263ffffffff167c0100000000000000000000000000000000000000000000000000000000028152600401808260001916600019168152602001915050602060405180830381600087803b158015612cff57600080fd5b505af1158015612d13573d6000803e3d6000fd5b505050506040513d6020811015612d2957600080fd5b810190808051906020019092919050505073ffffffffffffffffffffffffffffffffffffffff16141515612d5c57600080fd5b7ffee95ecae0c8f7f0743ec0ad254c78ab75e5ecca9f1ddcd9f11f9a98124b96bc6040518080602001828103825260158152602001807f426567696e20726567697374657256656869636c65000000000000000000000081525060200191505060405180910390a173__RegistryStorageLib____________________631e87dd3a600260009054906101000a900473ffffffffffffffffffffffffffffffffffffffff168a336040518463ffffffff167c0100000000000000000000000000000000000000000000000000000000028152600401808473ffffffffffffffffffffffffffffffffffffffff1673ffffffffffffffffffffffffffffffffffffffff16815260200183600019166000191681526020018273ffffffffffffffffffffffffffffffffffffffff1673ffffffffffffffffffffffffffffffffffffffff168152602001935050505060206040518083038186803b158015612ec157600080fd5b505af4158015612ed5573d6000803e3d6000fd5b505050506040513d6020811015612eeb57600080fd5b8101908080519060200190929190505050945073__RegistryStorageLib____________________63cbc4a142600260009054906101000a900473ffffffffffffffffffffffffffffffffffffffff16876006546007548c6040518663ffffffff167c0100000000000000000000000000000000000000000000000000000000028152600401808673ffffffffffffffffffffffffffffffffffffffff1673ffffffffffffffffffffffffffffffffffffffff1681526020018581526020018460001916600019168152602001836000191660001916815260200182600019166000191681526020019550505050505060206040518083038186803b158015612ff357600080fd5b505af4158015613007573d6000803e3d6000fd5b505050506040513d602081101561301d57600080fd5b8101908080519060200190929190505050508760001916857f477b3314cd7115720db0596138d56c5433466f6c53df7c920e096fbc06bc175e60405160405180910390a37ffee95ecae0c8f7f0743ec0ad254c78ab75e5ecca9f1ddcd9f11f9a98124b96bc6040518080602001828103825260138152602001807f456e6420726567697374657256656869636c650000000000000000000000000081525060200191505060405180910390a1849550505050505092915050565b6000809054906101000a900473ffffffffffffffffffffffffffffffffffffffff1673ffffffffffffffffffffffffffffffffffffffff163373ffffffffffffffffffffffffffffffffffffffff1614151561313257600080fd5b6000809054906101000a900473ffffffffffffffffffffffffffffffffffffffff1673ffffffffffffffffffffffffffffffffffffffff167ff8df31144d9c2f0f6b59d69b8b98abd5459d07f2742c4df920b25aae33c6482060405160405180910390a260008060006101000a81548173ffffffffffffffffffffffffffffffffffffffff021916908373ffffffffffffffffffffffffffffffffffffffff160217905550565b600080600160149054906101000a900460ff161515156131f857600080fd5b8573__RegistryStorageLib____________________63cc40ddc0600260009054906101000a900473ffffffffffffffffffffffffffffffffffffffff16836040518363ffffffff167c0100000000000000000000000000000000000000000000000000000000028152600401808373ffffffffffffffffffffffffffffffffffffffff1673ffffffffffffffffffffffffffffffffffffffff1681526020018281526020019250505060206040518083038186803b1580156132ba57600080fd5b505af41580156132ce573d6000803e3d6000fd5b505050506040513d60208110156132e457600080fd5b8101908080519060200190929190505050151561330057600080fd5b863373ffffffffffffffffffffffffffffffffffffffff1673__RegistryStorageLib____________________63df3967f2600260009054906101000a900473ffffffffffffffffffffffffffffffffffffffff16846040518363ffffffff167c0100000000000000000000000000000000000000000000000000000000028152600401808373ffffffffffffffffffffffffffffffffffffffff1673ffffffffffffffffffffffffffffffffffffffff1681526020018281526020019250505060206040518083038186803b1580156133d957600080fd5b505af41580156133ed573d6000803e3d6000fd5b505050506040513d602081101561340357600080fd5b810190808051906020019092919050505073ffffffffffffffffffffffffffffffffffffffff1614151561343657600080fd5b8787600073__RegistryStorageLib____________________639b15b8b2600260009054906101000a900473ffffffffffffffffffffffffffffffffffffffff1685856040518463ffffffff167c0100000000000000000000000000000000000000000000000000000000028152600401808473ffffffffffffffffffffffffffffffffffffffff1673ffffffffffffffffffffffffffffffffffffffff1681526020018381526020018260001916600019168152602001935050505060206040518083038186803b15801561350b57600080fd5b505af415801561351f573d6000803e3d6000fd5b505050506040513d602081101561353557600080fd5b810190808051906020019092919050505014151561355257600080fd5b73__RegistryStorageLib____________________63cbc4a142600260009054906101000a900473ffffffffffffffffffffffffffffffffffffffff168c8c8c8c6040518663ffffffff167c0100000000000000000000000000000000000000000000000000000000028152600401808673ffffffffffffffffffffffffffffffffffffffff1673ffffffffffffffffffffffffffffffffffffffff1681526020018581526020018460001916600019168152602001836000191660001916815260200182600019166000191681526020019550505050505060206040518083038186803b15801561364357600080fd5b505af4158015613657573d6000803e3d6000fd5b505050506040513d602081101561366d57600080fd5b810190808051906020019092919050505094508860001916858b7fc4970cc78910aa0998aca6333d6db8a393651a6560a464ddc2d6bbbed55cfc1e8b8b60405180836000191660001916815260200182600019166000191681526020019250505060405180910390a48495505050505050949350505050565b6000809054906101000a900473ffffffffffffffffffffffffffffffffffffffff1673ffffffffffffffffffffffffffffffffffffffff163373ffffffffffffffffffffffffffffffffffffffff1614151561374157600080fd5b600160149054906101000a900460ff1615151561375d57600080fd5b60018060146101000a81548160ff0219169083151502179055507f6985a02210a168e66602d3235cb6db0e70f92b3ba4d376a33c0f3d9434bff62560405160405180910390a1565b600260009054906101000a900473ffffffffffffffffffffffffffffffffffffffff1681565b6000809054906101000a900473ffffffffffffffffffffffffffffffffffffffff1681565b60045481565b600073__RegistryStorageLib____________________63cc40ddc0600260009054906101000a900473ffffffffffffffffffffffffffffffffffffffff16846040518363ffffffff167c0100000000000000000000000000000000000000000000000000000000028152600401808373ffffffffffffffffffffffffffffffffffffffff1673ffffffffffffffffffffffffffffffffffffffff1681526020018281526020019250505060206040518083038186803b1580156138b957600080fd5b505af41580156138cd573d6000803e3d6000fd5b505050506040513d60208110156138e357600080fd5b81019080805190602001909291905050509050919050565b600080600080600061390b61637c565b8673__RegistryStorageLib____________________63cc40ddc0600260009054906101000a900473ffffffffffffffffffffffffffffffffffffffff16836040518363ffffffff167c0100000000000000000000000000000000000000000000000000000000028152600401808373ffffffffffffffffffffffffffffffffffffffff1673ffffffffffffffffffffffffffffffffffffffff1681526020018281526020019250505060206040518083038186803b1580156139cd57600080fd5b505af41580156139e1573d6000803e3d6000fd5b505050506040513d60208110156139f757600080fd5b81019080805190602001909291905050501515613a1357600080fd5b613a1c88615724565b91508160000151965081602001519550816040015194508160600151935081608001519250505091939590929450565b6000600160149054906101000a900460ff16151515613a6a57600080fd5b8373__RegistryStorageLib____________________63cc40ddc0600260009054906101000a900473ffffffffffffffffffffffffffffffffffffffff16836040518363ffffffff167c0100000000000000000000000000000000000000000000000000000000028152600401808373ffffffffffffffffffffffffffffffffffffffff1673ffffffffffffffffffffffffffffffffffffffff1681526020018281526020019250505060206040518083038186803b158015613b2c57600080fd5b505af4158015613b40573d6000803e3d6000fd5b505050506040513d6020811015613b5657600080fd5b81019080805190602001909291905050501515613b7257600080fd5b843373ffffffffffffffffffffffffffffffffffffffff1673__RegistryStorageLib____________________63df3967f2600260009054906101000a900473ffffffffffffffffffffffffffffffffffffffff16846040518363ffffffff167c0100000000000000000000000000000000000000000000000000000000028152600401808373ffffffffffffffffffffffffffffffffffffffff1673ffffffffffffffffffffffffffffffffffffffff1681526020018281526020019250505060206040518083038186803b158015613c4b57600080fd5b505af4158015613c5f573d6000803e3d6000fd5b505050506040513d6020811015613c7557600080fd5b810190808051906020019092919050505073ffffffffffffffffffffffffffffffffffffffff16141515613ca857600080fd5b34600360009054906101000a900473ffffffffffffffffffffffffffffffffffffffff1673ffffffffffffffffffffffffffffffffffffffff166388a6f5726040518163ffffffff167c0100000000000000000000000000000000000000000000000000000000028152600401602060405180830381600087803b158015613d2f57600080fd5b505af1158015613d43573d6000803e3d6000fd5b505050506040513d6020811015613d5957600080fd5b810190808051906020019092919050505011151515613d7757600080fd5b73__RegistryStorageLib____________________63df3967f2600260009054906101000a900473ffffffffffffffffffffffffffffffffffffffff16886040518363ffffffff167c0100000000000000000000000000000000000000000000000000000000028152600401808373ffffffffffffffffffffffffffffffffffffffff1673ffffffffffffffffffffffffffffffffffffffff1681526020018281526020019250505060206040518083038186803b158015613e3857600080fd5b505af4158015613e4c573d6000803e3d6000fd5b505050506040513d6020811015613e6257600080fd5b8101908080519060200190929190505050925073__RegistryStorageLib____________________6339e7c3d6600260009054906101000a900473ffffffffffffffffffffffffffffffffffffffff1688886040518463ffffffff167c0100000000000000000000000000000000000000000000000000000000028152600401808473ffffffffffffffffffffffffffffffffffffffff1673ffffffffffffffffffffffffffffffffffffffff1681526020018381526020018273ffffffffffffffffffffffffffffffffffffffff1673ffffffffffffffffffffffffffffffffffffffff168152602001935050505060006040518083038186803b158015613f6a57600080fd5b505af4158015613f7e573d6000803e3d6000fd5b5050505073__RegistryStorageLib____________________6361071fc8600260009054906101000a900473ffffffffffffffffffffffffffffffffffffffff1688876040518463ffffffff167c0100000000000000000000000000000000000000000000000000000000028152600401808473ffffffffffffffffffffffffffffffffffffffff1673ffffffffffffffffffffffffffffffffffffffff1681526020018381526020018260001916600019168152602001935050505060006040518083038186803b15801561405357600080fd5b505af4158015614067573d6000803e3d6000fd5b505050508473ffffffffffffffffffffffffffffffffffffffff168373ffffffffffffffffffffffffffffffffffffffff16877f16da62289fb03291b4545b27ad6fd3329305dfae113f331e8523fcb90148cc6560405160405180910390a4505050505050565b60008273__RegistryStorageLib____________________63cc40ddc0600260009054906101000a900473ffffffffffffffffffffffffffffffffffffffff16836040518363ffffffff167c0100000000000000000000000000000000000000000000000000000000028152600401808373ffffffffffffffffffffffffffffffffffffffff1673ffffffffffffffffffffffffffffffffffffffff1681526020018281526020019250505060206040518083038186803b15801561419257600080fd5b505af41580156141a6573d6000803e3d6000fd5b505050506040513d60208110156141bc57600080fd5b810190808051906020019092919050505015156141d857600080fd5b8383600073__RegistryStorageLib____________________639b15b8b2600260009054906101000a900473ffffffffffffffffffffffffffffffffffffffff1685856040518463ffffffff167c0100000000000000000000000000000000000000000000000000000000028152600401808473ffffffffffffffffffffffffffffffffffffffff1673ffffffffffffffffffffffffffffffffffffffff1681526020018381526020018260001916600019168152602001935050505060206040518083038186803b1580156142ad57600080fd5b505af41580156142c1573d6000803e3d6000fd5b505050506040513d60208110156142d757600080fd5b81019080805190602001909291905050501115156142f457600080fd5b73__RegistryStorageLib____________________639b15b8b2600260009054906101000a900473ffffffffffffffffffffffffffffffffffffffff1688886040518463ffffffff167c0100000000000000000000000000000000000000000000000000000000028152600401808473ffffffffffffffffffffffffffffffffffffffff1673ffffffffffffffffffffffffffffffffffffffff1681526020018381526020018260001916600019168152602001935050505060206040518083038186803b1580156143c557600080fd5b505af41580156143d9573d6000803e3d6000fd5b505050506040513d60208110156143ef57600080fd5b8101908080519060200190929190505050935050505092915050565b600160149054906101000a900460ff1615151561442757600080fd5b6000809054906101000a900473ffffffffffffffffffffffffffffffffffffffff1673ffffffffffffffffffffffffffffffffffffffff163373ffffffffffffffffffffffffffffffffffffffff1614151561448257600080fd5b8073__RegistryStorageLib____________________63cc40ddc0600260009054906101000a900473ffffffffffffffffffffffffffffffffffffffff16836040518363ffffffff167c0100000000000000000000000000000000000000000000000000000000028152600401808373ffffffffffffffffffffffffffffffffffffffff1673ffffffffffffffffffffffffffffffffffffffff1681526020018281526020019250505060206040518083038186803b15801561454457600080fd5b505af4158015614558573d6000803e3d6000fd5b505050506040513d602081101561456e57600080fd5b8101908080519060200190929190505050151561458a57600080fd5b8173__RegistryStorageLib____________________63ac926120600260009054906101000a900473ffffffffffffffffffffffffffffffffffffffff16836040518363ffffffff167c0100000000000000000000000000000000000000000000000000000000028152600401808373ffffffffffffffffffffffffffffffffffffffff1673ffffffffffffffffffffffffffffffffffffffff1681526020018281526020019250505060206040518083038186803b15801561464c57600080fd5b505af4158015614660573d6000803e3d6000fd5b505050506040513d602081101561467657600080fd5b8101908080519060200190929190505050151561469257600080fd5b73__RegistryStorageLib____________________63d8263dac600260009054906101000a900473ffffffffffffffffffffffffffffffffffffffff168560006040518463ffffffff167c0100000000000000000000000000000000000000000000000000000000028152600401808473ffffffffffffffffffffffffffffffffffffffff1673ffffffffffffffffffffffffffffffffffffffff16815260200183815260200182151515158152602001935050505060006040518083038186803b15801561476057600080fd5b505af4158015614774573d6000803e3d6000fd5b50505050827f77a26bc01a7c1a1fc488dda7972e7db7e69f5d94fb4a553c00e2dfc462f2167860405160405180910390a2505050565b6000806147b561637c565b6147be84614f88565b915060008214156147d257600092506147e5565b6147db82615724565b9050806060015192505b5050919050565b60008060009054906101000a900473ffffffffffffffffffffffffffffffffffffffff1673ffffffffffffffffffffffffffffffffffffffff168273ffffffffffffffffffffffffffffffffffffffff16149050919050565b60008060008060009054906101000a900473ffffffffffffffffffffffffffffffffffffffff1673ffffffffffffffffffffffffffffffffffffffff163373ffffffffffffffffffffffffffffffffffffffff161415156148a557600080fd5b600092505b8351831015614ab25783838151811015156148c157fe5b9060200190602002015191508173ffffffffffffffffffffffffffffffffffffffff166370a08231306040518263ffffffff167c0100000000000000000000000000000000000000000000000000000000028152600401808273ffffffffffffffffffffffffffffffffffffffff1673ffffffffffffffffffffffffffffffffffffffff168152602001915050602060405180830381600087803b15801561496857600080fd5b505af115801561497c573d6000803e3d6000fd5b505050506040513d602081101561499257600080fd5b810190808051906020019092919050505090508173ffffffffffffffffffffffffffffffffffffffff1663a9059cbb6000809054906101000a900473ffffffffffffffffffffffffffffffffffffffff16836040518363ffffffff167c0100000000000000000000000000000000000000000000000000000000028152600401808373ffffffffffffffffffffffffffffffffffffffff1673ffffffffffffffffffffffffffffffffffffffff16815260200182815260200192505050602060405180830381600087803b158015614a6957600080fd5b505af1158015614a7d573d6000803e3d6000fd5b505050506040513d6020811015614a9357600080fd5b81019080805190602001909291905050505082806001019350506148aa565b6000809054906101000a900473ffffffffffffffffffffffffffffffffffffffff1673ffffffffffffffffffffffffffffffffffffffff16ff5b6000809054906101000a900473ffffffffffffffffffffffffffffffffffffffff1673ffffffffffffffffffffffffffffffffffffffff163373ffffffffffffffffffffffffffffffffffffffff16141515614b4757600080fd5b600160149054906101000a900460ff161515614b6257600080fd5b600360009054906101000a900473ffffffffffffffffffffffffffffffffffffffff1673ffffffffffffffffffffffffffffffffffffffff168173ffffffffffffffffffffffffffffffffffffffff1614151515614bbf57600080fd5b80600360006101000a81548173ffffffffffffffffffffffffffffffffffffffff021916908373ffffffffffffffffffffffffffffffffffffffff16021790555050565b60075481565b60065481565b60008173__RegistryStorageLib____________________63cc40ddc0600260009054906101000a900473ffffffffffffffffffffffffffffffffffffffff16836040518363ffffffff167c0100000000000000000000000000000000000000000000000000000000028152600401808373ffffffffffffffffffffffffffffffffffffffff1673ffffffffffffffffffffffffffffffffffffffff1681526020018281526020019250505060206040518083038186803b158015614cd357600080fd5b505af4158015614ce7573d6000803e3d6000fd5b505050506040513d6020811015614cfd57600080fd5b81019080805190602001909291905050501515614d1957600080fd5b73__RegistryStorageLib____________________6315f22968600260009054906101000a900473ffffffffffffffffffffffffffffffffffffffff16856040518363ffffffff167c0100000000000000000000000000000000000000000000000000000000028152600401808373ffffffffffffffffffffffffffffffffffffffff1673ffffffffffffffffffffffffffffffffffffffff1681526020018281526020019250505060206040518083038186803b158015614dda57600080fd5b505af4158015614dee573d6000803e3d6000fd5b505050506040513d6020811015614e0457600080fd5b8101908080519060200190929190505050915050919050565b600160009054906101000a900473ffffffffffffffffffffffffffffffffffffffff1681565b6000809054906101000a900473ffffffffffffffffffffffffffffffffffffffff1673ffffffffffffffffffffffffffffffffffffffff163373ffffffffffffffffffffffffffffffffffffffff16141515614e9e57600080fd5b80600160006101000a81548173ffffffffffffffffffffffffffffffffffffffff021916908373ffffffffffffffffffffffffffffffffffffffff16021790555050565b6000801515614f7f576040517f08c379a000000000000000000000000000000000000000000000000000000000815260040180806020018281038252602e8152602001807f46756e6374696f6e2064697361626c65642e207573652072656769737465725681526020017f656869636c6520696e737465616400000000000000000000000000000000000081525060400191505060405180910390fd5b60009050919050565b600073__RegistryStorageLib____________________63bd64b8a6600260009054906101000a900473ffffffffffffffffffffffffffffffffffffffff16846040518363ffffffff167c0100000000000000000000000000000000000000000000000000000000028152600401808373ffffffffffffffffffffffffffffffffffffffff1673ffffffffffffffffffffffffffffffffffffffff16815260200182600019166000191681526020019250505060206040518083038186803b15801561505357600080fd5b505af4158015615067573d6000803e3d6000fd5b505050506040513d602081101561507d57600080fd5b81019080805190602001909291905050509050919050565b600080823b905060008111915050919050565b6000600160149054906101000a900460ff161515156150c657600080fd5b8473__RegistryStorageLib____________________63cc40ddc0600260009054906101000a900473ffffffffffffffffffffffffffffffffffffffff16836040518363ffffffff167c0100000000000000000000000000000000000000000000000000000000028152600401808373ffffffffffffffffffffffffffffffffffffffff1673ffffffffffffffffffffffffffffffffffffffff1681526020018281526020019250505060206040518083038186803b15801561518857600080fd5b505af415801561519c573d6000803e3d6000fd5b505050506040513d60208110156151b257600080fd5b810190808051906020019092919050505015156151ce57600080fd5b853373ffffffffffffffffffffffffffffffffffffffff1673__RegistryStorageLib____________________63df3967f2600260009054906101000a900473ffffffffffffffffffffffffffffffffffffffff16846040518363ffffffff167c0100000000000000000000000000000000000000000000000000000000028152600401808373ffffffffffffffffffffffffffffffffffffffff1673ffffffffffffffffffffffffffffffffffffffff1681526020018281526020019250505060206040518083038186803b1580156152a757600080fd5b505af41580156152bb573d6000803e3d6000fd5b505050506040513d60208110156152d157600080fd5b810190808051906020019092919050505073ffffffffffffffffffffffffffffffffffffffff1614151561530457600080fd5b868673__RegistryStorageLib____________________63775abae4600260009054906101000a900473ffffffffffffffffffffffffffffffffffffffff1684846040518463ffffffff167c0100000000000000000000000000000000000000000000000000000000028152600401808473ffffffffffffffffffffffffffffffffffffffff1673ffffffffffffffffffffffffffffffffffffffff168152602001838152602001828152602001935050505060206040518083038186803b1580156153cf57600080fd5b505af41580156153e3573d6000803e3d6000fd5b505050506040513d60208110156153f957600080fd5b8101908080519060200190929190505050151561541557600080fd5b73__RegistryStorageLib____________________63f9db0652600260009054906101000a900473ffffffffffffffffffffffffffffffffffffffff168b8b8b8b6040518663ffffffff167c0100000000000000000000000000000000000000000000000000000000028152600401808673ffffffffffffffffffffffffffffffffffffffff1673ffffffffffffffffffffffffffffffffffffffff168152602001858152602001848152602001836000191660001916815260200182600019166000191681526020019550505050505060006040518083038186803b1580156154fe57600080fd5b505af4158015615512573d6000803e3d6000fd5b5050505073__RegistryStorageLib____________________63afeef9b8600260009054906101000a900473ffffffffffffffffffffffffffffffffffffffff168b8b6040518463ffffffff167c0100000000000000000000000000000000000000000000000000000000028152600401808473ffffffffffffffffffffffffffffffffffffffff1673ffffffffffffffffffffffffffffffffffffffff168152602001838152602001828152602001935050505060206040518083038186803b1580156155df57600080fd5b505af41580156155f3573d6000803e3d6000fd5b505050506040513d602081101561560957600080fd5b810190808051906020019092919050505094508460001916888a7fc4970cc78910aa0998aca6333d6db8a393651a6560a464ddc2d6bbbed55cfc1e8a8a60405180836000191660001916815260200182600019166000191681526020019250505060405180910390a4505050505050505050565b615685616343565b61568d616343565b60a0604051908101604052808581526020018481526020016156b087878761576b565b6000191681526020016156c48787876158d9565b6000191681526020016156d8878787615a47565b600019168152509050809150509392505050565b6156f4616343565b60006156fe616343565b615709868686615bb5565b915061571686868461567d565b905080925050509392505050565b61572c61637c565b61573461637c565b615760600260009054906101000a900473ffffffffffffffffffffffffffffffffffffffff1684615d2b565b905080915050919050565b60008373ffffffffffffffffffffffffffffffffffffffff1663025ec81a848460405160200180838152602001828152602001807f7479706500000000000000000000000000000000000000000000000000000000815250600401925050506040516020818303038152906040526040518082805190602001908083835b60208310151561580e57805182526020820191506020810190506020830392506157e9565b6001836020036101000a03801982511681845116808217855250505050505090500191505060405180910390206040518263ffffffff167c0100000000000000000000000000000000000000000000000000000000028152600401808260001916600019168152602001915050602060405180830381600087803b15801561589557600080fd5b505af11580156158a9573d6000803e3d6000fd5b505050506040513d60208110156158bf57600080fd5b810190808051906020019092919050505090509392505050565b60008373ffffffffffffffffffffffffffffffffffffffff1663025ec81a848460405160200180838152602001828152602001807f6e616d6500000000000000000000000000000000000000000000000000000000815250600401925050506040516020818303038152906040526040518082805190602001908083835b60208310151561597c5780518252602082019150602081019050602083039250615957565b6001836020036101000a03801982511681845116808217855250505050505090500191505060405180910390206040518263ffffffff167c0100000000000000000000000000000000000000000000000000000000028152600401808260001916600019168152602001915050602060405180830381600087803b158015615a0357600080fd5b505af1158015615a17573d6000803e3d6000fd5b505050506040513d6020811015615a2d57600080fd5b810190808051906020019092919050505090509392505050565b60008373ffffffffffffffffffffffffffffffffffffffff1663025ec81a848460405160200180838152602001828152602001807f76616c7565000000000000000000000000000000000000000000000000000000815250600501925050506040516020818303038152906040526040518082805190602001908083835b602083101515615aea5780518252602082019150602081019050602083039250615ac5565b6001836020036101000a03801982511681845116808217855250505050505090500191505060405180910390206040518263ffffffff167c0100000000000000000000000000000000000000000000000000000000028152600401808260001916600019168152602001915050602060405180830381600087803b158015615b7157600080fd5b505af1158015615b85573d6000803e3d6000fd5b505050506040513d6020811015615b9b57600080fd5b810190808051906020019092919050505090509392505050565b60008373ffffffffffffffffffffffffffffffffffffffff1663ac0945538484604051602001808381526020018260001916600019168152602001807f6e756d6265720000000000000000000000000000000000000000000000000000815250600601925050506040516020818303038152906040526040518082805190602001908083835b602083101515615c605780518252602082019150602081019050602083039250615c3b565b6001836020036101000a03801982511681845116808217855250505050505090500191505060405180910390206040518263ffffffff167c0100000000000000000000000000000000000000000000000000000000028152600401808260001916600019168152602001915050602060405180830381600087803b158015615ce757600080fd5b505af1158015615cfb573d6000803e3d6000fd5b505050506040513d6020811015615d1157600080fd5b810190808051906020019092919050505090509392505050565b615d3361637c565b615d3b61637c565b60a060405190810160405280848152602001615d578686615daf565b600019168152602001615d6a8686615f14565b73ffffffffffffffffffffffffffffffffffffffff168152602001615d8f8686616079565b15158152602001615da086866161de565b81525090508091505092915050565b60008273ffffffffffffffffffffffffffffffffffffffff1663025ec81a8360405160200180828152602001807f69640000000000000000000000000000000000000000000000000000000000008152506002019150506040516020818303038152906040526040518082805190602001908083835b602083101515615e4a5780518252602082019150602081019050602083039250615e25565b6001836020036101000a03801982511681845116808217855250505050505090500191505060405180910390206040518263ffffffff167c0100000000000000000000000000000000000000000000000000000000028152600401808260001916600019168152602001915050602060405180830381600087803b158015615ed157600080fd5b505af1158015615ee5573d6000803e3d6000fd5b505050506040513d6020811015615efb57600080fd5b8101908080519060200190929190505050905092915050565b60008273ffffffffffffffffffffffffffffffffffffffff16634c77e5ba8360405160200180828152602001807f6f776e65720000000000000000000000000000000000000000000000000000008152506005019150506040516020818303038152906040526040518082805190602001908083835b602083101515615faf5780518252602082019150602081019050602083039250615f8a565b6001836020036101000a03801982511681845116808217855250505050505090500191505060405180910390206040518263ffffffff167c0100000000000000000000000000000000000000000000000000000000028152600401808260001916600019168152602001915050602060405180830381600087803b15801561603657600080fd5b505af115801561604a573d6000803e3d6000fd5b505050506040513d602081101561606057600080fd5b8101908080519060200190929190505050905092915050565b60008273ffffffffffffffffffffffffffffffffffffffff166317e7dd228360405160200180828152602001807f656e61626c6564000000000000000000000000000000000000000000000000008152506007019150506040516020818303038152906040526040518082805190602001908083835b60208310151561611457805182526020820191506020810190506020830392506160ef565b6001836020036101000a03801982511681845116808217855250505050505090500191505060405180910390206040518263ffffffff167c0100000000000000000000000000000000000000000000000000000000028152600401808260001916600019168152602001915050602060405180830381600087803b15801561619b57600080fd5b505af11580156161af573d6000803e3d6000fd5b505050506040513d60208110156161c557600080fd5b8101908080519060200190929190505050905092915050565b60008273ffffffffffffffffffffffffffffffffffffffff1663ac0945538360405160200180828152602001807f63726561746564000000000000000000000000000000000000000000000000008152506007019150506040516020818303038152906040526040518082805190602001908083835b6020831015156162795780518252602082019150602081019050602083039250616254565b6001836020036101000a03801982511681845116808217855250505050505090500191505060405180910390206040518263ffffffff167c0100000000000000000000000000000000000000000000000000000000028152600401808260001916600019168152602001915050602060405180830381600087803b15801561630057600080fd5b505af1158015616314573d6000803e3d6000fd5b505050506040513d602081101561632a57600080fd5b8101908080519060200190929190505050905092915050565b60a06040519081016040528060008152602001600081526020016000801916815260200160008019168152602001600080191681525090565b60a0604051908101604052806000815260200160008019168152602001600073ffffffffffffffffffffffffffffffffffffffff1681526020016000151581526020016000815250905600a165627a7a72305820cf5bfb2c281a92736ddd2e494e2c5707b66636cefabdb167d66103a5a26c063a0029",
  "source": "pragma solidity ^0.4.23;\r\n\r\nimport \"./ByteUtilsLib.sol\";\r\nimport \"./Registry.sol\";\r\nimport \"./IRegistryLookup.sol\";\r\nimport \"../node_modules/openzeppelin-solidity/contracts/AddressUtils.sol\";\r\nimport \"./RegistryStorageLib.sol\";\r\n\r\n/** @title Vehicle Registry\r\n  * @dev A registry of vehicles inheriting from Registry.\r\n  * With some vehicle specific functions and overrides of base Registry functions.\r\n */\r\ncontract VehicleRegistry is Registry {\r\n\r\n    using ByteUtilsLib for bytes32;\r\n    using AddressUtils for address;\r\n\r\n\r\n    /** @dev the attribute name used for the maintenance log. */\r\n    bytes32 public maintenanceLogAttributeName;\r\n    /** @dev the attribute type assigned to the maintenance log. */\r\n    bytes32 public maintenanceLogAttributeType;\r\n    /** @dev the attribute name for manufacturer name. */\r\n    bytes32 public manufacturerAttributeName;\r\n    /** @dev the attribute type for the manufacturer. */\r\n    bytes32 public manufacturerAttributeType;\r\n    /** @dev the address of the manufacturer registry contract (IRegistryLookup). */\r\n    address public manufacturerRegistryAddress;\r\n\r\n    /** @dev The Constructor\r\n      * @param _storageAddress the address of the eternal storage contract where the registry data will be stored.\r\n      * @param _feeLookupAddress the address of the contract implementing IFeeLookup for returning registration transfer fees.\r\n      * @param _manufacturerRegistryAddress the address of the manufacturer registry contract implementing IRegistryLookup.\r\n     */\r\n    constructor(address _storageAddress, address _feeLookupAddress, address _manufacturerRegistryAddress) \r\n        Registry(_storageAddress, _feeLookupAddress)\r\n        public {\r\n        require(_manufacturerRegistryAddress.isContract());\r\n        manufacturerRegistryAddress = _manufacturerRegistryAddress;\r\n        manufacturerAttributeName = \"manufacturer\";\r\n        manufacturerAttributeType = \"id\";\r\n        maintenanceLogAttributeName = \"maintenanceLog\";\r\n        maintenanceLogAttributeType = \"address\";\r\n    }\r\n\r\n//modifiers\r\n    /** @dev Modifier - throws if manufacturer is not registered or not enabled.\r\n      * @param _manufacturerId the manufacturer id.\r\n    */\r\n    modifier registeredAndEnabledManufacturer (bytes32 _manufacturerId) {\r\n        require(\r\n            IRegistryLookup(manufacturerRegistryAddress).isMemberRegisteredAndEnabled(_manufacturerId));\r\n        _;\r\n    }\r\n\r\n    /** @dev Modifier - throws if sender is not the owner of the manufacturer.\r\n      * @param _manufacturerId the manufacturer id.\r\n    */\r\n    modifier senderIsManufacturerOwner (bytes32 _manufacturerId) {\r\n        require(\r\n            IRegistryLookup(manufacturerRegistryAddress).getMemberOwner(_manufacturerId) == msg.sender);\r\n        _;\r\n    }\r\n\r\n    /** @dev Modifier - throws if the address is not a contract address.\r\n      * @param _address the address to check\r\n     */\r\n    modifier isContractAddress(address _address) {\r\n        require(_address.isContract());\r\n        _;\r\n    }\r\n\r\n    /** @dev Modifier - throws if the length of the vin is not 17\r\n      * @param _vin the vehicle identification number to check\r\n     */\r\n    modifier validVinLength(bytes32 _vin) {\r\n        require(_vin.getStringLength() == 17);\r\n        _;\r\n    }\r\n\r\n    /** @dev Modifier - throws if attribute name belonging to attribute is the manafacturer attribute name.\r\n      * @param _memberNumber the member number\r\n      * @param _attributeNumber the attribute number\r\n     */\r\n    modifier isNotManufacturerAttribute(uint256 _memberNumber, uint256 _attributeNumber) {\r\n        bytes32 name = RegistryStorageLib.getAttributeName(storageAddress, _memberNumber, _attributeNumber);\r\n        require(name != manufacturerAttributeName);\r\n        _;\r\n    }    \r\n\r\n    /** @dev Disabled - DOT NOT USE!! use registerVehicle instead.\r\n      * Will throw if called.\r\n     */\r\n    function registerMember(bytes32) \r\n        public payable\r\n        returns (uint256) {\r\n        require(false, \"Function disabled. use registerVehicle instead\");\r\n        return 0;\r\n    }    \r\n\r\n//external VehicleRegistry specific\r\n    /** @dev adds a vehicle to the registry and stores the manufacturer against it.\r\n      * Throws if contract is paused\r\n      * Throws if the vin length is invalid\r\n      * Throws if the vin is already registered\r\n      * Throws if the msg.value is below the registration fee\r\n      * Throws if the manufacturer is not registered and enabled\r\n      * Throws if the sender is not the manufacturer owner\r\n      * @param _vin the vehicle identification number - must be unique to register\r\n      * @param _manufacturerId the id of the manufacturer of the vehicle\r\n      * @return the vehicle number allocated by the registry (aka the member number)\r\n     */\r\n    function registerVehicle(bytes32 _vin, bytes32 _manufacturerId) \r\n        public payable\r\n        whenNotPaused()\r\n        validVinLength(_vin)\r\n        memberIdNotRegistered(_vin)\r\n        paidMemberRegistrationFee()\r\n        registeredAndEnabledManufacturer(_manufacturerId)\r\n        senderIsManufacturerOwner(_manufacturerId)        \r\n        returns (uint256) {\r\n\r\n        emit LogInfo(\"Begin registerVehicle\");\r\n        uint256 memberNumber = RegistryStorageLib.storeMember(storageAddress, _vin, msg.sender);\r\n        RegistryStorageLib.storeMemberAttribute\r\n        (storageAddress, memberNumber, manufacturerAttributeName, manufacturerAttributeType, _manufacturerId);\r\n        emit MemberRegistered(memberNumber, _vin);\r\n        emit LogInfo(\"End registerVehicle\");\r\n        return memberNumber;\r\n    }    \r\n\r\n    /** @dev Overriding Registry method to ensure attribute is not the manufacturer attribute.\r\n      *  Sets the type and value on an existing attribute (both the type and value will be set even if empty)\r\n      * Thows when contract is paused.\r\n      * Throws when the member does not exist\r\n      * Throws when the caller is not the owner of the member\r\n      * Throws when the attribute number does not exist against the member\r\n      * Throws if the attribute name is the manufacturer attribute\r\n      * @param _memberNumber the member number\r\n      * @param _attributeNumber the attribute number\r\n      * @param _attributeType the attribute type to set\r\n      * @param _attributeValue the attribute value to set\r\n    */\r\n    function setMemberAttribute(uint256 _memberNumber, uint256 _attributeNumber, bytes32 _attributeType, bytes32 _attributeValue) \r\n        public payable \r\n        whenNotPaused()\r\n        memberNumberRegistered(_memberNumber)\r\n        memberNumberOwner(_memberNumber)\r\n        attributeNumberExists(_memberNumber, _attributeNumber)\r\n        isNotManufacturerAttribute(_memberNumber, _attributeNumber)\r\n         {\r\n        Registry.setMemberAttribute(_memberNumber, _attributeNumber, _attributeType, _attributeValue);\r\n    }    \r\n\r\n    /** @dev sets the address of the maintenance log for the vehicle.  Stores as an attribute with a pre defined name.\r\n      * Throws if the contract is paused.\r\n      * Throws if the member number is not registered\r\n      * Throws if the member number is not enabled.\r\n      * Throws if the sender is not the owner of the member\r\n      * Throws if the address is not a contract address\r\n      * @param _memberNumber the member number\r\n      * @param _address the address of the maintenance log contract\r\n     */\r\n    function setMaintenanceLogAddress(uint256 _memberNumber, address _address) \r\n        public payable \r\n        whenNotPaused()\r\n        memberNumberRegistered(_memberNumber)\r\n        memberNumberEnabled(_memberNumber)\r\n        memberNumberOwner(_memberNumber)\r\n        isContractAddress(_address) {\r\n\r\n        RegistryStorageLib.storeOrSetAttribute(\r\n            storageAddress, _memberNumber, maintenanceLogAttributeName, maintenanceLogAttributeType, bytes32(_address));\r\n    }\r\n\r\n    /** @dev Returns the address of the maintenance log contract (if it is present)\r\n      * Throws if member is not registered\r\n      * @param _memberNumber the member number\r\n     */\r\n    function getMaintenanceLogAddress(uint256 _memberNumber) \r\n        public view \r\n        memberNumberRegistered(_memberNumber)\r\n        returns (address) {\r\n        RegistryStorageLib.Attribute memory attribute = \r\n            RegistryStorageLib.getAttribute(storageAddress, _memberNumber, maintenanceLogAttributeName);\r\n        return address(attribute.value);\r\n    }\r\n}",
  "sourcePath": "C:\\dev\\repos\\VehicleMaintenanceRegistry\\src\\VMR\\contracts\\VehicleRegistry.sol",
  "compiler": {
    "name": "solc",
    "version": "0.4.24+commit.e67f0147.Emscripten.clang"
  },
  "schemaVersion": "2.0.1",
  "updatedAt": "2018-07-19T12:07:31.762Z"
}