{
  "contractName": "VehicleMaintenanceLogStorage",
  "abi": [
    {
      "constant": false,
      "inputs": [
        {
          "name": "_storageAccount",
          "type": "address"
        },
        {
          "name": "_VIN",
          "type": "bytes32"
        }
      ],
      "name": "setVin",
      "outputs": [],
      "payable": false,
      "stateMutability": "nonpayable",
      "type": "function"
    },
    {
      "constant": true,
      "inputs": [
        {
          "name": "_storageAccount",
          "type": "address"
        }
      ],
      "name": "getVin",
      "outputs": [
        {
          "name": "",
          "type": "bytes32"
        }
      ],
      "payable": false,
      "stateMutability": "view",
      "type": "function"
    },
    {
      "constant": false,
      "inputs": [
        {
          "name": "_storageAccount",
          "type": "address"
        },
        {
          "name": "_maintainer",
          "type": "address"
        },
        {
          "name": "_id",
          "type": "bytes32"
        },
        {
          "name": "_date",
          "type": "uint256"
        },
        {
          "name": "_title",
          "type": "string"
        },
        {
          "name": "_description",
          "type": "string"
        }
      ],
      "name": "storeLog",
      "outputs": [
        {
          "name": "_logNumber",
          "type": "uint256"
        }
      ],
      "payable": false,
      "stateMutability": "nonpayable",
      "type": "function"
    },
    {
      "constant": false,
      "inputs": [
        {
          "name": "_storageAccount",
          "type": "address"
        },
        {
          "name": "_maintainer",
          "type": "address"
        }
      ],
      "name": "addAuthorisation",
      "outputs": [],
      "payable": false,
      "stateMutability": "nonpayable",
      "type": "function"
    },
    {
      "constant": false,
      "inputs": [
        {
          "name": "_storageAccount",
          "type": "address"
        },
        {
          "name": "_maintainer",
          "type": "address"
        }
      ],
      "name": "removeAuthorisation",
      "outputs": [],
      "payable": false,
      "stateMutability": "nonpayable",
      "type": "function"
    },
    {
      "constant": true,
      "inputs": [
        {
          "name": "_storageAccount",
          "type": "address"
        },
        {
          "name": "_maintainer",
          "type": "address"
        }
      ],
      "name": "isAuthorised",
      "outputs": [
        {
          "name": "",
          "type": "bool"
        }
      ],
      "payable": false,
      "stateMutability": "view",
      "type": "function"
    },
    {
      "constant": false,
      "inputs": [
        {
          "name": "_storageAccount",
          "type": "address"
        },
        {
          "name": "_logNumber",
          "type": "uint256"
        },
        {
          "name": "_title",
          "type": "string"
        },
        {
          "name": "_ipfsAddress",
          "type": "bytes32"
        }
      ],
      "name": "storeLogDoc",
      "outputs": [
        {
          "name": "",
          "type": "uint256"
        }
      ],
      "payable": false,
      "stateMutability": "nonpayable",
      "type": "function"
    },
    {
      "constant": true,
      "inputs": [
        {
          "name": "_storageAccount",
          "type": "address"
        },
        {
          "name": "_logNumber",
          "type": "uint256"
        }
      ],
      "name": "getDocCount",
      "outputs": [
        {
          "name": "",
          "type": "uint256"
        }
      ],
      "payable": false,
      "stateMutability": "view",
      "type": "function"
    },
    {
      "constant": false,
      "inputs": [
        {
          "name": "_storageAccount",
          "type": "address"
        },
        {
          "name": "_logNumber",
          "type": "uint256"
        },
        {
          "name": "_count",
          "type": "uint256"
        }
      ],
      "name": "setDocCount",
      "outputs": [],
      "payable": false,
      "stateMutability": "nonpayable",
      "type": "function"
    },
    {
      "constant": false,
      "inputs": [
        {
          "name": "_storageAccount",
          "type": "address"
        },
        {
          "name": "_logNumber",
          "type": "uint256"
        },
        {
          "name": "_docNumber",
          "type": "uint256"
        },
        {
          "name": "_title",
          "type": "string"
        }
      ],
      "name": "setDocTitle",
      "outputs": [],
      "payable": false,
      "stateMutability": "nonpayable",
      "type": "function"
    },
    {
      "constant": false,
      "inputs": [
        {
          "name": "_storageAccount",
          "type": "address"
        },
        {
          "name": "_logNumber",
          "type": "uint256"
        },
        {
          "name": "_docNumber",
          "type": "uint256"
        },
        {
          "name": "_ipfsAddress",
          "type": "bytes32"
        }
      ],
      "name": "setDocIpfsAddress",
      "outputs": [],
      "payable": false,
      "stateMutability": "nonpayable",
      "type": "function"
    },
    {
      "constant": true,
      "inputs": [
        {
          "name": "_storageAccount",
          "type": "address"
        },
        {
          "name": "_logNumber",
          "type": "uint256"
        },
        {
          "name": "_docNumber",
          "type": "uint256"
        }
      ],
      "name": "getDocTitle",
      "outputs": [
        {
          "name": "",
          "type": "string"
        }
      ],
      "payable": false,
      "stateMutability": "view",
      "type": "function"
    },
    {
      "constant": true,
      "inputs": [
        {
          "name": "_storageAccount",
          "type": "address"
        },
        {
          "name": "_logNumber",
          "type": "uint256"
        },
        {
          "name": "_docNumber",
          "type": "uint256"
        }
      ],
      "name": "getDocIpfsAddress",
      "outputs": [
        {
          "name": "",
          "type": "bytes32"
        }
      ],
      "payable": false,
      "stateMutability": "view",
      "type": "function"
    },
    {
      "constant": true,
      "inputs": [
        {
          "name": "_storageAccount",
          "type": "address"
        }
      ],
      "name": "getCount",
      "outputs": [
        {
          "name": "",
          "type": "uint256"
        }
      ],
      "payable": false,
      "stateMutability": "view",
      "type": "function"
    },
    {
      "constant": true,
      "inputs": [
        {
          "name": "_storageAccount",
          "type": "address"
        },
        {
          "name": "_logNumber",
          "type": "uint256"
        }
      ],
      "name": "getId",
      "outputs": [
        {
          "name": "",
          "type": "bytes32"
        }
      ],
      "payable": false,
      "stateMutability": "view",
      "type": "function"
    },
    {
      "constant": true,
      "inputs": [
        {
          "name": "_storageAccount",
          "type": "address"
        },
        {
          "name": "_id",
          "type": "bytes32"
        }
      ],
      "name": "getLogNumber",
      "outputs": [
        {
          "name": "",
          "type": "uint256"
        }
      ],
      "payable": false,
      "stateMutability": "view",
      "type": "function"
    },
    {
      "constant": false,
      "inputs": [
        {
          "name": "_storageAccount",
          "type": "address"
        },
        {
          "name": "_id",
          "type": "bytes32"
        },
        {
          "name": "_logNumber",
          "type": "uint256"
        }
      ],
      "name": "setLogNumber",
      "outputs": [],
      "payable": false,
      "stateMutability": "nonpayable",
      "type": "function"
    },
    {
      "constant": false,
      "inputs": [
        {
          "name": "_storageAccount",
          "type": "address"
        },
        {
          "name": "_logNumber",
          "type": "uint256"
        },
        {
          "name": "_id",
          "type": "bytes32"
        }
      ],
      "name": "setId",
      "outputs": [],
      "payable": false,
      "stateMutability": "nonpayable",
      "type": "function"
    },
    {
      "constant": false,
      "inputs": [
        {
          "name": "_storageAccount",
          "type": "address"
        },
        {
          "name": "_count",
          "type": "uint256"
        }
      ],
      "name": "setCount",
      "outputs": [],
      "payable": false,
      "stateMutability": "nonpayable",
      "type": "function"
    },
    {
      "constant": false,
      "inputs": [
        {
          "name": "_storageAccount",
          "type": "address"
        },
        {
          "name": "_logNumber",
          "type": "uint256"
        },
        {
          "name": "_date",
          "type": "uint256"
        }
      ],
      "name": "setDate",
      "outputs": [],
      "payable": false,
      "stateMutability": "nonpayable",
      "type": "function"
    },
    {
      "constant": false,
      "inputs": [
        {
          "name": "_storageAccount",
          "type": "address"
        },
        {
          "name": "_logNumber",
          "type": "uint256"
        },
        {
          "name": "_maintainer",
          "type": "address"
        }
      ],
      "name": "setMaintainer",
      "outputs": [],
      "payable": false,
      "stateMutability": "nonpayable",
      "type": "function"
    },
    {
      "constant": false,
      "inputs": [
        {
          "name": "_storageAccount",
          "type": "address"
        },
        {
          "name": "_logNumber",
          "type": "uint256"
        },
        {
          "name": "_verified",
          "type": "bool"
        }
      ],
      "name": "setVerified",
      "outputs": [],
      "payable": false,
      "stateMutability": "nonpayable",
      "type": "function"
    },
    {
      "constant": false,
      "inputs": [
        {
          "name": "_storageAccount",
          "type": "address"
        },
        {
          "name": "_logNumber",
          "type": "uint256"
        },
        {
          "name": "_title",
          "type": "string"
        }
      ],
      "name": "setTitle",
      "outputs": [],
      "payable": false,
      "stateMutability": "nonpayable",
      "type": "function"
    },
    {
      "constant": false,
      "inputs": [
        {
          "name": "_storageAccount",
          "type": "address"
        },
        {
          "name": "_logNumber",
          "type": "uint256"
        },
        {
          "name": "_description",
          "type": "string"
        }
      ],
      "name": "setDescription",
      "outputs": [],
      "payable": false,
      "stateMutability": "nonpayable",
      "type": "function"
    },
    {
      "constant": true,
      "inputs": [
        {
          "name": "_storageAccount",
          "type": "address"
        },
        {
          "name": "_logNumber",
          "type": "uint256"
        }
      ],
      "name": "getMaintainer",
      "outputs": [
        {
          "name": "",
          "type": "address"
        }
      ],
      "payable": false,
      "stateMutability": "view",
      "type": "function"
    },
    {
      "constant": true,
      "inputs": [
        {
          "name": "_storageAccount",
          "type": "address"
        },
        {
          "name": "_logNumber",
          "type": "uint256"
        }
      ],
      "name": "getTitle",
      "outputs": [
        {
          "name": "",
          "type": "string"
        }
      ],
      "payable": false,
      "stateMutability": "view",
      "type": "function"
    },
    {
      "constant": true,
      "inputs": [
        {
          "name": "_storageAccount",
          "type": "address"
        },
        {
          "name": "_logNumber",
          "type": "uint256"
        }
      ],
      "name": "getDescription",
      "outputs": [
        {
          "name": "",
          "type": "string"
        }
      ],
      "payable": false,
      "stateMutability": "view",
      "type": "function"
    },
    {
      "constant": true,
      "inputs": [
        {
          "name": "_storageAccount",
          "type": "address"
        },
        {
          "name": "_logNumber",
          "type": "uint256"
        }
      ],
      "name": "getDate",
      "outputs": [
        {
          "name": "",
          "type": "uint256"
        }
      ],
      "payable": false,
      "stateMutability": "view",
      "type": "function"
    },
    {
      "constant": true,
      "inputs": [
        {
          "name": "_storageAccount",
          "type": "address"
        },
        {
          "name": "_logNumber",
          "type": "uint256"
        }
      ],
      "name": "getVerified",
      "outputs": [
        {
          "name": "",
          "type": "bool"
        }
      ],
      "payable": false,
      "stateMutability": "view",
      "type": "function"
    },
    {
      "constant": true,
      "inputs": [
        {
          "name": "_storageAccount",
          "type": "address"
        }
      ],
      "name": "getTransferKey",
      "outputs": [
        {
          "name": "",
          "type": "bytes32"
        }
      ],
      "payable": false,
      "stateMutability": "view",
      "type": "function"
    },
    {
      "constant": true,
      "inputs": [
        {
          "name": "_storageAccount",
          "type": "address"
        }
      ],
      "name": "getPendingOwner",
      "outputs": [
        {
          "name": "",
          "type": "address"
        }
      ],
      "payable": false,
      "stateMutability": "view",
      "type": "function"
    },
    {
      "constant": false,
      "inputs": [
        {
          "name": "_storageAccount",
          "type": "address"
        },
        {
          "name": "_pendingOwner",
          "type": "address"
        }
      ],
      "name": "setPendingOwner",
      "outputs": [],
      "payable": false,
      "stateMutability": "nonpayable",
      "type": "function"
    },
    {
      "constant": false,
      "inputs": [
        {
          "name": "_storageAccount",
          "type": "address"
        },
        {
          "name": "_keyHash",
          "type": "bytes32"
        }
      ],
      "name": "setTransferKey",
      "outputs": [],
      "payable": false,
      "stateMutability": "nonpayable",
      "type": "function"
    }
  ],
  "bytecode": "0x613e15610030600b82828239805160001a6073146000811461002057610022565bfe5b5030600052607381538281f30073000000000000000000000000000000000000000030146080604052600436106101b8576000357c0100000000000000000000000000000000000000000000000000000000900463ffffffff16806313267e5b146101bd5780632327923a146102145780632cdfb43f146102a75780632e0ca6c2146103275780632efcbfc7146103785780633f3744701461040b578063481d578f1461046e5780634f0cd27b146104c9578063572859da146105135780635c17dabf146105b05780635cf42ff31461066957806366f6a5ed146106cc57806367158f221461074257806369ccd0aa1461085d5780637d5335df146109205780638276319d1461098357806382a59f2c146109db5780638b09d69114610a365780638bee0ae814610a87578063959e69c014610b3c5780639ab0189c14610b90578063a4341ab014610bf6578063a598180014610c43578063ac62b19414610c97578063ac7edd1014610ce9578063ac83a81e14610d56578063af44297014610dc4578063b6e05b7014610e1c578063bb3995f514610ed5578063bee40e6714610f3a578063c5d3e11d14610f91578063d2895d5f14610fed578063e4d742b71461103f575b600080fd5b8180156101c957600080fd5b50610212600480360381019080803573ffffffffffffffffffffffffffffffffffffffff1690602001909291908035906020019092919080359060200190929190505050611098565b005b81801561022057600080fd5b506102a5600480360381019080803573ffffffffffffffffffffffffffffffffffffffff16906020019092919080359060200190929190803590602001908201803590602001908080601f01602080910402602001604051908101604052809392919081815260200183838082843782019150505050505091929192905050506111dd565b005b6102e5600480360381019080803573ffffffffffffffffffffffffffffffffffffffff16906020019092919080359060200190929190505050611387565b604051808273ffffffffffffffffffffffffffffffffffffffff1673ffffffffffffffffffffffffffffffffffffffff16815260200191505060405180910390f35b81801561033357600080fd5b50610376600480360381019080803573ffffffffffffffffffffffffffffffffffffffff16906020019092919080356000191690602001909291905050506114ec565b005b81801561038457600080fd5b50610409600480360381019080803573ffffffffffffffffffffffffffffffffffffffff16906020019092919080359060200190929190803590602001908201803590602001908080601f0160208091040260200160405190810160405280939291908181526020018383808284378201915050505050509192919290505050611630565b005b81801561041757600080fd5b5061046c600480360381019080803573ffffffffffffffffffffffffffffffffffffffff169060200190929190803573ffffffffffffffffffffffffffffffffffffffff1690602001909291905050506117da565b005b81801561047a57600080fd5b506104c7600480360381019080803573ffffffffffffffffffffffffffffffffffffffff16906020019092919080356000191690602001909291908035906020019092919050505061195e565b005b6104fd600480360381019080803573ffffffffffffffffffffffffffffffffffffffff169060200190929190505050611aab565b6040518082815260200191505060405180910390f35b81801561051f57600080fd5b506105ae600480360381019080803573ffffffffffffffffffffffffffffffffffffffff1690602001909291908035906020019092919080359060200190929190803590602001908201803590602001908080601f0160208091040260200160405190810160405280939291908181526020018383808284378201915050505050509192919290505050611c07565b005b6105ee600480360381019080803573ffffffffffffffffffffffffffffffffffffffff16906020019092919080359060200190929190505050611dba565b6040518080602001828103825283818151815260200191508051906020019080838360005b8381101561062e578082015181840152602081019050610613565b50505050905090810190601f16801561065b5780820380516001836020036101000a031916815260200191505b509250505060405180910390f35b81801561067557600080fd5b506106ca600480360381019080803573ffffffffffffffffffffffffffffffffffffffff169060200190929190803573ffffffffffffffffffffffffffffffffffffffff169060200190929190505050611f75565b005b610700600480360381019080803573ffffffffffffffffffffffffffffffffffffffff1690602001909291905050506120f9565b604051808273ffffffffffffffffffffffffffffffffffffffff1673ffffffffffffffffffffffffffffffffffffffff16815260200191505060405180910390f35b81801561074e57600080fd5b50610847600480360381019080803573ffffffffffffffffffffffffffffffffffffffff169060200190929190803573ffffffffffffffffffffffffffffffffffffffff169060200190929190803560001916906020019092919080359060200190929190803590602001908201803590602001908080601f0160208091040260200160405190810160405280939291908181526020018383808284378201915050505050509192919290803590602001908201803590602001908080601f0160208091040260200160405190810160405280939291908181526020018383808284378201915050505050509192919290505050612255565b6040518082815260200191505060405180910390f35b6108a5600480360381019080803573ffffffffffffffffffffffffffffffffffffffff16906020019092919080359060200190929190803590602001909291905050506122d2565b6040518080602001828103825283818151815260200191508051906020019080838360005b838110156108e55780820151818401526020810190506108ca565b50505050905090810190601f1680156109125780820380516001836020036101000a031916815260200191505b509250505060405180910390f35b81801561092c57600080fd5b50610981600480360381019080803573ffffffffffffffffffffffffffffffffffffffff169060200190929190803573ffffffffffffffffffffffffffffffffffffffff169060200190929190505050612496565b005b6109c1600480360381019080803573ffffffffffffffffffffffffffffffffffffffff169060200190929190803590602001909291905050506125fe565b604051808215151515815260200191505060405180910390f35b8180156109e757600080fd5b50610a34600480360381019080803573ffffffffffffffffffffffffffffffffffffffff169060200190929190803590602001909291908035600019169060200190929190505050612763565b005b818015610a4257600080fd5b50610a85600480360381019080803573ffffffffffffffffffffffffffffffffffffffff16906020019092919080356000191690602001909291905050506128b0565b005b818015610a9357600080fd5b50610b26600480360381019080803573ffffffffffffffffffffffffffffffffffffffff16906020019092919080359060200190929190803590602001908201803590602001908080601f016020809104026020016040519081016040528093929190818152602001838380828437820191505050505050919291929080356000191690602001909291905050506129f4565b6040518082815260200191505060405180910390f35b610b7a600480360381019080803573ffffffffffffffffffffffffffffffffffffffff16906020019092919080359060200190929190505050612a3b565b6040518082815260200191505060405180910390f35b610bd8600480360381019080803573ffffffffffffffffffffffffffffffffffffffff1690602001909291908035906020019092919080359060200190929190505050612ba0565b60405180826000191660001916815260200191505060405180910390f35b818015610c0257600080fd5b50610c41600480360381019080803573ffffffffffffffffffffffffffffffffffffffff16906020019092919080359060200190929190505050612d0e565b005b610c81600480360381019080803573ffffffffffffffffffffffffffffffffffffffff16906020019092919080359060200190929190505050612e4a565b6040518082815260200191505060405180910390f35b610ccb600480360381019080803573ffffffffffffffffffffffffffffffffffffffff169060200190929190505050612faf565b60405180826000191660001916815260200191505060405180910390f35b818015610cf557600080fd5b50610d54600480360381019080803573ffffffffffffffffffffffffffffffffffffffff16906020019092919080359060200190929190803573ffffffffffffffffffffffffffffffffffffffff16906020019092919050505061310b565b005b610daa600480360381019080803573ffffffffffffffffffffffffffffffffffffffff169060200190929190803573ffffffffffffffffffffffffffffffffffffffff16906020019092919050505061327c565b604051808215151515815260200191505060405180910390f35b610e06600480360381019080803573ffffffffffffffffffffffffffffffffffffffff169060200190929190803560001916906020019092919050505061341c565b6040518082815260200191505060405180910390f35b610e5a600480360381019080803573ffffffffffffffffffffffffffffffffffffffff16906020019092919080359060200190929190505050613589565b6040518080602001828103825283818151815260200191508051906020019080838360005b83811015610e9a578082015181840152602081019050610e7f565b50505050905090810190601f168015610ec75780820380516001836020036101000a031916815260200191505b509250505060405180910390f35b818015610ee157600080fd5b50610f38600480360381019080803573ffffffffffffffffffffffffffffffffffffffff16906020019092919080359060200190929190803590602001909291908035600019169060200190929190505050613744565b005b818015610f4657600080fd5b50610f8f600480360381019080803573ffffffffffffffffffffffffffffffffffffffff169060200190929190803590602001909291908035906020019092919050505061389a565b005b610fcf600480360381019080803573ffffffffffffffffffffffffffffffffffffffff169060200190929190803590602001909291905050506139df565b60405180826000191660001916815260200191505060405180910390f35b611021600480360381019080803573ffffffffffffffffffffffffffffffffffffffff169060200190929190505050613b44565b60405180826000191660001916815260200191505060405180910390f35b81801561104b57600080fd5b50611096600480360381019080803573ffffffffffffffffffffffffffffffffffffffff16906020019092919080359060200190929190803515159060200190929190505050613ca0565b005b8273ffffffffffffffffffffffffffffffffffffffff1663dde5b9d58360405160200180828152602001807f646f63436f756e740000000000000000000000000000000000000000000000008152506008019150506040516020818303038152906040526040518082805190602001908083835b602083101515611131578051825260208201915060208101905060208303925061110c565b6001836020036101000a0380198251168184511680821785525050505050509050019150506040518091039020836040518363ffffffff167c010000000000000000000000000000000000000000000000000000000002815260040180836000191660001916815260200182815260200192505050600060405180830381600087803b1580156111c057600080fd5b505af11580156111d4573d6000803e3d6000fd5b50505050505050565b8273ffffffffffffffffffffffffffffffffffffffff1663f58660668360405160200180828152602001807f7469746c650000000000000000000000000000000000000000000000000000008152506005019150506040516020818303038152906040526040518082805190602001908083835b6020831015156112765780518252602082019150602081019050602083039250611251565b6001836020036101000a0380198251168184511680821785525050505050509050019150506040518091039020836040518363ffffffff167c010000000000000000000000000000000000000000000000000000000002815260040180836000191660001916815260200180602001828103825283818151815260200191508051906020019080838360005b8381101561131d578082015181840152602081019050611302565b50505050905090810190601f16801561134a5780820380516001836020036101000a031916815260200191505b509350505050600060405180830381600087803b15801561136a57600080fd5b505af115801561137e573d6000803e3d6000fd5b50505050505050565b60008273ffffffffffffffffffffffffffffffffffffffff16634c77e5ba8360405160200180828152602001807f6d61696e7461696e657200000000000000000000000000000000000000000000815250600a019150506040516020818303038152906040526040518082805190602001908083835b60208310151561142257805182526020820191506020810190506020830392506113fd565b6001836020036101000a03801982511681845116808217855250505050505090500191505060405180910390206040518263ffffffff167c0100000000000000000000000000000000000000000000000000000000028152600401808260001916600019168152602001915050602060405180830381600087803b1580156114a957600080fd5b505af11580156114bd573d6000803e3d6000fd5b505050506040513d60208110156114d357600080fd5b8101908080519060200190929190505050905092915050565b8173ffffffffffffffffffffffffffffffffffffffff166325cf512d60405160200180807f76696e000000000000000000000000000000000000000000000000000000000081525060030190506040516020818303038152906040526040518082805190602001908083835b60208310151561157d5780518252602082019150602081019050602083039250611558565b6001836020036101000a0380198251168184511680821785525050505050509050019150506040518091039020836040518363ffffffff167c0100000000000000000000000000000000000000000000000000000000028152600401808360001916600019168152602001826000191660001916815260200192505050600060405180830381600087803b15801561161457600080fd5b505af1158015611628573d6000803e3d6000fd5b505050505050565b8273ffffffffffffffffffffffffffffffffffffffff1663f58660668360405160200180828152602001807f6465736372697074696f6e000000000000000000000000000000000000000000815250600b019150506040516020818303038152906040526040518082805190602001908083835b6020831015156116c957805182526020820191506020810190506020830392506116a4565b6001836020036101000a0380198251168184511680821785525050505050509050019150506040518091039020836040518363ffffffff167c010000000000000000000000000000000000000000000000000000000002815260040180836000191660001916815260200180602001828103825283818151815260200191508051906020019080838360005b83811015611770578082015181840152602081019050611755565b50505050905090810190601f16801561179d5780820380516001836020036101000a031916815260200191505b509350505050600060405180830381600087803b1580156117bd57600080fd5b505af11580156117d1573d6000803e3d6000fd5b50505050505050565b8173ffffffffffffffffffffffffffffffffffffffff16633eba9ed28260405160200180807f6d61696e7461696e657200000000000000000000000000000000000000000000815250600a018273ffffffffffffffffffffffffffffffffffffffff1673ffffffffffffffffffffffffffffffffffffffff166c010000000000000000000000000281526014019150506040516020818303038152906040526040518082805190602001908083835b6020831015156118ae5780518252602082019150602081019050602083039250611889565b6001836020036101000a038019825116818451168082178552505050505050905001915050604051809103902060006040518363ffffffff167c01000000000000000000000000000000000000000000000000000000000281526004018083600019166000191681526020018215151515815260200192505050600060405180830381600087803b15801561194257600080fd5b505af1158015611956573d6000803e3d6000fd5b505050505050565b8273ffffffffffffffffffffffffffffffffffffffff1663dde5b9d583604051602001808260001916600019168152602001807f6c6f674e756d62657200000000000000000000000000000000000000000000008152506009019150506040516020818303038152906040526040518082805190602001908083835b6020831015156119ff57805182526020820191506020810190506020830392506119da565b6001836020036101000a0380198251168184511680821785525050505050509050019150506040518091039020836040518363ffffffff167c010000000000000000000000000000000000000000000000000000000002815260040180836000191660001916815260200182815260200192505050600060405180830381600087803b158015611a8e57600080fd5b505af1158015611aa2573d6000803e3d6000fd5b50505050505050565b60008173ffffffffffffffffffffffffffffffffffffffff1663ac09455360405160200180807f636f756e7400000000000000000000000000000000000000000000000000000081525060050190506040516020818303038152906040526040518082805190602001908083835b602083101515611b3e5780518252602082019150602081019050602083039250611b19565b6001836020036101000a03801982511681845116808217855250505050505090500191505060405180910390206040518263ffffffff167c0100000000000000000000000000000000000000000000000000000000028152600401808260001916600019168152602001915050602060405180830381600087803b158015611bc557600080fd5b505af1158015611bd9573d6000803e3d6000fd5b505050506040513d6020811015611bef57600080fd5b81019080805190602001909291905050509050919050565b8373ffffffffffffffffffffffffffffffffffffffff1663f5866066848460405160200180838152602001828152602001807f7469746c65000000000000000000000000000000000000000000000000000000815250600501925050506040516020818303038152906040526040518082805190602001908083835b602083101515611ca85780518252602082019150602081019050602083039250611c83565b6001836020036101000a0380198251168184511680821785525050505050509050019150506040518091039020836040518363ffffffff167c010000000000000000000000000000000000000000000000000000000002815260040180836000191660001916815260200180602001828103825283818151815260200191508051906020019080838360005b83811015611d4f578082015181840152602081019050611d34565b50505050905090810190601f168015611d7c5780820380516001836020036101000a031916815260200191505b509350505050600060405180830381600087803b158015611d9c57600080fd5b505af1158015611db0573d6000803e3d6000fd5b5050505050505050565b60608273ffffffffffffffffffffffffffffffffffffffff1663a209a29c8360405160200180828152602001807f7469746c650000000000000000000000000000000000000000000000000000008152506005019150506040516020818303038152906040526040518082805190602001908083835b602083101515611e555780518252602082019150602081019050602083039250611e30565b6001836020036101000a03801982511681845116808217855250505050505090500191505060405180910390206040518263ffffffff167c0100000000000000000000000000000000000000000000000000000000028152600401808260001916600019168152602001915050600060405180830381600087803b158015611edc57600080fd5b505af1158015611ef0573d6000803e3d6000fd5b505050506040513d6000823e3d601f19601f820116820180604052506020811015611f1a57600080fd5b810190808051640100000000811115611f3257600080fd5b82810190506020810184811115611f4857600080fd5b8151856001820283011164010000000082111715611f6557600080fd5b5050929190505050905092915050565b8173ffffffffffffffffffffffffffffffffffffffff16633eba9ed28260405160200180807f6d61696e7461696e657200000000000000000000000000000000000000000000815250600a018273ffffffffffffffffffffffffffffffffffffffff1673ffffffffffffffffffffffffffffffffffffffff166c010000000000000000000000000281526014019150506040516020818303038152906040526040518082805190602001908083835b6020831015156120495780518252602082019150602081019050602083039250612024565b6001836020036101000a038019825116818451168082178552505050505050905001915050604051809103902060016040518363ffffffff167c01000000000000000000000000000000000000000000000000000000000281526004018083600019166000191681526020018215151515815260200192505050600060405180830381600087803b1580156120dd57600080fd5b505af11580156120f1573d6000803e3d6000fd5b505050505050565b60008173ffffffffffffffffffffffffffffffffffffffff16634c77e5ba60405160200180807f70656e64696e674f776e65720000000000000000000000000000000000000000815250600c0190506040516020818303038152906040526040518082805190602001908083835b60208310151561218c5780518252602082019150602081019050602083039250612167565b6001836020036101000a03801982511681845116808217855250505050505090500191505060405180910390206040518263ffffffff167c0100000000000000000000000000000000000000000000000000000000028152600401808260001916600019168152602001915050602060405180830381600087803b15801561221357600080fd5b505af1158015612227573d6000803e3d6000fd5b505050506040513d602081101561223d57600080fd5b81019080805190602001909291905050509050919050565b600080600061226389611aab565b915060018201905061227689888361195e565b612281898289612763565b61228c89828a61310b565b61229789828861389a565b6122a28982876111dd565b6122ad898286611630565b6122b989826000613ca0565b6122c38982612d0e565b80925050509695505050505050565b60608373ffffffffffffffffffffffffffffffffffffffff1663a209a29c848460405160200180838152602001828152602001807f7469746c65000000000000000000000000000000000000000000000000000000815250600501925050506040516020818303038152906040526040518082805190602001908083835b6020831015156123755780518252602082019150602081019050602083039250612350565b6001836020036101000a03801982511681845116808217855250505050505090500191505060405180910390206040518263ffffffff167c0100000000000000000000000000000000000000000000000000000000028152600401808260001916600019168152602001915050600060405180830381600087803b1580156123fc57600080fd5b505af1158015612410573d6000803e3d6000fd5b505050506040513d6000823e3d601f19601f82011682018060405250602081101561243a57600080fd5b81019080805164010000000081111561245257600080fd5b8281019050602081018481111561246857600080fd5b815185600182028301116401000000008211171561248557600080fd5b505092919050505090509392505050565b8173ffffffffffffffffffffffffffffffffffffffff16635a2bf25a60405160200180807f70656e64696e674f776e65720000000000000000000000000000000000000000815250600c0190506040516020818303038152906040526040518082805190602001908083835b6020831015156125275780518252602082019150602081019050602083039250612502565b6001836020036101000a0380198251168184511680821785525050505050509050019150506040518091039020836040518363ffffffff167c01000000000000000000000000000000000000000000000000000000000281526004018083600019166000191681526020018273ffffffffffffffffffffffffffffffffffffffff1673ffffffffffffffffffffffffffffffffffffffff16815260200192505050600060405180830381600087803b1580156125e257600080fd5b505af11580156125f6573d6000803e3d6000fd5b505050505050565b60008273ffffffffffffffffffffffffffffffffffffffff166317e7dd228360405160200180828152602001807f76657269666965640000000000000000000000000000000000000000000000008152506008019150506040516020818303038152906040526040518082805190602001908083835b6020831015156126995780518252602082019150602081019050602083039250612674565b6001836020036101000a03801982511681845116808217855250505050505090500191505060405180910390206040518263ffffffff167c0100000000000000000000000000000000000000000000000000000000028152600401808260001916600019168152602001915050602060405180830381600087803b15801561272057600080fd5b505af1158015612734573d6000803e3d6000fd5b505050506040513d602081101561274a57600080fd5b8101908080519060200190929190505050905092915050565b8273ffffffffffffffffffffffffffffffffffffffff166325cf512d8360405160200180828152602001807f69640000000000000000000000000000000000000000000000000000000000008152506002019150506040516020818303038152906040526040518082805190602001908083835b6020831015156127fc57805182526020820191506020810190506020830392506127d7565b6001836020036101000a0380198251168184511680821785525050505050509050019150506040518091039020836040518363ffffffff167c0100000000000000000000000000000000000000000000000000000000028152600401808360001916600019168152602001826000191660001916815260200192505050600060405180830381600087803b15801561289357600080fd5b505af11580156128a7573d6000803e3d6000fd5b50505050505050565b8173ffffffffffffffffffffffffffffffffffffffff166325cf512d60405160200180807f7472616e736665724b6579000000000000000000000000000000000000000000815250600b0190506040516020818303038152906040526040518082805190602001908083835b602083101515612941578051825260208201915060208101905060208303925061291c565b6001836020036101000a0380198251168184511680821785525050505050509050019150506040518091039020836040518363ffffffff167c0100000000000000000000000000000000000000000000000000000000028152600401808360001916600019168152602001826000191660001916815260200192505050600060405180830381600087803b1580156129d857600080fd5b505af11580156129ec573d6000803e3d6000fd5b505050505050565b6000806000612a038787612e4a565b9150600182019050612a1787878388611c07565b612a2387878387613744565b612a2e878783611098565b8092505050949350505050565b60008273ffffffffffffffffffffffffffffffffffffffff1663ac0945538360405160200180828152602001807f64617465000000000000000000000000000000000000000000000000000000008152506004019150506040516020818303038152906040526040518082805190602001908083835b602083101515612ad65780518252602082019150602081019050602083039250612ab1565b6001836020036101000a03801982511681845116808217855250505050505090500191505060405180910390206040518263ffffffff167c0100000000000000000000000000000000000000000000000000000000028152600401808260001916600019168152602001915050602060405180830381600087803b158015612b5d57600080fd5b505af1158015612b71573d6000803e3d6000fd5b505050506040513d6020811015612b8757600080fd5b8101908080519060200190929190505050905092915050565b60008373ffffffffffffffffffffffffffffffffffffffff1663025ec81a848460405160200180838152602001828152602001807f6970667341646472657373000000000000000000000000000000000000000000815250600b01925050506040516020818303038152906040526040518082805190602001908083835b602083101515612c435780518252602082019150602081019050602083039250612c1e565b6001836020036101000a03801982511681845116808217855250505050505090500191505060405180910390206040518263ffffffff167c0100000000000000000000000000000000000000000000000000000000028152600401808260001916600019168152602001915050602060405180830381600087803b158015612cca57600080fd5b505af1158015612cde573d6000803e3d6000fd5b505050506040513d6020811015612cf457600080fd5b810190808051906020019092919050505090509392505050565b8173ffffffffffffffffffffffffffffffffffffffff1663dde5b9d560405160200180807f636f756e7400000000000000000000000000000000000000000000000000000081525060050190506040516020818303038152906040526040518082805190602001908083835b602083101515612d9f5780518252602082019150602081019050602083039250612d7a565b6001836020036101000a0380198251168184511680821785525050505050509050019150506040518091039020836040518363ffffffff167c010000000000000000000000000000000000000000000000000000000002815260040180836000191660001916815260200182815260200192505050600060405180830381600087803b158015612e2e57600080fd5b505af1158015612e42573d6000803e3d6000fd5b505050505050565b60008273ffffffffffffffffffffffffffffffffffffffff1663ac0945538360405160200180828152602001807f646f63436f756e740000000000000000000000000000000000000000000000008152506008019150506040516020818303038152906040526040518082805190602001908083835b602083101515612ee55780518252602082019150602081019050602083039250612ec0565b6001836020036101000a03801982511681845116808217855250505050505090500191505060405180910390206040518263ffffffff167c0100000000000000000000000000000000000000000000000000000000028152600401808260001916600019168152602001915050602060405180830381600087803b158015612f6c57600080fd5b505af1158015612f80573d6000803e3d6000fd5b505050506040513d6020811015612f9657600080fd5b8101908080519060200190929190505050905092915050565b60008173ffffffffffffffffffffffffffffffffffffffff1663025ec81a60405160200180807f7472616e736665724b6579000000000000000000000000000000000000000000815250600b0190506040516020818303038152906040526040518082805190602001908083835b602083101515613042578051825260208201915060208101905060208303925061301d565b6001836020036101000a03801982511681845116808217855250505050505090500191505060405180910390206040518263ffffffff167c0100000000000000000000000000000000000000000000000000000000028152600401808260001916600019168152602001915050602060405180830381600087803b1580156130c957600080fd5b505af11580156130dd573d6000803e3d6000fd5b505050506040513d60208110156130f357600080fd5b81019080805190602001909291905050509050919050565b8273ffffffffffffffffffffffffffffffffffffffff16635a2bf25a8360405160200180828152602001807f6d61696e7461696e657200000000000000000000000000000000000000000000815250600a019150506040516020818303038152906040526040518082805190602001908083835b6020831015156131a4578051825260208201915060208101905060208303925061317f565b6001836020036101000a0380198251168184511680821785525050505050509050019150506040518091039020836040518363ffffffff167c01000000000000000000000000000000000000000000000000000000000281526004018083600019166000191681526020018273ffffffffffffffffffffffffffffffffffffffff1673ffffffffffffffffffffffffffffffffffffffff16815260200192505050600060405180830381600087803b15801561325f57600080fd5b505af1158015613273573d6000803e3d6000fd5b50505050505050565b60008273ffffffffffffffffffffffffffffffffffffffff166317e7dd228360405160200180807f6d61696e7461696e657200000000000000000000000000000000000000000000815250600a018273ffffffffffffffffffffffffffffffffffffffff1673ffffffffffffffffffffffffffffffffffffffff166c010000000000000000000000000281526014019150506040516020818303038152906040526040518082805190602001908083835b602083101515613352578051825260208201915060208101905060208303925061332d565b6001836020036101000a03801982511681845116808217855250505050505090500191505060405180910390206040518263ffffffff167c0100000000000000000000000000000000000000000000000000000000028152600401808260001916600019168152602001915050602060405180830381600087803b1580156133d957600080fd5b505af11580156133ed573d6000803e3d6000fd5b505050506040513d602081101561340357600080fd5b8101908080519060200190929190505050905092915050565b60008273ffffffffffffffffffffffffffffffffffffffff1663ac09455383604051602001808260001916600019168152602001807f6c6f674e756d62657200000000000000000000000000000000000000000000008152506009019150506040516020818303038152906040526040518082805190602001908083835b6020831015156134bf578051825260208201915060208101905060208303925061349a565b6001836020036101000a03801982511681845116808217855250505050505090500191505060405180910390206040518263ffffffff167c0100000000000000000000000000000000000000000000000000000000028152600401808260001916600019168152602001915050602060405180830381600087803b15801561354657600080fd5b505af115801561355a573d6000803e3d6000fd5b505050506040513d602081101561357057600080fd5b8101908080519060200190929190505050905092915050565b60608273ffffffffffffffffffffffffffffffffffffffff1663a209a29c8360405160200180828152602001807f6465736372697074696f6e000000000000000000000000000000000000000000815250600b019150506040516020818303038152906040526040518082805190602001908083835b60208310151561362457805182526020820191506020810190506020830392506135ff565b6001836020036101000a03801982511681845116808217855250505050505090500191505060405180910390206040518263ffffffff167c0100000000000000000000000000000000000000000000000000000000028152600401808260001916600019168152602001915050600060405180830381600087803b1580156136ab57600080fd5b505af11580156136bf573d6000803e3d6000fd5b505050506040513d6000823e3d601f19601f8201168201806040525060208110156136e957600080fd5b81019080805164010000000081111561370157600080fd5b8281019050602081018481111561371757600080fd5b815185600182028301116401000000008211171561373457600080fd5b5050929190505050905092915050565b8373ffffffffffffffffffffffffffffffffffffffff166325cf512d848460405160200180838152602001828152602001807f6970667341646472657373000000000000000000000000000000000000000000815250600b01925050506040516020818303038152906040526040518082805190602001908083835b6020831015156137e557805182526020820191506020810190506020830392506137c0565b6001836020036101000a0380198251168184511680821785525050505050509050019150506040518091039020836040518363ffffffff167c0100000000000000000000000000000000000000000000000000000000028152600401808360001916600019168152602001826000191660001916815260200192505050600060405180830381600087803b15801561387c57600080fd5b505af1158015613890573d6000803e3d6000fd5b5050505050505050565b8273ffffffffffffffffffffffffffffffffffffffff1663dde5b9d58360405160200180828152602001807f64617465000000000000000000000000000000000000000000000000000000008152506004019150506040516020818303038152906040526040518082805190602001908083835b602083101515613933578051825260208201915060208101905060208303925061390e565b6001836020036101000a0380198251168184511680821785525050505050509050019150506040518091039020836040518363ffffffff167c010000000000000000000000000000000000000000000000000000000002815260040180836000191660001916815260200182815260200192505050600060405180830381600087803b1580156139c257600080fd5b505af11580156139d6573d6000803e3d6000fd5b50505050505050565b60008273ffffffffffffffffffffffffffffffffffffffff1663025ec81a8360405160200180828152602001807f69640000000000000000000000000000000000000000000000000000000000008152506002019150506040516020818303038152906040526040518082805190602001908083835b602083101515613a7a5780518252602082019150602081019050602083039250613a55565b6001836020036101000a03801982511681845116808217855250505050505090500191505060405180910390206040518263ffffffff167c0100000000000000000000000000000000000000000000000000000000028152600401808260001916600019168152602001915050602060405180830381600087803b158015613b0157600080fd5b505af1158015613b15573d6000803e3d6000fd5b505050506040513d6020811015613b2b57600080fd5b8101908080519060200190929190505050905092915050565b60008173ffffffffffffffffffffffffffffffffffffffff1663025ec81a60405160200180807f76696e000000000000000000000000000000000000000000000000000000000081525060030190506040516020818303038152906040526040518082805190602001908083835b602083101515613bd75780518252602082019150602081019050602083039250613bb2565b6001836020036101000a03801982511681845116808217855250505050505090500191505060405180910390206040518263ffffffff167c0100000000000000000000000000000000000000000000000000000000028152600401808260001916600019168152602001915050602060405180830381600087803b158015613c5e57600080fd5b505af1158015613c72573d6000803e3d6000fd5b505050506040513d6020811015613c8857600080fd5b81019080805190602001909291905050509050919050565b8273ffffffffffffffffffffffffffffffffffffffff16633eba9ed28360405160200180828152602001807f76657269666965640000000000000000000000000000000000000000000000008152506008019150506040516020818303038152906040526040518082805190602001908083835b602083101515613d395780518252602082019150602081019050602083039250613d14565b6001836020036101000a0380198251168184511680821785525050505050509050019150506040518091039020836040518363ffffffff167c01000000000000000000000000000000000000000000000000000000000281526004018083600019166000191681526020018215151515815260200192505050600060405180830381600087803b158015613dcc57600080fd5b505af1158015613de0573d6000803e3d6000fd5b505050505050505600a165627a7a723058208c76e1efd7d30be9f8c8b822df934fe5861d2a14dcee1bc022388731ba5d0c890029",
  "source": "pragma solidity ^0.4.23;\r\n\r\nimport \"./EternalStorage.sol\";\r\n\r\nlibrary VehicleMaintenanceLogStorage {\r\n\r\n    function setVin(address _storageAccount, bytes32 _VIN)\r\n        public {\r\n        return EternalStorage(_storageAccount).setBytes32Value(\r\n            keccak256(abi.encodePacked(\"vin\")), _VIN);\r\n    }\r\n\r\n    function getVin(address _storageAccount)\r\n        public view \r\n        returns (bytes32) {\r\n        return EternalStorage(_storageAccount).getBytes32Value(\r\n            keccak256(abi.encodePacked(\"vin\")));\r\n    }    \r\n\r\n    function storeLog (\r\n        address _storageAccount, \r\n        address _maintainer,\r\n        bytes32 _id,\r\n        uint256 _date,\r\n        string _title,\r\n        string _description) \r\n        public \r\n        returns (uint256 _logNumber) {\r\n\r\n        uint256 currentCount = getCount(_storageAccount);\r\n        uint256 logNumber = currentCount + 1;\r\n\r\n        setLogNumber(_storageAccount, _id, logNumber);\r\n        setId(_storageAccount, logNumber, _id);\r\n        setMaintainer(_storageAccount, logNumber, _maintainer);\r\n        setDate(_storageAccount, logNumber, _date);\r\n        setTitle(_storageAccount, logNumber, _title);\r\n        setDescription(_storageAccount, logNumber, _description);\r\n        setVerified(_storageAccount, logNumber, false);\r\n\r\n        setCount(_storageAccount, logNumber);\r\n\r\n        return logNumber;\r\n    }\r\n\r\n    function addAuthorisation(address _storageAccount, address _maintainer) public {\r\n        return EternalStorage(_storageAccount).setBooleanValue\r\n            (keccak256(abi.encodePacked(\"maintainer\", _maintainer)), true);\r\n    }\r\n\r\n    function removeAuthorisation(address _storageAccount, address _maintainer) public {\r\n        return EternalStorage(_storageAccount).setBooleanValue\r\n            (keccak256(abi.encodePacked(\"maintainer\", _maintainer)), false);\r\n    }    \r\n\r\n    function isAuthorised(address _storageAccount, address _maintainer) public view returns (bool) {\r\n        return EternalStorage(_storageAccount).getBooleanValue\r\n            (keccak256(abi.encodePacked(\"maintainer\", _maintainer)));\r\n    }\r\n\r\n    function storeLogDoc(address _storageAccount, uint256 _logNumber, string _title, bytes32 _ipfsAddress) \r\n        public returns (uint256) {\r\n        uint256 currentLogCount = getDocCount(_storageAccount, _logNumber);\r\n        uint256 docNumber = currentLogCount + 1;\r\n\r\n        //store doc details\r\n        setDocTitle(_storageAccount, _logNumber, docNumber, _title);\r\n        setDocIpfsAddress(_storageAccount, _logNumber, docNumber, _ipfsAddress);\r\n\r\n        setDocCount(_storageAccount, _logNumber, docNumber);\r\n\r\n        return docNumber;\r\n    }\r\n\r\n    function getDocCount(address _storageAccount, uint256 _logNumber) \r\n        public view returns (uint256) {\r\n        return EternalStorage(_storageAccount).getUint256Value(\r\n            keccak256(abi.encodePacked(_logNumber, \"docCount\")));\r\n    }\r\n\r\n    function setDocCount(address _storageAccount, uint256 _logNumber, uint256 _count)\r\n        public {\r\n        return EternalStorage(_storageAccount).setUint256Value(\r\n            keccak256(abi.encodePacked(_logNumber, \"docCount\")), _count);\r\n    }\r\n\r\n    function setDocTitle(address _storageAccount, uint256 _logNumber, uint256 _docNumber, string _title)\r\n        public {\r\n        return EternalStorage(_storageAccount).setStringValue(\r\n            keccak256(abi.encodePacked(_logNumber, _docNumber, \"title\")), _title);\r\n    }  \r\n\r\n    function setDocIpfsAddress(address _storageAccount, uint256 _logNumber, uint256 _docNumber, bytes32 _ipfsAddress)\r\n        public {\r\n        return EternalStorage(_storageAccount).setBytes32Value(\r\n            keccak256(abi.encodePacked(_logNumber, _docNumber, \"ipfsAddress\")), _ipfsAddress);\r\n    }   \r\n\r\n    function getDocTitle(address _storageAccount, uint256 _logNumber, uint256 _docNumber)\r\n        public view\r\n        returns (string){\r\n        return EternalStorage(_storageAccount).getStringValue(\r\n            keccak256(abi.encodePacked(_logNumber, _docNumber, \"title\")));\r\n    }  \r\n\r\n    function getDocIpfsAddress(address _storageAccount, uint256 _logNumber, uint256 _docNumber)\r\n        public view\r\n        returns (bytes32) {\r\n        return EternalStorage(_storageAccount).getBytes32Value(\r\n            keccak256(abi.encodePacked(_logNumber, _docNumber, \"ipfsAddress\")));\r\n    }           \r\n\r\n    function getCount(address _storageAccount) public view returns (uint256) {\r\n        return EternalStorage(_storageAccount).getUint256Value(\r\n            keccak256(abi.encodePacked(\"count\")));\r\n    }\r\n\r\n    function getId(address _storageAccount, uint256 _logNumber) public view returns (bytes32) {\r\n        return EternalStorage(_storageAccount).getBytes32Value(\r\n            keccak256(abi.encodePacked(_logNumber, \"id\")));\r\n    } \r\n\r\n    function getLogNumber(address _storageAccount, bytes32 _id) public view returns (uint256) {\r\n        return EternalStorage(_storageAccount).getUint256Value(\r\n            keccak256(abi.encodePacked(_id, \"logNumber\")));\r\n    }\r\n\r\n    //index ids to log number\r\n    function setLogNumber(address _storageAccount, bytes32 _id, uint256 _logNumber) public {\r\n        return EternalStorage(_storageAccount).setUint256Value(\r\n            keccak256(abi.encodePacked(_id, \"logNumber\")), _logNumber);\r\n    }\r\n\r\n    //index log numbers to ids\r\n    function setId(address _storageAccount, uint256 _logNumber, bytes32 _id) public {\r\n        return EternalStorage(_storageAccount).setBytes32Value(\r\n            keccak256(abi.encodePacked(_logNumber, \"id\")), _id);\r\n    } \r\n\r\n    function setCount(address _storageAccount, uint256 _count) public {\r\n        return EternalStorage(_storageAccount).setUint256Value(\r\n            keccak256(abi.encodePacked(\"count\")), _count);\r\n    } \r\n\r\n    function setDate(address _storageAccount, uint256 _logNumber, uint256 _date) public {\r\n        return EternalStorage(_storageAccount).setUint256Value(\r\n            keccak256(abi.encodePacked(_logNumber, \"date\")), _date);\r\n    } \r\n\r\n    function setMaintainer(address _storageAccount, uint256 _logNumber, address _maintainer) public {\r\n        return EternalStorage(_storageAccount).setAddressValue(\r\n            keccak256(abi.encodePacked(_logNumber, \"maintainer\")), _maintainer);\r\n    }     \r\n\r\n    function setVerified(address _storageAccount, uint256 _logNumber, bool _verified) public {\r\n        return EternalStorage(_storageAccount).setBooleanValue(\r\n            keccak256(abi.encodePacked(_logNumber, \"verified\")), _verified);\r\n    }     \r\n\r\n    function setTitle(address _storageAccount, uint256 _logNumber, string _title) public {\r\n        return EternalStorage(_storageAccount).setStringValue(\r\n            keccak256(abi.encodePacked(_logNumber, \"title\")), _title);\r\n    } \r\n\r\n    function setDescription(address _storageAccount, uint256 _logNumber, string _description) public {\r\n        return EternalStorage(_storageAccount).setStringValue(\r\n            keccak256(abi.encodePacked(_logNumber, \"description\")), _description);\r\n    }  \r\n\r\n    function getMaintainer(address _storageAccount, uint256 _logNumber) public view\r\n        returns (address){\r\n        return EternalStorage(_storageAccount).getAddressValue(\r\n            keccak256(abi.encodePacked(_logNumber, \"maintainer\")));\r\n    }   \r\n\r\n    function getTitle(address _storageAccount, uint256 _logNumber) \r\n        public view returns (string) {\r\n        return EternalStorage(_storageAccount).getStringValue(\r\n            keccak256(abi.encodePacked(_logNumber, \"title\")));\r\n    } \r\n\r\n    function getDescription(address _storageAccount, uint256 _logNumber) \r\n        public view returns (string) {\r\n        return EternalStorage(_storageAccount).getStringValue(\r\n            keccak256(abi.encodePacked(_logNumber, \"description\")));\r\n    }  \r\n\r\n    function getDate(address _storageAccount, uint256 _logNumber) \r\n        public view returns (uint256) {\r\n        return EternalStorage(_storageAccount).getUint256Value(\r\n            keccak256(abi.encodePacked(_logNumber, \"date\")));\r\n    }   \r\n\r\n    function getVerified(address _storageAccount, uint256 _logNumber) \r\n        public view returns (bool) {\r\n        return EternalStorage(_storageAccount).getBooleanValue(\r\n            keccak256(abi.encodePacked(_logNumber, \"verified\")));\r\n    }         \r\n\r\n    function getTransferKey(address _storageAccount) public view returns(bytes32) {\r\n        return EternalStorage(_storageAccount).getBytes32Value(\r\n            keccak256(abi.encodePacked(\"transferKey\")));\r\n    }    \r\n\r\n    function getPendingOwner(address _storageAccount) public view returns(address) {\r\n        return EternalStorage(_storageAccount).getAddressValue(\r\n            keccak256(abi.encodePacked(\"pendingOwner\")));\r\n    }     \r\n\r\n    function setPendingOwner(address _storageAccount, address _pendingOwner) public {\r\n        return EternalStorage(_storageAccount).setAddressValue(\r\n            keccak256(abi.encodePacked(\"pendingOwner\")), _pendingOwner);\r\n    }   \r\n\r\n    function setTransferKey(address _storageAccount, bytes32 _keyHash) public {\r\n        return EternalStorage(_storageAccount).setBytes32Value(\r\n            keccak256(abi.encodePacked(\"transferKey\")), _keyHash);\r\n    }    \r\n}",
  "sourcePath": "C:\\dev\\repos\\VehicleMaintenanceRegistry\\src\\VMR\\contracts\\VehicleMaintenanceLogStorage.sol",
  "compiler": {
    "name": "solc",
    "version": "0.4.24+commit.e67f0147.Emscripten.clang"
  },
  "schemaVersion": "2.0.1",
  "updatedAt": "2018-07-10T20:46:45.976Z"
}