{
  "contractName": "VehicleRegistryFeeChecker",
  "abi": [
    {
      "constant": true,
      "inputs": [],
      "name": "registrationPriceEth",
      "outputs": [
        {
          "name": "",
          "type": "uint256"
        }
      ],
      "payable": false,
      "stateMutability": "view",
      "type": "function"
    },
    {
      "inputs": [
        {
          "name": "_oracleQuery",
          "type": "string"
        },
        {
          "name": "_refreshSeconds",
          "type": "uint256"
        }
      ],
      "payable": false,
      "stateMutability": "nonpayable",
      "type": "constructor"
    },
    {
      "anonymous": false,
      "inputs": [
        {
          "indexed": false,
          "name": "_description",
          "type": "string"
        }
      ],
      "name": "newOraclizeQuery",
      "type": "event"
    },
    {
      "anonymous": false,
      "inputs": [
        {
          "indexed": false,
          "name": "price",
          "type": "string"
        }
      ],
      "name": "newRegistrationPrice",
      "type": "event"
    },
    {
      "constant": true,
      "inputs": [],
      "name": "getRegistrationFeeEth",
      "outputs": [
        {
          "name": "",
          "type": "uint256"
        }
      ],
      "payable": false,
      "stateMutability": "view",
      "type": "function"
    },
    {
      "constant": true,
      "inputs": [],
      "name": "getTransferFeeEth",
      "outputs": [
        {
          "name": "",
          "type": "uint256"
        }
      ],
      "payable": false,
      "stateMutability": "view",
      "type": "function"
    },
    {
      "constant": false,
      "inputs": [
        {
          "name": "myid",
          "type": "bytes32"
        },
        {
          "name": "result",
          "type": "string"
        }
      ],
      "name": "__callback",
      "outputs": [],
      "payable": false,
      "stateMutability": "nonpayable",
      "type": "function"
    },
    {
      "constant": false,
      "inputs": [
        {
          "name": "myid",
          "type": "bytes32"
        },
        {
          "name": "result",
          "type": "string"
        },
        {
          "name": "proof",
          "type": "bytes"
        }
      ],
      "name": "__callback",
      "outputs": [],
      "payable": false,
      "stateMutability": "nonpayable",
      "type": "function"
    },
    {
      "constant": false,
      "inputs": [],
      "name": "updatePrices",
      "outputs": [],
      "payable": true,
      "stateMutability": "payable",
      "type": "function"
    }
  ],
  "bytecode": "0x60806040523480156200001157600080fd5b50604051620032c0380380620032c08339810180604052810190808051820192919060200180519060200190929190505050620000a560017f01000000000000000000000000000000000000000000000000000000000000000260107f01000000000000000000000000000000000000000000000000000000000000000217620000e6640100000000026401000000009004565b620000be6200049a640100000000026401000000009004565b8160069080519060200190620000d6929190620016c5565b5080600781905550505062001774565b60008060009054906101000a900473ffffffffffffffffffffffffffffffffffffffff1673ffffffffffffffffffffffffffffffffffffffff1614806200016757506000620001656000809054906101000a900473ffffffffffffffffffffffffffffffffffffffff1662000745640100000000026401000000009004565b145b156200018a5762000188600062000750640100000000026401000000009004565b505b6000809054906101000a900473ffffffffffffffffffffffffffffffffffffffff1673ffffffffffffffffffffffffffffffffffffffff166338cc48316040518163ffffffff167c0100000000000000000000000000000000000000000000000000000000028152600401602060405180830381600087803b1580156200021057600080fd5b505af115801562000225573d6000803e3d6000fd5b505050506040513d60208110156200023c57600080fd5b810190808051906020019092919050505073ffffffffffffffffffffffffffffffffffffffff16600160009054906101000a900473ffffffffffffffffffffffffffffffffffffffff1673ffffffffffffffffffffffffffffffffffffffff16141515620003a8576000809054906101000a900473ffffffffffffffffffffffffffffffffffffffff1673ffffffffffffffffffffffffffffffffffffffff166338cc48316040518163ffffffff167c0100000000000000000000000000000000000000000000000000000000028152600401602060405180830381600087803b1580156200032a57600080fd5b505af11580156200033f573d6000803e3d6000fd5b505050506040513d60208110156200035657600080fd5b8101908080519060200190929190505050600160006101000a81548173ffffffffffffffffffffffffffffffffffffffff021916908373ffffffffffffffffffffffffffffffffffffffff1602179055505b600160009054906101000a900473ffffffffffffffffffffffffffffffffffffffff1673ffffffffffffffffffffffffffffffffffffffff1663688dcfd7826040518263ffffffff167c010000000000000000000000000000000000000000000000000000000002815260040180827effffffffffffffffffffffffffffffffffffffffffffffffffffffffffffff19167effffffffffffffffffffffffffffffffffffffffffffffffffffffffffffff19168152602001915050600060405180830381600087803b1580156200047e57600080fd5b505af115801562000493573d6000803e3d6000fd5b5050505050565b3073ffffffffffffffffffffffffffffffffffffffff1631620005016040805190810160405280600381526020017f55524c000000000000000000000000000000000000000000000000000000000081525062000772640100000000026401000000009004565b1115620005c2577f46cb989ef9cef13e930e3b7f286225a086e716a90d63e0b7da85d310a9db0c9a60405180806020018281038252604b8152602001807f4f7261636c697a6520717565727920776173204e4f542073656e742c20706c6581526020017f6173652061646420736f6d652045544820746f20636f76657220666f7220746881526020017f652071756572792066656500000000000000000000000000000000000000000081525060600191505060405180910390a162000743565b7f46cb989ef9cef13e930e3b7f286225a086e716a90d63e0b7da85d310a9db0c9a6040518080602001828103825260308152602001807f4f7261636c697a65207175657279207761732073656e74202d2077616974696e81526020017f6720666f722074686520616e737765720000000000000000000000000000000081525060400191505060405180910390a1620007416007546040805190810160405280600381526020017f55524c000000000000000000000000000000000000000000000000000000000081525060068054600181600116156101000203166002900480601f016020809104026020016040519081016040528092919081815260200182805460018160011615610100020316600290048015620007275780601f10620006fb5761010080835404028352916020019162000727565b820191906000526020600020905b8154815290600101906020018083116200070957829003601f168201915b505050505062000b73640100000000026401000000009004565b505b565b6000813b9050919050565b60006200076b62001151640100000000026401000000009004565b9050919050565b6000806000809054906101000a900473ffffffffffffffffffffffffffffffffffffffff1673ffffffffffffffffffffffffffffffffffffffff161480620007f457506000620007f26000809054906101000a900473ffffffffffffffffffffffffffffffffffffffff1662000745640100000000026401000000009004565b145b15620008175762000815600062000750640100000000026401000000009004565b505b6000809054906101000a900473ffffffffffffffffffffffffffffffffffffffff1673ffffffffffffffffffffffffffffffffffffffff166338cc48316040518163ffffffff167c0100000000000000000000000000000000000000000000000000000000028152600401602060405180830381600087803b1580156200089d57600080fd5b505af1158015620008b2573d6000803e3d6000fd5b505050506040513d6020811015620008c957600080fd5b810190808051906020019092919050505073ffffffffffffffffffffffffffffffffffffffff16600160009054906101000a900473ffffffffffffffffffffffffffffffffffffffff1673ffffffffffffffffffffffffffffffffffffffff1614151562000a35576000809054906101000a900473ffffffffffffffffffffffffffffffffffffffff1673ffffffffffffffffffffffffffffffffffffffff166338cc48316040518163ffffffff167c0100000000000000000000000000000000000000000000000000000000028152600401602060405180830381600087803b158015620009b757600080fd5b505af1158015620009cc573d6000803e3d6000fd5b505050506040513d6020811015620009e357600080fd5b8101908080519060200190929190505050600160006101000a81548173ffffffffffffffffffffffffffffffffffffffff021916908373ffffffffffffffffffffffffffffffffffffffff1602179055505b600160009054906101000a900473ffffffffffffffffffffffffffffffffffffffff1673ffffffffffffffffffffffffffffffffffffffff1663524f3889836040518263ffffffff167c01000000000000000000000000000000000000000000000000000000000281526004018080602001828103825283818151815260200191508051906020019080838360005b8381101562000ae157808201518184015260208101905062000ac4565b50505050905090810190601f16801562000b0f5780820380516001836020036101000a031916815260200191505b5092505050602060405180830381600087803b15801562000b2f57600080fd5b505af115801562000b44573d6000803e3d6000fd5b505050506040513d602081101562000b5b57600080fd5b81019080805190602001909291905050509050919050565b60008060008060009054906101000a900473ffffffffffffffffffffffffffffffffffffffff1673ffffffffffffffffffffffffffffffffffffffff16148062000bf75750600062000bf56000809054906101000a900473ffffffffffffffffffffffffffffffffffffffff1662000745640100000000026401000000009004565b145b1562000c1a5762000c18600062000750640100000000026401000000009004565b505b6000809054906101000a900473ffffffffffffffffffffffffffffffffffffffff1673ffffffffffffffffffffffffffffffffffffffff166338cc48316040518163ffffffff167c0100000000000000000000000000000000000000000000000000000000028152600401602060405180830381600087803b15801562000ca057600080fd5b505af115801562000cb5573d6000803e3d6000fd5b505050506040513d602081101562000ccc57600080fd5b810190808051906020019092919050505073ffffffffffffffffffffffffffffffffffffffff16600160009054906101000a900473ffffffffffffffffffffffffffffffffffffffff1673ffffffffffffffffffffffffffffffffffffffff1614151562000e38576000809054906101000a900473ffffffffffffffffffffffffffffffffffffffff1673ffffffffffffffffffffffffffffffffffffffff166338cc48316040518163ffffffff167c0100000000000000000000000000000000000000000000000000000000028152600401602060405180830381600087803b15801562000dba57600080fd5b505af115801562000dcf573d6000803e3d6000fd5b505050506040513d602081101562000de657600080fd5b8101908080519060200190929190505050600160006101000a81548173ffffffffffffffffffffffffffffffffffffffff021916908373ffffffffffffffffffffffffffffffffffffffff1602179055505b600160009054906101000a900473ffffffffffffffffffffffffffffffffffffffff1673ffffffffffffffffffffffffffffffffffffffff1663524f3889856040518263ffffffff167c01000000000000000000000000000000000000000000000000000000000281526004018080602001828103825283818151815260200191508051906020019080838360005b8381101562000ee457808201518184015260208101905062000ec7565b50505050905090810190601f16801562000f125780820380516001836020036101000a031916815260200191505b5092505050602060405180830381600087803b15801562000f3257600080fd5b505af115801562000f47573d6000803e3d6000fd5b505050506040513d602081101562000f5e57600080fd5b8101908080519060200190929190505050905062030d403a02670de0b6b3a76400000181111562000f96576000600102915062001149565b600160009054906101000a900473ffffffffffffffffffffffffffffffffffffffff1673ffffffffffffffffffffffffffffffffffffffff1663adf59f99828787876040518563ffffffff167c0100000000000000000000000000000000000000000000000000000000028152600401808481526020018060200180602001838103835285818151815260200191508051906020019080838360005b838110156200104f57808201518184015260208101905062001032565b50505050905090810190601f1680156200107d5780820380516001836020036101000a031916815260200191505b50838103825284818151815260200191508051906020019080838360005b83811015620010b85780820151818401526020810190506200109b565b50505050905090810190601f168015620010e65780820380516001836020036101000a031916815260200191505b50955050505050506020604051808303818588803b1580156200110857600080fd5b505af11580156200111d573d6000803e3d6000fd5b50505050506040513d60208110156200113557600080fd5b810190808051906020019092919050505091505b509392505050565b60008062001182731d3b2638a7cc9f2cb3d298a3da7a90b67e5506ed62000745640100000000026401000000009004565b11156200123657731d3b2638a7cc9f2cb3d298a3da7a90b67e5506ed6000806101000a81548173ffffffffffffffffffffffffffffffffffffffff021916908373ffffffffffffffffffffffffffffffffffffffff1602179055506200122c6040805190810160405280600b81526020017f6574685f6d61696e6e6574000000000000000000000000000000000000000000815250620016a9640100000000026401000000009004565b60019050620016a6565b60006200126673c03a2615d5efaf5f49f60b7bb6583eaec212fdf162000745640100000000026401000000009004565b11156200131a5773c03a2615d5efaf5f49f60b7bb6583eaec212fdf16000806101000a81548173ffffffffffffffffffffffffffffffffffffffff021916908373ffffffffffffffffffffffffffffffffffffffff160217905550620013106040805190810160405280600c81526020017f6574685f726f707374656e330000000000000000000000000000000000000000815250620016a9640100000000026401000000009004565b60019050620016a6565b60006200134a73b7a07bcf2ba2f2703b24c0691b5278999c59ac7e62000745640100000000026401000000009004565b1115620013fe5773b7a07bcf2ba2f2703b24c0691b5278999c59ac7e6000806101000a81548173ffffffffffffffffffffffffffffffffffffffff021916908373ffffffffffffffffffffffffffffffffffffffff160217905550620013f46040805190810160405280600981526020017f6574685f6b6f76616e0000000000000000000000000000000000000000000000815250620016a9640100000000026401000000009004565b60019050620016a6565b60006200142e73146500cfd35b22e4a392fe0adc06de1a1368ed4862000745640100000000026401000000009004565b1115620014e25773146500cfd35b22e4a392fe0adc06de1a1368ed486000806101000a81548173ffffffffffffffffffffffffffffffffffffffff021916908373ffffffffffffffffffffffffffffffffffffffff160217905550620014d86040805190810160405280600b81526020017f6574685f72696e6b656279000000000000000000000000000000000000000000815250620016a9640100000000026401000000009004565b60019050620016a6565b600062001512736f485c8bf6fc43ea212e93bbf8ce046c7f1cb47562000745640100000000026401000000009004565b11156200157757736f485c8bf6fc43ea212e93bbf8ce046c7f1cb4756000806101000a81548173ffffffffffffffffffffffffffffffffffffffff021916908373ffffffffffffffffffffffffffffffffffffffff16021790555060019050620016a6565b6000620015a77320e12a1f859b3feae5fb2a0a32c18f5a65555bbf62000745640100000000026401000000009004565b11156200160c577320e12a1f859b3feae5fb2a0a32c18f5a65555bbf6000806101000a81548173ffffffffffffffffffffffffffffffffffffffff021916908373ffffffffffffffffffffffffffffffffffffffff16021790555060019050620016a6565b60006200163c7351efaf4c8b3c9afbd5ab9f4bbc82784ab6ef8faa62000745640100000000026401000000009004565b1115620016a1577351efaf4c8b3c9afbd5ab9f4bbc82784ab6ef8faa6000806101000a81548173ffffffffffffffffffffffffffffffffffffffff021916908373ffffffffffffffffffffffffffffffffffffffff16021790555060019050620016a6565b600090505b90565b8060029080519060200190620016c1929190620016c5565b5050565b828054600181600116156101000203166002900490600052602060002090601f016020900481019282601f106200170857805160ff191683800117855562001739565b8280016001018555821562001739579182015b82811115620017385782518255916020019190600101906200171b565b5b5090506200174891906200174c565b5090565b6200177191905b808211156200176d57600081600090555060010162001753565b5090565b90565b611b3c80620017846000396000f300608060405260043610610078576000357c0100000000000000000000000000000000000000000000000000000000900463ffffffff16806327dc297e1461007d57806338bbfa50146100f457806349dd1262146101b157806354bb3da9146101bb578063600c95ea146101e6578063aa1d5e7d14610211575b600080fd5b34801561008957600080fd5b506100f26004803603810190808035600019169060200190929190803590602001908201803590602001908080601f016020809104026020016040519081016040528093929190818152602001838380828437820191505050505050919291929050505061023c565b005b34801561010057600080fd5b506101af6004803603810190808035600019169060200190929190803590602001908201803590602001908080601f0160208091040260200160405190810160405280939291908181526020018383808284378201915050505050509192919290803590602001908201803590602001908080601f016020809104026020016040519081016040528093929190818152602001838380828437820191505050505050919291929050505061032c565b005b6101b9610331565b005b3480156101c757600080fd5b506101d06105b4565b6040518082815260200191505060405180910390f35b3480156101f257600080fd5b506101fb6105be565b6040518082815260200191505060405180910390f35b34801561021d57600080fd5b506102266105c4565b6040518082815260200191505060405180910390f35b6102446105ce565b73ffffffffffffffffffffffffffffffffffffffff163373ffffffffffffffffffffffffffffffffffffffff1614151561027d57600080fd5b6102868161092c565b6005819055507f1a94beaa8eee4953512108a08d93875a6e7c7486f018b074cfef5d0a6ebc07f4816040518080602001828103825283818151815260200191508051906020019080838360005b838110156102ee5780820151818401526020810190506102d3565b50505050905090810190601f16801561031b5780820380516001836020036101000a031916815260200191505b509250505060405180910390a15050565b505050565b3073ffffffffffffffffffffffffffffffffffffffff16316103876040805190810160405280600381526020017f55524c0000000000000000000000000000000000000000000000000000000000815250610940565b1115610446577f46cb989ef9cef13e930e3b7f286225a086e716a90d63e0b7da85d310a9db0c9a60405180806020018281038252604b8152602001807f4f7261636c697a6520717565727920776173204e4f542073656e742c20706c6581526020017f6173652061646420736f6d652045544820746f20636f76657220666f7220746881526020017f652071756572792066656500000000000000000000000000000000000000000081525060600191505060405180910390a16105b2565b7f46cb989ef9cef13e930e3b7f286225a086e716a90d63e0b7da85d310a9db0c9a6040518080602001828103825260308152602001807f4f7261636c697a65207175657279207761732073656e74202d2077616974696e81526020017f6720666f722074686520616e737765720000000000000000000000000000000081525060400191505060405180910390a16105b06007546040805190810160405280600381526020017f55524c000000000000000000000000000000000000000000000000000000000081525060068054600181600116156101000203166002900480601f0160208091040260200160405190810160405280929190818152602001828054600181600116156101000203166002900480156105a65780601f1061057b576101008083540402835291602001916105a6565b820191906000526020600020905b81548152906001019060200180831161058957829003601f168201915b5050505050610d10565b505b565b6000600554905090565b60055481565b6000600554905090565b6000806000809054906101000a900473ffffffffffffffffffffffffffffffffffffffff1673ffffffffffffffffffffffffffffffffffffffff16148061063e5750600061063c6000809054906101000a900473ffffffffffffffffffffffffffffffffffffffff166112b2565b145b1561064f5761064d60006112bd565b505b6000809054906101000a900473ffffffffffffffffffffffffffffffffffffffff1673ffffffffffffffffffffffffffffffffffffffff166338cc48316040518163ffffffff167c0100000000000000000000000000000000000000000000000000000000028152600401602060405180830381600087803b1580156106d457600080fd5b505af11580156106e8573d6000803e3d6000fd5b505050506040513d60208110156106fe57600080fd5b810190808051906020019092919050505073ffffffffffffffffffffffffffffffffffffffff16600160009054906101000a900473ffffffffffffffffffffffffffffffffffffffff1673ffffffffffffffffffffffffffffffffffffffff16141515610866576000809054906101000a900473ffffffffffffffffffffffffffffffffffffffff1673ffffffffffffffffffffffffffffffffffffffff166338cc48316040518163ffffffff167c0100000000000000000000000000000000000000000000000000000000028152600401602060405180830381600087803b1580156107ea57600080fd5b505af11580156107fe573d6000803e3d6000fd5b505050506040513d602081101561081457600080fd5b8101908080519060200190929190505050600160006101000a81548173ffffffffffffffffffffffffffffffffffffffff021916908373ffffffffffffffffffffffffffffffffffffffff1602179055505b600160009054906101000a900473ffffffffffffffffffffffffffffffffffffffff1673ffffffffffffffffffffffffffffffffffffffff1663c281d19e6040518163ffffffff167c0100000000000000000000000000000000000000000000000000000000028152600401602060405180830381600087803b1580156108ec57600080fd5b505af1158015610900573d6000803e3d6000fd5b505050506040513d602081101561091657600080fd5b8101908080519060200190929190505050905090565b60006109398260006112ce565b9050919050565b6000806000809054906101000a900473ffffffffffffffffffffffffffffffffffffffff1673ffffffffffffffffffffffffffffffffffffffff1614806109b0575060006109ae6000809054906101000a900473ffffffffffffffffffffffffffffffffffffffff166112b2565b145b156109c1576109bf60006112bd565b505b6000809054906101000a900473ffffffffffffffffffffffffffffffffffffffff1673ffffffffffffffffffffffffffffffffffffffff166338cc48316040518163ffffffff167c0100000000000000000000000000000000000000000000000000000000028152600401602060405180830381600087803b158015610a4657600080fd5b505af1158015610a5a573d6000803e3d6000fd5b505050506040513d6020811015610a7057600080fd5b810190808051906020019092919050505073ffffffffffffffffffffffffffffffffffffffff16600160009054906101000a900473ffffffffffffffffffffffffffffffffffffffff1673ffffffffffffffffffffffffffffffffffffffff16141515610bd8576000809054906101000a900473ffffffffffffffffffffffffffffffffffffffff1673ffffffffffffffffffffffffffffffffffffffff166338cc48316040518163ffffffff167c0100000000000000000000000000000000000000000000000000000000028152600401602060405180830381600087803b158015610b5c57600080fd5b505af1158015610b70573d6000803e3d6000fd5b505050506040513d6020811015610b8657600080fd5b8101908080519060200190929190505050600160006101000a81548173ffffffffffffffffffffffffffffffffffffffff021916908373ffffffffffffffffffffffffffffffffffffffff1602179055505b600160009054906101000a900473ffffffffffffffffffffffffffffffffffffffff1673ffffffffffffffffffffffffffffffffffffffff1663524f3889836040518263ffffffff167c01000000000000000000000000000000000000000000000000000000000281526004018080602001828103825283818151815260200191508051906020019080838360005b83811015610c82578082015181840152602081019050610c67565b50505050905090810190601f168015610caf5780820380516001836020036101000a031916815260200191505b5092505050602060405180830381600087803b158015610cce57600080fd5b505af1158015610ce2573d6000803e3d6000fd5b505050506040513d6020811015610cf857600080fd5b81019080805190602001909291905050509050919050565b60008060008060009054906101000a900473ffffffffffffffffffffffffffffffffffffffff1673ffffffffffffffffffffffffffffffffffffffff161480610d8257506000610d806000809054906101000a900473ffffffffffffffffffffffffffffffffffffffff166112b2565b145b15610d9357610d9160006112bd565b505b6000809054906101000a900473ffffffffffffffffffffffffffffffffffffffff1673ffffffffffffffffffffffffffffffffffffffff166338cc48316040518163ffffffff167c0100000000000000000000000000000000000000000000000000000000028152600401602060405180830381600087803b158015610e1857600080fd5b505af1158015610e2c573d6000803e3d6000fd5b505050506040513d6020811015610e4257600080fd5b810190808051906020019092919050505073ffffffffffffffffffffffffffffffffffffffff16600160009054906101000a900473ffffffffffffffffffffffffffffffffffffffff1673ffffffffffffffffffffffffffffffffffffffff16141515610faa576000809054906101000a900473ffffffffffffffffffffffffffffffffffffffff1673ffffffffffffffffffffffffffffffffffffffff166338cc48316040518163ffffffff167c0100000000000000000000000000000000000000000000000000000000028152600401602060405180830381600087803b158015610f2e57600080fd5b505af1158015610f42573d6000803e3d6000fd5b505050506040513d6020811015610f5857600080fd5b8101908080519060200190929190505050600160006101000a81548173ffffffffffffffffffffffffffffffffffffffff021916908373ffffffffffffffffffffffffffffffffffffffff1602179055505b600160009054906101000a900473ffffffffffffffffffffffffffffffffffffffff1673ffffffffffffffffffffffffffffffffffffffff1663524f3889856040518263ffffffff167c01000000000000000000000000000000000000000000000000000000000281526004018080602001828103825283818151815260200191508051906020019080838360005b83811015611054578082015181840152602081019050611039565b50505050905090810190601f1680156110815780820380516001836020036101000a031916815260200191505b5092505050602060405180830381600087803b1580156110a057600080fd5b505af11580156110b4573d6000803e3d6000fd5b505050506040513d60208110156110ca57600080fd5b8101908080519060200190929190505050905062030d403a02670de0b6b3a76400000181111561110057600060010291506112aa565b600160009054906101000a900473ffffffffffffffffffffffffffffffffffffffff1673ffffffffffffffffffffffffffffffffffffffff1663adf59f99828787876040518563ffffffff167c0100000000000000000000000000000000000000000000000000000000028152600401808481526020018060200180602001838103835285818151815260200191508051906020019080838360005b838110156111b757808201518184015260208101905061119c565b50505050905090810190601f1680156111e45780820380516001836020036101000a031916815260200191505b50838103825284818151815260200191508051906020019080838360005b8381101561121d578082015181840152602081019050611202565b50505050905090810190601f16801561124a5780820380516001836020036101000a031916815260200191505b50955050505050506020604051808303818588803b15801561126b57600080fd5b505af115801561127f573d6000803e3d6000fd5b50505050506040513d602081101561129657600080fd5b810190808051906020019092919050505091505b509392505050565b6000813b9050919050565b60006112c76115c2565b9050919050565b6000606060008060008693506000925060009150600090505b83518110156115a35760307f010000000000000000000000000000000000000000000000000000000000000002848281518110151561132257fe5b9060200101517f010000000000000000000000000000000000000000000000000000000000000090047f0100000000000000000000000000000000000000000000000000000000000000027effffffffffffffffffffffffffffffffffffffffffffffffffffffffffffff19161015801561143a575060397f01000000000000000000000000000000000000000000000000000000000000000284828151811015156113ca57fe5b9060200101517f010000000000000000000000000000000000000000000000000000000000000090047f0100000000000000000000000000000000000000000000000000000000000000027effffffffffffffffffffffffffffffffffffffffffffffffffffffffffffff191611155b156114eb57811561145d576000861415611453576115a3565b8580600190039650505b600a830292506030848281518110151561147357fe5b9060200101517f010000000000000000000000000000000000000000000000000000000000000090047f0100000000000000000000000000000000000000000000000000000000000000027f010000000000000000000000000000000000000000000000000000000000000090040383019250611596565b602e7f010000000000000000000000000000000000000000000000000000000000000002848281518110151561151d57fe5b9060200101517f010000000000000000000000000000000000000000000000000000000000000090047f0100000000000000000000000000000000000000000000000000000000000000027effffffffffffffffffffffffffffffffffffffffffffffffffffffffffffff1916141561159557600191505b5b80806001019150506112e7565b60008611156115b55785600a0a830292505b8294505050505092915050565b6000806115e2731d3b2638a7cc9f2cb3d298a3da7a90b67e5506ed6112b2565b111561168357731d3b2638a7cc9f2cb3d298a3da7a90b67e5506ed6000806101000a81548173ffffffffffffffffffffffffffffffffffffffff021916908373ffffffffffffffffffffffffffffffffffffffff16021790555061167a6040805190810160405280600b81526020017f6574685f6d61696e6e6574000000000000000000000000000000000000000000815250611a51565b60019050611a4e565b60006116a273c03a2615d5efaf5f49f60b7bb6583eaec212fdf16112b2565b11156117435773c03a2615d5efaf5f49f60b7bb6583eaec212fdf16000806101000a81548173ffffffffffffffffffffffffffffffffffffffff021916908373ffffffffffffffffffffffffffffffffffffffff16021790555061173a6040805190810160405280600c81526020017f6574685f726f707374656e330000000000000000000000000000000000000000815250611a51565b60019050611a4e565b600061176273b7a07bcf2ba2f2703b24c0691b5278999c59ac7e6112b2565b11156118035773b7a07bcf2ba2f2703b24c0691b5278999c59ac7e6000806101000a81548173ffffffffffffffffffffffffffffffffffffffff021916908373ffffffffffffffffffffffffffffffffffffffff1602179055506117fa6040805190810160405280600981526020017f6574685f6b6f76616e0000000000000000000000000000000000000000000000815250611a51565b60019050611a4e565b600061182273146500cfd35b22e4a392fe0adc06de1a1368ed486112b2565b11156118c35773146500cfd35b22e4a392fe0adc06de1a1368ed486000806101000a81548173ffffffffffffffffffffffffffffffffffffffff021916908373ffffffffffffffffffffffffffffffffffffffff1602179055506118ba6040805190810160405280600b81526020017f6574685f72696e6b656279000000000000000000000000000000000000000000815250611a51565b60019050611a4e565b60006118e2736f485c8bf6fc43ea212e93bbf8ce046c7f1cb4756112b2565b111561194557736f485c8bf6fc43ea212e93bbf8ce046c7f1cb4756000806101000a81548173ffffffffffffffffffffffffffffffffffffffff021916908373ffffffffffffffffffffffffffffffffffffffff16021790555060019050611a4e565b60006119647320e12a1f859b3feae5fb2a0a32c18f5a65555bbf6112b2565b11156119c7577320e12a1f859b3feae5fb2a0a32c18f5a65555bbf6000806101000a81548173ffffffffffffffffffffffffffffffffffffffff021916908373ffffffffffffffffffffffffffffffffffffffff16021790555060019050611a4e565b60006119e67351efaf4c8b3c9afbd5ab9f4bbc82784ab6ef8faa6112b2565b1115611a49577351efaf4c8b3c9afbd5ab9f4bbc82784ab6ef8faa6000806101000a81548173ffffffffffffffffffffffffffffffffffffffff021916908373ffffffffffffffffffffffffffffffffffffffff16021790555060019050611a4e565b600090505b90565b8060029080519060200190611a67929190611a6b565b5050565b828054600181600116156101000203166002900490600052602060002090601f016020900481019282601f10611aac57805160ff1916838001178555611ada565b82800160010185558215611ada579182015b82811115611ad9578251825591602001919060010190611abe565b5b509050611ae79190611aeb565b5090565b611b0d91905b80821115611b09576000816000905550600101611af1565b5090565b905600a165627a7a72305820ff3e765406c7f8eec00ef6b166bb6e240dc32bb37cb53e16a12ab3e27b95866c0029",
  "source": "pragma solidity ^0.4.23;\r\n\r\nimport \"./IVehicleRegistryFeeChecker.sol\";\r\nimport \"../installed_contracts/oraclize-api/contracts/usingOraclize.sol\";\r\n\r\ncontract VehicleRegistryFeeChecker is usingOraclize, IVehicleRegistryFeeChecker {\r\n\r\n    uint256 public registrationPriceEth;\r\n    string private oracleQuery;\r\n    uint private refreshSeconds;\r\n\r\n    function getRegistrationFeeEth() external view returns (uint256) {\r\n        return registrationPriceEth;\r\n    }\r\n\r\n    function getTransferFeeEth() external view returns (uint256) {\r\n        //for now tfr fee = reg fee (interface allows it to be different in the future)\r\n        return registrationPriceEth;\r\n    }    \r\n\r\n    event newOraclizeQuery(string _description);\r\n    event newRegistrationPrice(string price);\r\n\r\n    constructor (string _oracleQuery, uint _refreshSeconds) public {\r\n        oraclize_setProof(proofType_TLSNotary | proofStorage_IPFS);\r\n        updatePrices();\r\n        oracleQuery = _oracleQuery;\r\n        refreshSeconds = _refreshSeconds;\r\n    }\r\n\r\n    function __callback(bytes32 myid, string result) public {\r\n        require(msg.sender == oraclize_cbAddress());\r\n        registrationPriceEth = parseInt(result);\r\n        emit newRegistrationPrice(result);\r\n    }\r\n\r\n    function updatePrices() public payable {\r\n        // \"json(https://pricehost.com/vehicleregistration/prices).prices.registration.ETH\"\r\n\r\n        if (oraclize_getPrice(\"URL\") > address(this).balance) {\r\n            emit newOraclizeQuery(\"Oraclize query was NOT sent, please add some ETH to cover for the query fee\");\r\n        } else {\r\n            emit newOraclizeQuery(\"Oraclize query was sent - waiting for the answer\");\r\n            oraclize_query(refreshSeconds, \"URL\", oracleQuery);\r\n        }\r\n    }\r\n}",
  "sourcePath": "C:\\dev\\repos\\VehicleMaintenanceRegistry\\src\\VMR\\contracts\\VehicleRegistryFeeChecker.sol",
  "compiler": {
    "name": "solc",
    "version": "0.4.24+commit.e67f0147.Emscripten.clang"
  },
  "schemaVersion": "2.0.1",
  "updatedAt": "2018-07-06T16:35:45.582Z"
}