{
  "contractName": "VehicleRegistry",
  "abi": [
    {
      "constant": true,
      "inputs": [
        {
          "name": "_memberId",
          "type": "bytes32"
        }
      ],
      "name": "getMemberNumber",
      "outputs": [
        {
          "name": "",
          "type": "uint256"
        }
      ],
      "payable": false,
      "stateMutability": "view",
      "type": "function"
    },
    {
      "constant": false,
      "inputs": [
        {
          "name": "_memberNumber",
          "type": "uint256"
        },
        {
          "name": "_attributeNumber",
          "type": "uint256"
        },
        {
          "name": "_attributeType",
          "type": "bytes32"
        },
        {
          "name": "_attributeValue",
          "type": "bytes32"
        }
      ],
      "name": "setMemberAttribute",
      "outputs": [],
      "payable": true,
      "stateMutability": "payable",
      "type": "function"
    },
    {
      "constant": true,
      "inputs": [
        {
          "name": "_memberNumber",
          "type": "uint256"
        },
        {
          "name": "_attributeNumber",
          "type": "uint256"
        }
      ],
      "name": "getMemberAttribute",
      "outputs": [
        {
          "name": "attributeNumber",
          "type": "uint256"
        },
        {
          "name": "attributeName",
          "type": "bytes32"
        },
        {
          "name": "attributeType",
          "type": "bytes32"
        },
        {
          "name": "attributeValue",
          "type": "bytes32"
        }
      ],
      "payable": false,
      "stateMutability": "view",
      "type": "function"
    },
    {
      "constant": false,
      "inputs": [],
      "name": "unpause",
      "outputs": [],
      "payable": false,
      "stateMutability": "nonpayable",
      "type": "function"
    },
    {
      "constant": true,
      "inputs": [],
      "name": "getMemberTotalCount",
      "outputs": [
        {
          "name": "",
          "type": "uint256"
        }
      ],
      "payable": false,
      "stateMutability": "view",
      "type": "function"
    },
    {
      "constant": false,
      "inputs": [
        {
          "name": "_memberNumber",
          "type": "uint256"
        },
        {
          "name": "_keyHash",
          "type": "bytes32"
        }
      ],
      "name": "acceptMemberOwnership",
      "outputs": [],
      "payable": true,
      "stateMutability": "payable",
      "type": "function"
    },
    {
      "constant": true,
      "inputs": [
        {
          "name": "_memberId",
          "type": "bytes32"
        }
      ],
      "name": "getMemberOwner",
      "outputs": [
        {
          "name": "",
          "type": "address"
        }
      ],
      "payable": false,
      "stateMutability": "view",
      "type": "function"
    },
    {
      "constant": false,
      "inputs": [
        {
          "name": "_memberNumber",
          "type": "uint256"
        }
      ],
      "name": "enableMember",
      "outputs": [],
      "payable": true,
      "stateMutability": "payable",
      "type": "function"
    },
    {
      "constant": true,
      "inputs": [],
      "name": "maintenanceLogAttributeType",
      "outputs": [
        {
          "name": "",
          "type": "bytes32"
        }
      ],
      "payable": false,
      "stateMutability": "view",
      "type": "function"
    },
    {
      "constant": false,
      "inputs": [],
      "name": "claimOwnership",
      "outputs": [],
      "payable": false,
      "stateMutability": "nonpayable",
      "type": "function"
    },
    {
      "constant": true,
      "inputs": [],
      "name": "feeLookupAddress",
      "outputs": [
        {
          "name": "",
          "type": "address"
        }
      ],
      "payable": false,
      "stateMutability": "view",
      "type": "function"
    },
    {
      "constant": true,
      "inputs": [],
      "name": "paused",
      "outputs": [
        {
          "name": "",
          "type": "bool"
        }
      ],
      "payable": false,
      "stateMutability": "view",
      "type": "function"
    },
    {
      "constant": false,
      "inputs": [],
      "name": "renounceOwnership",
      "outputs": [],
      "payable": false,
      "stateMutability": "nonpayable",
      "type": "function"
    },
    {
      "constant": false,
      "inputs": [
        {
          "name": "_memberNumber",
          "type": "uint256"
        },
        {
          "name": "_attributeName",
          "type": "bytes32"
        },
        {
          "name": "_attributeType",
          "type": "bytes32"
        },
        {
          "name": "_attributeValue",
          "type": "bytes32"
        }
      ],
      "name": "addMemberAttribute",
      "outputs": [
        {
          "name": "",
          "type": "uint256"
        }
      ],
      "payable": true,
      "stateMutability": "payable",
      "type": "function"
    },
    {
      "constant": false,
      "inputs": [],
      "name": "pause",
      "outputs": [],
      "payable": false,
      "stateMutability": "nonpayable",
      "type": "function"
    },
    {
      "constant": true,
      "inputs": [],
      "name": "storageAddress",
      "outputs": [
        {
          "name": "",
          "type": "address"
        }
      ],
      "payable": false,
      "stateMutability": "view",
      "type": "function"
    },
    {
      "constant": true,
      "inputs": [],
      "name": "owner",
      "outputs": [
        {
          "name": "",
          "type": "address"
        }
      ],
      "payable": false,
      "stateMutability": "view",
      "type": "function"
    },
    {
      "constant": true,
      "inputs": [],
      "name": "maintenanceLogAttributeName",
      "outputs": [
        {
          "name": "",
          "type": "bytes32"
        }
      ],
      "payable": false,
      "stateMutability": "view",
      "type": "function"
    },
    {
      "constant": true,
      "inputs": [
        {
          "name": "_memberNumber",
          "type": "uint256"
        }
      ],
      "name": "isMemberRegistered",
      "outputs": [
        {
          "name": "",
          "type": "bool"
        }
      ],
      "payable": false,
      "stateMutability": "view",
      "type": "function"
    },
    {
      "constant": true,
      "inputs": [
        {
          "name": "_memberNumber",
          "type": "uint256"
        }
      ],
      "name": "getMember",
      "outputs": [
        {
          "name": "memberNumber",
          "type": "uint256"
        },
        {
          "name": "memberId",
          "type": "bytes32"
        },
        {
          "name": "owner",
          "type": "address"
        },
        {
          "name": "enabled",
          "type": "bool"
        },
        {
          "name": "created",
          "type": "uint256"
        }
      ],
      "payable": false,
      "stateMutability": "view",
      "type": "function"
    },
    {
      "constant": false,
      "inputs": [
        {
          "name": "_memberNumber",
          "type": "uint256"
        },
        {
          "name": "_newOwner",
          "type": "address"
        },
        {
          "name": "_keyHash",
          "type": "bytes32"
        }
      ],
      "name": "transferMemberOwnership",
      "outputs": [],
      "payable": true,
      "stateMutability": "payable",
      "type": "function"
    },
    {
      "constant": true,
      "inputs": [
        {
          "name": "_memberNumber",
          "type": "uint256"
        },
        {
          "name": "_attributeName",
          "type": "bytes32"
        }
      ],
      "name": "getMemberAttributeNumber",
      "outputs": [
        {
          "name": "",
          "type": "uint256"
        }
      ],
      "payable": false,
      "stateMutability": "view",
      "type": "function"
    },
    {
      "constant": false,
      "inputs": [
        {
          "name": "_memberNumber",
          "type": "uint256"
        }
      ],
      "name": "disableMember",
      "outputs": [],
      "payable": true,
      "stateMutability": "payable",
      "type": "function"
    },
    {
      "constant": true,
      "inputs": [
        {
          "name": "_memberId",
          "type": "bytes32"
        }
      ],
      "name": "isMemberRegisteredAndEnabled",
      "outputs": [
        {
          "name": "",
          "type": "bool"
        }
      ],
      "payable": false,
      "stateMutability": "view",
      "type": "function"
    },
    {
      "constant": true,
      "inputs": [
        {
          "name": "_address",
          "type": "address"
        }
      ],
      "name": "isAllowedToRegisterMember",
      "outputs": [
        {
          "name": "",
          "type": "bool"
        }
      ],
      "payable": false,
      "stateMutability": "view",
      "type": "function"
    },
    {
      "constant": false,
      "inputs": [
        {
          "name": "tokens",
          "type": "address[]"
        }
      ],
      "name": "destroy",
      "outputs": [],
      "payable": false,
      "stateMutability": "nonpayable",
      "type": "function"
    },
    {
      "constant": false,
      "inputs": [
        {
          "name": "_feeLookupAddress",
          "type": "address"
        }
      ],
      "name": "setFeeLookupAddress",
      "outputs": [],
      "payable": false,
      "stateMutability": "nonpayable",
      "type": "function"
    },
    {
      "constant": true,
      "inputs": [],
      "name": "manufacturerAttributeType",
      "outputs": [
        {
          "name": "",
          "type": "bytes32"
        }
      ],
      "payable": false,
      "stateMutability": "view",
      "type": "function"
    },
    {
      "constant": true,
      "inputs": [],
      "name": "manufacturerAttributeName",
      "outputs": [
        {
          "name": "",
          "type": "bytes32"
        }
      ],
      "payable": false,
      "stateMutability": "view",
      "type": "function"
    },
    {
      "constant": true,
      "inputs": [
        {
          "name": "_memberNumber",
          "type": "uint256"
        }
      ],
      "name": "getMemberAttributeTotalCount",
      "outputs": [
        {
          "name": "",
          "type": "uint256"
        }
      ],
      "payable": false,
      "stateMutability": "view",
      "type": "function"
    },
    {
      "constant": true,
      "inputs": [],
      "name": "pendingOwner",
      "outputs": [
        {
          "name": "",
          "type": "address"
        }
      ],
      "payable": false,
      "stateMutability": "view",
      "type": "function"
    },
    {
      "constant": false,
      "inputs": [
        {
          "name": "newOwner",
          "type": "address"
        }
      ],
      "name": "transferOwnership",
      "outputs": [],
      "payable": false,
      "stateMutability": "nonpayable",
      "type": "function"
    },
    {
      "inputs": [
        {
          "name": "_storageAddress",
          "type": "address"
        },
        {
          "name": "_feeLookupAddres",
          "type": "address"
        },
        {
          "name": "_manufacturerRegistryStorageAddress",
          "type": "address"
        }
      ],
      "payable": false,
      "stateMutability": "nonpayable",
      "type": "constructor"
    },
    {
      "anonymous": false,
      "inputs": [
        {
          "indexed": false,
          "name": "message",
          "type": "string"
        }
      ],
      "name": "LogInfo",
      "type": "event"
    },
    {
      "anonymous": false,
      "inputs": [
        {
          "indexed": true,
          "name": "memberNumber",
          "type": "uint256"
        },
        {
          "indexed": true,
          "name": "memberId",
          "type": "bytes32"
        }
      ],
      "name": "MemberRegistered",
      "type": "event"
    },
    {
      "anonymous": false,
      "inputs": [
        {
          "indexed": true,
          "name": "memberNumber",
          "type": "uint256"
        }
      ],
      "name": "MemberEnabled",
      "type": "event"
    },
    {
      "anonymous": false,
      "inputs": [
        {
          "indexed": true,
          "name": "memberNumber",
          "type": "uint256"
        }
      ],
      "name": "MemberDisabled",
      "type": "event"
    },
    {
      "anonymous": false,
      "inputs": [
        {
          "indexed": true,
          "name": "memberNumber",
          "type": "uint256"
        },
        {
          "indexed": true,
          "name": "from",
          "type": "address"
        },
        {
          "indexed": true,
          "name": "to",
          "type": "address"
        }
      ],
      "name": "MemberOwnershipTransferRequest",
      "type": "event"
    },
    {
      "anonymous": false,
      "inputs": [
        {
          "indexed": true,
          "name": "memberNumber",
          "type": "uint256"
        },
        {
          "indexed": true,
          "name": "newOwner",
          "type": "address"
        }
      ],
      "name": "MemberOwnershipTransferAccepted",
      "type": "event"
    },
    {
      "anonymous": false,
      "inputs": [
        {
          "indexed": true,
          "name": "memberNumber",
          "type": "uint256"
        },
        {
          "indexed": true,
          "name": "attributeNumber",
          "type": "uint256"
        },
        {
          "indexed": true,
          "name": "attributeName",
          "type": "bytes32"
        },
        {
          "indexed": false,
          "name": "attributeType",
          "type": "bytes32"
        },
        {
          "indexed": false,
          "name": "attributeValue",
          "type": "bytes32"
        }
      ],
      "name": "MemberAttributeChanged",
      "type": "event"
    },
    {
      "anonymous": false,
      "inputs": [],
      "name": "Pause",
      "type": "event"
    },
    {
      "anonymous": false,
      "inputs": [],
      "name": "Unpause",
      "type": "event"
    },
    {
      "anonymous": false,
      "inputs": [
        {
          "indexed": true,
          "name": "previousOwner",
          "type": "address"
        }
      ],
      "name": "OwnershipRenounced",
      "type": "event"
    },
    {
      "anonymous": false,
      "inputs": [
        {
          "indexed": true,
          "name": "previousOwner",
          "type": "address"
        },
        {
          "indexed": true,
          "name": "newOwner",
          "type": "address"
        }
      ],
      "name": "OwnershipTransferred",
      "type": "event"
    },
    {
      "constant": false,
      "inputs": [
        {
          "name": "",
          "type": "bytes32"
        }
      ],
      "name": "registerMember",
      "outputs": [
        {
          "name": "",
          "type": "uint256"
        }
      ],
      "payable": true,
      "stateMutability": "payable",
      "type": "function"
    },
    {
      "constant": false,
      "inputs": [
        {
          "name": "_vin",
          "type": "bytes32"
        },
        {
          "name": "_manufacturerId",
          "type": "bytes32"
        }
      ],
      "name": "registerVehicle",
      "outputs": [
        {
          "name": "",
          "type": "uint256"
        }
      ],
      "payable": true,
      "stateMutability": "payable",
      "type": "function"
    },
    {
      "constant": false,
      "inputs": [
        {
          "name": "_memberNumber",
          "type": "uint256"
        },
        {
          "name": "_address",
          "type": "address"
        }
      ],
      "name": "setMaintenanceLogAddress",
      "outputs": [],
      "payable": true,
      "stateMutability": "payable",
      "type": "function"
    },
    {
      "constant": true,
      "inputs": [
        {
          "name": "_memberNumber",
          "type": "uint256"
        }
      ],
      "name": "getMaintenanceLogAddress",
      "outputs": [
        {
          "name": "",
          "type": "address"
        }
      ],
      "payable": false,
      "stateMutability": "view",
      "type": "function"
    }
  ],
  "bytecode": "0x60806040526000600160146101000a81548160ff02191690831515021790555034801561002b57600080fd5b5060405160608062005c188339810180604052810190808051906020019092919080519060200190929190805190602001909291905050508282336000806101000a81548173ffffffffffffffffffffffffffffffffffffffff021916908373ffffffffffffffffffffffffffffffffffffffff16021790555081600260006101000a81548173ffffffffffffffffffffffffffffffffffffffff021916908373ffffffffffffffffffffffffffffffffffffffff16021790555080600360006101000a81548173ffffffffffffffffffffffffffffffffffffffff021916908373ffffffffffffffffffffffffffffffffffffffff160217905550505080600860006101000a81548173ffffffffffffffffffffffffffffffffffffffff021916908373ffffffffffffffffffffffffffffffffffffffff1602179055507f6d616e7566616374757265720000000000000000000000000000000000000000600681600019169055507f6964000000000000000000000000000000000000000000000000000000000000600781600019169055507f6d61696e74656e616e63654c6f67000000000000000000000000000000000000600481600019169055507f6164647265737300000000000000000000000000000000000000000000000000600581600019169055505050506159ef80620002296000396000f3006080604052600436106101c2576000357c0100000000000000000000000000000000000000000000000000000000900463ffffffff16806314ef55b9146101c75780631c894c1f1461020c57806324ce21951461024c5780632a9cbbed14610292578063330ccf0b1461030a5780633f4ba83a1461037757806346dbf2541461038e57806347bd3489146103b95780634b3cb584146103e75780634bd3dbb9146104585780634c93da8f146104785780634e71e0c8146104ab57806358c34074146104c25780635c975abb1461051957806369c6fbfb14610548578063715018a61461058e5780637aaca2f8146105a55780638456cb591461060357806385aa92a71461061a5780638da5cb5b14610671578063909dd986146106c8578063a79e6533146106fb578063ab3545e514610740578063ad1c5a7a146107d5578063b44691d614610823578063b8f5138e14610872578063c02b499114610892578063c65a9d30146108db578063c6786e5a14610936578063ca4967d51461099c578063d9b577b0146109df578063de6c625c14610a12578063de71e19a14610a45578063e30c397814610a86578063f2fde38b14610add578063fd8785c914610b20575b600080fd5b3480156101d357600080fd5b506101f66004803603810190808035600019169060200190929190505050610b58565b6040518082815260200191505060405180910390f35b61024a60048036038101908080359060200190929190803573ffffffffffffffffffffffffffffffffffffffff169060200190929190505050610c7b565b005b610290600480360381019080803590602001909291908035906020019092919080356000191690602001909291908035600019169060200190929190505050611051565b005b34801561029e57600080fd5b506102c7600480360381019080803590602001909291908035906020019092919050505061154a565b6040518085815260200184600019166000191681526020018360001916600019168152602001826000191660001916815260200194505050505060405180910390f35b34801561031657600080fd5b50610335600480360381019080803590602001909291905050506117c9565b604051808273ffffffffffffffffffffffffffffffffffffffff1673ffffffffffffffffffffffffffffffffffffffff16815260200191505060405180910390f35b34801561038357600080fd5b5061038c611815565b005b34801561039a57600080fd5b506103a36118d4565b6040518082815260200191505060405180910390f35b6103e56004803603810190808035906020019092919080356000191690602001909291905050506119cf565b005b3480156103f357600080fd5b506104166004803603810190808035600019169060200190929190505050611e9b565b604051808273ffffffffffffffffffffffffffffffffffffffff1673ffffffffffffffffffffffffffffffffffffffff16815260200191505060405180910390f35b61047660048036038101908080359060200190929190505050611fdb565b005b34801561048457600080fd5b5061048d61237b565b60405180826000191660001916815260200191505060405180910390f35b3480156104b757600080fd5b506104c0612381565b005b3480156104ce57600080fd5b506104d7612520565b604051808273ffffffffffffffffffffffffffffffffffffffff1673ffffffffffffffffffffffffffffffffffffffff16815260200191505060405180910390f35b34801561052557600080fd5b5061052e612546565b604051808215151515815260200191505060405180910390f35b61057860048036038101908080356000191690602001909291908035600019169060200190929190505050612559565b6040518082815260200191505060405180910390f35b34801561059a57600080fd5b506105a3612d84565b005b6105ed60048036038101908080359060200190929190803560001916906020019092919080356000191690602001909291908035600019169060200190929190505050612e86565b6040518082815260200191505060405180910390f35b34801561060f57600080fd5b506106186132b7565b005b34801561062657600080fd5b5061062f613376565b604051808273ffffffffffffffffffffffffffffffffffffffff1673ffffffffffffffffffffffffffffffffffffffff16815260200191505060405180910390f35b34801561067d57600080fd5b5061068661339c565b604051808273ffffffffffffffffffffffffffffffffffffffff1673ffffffffffffffffffffffffffffffffffffffff16815260200191505060405180910390f35b3480156106d457600080fd5b506106dd6133c1565b60405180826000191660001916815260200191505060405180910390f35b34801561070757600080fd5b50610726600480360381019080803590602001909291905050506133c7565b604051808215151515815260200191505060405180910390f35b34801561074c57600080fd5b5061076b600480360381019080803590602001909291905050506134cc565b6040518086815260200185600019166000191681526020018473ffffffffffffffffffffffffffffffffffffffff1673ffffffffffffffffffffffffffffffffffffffff168152602001831515151581526020018281526020019550505050505060405180910390f35b61082160048036038101908080359060200190929190803573ffffffffffffffffffffffffffffffffffffffff169060200190929190803560001916906020019092919050505061361d565b005b34801561082f57600080fd5b5061085c600480360381019080803590602001909291908035600019169060200190929190505050613c9f565b6040518082815260200191505060405180910390f35b61089060048036038101908080359060200190929190505050613fdc565b005b34801561089e57600080fd5b506108c1600480360381019080803560001916906020019092919050505061437b565b604051808215151515815260200191505060405180910390f35b3480156108e757600080fd5b5061091c600480360381019080803573ffffffffffffffffffffffffffffffffffffffff1690602001909291905050506143bd565b604051808215151515815260200191505060405180910390f35b34801561094257600080fd5b5061099a60048036038101908080359060200190820180359060200190808060200260200160405190810160405280939291908181526020018383602002808284378201915050505050509192919290505050614416565b005b3480156109a857600080fd5b506109dd600480360381019080803573ffffffffffffffffffffffffffffffffffffffff1690602001909291905050506146bd565b005b3480156109eb57600080fd5b506109f46147d4565b60405180826000191660001916815260200191505060405180910390f35b348015610a1e57600080fd5b50610a276147da565b60405180826000191660001916815260200191505060405180910390f35b348015610a5157600080fd5b50610a70600480360381019080803590602001909291905050506147e0565b6040518082815260200191505060405180910390f35b348015610a9257600080fd5b50610a9b6149ee565b604051808273ffffffffffffffffffffffffffffffffffffffff1673ffffffffffffffffffffffffffffffffffffffff16815260200191505060405180910390f35b348015610ae957600080fd5b50610b1e600480360381019080803573ffffffffffffffffffffffffffffffffffffffff169060200190929190505050614a14565b005b610b426004803603810190808035600019169060200190929190505050614ab3565b6040518082815260200191505060405180910390f35b60008173__RegistryStorageLib____________________63cc40ddc0600260009054906101000a900473ffffffffffffffffffffffffffffffffffffffff16610ba184614b59565b6040518363ffffffff167c0100000000000000000000000000000000000000000000000000000000028152600401808373ffffffffffffffffffffffffffffffffffffffff1673ffffffffffffffffffffffffffffffffffffffff1681526020018281526020019250505060206040518083038186803b158015610c2457600080fd5b505af4158015610c38573d6000803e3d6000fd5b505050506040513d6020811015610c4e57600080fd5b81019080805190602001909291905050501515610c6a57600080fd5b610c7383614b59565b915050919050565b600160149054906101000a900460ff16151515610c9757600080fd5b8173__RegistryStorageLib____________________63ac926120600260009054906101000a900473ffffffffffffffffffffffffffffffffffffffff16836040518363ffffffff167c0100000000000000000000000000000000000000000000000000000000028152600401808373ffffffffffffffffffffffffffffffffffffffff1673ffffffffffffffffffffffffffffffffffffffff1681526020018281526020019250505060206040518083038186803b158015610d5957600080fd5b505af4158015610d6d573d6000803e3d6000fd5b505050506040513d6020811015610d8357600080fd5b81019080805190602001909291905050501515610d9f57600080fd5b823373ffffffffffffffffffffffffffffffffffffffff1673__RegistryStorageLib____________________63df3967f2600260009054906101000a900473ffffffffffffffffffffffffffffffffffffffff16846040518363ffffffff167c0100000000000000000000000000000000000000000000000000000000028152600401808373ffffffffffffffffffffffffffffffffffffffff1673ffffffffffffffffffffffffffffffffffffffff1681526020018281526020019250505060206040518083038186803b158015610e7857600080fd5b505af4158015610e8c573d6000803e3d6000fd5b505050506040513d6020811015610ea257600080fd5b810190808051906020019092919050505073ffffffffffffffffffffffffffffffffffffffff16141515610ed557600080fd5b82610ef58173ffffffffffffffffffffffffffffffffffffffff16614c66565b1515610f0057600080fd5b73__RegistryStorageLib____________________6347cc57f8600260009054906101000a900473ffffffffffffffffffffffffffffffffffffffff16876004546005548973ffffffffffffffffffffffffffffffffffffffff166001026040518663ffffffff167c0100000000000000000000000000000000000000000000000000000000028152600401808673ffffffffffffffffffffffffffffffffffffffff1673ffffffffffffffffffffffffffffffffffffffff1681526020018581526020018460001916600019168152602001836000191660001916815260200182600019166000191681526020019550505050505060206040518083038186803b15801561100e57600080fd5b505af4158015611022573d6000803e3d6000fd5b505050506040513d602081101561103857600080fd5b8101908080519060200190929190505050505050505050565b6000600160149054906101000a900460ff1615151561106f57600080fd5b6000809054906101000a900473ffffffffffffffffffffffffffffffffffffffff1673ffffffffffffffffffffffffffffffffffffffff163373ffffffffffffffffffffffffffffffffffffffff161415156110ca57600080fd5b8473__RegistryStorageLib____________________63cc40ddc0600260009054906101000a900473ffffffffffffffffffffffffffffffffffffffff16836040518363ffffffff167c0100000000000000000000000000000000000000000000000000000000028152600401808373ffffffffffffffffffffffffffffffffffffffff1673ffffffffffffffffffffffffffffffffffffffff1681526020018281526020019250505060206040518083038186803b15801561118c57600080fd5b505af41580156111a0573d6000803e3d6000fd5b505050506040513d60208110156111b657600080fd5b810190808051906020019092919050505015156111d257600080fd5b858573__RegistryStorageLib____________________63775abae4600260009054906101000a900473ffffffffffffffffffffffffffffffffffffffff1684846040518463ffffffff167c0100000000000000000000000000000000000000000000000000000000028152600401808473ffffffffffffffffffffffffffffffffffffffff1673ffffffffffffffffffffffffffffffffffffffff168152602001838152602001828152602001935050505060206040518083038186803b15801561129d57600080fd5b505af41580156112b1573d6000803e3d6000fd5b505050506040513d60208110156112c757600080fd5b810190808051906020019092919050505015156112e357600080fd5b73__RegistryStorageLib____________________63f9db0652600260009054906101000a900473ffffffffffffffffffffffffffffffffffffffff168a8a8a8a6040518663ffffffff167c0100000000000000000000000000000000000000000000000000000000028152600401808673ffffffffffffffffffffffffffffffffffffffff1673ffffffffffffffffffffffffffffffffffffffff168152602001858152602001848152602001836000191660001916815260200182600019166000191681526020019550505050505060006040518083038186803b1580156113cc57600080fd5b505af41580156113e0573d6000803e3d6000fd5b5050505073__RegistryStorageLib____________________63afeef9b8600260009054906101000a900473ffffffffffffffffffffffffffffffffffffffff168a8a6040518463ffffffff167c0100000000000000000000000000000000000000000000000000000000028152600401808473ffffffffffffffffffffffffffffffffffffffff1673ffffffffffffffffffffffffffffffffffffffff168152602001838152602001828152602001935050505060206040518083038186803b1580156114ad57600080fd5b505af41580156114c1573d6000803e3d6000fd5b505050506040513d60208110156114d757600080fd5b81019080805190602001909291905050509350836000191687897fc4970cc78910aa0998aca6333d6db8a393651a6560a464ddc2d6bbbed55cfc1e898960405180836000191660001916815260200182600019166000191681526020019250505060405180910390a45050505050505050565b60008060008061155861593f565b8673__RegistryStorageLib____________________63cc40ddc0600260009054906101000a900473ffffffffffffffffffffffffffffffffffffffff16836040518363ffffffff167c0100000000000000000000000000000000000000000000000000000000028152600401808373ffffffffffffffffffffffffffffffffffffffff1673ffffffffffffffffffffffffffffffffffffffff1681526020018281526020019250505060206040518083038186803b15801561161a57600080fd5b505af415801561162e573d6000803e3d6000fd5b505050506040513d602081101561164457600080fd5b8101908080519060200190929190505050151561166057600080fd5b878773__RegistryStorageLib____________________63775abae4600260009054906101000a900473ffffffffffffffffffffffffffffffffffffffff1684846040518463ffffffff167c0100000000000000000000000000000000000000000000000000000000028152600401808473ffffffffffffffffffffffffffffffffffffffff1673ffffffffffffffffffffffffffffffffffffffff168152602001838152602001828152602001935050505060206040518083038186803b15801561172b57600080fd5b505af415801561173f573d6000803e3d6000fd5b505050506040513d602081101561175557600080fd5b8101908080519060200190929190505050151561177157600080fd5b61179e600260009054906101000a900473ffffffffffffffffffffffffffffffffffffffff168b8b614c79565b9350836020015184606001518560400151866080015197509750975097505050505092959194509250565b60006117d361593f565b611802600260009054906101000a900473ffffffffffffffffffffffffffffffffffffffff1684600454614ce8565b9050806080015160019004915050919050565b6000809054906101000a900473ffffffffffffffffffffffffffffffffffffffff1673ffffffffffffffffffffffffffffffffffffffff163373ffffffffffffffffffffffffffffffffffffffff1614151561187057600080fd5b600160149054906101000a900460ff16151561188b57600080fd5b6000600160146101000a81548160ff0219169083151502179055507f7805862f689e2f13df9f062ff482ad3ad112aca9e0847911ed832e158c525b3360405160405180910390a1565b600073__RegistryStorageLib____________________6304543b61600260009054906101000a900473ffffffffffffffffffffffffffffffffffffffff166040518263ffffffff167c0100000000000000000000000000000000000000000000000000000000028152600401808273ffffffffffffffffffffffffffffffffffffffff1673ffffffffffffffffffffffffffffffffffffffff16815260200191505060206040518083038186803b15801561198f57600080fd5b505af41580156119a3573d6000803e3d6000fd5b505050506040513d60208110156119b957600080fd5b8101908080519060200190929190505050905090565b600160149054906101000a900460ff161515156119eb57600080fd5b8173__RegistryStorageLib____________________63cc40ddc0600260009054906101000a900473ffffffffffffffffffffffffffffffffffffffff16836040518363ffffffff167c0100000000000000000000000000000000000000000000000000000000028152600401808373ffffffffffffffffffffffffffffffffffffffff1673ffffffffffffffffffffffffffffffffffffffff1681526020018281526020019250505060206040518083038186803b158015611aad57600080fd5b505af4158015611ac1573d6000803e3d6000fd5b505050506040513d6020811015611ad757600080fd5b81019080805190602001909291905050501515611af357600080fd5b823373ffffffffffffffffffffffffffffffffffffffff1673__RegistryStorageLib____________________63b3931864600260009054906101000a900473ffffffffffffffffffffffffffffffffffffffff16846040518363ffffffff167c0100000000000000000000000000000000000000000000000000000000028152600401808373ffffffffffffffffffffffffffffffffffffffff1673ffffffffffffffffffffffffffffffffffffffff1681526020018281526020019250505060206040518083038186803b158015611bcc57600080fd5b505af4158015611be0573d6000803e3d6000fd5b505050506040513d6020811015611bf657600080fd5b810190808051906020019092919050505073ffffffffffffffffffffffffffffffffffffffff16141515611c2957600080fd5b8383600073__RegistryStorageLib____________________6322a04c45600260009054906101000a900473ffffffffffffffffffffffffffffffffffffffff16856040518363ffffffff167c0100000000000000000000000000000000000000000000000000000000028152600401808373ffffffffffffffffffffffffffffffffffffffff1673ffffffffffffffffffffffffffffffffffffffff1681526020018281526020019250505060206040518083038186803b158015611cee57600080fd5b505af4158015611d02573d6000803e3d6000fd5b505050506040513d6020811015611d1857600080fd5b8101908080519060200190929190505050905081600019168160001916141515611d4157600080fd5b73__RegistryStorageLib____________________635821edb0600260009054906101000a900473ffffffffffffffffffffffffffffffffffffffff1689336040518463ffffffff167c0100000000000000000000000000000000000000000000000000000000028152600401808473ffffffffffffffffffffffffffffffffffffffff1673ffffffffffffffffffffffffffffffffffffffff1681526020018381526020018273ffffffffffffffffffffffffffffffffffffffff1673ffffffffffffffffffffffffffffffffffffffff168152602001935050505060006040518083038186803b158015611e3657600080fd5b505af4158015611e4a573d6000803e3d6000fd5b505050503373ffffffffffffffffffffffffffffffffffffffff16877feacf7aee9e4ba56fb2dcdea3b816570de0f2a2e54f43a87a96286bcddec9488960405160405180910390a350505050505050565b600080611ea6615978565b8373__RegistryStorageLib____________________63cc40ddc0600260009054906101000a900473ffffffffffffffffffffffffffffffffffffffff16611eed84614b59565b6040518363ffffffff167c0100000000000000000000000000000000000000000000000000000000028152600401808373ffffffffffffffffffffffffffffffffffffffff1673ffffffffffffffffffffffffffffffffffffffff1681526020018281526020019250505060206040518083038186803b158015611f7057600080fd5b505af4158015611f84573d6000803e3d6000fd5b505050506040513d6020811015611f9a57600080fd5b81019080805190602001909291905050501515611fb657600080fd5b611fbf85610b58565b9250611fca83614d20565b915081604001519350505050919050565b600160149054906101000a900460ff16151515611ff757600080fd5b6000809054906101000a900473ffffffffffffffffffffffffffffffffffffffff1673ffffffffffffffffffffffffffffffffffffffff163373ffffffffffffffffffffffffffffffffffffffff1614151561205257600080fd5b8073__RegistryStorageLib____________________63cc40ddc0600260009054906101000a900473ffffffffffffffffffffffffffffffffffffffff16836040518363ffffffff167c0100000000000000000000000000000000000000000000000000000000028152600401808373ffffffffffffffffffffffffffffffffffffffff1673ffffffffffffffffffffffffffffffffffffffff1681526020018281526020019250505060206040518083038186803b15801561211457600080fd5b505af4158015612128573d6000803e3d6000fd5b505050506040513d602081101561213e57600080fd5b8101908080519060200190929190505050151561215a57600080fd5b8173__RegistryStorageLib____________________63ac926120600260009054906101000a900473ffffffffffffffffffffffffffffffffffffffff16836040518363ffffffff167c0100000000000000000000000000000000000000000000000000000000028152600401808373ffffffffffffffffffffffffffffffffffffffff1673ffffffffffffffffffffffffffffffffffffffff1681526020018281526020019250505060206040518083038186803b15801561221c57600080fd5b505af4158015612230573d6000803e3d6000fd5b505050506040513d602081101561224657600080fd5b810190808051906020019092919050505015151561226357600080fd5b73__RegistryStorageLib____________________63d8263dac600260009054906101000a900473ffffffffffffffffffffffffffffffffffffffff168560016040518463ffffffff167c0100000000000000000000000000000000000000000000000000000000028152600401808473ffffffffffffffffffffffffffffffffffffffff1673ffffffffffffffffffffffffffffffffffffffff16815260200183815260200182151515158152602001935050505060006040518083038186803b15801561233157600080fd5b505af4158015612345573d6000803e3d6000fd5b50505050827f6c1c54cd1cc41dc1d40182830f8d9a3d73a7775038c567cb154b38a2355da9a160405160405180910390a2505050565b60055481565b600160009054906101000a900473ffffffffffffffffffffffffffffffffffffffff1673ffffffffffffffffffffffffffffffffffffffff163373ffffffffffffffffffffffffffffffffffffffff161415156123dd57600080fd5b600160009054906101000a900473ffffffffffffffffffffffffffffffffffffffff1673ffffffffffffffffffffffffffffffffffffffff166000809054906101000a900473ffffffffffffffffffffffffffffffffffffffff1673ffffffffffffffffffffffffffffffffffffffff167f8be0079c531659141344cd1fd0a4f28419497f9722a3daafe3b4186f6b6457e060405160405180910390a3600160009054906101000a900473ffffffffffffffffffffffffffffffffffffffff166000806101000a81548173ffffffffffffffffffffffffffffffffffffffff021916908373ffffffffffffffffffffffffffffffffffffffff1602179055506000600160006101000a81548173ffffffffffffffffffffffffffffffffffffffff021916908373ffffffffffffffffffffffffffffffffffffffff160217905550565b600360009054906101000a900473ffffffffffffffffffffffffffffffffffffffff1681565b600160149054906101000a900460ff1681565b600080600160149054906101000a900460ff1615151561257857600080fd5b836011816000191673__ByteUtilsLib__________________________6335d7654d90916040518263ffffffff167c010000000000000000000000000000000000000000000000000000000002815260040180826000191660001916815260200191505060206040518083038186803b1580156125f457600080fd5b505af4158015612608573d6000803e3d6000fd5b505050506040513d602081101561261e57600080fd5b810190808051906020019092919050505014151561263b57600080fd5b8473__RegistryStorageLib____________________63cc40ddc0600260009054906101000a900473ffffffffffffffffffffffffffffffffffffffff1661268284614b59565b6040518363ffffffff167c0100000000000000000000000000000000000000000000000000000000028152600401808373ffffffffffffffffffffffffffffffffffffffff1673ffffffffffffffffffffffffffffffffffffffff1681526020018281526020019250505060206040518083038186803b15801561270557600080fd5b505af4158015612719573d6000803e3d6000fd5b505050506040513d602081101561272f57600080fd5b810190808051906020019092919050505015151561274c57600080fd5b34600360009054906101000a900473ffffffffffffffffffffffffffffffffffffffff1673ffffffffffffffffffffffffffffffffffffffff166388a6f5726040518163ffffffff167c0100000000000000000000000000000000000000000000000000000000028152600401602060405180830381600087803b1580156127d357600080fd5b505af11580156127e7573d6000803e3d6000fd5b505050506040513d60208110156127fd57600080fd5b81019080805190602001909291905050501115151561281b57600080fd5b84600860009054906101000a900473ffffffffffffffffffffffffffffffffffffffff1673ffffffffffffffffffffffffffffffffffffffff1663c02b4991826040518263ffffffff167c0100000000000000000000000000000000000000000000000000000000028152600401808260001916600019168152602001915050602060405180830381600087803b1580156128b557600080fd5b505af11580156128c9573d6000803e3d6000fd5b505050506040513d60208110156128df57600080fd5b810190808051906020019092919050505015156128fb57600080fd5b853373ffffffffffffffffffffffffffffffffffffffff16600860009054906101000a900473ffffffffffffffffffffffffffffffffffffffff1673ffffffffffffffffffffffffffffffffffffffff16634b3cb584836040518263ffffffff167c0100000000000000000000000000000000000000000000000000000000028152600401808260001916600019168152602001915050602060405180830381600087803b1580156129ac57600080fd5b505af11580156129c0573d6000803e3d6000fd5b505050506040513d60208110156129d657600080fd5b810190808051906020019092919050505073ffffffffffffffffffffffffffffffffffffffff16141515612a0957600080fd5b7ffee95ecae0c8f7f0743ec0ad254c78ab75e5ecca9f1ddcd9f11f9a98124b96bc6040518080602001828103825260158152602001807f426567696e20726567697374657256656869636c65000000000000000000000081525060200191505060405180910390a173__RegistryStorageLib____________________631e87dd3a600260009054906101000a900473ffffffffffffffffffffffffffffffffffffffff168a336040518463ffffffff167c0100000000000000000000000000000000000000000000000000000000028152600401808473ffffffffffffffffffffffffffffffffffffffff1673ffffffffffffffffffffffffffffffffffffffff16815260200183600019166000191681526020018273ffffffffffffffffffffffffffffffffffffffff1673ffffffffffffffffffffffffffffffffffffffff168152602001935050505060206040518083038186803b158015612b6e57600080fd5b505af4158015612b82573d6000803e3d6000fd5b505050506040513d6020811015612b9857600080fd5b8101908080519060200190929190505050945073__RegistryStorageLib____________________63cbc4a142600260009054906101000a900473ffffffffffffffffffffffffffffffffffffffff16876006546007548c6040518663ffffffff167c0100000000000000000000000000000000000000000000000000000000028152600401808673ffffffffffffffffffffffffffffffffffffffff1673ffffffffffffffffffffffffffffffffffffffff1681526020018581526020018460001916600019168152602001836000191660001916815260200182600019166000191681526020019550505050505060206040518083038186803b158015612ca057600080fd5b505af4158015612cb4573d6000803e3d6000fd5b505050506040513d6020811015612cca57600080fd5b8101908080519060200190929190505050508760001916857f477b3314cd7115720db0596138d56c5433466f6c53df7c920e096fbc06bc175e60405160405180910390a37ffee95ecae0c8f7f0743ec0ad254c78ab75e5ecca9f1ddcd9f11f9a98124b96bc6040518080602001828103825260138152602001807f456e6420726567697374657256656869636c650000000000000000000000000081525060200191505060405180910390a1849550505050505092915050565b6000809054906101000a900473ffffffffffffffffffffffffffffffffffffffff1673ffffffffffffffffffffffffffffffffffffffff163373ffffffffffffffffffffffffffffffffffffffff16141515612ddf57600080fd5b6000809054906101000a900473ffffffffffffffffffffffffffffffffffffffff1673ffffffffffffffffffffffffffffffffffffffff167ff8df31144d9c2f0f6b59d69b8b98abd5459d07f2742c4df920b25aae33c6482060405160405180910390a260008060006101000a81548173ffffffffffffffffffffffffffffffffffffffff021916908373ffffffffffffffffffffffffffffffffffffffff160217905550565b600080600160149054906101000a900460ff16151515612ea557600080fd5b6000809054906101000a900473ffffffffffffffffffffffffffffffffffffffff1673ffffffffffffffffffffffffffffffffffffffff163373ffffffffffffffffffffffffffffffffffffffff16141515612f0057600080fd5b8573__RegistryStorageLib____________________63cc40ddc0600260009054906101000a900473ffffffffffffffffffffffffffffffffffffffff16836040518363ffffffff167c0100000000000000000000000000000000000000000000000000000000028152600401808373ffffffffffffffffffffffffffffffffffffffff1673ffffffffffffffffffffffffffffffffffffffff1681526020018281526020019250505060206040518083038186803b158015612fc257600080fd5b505af4158015612fd6573d6000803e3d6000fd5b505050506040513d6020811015612fec57600080fd5b8101908080519060200190929190505050151561300857600080fd5b8686600073__RegistryStorageLib____________________639b15b8b2600260009054906101000a900473ffffffffffffffffffffffffffffffffffffffff1685856040518463ffffffff167c0100000000000000000000000000000000000000000000000000000000028152600401808473ffffffffffffffffffffffffffffffffffffffff1673ffffffffffffffffffffffffffffffffffffffff1681526020018381526020018260001916600019168152602001935050505060206040518083038186803b1580156130dd57600080fd5b505af41580156130f1573d6000803e3d6000fd5b505050506040513d602081101561310757600080fd5b810190808051906020019092919050505014151561312457600080fd5b73__RegistryStorageLib____________________63cbc4a142600260009054906101000a900473ffffffffffffffffffffffffffffffffffffffff168b8b8b8b6040518663ffffffff167c0100000000000000000000000000000000000000000000000000000000028152600401808673ffffffffffffffffffffffffffffffffffffffff1673ffffffffffffffffffffffffffffffffffffffff1681526020018581526020018460001916600019168152602001836000191660001916815260200182600019166000191681526020019550505050505060206040518083038186803b15801561321557600080fd5b505af4158015613229573d6000803e3d6000fd5b505050506040513d602081101561323f57600080fd5b810190808051906020019092919050505093508760001916848a7fc4970cc78910aa0998aca6333d6db8a393651a6560a464ddc2d6bbbed55cfc1e8a8a60405180836000191660001916815260200182600019166000191681526020019250505060405180910390a483945050505050949350505050565b6000809054906101000a900473ffffffffffffffffffffffffffffffffffffffff1673ffffffffffffffffffffffffffffffffffffffff163373ffffffffffffffffffffffffffffffffffffffff1614151561331257600080fd5b600160149054906101000a900460ff1615151561332e57600080fd5b60018060146101000a81548160ff0219169083151502179055507f6985a02210a168e66602d3235cb6db0e70f92b3ba4d376a33c0f3d9434bff62560405160405180910390a1565b600260009054906101000a900473ffffffffffffffffffffffffffffffffffffffff1681565b6000809054906101000a900473ffffffffffffffffffffffffffffffffffffffff1681565b60045481565b600073__RegistryStorageLib____________________63cc40ddc0600260009054906101000a900473ffffffffffffffffffffffffffffffffffffffff16846040518363ffffffff167c0100000000000000000000000000000000000000000000000000000000028152600401808373ffffffffffffffffffffffffffffffffffffffff1673ffffffffffffffffffffffffffffffffffffffff1681526020018281526020019250505060206040518083038186803b15801561348a57600080fd5b505af415801561349e573d6000803e3d6000fd5b505050506040513d60208110156134b457600080fd5b81019080805190602001909291905050509050919050565b60008060008060006134dc615978565b8673__RegistryStorageLib____________________63cc40ddc0600260009054906101000a900473ffffffffffffffffffffffffffffffffffffffff16836040518363ffffffff167c0100000000000000000000000000000000000000000000000000000000028152600401808373ffffffffffffffffffffffffffffffffffffffff1673ffffffffffffffffffffffffffffffffffffffff1681526020018281526020019250505060206040518083038186803b15801561359e57600080fd5b505af41580156135b2573d6000803e3d6000fd5b505050506040513d60208110156135c857600080fd5b810190808051906020019092919050505015156135e457600080fd5b6135ed88614d20565b91508160000151965081602001519550816040015194508160600151935081608001519250505091939590929450565b6000600160149054906101000a900460ff1615151561363b57600080fd5b8373__RegistryStorageLib____________________63cc40ddc0600260009054906101000a900473ffffffffffffffffffffffffffffffffffffffff16836040518363ffffffff167c0100000000000000000000000000000000000000000000000000000000028152600401808373ffffffffffffffffffffffffffffffffffffffff1673ffffffffffffffffffffffffffffffffffffffff1681526020018281526020019250505060206040518083038186803b1580156136fd57600080fd5b505af4158015613711573d6000803e3d6000fd5b505050506040513d602081101561372757600080fd5b8101908080519060200190929190505050151561374357600080fd5b843373ffffffffffffffffffffffffffffffffffffffff1673__RegistryStorageLib____________________63df3967f2600260009054906101000a900473ffffffffffffffffffffffffffffffffffffffff16846040518363ffffffff167c0100000000000000000000000000000000000000000000000000000000028152600401808373ffffffffffffffffffffffffffffffffffffffff1673ffffffffffffffffffffffffffffffffffffffff1681526020018281526020019250505060206040518083038186803b15801561381c57600080fd5b505af4158015613830573d6000803e3d6000fd5b505050506040513d602081101561384657600080fd5b810190808051906020019092919050505073ffffffffffffffffffffffffffffffffffffffff1614151561387957600080fd5b34600360009054906101000a900473ffffffffffffffffffffffffffffffffffffffff1673ffffffffffffffffffffffffffffffffffffffff166388a6f5726040518163ffffffff167c0100000000000000000000000000000000000000000000000000000000028152600401602060405180830381600087803b15801561390057600080fd5b505af1158015613914573d6000803e3d6000fd5b505050506040513d602081101561392a57600080fd5b81019080805190602001909291905050501115151561394857600080fd5b73__RegistryStorageLib____________________63df3967f2600260009054906101000a900473ffffffffffffffffffffffffffffffffffffffff16886040518363ffffffff167c0100000000000000000000000000000000000000000000000000000000028152600401808373ffffffffffffffffffffffffffffffffffffffff1673ffffffffffffffffffffffffffffffffffffffff1681526020018281526020019250505060206040518083038186803b158015613a0957600080fd5b505af4158015613a1d573d6000803e3d6000fd5b505050506040513d6020811015613a3357600080fd5b8101908080519060200190929190505050925073__RegistryStorageLib____________________6339e7c3d6600260009054906101000a900473ffffffffffffffffffffffffffffffffffffffff1688886040518463ffffffff167c0100000000000000000000000000000000000000000000000000000000028152600401808473ffffffffffffffffffffffffffffffffffffffff1673ffffffffffffffffffffffffffffffffffffffff1681526020018381526020018273ffffffffffffffffffffffffffffffffffffffff1673ffffffffffffffffffffffffffffffffffffffff168152602001935050505060006040518083038186803b158015613b3b57600080fd5b505af4158015613b4f573d6000803e3d6000fd5b5050505073__RegistryStorageLib____________________63e9a56575600260009054906101000a900473ffffffffffffffffffffffffffffffffffffffff1688876040518463ffffffff167c0100000000000000000000000000000000000000000000000000000000028152600401808473ffffffffffffffffffffffffffffffffffffffff1673ffffffffffffffffffffffffffffffffffffffff1681526020018381526020018260001916600019168152602001935050505060006040518083038186803b158015613c2457600080fd5b505af4158015613c38573d6000803e3d6000fd5b505050508473ffffffffffffffffffffffffffffffffffffffff168373ffffffffffffffffffffffffffffffffffffffff16877f16da62289fb03291b4545b27ad6fd3329305dfae113f331e8523fcb90148cc6560405160405180910390a4505050505050565b60008273__RegistryStorageLib____________________63cc40ddc0600260009054906101000a900473ffffffffffffffffffffffffffffffffffffffff16836040518363ffffffff167c0100000000000000000000000000000000000000000000000000000000028152600401808373ffffffffffffffffffffffffffffffffffffffff1673ffffffffffffffffffffffffffffffffffffffff1681526020018281526020019250505060206040518083038186803b158015613d6357600080fd5b505af4158015613d77573d6000803e3d6000fd5b505050506040513d6020811015613d8d57600080fd5b81019080805190602001909291905050501515613da957600080fd5b8383600073__RegistryStorageLib____________________639b15b8b2600260009054906101000a900473ffffffffffffffffffffffffffffffffffffffff1685856040518463ffffffff167c0100000000000000000000000000000000000000000000000000000000028152600401808473ffffffffffffffffffffffffffffffffffffffff1673ffffffffffffffffffffffffffffffffffffffff1681526020018381526020018260001916600019168152602001935050505060206040518083038186803b158015613e7e57600080fd5b505af4158015613e92573d6000803e3d6000fd5b505050506040513d6020811015613ea857600080fd5b8101908080519060200190929190505050111515613ec557600080fd5b73__RegistryStorageLib____________________639b15b8b2600260009054906101000a900473ffffffffffffffffffffffffffffffffffffffff1688886040518463ffffffff167c0100000000000000000000000000000000000000000000000000000000028152600401808473ffffffffffffffffffffffffffffffffffffffff1673ffffffffffffffffffffffffffffffffffffffff1681526020018381526020018260001916600019168152602001935050505060206040518083038186803b158015613f9657600080fd5b505af4158015613faa573d6000803e3d6000fd5b505050506040513d6020811015613fc057600080fd5b8101908080519060200190929190505050935050505092915050565b600160149054906101000a900460ff16151515613ff857600080fd5b6000809054906101000a900473ffffffffffffffffffffffffffffffffffffffff1673ffffffffffffffffffffffffffffffffffffffff163373ffffffffffffffffffffffffffffffffffffffff1614151561405357600080fd5b8073__RegistryStorageLib____________________63cc40ddc0600260009054906101000a900473ffffffffffffffffffffffffffffffffffffffff16836040518363ffffffff167c0100000000000000000000000000000000000000000000000000000000028152600401808373ffffffffffffffffffffffffffffffffffffffff1673ffffffffffffffffffffffffffffffffffffffff1681526020018281526020019250505060206040518083038186803b15801561411557600080fd5b505af4158015614129573d6000803e3d6000fd5b505050506040513d602081101561413f57600080fd5b8101908080519060200190929190505050151561415b57600080fd5b8173__RegistryStorageLib____________________63ac926120600260009054906101000a900473ffffffffffffffffffffffffffffffffffffffff16836040518363ffffffff167c0100000000000000000000000000000000000000000000000000000000028152600401808373ffffffffffffffffffffffffffffffffffffffff1673ffffffffffffffffffffffffffffffffffffffff1681526020018281526020019250505060206040518083038186803b15801561421d57600080fd5b505af4158015614231573d6000803e3d6000fd5b505050506040513d602081101561424757600080fd5b8101908080519060200190929190505050151561426357600080fd5b73__RegistryStorageLib____________________63d8263dac600260009054906101000a900473ffffffffffffffffffffffffffffffffffffffff168560006040518463ffffffff167c0100000000000000000000000000000000000000000000000000000000028152600401808473ffffffffffffffffffffffffffffffffffffffff1673ffffffffffffffffffffffffffffffffffffffff16815260200183815260200182151515158152602001935050505060006040518083038186803b15801561433157600080fd5b505af4158015614345573d6000803e3d6000fd5b50505050827f77a26bc01a7c1a1fc488dda7972e7db7e69f5d94fb4a553c00e2dfc462f2167860405160405180910390a2505050565b600080614386615978565b61438f84614b59565b915060008214156143a357600092506143b6565b6143ac82614d20565b9050806060015192505b5050919050565b60008060009054906101000a900473ffffffffffffffffffffffffffffffffffffffff1673ffffffffffffffffffffffffffffffffffffffff168273ffffffffffffffffffffffffffffffffffffffff16149050919050565b60008060008060009054906101000a900473ffffffffffffffffffffffffffffffffffffffff1673ffffffffffffffffffffffffffffffffffffffff163373ffffffffffffffffffffffffffffffffffffffff1614151561447657600080fd5b600092505b835183101561468357838381518110151561449257fe5b9060200190602002015191508173ffffffffffffffffffffffffffffffffffffffff166370a08231306040518263ffffffff167c0100000000000000000000000000000000000000000000000000000000028152600401808273ffffffffffffffffffffffffffffffffffffffff1673ffffffffffffffffffffffffffffffffffffffff168152602001915050602060405180830381600087803b15801561453957600080fd5b505af115801561454d573d6000803e3d6000fd5b505050506040513d602081101561456357600080fd5b810190808051906020019092919050505090508173ffffffffffffffffffffffffffffffffffffffff1663a9059cbb6000809054906101000a900473ffffffffffffffffffffffffffffffffffffffff16836040518363ffffffff167c0100000000000000000000000000000000000000000000000000000000028152600401808373ffffffffffffffffffffffffffffffffffffffff1673ffffffffffffffffffffffffffffffffffffffff16815260200182815260200192505050602060405180830381600087803b15801561463a57600080fd5b505af115801561464e573d6000803e3d6000fd5b505050506040513d602081101561466457600080fd5b810190808051906020019092919050505050828060010193505061447b565b6000809054906101000a900473ffffffffffffffffffffffffffffffffffffffff1673ffffffffffffffffffffffffffffffffffffffff16ff5b6000809054906101000a900473ffffffffffffffffffffffffffffffffffffffff1673ffffffffffffffffffffffffffffffffffffffff163373ffffffffffffffffffffffffffffffffffffffff1614151561471857600080fd5b600160149054906101000a900460ff16151561473357600080fd5b600360009054906101000a900473ffffffffffffffffffffffffffffffffffffffff1673ffffffffffffffffffffffffffffffffffffffff168173ffffffffffffffffffffffffffffffffffffffff161415151561479057600080fd5b80600360006101000a81548173ffffffffffffffffffffffffffffffffffffffff021916908373ffffffffffffffffffffffffffffffffffffffff16021790555050565b60075481565b60065481565b60008173__RegistryStorageLib____________________63cc40ddc0600260009054906101000a900473ffffffffffffffffffffffffffffffffffffffff16836040518363ffffffff167c0100000000000000000000000000000000000000000000000000000000028152600401808373ffffffffffffffffffffffffffffffffffffffff1673ffffffffffffffffffffffffffffffffffffffff1681526020018281526020019250505060206040518083038186803b1580156148a457600080fd5b505af41580156148b8573d6000803e3d6000fd5b505050506040513d60208110156148ce57600080fd5b810190808051906020019092919050505015156148ea57600080fd5b73__RegistryStorageLib____________________6315f22968600260009054906101000a900473ffffffffffffffffffffffffffffffffffffffff16856040518363ffffffff167c0100000000000000000000000000000000000000000000000000000000028152600401808373ffffffffffffffffffffffffffffffffffffffff1673ffffffffffffffffffffffffffffffffffffffff1681526020018281526020019250505060206040518083038186803b1580156149ab57600080fd5b505af41580156149bf573d6000803e3d6000fd5b505050506040513d60208110156149d557600080fd5b8101908080519060200190929190505050915050919050565b600160009054906101000a900473ffffffffffffffffffffffffffffffffffffffff1681565b6000809054906101000a900473ffffffffffffffffffffffffffffffffffffffff1673ffffffffffffffffffffffffffffffffffffffff163373ffffffffffffffffffffffffffffffffffffffff16141515614a6f57600080fd5b80600160006101000a81548173ffffffffffffffffffffffffffffffffffffffff021916908373ffffffffffffffffffffffffffffffffffffffff16021790555050565b6000801515614b50576040517f08c379a000000000000000000000000000000000000000000000000000000000815260040180806020018281038252602e8152602001807f46756e6374696f6e2064697361626c65642e207573652072656769737465725681526020017f656869636c6520696e737465616400000000000000000000000000000000000081525060400191505060405180910390fd5b60009050919050565b600073__RegistryStorageLib____________________63bd64b8a6600260009054906101000a900473ffffffffffffffffffffffffffffffffffffffff16846040518363ffffffff167c0100000000000000000000000000000000000000000000000000000000028152600401808373ffffffffffffffffffffffffffffffffffffffff1673ffffffffffffffffffffffffffffffffffffffff16815260200182600019166000191681526020019250505060206040518083038186803b158015614c2457600080fd5b505af4158015614c38573d6000803e3d6000fd5b505050506040513d6020811015614c4e57600080fd5b81019080805190602001909291905050509050919050565b600080823b905060008111915050919050565b614c8161593f565b614c8961593f565b60a060405190810160405280858152602001848152602001614cac878787614d67565b600019168152602001614cc0878787614ed5565b600019168152602001614cd4878787615043565b600019168152509050809150509392505050565b614cf061593f565b6000614cfa61593f565b614d058686866151b1565b9150614d12868684614c79565b905080925050509392505050565b614d28615978565b614d30615978565b614d5c600260009054906101000a900473ffffffffffffffffffffffffffffffffffffffff1684615327565b905080915050919050565b60008373ffffffffffffffffffffffffffffffffffffffff1663025ec81a848460405160200180838152602001828152602001807f7479706500000000000000000000000000000000000000000000000000000000815250600401925050506040516020818303038152906040526040518082805190602001908083835b602083101515614e0a5780518252602082019150602081019050602083039250614de5565b6001836020036101000a03801982511681845116808217855250505050505090500191505060405180910390206040518263ffffffff167c0100000000000000000000000000000000000000000000000000000000028152600401808260001916600019168152602001915050602060405180830381600087803b158015614e9157600080fd5b505af1158015614ea5573d6000803e3d6000fd5b505050506040513d6020811015614ebb57600080fd5b810190808051906020019092919050505090509392505050565b60008373ffffffffffffffffffffffffffffffffffffffff1663025ec81a848460405160200180838152602001828152602001807f6e616d6500000000000000000000000000000000000000000000000000000000815250600401925050506040516020818303038152906040526040518082805190602001908083835b602083101515614f785780518252602082019150602081019050602083039250614f53565b6001836020036101000a03801982511681845116808217855250505050505090500191505060405180910390206040518263ffffffff167c0100000000000000000000000000000000000000000000000000000000028152600401808260001916600019168152602001915050602060405180830381600087803b158015614fff57600080fd5b505af1158015615013573d6000803e3d6000fd5b505050506040513d602081101561502957600080fd5b810190808051906020019092919050505090509392505050565b60008373ffffffffffffffffffffffffffffffffffffffff1663025ec81a848460405160200180838152602001828152602001807f76616c7565000000000000000000000000000000000000000000000000000000815250600501925050506040516020818303038152906040526040518082805190602001908083835b6020831015156150e657805182526020820191506020810190506020830392506150c1565b6001836020036101000a03801982511681845116808217855250505050505090500191505060405180910390206040518263ffffffff167c0100000000000000000000000000000000000000000000000000000000028152600401808260001916600019168152602001915050602060405180830381600087803b15801561516d57600080fd5b505af1158015615181573d6000803e3d6000fd5b505050506040513d602081101561519757600080fd5b810190808051906020019092919050505090509392505050565b60008373ffffffffffffffffffffffffffffffffffffffff1663ac0945538484604051602001808381526020018260001916600019168152602001807f6e756d6265720000000000000000000000000000000000000000000000000000815250600601925050506040516020818303038152906040526040518082805190602001908083835b60208310151561525c5780518252602082019150602081019050602083039250615237565b6001836020036101000a03801982511681845116808217855250505050505090500191505060405180910390206040518263ffffffff167c0100000000000000000000000000000000000000000000000000000000028152600401808260001916600019168152602001915050602060405180830381600087803b1580156152e357600080fd5b505af11580156152f7573d6000803e3d6000fd5b505050506040513d602081101561530d57600080fd5b810190808051906020019092919050505090509392505050565b61532f615978565b615337615978565b60a06040519081016040528084815260200161535386866153ab565b6000191681526020016153668686615510565b73ffffffffffffffffffffffffffffffffffffffff16815260200161538b8686615675565b1515815260200161539c86866157da565b81525090508091505092915050565b60008273ffffffffffffffffffffffffffffffffffffffff1663025ec81a8360405160200180828152602001807f69640000000000000000000000000000000000000000000000000000000000008152506002019150506040516020818303038152906040526040518082805190602001908083835b6020831015156154465780518252602082019150602081019050602083039250615421565b6001836020036101000a03801982511681845116808217855250505050505090500191505060405180910390206040518263ffffffff167c0100000000000000000000000000000000000000000000000000000000028152600401808260001916600019168152602001915050602060405180830381600087803b1580156154cd57600080fd5b505af11580156154e1573d6000803e3d6000fd5b505050506040513d60208110156154f757600080fd5b8101908080519060200190929190505050905092915050565b60008273ffffffffffffffffffffffffffffffffffffffff16634c77e5ba8360405160200180828152602001807f6f776e65720000000000000000000000000000000000000000000000000000008152506005019150506040516020818303038152906040526040518082805190602001908083835b6020831015156155ab5780518252602082019150602081019050602083039250615586565b6001836020036101000a03801982511681845116808217855250505050505090500191505060405180910390206040518263ffffffff167c0100000000000000000000000000000000000000000000000000000000028152600401808260001916600019168152602001915050602060405180830381600087803b15801561563257600080fd5b505af1158015615646573d6000803e3d6000fd5b505050506040513d602081101561565c57600080fd5b8101908080519060200190929190505050905092915050565b60008273ffffffffffffffffffffffffffffffffffffffff166317e7dd228360405160200180828152602001807f656e61626c6564000000000000000000000000000000000000000000000000008152506007019150506040516020818303038152906040526040518082805190602001908083835b60208310151561571057805182526020820191506020810190506020830392506156eb565b6001836020036101000a03801982511681845116808217855250505050505090500191505060405180910390206040518263ffffffff167c0100000000000000000000000000000000000000000000000000000000028152600401808260001916600019168152602001915050602060405180830381600087803b15801561579757600080fd5b505af11580156157ab573d6000803e3d6000fd5b505050506040513d60208110156157c157600080fd5b8101908080519060200190929190505050905092915050565b60008273ffffffffffffffffffffffffffffffffffffffff1663ac0945538360405160200180828152602001807f63726561746564000000000000000000000000000000000000000000000000008152506007019150506040516020818303038152906040526040518082805190602001908083835b6020831015156158755780518252602082019150602081019050602083039250615850565b6001836020036101000a03801982511681845116808217855250505050505090500191505060405180910390206040518263ffffffff167c0100000000000000000000000000000000000000000000000000000000028152600401808260001916600019168152602001915050602060405180830381600087803b1580156158fc57600080fd5b505af1158015615910573d6000803e3d6000fd5b505050506040513d602081101561592657600080fd5b8101908080519060200190929190505050905092915050565b60a06040519081016040528060008152602001600081526020016000801916815260200160008019168152602001600080191681525090565b60a0604051908101604052806000815260200160008019168152602001600073ffffffffffffffffffffffffffffffffffffffff1681526020016000151581526020016000815250905600a165627a7a72305820bb9dd6495c40c8001a87de5b3ad6475c905461e7781af421bc073397faddaa9a0029",
  "source": "pragma solidity ^0.4.23;\r\n\r\nimport \"./ByteUtilsLib.sol\";\r\nimport \"./Registry.sol\";\r\nimport \"./IRegistryLookup.sol\";\r\nimport \"../node_modules/openzeppelin-solidity/contracts/AddressUtils.sol\";\r\nimport \"./RegistryStorageLib.sol\";\r\n\r\ncontract VehicleRegistry is Registry {\r\n\r\n    using ByteUtilsLib for bytes32;\r\n    using AddressUtils for address;\r\n\r\n\r\n    bytes32 public maintenanceLogAttributeName;\r\n    bytes32 public maintenanceLogAttributeType;\r\n    bytes32 public manufacturerAttributeName;\r\n    bytes32 public manufacturerAttributeType;\r\n    address private manufacturerRegistryStorageAddress;\r\n\r\n    constructor(address _storageAddress, address _feeLookupAddres, address _manufacturerRegistryStorageAddress) \r\n        Registry(_storageAddress, _feeLookupAddres)\r\n        public {\r\n        manufacturerRegistryStorageAddress = _manufacturerRegistryStorageAddress;\r\n        manufacturerAttributeName = \"manufacturer\";\r\n        manufacturerAttributeType = \"id\";\r\n        maintenanceLogAttributeName = \"maintenanceLog\";\r\n        maintenanceLogAttributeType = \"address\";\r\n    }\r\n\r\n//modifiers\r\n    modifier registeredAndEnabledManufacturer (bytes32 _manufacturerId) {\r\n        require(\r\n            IRegistryLookup(manufacturerRegistryStorageAddress).isMemberRegisteredAndEnabled(_manufacturerId));\r\n        _;\r\n    }\r\n\r\n    modifier senderIsManufacturerOwner (bytes32 _manufacturerId) {\r\n        require(\r\n            IRegistryLookup(manufacturerRegistryStorageAddress).getMemberOwner(_manufacturerId) == msg.sender);\r\n        _;\r\n    }\r\n\r\n    modifier isContractAddress(address _address) {\r\n        require(_address.isContract());\r\n        _;\r\n    }\r\n\r\n    modifier validVinLength(bytes32 _vin) {\r\n        require(_vin.getStringLength() == 17);\r\n        _;\r\n    }\r\n\r\n//base overrides\r\n    //override base function to disable it - must use registerVehicle\r\n    function registerMember(bytes32) \r\n        public payable\r\n        returns (uint256) {\r\n        require(false, \"Function disabled. use registerVehicle instead\");\r\n        return 0;\r\n    }    \r\n\r\n\r\n//external VehicleRegistry specific\r\n    function registerVehicle(bytes32 _vin, bytes32 _manufacturerId) \r\n        public payable\r\n        whenNotPaused()\r\n        validVinLength(_vin)\r\n        memberIdNotRegistered(_vin)\r\n        paidMemberRegistrationFee()\r\n        registeredAndEnabledManufacturer(_manufacturerId)\r\n        senderIsManufacturerOwner(_manufacturerId)        \r\n        returns (uint256) {\r\n\r\n        emit LogInfo(\"Begin registerVehicle\");\r\n        uint256 memberNumber = RegistryStorageLib.storeMember(storageAddress, _vin, msg.sender);\r\n        RegistryStorageLib.storeMemberAttribute\r\n        (storageAddress, memberNumber, manufacturerAttributeName, manufacturerAttributeType, _manufacturerId);\r\n        emit MemberRegistered(memberNumber, _vin);\r\n        emit LogInfo(\"End registerVehicle\");\r\n        return memberNumber;\r\n    }    \r\n\r\n    function setMaintenanceLogAddress(uint256 _memberNumber, address _address) \r\n        public payable \r\n        whenNotPaused()\r\n        memberNumberEnabled(_memberNumber)\r\n        memberNumberOwner(_memberNumber)\r\n        isContractAddress(_address) {\r\n\r\n        RegistryStorageLib.storeOrSetAttribute(\r\n            storageAddress, _memberNumber, maintenanceLogAttributeName, maintenanceLogAttributeType, bytes32(_address));\r\n    }\r\n\r\n    function getMaintenanceLogAddress(uint256 _memberNumber) public view returns (address) {\r\n        RegistryStorageLib.Attribute memory attribute = \r\n            RegistryStorageLib.getAttribute(storageAddress, _memberNumber, maintenanceLogAttributeName);\r\n        return address(attribute.value);\r\n    }\r\n}",
  "sourcePath": "C:\\dev\\repos\\VehicleMaintenanceRegistry\\src\\VMR\\contracts\\VehicleRegistry.sol",
  "compiler": {
    "name": "solc",
    "version": "0.4.24+commit.e67f0147.Emscripten.clang"
  },
  "schemaVersion": "2.0.1",
  "updatedAt": "2018-07-17T11:01:18.287Z"
}