{
  "contractName": "VehicleManufacturerRegistry",
  "abi": [
    {
      "constant": false,
      "inputs": [],
      "name": "unpause",
      "outputs": [],
      "payable": false,
      "stateMutability": "nonpayable",
      "type": "function"
    },
    {
      "constant": false,
      "inputs": [],
      "name": "claimOwnership",
      "outputs": [],
      "payable": false,
      "stateMutability": "nonpayable",
      "type": "function"
    },
    {
      "constant": true,
      "inputs": [],
      "name": "paused",
      "outputs": [
        {
          "name": "",
          "type": "bool"
        }
      ],
      "payable": false,
      "stateMutability": "view",
      "type": "function"
    },
    {
      "constant": false,
      "inputs": [],
      "name": "renounceOwnership",
      "outputs": [],
      "payable": false,
      "stateMutability": "nonpayable",
      "type": "function"
    },
    {
      "constant": false,
      "inputs": [],
      "name": "pause",
      "outputs": [],
      "payable": false,
      "stateMutability": "nonpayable",
      "type": "function"
    },
    {
      "constant": true,
      "inputs": [],
      "name": "owner",
      "outputs": [
        {
          "name": "",
          "type": "address"
        }
      ],
      "payable": false,
      "stateMutability": "view",
      "type": "function"
    },
    {
      "constant": false,
      "inputs": [
        {
          "name": "tokens",
          "type": "address[]"
        }
      ],
      "name": "destroy",
      "outputs": [],
      "payable": false,
      "stateMutability": "nonpayable",
      "type": "function"
    },
    {
      "constant": true,
      "inputs": [],
      "name": "pendingOwner",
      "outputs": [
        {
          "name": "",
          "type": "address"
        }
      ],
      "payable": false,
      "stateMutability": "view",
      "type": "function"
    },
    {
      "constant": false,
      "inputs": [
        {
          "name": "newOwner",
          "type": "address"
        }
      ],
      "name": "transferOwnership",
      "outputs": [],
      "payable": false,
      "stateMutability": "nonpayable",
      "type": "function"
    },
    {
      "inputs": [
        {
          "name": "_storageAddress",
          "type": "address"
        }
      ],
      "payable": false,
      "stateMutability": "nonpayable",
      "type": "constructor"
    },
    {
      "anonymous": false,
      "inputs": [
        {
          "indexed": true,
          "name": "name",
          "type": "bytes32"
        }
      ],
      "name": "ManufacturerRegistered",
      "type": "event"
    },
    {
      "anonymous": false,
      "inputs": [
        {
          "indexed": true,
          "name": "name",
          "type": "bytes32"
        }
      ],
      "name": "ManufacturerEnabled",
      "type": "event"
    },
    {
      "anonymous": false,
      "inputs": [
        {
          "indexed": true,
          "name": "name",
          "type": "bytes32"
        }
      ],
      "name": "ManufacturerDisabled",
      "type": "event"
    },
    {
      "anonymous": false,
      "inputs": [
        {
          "indexed": true,
          "name": "name",
          "type": "bytes32"
        },
        {
          "indexed": true,
          "name": "attributeName",
          "type": "bytes32"
        },
        {
          "indexed": false,
          "name": "value",
          "type": "string"
        }
      ],
      "name": "ManufacturerAttributeSet",
      "type": "event"
    },
    {
      "anonymous": false,
      "inputs": [
        {
          "indexed": true,
          "name": "name",
          "type": "bytes32"
        },
        {
          "indexed": true,
          "name": "from",
          "type": "address"
        },
        {
          "indexed": true,
          "name": "to",
          "type": "address"
        }
      ],
      "name": "ManufacturerOwnershipTransferRequest",
      "type": "event"
    },
    {
      "anonymous": false,
      "inputs": [
        {
          "indexed": true,
          "name": "name",
          "type": "bytes32"
        },
        {
          "indexed": true,
          "name": "newOwner",
          "type": "address"
        }
      ],
      "name": "ManufacturerOwnershipTransferAccepted",
      "type": "event"
    },
    {
      "anonymous": false,
      "inputs": [],
      "name": "Pause",
      "type": "event"
    },
    {
      "anonymous": false,
      "inputs": [],
      "name": "Unpause",
      "type": "event"
    },
    {
      "anonymous": false,
      "inputs": [
        {
          "indexed": true,
          "name": "previousOwner",
          "type": "address"
        }
      ],
      "name": "OwnershipRenounced",
      "type": "event"
    },
    {
      "anonymous": false,
      "inputs": [
        {
          "indexed": true,
          "name": "previousOwner",
          "type": "address"
        },
        {
          "indexed": true,
          "name": "newOwner",
          "type": "address"
        }
      ],
      "name": "OwnershipTransferred",
      "type": "event"
    },
    {
      "constant": true,
      "inputs": [],
      "name": "getStorageAddress",
      "outputs": [
        {
          "name": "",
          "type": "address"
        }
      ],
      "payable": false,
      "stateMutability": "view",
      "type": "function"
    },
    {
      "constant": true,
      "inputs": [
        {
          "name": "_name",
          "type": "bytes32"
        }
      ],
      "name": "isRegistered",
      "outputs": [
        {
          "name": "",
          "type": "bool"
        }
      ],
      "payable": false,
      "stateMutability": "view",
      "type": "function"
    },
    {
      "constant": true,
      "inputs": [
        {
          "name": "_name",
          "type": "bytes32"
        }
      ],
      "name": "isEnabled",
      "outputs": [
        {
          "name": "",
          "type": "bool"
        }
      ],
      "payable": false,
      "stateMutability": "view",
      "type": "function"
    },
    {
      "constant": true,
      "inputs": [],
      "name": "getCount",
      "outputs": [
        {
          "name": "",
          "type": "uint256"
        }
      ],
      "payable": false,
      "stateMutability": "view",
      "type": "function"
    },
    {
      "constant": true,
      "inputs": [
        {
          "name": "_name",
          "type": "bytes32"
        }
      ],
      "name": "getNumber",
      "outputs": [
        {
          "name": "",
          "type": "uint256"
        }
      ],
      "payable": false,
      "stateMutability": "view",
      "type": "function"
    },
    {
      "constant": true,
      "inputs": [
        {
          "name": "_number",
          "type": "uint256"
        }
      ],
      "name": "getName",
      "outputs": [
        {
          "name": "",
          "type": "bytes32"
        }
      ],
      "payable": false,
      "stateMutability": "view",
      "type": "function"
    },
    {
      "constant": true,
      "inputs": [
        {
          "name": "_name",
          "type": "bytes32"
        }
      ],
      "name": "getAttributeCount",
      "outputs": [
        {
          "name": "",
          "type": "uint256"
        }
      ],
      "payable": false,
      "stateMutability": "view",
      "type": "function"
    },
    {
      "constant": true,
      "inputs": [
        {
          "name": "_name",
          "type": "bytes32"
        },
        {
          "name": "_attributeNumber",
          "type": "uint256"
        }
      ],
      "name": "getAttributeValue",
      "outputs": [
        {
          "name": "",
          "type": "string"
        }
      ],
      "payable": false,
      "stateMutability": "view",
      "type": "function"
    },
    {
      "constant": true,
      "inputs": [
        {
          "name": "_name",
          "type": "bytes32"
        },
        {
          "name": "_attributeNumber",
          "type": "uint256"
        }
      ],
      "name": "getAttributeName",
      "outputs": [
        {
          "name": "",
          "type": "bytes32"
        }
      ],
      "payable": false,
      "stateMutability": "view",
      "type": "function"
    },
    {
      "constant": false,
      "inputs": [
        {
          "name": "_name",
          "type": "bytes32"
        }
      ],
      "name": "registerManufacturer",
      "outputs": [
        {
          "name": "",
          "type": "uint256"
        }
      ],
      "payable": true,
      "stateMutability": "payable",
      "type": "function"
    },
    {
      "constant": false,
      "inputs": [
        {
          "name": "_name",
          "type": "bytes32"
        },
        {
          "name": "_attributeName",
          "type": "bytes32"
        },
        {
          "name": "_val",
          "type": "string"
        }
      ],
      "name": "addAttribute",
      "outputs": [
        {
          "name": "",
          "type": "uint256"
        }
      ],
      "payable": true,
      "stateMutability": "payable",
      "type": "function"
    },
    {
      "constant": false,
      "inputs": [
        {
          "name": "_name",
          "type": "bytes32"
        },
        {
          "name": "_attributeName",
          "type": "bytes32"
        },
        {
          "name": "_val",
          "type": "string"
        }
      ],
      "name": "setAttributeValue",
      "outputs": [],
      "payable": true,
      "stateMutability": "payable",
      "type": "function"
    },
    {
      "constant": true,
      "inputs": [
        {
          "name": "_name",
          "type": "bytes32"
        }
      ],
      "name": "getManufacturerOwner",
      "outputs": [
        {
          "name": "",
          "type": "address"
        }
      ],
      "payable": false,
      "stateMutability": "view",
      "type": "function"
    },
    {
      "constant": false,
      "inputs": [
        {
          "name": "_name",
          "type": "bytes32"
        }
      ],
      "name": "disableManufacturer",
      "outputs": [],
      "payable": true,
      "stateMutability": "payable",
      "type": "function"
    },
    {
      "constant": false,
      "inputs": [
        {
          "name": "_name",
          "type": "bytes32"
        }
      ],
      "name": "enableManufacturer",
      "outputs": [],
      "payable": true,
      "stateMutability": "payable",
      "type": "function"
    },
    {
      "constant": false,
      "inputs": [
        {
          "name": "_name",
          "type": "bytes32"
        },
        {
          "name": "_newOwner",
          "type": "address"
        },
        {
          "name": "_keyHash",
          "type": "bytes32"
        }
      ],
      "name": "transferManufacturerOwnership",
      "outputs": [],
      "payable": true,
      "stateMutability": "payable",
      "type": "function"
    },
    {
      "constant": false,
      "inputs": [
        {
          "name": "_name",
          "type": "bytes32"
        },
        {
          "name": "_keyHash",
          "type": "bytes32"
        }
      ],
      "name": "acceptManufacturerOwnership",
      "outputs": [],
      "payable": true,
      "stateMutability": "payable",
      "type": "function"
    }
  ],
  "bytecode": "0x60806040526000600160146101000a81548160ff02191690831515021790555034801561002b57600080fd5b5060405160208061495383398101806040528101908080519060200190929190505050336000806101000a81548173ffffffffffffffffffffffffffffffffffffffff021916908373ffffffffffffffffffffffffffffffffffffffff16021790555080600260006101000a81548173ffffffffffffffffffffffffffffffffffffffff021916908373ffffffffffffffffffffffffffffffffffffffff16021790555050614874806100df6000396000f300608060405260043610610154576000357c0100000000000000000000000000000000000000000000000000000000900463ffffffff16806301068173146101595780630610e037146101b7578063068f631914610200578063085ee4eb1461024557806327258b221461029c5780632ecb0d64146102e5578063393a4d341461032a5780633f4ba83a146103815780634e71e0c8146103985780635c975abb146103af5780636b8ff574146103de5780636e76d88c14610427578063715018a61461047157806373fd7bcb1461048857806379f3f7a1146104c05780638456cb59146104e45780638da5cb5b146104fb57806394d85e0b14610552578063a87d942c14610606578063acc0189014610631578063bfba7b3314610683578063c6786e5a146106a7578063c97878051461070d578063cd9bed951461077e578063e30c3978146107b0578063f2fde38b14610807575b600080fd5b6101a16004803603810190808035600019169060200190929190803560001916906020019092919080359060200190820180359060200191909192939192939050505061084a565b6040518082815260200191505060405180910390f35b3480156101c357600080fd5b506101e66004803603810190808035600019169060200190929190505050610d92565b604051808215151515815260200191505060405180910390f35b34801561020c57600080fd5b5061022f6004803603810190808035600019169060200190929190505050610e9f565b6040518082815260200191505060405180910390f35b34801561025157600080fd5b5061027e600480360381019080803560001916906020019092919080359060200190929190505050611126565b60405180826000191660001916815260200191505060405180910390f35b3480156102a857600080fd5b506102cb60048036038101908080356000191690602001909291905050506113b6565b604051808215151515815260200191505060405180910390f35b3480156102f157600080fd5b5061031460048036038101908080356000191690602001909291905050506114c3565b6040518082815260200191505060405180910390f35b34801561033657600080fd5b5061033f61164f565b604051808273ffffffffffffffffffffffffffffffffffffffff1673ffffffffffffffffffffffffffffffffffffffff16815260200191505060405180910390f35b34801561038d57600080fd5b50610396611679565b005b3480156103a457600080fd5b506103ad611738565b005b3480156103bb57600080fd5b506103c46118d7565b604051808215151515815260200191505060405180910390f35b3480156103ea57600080fd5b50610409600480360381019080803590602001909291905050506118ea565b60405180826000191660001916815260200191505060405180910390f35b61046f60048036038101908080356000191690602001909291908035600019169060200190929190803590602001908201803590602001919091929391929390505050611b61565b005b34801561047d57600080fd5b50610486612166565b005b6104aa6004803603810190808035600019169060200190929190505050612268565b6040518082815260200191505060405180910390f35b6104e26004803603810190808035600019169060200190929190505050612625565b005b3480156104f057600080fd5b506104f9612ab3565b005b34801561050757600080fd5b50610510612b72565b604051808273ffffffffffffffffffffffffffffffffffffffff1673ffffffffffffffffffffffffffffffffffffffff16815260200191505060405180910390f35b34801561055e57600080fd5b5061058b600480360381019080803560001916906020019092919080359060200190929190505050612b97565b6040518080602001828103825283818151815260200191508051906020019080838360005b838110156105cb5780820151818401526020810190506105b0565b50505050905090810190601f1680156105f85780820380516001836020036101000a031916815260200191505b509250505060405180910390f35b34801561061257600080fd5b5061061b612e7d565b6040518082815260200191505060405180910390f35b6106816004803603810190808035600019169060200190929190803573ffffffffffffffffffffffffffffffffffffffff1690602001909291908035600019169060200190929190505050612f78565b005b6106a56004803603810190808035600019169060200190929190505050613644565b005b3480156106b357600080fd5b5061070b60048036038101908080359060200190820180359060200190808060200260200160405190810160405280939291908181526020018383602002808284378201915050505050509192919290505050613ad1565b005b34801561071957600080fd5b5061073c6004803603810190808035600019169060200190929190505050613d78565b604051808273ffffffffffffffffffffffffffffffffffffffff1673ffffffffffffffffffffffffffffffffffffffff16815260200191505060405180910390f35b6107ae60048036038101908080356000191690602001909291908035600019169060200190929190505050613fff565b005b3480156107bc57600080fd5b506107c5614676565b604051808273ffffffffffffffffffffffffffffffffffffffff1673ffffffffffffffffffffffffffffffffffffffff16815260200191505060405180910390f35b34801561081357600080fd5b50610848600480360381019080803573ffffffffffffffffffffffffffffffffffffffff16906020019092919050505061469c565b005b600080600160149054906101000a900460ff1615151561086957600080fd5b6000809054906101000a900473ffffffffffffffffffffffffffffffffffffffff1673ffffffffffffffffffffffffffffffffffffffff163373ffffffffffffffffffffffffffffffffffffffff161415156108c457600080fd5b8573__VehicleManufacturerStorage____________63ed2933ed600260009054906101000a900473ffffffffffffffffffffffffffffffffffffffff1661090b8461473b565b6040518363ffffffff167c0100000000000000000000000000000000000000000000000000000000028152600401808373ffffffffffffffffffffffffffffffffffffffff1673ffffffffffffffffffffffffffffffffffffffff1681526020018281526020019250505060206040518083038186803b15801561098e57600080fd5b505af41580156109a2573d6000803e3d6000fd5b505050506040513d60208110156109b857600080fd5b81019080805190602001909291905050501515610a3d576040517f08c379a000000000000000000000000000000000000000000000000000000000815260040180806020018281038252601f8152602001807f4d616e756661637475726572206d75737420626520726567697374657265640081525060200191505060405180910390fd5b8686600073__VehicleManufacturerStorage____________639b15b8b2600260009054906101000a900473ffffffffffffffffffffffffffffffffffffffff16610a878661473b565b856040518463ffffffff167c0100000000000000000000000000000000000000000000000000000000028152600401808473ffffffffffffffffffffffffffffffffffffffff1673ffffffffffffffffffffffffffffffffffffffff1681526020018381526020018260001916600019168152602001935050505060206040518083038186803b158015610b1a57600080fd5b505af4158015610b2e573d6000803e3d6000fd5b505050506040513d6020811015610b4457600080fd5b8101908080519060200190929190505050141515610bf0576040517f08c379a00000000000000000000000000000000000000000000000000000000081526004018080602001828103825260258152602001807f417474726962757465206e616d65206d757374206e6f7420616c72656164792081526020017f657869737400000000000000000000000000000000000000000000000000000081525060400191505060405180910390fd5b73__VehicleManufacturerStorage____________63e5864281600260009054906101000a900473ffffffffffffffffffffffffffffffffffffffff16610c368c61473b565b8b8b8b6040518663ffffffff167c0100000000000000000000000000000000000000000000000000000000028152600401808673ffffffffffffffffffffffffffffffffffffffff1673ffffffffffffffffffffffffffffffffffffffff16815260200185815260200184600019166000191681526020018060200182810382528484828181526020019250808284378201915050965050505050505060206040518083038186803b158015610ceb57600080fd5b505af4158015610cff573d6000803e3d6000fd5b505050506040513d6020811015610d1557600080fd5b81019080805190602001909291905050509350876000191689600019167f3307c839f8f13fc5b29dffff0cf3cf25af3514613f535072f3a5805a1bf572cb8989604051808060200182810382528484828181526020019250808284378201915050935050505060405180910390a383945050505050949350505050565b600073__VehicleManufacturerStorage____________6302a992b0600260009054906101000a900473ffffffffffffffffffffffffffffffffffffffff16610dda8561473b565b6040518363ffffffff167c0100000000000000000000000000000000000000000000000000000000028152600401808373ffffffffffffffffffffffffffffffffffffffff1673ffffffffffffffffffffffffffffffffffffffff1681526020018281526020019250505060206040518083038186803b158015610e5d57600080fd5b505af4158015610e71573d6000803e3d6000fd5b505050506040513d6020811015610e8757600080fd5b81019080805190602001909291905050509050919050565b60008173__VehicleManufacturerStorage____________63ed2933ed600260009054906101000a900473ffffffffffffffffffffffffffffffffffffffff16610ee88461473b565b6040518363ffffffff167c0100000000000000000000000000000000000000000000000000000000028152600401808373ffffffffffffffffffffffffffffffffffffffff1673ffffffffffffffffffffffffffffffffffffffff1681526020018281526020019250505060206040518083038186803b158015610f6b57600080fd5b505af4158015610f7f573d6000803e3d6000fd5b505050506040513d6020811015610f9557600080fd5b8101908080519060200190929190505050151561101a576040517f08c379a000000000000000000000000000000000000000000000000000000000815260040180806020018281038252601f8152602001807f4d616e756661637475726572206d75737420626520726567697374657265640081525060200191505060405180910390fd5b73__VehicleManufacturerStorage____________631cb1bb44600260009054906101000a900473ffffffffffffffffffffffffffffffffffffffff166110608661473b565b6040518363ffffffff167c0100000000000000000000000000000000000000000000000000000000028152600401808373ffffffffffffffffffffffffffffffffffffffff1673ffffffffffffffffffffffffffffffffffffffff1681526020018281526020019250505060206040518083038186803b1580156110e357600080fd5b505af41580156110f7573d6000803e3d6000fd5b505050506040513d602081101561110d57600080fd5b8101908080519060200190929190505050915050919050565b60008273__VehicleManufacturerStorage____________63ed2933ed600260009054906101000a900473ffffffffffffffffffffffffffffffffffffffff1661116f8461473b565b6040518363ffffffff167c0100000000000000000000000000000000000000000000000000000000028152600401808373ffffffffffffffffffffffffffffffffffffffff1673ffffffffffffffffffffffffffffffffffffffff1681526020018281526020019250505060206040518083038186803b1580156111f257600080fd5b505af4158015611206573d6000803e3d6000fd5b505050506040513d602081101561121c57600080fd5b810190808051906020019092919050505015156112a1576040517f08c379a000000000000000000000000000000000000000000000000000000000815260040180806020018281038252601f8152602001807f4d616e756661637475726572206d75737420626520726567697374657265640081525060200191505060405180910390fd5b73__VehicleManufacturerStorage____________63afeef9b8600260009054906101000a900473ffffffffffffffffffffffffffffffffffffffff166112e78761473b565b866040518463ffffffff167c0100000000000000000000000000000000000000000000000000000000028152600401808473ffffffffffffffffffffffffffffffffffffffff1673ffffffffffffffffffffffffffffffffffffffff168152602001838152602001828152602001935050505060206040518083038186803b15801561137257600080fd5b505af4158015611386573d6000803e3d6000fd5b505050506040513d602081101561139c57600080fd5b810190808051906020019092919050505091505092915050565b600073__VehicleManufacturerStorage____________63ed2933ed600260009054906101000a900473ffffffffffffffffffffffffffffffffffffffff166113fe8561473b565b6040518363ffffffff167c0100000000000000000000000000000000000000000000000000000000028152600401808373ffffffffffffffffffffffffffffffffffffffff1673ffffffffffffffffffffffffffffffffffffffff1681526020018281526020019250505060206040518083038186803b15801561148157600080fd5b505af4158015611495573d6000803e3d6000fd5b505050506040513d60208110156114ab57600080fd5b81019080805190602001909291905050509050919050565b60008173__VehicleManufacturerStorage____________63ed2933ed600260009054906101000a900473ffffffffffffffffffffffffffffffffffffffff1661150c8461473b565b6040518363ffffffff167c0100000000000000000000000000000000000000000000000000000000028152600401808373ffffffffffffffffffffffffffffffffffffffff1673ffffffffffffffffffffffffffffffffffffffff1681526020018281526020019250505060206040518083038186803b15801561158f57600080fd5b505af41580156115a3573d6000803e3d6000fd5b505050506040513d60208110156115b957600080fd5b8101908080519060200190929190505050151561163e576040517f08c379a000000000000000000000000000000000000000000000000000000000815260040180806020018281038252601f8152602001807f4d616e756661637475726572206d75737420626520726567697374657265640081525060200191505060405180910390fd5b6116478361473b565b915050919050565b6000600260009054906101000a900473ffffffffffffffffffffffffffffffffffffffff16905090565b6000809054906101000a900473ffffffffffffffffffffffffffffffffffffffff1673ffffffffffffffffffffffffffffffffffffffff163373ffffffffffffffffffffffffffffffffffffffff161415156116d457600080fd5b600160149054906101000a900460ff1615156116ef57600080fd5b6000600160146101000a81548160ff0219169083151502179055507f7805862f689e2f13df9f062ff482ad3ad112aca9e0847911ed832e158c525b3360405160405180910390a1565b600160009054906101000a900473ffffffffffffffffffffffffffffffffffffffff1673ffffffffffffffffffffffffffffffffffffffff163373ffffffffffffffffffffffffffffffffffffffff1614151561179457600080fd5b600160009054906101000a900473ffffffffffffffffffffffffffffffffffffffff1673ffffffffffffffffffffffffffffffffffffffff166000809054906101000a900473ffffffffffffffffffffffffffffffffffffffff1673ffffffffffffffffffffffffffffffffffffffff167f8be0079c531659141344cd1fd0a4f28419497f9722a3daafe3b4186f6b6457e060405160405180910390a3600160009054906101000a900473ffffffffffffffffffffffffffffffffffffffff166000806101000a81548173ffffffffffffffffffffffffffffffffffffffff021916908373ffffffffffffffffffffffffffffffffffffffff1602179055506000600160006101000a81548173ffffffffffffffffffffffffffffffffffffffff021916908373ffffffffffffffffffffffffffffffffffffffff160217905550565b600160149054906101000a900460ff1681565b60008173__VehicleManufacturerStorage____________63ed2933ed600260009054906101000a900473ffffffffffffffffffffffffffffffffffffffff16836040518363ffffffff167c0100000000000000000000000000000000000000000000000000000000028152600401808373ffffffffffffffffffffffffffffffffffffffff1673ffffffffffffffffffffffffffffffffffffffff1681526020018281526020019250505060206040518083038186803b1580156119ae57600080fd5b505af41580156119c2573d6000803e3d6000fd5b505050506040513d60208110156119d857600080fd5b81019080805190602001909291905050501515611a5d576040517f08c379a000000000000000000000000000000000000000000000000000000000815260040180806020018281038252601f8152602001807f4d616e756661637475726572206d75737420626520726567697374657265640081525060200191505060405180910390fd5b73__VehicleManufacturerStorage____________63e1090cff600260009054906101000a900473ffffffffffffffffffffffffffffffffffffffff16856040518363ffffffff167c0100000000000000000000000000000000000000000000000000000000028152600401808373ffffffffffffffffffffffffffffffffffffffff1673ffffffffffffffffffffffffffffffffffffffff1681526020018281526020019250505060206040518083038186803b158015611b1e57600080fd5b505af4158015611b32573d6000803e3d6000fd5b505050506040513d6020811015611b4857600080fd5b8101908080519060200190929190505050915050919050565b6000600160149054906101000a900460ff16151515611b7f57600080fd5b6000809054906101000a900473ffffffffffffffffffffffffffffffffffffffff1673ffffffffffffffffffffffffffffffffffffffff163373ffffffffffffffffffffffffffffffffffffffff16141515611bda57600080fd5b8473__VehicleManufacturerStorage____________63ed2933ed600260009054906101000a900473ffffffffffffffffffffffffffffffffffffffff16611c218461473b565b6040518363ffffffff167c0100000000000000000000000000000000000000000000000000000000028152600401808373ffffffffffffffffffffffffffffffffffffffff1673ffffffffffffffffffffffffffffffffffffffff1681526020018281526020019250505060206040518083038186803b158015611ca457600080fd5b505af4158015611cb8573d6000803e3d6000fd5b505050506040513d6020811015611cce57600080fd5b81019080805190602001909291905050501515611d53576040517f08c379a000000000000000000000000000000000000000000000000000000000815260040180806020018281038252601f8152602001807f4d616e756661637475726572206d75737420626520726567697374657265640081525060200191505060405180910390fd5b8585600073__VehicleManufacturerStorage____________639b15b8b2600260009054906101000a900473ffffffffffffffffffffffffffffffffffffffff16611d9d8661473b565b856040518463ffffffff167c0100000000000000000000000000000000000000000000000000000000028152600401808473ffffffffffffffffffffffffffffffffffffffff1673ffffffffffffffffffffffffffffffffffffffff1681526020018381526020018260001916600019168152602001935050505060206040518083038186803b158015611e3057600080fd5b505af4158015611e44573d6000803e3d6000fd5b505050506040513d6020811015611e5a57600080fd5b8101908080519060200190929190505050111515611ee0576040517f08c379a00000000000000000000000000000000000000000000000000000000081526004018080602001828103825260198152602001807f417474726962757465206e616d65206d7573742065786973740000000000000081525060200191505060405180910390fd5b73__VehicleManufacturerStorage____________639b15b8b2600260009054906101000a900473ffffffffffffffffffffffffffffffffffffffff16611f268b61473b565b8a6040518463ffffffff167c0100000000000000000000000000000000000000000000000000000000028152600401808473ffffffffffffffffffffffffffffffffffffffff1673ffffffffffffffffffffffffffffffffffffffff1681526020018381526020018260001916600019168152602001935050505060206040518083038186803b158015611fb957600080fd5b505af4158015611fcd573d6000803e3d6000fd5b505050506040513d6020811015611fe357600080fd5b8101908080519060200190929190505050935073__VehicleManufacturerStorage____________635e8adda7600260009054906101000a900473ffffffffffffffffffffffffffffffffffffffff1661203c8b61473b565b878a8a6040518663ffffffff167c0100000000000000000000000000000000000000000000000000000000028152600401808673ffffffffffffffffffffffffffffffffffffffff1673ffffffffffffffffffffffffffffffffffffffff1681526020018581526020018481526020018060200182810382528484828181526020019250808284378201915050965050505050505060006040518083038186803b1580156120e957600080fd5b505af41580156120fd573d6000803e3d6000fd5b50505050866000191688600019167f3307c839f8f13fc5b29dffff0cf3cf25af3514613f535072f3a5805a1bf572cb8888604051808060200182810382528484828181526020019250808284378201915050935050505060405180910390a35050505050505050565b6000809054906101000a900473ffffffffffffffffffffffffffffffffffffffff1673ffffffffffffffffffffffffffffffffffffffff163373ffffffffffffffffffffffffffffffffffffffff161415156121c157600080fd5b6000809054906101000a900473ffffffffffffffffffffffffffffffffffffffff1673ffffffffffffffffffffffffffffffffffffffff167ff8df31144d9c2f0f6b59d69b8b98abd5459d07f2742c4df920b25aae33c6482060405160405180910390a260008060006101000a81548173ffffffffffffffffffffffffffffffffffffffff021916908373ffffffffffffffffffffffffffffffffffffffff160217905550565b600080600160149054906101000a900460ff1615151561228757600080fd5b6000809054906101000a900473ffffffffffffffffffffffffffffffffffffffff1673ffffffffffffffffffffffffffffffffffffffff163373ffffffffffffffffffffffffffffffffffffffff161415156122e257600080fd5b8273__VehicleManufacturerStorage____________63ed2933ed600260009054906101000a900473ffffffffffffffffffffffffffffffffffffffff166123298461473b565b6040518363ffffffff167c0100000000000000000000000000000000000000000000000000000000028152600401808373ffffffffffffffffffffffffffffffffffffffff1673ffffffffffffffffffffffffffffffffffffffff1681526020018281526020019250505060206040518083038186803b1580156123ac57600080fd5b505af41580156123c0573d6000803e3d6000fd5b505050506040513d60208110156123d657600080fd5b8101908080519060200190929190505050151515612482576040517f08c379a000000000000000000000000000000000000000000000000000000000815260040180806020018281038252602b8152602001807f4d616e756661637475726572206d757374206e6f7420616c726561647920626581526020017f207265676973746572656400000000000000000000000000000000000000000081525060400191505060405180910390fd5b73__VehicleManufacturerStorage____________632a985727600260009054906101000a900473ffffffffffffffffffffffffffffffffffffffff16866000809054906101000a900473ffffffffffffffffffffffffffffffffffffffff1660016040518563ffffffff167c0100000000000000000000000000000000000000000000000000000000028152600401808573ffffffffffffffffffffffffffffffffffffffff1673ffffffffffffffffffffffffffffffffffffffff16815260200184600019166000191681526020018373ffffffffffffffffffffffffffffffffffffffff1673ffffffffffffffffffffffffffffffffffffffff1681526020018215151515815260200194505050505060206040518083038186803b1580156125ad57600080fd5b505af41580156125c1573d6000803e3d6000fd5b505050506040513d60208110156125d757600080fd5b8101908080519060200190929190505050915083600019167f609592dd74d4a989c42f9f7e517a8498a6fe30a610e5fbf7f8df3344b1c5a66460405160405180910390a28192505050919050565b600160149054906101000a900460ff1615151561264157600080fd5b6000809054906101000a900473ffffffffffffffffffffffffffffffffffffffff1673ffffffffffffffffffffffffffffffffffffffff163373ffffffffffffffffffffffffffffffffffffffff1614151561269c57600080fd5b8073__VehicleManufacturerStorage____________63ed2933ed600260009054906101000a900473ffffffffffffffffffffffffffffffffffffffff166126e38461473b565b6040518363ffffffff167c0100000000000000000000000000000000000000000000000000000000028152600401808373ffffffffffffffffffffffffffffffffffffffff1673ffffffffffffffffffffffffffffffffffffffff1681526020018281526020019250505060206040518083038186803b15801561276657600080fd5b505af415801561277a573d6000803e3d6000fd5b505050506040513d602081101561279057600080fd5b81019080805190602001909291905050501515612815576040517f08c379a000000000000000000000000000000000000000000000000000000000815260040180806020018281038252601f8152602001807f4d616e756661637475726572206d75737420626520726567697374657265640081525060200191505060405180910390fd5b8173__VehicleManufacturerStorage____________6302a992b0600260009054906101000a900473ffffffffffffffffffffffffffffffffffffffff1661285c8461473b565b6040518363ffffffff167c0100000000000000000000000000000000000000000000000000000000028152600401808373ffffffffffffffffffffffffffffffffffffffff1673ffffffffffffffffffffffffffffffffffffffff1681526020018281526020019250505060206040518083038186803b1580156128df57600080fd5b505af41580156128f3573d6000803e3d6000fd5b505050506040513d602081101561290957600080fd5b810190808051906020019092919050505015151561298f576040517f08c379a000000000000000000000000000000000000000000000000000000000815260040180806020018281038252601d8152602001807f4d616e756661637475726572206d7573742062652064697361626c656400000081525060200191505060405180910390fd5b73__VehicleManufacturerStorage____________63fe415110600260009054906101000a900473ffffffffffffffffffffffffffffffffffffffff166129d58661473b565b60016040518463ffffffff167c0100000000000000000000000000000000000000000000000000000000028152600401808473ffffffffffffffffffffffffffffffffffffffff1673ffffffffffffffffffffffffffffffffffffffff16815260200183815260200182151515158152602001935050505060006040518083038186803b158015612a6557600080fd5b505af4158015612a79573d6000803e3d6000fd5b5050505082600019167f228ea707ffe35bf7295db73bc8c9e56eba2bbc705a6c9f9b0ac645f7b758697060405160405180910390a2505050565b6000809054906101000a900473ffffffffffffffffffffffffffffffffffffffff1673ffffffffffffffffffffffffffffffffffffffff163373ffffffffffffffffffffffffffffffffffffffff16141515612b0e57600080fd5b600160149054906101000a900460ff16151515612b2a57600080fd5b60018060146101000a81548160ff0219169083151502179055507f6985a02210a168e66602d3235cb6db0e70f92b3ba4d376a33c0f3d9434bff62560405160405180910390a1565b6000809054906101000a900473ffffffffffffffffffffffffffffffffffffffff1681565b60608273__VehicleManufacturerStorage____________63ed2933ed600260009054906101000a900473ffffffffffffffffffffffffffffffffffffffff16612be08461473b565b6040518363ffffffff167c0100000000000000000000000000000000000000000000000000000000028152600401808373ffffffffffffffffffffffffffffffffffffffff1673ffffffffffffffffffffffffffffffffffffffff1681526020018281526020019250505060206040518083038186803b158015612c6357600080fd5b505af4158015612c77573d6000803e3d6000fd5b505050506040513d6020811015612c8d57600080fd5b81019080805190602001909291905050501515612d12576040517f08c379a000000000000000000000000000000000000000000000000000000000815260040180806020018281038252601f8152602001807f4d616e756661637475726572206d75737420626520726567697374657265640081525060200191505060405180910390fd5b73__VehicleManufacturerStorage____________639f66058e600260009054906101000a900473ffffffffffffffffffffffffffffffffffffffff16612d588761473b565b866040518463ffffffff167c0100000000000000000000000000000000000000000000000000000000028152600401808473ffffffffffffffffffffffffffffffffffffffff1673ffffffffffffffffffffffffffffffffffffffff168152602001838152602001828152602001935050505060006040518083038186803b158015612de357600080fd5b505af4158015612df7573d6000803e3d6000fd5b505050506040513d6000823e3d601f19601f820116820180604052506020811015612e2157600080fd5b810190808051640100000000811115612e3957600080fd5b82810190506020810184811115612e4f57600080fd5b8151856001820283011164010000000082111715612e6c57600080fd5b505092919050505091505092915050565b600073__VehicleManufacturerStorage____________63bdea633a600260009054906101000a900473ffffffffffffffffffffffffffffffffffffffff166040518263ffffffff167c0100000000000000000000000000000000000000000000000000000000028152600401808273ffffffffffffffffffffffffffffffffffffffff1673ffffffffffffffffffffffffffffffffffffffff16815260200191505060206040518083038186803b158015612f3857600080fd5b505af4158015612f4c573d6000803e3d6000fd5b505050506040513d6020811015612f6257600080fd5b8101908080519060200190929190505050905090565b600080600160149054906101000a900460ff16151515612f9757600080fd5b8473__VehicleManufacturerStorage____________63ed2933ed600260009054906101000a900473ffffffffffffffffffffffffffffffffffffffff16612fde8461473b565b6040518363ffffffff167c0100000000000000000000000000000000000000000000000000000000028152600401808373ffffffffffffffffffffffffffffffffffffffff1673ffffffffffffffffffffffffffffffffffffffff1681526020018281526020019250505060206040518083038186803b15801561306157600080fd5b505af4158015613075573d6000803e3d6000fd5b505050506040513d602081101561308b57600080fd5b81019080805190602001909291905050501515613110576040517f08c379a000000000000000000000000000000000000000000000000000000000815260040180806020018281038252601f8152602001807f4d616e756661637475726572206d75737420626520726567697374657265640081525060200191505060405180910390fd5b853373ffffffffffffffffffffffffffffffffffffffff1673__VehicleManufacturerStorage____________632f634a90600260009054906101000a900473ffffffffffffffffffffffffffffffffffffffff1661316e8561473b565b6040518363ffffffff167c0100000000000000000000000000000000000000000000000000000000028152600401808373ffffffffffffffffffffffffffffffffffffffff1673ffffffffffffffffffffffffffffffffffffffff1681526020018281526020019250505060206040518083038186803b1580156131f157600080fd5b505af4158015613205573d6000803e3d6000fd5b505050506040513d602081101561321b57600080fd5b810190808051906020019092919050505073ffffffffffffffffffffffffffffffffffffffff161415156132dd576040517f08c379a00000000000000000000000000000000000000000000000000000000081526004018080602001828103825260388152602001807f4f6e6c7920746865206f776e6572206f6620746865206d616e7566616374757281526020017f65722063616e20706572666f726d2074686973207461736b000000000000000081525060400191505060405180910390fd5b6132e68761473b565b935073__VehicleManufacturerStorage____________632f634a90600260009054906101000a900473ffffffffffffffffffffffffffffffffffffffff16866040518363ffffffff167c0100000000000000000000000000000000000000000000000000000000028152600401808373ffffffffffffffffffffffffffffffffffffffff1673ffffffffffffffffffffffffffffffffffffffff1681526020018281526020019250505060206040518083038186803b1580156133a957600080fd5b505af41580156133bd573d6000803e3d6000fd5b505050506040513d60208110156133d357600080fd5b8101908080519060200190929190505050925073__VehicleManufacturerStorage____________63e24bb305600260009054906101000a900473ffffffffffffffffffffffffffffffffffffffff1686896040518463ffffffff167c0100000000000000000000000000000000000000000000000000000000028152600401808473ffffffffffffffffffffffffffffffffffffffff1673ffffffffffffffffffffffffffffffffffffffff1681526020018381526020018273ffffffffffffffffffffffffffffffffffffffff1673ffffffffffffffffffffffffffffffffffffffff168152602001935050505060006040518083038186803b1580156134db57600080fd5b505af41580156134ef573d6000803e3d6000fd5b5050505073__VehicleManufacturerStorage____________6359774ca1600260009054906101000a900473ffffffffffffffffffffffffffffffffffffffff1686886040518463ffffffff167c0100000000000000000000000000000000000000000000000000000000028152600401808473ffffffffffffffffffffffffffffffffffffffff1673ffffffffffffffffffffffffffffffffffffffff1681526020018381526020018260001916600019168152602001935050505060006040518083038186803b1580156135c457600080fd5b505af41580156135d8573d6000803e3d6000fd5b505050508573ffffffffffffffffffffffffffffffffffffffff168373ffffffffffffffffffffffffffffffffffffffff1688600019167fada589b9351a396c2e7312d4ee9fc2bcf8505233ca0766798e54bd94989ebf5860405160405180910390a450505050505050565b600160149054906101000a900460ff1615151561366057600080fd5b6000809054906101000a900473ffffffffffffffffffffffffffffffffffffffff1673ffffffffffffffffffffffffffffffffffffffff163373ffffffffffffffffffffffffffffffffffffffff161415156136bb57600080fd5b8073__VehicleManufacturerStorage____________63ed2933ed600260009054906101000a900473ffffffffffffffffffffffffffffffffffffffff166137028461473b565b6040518363ffffffff167c0100000000000000000000000000000000000000000000000000000000028152600401808373ffffffffffffffffffffffffffffffffffffffff1673ffffffffffffffffffffffffffffffffffffffff1681526020018281526020019250505060206040518083038186803b15801561378557600080fd5b505af4158015613799573d6000803e3d6000fd5b505050506040513d60208110156137af57600080fd5b81019080805190602001909291905050501515613834576040517f08c379a000000000000000000000000000000000000000000000000000000000815260040180806020018281038252601f8152602001807f4d616e756661637475726572206d75737420626520726567697374657265640081525060200191505060405180910390fd5b8173__VehicleManufacturerStorage____________6302a992b0600260009054906101000a900473ffffffffffffffffffffffffffffffffffffffff1661387b8461473b565b6040518363ffffffff167c0100000000000000000000000000000000000000000000000000000000028152600401808373ffffffffffffffffffffffffffffffffffffffff1673ffffffffffffffffffffffffffffffffffffffff1681526020018281526020019250505060206040518083038186803b1580156138fe57600080fd5b505af4158015613912573d6000803e3d6000fd5b505050506040513d602081101561392857600080fd5b810190808051906020019092919050505015156139ad576040517f08c379a000000000000000000000000000000000000000000000000000000000815260040180806020018281038252601c8152602001807f4d616e756661637475726572206d75737420626520656e61626c65640000000081525060200191505060405180910390fd5b73__VehicleManufacturerStorage____________63fe415110600260009054906101000a900473ffffffffffffffffffffffffffffffffffffffff166139f38661473b565b60006040518463ffffffff167c0100000000000000000000000000000000000000000000000000000000028152600401808473ffffffffffffffffffffffffffffffffffffffff1673ffffffffffffffffffffffffffffffffffffffff16815260200183815260200182151515158152602001935050505060006040518083038186803b158015613a8357600080fd5b505af4158015613a97573d6000803e3d6000fd5b5050505082600019167f06323fa6050c06977a789317f58e2827ab1390a6e26d5dc9e5dadca320611b8160405160405180910390a2505050565b60008060008060009054906101000a900473ffffffffffffffffffffffffffffffffffffffff1673ffffffffffffffffffffffffffffffffffffffff163373ffffffffffffffffffffffffffffffffffffffff16141515613b3157600080fd5b600092505b8351831015613d3e578383815181101515613b4d57fe5b9060200190602002015191508173ffffffffffffffffffffffffffffffffffffffff166370a08231306040518263ffffffff167c0100000000000000000000000000000000000000000000000000000000028152600401808273ffffffffffffffffffffffffffffffffffffffff1673ffffffffffffffffffffffffffffffffffffffff168152602001915050602060405180830381600087803b158015613bf457600080fd5b505af1158015613c08573d6000803e3d6000fd5b505050506040513d6020811015613c1e57600080fd5b810190808051906020019092919050505090508173ffffffffffffffffffffffffffffffffffffffff1663a9059cbb6000809054906101000a900473ffffffffffffffffffffffffffffffffffffffff16836040518363ffffffff167c0100000000000000000000000000000000000000000000000000000000028152600401808373ffffffffffffffffffffffffffffffffffffffff1673ffffffffffffffffffffffffffffffffffffffff16815260200182815260200192505050602060405180830381600087803b158015613cf557600080fd5b505af1158015613d09573d6000803e3d6000fd5b505050506040513d6020811015613d1f57600080fd5b8101908080519060200190929190505050508280600101935050613b36565b6000809054906101000a900473ffffffffffffffffffffffffffffffffffffffff1673ffffffffffffffffffffffffffffffffffffffff16ff5b60008173__VehicleManufacturerStorage____________63ed2933ed600260009054906101000a900473ffffffffffffffffffffffffffffffffffffffff16613dc18461473b565b6040518363ffffffff167c0100000000000000000000000000000000000000000000000000000000028152600401808373ffffffffffffffffffffffffffffffffffffffff1673ffffffffffffffffffffffffffffffffffffffff1681526020018281526020019250505060206040518083038186803b158015613e4457600080fd5b505af4158015613e58573d6000803e3d6000fd5b505050506040513d6020811015613e6e57600080fd5b81019080805190602001909291905050501515613ef3576040517f08c379a000000000000000000000000000000000000000000000000000000000815260040180806020018281038252601f8152602001807f4d616e756661637475726572206d75737420626520726567697374657265640081525060200191505060405180910390fd5b73__VehicleManufacturerStorage____________632f634a90600260009054906101000a900473ffffffffffffffffffffffffffffffffffffffff16613f398661473b565b6040518363ffffffff167c0100000000000000000000000000000000000000000000000000000000028152600401808373ffffffffffffffffffffffffffffffffffffffff1673ffffffffffffffffffffffffffffffffffffffff1681526020018281526020019250505060206040518083038186803b158015613fbc57600080fd5b505af4158015613fd0573d6000803e3d6000fd5b505050506040513d6020811015613fe657600080fd5b8101908080519060200190929190505050915050919050565b600160149054906101000a900460ff1615151561401b57600080fd5b8173__VehicleManufacturerStorage____________63ed2933ed600260009054906101000a900473ffffffffffffffffffffffffffffffffffffffff166140628461473b565b6040518363ffffffff167c0100000000000000000000000000000000000000000000000000000000028152600401808373ffffffffffffffffffffffffffffffffffffffff1673ffffffffffffffffffffffffffffffffffffffff1681526020018281526020019250505060206040518083038186803b1580156140e557600080fd5b505af41580156140f9573d6000803e3d6000fd5b505050506040513d602081101561410f57600080fd5b81019080805190602001909291905050501515614194576040517f08c379a000000000000000000000000000000000000000000000000000000000815260040180806020018281038252601f8152602001807f4d616e756661637475726572206d75737420626520726567697374657265640081525060200191505060405180910390fd5b823373ffffffffffffffffffffffffffffffffffffffff1673__VehicleManufacturerStorage____________6382045caa600260009054906101000a900473ffffffffffffffffffffffffffffffffffffffff166141f28561473b565b6040518363ffffffff167c0100000000000000000000000000000000000000000000000000000000028152600401808373ffffffffffffffffffffffffffffffffffffffff1673ffffffffffffffffffffffffffffffffffffffff1681526020018281526020019250505060206040518083038186803b15801561427557600080fd5b505af4158015614289573d6000803e3d6000fd5b505050506040513d602081101561429f57600080fd5b810190808051906020019092919050505073ffffffffffffffffffffffffffffffffffffffff16141515614361576040517f08c379a00000000000000000000000000000000000000000000000000000000081526004018080602001828103825260408152602001807f4f6e6c79207468652070656e64696e67206f776e6572206f6620746865206d6181526020017f6e7566616374757265722063616e20706572666f726d2074686973207461736b81525060400191505060405180910390fd5b8383600073__VehicleManufacturerStorage____________6366126894600260009054906101000a900473ffffffffffffffffffffffffffffffffffffffff166143ab8661473b565b6040518363ffffffff167c0100000000000000000000000000000000000000000000000000000000028152600401808373ffffffffffffffffffffffffffffffffffffffff1673ffffffffffffffffffffffffffffffffffffffff1681526020018281526020019250505060206040518083038186803b15801561442e57600080fd5b505af4158015614442573d6000803e3d6000fd5b505050506040513d602081101561445857600080fd5b8101908080519060200190929190505050905081600019168160001916141515614510576040517f08c379a00000000000000000000000000000000000000000000000000000000081526004018080602001828103825260358152602001807f546865206b65792070726f7669646564206d757374206d61746368207468652081526020017f6578697374696e67207472616e73666572206b6579000000000000000000000081525060400191505060405180910390fd5b73__VehicleManufacturerStorage____________6319409a95600260009054906101000a900473ffffffffffffffffffffffffffffffffffffffff166145568a61473b565b336040518463ffffffff167c0100000000000000000000000000000000000000000000000000000000028152600401808473ffffffffffffffffffffffffffffffffffffffff1673ffffffffffffffffffffffffffffffffffffffff1681526020018381526020018273ffffffffffffffffffffffffffffffffffffffff1673ffffffffffffffffffffffffffffffffffffffff168152602001935050505060006040518083038186803b15801561460d57600080fd5b505af4158015614621573d6000803e3d6000fd5b505050503373ffffffffffffffffffffffffffffffffffffffff1687600019167f6f0f4baa8b626fcd5e98d6472e00bea0c4c2da5d3389b0bb5fb178034acdc33060405160405180910390a350505050505050565b600160009054906101000a900473ffffffffffffffffffffffffffffffffffffffff1681565b6000809054906101000a900473ffffffffffffffffffffffffffffffffffffffff1673ffffffffffffffffffffffffffffffffffffffff163373ffffffffffffffffffffffffffffffffffffffff161415156146f757600080fd5b80600160006101000a81548173ffffffffffffffffffffffffffffffffffffffff021916908373ffffffffffffffffffffffffffffffffffffffff16021790555050565b600073__VehicleManufacturerStorage____________63aae7df05600260009054906101000a900473ffffffffffffffffffffffffffffffffffffffff16846040518363ffffffff167c0100000000000000000000000000000000000000000000000000000000028152600401808373ffffffffffffffffffffffffffffffffffffffff1673ffffffffffffffffffffffffffffffffffffffff16815260200182600019166000191681526020019250505060206040518083038186803b15801561480657600080fd5b505af415801561481a573d6000803e3d6000fd5b505050506040513d602081101561483057600080fd5b810190808051906020019092919050505090509190505600a165627a7a72305820b11d4199bb95672ca9987a5b5b3cb8aac2dd5ed39ea4b252d230cad579c984bd0029",
  "source": "pragma solidity ^0.4.23;\r\n\r\nimport \"../node_modules/openzeppelin-solidity/contracts/ownership/Claimable.sol\";\r\nimport \"../node_modules/openzeppelin-solidity/contracts/lifecycle/TokenDestructible.sol\";\r\nimport \"../node_modules/openzeppelin-solidity/contracts/lifecycle/Pausable.sol\";\r\nimport \"./VehicleManufacturerStorage.sol\";\r\nimport \"./IVehicleManufacturerRegistry.sol\";\r\nimport \"./ByteUtils.sol\";\r\n\r\ncontract VehicleManufacturerRegistry is IVehicleManufacturerRegistry, Claimable, TokenDestructible, Pausable {\r\n\r\n    using ByteUtils for bytes32;\r\n\r\n    address private storageAddress;\r\n    \r\n    event ManufacturerRegistered(bytes32 indexed name);\r\n    event ManufacturerEnabled(bytes32 indexed indexed name);\r\n    event ManufacturerDisabled(bytes32 indexed name);\r\n    event ManufacturerAttributeSet(bytes32 indexed name, bytes32 indexed attributeName, string value);    \r\n    event ManufacturerOwnershipTransferRequest(bytes32 indexed name, address indexed from, address indexed to);\r\n    event ManufacturerOwnershipTransferAccepted(bytes32 indexed name, address indexed newOwner);\r\n\r\n    constructor(address _storageAddress) public {\r\n        storageAddress = _storageAddress;\r\n    }\r\n\r\n    modifier isARegisteredManufacturer(bytes32 _name) {\r\n        require(VehicleManufacturerStorage.exists(storageAddress, getNum(_name)), \"Manufacturer must be registered\");\r\n        _;\r\n    }\r\n\r\n    modifier isARegisteredManufacturerNumber(uint256 _number) {\r\n        require(VehicleManufacturerStorage.exists(storageAddress, _number), \"Manufacturer must be registered\");\r\n        _;\r\n    }\r\n\r\n    modifier manufacturerMustBeEnabled(bytes32 _name) {\r\n        require(VehicleManufacturerStorage.getEnabled(storageAddress, getNum(_name)), \"Manufacturer must be enabled\");\r\n        _;\r\n    }\r\n\r\n    modifier manufacturerMustBeDisabled(bytes32 _name) {\r\n        require(!VehicleManufacturerStorage.getEnabled(storageAddress, getNum(_name)), \"Manufacturer must be disabled\");\r\n        _;\r\n    }      \r\n\r\n    modifier manufacturerIsNotRegistered(bytes32 _name) {\r\n        require(!VehicleManufacturerStorage.exists(storageAddress, getNum(_name)), \"Manufacturer must not already be registered\");\r\n        _;\r\n    }\r\n\r\n    modifier onlyManufacturerOwner(bytes32 _name) {\r\n        require(\r\n            VehicleManufacturerStorage.getOwner(storageAddress, getNum(_name)) == msg.sender, \r\n            \"Only the owner of the manufacturer can perform this task\");\r\n        _;\r\n    }\r\n\r\n    modifier onlyPendingManufacturerOwner(bytes32 _name) {\r\n        require(\r\n            VehicleManufacturerStorage.getPendingOwner(storageAddress, getNum(_name)) == msg.sender, \r\n            \"Only the pending owner of the manufacturer can perform this task\");\r\n        _;\r\n    }    \r\n\r\n    modifier manufacturerTransferKeyMatches(bytes32 _name, bytes32 _keyHash) {\r\n        bytes32 transferKey = VehicleManufacturerStorage.getTransferKey(storageAddress, getNum(_name));\r\n        require(transferKey == _keyHash, \"The key provided must match the existing transfer key\");\r\n        _;        \r\n    }\r\n\r\n    modifier attributeNameDoesNotExist(bytes32 _name, bytes32 _attribName) {\r\n        require(VehicleManufacturerStorage.getAttributeNumber(storageAddress, getNum(_name), _attribName) == 0,\r\n        \"Attribute name must not already exist\");\r\n        _;\r\n    }\r\n\r\n    modifier attributeNameExists(bytes32 _name, bytes32 _attribName) {\r\n        require(VehicleManufacturerStorage.getAttributeNumber(storageAddress, getNum(_name), _attribName) > 0,\r\n        \"Attribute name must exist\");\r\n        _;\r\n    }    \r\n\r\n    function getStorageAddress() \r\n        public view \r\n        returns(address) {\r\n        return storageAddress;\r\n    }      \r\n\r\n    function isRegistered(bytes32 _name) \r\n        external view \r\n        returns (bool) {\r\n        return VehicleManufacturerStorage.exists(storageAddress, getNum(_name));\r\n    }\r\n\r\n    function isEnabled(bytes32 _name) \r\n        external view \r\n        returns (bool) {\r\n        return VehicleManufacturerStorage.getEnabled(storageAddress, getNum(_name));\r\n    }\r\n\r\n    function getCount() \r\n        external view \r\n        returns (uint256) {\r\n        return VehicleManufacturerStorage.getTotalCount(storageAddress);\r\n    }\r\n\r\n    function getNumber(bytes32 _name) \r\n        external view \r\n        isARegisteredManufacturer(_name)\r\n        returns (uint256) {\r\n        return getNum(_name);\r\n    }    \r\n\r\n    function getName(uint256 _number)\r\n        external view \r\n        isARegisteredManufacturerNumber(_number)\r\n        returns (bytes32) {\r\n        return VehicleManufacturerStorage.getName(storageAddress, _number);\r\n    }\r\n\r\n    function getAttributeCount(bytes32 _name) \r\n        external view\r\n        isARegisteredManufacturer(_name)\r\n        returns (uint256) {\r\n        return VehicleManufacturerStorage.getAttributeCount(storageAddress, getNum(_name));\r\n    }\r\n\r\n    function getAttributeValue(bytes32 _name, uint256 _attributeNumber) \r\n        external view \r\n        isARegisteredManufacturer(_name)\r\n        returns (string) {\r\n        return VehicleManufacturerStorage.getAttributeValue(storageAddress, getNum(_name), _attributeNumber);\r\n    }\r\n\r\n    function getAttributeName(bytes32 _name, uint256 _attributeNumber) \r\n        external view \r\n        isARegisteredManufacturer(_name)\r\n        returns (bytes32) {\r\n        return VehicleManufacturerStorage.getAttributeName(storageAddress, getNum(_name), _attributeNumber);\r\n    }\r\n\r\n    function registerManufacturer(bytes32 _name) \r\n        external payable\r\n        whenNotPaused()\r\n        onlyOwner()\r\n        manufacturerIsNotRegistered(_name)\r\n        returns (uint256) {\r\n        uint256 number = VehicleManufacturerStorage.store(storageAddress, _name, owner, true);\r\n        emit ManufacturerRegistered(_name);\r\n        return number;\r\n    }\r\n\r\n    function addAttribute(bytes32 _name, bytes32 _attributeName, string _val) \r\n        external payable \r\n        whenNotPaused()\r\n        onlyOwner()\r\n        isARegisteredManufacturer(_name)\r\n        attributeNameDoesNotExist(_name, _attributeName)\r\n        returns (uint256) {\r\n        uint256 attribNumber = VehicleManufacturerStorage.storeAttribute(storageAddress, getNum(_name), _attributeName, _val);\r\n        emit ManufacturerAttributeSet(_name, _attributeName, _val);\r\n        return attribNumber;\r\n    } \r\n\r\n    function setAttributeValue(bytes32 _name, bytes32 _attributeName, string _val) \r\n        external payable \r\n        whenNotPaused()\r\n        onlyOwner()\r\n        isARegisteredManufacturer(_name)\r\n        attributeNameExists(_name, _attributeName) {\r\n        uint256 attribNumber = VehicleManufacturerStorage.getAttributeNumber(storageAddress, getNum(_name), _attributeName);\r\n        VehicleManufacturerStorage.setAttributeValue(storageAddress, getNum(_name), attribNumber, _val);\r\n        emit ManufacturerAttributeSet(_name, _attributeName, _val);\r\n    }        \r\n\r\n    function getManufacturerOwner(bytes32 _name)\r\n        external view \r\n        isARegisteredManufacturer(_name)\r\n        returns (address) {\r\n            return VehicleManufacturerStorage.getOwner(storageAddress, getNum(_name));\r\n    }\r\n\r\n    function disableManufacturer(bytes32 _name) \r\n        external payable\r\n        whenNotPaused()\r\n        onlyOwner()\r\n        isARegisteredManufacturer(_name)\r\n        manufacturerMustBeEnabled(_name)\r\n         {\r\n        VehicleManufacturerStorage.setEnabled(storageAddress, getNum(_name), false);    \r\n        emit ManufacturerDisabled(_name);\r\n    }\r\n\r\n    function enableManufacturer(bytes32 _name) \r\n        external payable \r\n        whenNotPaused()\r\n        onlyOwner()\r\n        isARegisteredManufacturer(_name)\r\n        manufacturerMustBeDisabled(_name)\r\n        {     \r\n        VehicleManufacturerStorage.setEnabled(storageAddress, getNum(_name), true);    \r\n        emit ManufacturerEnabled(_name);\r\n    }\r\n\r\n    function transferManufacturerOwnership(bytes32 _name, address _newOwner, bytes32 _keyHash) \r\n        external payable \r\n        whenNotPaused()\r\n        isARegisteredManufacturer(_name)\r\n        onlyManufacturerOwner(_name)\r\n        {\r\n        uint256 number = getNum(_name);            \r\n        address currentOwner = VehicleManufacturerStorage.getOwner(storageAddress, number);  \r\n        VehicleManufacturerStorage.setPendingOwner(storageAddress, number, _newOwner);  \r\n        VehicleManufacturerStorage.setTransferKey(storageAddress, number, _keyHash);  \r\n        emit ManufacturerOwnershipTransferRequest(_name, currentOwner, _newOwner);\r\n    }\r\n\r\n    function acceptManufacturerOwnership(bytes32 _name, bytes32 _keyHash) \r\n        external payable\r\n        whenNotPaused()\r\n        isARegisteredManufacturer(_name)\r\n        onlyPendingManufacturerOwner(_name)\r\n        manufacturerTransferKeyMatches(_name, _keyHash)\r\n         {  \r\n        VehicleManufacturerStorage.setOwner(storageAddress, getNum(_name), msg.sender);\r\n        emit ManufacturerOwnershipTransferAccepted(_name, msg.sender);\r\n    } \r\n\r\n    function getNum(bytes32 _name) \r\n        private view \r\n        returns (uint256) {\r\n        return VehicleManufacturerStorage.getNumber(storageAddress, _name);  \r\n    }   \r\n}",
  "sourcePath": "C:\\dev\\repos\\VehicleMaintenanceRegistry\\src\\VMR\\contracts\\VehicleManufacturerRegistry.sol",
  "compiler": {
    "name": "solc",
    "version": "0.4.24+commit.e67f0147.Emscripten.clang"
  },
  "schemaVersion": "2.0.1",
  "updatedAt": "2018-07-11T15:58:20.357Z"
}