{
  "contractName": "VehicleRegistryStorage",
  "abi": [
    {
      "constant": false,
      "inputs": [
        {
          "name": "_storageAccount",
          "type": "address"
        },
        {
          "name": "_VIN",
          "type": "bytes32"
        },
        {
          "name": "_manufacturerName",
          "type": "bytes32"
        },
        {
          "name": "_licencePlate",
          "type": "bytes32"
        },
        {
          "name": "_owner",
          "type": "address"
        },
        {
          "name": "_serviceHistoryAddress",
          "type": "address"
        },
        {
          "name": "_registered",
          "type": "uint256"
        }
      ],
      "name": "storeVehicle",
      "outputs": [],
      "payable": false,
      "stateMutability": "nonpayable",
      "type": "function"
    },
    {
      "constant": true,
      "inputs": [
        {
          "name": "_storageAccount",
          "type": "address"
        },
        {
          "name": "_VIN",
          "type": "bytes32"
        }
      ],
      "name": "getVin",
      "outputs": [
        {
          "name": "",
          "type": "bytes32"
        }
      ],
      "payable": false,
      "stateMutability": "view",
      "type": "function"
    },
    {
      "constant": true,
      "inputs": [
        {
          "name": "_storageAccount",
          "type": "address"
        },
        {
          "name": "_VIN",
          "type": "bytes32"
        }
      ],
      "name": "getManufacturerName",
      "outputs": [
        {
          "name": "",
          "type": "bytes32"
        }
      ],
      "payable": false,
      "stateMutability": "view",
      "type": "function"
    },
    {
      "constant": true,
      "inputs": [
        {
          "name": "_storageAccount",
          "type": "address"
        },
        {
          "name": "_VIN",
          "type": "bytes32"
        }
      ],
      "name": "getLicencePlate",
      "outputs": [
        {
          "name": "",
          "type": "bytes32"
        }
      ],
      "payable": false,
      "stateMutability": "view",
      "type": "function"
    },
    {
      "constant": true,
      "inputs": [
        {
          "name": "_storageAccount",
          "type": "address"
        },
        {
          "name": "_VIN",
          "type": "bytes32"
        }
      ],
      "name": "getOwner",
      "outputs": [
        {
          "name": "",
          "type": "address"
        }
      ],
      "payable": false,
      "stateMutability": "view",
      "type": "function"
    },
    {
      "constant": true,
      "inputs": [
        {
          "name": "_storageAccount",
          "type": "address"
        },
        {
          "name": "_VIN",
          "type": "bytes32"
        }
      ],
      "name": "getServiceHistoryAddress",
      "outputs": [
        {
          "name": "",
          "type": "address"
        }
      ],
      "payable": false,
      "stateMutability": "view",
      "type": "function"
    },
    {
      "constant": true,
      "inputs": [
        {
          "name": "_storageAccount",
          "type": "address"
        },
        {
          "name": "_VIN",
          "type": "bytes32"
        }
      ],
      "name": "getRegistered",
      "outputs": [
        {
          "name": "",
          "type": "uint256"
        }
      ],
      "payable": false,
      "stateMutability": "view",
      "type": "function"
    },
    {
      "constant": true,
      "inputs": [
        {
          "name": "_storageAccount",
          "type": "address"
        },
        {
          "name": "_VIN",
          "type": "bytes32"
        }
      ],
      "name": "getTransferKey",
      "outputs": [
        {
          "name": "",
          "type": "bytes32"
        }
      ],
      "payable": false,
      "stateMutability": "view",
      "type": "function"
    },
    {
      "constant": true,
      "inputs": [
        {
          "name": "_storageAccount",
          "type": "address"
        },
        {
          "name": "_VIN",
          "type": "bytes32"
        }
      ],
      "name": "getPendingOwner",
      "outputs": [
        {
          "name": "",
          "type": "address"
        }
      ],
      "payable": false,
      "stateMutability": "view",
      "type": "function"
    },
    {
      "constant": true,
      "inputs": [
        {
          "name": "_storageAccount",
          "type": "address"
        },
        {
          "name": "_VIN",
          "type": "bytes32"
        }
      ],
      "name": "exists",
      "outputs": [
        {
          "name": "",
          "type": "bool"
        }
      ],
      "payable": false,
      "stateMutability": "view",
      "type": "function"
    },
    {
      "constant": false,
      "inputs": [
        {
          "name": "_storageAccount",
          "type": "address"
        },
        {
          "name": "_VIN",
          "type": "bytes32"
        }
      ],
      "name": "setVin",
      "outputs": [],
      "payable": false,
      "stateMutability": "nonpayable",
      "type": "function"
    },
    {
      "constant": false,
      "inputs": [
        {
          "name": "_storageAccount",
          "type": "address"
        },
        {
          "name": "_VIN",
          "type": "bytes32"
        },
        {
          "name": "_manufacturerName",
          "type": "bytes32"
        }
      ],
      "name": "setManufacturerName",
      "outputs": [],
      "payable": false,
      "stateMutability": "nonpayable",
      "type": "function"
    },
    {
      "constant": false,
      "inputs": [
        {
          "name": "_storageAccount",
          "type": "address"
        },
        {
          "name": "_VIN",
          "type": "bytes32"
        },
        {
          "name": "_licencePlate",
          "type": "bytes32"
        }
      ],
      "name": "setLicencePlate",
      "outputs": [],
      "payable": false,
      "stateMutability": "nonpayable",
      "type": "function"
    },
    {
      "constant": false,
      "inputs": [
        {
          "name": "_storageAccount",
          "type": "address"
        },
        {
          "name": "_VIN",
          "type": "bytes32"
        },
        {
          "name": "_owner",
          "type": "address"
        }
      ],
      "name": "setOwner",
      "outputs": [],
      "payable": false,
      "stateMutability": "nonpayable",
      "type": "function"
    },
    {
      "constant": false,
      "inputs": [
        {
          "name": "_storageAccount",
          "type": "address"
        },
        {
          "name": "_VIN",
          "type": "bytes32"
        },
        {
          "name": "_serviceHistoryAddress",
          "type": "address"
        }
      ],
      "name": "setServiceHistoryAddress",
      "outputs": [],
      "payable": false,
      "stateMutability": "nonpayable",
      "type": "function"
    },
    {
      "constant": false,
      "inputs": [
        {
          "name": "_storageAccount",
          "type": "address"
        },
        {
          "name": "_VIN",
          "type": "bytes32"
        },
        {
          "name": "_registered",
          "type": "uint256"
        }
      ],
      "name": "setRegistered",
      "outputs": [],
      "payable": false,
      "stateMutability": "nonpayable",
      "type": "function"
    },
    {
      "constant": false,
      "inputs": [
        {
          "name": "_storageAccount",
          "type": "address"
        },
        {
          "name": "_VIN",
          "type": "bytes32"
        },
        {
          "name": "_pendingOwner",
          "type": "address"
        }
      ],
      "name": "setPendingOwner",
      "outputs": [],
      "payable": false,
      "stateMutability": "nonpayable",
      "type": "function"
    },
    {
      "constant": false,
      "inputs": [
        {
          "name": "_storageAccount",
          "type": "address"
        },
        {
          "name": "_VIN",
          "type": "bytes32"
        },
        {
          "name": "_keyHash",
          "type": "bytes32"
        }
      ],
      "name": "setTransferKey",
      "outputs": [],
      "payable": false,
      "stateMutability": "nonpayable",
      "type": "function"
    }
  ],
  "bytecode": "0x61211f610030600b82828239805160001a6073146000811461002057610022565bfe5b5030600052607381538281f3007300000000000000000000000000000000000000003014608060405260043610610113576000357c0100000000000000000000000000000000000000000000000000000000900463ffffffff1680630f1ed0c61461011857806310e80c2b14610189578063171321d5146101e95780632e0ca6c214610249578063451205111461029a5780634dc024f6146102f657806369c5b2b8146103555780637231f107146103d957806372c72a7d1461043457806380a9f75b1461048c5780638b8fa92f1461051057806399d54f40146105815780639f7d4a2f146105e1578063a729e96614610641578063b2ec936f146106f8578063bb54406014610757578063d93b8c14146107db578063fee3dc991461083a575b600080fd5b81801561012457600080fd5b50610187600480360381019080803573ffffffffffffffffffffffffffffffffffffffff1690602001909291908035600019169060200190929190803573ffffffffffffffffffffffffffffffffffffffff1690602001909291905050506108ab565b005b6101cb600480360381019080803573ffffffffffffffffffffffffffffffffffffffff1690602001909291908035600019169060200190929190505050610a24565b60405180826000191660001916815260200191505060405180910390f35b61022b600480360381019080803573ffffffffffffffffffffffffffffffffffffffff1690602001909291908035600019169060200190929190505050610b91565b60405180826000191660001916815260200191505060405180910390f35b81801561025557600080fd5b50610298600480360381019080803573ffffffffffffffffffffffffffffffffffffffff1690602001909291908035600019169060200190929190505050610cfe565b005b6102dc600480360381019080803573ffffffffffffffffffffffffffffffffffffffff1690602001909291908035600019169060200190929190505050610e52565b604051808215151515815260200191505060405180910390f35b81801561030257600080fd5b50610353600480360381019080803573ffffffffffffffffffffffffffffffffffffffff16906020019092919080356000191690602001909291908035600019169060200190929190505050610fd7565b005b610397600480360381019080803573ffffffffffffffffffffffffffffffffffffffff169060200190929190803560001916906020019092919050505061112c565b604051808273ffffffffffffffffffffffffffffffffffffffff1673ffffffffffffffffffffffffffffffffffffffff16815260200191505060405180910390f35b8180156103e557600080fd5b50610432600480360381019080803573ffffffffffffffffffffffffffffffffffffffff169060200190929190803560001916906020019092919080359060200190929190505050611299565b005b610476600480360381019080803573ffffffffffffffffffffffffffffffffffffffff16906020019092919080356000191690602001909291905050506113e6565b6040518082815260200191505060405180910390f35b6104ce600480360381019080803573ffffffffffffffffffffffffffffffffffffffff1690602001909291908035600019169060200190929190505050611553565b604051808273ffffffffffffffffffffffffffffffffffffffff1673ffffffffffffffffffffffffffffffffffffffff16815260200191505060405180910390f35b81801561051c57600080fd5b5061057f600480360381019080803573ffffffffffffffffffffffffffffffffffffffff1690602001909291908035600019169060200190929190803573ffffffffffffffffffffffffffffffffffffffff1690602001909291905050506116c0565b005b6105c3600480360381019080803573ffffffffffffffffffffffffffffffffffffffff1690602001909291908035600019169060200190929190505050611839565b60405180826000191660001916815260200191505060405180910390f35b610623600480360381019080803573ffffffffffffffffffffffffffffffffffffffff16906020019092919080356000191690602001909291905050506119a6565b60405180826000191660001916815260200191505060405180910390f35b81801561064d57600080fd5b506106f6600480360381019080803573ffffffffffffffffffffffffffffffffffffffff169060200190929190803560001916906020019092919080356000191690602001909291908035600019169060200190929190803573ffffffffffffffffffffffffffffffffffffffff169060200190929190803573ffffffffffffffffffffffffffffffffffffffff16906020019092919080359060200190929190505050611b13565b005b81801561070457600080fd5b50610755600480360381019080803573ffffffffffffffffffffffffffffffffffffffff16906020019092919080356000191690602001909291908035600019169060200190929190505050611b5d565b005b610799600480360381019080803573ffffffffffffffffffffffffffffffffffffffff1690602001909291908035600019169060200190929190505050611cb2565b604051808273ffffffffffffffffffffffffffffffffffffffff1673ffffffffffffffffffffffffffffffffffffffff16815260200191505060405180910390f35b8180156107e757600080fd5b50610838600480360381019080803573ffffffffffffffffffffffffffffffffffffffff16906020019092919080356000191690602001909291908035600019169060200190929190505050611e1f565b005b81801561084657600080fd5b506108a9600480360381019080803573ffffffffffffffffffffffffffffffffffffffff1690602001909291908035600019169060200190929190803573ffffffffffffffffffffffffffffffffffffffff169060200190929190505050611f74565b005b8273ffffffffffffffffffffffffffffffffffffffff16635a2bf25a83604051602001808260001916600019168152602001807f6f776e65720000000000000000000000000000000000000000000000000000008152506005019150506040516020818303038152906040526040518082805190602001908083835b60208310151561094c5780518252602082019150602081019050602083039250610927565b6001836020036101000a0380198251168184511680821785525050505050509050019150506040518091039020836040518363ffffffff167c01000000000000000000000000000000000000000000000000000000000281526004018083600019166000191681526020018273ffffffffffffffffffffffffffffffffffffffff1673ffffffffffffffffffffffffffffffffffffffff16815260200192505050600060405180830381600087803b158015610a0757600080fd5b505af1158015610a1b573d6000803e3d6000fd5b50505050505050565b60008273ffffffffffffffffffffffffffffffffffffffff1663025ec81a83604051602001808260001916600019168152602001807f76696e00000000000000000000000000000000000000000000000000000000008152506003019150506040516020818303038152906040526040518082805190602001908083835b602083101515610ac75780518252602082019150602081019050602083039250610aa2565b6001836020036101000a03801982511681845116808217855250505050505090500191505060405180910390206040518263ffffffff167c0100000000000000000000000000000000000000000000000000000000028152600401808260001916600019168152602001915050602060405180830381600087803b158015610b4e57600080fd5b505af1158015610b62573d6000803e3d6000fd5b505050506040513d6020811015610b7857600080fd5b8101908080519060200190929190505050905092915050565b60008273ffffffffffffffffffffffffffffffffffffffff1663025ec81a83604051602001808260001916600019168152602001807f6c6963656e6365506c6174650000000000000000000000000000000000000000815250600c019150506040516020818303038152906040526040518082805190602001908083835b602083101515610c345780518252602082019150602081019050602083039250610c0f565b6001836020036101000a03801982511681845116808217855250505050505090500191505060405180910390206040518263ffffffff167c0100000000000000000000000000000000000000000000000000000000028152600401808260001916600019168152602001915050602060405180830381600087803b158015610cbb57600080fd5b505af1158015610ccf573d6000803e3d6000fd5b505050506040513d6020811015610ce557600080fd5b8101908080519060200190929190505050905092915050565b8173ffffffffffffffffffffffffffffffffffffffff166325cf512d82604051602001808260001916600019168152602001807f76696e00000000000000000000000000000000000000000000000000000000008152506003019150506040516020818303038152906040526040518082805190602001908083835b602083101515610d9f5780518252602082019150602081019050602083039250610d7a565b6001836020036101000a0380198251168184511680821785525050505050509050019150506040518091039020836040518363ffffffff167c0100000000000000000000000000000000000000000000000000000000028152600401808360001916600019168152602001826000191660001916815260200192505050600060405180830381600087803b158015610e3657600080fd5b505af1158015610e4a573d6000803e3d6000fd5b505050505050565b6000808373ffffffffffffffffffffffffffffffffffffffff16634c77e5ba84604051602001808260001916600019168152602001807f6f776e65720000000000000000000000000000000000000000000000000000008152506005019150506040516020818303038152906040526040518082805190602001908083835b602083101515610ef65780518252602082019150602081019050602083039250610ed1565b6001836020036101000a03801982511681845116808217855250505050505090500191505060405180910390206040518263ffffffff167c0100000000000000000000000000000000000000000000000000000000028152600401808260001916600019168152602001915050602060405180830381600087803b158015610f7d57600080fd5b505af1158015610f91573d6000803e3d6000fd5b505050506040513d6020811015610fa757600080fd5b810190808051906020019092919050505073ffffffffffffffffffffffffffffffffffffffff1611905092915050565b8273ffffffffffffffffffffffffffffffffffffffff166325cf512d83604051602001808260001916600019168152602001807f6d616e7566616374757265724e616d65000000000000000000000000000000008152506010019150506040516020818303038152906040526040518082805190602001908083835b6020831015156110785780518252602082019150602081019050602083039250611053565b6001836020036101000a0380198251168184511680821785525050505050509050019150506040518091039020836040518363ffffffff167c0100000000000000000000000000000000000000000000000000000000028152600401808360001916600019168152602001826000191660001916815260200192505050600060405180830381600087803b15801561110f57600080fd5b505af1158015611123573d6000803e3d6000fd5b50505050505050565b60008273ffffffffffffffffffffffffffffffffffffffff16634c77e5ba83604051602001808260001916600019168152602001807f6f776e65720000000000000000000000000000000000000000000000000000008152506005019150506040516020818303038152906040526040518082805190602001908083835b6020831015156111cf57805182526020820191506020810190506020830392506111aa565b6001836020036101000a03801982511681845116808217855250505050505090500191505060405180910390206040518263ffffffff167c0100000000000000000000000000000000000000000000000000000000028152600401808260001916600019168152602001915050602060405180830381600087803b15801561125657600080fd5b505af115801561126a573d6000803e3d6000fd5b505050506040513d602081101561128057600080fd5b8101908080519060200190929190505050905092915050565b8273ffffffffffffffffffffffffffffffffffffffff1663dde5b9d583604051602001808260001916600019168152602001807f7265676973746572656400000000000000000000000000000000000000000000815250600a019150506040516020818303038152906040526040518082805190602001908083835b60208310151561133a5780518252602082019150602081019050602083039250611315565b6001836020036101000a0380198251168184511680821785525050505050509050019150506040518091039020836040518363ffffffff167c010000000000000000000000000000000000000000000000000000000002815260040180836000191660001916815260200182815260200192505050600060405180830381600087803b1580156113c957600080fd5b505af11580156113dd573d6000803e3d6000fd5b50505050505050565b60008273ffffffffffffffffffffffffffffffffffffffff1663ac09455383604051602001808260001916600019168152602001807f7265676973746572656400000000000000000000000000000000000000000000815250600a019150506040516020818303038152906040526040518082805190602001908083835b6020831015156114895780518252602082019150602081019050602083039250611464565b6001836020036101000a03801982511681845116808217855250505050505090500191505060405180910390206040518263ffffffff167c0100000000000000000000000000000000000000000000000000000000028152600401808260001916600019168152602001915050602060405180830381600087803b15801561151057600080fd5b505af1158015611524573d6000803e3d6000fd5b505050506040513d602081101561153a57600080fd5b8101908080519060200190929190505050905092915050565b60008273ffffffffffffffffffffffffffffffffffffffff16634c77e5ba83604051602001808260001916600019168152602001807f73657276696365486973746f72794164647265737300000000000000000000008152506015019150506040516020818303038152906040526040518082805190602001908083835b6020831015156115f657805182526020820191506020810190506020830392506115d1565b6001836020036101000a03801982511681845116808217855250505050505090500191505060405180910390206040518263ffffffff167c0100000000000000000000000000000000000000000000000000000000028152600401808260001916600019168152602001915050602060405180830381600087803b15801561167d57600080fd5b505af1158015611691573d6000803e3d6000fd5b505050506040513d60208110156116a757600080fd5b8101908080519060200190929190505050905092915050565b8273ffffffffffffffffffffffffffffffffffffffff16635a2bf25a83604051602001808260001916600019168152602001807f70656e64696e674f776e65720000000000000000000000000000000000000000815250600c019150506040516020818303038152906040526040518082805190602001908083835b602083101515611761578051825260208201915060208101905060208303925061173c565b6001836020036101000a0380198251168184511680821785525050505050509050019150506040518091039020836040518363ffffffff167c01000000000000000000000000000000000000000000000000000000000281526004018083600019166000191681526020018273ffffffffffffffffffffffffffffffffffffffff1673ffffffffffffffffffffffffffffffffffffffff16815260200192505050600060405180830381600087803b15801561181c57600080fd5b505af1158015611830573d6000803e3d6000fd5b50505050505050565b60008273ffffffffffffffffffffffffffffffffffffffff1663025ec81a83604051602001808260001916600019168152602001807f6d616e7566616374757265724e616d65000000000000000000000000000000008152506010019150506040516020818303038152906040526040518082805190602001908083835b6020831015156118dc57805182526020820191506020810190506020830392506118b7565b6001836020036101000a03801982511681845116808217855250505050505090500191505060405180910390206040518263ffffffff167c0100000000000000000000000000000000000000000000000000000000028152600401808260001916600019168152602001915050602060405180830381600087803b15801561196357600080fd5b505af1158015611977573d6000803e3d6000fd5b505050506040513d602081101561198d57600080fd5b8101908080519060200190929190505050905092915050565b60008273ffffffffffffffffffffffffffffffffffffffff1663025ec81a83604051602001808260001916600019168152602001807f7472616e736665724b6579000000000000000000000000000000000000000000815250600b019150506040516020818303038152906040526040518082805190602001908083835b602083101515611a495780518252602082019150602081019050602083039250611a24565b6001836020036101000a03801982511681845116808217855250505050505090500191505060405180910390206040518263ffffffff167c0100000000000000000000000000000000000000000000000000000000028152600401808260001916600019168152602001915050602060405180830381600087803b158015611ad057600080fd5b505af1158015611ae4573d6000803e3d6000fd5b505050506040513d6020811015611afa57600080fd5b8101908080519060200190929190505050905092915050565b611b1d8787610cfe565b611b28878787610fd7565b611b33878786611b5d565b611b3e8787856108ab565b611b49878784611f74565b611b54878783611299565b50505050505050565b8273ffffffffffffffffffffffffffffffffffffffff166325cf512d83604051602001808260001916600019168152602001807f6c6963656e6365506c6174650000000000000000000000000000000000000000815250600c019150506040516020818303038152906040526040518082805190602001908083835b602083101515611bfe5780518252602082019150602081019050602083039250611bd9565b6001836020036101000a0380198251168184511680821785525050505050509050019150506040518091039020836040518363ffffffff167c0100000000000000000000000000000000000000000000000000000000028152600401808360001916600019168152602001826000191660001916815260200192505050600060405180830381600087803b158015611c9557600080fd5b505af1158015611ca9573d6000803e3d6000fd5b50505050505050565b60008273ffffffffffffffffffffffffffffffffffffffff16634c77e5ba83604051602001808260001916600019168152602001807f70656e64696e674f776e65720000000000000000000000000000000000000000815250600c019150506040516020818303038152906040526040518082805190602001908083835b602083101515611d555780518252602082019150602081019050602083039250611d30565b6001836020036101000a03801982511681845116808217855250505050505090500191505060405180910390206040518263ffffffff167c0100000000000000000000000000000000000000000000000000000000028152600401808260001916600019168152602001915050602060405180830381600087803b158015611ddc57600080fd5b505af1158015611df0573d6000803e3d6000fd5b505050506040513d6020811015611e0657600080fd5b8101908080519060200190929190505050905092915050565b8273ffffffffffffffffffffffffffffffffffffffff166325cf512d83604051602001808260001916600019168152602001807f7472616e736665724b6579000000000000000000000000000000000000000000815250600b019150506040516020818303038152906040526040518082805190602001908083835b602083101515611ec05780518252602082019150602081019050602083039250611e9b565b6001836020036101000a0380198251168184511680821785525050505050509050019150506040518091039020836040518363ffffffff167c0100000000000000000000000000000000000000000000000000000000028152600401808360001916600019168152602001826000191660001916815260200192505050600060405180830381600087803b158015611f5757600080fd5b505af1158015611f6b573d6000803e3d6000fd5b50505050505050565b600082604051602001808260001916600019168152602001807f73657276696365486973746f72794164647265737300000000000000000000008152506015019150506040516020818303038152906040526040518082805190602001908083835b602083101515611ffb5780518252602082019150602081019050602083039250611fd6565b6001836020036101000a038019825116818451168082178552505050505050905001915050604051809103902090508373ffffffffffffffffffffffffffffffffffffffff16635a2bf25a82846040518363ffffffff167c01000000000000000000000000000000000000000000000000000000000281526004018083600019166000191681526020018273ffffffffffffffffffffffffffffffffffffffff1673ffffffffffffffffffffffffffffffffffffffff16815260200192505050600060405180830381600087803b1580156120d557600080fd5b505af11580156120e9573d6000803e3d6000fd5b50505050505050505600a165627a7a7230582090b6fcc4724e4a6ba0e452e2816b887c411144d8eee6ac4081144138b15ec92c0029",
  "source": "pragma solidity ^0.4.23;\r\n\r\nimport \"./EternalStorage.sol\";\r\n\r\nlibrary VehicleRegistryStorage {\r\n\r\n    function storeVehicle (\r\n        address _storageAccount, \r\n        bytes32 _VIN, \r\n        bytes32 _manufacturerName,        \r\n        bytes32 _licencePlate, \r\n        address _owner, \r\n        address _serviceHistoryAddress, \r\n        uint256 _registered) \r\n        public {\r\n\r\n        setVin(_storageAccount, _VIN);\r\n        setManufacturerName(_storageAccount, _VIN, _manufacturerName);\r\n        setLicencePlate(_storageAccount, _VIN, _licencePlate);\r\n        setOwner(_storageAccount, _VIN, _owner);\r\n        setServiceHistoryAddress(_storageAccount, _VIN, _serviceHistoryAddress);\r\n        setRegistered(_storageAccount, _VIN, _registered);\r\n    }\r\n\r\n    function getVin(address _storageAccount, bytes32 _VIN) public view returns(bytes32) {\r\n\r\n        return EternalStorage(_storageAccount).getBytes32Value(keccak256(abi.encodePacked(_VIN, \"vin\")));\r\n    }\r\n\r\n    function getManufacturerName(address _storageAccount, bytes32 _VIN) public view returns(bytes32) {\r\n\r\n        return EternalStorage(_storageAccount).getBytes32Value(keccak256(abi.encodePacked(_VIN, \"manufacturerName\")));\r\n    }    \r\n\r\n    function getLicencePlate(address _storageAccount, bytes32 _VIN) public view returns(bytes32) {\r\n        return EternalStorage(_storageAccount).getBytes32Value(keccak256(abi.encodePacked(_VIN, \"licencePlate\")));\r\n    }\r\n\r\n    function getOwner(address _storageAccount, bytes32 _VIN) public view returns(address) {\r\n        return EternalStorage(_storageAccount).getAddressValue(keccak256(abi.encodePacked(_VIN, \"owner\")));\r\n    }\r\n\r\n    function getServiceHistoryAddress(address _storageAccount, bytes32 _VIN) public view returns(address) {\r\n        return EternalStorage(_storageAccount).getAddressValue(keccak256(abi.encodePacked(_VIN, \"serviceHistoryAddress\")));\r\n    }\r\n\r\n    function getRegistered(address _storageAccount, bytes32 _VIN) public view returns(uint256) {\r\n        return EternalStorage(_storageAccount).getUint256Value(keccak256(abi.encodePacked(_VIN, \"registered\")));\r\n    }\r\n\r\n    function getTransferKey(address _storageAccount, bytes32 _VIN) public view returns(bytes32) {\r\n        return EternalStorage(_storageAccount).getBytes32Value(keccak256(abi.encodePacked(_VIN, \"transferKey\")));\r\n    }    \r\n\r\n    function getPendingOwner(address _storageAccount, bytes32 _VIN) public view returns(address) {\r\n        return EternalStorage(_storageAccount).getAddressValue(keccak256(abi.encodePacked(_VIN, \"pendingOwner\")));\r\n    }        \r\n\r\n    function exists(address _storageAccount, bytes32 _VIN) public view returns(bool) {\r\n        return EternalStorage(_storageAccount).getAddressValue(keccak256(abi.encodePacked(_VIN, \"owner\"))) > 0;\r\n    } \r\n\r\n    function setVin(address _storageAccount, bytes32 _VIN) public {\r\n        return EternalStorage(_storageAccount).setBytes32Value(keccak256(abi.encodePacked(_VIN, \"vin\")), _VIN);\r\n    }  \r\n\r\n    function setManufacturerName(address _storageAccount, bytes32 _VIN, bytes32 _manufacturerName) public {\r\n        return EternalStorage(_storageAccount).setBytes32Value(keccak256(abi.encodePacked(_VIN, \"manufacturerName\")), _manufacturerName);\r\n    }        \r\n\r\n    function setLicencePlate(address _storageAccount, bytes32 _VIN, bytes32 _licencePlate) public {\r\n        return EternalStorage(_storageAccount).setBytes32Value(keccak256(abi.encodePacked(_VIN, \"licencePlate\")), _licencePlate);\r\n    }\r\n\r\n    function setOwner(address _storageAccount, bytes32 _VIN, address _owner) public {\r\n        return EternalStorage(_storageAccount).setAddressValue(keccak256(abi.encodePacked(_VIN, \"owner\")), _owner);\r\n    }\r\n\r\n    function setServiceHistoryAddress(address _storageAccount, bytes32 _VIN, address _serviceHistoryAddress) public {\r\n        bytes32 key = keccak256(abi.encodePacked(_VIN, \"serviceHistoryAddress\"));\r\n        return EternalStorage(_storageAccount).setAddressValue(key, _serviceHistoryAddress);\r\n    }\r\n\r\n    function setRegistered(address _storageAccount, bytes32 _VIN, uint256 _registered) public {\r\n        return EternalStorage(_storageAccount).setUint256Value(keccak256(abi.encodePacked(_VIN, \"registered\")), _registered);\r\n    }\r\n\r\n    function setPendingOwner(address _storageAccount, bytes32 _VIN, address _pendingOwner) public {\r\n        return EternalStorage(_storageAccount).setAddressValue(keccak256(abi.encodePacked(_VIN, \"pendingOwner\")), _pendingOwner);\r\n    }   \r\n\r\n    function setTransferKey(address _storageAccount, bytes32 _VIN, bytes32 _keyHash) public {\r\n        return EternalStorage(_storageAccount).setBytes32Value(keccak256(abi.encodePacked(_VIN, \"transferKey\")), _keyHash);\r\n    }    \r\n\r\n}",
  "sourcePath": "C:\\dev\\repos\\VehicleMaintenanceRegistry\\src\\VMR\\contracts\\VehicleRegistryStorage.sol",
  "compiler": {
    "name": "solc",
    "version": "0.4.24+commit.e67f0147.Emscripten.clang"
  },
  "schemaVersion": "2.0.1",
  "updatedAt": "2018-07-06T16:35:45.641Z"
}