{
  "contractName": "VehicleRegistryStorage",
  "abi": [
    {
      "constant": false,
      "inputs": [
        {
          "name": "_storageAccount",
          "type": "address"
        },
        {
          "name": "_VIN",
          "type": "bytes32"
        },
        {
          "name": "_manufacturerName",
          "type": "bytes32"
        },
        {
          "name": "_licencePlate",
          "type": "bytes32"
        },
        {
          "name": "_owner",
          "type": "address"
        },
        {
          "name": "_maintenanceLogAddress",
          "type": "address"
        },
        {
          "name": "_registered",
          "type": "uint256"
        }
      ],
      "name": "storeVehicle",
      "outputs": [],
      "payable": false,
      "stateMutability": "nonpayable",
      "type": "function"
    },
    {
      "constant": true,
      "inputs": [
        {
          "name": "_storageAccount",
          "type": "address"
        },
        {
          "name": "_VIN",
          "type": "bytes32"
        }
      ],
      "name": "getVin",
      "outputs": [
        {
          "name": "",
          "type": "bytes32"
        }
      ],
      "payable": false,
      "stateMutability": "view",
      "type": "function"
    },
    {
      "constant": true,
      "inputs": [
        {
          "name": "_storageAccount",
          "type": "address"
        },
        {
          "name": "_VIN",
          "type": "bytes32"
        }
      ],
      "name": "getManufacturerName",
      "outputs": [
        {
          "name": "",
          "type": "bytes32"
        }
      ],
      "payable": false,
      "stateMutability": "view",
      "type": "function"
    },
    {
      "constant": true,
      "inputs": [
        {
          "name": "_storageAccount",
          "type": "address"
        },
        {
          "name": "_VIN",
          "type": "bytes32"
        }
      ],
      "name": "getLicencePlate",
      "outputs": [
        {
          "name": "",
          "type": "bytes32"
        }
      ],
      "payable": false,
      "stateMutability": "view",
      "type": "function"
    },
    {
      "constant": true,
      "inputs": [
        {
          "name": "_storageAccount",
          "type": "address"
        },
        {
          "name": "_VIN",
          "type": "bytes32"
        }
      ],
      "name": "getOwner",
      "outputs": [
        {
          "name": "",
          "type": "address"
        }
      ],
      "payable": false,
      "stateMutability": "view",
      "type": "function"
    },
    {
      "constant": true,
      "inputs": [
        {
          "name": "_storageAccount",
          "type": "address"
        },
        {
          "name": "_VIN",
          "type": "bytes32"
        }
      ],
      "name": "getMaintenanceLogAddress",
      "outputs": [
        {
          "name": "",
          "type": "address"
        }
      ],
      "payable": false,
      "stateMutability": "view",
      "type": "function"
    },
    {
      "constant": true,
      "inputs": [
        {
          "name": "_storageAccount",
          "type": "address"
        },
        {
          "name": "_VIN",
          "type": "bytes32"
        }
      ],
      "name": "getRegistered",
      "outputs": [
        {
          "name": "",
          "type": "uint256"
        }
      ],
      "payable": false,
      "stateMutability": "view",
      "type": "function"
    },
    {
      "constant": true,
      "inputs": [
        {
          "name": "_storageAccount",
          "type": "address"
        },
        {
          "name": "_VIN",
          "type": "bytes32"
        }
      ],
      "name": "getTransferKey",
      "outputs": [
        {
          "name": "",
          "type": "bytes32"
        }
      ],
      "payable": false,
      "stateMutability": "view",
      "type": "function"
    },
    {
      "constant": true,
      "inputs": [
        {
          "name": "_storageAccount",
          "type": "address"
        },
        {
          "name": "_VIN",
          "type": "bytes32"
        }
      ],
      "name": "getPendingOwner",
      "outputs": [
        {
          "name": "",
          "type": "address"
        }
      ],
      "payable": false,
      "stateMutability": "view",
      "type": "function"
    },
    {
      "constant": true,
      "inputs": [
        {
          "name": "_storageAccount",
          "type": "address"
        },
        {
          "name": "_VIN",
          "type": "bytes32"
        }
      ],
      "name": "exists",
      "outputs": [
        {
          "name": "",
          "type": "bool"
        }
      ],
      "payable": false,
      "stateMutability": "view",
      "type": "function"
    },
    {
      "constant": false,
      "inputs": [
        {
          "name": "_storageAccount",
          "type": "address"
        },
        {
          "name": "_VIN",
          "type": "bytes32"
        }
      ],
      "name": "setVin",
      "outputs": [],
      "payable": false,
      "stateMutability": "nonpayable",
      "type": "function"
    },
    {
      "constant": false,
      "inputs": [
        {
          "name": "_storageAccount",
          "type": "address"
        },
        {
          "name": "_VIN",
          "type": "bytes32"
        },
        {
          "name": "_manufacturerName",
          "type": "bytes32"
        }
      ],
      "name": "setManufacturerName",
      "outputs": [],
      "payable": false,
      "stateMutability": "nonpayable",
      "type": "function"
    },
    {
      "constant": false,
      "inputs": [
        {
          "name": "_storageAccount",
          "type": "address"
        },
        {
          "name": "_VIN",
          "type": "bytes32"
        },
        {
          "name": "_licencePlate",
          "type": "bytes32"
        }
      ],
      "name": "setLicencePlate",
      "outputs": [],
      "payable": false,
      "stateMutability": "nonpayable",
      "type": "function"
    },
    {
      "constant": false,
      "inputs": [
        {
          "name": "_storageAccount",
          "type": "address"
        },
        {
          "name": "_VIN",
          "type": "bytes32"
        },
        {
          "name": "_owner",
          "type": "address"
        }
      ],
      "name": "setOwner",
      "outputs": [],
      "payable": false,
      "stateMutability": "nonpayable",
      "type": "function"
    },
    {
      "constant": false,
      "inputs": [
        {
          "name": "_storageAccount",
          "type": "address"
        },
        {
          "name": "_VIN",
          "type": "bytes32"
        },
        {
          "name": "_maintenanceLogAddress",
          "type": "address"
        }
      ],
      "name": "setMaintenanceLogAddress",
      "outputs": [],
      "payable": false,
      "stateMutability": "nonpayable",
      "type": "function"
    },
    {
      "constant": false,
      "inputs": [
        {
          "name": "_storageAccount",
          "type": "address"
        },
        {
          "name": "_VIN",
          "type": "bytes32"
        },
        {
          "name": "_registered",
          "type": "uint256"
        }
      ],
      "name": "setRegistered",
      "outputs": [],
      "payable": false,
      "stateMutability": "nonpayable",
      "type": "function"
    },
    {
      "constant": false,
      "inputs": [
        {
          "name": "_storageAccount",
          "type": "address"
        },
        {
          "name": "_VIN",
          "type": "bytes32"
        },
        {
          "name": "_pendingOwner",
          "type": "address"
        }
      ],
      "name": "setPendingOwner",
      "outputs": [],
      "payable": false,
      "stateMutability": "nonpayable",
      "type": "function"
    },
    {
      "constant": false,
      "inputs": [
        {
          "name": "_storageAccount",
          "type": "address"
        },
        {
          "name": "_VIN",
          "type": "bytes32"
        },
        {
          "name": "_keyHash",
          "type": "bytes32"
        }
      ],
      "name": "setTransferKey",
      "outputs": [],
      "payable": false,
      "stateMutability": "nonpayable",
      "type": "function"
    }
  ],
  "bytecode": "0x61211f610030600b82828239805160001a6073146000811461002057610022565bfe5b5030600052607381538281f3007300000000000000000000000000000000000000003014608060405260043610610113576000357c0100000000000000000000000000000000000000000000000000000000900463ffffffff1680630f1ed0c61461011857806310e80c2b14610189578063171321d5146101e95780632e0ca6c214610249578063451205111461029a57806346154cd2146102f65780634dc024f61461036757806369c5b2b8146103c65780637231f1071461044a57806372c72a7d146104a55780638b8fa92f146104fd57806399d54f401461056e5780639f7d4a2f146105ce578063a729e9661461062e578063b2ec936f146106e5578063bb54406014610744578063d93b8c14146107c8578063f58354d414610827575b600080fd5b81801561012457600080fd5b50610187600480360381019080803573ffffffffffffffffffffffffffffffffffffffff1690602001909291908035600019169060200190929190803573ffffffffffffffffffffffffffffffffffffffff1690602001909291905050506108ab565b005b6101cb600480360381019080803573ffffffffffffffffffffffffffffffffffffffff1690602001909291908035600019169060200190929190505050610a24565b60405180826000191660001916815260200191505060405180910390f35b61022b600480360381019080803573ffffffffffffffffffffffffffffffffffffffff1690602001909291908035600019169060200190929190505050610b91565b60405180826000191660001916815260200191505060405180910390f35b81801561025557600080fd5b50610298600480360381019080803573ffffffffffffffffffffffffffffffffffffffff1690602001909291908035600019169060200190929190505050610cfe565b005b6102dc600480360381019080803573ffffffffffffffffffffffffffffffffffffffff1690602001909291908035600019169060200190929190505050610e52565b604051808215151515815260200191505060405180910390f35b81801561030257600080fd5b50610365600480360381019080803573ffffffffffffffffffffffffffffffffffffffff1690602001909291908035600019169060200190929190803573ffffffffffffffffffffffffffffffffffffffff169060200190929190505050610fd7565b005b81801561037357600080fd5b506103c4600480360381019080803573ffffffffffffffffffffffffffffffffffffffff16906020019092919080356000191690602001909291908035600019169060200190929190505050611156565b005b610408600480360381019080803573ffffffffffffffffffffffffffffffffffffffff16906020019092919080356000191690602001909291905050506112ab565b604051808273ffffffffffffffffffffffffffffffffffffffff1673ffffffffffffffffffffffffffffffffffffffff16815260200191505060405180910390f35b81801561045657600080fd5b506104a3600480360381019080803573ffffffffffffffffffffffffffffffffffffffff169060200190929190803560001916906020019092919080359060200190929190505050611418565b005b6104e7600480360381019080803573ffffffffffffffffffffffffffffffffffffffff1690602001909291908035600019169060200190929190505050611565565b6040518082815260200191505060405180910390f35b81801561050957600080fd5b5061056c600480360381019080803573ffffffffffffffffffffffffffffffffffffffff1690602001909291908035600019169060200190929190803573ffffffffffffffffffffffffffffffffffffffff1690602001909291905050506116d2565b005b6105b0600480360381019080803573ffffffffffffffffffffffffffffffffffffffff169060200190929190803560001916906020019092919050505061184b565b60405180826000191660001916815260200191505060405180910390f35b610610600480360381019080803573ffffffffffffffffffffffffffffffffffffffff16906020019092919080356000191690602001909291905050506119b8565b60405180826000191660001916815260200191505060405180910390f35b81801561063a57600080fd5b506106e3600480360381019080803573ffffffffffffffffffffffffffffffffffffffff169060200190929190803560001916906020019092919080356000191690602001909291908035600019169060200190929190803573ffffffffffffffffffffffffffffffffffffffff169060200190929190803573ffffffffffffffffffffffffffffffffffffffff16906020019092919080359060200190929190505050611b25565b005b8180156106f157600080fd5b50610742600480360381019080803573ffffffffffffffffffffffffffffffffffffffff16906020019092919080356000191690602001909291908035600019169060200190929190505050611b6f565b005b610786600480360381019080803573ffffffffffffffffffffffffffffffffffffffff1690602001909291908035600019169060200190929190505050611cc4565b604051808273ffffffffffffffffffffffffffffffffffffffff1673ffffffffffffffffffffffffffffffffffffffff16815260200191505060405180910390f35b8180156107d457600080fd5b50610825600480360381019080803573ffffffffffffffffffffffffffffffffffffffff16906020019092919080356000191690602001909291908035600019169060200190929190505050611e31565b005b610869600480360381019080803573ffffffffffffffffffffffffffffffffffffffff1690602001909291908035600019169060200190929190505050611f86565b604051808273ffffffffffffffffffffffffffffffffffffffff1673ffffffffffffffffffffffffffffffffffffffff16815260200191505060405180910390f35b8273ffffffffffffffffffffffffffffffffffffffff16635a2bf25a83604051602001808260001916600019168152602001807f6f776e65720000000000000000000000000000000000000000000000000000008152506005019150506040516020818303038152906040526040518082805190602001908083835b60208310151561094c5780518252602082019150602081019050602083039250610927565b6001836020036101000a0380198251168184511680821785525050505050509050019150506040518091039020836040518363ffffffff167c01000000000000000000000000000000000000000000000000000000000281526004018083600019166000191681526020018273ffffffffffffffffffffffffffffffffffffffff1673ffffffffffffffffffffffffffffffffffffffff16815260200192505050600060405180830381600087803b158015610a0757600080fd5b505af1158015610a1b573d6000803e3d6000fd5b50505050505050565b60008273ffffffffffffffffffffffffffffffffffffffff1663025ec81a83604051602001808260001916600019168152602001807f76696e00000000000000000000000000000000000000000000000000000000008152506003019150506040516020818303038152906040526040518082805190602001908083835b602083101515610ac75780518252602082019150602081019050602083039250610aa2565b6001836020036101000a03801982511681845116808217855250505050505090500191505060405180910390206040518263ffffffff167c0100000000000000000000000000000000000000000000000000000000028152600401808260001916600019168152602001915050602060405180830381600087803b158015610b4e57600080fd5b505af1158015610b62573d6000803e3d6000fd5b505050506040513d6020811015610b7857600080fd5b8101908080519060200190929190505050905092915050565b60008273ffffffffffffffffffffffffffffffffffffffff1663025ec81a83604051602001808260001916600019168152602001807f6c6963656e6365506c6174650000000000000000000000000000000000000000815250600c019150506040516020818303038152906040526040518082805190602001908083835b602083101515610c345780518252602082019150602081019050602083039250610c0f565b6001836020036101000a03801982511681845116808217855250505050505090500191505060405180910390206040518263ffffffff167c0100000000000000000000000000000000000000000000000000000000028152600401808260001916600019168152602001915050602060405180830381600087803b158015610cbb57600080fd5b505af1158015610ccf573d6000803e3d6000fd5b505050506040513d6020811015610ce557600080fd5b8101908080519060200190929190505050905092915050565b8173ffffffffffffffffffffffffffffffffffffffff166325cf512d82604051602001808260001916600019168152602001807f76696e00000000000000000000000000000000000000000000000000000000008152506003019150506040516020818303038152906040526040518082805190602001908083835b602083101515610d9f5780518252602082019150602081019050602083039250610d7a565b6001836020036101000a0380198251168184511680821785525050505050509050019150506040518091039020836040518363ffffffff167c0100000000000000000000000000000000000000000000000000000000028152600401808360001916600019168152602001826000191660001916815260200192505050600060405180830381600087803b158015610e3657600080fd5b505af1158015610e4a573d6000803e3d6000fd5b505050505050565b6000808373ffffffffffffffffffffffffffffffffffffffff16634c77e5ba84604051602001808260001916600019168152602001807f6f776e65720000000000000000000000000000000000000000000000000000008152506005019150506040516020818303038152906040526040518082805190602001908083835b602083101515610ef65780518252602082019150602081019050602083039250610ed1565b6001836020036101000a03801982511681845116808217855250505050505090500191505060405180910390206040518263ffffffff167c0100000000000000000000000000000000000000000000000000000000028152600401808260001916600019168152602001915050602060405180830381600087803b158015610f7d57600080fd5b505af1158015610f91573d6000803e3d6000fd5b505050506040513d6020811015610fa757600080fd5b810190808051906020019092919050505073ffffffffffffffffffffffffffffffffffffffff1611905092915050565b600082604051602001808260001916600019168152602001807f6d61696e74656e616e63654c6f674164647265737300000000000000000000008152506015019150506040516020818303038152906040526040518082805190602001908083835b60208310151561105e5780518252602082019150602081019050602083039250611039565b6001836020036101000a038019825116818451168082178552505050505050905001915050604051809103902090508373ffffffffffffffffffffffffffffffffffffffff16635a2bf25a82846040518363ffffffff167c01000000000000000000000000000000000000000000000000000000000281526004018083600019166000191681526020018273ffffffffffffffffffffffffffffffffffffffff1673ffffffffffffffffffffffffffffffffffffffff16815260200192505050600060405180830381600087803b15801561113857600080fd5b505af115801561114c573d6000803e3d6000fd5b5050505050505050565b8273ffffffffffffffffffffffffffffffffffffffff166325cf512d83604051602001808260001916600019168152602001807f6d616e7566616374757265724e616d65000000000000000000000000000000008152506010019150506040516020818303038152906040526040518082805190602001908083835b6020831015156111f757805182526020820191506020810190506020830392506111d2565b6001836020036101000a0380198251168184511680821785525050505050509050019150506040518091039020836040518363ffffffff167c0100000000000000000000000000000000000000000000000000000000028152600401808360001916600019168152602001826000191660001916815260200192505050600060405180830381600087803b15801561128e57600080fd5b505af11580156112a2573d6000803e3d6000fd5b50505050505050565b60008273ffffffffffffffffffffffffffffffffffffffff16634c77e5ba83604051602001808260001916600019168152602001807f6f776e65720000000000000000000000000000000000000000000000000000008152506005019150506040516020818303038152906040526040518082805190602001908083835b60208310151561134e5780518252602082019150602081019050602083039250611329565b6001836020036101000a03801982511681845116808217855250505050505090500191505060405180910390206040518263ffffffff167c0100000000000000000000000000000000000000000000000000000000028152600401808260001916600019168152602001915050602060405180830381600087803b1580156113d557600080fd5b505af11580156113e9573d6000803e3d6000fd5b505050506040513d60208110156113ff57600080fd5b8101908080519060200190929190505050905092915050565b8273ffffffffffffffffffffffffffffffffffffffff1663dde5b9d583604051602001808260001916600019168152602001807f7265676973746572656400000000000000000000000000000000000000000000815250600a019150506040516020818303038152906040526040518082805190602001908083835b6020831015156114b95780518252602082019150602081019050602083039250611494565b6001836020036101000a0380198251168184511680821785525050505050509050019150506040518091039020836040518363ffffffff167c010000000000000000000000000000000000000000000000000000000002815260040180836000191660001916815260200182815260200192505050600060405180830381600087803b15801561154857600080fd5b505af115801561155c573d6000803e3d6000fd5b50505050505050565b60008273ffffffffffffffffffffffffffffffffffffffff1663ac09455383604051602001808260001916600019168152602001807f7265676973746572656400000000000000000000000000000000000000000000815250600a019150506040516020818303038152906040526040518082805190602001908083835b60208310151561160857805182526020820191506020810190506020830392506115e3565b6001836020036101000a03801982511681845116808217855250505050505090500191505060405180910390206040518263ffffffff167c0100000000000000000000000000000000000000000000000000000000028152600401808260001916600019168152602001915050602060405180830381600087803b15801561168f57600080fd5b505af11580156116a3573d6000803e3d6000fd5b505050506040513d60208110156116b957600080fd5b8101908080519060200190929190505050905092915050565b8273ffffffffffffffffffffffffffffffffffffffff16635a2bf25a83604051602001808260001916600019168152602001807f70656e64696e674f776e65720000000000000000000000000000000000000000815250600c019150506040516020818303038152906040526040518082805190602001908083835b602083101515611773578051825260208201915060208101905060208303925061174e565b6001836020036101000a0380198251168184511680821785525050505050509050019150506040518091039020836040518363ffffffff167c01000000000000000000000000000000000000000000000000000000000281526004018083600019166000191681526020018273ffffffffffffffffffffffffffffffffffffffff1673ffffffffffffffffffffffffffffffffffffffff16815260200192505050600060405180830381600087803b15801561182e57600080fd5b505af1158015611842573d6000803e3d6000fd5b50505050505050565b60008273ffffffffffffffffffffffffffffffffffffffff1663025ec81a83604051602001808260001916600019168152602001807f6d616e7566616374757265724e616d65000000000000000000000000000000008152506010019150506040516020818303038152906040526040518082805190602001908083835b6020831015156118ee57805182526020820191506020810190506020830392506118c9565b6001836020036101000a03801982511681845116808217855250505050505090500191505060405180910390206040518263ffffffff167c0100000000000000000000000000000000000000000000000000000000028152600401808260001916600019168152602001915050602060405180830381600087803b15801561197557600080fd5b505af1158015611989573d6000803e3d6000fd5b505050506040513d602081101561199f57600080fd5b8101908080519060200190929190505050905092915050565b60008273ffffffffffffffffffffffffffffffffffffffff1663025ec81a83604051602001808260001916600019168152602001807f7472616e736665724b6579000000000000000000000000000000000000000000815250600b019150506040516020818303038152906040526040518082805190602001908083835b602083101515611a5b5780518252602082019150602081019050602083039250611a36565b6001836020036101000a03801982511681845116808217855250505050505090500191505060405180910390206040518263ffffffff167c0100000000000000000000000000000000000000000000000000000000028152600401808260001916600019168152602001915050602060405180830381600087803b158015611ae257600080fd5b505af1158015611af6573d6000803e3d6000fd5b505050506040513d6020811015611b0c57600080fd5b8101908080519060200190929190505050905092915050565b611b2f8787610cfe565b611b3a878787611156565b611b45878786611b6f565b611b508787856108ab565b611b5b878784610fd7565b611b66878783611418565b50505050505050565b8273ffffffffffffffffffffffffffffffffffffffff166325cf512d83604051602001808260001916600019168152602001807f6c6963656e6365506c6174650000000000000000000000000000000000000000815250600c019150506040516020818303038152906040526040518082805190602001908083835b602083101515611c105780518252602082019150602081019050602083039250611beb565b6001836020036101000a0380198251168184511680821785525050505050509050019150506040518091039020836040518363ffffffff167c0100000000000000000000000000000000000000000000000000000000028152600401808360001916600019168152602001826000191660001916815260200192505050600060405180830381600087803b158015611ca757600080fd5b505af1158015611cbb573d6000803e3d6000fd5b50505050505050565b60008273ffffffffffffffffffffffffffffffffffffffff16634c77e5ba83604051602001808260001916600019168152602001807f70656e64696e674f776e65720000000000000000000000000000000000000000815250600c019150506040516020818303038152906040526040518082805190602001908083835b602083101515611d675780518252602082019150602081019050602083039250611d42565b6001836020036101000a03801982511681845116808217855250505050505090500191505060405180910390206040518263ffffffff167c0100000000000000000000000000000000000000000000000000000000028152600401808260001916600019168152602001915050602060405180830381600087803b158015611dee57600080fd5b505af1158015611e02573d6000803e3d6000fd5b505050506040513d6020811015611e1857600080fd5b8101908080519060200190929190505050905092915050565b8273ffffffffffffffffffffffffffffffffffffffff166325cf512d83604051602001808260001916600019168152602001807f7472616e736665724b6579000000000000000000000000000000000000000000815250600b019150506040516020818303038152906040526040518082805190602001908083835b602083101515611ed25780518252602082019150602081019050602083039250611ead565b6001836020036101000a0380198251168184511680821785525050505050509050019150506040518091039020836040518363ffffffff167c0100000000000000000000000000000000000000000000000000000000028152600401808360001916600019168152602001826000191660001916815260200192505050600060405180830381600087803b158015611f6957600080fd5b505af1158015611f7d573d6000803e3d6000fd5b50505050505050565b60008273ffffffffffffffffffffffffffffffffffffffff16634c77e5ba83604051602001808260001916600019168152602001807f6d61696e74656e616e63654c6f674164647265737300000000000000000000008152506015019150506040516020818303038152906040526040518082805190602001908083835b6020831015156120295780518252602082019150602081019050602083039250612004565b6001836020036101000a03801982511681845116808217855250505050505090500191505060405180910390206040518263ffffffff167c0100000000000000000000000000000000000000000000000000000000028152600401808260001916600019168152602001915050602060405180830381600087803b1580156120b057600080fd5b505af11580156120c4573d6000803e3d6000fd5b505050506040513d60208110156120da57600080fd5b81019080805190602001909291905050509050929150505600a165627a7a72305820e83592617fc40187dd4f20677003b22c4803ac9760f058ab0366dc902b4613040029",
  "source": "pragma solidity ^0.4.23;\r\n\r\nimport \"./EternalStorage.sol\";\r\n\r\nlibrary VehicleRegistryStorage {\r\n\r\n    function storeVehicle (\r\n        address _storageAccount, \r\n        bytes32 _VIN, \r\n        bytes32 _manufacturerName,        \r\n        bytes32 _licencePlate, \r\n        address _owner, \r\n        address _maintenanceLogAddress, \r\n        uint256 _registered) \r\n        public {\r\n\r\n        setVin(_storageAccount, _VIN);\r\n        setManufacturerName(_storageAccount, _VIN, _manufacturerName);\r\n        setLicencePlate(_storageAccount, _VIN, _licencePlate);\r\n        setOwner(_storageAccount, _VIN, _owner);\r\n        setMaintenanceLogAddress(_storageAccount, _VIN, _maintenanceLogAddress);\r\n        setRegistered(_storageAccount, _VIN, _registered);\r\n    }\r\n\r\n    function getVin(address _storageAccount, bytes32 _VIN) public view returns(bytes32) {\r\n\r\n        return EternalStorage(_storageAccount).getBytes32Value(keccak256(abi.encodePacked(_VIN, \"vin\")));\r\n    }\r\n\r\n    function getManufacturerName(address _storageAccount, bytes32 _VIN) public view returns(bytes32) {\r\n\r\n        return EternalStorage(_storageAccount).getBytes32Value(keccak256(abi.encodePacked(_VIN, \"manufacturerName\")));\r\n    }    \r\n\r\n    function getLicencePlate(address _storageAccount, bytes32 _VIN) public view returns(bytes32) {\r\n        return EternalStorage(_storageAccount).getBytes32Value(keccak256(abi.encodePacked(_VIN, \"licencePlate\")));\r\n    }\r\n\r\n    function getOwner(address _storageAccount, bytes32 _VIN) public view returns(address) {\r\n        return EternalStorage(_storageAccount).getAddressValue(keccak256(abi.encodePacked(_VIN, \"owner\")));\r\n    }\r\n\r\n    function getMaintenanceLogAddress(address _storageAccount, bytes32 _VIN) public view returns(address) {\r\n        return EternalStorage(_storageAccount).getAddressValue(keccak256(abi.encodePacked(_VIN, \"maintenanceLogAddress\")));\r\n    }\r\n\r\n    function getRegistered(address _storageAccount, bytes32 _VIN) public view returns(uint256) {\r\n        return EternalStorage(_storageAccount).getUint256Value(keccak256(abi.encodePacked(_VIN, \"registered\")));\r\n    }\r\n\r\n    function getTransferKey(address _storageAccount, bytes32 _VIN) public view returns(bytes32) {\r\n        return EternalStorage(_storageAccount).getBytes32Value(keccak256(abi.encodePacked(_VIN, \"transferKey\")));\r\n    }    \r\n\r\n    function getPendingOwner(address _storageAccount, bytes32 _VIN) public view returns(address) {\r\n        return EternalStorage(_storageAccount).getAddressValue(keccak256(abi.encodePacked(_VIN, \"pendingOwner\")));\r\n    }        \r\n\r\n    function exists(address _storageAccount, bytes32 _VIN) public view returns(bool) {\r\n        return EternalStorage(_storageAccount).getAddressValue(keccak256(abi.encodePacked(_VIN, \"owner\"))) > 0;\r\n    } \r\n\r\n    function setVin(address _storageAccount, bytes32 _VIN) public {\r\n        return EternalStorage(_storageAccount).setBytes32Value(keccak256(abi.encodePacked(_VIN, \"vin\")), _VIN);\r\n    }  \r\n\r\n    function setManufacturerName(address _storageAccount, bytes32 _VIN, bytes32 _manufacturerName) public {\r\n        return EternalStorage(_storageAccount).setBytes32Value(keccak256(abi.encodePacked(_VIN, \"manufacturerName\")), _manufacturerName);\r\n    }        \r\n\r\n    function setLicencePlate(address _storageAccount, bytes32 _VIN, bytes32 _licencePlate) public {\r\n        return EternalStorage(_storageAccount).setBytes32Value(keccak256(abi.encodePacked(_VIN, \"licencePlate\")), _licencePlate);\r\n    }\r\n\r\n    function setOwner(address _storageAccount, bytes32 _VIN, address _owner) public {\r\n        return EternalStorage(_storageAccount).setAddressValue(keccak256(abi.encodePacked(_VIN, \"owner\")), _owner);\r\n    }\r\n\r\n    function setMaintenanceLogAddress(address _storageAccount, bytes32 _VIN, address _maintenanceLogAddress) public {\r\n        bytes32 key = keccak256(abi.encodePacked(_VIN, \"maintenanceLogAddress\"));\r\n        return EternalStorage(_storageAccount).setAddressValue(key, _maintenanceLogAddress);\r\n    }\r\n\r\n    function setRegistered(address _storageAccount, bytes32 _VIN, uint256 _registered) public {\r\n        return EternalStorage(_storageAccount).setUint256Value(keccak256(abi.encodePacked(_VIN, \"registered\")), _registered);\r\n    }\r\n\r\n    function setPendingOwner(address _storageAccount, bytes32 _VIN, address _pendingOwner) public {\r\n        return EternalStorage(_storageAccount).setAddressValue(keccak256(abi.encodePacked(_VIN, \"pendingOwner\")), _pendingOwner);\r\n    }   \r\n\r\n    function setTransferKey(address _storageAccount, bytes32 _VIN, bytes32 _keyHash) public {\r\n        return EternalStorage(_storageAccount).setBytes32Value(keccak256(abi.encodePacked(_VIN, \"transferKey\")), _keyHash);\r\n    }    \r\n\r\n}",
  "sourcePath": "C:\\dev\\repos\\VehicleMaintenanceRegistry\\src\\VMR\\contracts\\VehicleRegistryStorage.sol",
  "compiler": {
    "name": "solc",
    "version": "0.4.24+commit.e67f0147.Emscripten.clang"
  },
  "schemaVersion": "2.0.1",
  "updatedAt": "2018-07-11T10:40:12.553Z"
}