{
  "contractName": "VehicleRegistryPriceChecker",
  "abi": [
    {
      "constant": true,
      "inputs": [],
      "name": "RegistrationPriceEth",
      "outputs": [
        {
          "name": "",
          "type": "uint256"
        }
      ],
      "payable": false,
      "stateMutability": "view",
      "type": "function"
    },
    {
      "inputs": [],
      "payable": false,
      "stateMutability": "nonpayable",
      "type": "constructor"
    },
    {
      "anonymous": false,
      "inputs": [
        {
          "indexed": false,
          "name": "_description",
          "type": "string"
        }
      ],
      "name": "newOraclizeQuery",
      "type": "event"
    },
    {
      "anonymous": false,
      "inputs": [
        {
          "indexed": false,
          "name": "price",
          "type": "string"
        }
      ],
      "name": "newRegistrationPrice",
      "type": "event"
    },
    {
      "constant": false,
      "inputs": [
        {
          "name": "myid",
          "type": "bytes32"
        },
        {
          "name": "result",
          "type": "string"
        }
      ],
      "name": "__callback",
      "outputs": [],
      "payable": false,
      "stateMutability": "nonpayable",
      "type": "function"
    },
    {
      "constant": false,
      "inputs": [
        {
          "name": "myid",
          "type": "bytes32"
        },
        {
          "name": "result",
          "type": "string"
        },
        {
          "name": "proof",
          "type": "bytes"
        }
      ],
      "name": "__callback",
      "outputs": [],
      "payable": false,
      "stateMutability": "nonpayable",
      "type": "function"
    },
    {
      "constant": false,
      "inputs": [],
      "name": "updatePrices",
      "outputs": [],
      "payable": true,
      "stateMutability": "payable",
      "type": "function"
    }
  ],
  "bytecode": "0x60806040523480156200001157600080fd5b506200007460017f01000000000000000000000000000000000000000000000000000000000000000260107f0100000000000000000000000000000000000000000000000000000000000000021762000093640100000000026401000000009004565b6200008d62000447640100000000026401000000009004565b62001650565b60008060009054906101000a900473ffffffffffffffffffffffffffffffffffffffff1673ffffffffffffffffffffffffffffffffffffffff1614806200011457506000620001126000809054906101000a900473ffffffffffffffffffffffffffffffffffffffff1662000621640100000000026401000000009004565b145b1562000137576200013560006200062c640100000000026401000000009004565b505b6000809054906101000a900473ffffffffffffffffffffffffffffffffffffffff1673ffffffffffffffffffffffffffffffffffffffff166338cc48316040518163ffffffff167c0100000000000000000000000000000000000000000000000000000000028152600401602060405180830381600087803b158015620001bd57600080fd5b505af1158015620001d2573d6000803e3d6000fd5b505050506040513d6020811015620001e957600080fd5b810190808051906020019092919050505073ffffffffffffffffffffffffffffffffffffffff16600160009054906101000a900473ffffffffffffffffffffffffffffffffffffffff1673ffffffffffffffffffffffffffffffffffffffff1614151562000355576000809054906101000a900473ffffffffffffffffffffffffffffffffffffffff1673ffffffffffffffffffffffffffffffffffffffff166338cc48316040518163ffffffff167c0100000000000000000000000000000000000000000000000000000000028152600401602060405180830381600087803b158015620002d757600080fd5b505af1158015620002ec573d6000803e3d6000fd5b505050506040513d60208110156200030357600080fd5b8101908080519060200190929190505050600160006101000a81548173ffffffffffffffffffffffffffffffffffffffff021916908373ffffffffffffffffffffffffffffffffffffffff1602179055505b600160009054906101000a900473ffffffffffffffffffffffffffffffffffffffff1673ffffffffffffffffffffffffffffffffffffffff1663688dcfd7826040518263ffffffff167c010000000000000000000000000000000000000000000000000000000002815260040180827effffffffffffffffffffffffffffffffffffffffffffffffffffffffffffff19167effffffffffffffffffffffffffffffffffffffffffffffffffffffffffffff19168152602001915050600060405180830381600087803b1580156200042b57600080fd5b505af115801562000440573d6000803e3d6000fd5b5050505050565b3073ffffffffffffffffffffffffffffffffffffffff1631620004ae6040805190810160405280600381526020017f55524c00000000000000000000000000000000000000000000000000000000008152506200064e640100000000026401000000009004565b1115620004bb576200061f565b7f46cb989ef9cef13e930e3b7f286225a086e716a90d63e0b7da85d310a9db0c9a6040518080602001828103825260308152602001807f4f7261636c697a65207175657279207761732073656e74202d2077616974696e81526020017f6720666f722074686520616e737765720000000000000000000000000000000081525060400191505060405180910390a16200061d603c6040805190810160405280600381526020017f55524c0000000000000000000000000000000000000000000000000000000000815250608060405190810160405280604e81526020017f6a736f6e2868747470733a2f2f7072696365686f73742e636f6d2f766568696381526020017f6c65726567697374726174696f6e2f707269636573292e7072696365732e726581526020017f67697374726174696f6e2e45544800000000000000000000000000000000000081525062000a4f640100000000026401000000009004565b505b565b6000813b9050919050565b6000620006476200102d640100000000026401000000009004565b9050919050565b6000806000809054906101000a900473ffffffffffffffffffffffffffffffffffffffff1673ffffffffffffffffffffffffffffffffffffffff161480620006d057506000620006ce6000809054906101000a900473ffffffffffffffffffffffffffffffffffffffff1662000621640100000000026401000000009004565b145b15620006f357620006f160006200062c640100000000026401000000009004565b505b6000809054906101000a900473ffffffffffffffffffffffffffffffffffffffff1673ffffffffffffffffffffffffffffffffffffffff166338cc48316040518163ffffffff167c0100000000000000000000000000000000000000000000000000000000028152600401602060405180830381600087803b1580156200077957600080fd5b505af11580156200078e573d6000803e3d6000fd5b505050506040513d6020811015620007a557600080fd5b810190808051906020019092919050505073ffffffffffffffffffffffffffffffffffffffff16600160009054906101000a900473ffffffffffffffffffffffffffffffffffffffff1673ffffffffffffffffffffffffffffffffffffffff1614151562000911576000809054906101000a900473ffffffffffffffffffffffffffffffffffffffff1673ffffffffffffffffffffffffffffffffffffffff166338cc48316040518163ffffffff167c0100000000000000000000000000000000000000000000000000000000028152600401602060405180830381600087803b1580156200089357600080fd5b505af1158015620008a8573d6000803e3d6000fd5b505050506040513d6020811015620008bf57600080fd5b8101908080519060200190929190505050600160006101000a81548173ffffffffffffffffffffffffffffffffffffffff021916908373ffffffffffffffffffffffffffffffffffffffff1602179055505b600160009054906101000a900473ffffffffffffffffffffffffffffffffffffffff1673ffffffffffffffffffffffffffffffffffffffff1663524f3889836040518263ffffffff167c01000000000000000000000000000000000000000000000000000000000281526004018080602001828103825283818151815260200191508051906020019080838360005b83811015620009bd578082015181840152602081019050620009a0565b50505050905090810190601f168015620009eb5780820380516001836020036101000a031916815260200191505b5092505050602060405180830381600087803b15801562000a0b57600080fd5b505af115801562000a20573d6000803e3d6000fd5b505050506040513d602081101562000a3757600080fd5b81019080805190602001909291905050509050919050565b60008060008060009054906101000a900473ffffffffffffffffffffffffffffffffffffffff1673ffffffffffffffffffffffffffffffffffffffff16148062000ad35750600062000ad16000809054906101000a900473ffffffffffffffffffffffffffffffffffffffff1662000621640100000000026401000000009004565b145b1562000af65762000af460006200062c640100000000026401000000009004565b505b6000809054906101000a900473ffffffffffffffffffffffffffffffffffffffff1673ffffffffffffffffffffffffffffffffffffffff166338cc48316040518163ffffffff167c0100000000000000000000000000000000000000000000000000000000028152600401602060405180830381600087803b15801562000b7c57600080fd5b505af115801562000b91573d6000803e3d6000fd5b505050506040513d602081101562000ba857600080fd5b810190808051906020019092919050505073ffffffffffffffffffffffffffffffffffffffff16600160009054906101000a900473ffffffffffffffffffffffffffffffffffffffff1673ffffffffffffffffffffffffffffffffffffffff1614151562000d14576000809054906101000a900473ffffffffffffffffffffffffffffffffffffffff1673ffffffffffffffffffffffffffffffffffffffff166338cc48316040518163ffffffff167c0100000000000000000000000000000000000000000000000000000000028152600401602060405180830381600087803b15801562000c9657600080fd5b505af115801562000cab573d6000803e3d6000fd5b505050506040513d602081101562000cc257600080fd5b8101908080519060200190929190505050600160006101000a81548173ffffffffffffffffffffffffffffffffffffffff021916908373ffffffffffffffffffffffffffffffffffffffff1602179055505b600160009054906101000a900473ffffffffffffffffffffffffffffffffffffffff1673ffffffffffffffffffffffffffffffffffffffff1663524f3889856040518263ffffffff167c01000000000000000000000000000000000000000000000000000000000281526004018080602001828103825283818151815260200191508051906020019080838360005b8381101562000dc057808201518184015260208101905062000da3565b50505050905090810190601f16801562000dee5780820380516001836020036101000a031916815260200191505b5092505050602060405180830381600087803b15801562000e0e57600080fd5b505af115801562000e23573d6000803e3d6000fd5b505050506040513d602081101562000e3a57600080fd5b8101908080519060200190929190505050905062030d403a02670de0b6b3a76400000181111562000e72576000600102915062001025565b600160009054906101000a900473ffffffffffffffffffffffffffffffffffffffff1673ffffffffffffffffffffffffffffffffffffffff1663adf59f99828787876040518563ffffffff167c0100000000000000000000000000000000000000000000000000000000028152600401808481526020018060200180602001838103835285818151815260200191508051906020019080838360005b8381101562000f2b57808201518184015260208101905062000f0e565b50505050905090810190601f16801562000f595780820380516001836020036101000a031916815260200191505b50838103825284818151815260200191508051906020019080838360005b8381101562000f9457808201518184015260208101905062000f77565b50505050905090810190601f16801562000fc25780820380516001836020036101000a031916815260200191505b50955050505050506020604051808303818588803b15801562000fe457600080fd5b505af115801562000ff9573d6000803e3d6000fd5b50505050506040513d60208110156200101157600080fd5b810190808051906020019092919050505091505b509392505050565b6000806200105e731d3b2638a7cc9f2cb3d298a3da7a90b67e5506ed62000621640100000000026401000000009004565b11156200111257731d3b2638a7cc9f2cb3d298a3da7a90b67e5506ed6000806101000a81548173ffffffffffffffffffffffffffffffffffffffff021916908373ffffffffffffffffffffffffffffffffffffffff160217905550620011086040805190810160405280600b81526020017f6574685f6d61696e6e657400000000000000000000000000000000000000000081525062001585640100000000026401000000009004565b6001905062001582565b60006200114273c03a2615d5efaf5f49f60b7bb6583eaec212fdf162000621640100000000026401000000009004565b1115620011f65773c03a2615d5efaf5f49f60b7bb6583eaec212fdf16000806101000a81548173ffffffffffffffffffffffffffffffffffffffff021916908373ffffffffffffffffffffffffffffffffffffffff160217905550620011ec6040805190810160405280600c81526020017f6574685f726f707374656e33000000000000000000000000000000000000000081525062001585640100000000026401000000009004565b6001905062001582565b60006200122673b7a07bcf2ba2f2703b24c0691b5278999c59ac7e62000621640100000000026401000000009004565b1115620012da5773b7a07bcf2ba2f2703b24c0691b5278999c59ac7e6000806101000a81548173ffffffffffffffffffffffffffffffffffffffff021916908373ffffffffffffffffffffffffffffffffffffffff160217905550620012d06040805190810160405280600981526020017f6574685f6b6f76616e000000000000000000000000000000000000000000000081525062001585640100000000026401000000009004565b6001905062001582565b60006200130a73146500cfd35b22e4a392fe0adc06de1a1368ed4862000621640100000000026401000000009004565b1115620013be5773146500cfd35b22e4a392fe0adc06de1a1368ed486000806101000a81548173ffffffffffffffffffffffffffffffffffffffff021916908373ffffffffffffffffffffffffffffffffffffffff160217905550620013b46040805190810160405280600b81526020017f6574685f72696e6b65627900000000000000000000000000000000000000000081525062001585640100000000026401000000009004565b6001905062001582565b6000620013ee736f485c8bf6fc43ea212e93bbf8ce046c7f1cb47562000621640100000000026401000000009004565b11156200145357736f485c8bf6fc43ea212e93bbf8ce046c7f1cb4756000806101000a81548173ffffffffffffffffffffffffffffffffffffffff021916908373ffffffffffffffffffffffffffffffffffffffff1602179055506001905062001582565b6000620014837320e12a1f859b3feae5fb2a0a32c18f5a65555bbf62000621640100000000026401000000009004565b1115620014e8577320e12a1f859b3feae5fb2a0a32c18f5a65555bbf6000806101000a81548173ffffffffffffffffffffffffffffffffffffffff021916908373ffffffffffffffffffffffffffffffffffffffff1602179055506001905062001582565b6000620015187351efaf4c8b3c9afbd5ab9f4bbc82784ab6ef8faa62000621640100000000026401000000009004565b11156200157d577351efaf4c8b3c9afbd5ab9f4bbc82784ab6ef8faa6000806101000a81548173ffffffffffffffffffffffffffffffffffffffff021916908373ffffffffffffffffffffffffffffffffffffffff1602179055506001905062001582565b600090505b90565b80600290805190602001906200159d929190620015a1565b5050565b828054600181600116156101000203166002900490600052602060002090601f016020900481019282601f10620015e457805160ff191683800117855562001615565b8280016001018555821562001615579182015b8281111562001614578251825591602001919060010190620015f7565b5b50905062001624919062001628565b5090565b6200164d91905b80821115620016495760008160009055506001016200162f565b5090565b90565b6119ef80620016606000396000f300608060405260043610610062576000357c0100000000000000000000000000000000000000000000000000000000900463ffffffff168063098935471461006757806327dc297e1461009257806338bbfa501461010957806349dd1262146101c6575b600080fd5b34801561007357600080fd5b5061007c6101d0565b6040518082815260200191505060405180910390f35b34801561009e57600080fd5b506101076004803603810190808035600019169060200190929190803590602001908201803590602001908080601f01602080910402602001604051908101604052809392919081815260200183838082843782019150505050505091929192905050506101d6565b005b34801561011557600080fd5b506101c46004803603810190808035600019169060200190929190803590602001908201803590602001908080601f0160208091040260200160405190810160405280939291908181526020018383808284378201915050505050509192919290803590602001908201803590602001908080601f01602080910402602001604051908101604052809392919081815260200183838082843782019150505050505091929192905050506102c6565b005b6101ce6102cb565b005b60055481565b6101de610481565b73ffffffffffffffffffffffffffffffffffffffff163373ffffffffffffffffffffffffffffffffffffffff1614151561021757600080fd5b7f1a94beaa8eee4953512108a08d93875a6e7c7486f018b074cfef5d0a6ebc07f4816040518080602001828103825283818151815260200191508051906020019080838360005b8381101561027957808201518184015260208101905061025e565b50505050905090810190601f1680156102a65780820380516001836020036101000a031916815260200191505b509250505060405180910390a16102bc816107df565b6005819055505050565b505050565b3073ffffffffffffffffffffffffffffffffffffffff16316103216040805190810160405280600381526020017f55524c00000000000000000000000000000000000000000000000000000000008152506107f3565b111561032c5761047f565b7f46cb989ef9cef13e930e3b7f286225a086e716a90d63e0b7da85d310a9db0c9a6040518080602001828103825260308152602001807f4f7261636c697a65207175657279207761732073656e74202d2077616974696e81526020017f6720666f722074686520616e737765720000000000000000000000000000000081525060400191505060405180910390a161047d603c6040805190810160405280600381526020017f55524c0000000000000000000000000000000000000000000000000000000000815250608060405190810160405280604e81526020017f6a736f6e2868747470733a2f2f7072696365686f73742e636f6d2f766568696381526020017f6c65726567697374726174696f6e2f707269636573292e7072696365732e726581526020017f67697374726174696f6e2e455448000000000000000000000000000000000000815250610bc3565b505b565b6000806000809054906101000a900473ffffffffffffffffffffffffffffffffffffffff1673ffffffffffffffffffffffffffffffffffffffff1614806104f1575060006104ef6000809054906101000a900473ffffffffffffffffffffffffffffffffffffffff16611165565b145b15610502576105006000611170565b505b6000809054906101000a900473ffffffffffffffffffffffffffffffffffffffff1673ffffffffffffffffffffffffffffffffffffffff166338cc48316040518163ffffffff167c0100000000000000000000000000000000000000000000000000000000028152600401602060405180830381600087803b15801561058757600080fd5b505af115801561059b573d6000803e3d6000fd5b505050506040513d60208110156105b157600080fd5b810190808051906020019092919050505073ffffffffffffffffffffffffffffffffffffffff16600160009054906101000a900473ffffffffffffffffffffffffffffffffffffffff1673ffffffffffffffffffffffffffffffffffffffff16141515610719576000809054906101000a900473ffffffffffffffffffffffffffffffffffffffff1673ffffffffffffffffffffffffffffffffffffffff166338cc48316040518163ffffffff167c0100000000000000000000000000000000000000000000000000000000028152600401602060405180830381600087803b15801561069d57600080fd5b505af11580156106b1573d6000803e3d6000fd5b505050506040513d60208110156106c757600080fd5b8101908080519060200190929190505050600160006101000a81548173ffffffffffffffffffffffffffffffffffffffff021916908373ffffffffffffffffffffffffffffffffffffffff1602179055505b600160009054906101000a900473ffffffffffffffffffffffffffffffffffffffff1673ffffffffffffffffffffffffffffffffffffffff1663c281d19e6040518163ffffffff167c0100000000000000000000000000000000000000000000000000000000028152600401602060405180830381600087803b15801561079f57600080fd5b505af11580156107b3573d6000803e3d6000fd5b505050506040513d60208110156107c957600080fd5b8101908080519060200190929190505050905090565b60006107ec826000611181565b9050919050565b6000806000809054906101000a900473ffffffffffffffffffffffffffffffffffffffff1673ffffffffffffffffffffffffffffffffffffffff161480610863575060006108616000809054906101000a900473ffffffffffffffffffffffffffffffffffffffff16611165565b145b15610874576108726000611170565b505b6000809054906101000a900473ffffffffffffffffffffffffffffffffffffffff1673ffffffffffffffffffffffffffffffffffffffff166338cc48316040518163ffffffff167c0100000000000000000000000000000000000000000000000000000000028152600401602060405180830381600087803b1580156108f957600080fd5b505af115801561090d573d6000803e3d6000fd5b505050506040513d602081101561092357600080fd5b810190808051906020019092919050505073ffffffffffffffffffffffffffffffffffffffff16600160009054906101000a900473ffffffffffffffffffffffffffffffffffffffff1673ffffffffffffffffffffffffffffffffffffffff16141515610a8b576000809054906101000a900473ffffffffffffffffffffffffffffffffffffffff1673ffffffffffffffffffffffffffffffffffffffff166338cc48316040518163ffffffff167c0100000000000000000000000000000000000000000000000000000000028152600401602060405180830381600087803b158015610a0f57600080fd5b505af1158015610a23573d6000803e3d6000fd5b505050506040513d6020811015610a3957600080fd5b8101908080519060200190929190505050600160006101000a81548173ffffffffffffffffffffffffffffffffffffffff021916908373ffffffffffffffffffffffffffffffffffffffff1602179055505b600160009054906101000a900473ffffffffffffffffffffffffffffffffffffffff1673ffffffffffffffffffffffffffffffffffffffff1663524f3889836040518263ffffffff167c01000000000000000000000000000000000000000000000000000000000281526004018080602001828103825283818151815260200191508051906020019080838360005b83811015610b35578082015181840152602081019050610b1a565b50505050905090810190601f168015610b625780820380516001836020036101000a031916815260200191505b5092505050602060405180830381600087803b158015610b8157600080fd5b505af1158015610b95573d6000803e3d6000fd5b505050506040513d6020811015610bab57600080fd5b81019080805190602001909291905050509050919050565b60008060008060009054906101000a900473ffffffffffffffffffffffffffffffffffffffff1673ffffffffffffffffffffffffffffffffffffffff161480610c3557506000610c336000809054906101000a900473ffffffffffffffffffffffffffffffffffffffff16611165565b145b15610c4657610c446000611170565b505b6000809054906101000a900473ffffffffffffffffffffffffffffffffffffffff1673ffffffffffffffffffffffffffffffffffffffff166338cc48316040518163ffffffff167c0100000000000000000000000000000000000000000000000000000000028152600401602060405180830381600087803b158015610ccb57600080fd5b505af1158015610cdf573d6000803e3d6000fd5b505050506040513d6020811015610cf557600080fd5b810190808051906020019092919050505073ffffffffffffffffffffffffffffffffffffffff16600160009054906101000a900473ffffffffffffffffffffffffffffffffffffffff1673ffffffffffffffffffffffffffffffffffffffff16141515610e5d576000809054906101000a900473ffffffffffffffffffffffffffffffffffffffff1673ffffffffffffffffffffffffffffffffffffffff166338cc48316040518163ffffffff167c0100000000000000000000000000000000000000000000000000000000028152600401602060405180830381600087803b158015610de157600080fd5b505af1158015610df5573d6000803e3d6000fd5b505050506040513d6020811015610e0b57600080fd5b8101908080519060200190929190505050600160006101000a81548173ffffffffffffffffffffffffffffffffffffffff021916908373ffffffffffffffffffffffffffffffffffffffff1602179055505b600160009054906101000a900473ffffffffffffffffffffffffffffffffffffffff1673ffffffffffffffffffffffffffffffffffffffff1663524f3889856040518263ffffffff167c01000000000000000000000000000000000000000000000000000000000281526004018080602001828103825283818151815260200191508051906020019080838360005b83811015610f07578082015181840152602081019050610eec565b50505050905090810190601f168015610f345780820380516001836020036101000a031916815260200191505b5092505050602060405180830381600087803b158015610f5357600080fd5b505af1158015610f67573d6000803e3d6000fd5b505050506040513d6020811015610f7d57600080fd5b8101908080519060200190929190505050905062030d403a02670de0b6b3a764000001811115610fb3576000600102915061115d565b600160009054906101000a900473ffffffffffffffffffffffffffffffffffffffff1673ffffffffffffffffffffffffffffffffffffffff1663adf59f99828787876040518563ffffffff167c0100000000000000000000000000000000000000000000000000000000028152600401808481526020018060200180602001838103835285818151815260200191508051906020019080838360005b8381101561106a57808201518184015260208101905061104f565b50505050905090810190601f1680156110975780820380516001836020036101000a031916815260200191505b50838103825284818151815260200191508051906020019080838360005b838110156110d05780820151818401526020810190506110b5565b50505050905090810190601f1680156110fd5780820380516001836020036101000a031916815260200191505b50955050505050506020604051808303818588803b15801561111e57600080fd5b505af1158015611132573d6000803e3d6000fd5b50505050506040513d602081101561114957600080fd5b810190808051906020019092919050505091505b509392505050565b6000813b9050919050565b600061117a611475565b9050919050565b6000606060008060008693506000925060009150600090505b83518110156114565760307f01000000000000000000000000000000000000000000000000000000000000000284828151811015156111d557fe5b9060200101517f010000000000000000000000000000000000000000000000000000000000000090047f0100000000000000000000000000000000000000000000000000000000000000027effffffffffffffffffffffffffffffffffffffffffffffffffffffffffffff1916101580156112ed575060397f010000000000000000000000000000000000000000000000000000000000000002848281518110151561127d57fe5b9060200101517f010000000000000000000000000000000000000000000000000000000000000090047f0100000000000000000000000000000000000000000000000000000000000000027effffffffffffffffffffffffffffffffffffffffffffffffffffffffffffff191611155b1561139e57811561131057600086141561130657611456565b8580600190039650505b600a830292506030848281518110151561132657fe5b9060200101517f010000000000000000000000000000000000000000000000000000000000000090047f0100000000000000000000000000000000000000000000000000000000000000027f010000000000000000000000000000000000000000000000000000000000000090040383019250611449565b602e7f01000000000000000000000000000000000000000000000000000000000000000284828151811015156113d057fe5b9060200101517f010000000000000000000000000000000000000000000000000000000000000090047f0100000000000000000000000000000000000000000000000000000000000000027effffffffffffffffffffffffffffffffffffffffffffffffffffffffffffff1916141561144857600191505b5b808060010191505061119a565b60008611156114685785600a0a830292505b8294505050505092915050565b600080611495731d3b2638a7cc9f2cb3d298a3da7a90b67e5506ed611165565b111561153657731d3b2638a7cc9f2cb3d298a3da7a90b67e5506ed6000806101000a81548173ffffffffffffffffffffffffffffffffffffffff021916908373ffffffffffffffffffffffffffffffffffffffff16021790555061152d6040805190810160405280600b81526020017f6574685f6d61696e6e6574000000000000000000000000000000000000000000815250611904565b60019050611901565b600061155573c03a2615d5efaf5f49f60b7bb6583eaec212fdf1611165565b11156115f65773c03a2615d5efaf5f49f60b7bb6583eaec212fdf16000806101000a81548173ffffffffffffffffffffffffffffffffffffffff021916908373ffffffffffffffffffffffffffffffffffffffff1602179055506115ed6040805190810160405280600c81526020017f6574685f726f707374656e330000000000000000000000000000000000000000815250611904565b60019050611901565b600061161573b7a07bcf2ba2f2703b24c0691b5278999c59ac7e611165565b11156116b65773b7a07bcf2ba2f2703b24c0691b5278999c59ac7e6000806101000a81548173ffffffffffffffffffffffffffffffffffffffff021916908373ffffffffffffffffffffffffffffffffffffffff1602179055506116ad6040805190810160405280600981526020017f6574685f6b6f76616e0000000000000000000000000000000000000000000000815250611904565b60019050611901565b60006116d573146500cfd35b22e4a392fe0adc06de1a1368ed48611165565b11156117765773146500cfd35b22e4a392fe0adc06de1a1368ed486000806101000a81548173ffffffffffffffffffffffffffffffffffffffff021916908373ffffffffffffffffffffffffffffffffffffffff16021790555061176d6040805190810160405280600b81526020017f6574685f72696e6b656279000000000000000000000000000000000000000000815250611904565b60019050611901565b6000611795736f485c8bf6fc43ea212e93bbf8ce046c7f1cb475611165565b11156117f857736f485c8bf6fc43ea212e93bbf8ce046c7f1cb4756000806101000a81548173ffffffffffffffffffffffffffffffffffffffff021916908373ffffffffffffffffffffffffffffffffffffffff16021790555060019050611901565b60006118177320e12a1f859b3feae5fb2a0a32c18f5a65555bbf611165565b111561187a577320e12a1f859b3feae5fb2a0a32c18f5a65555bbf6000806101000a81548173ffffffffffffffffffffffffffffffffffffffff021916908373ffffffffffffffffffffffffffffffffffffffff16021790555060019050611901565b60006118997351efaf4c8b3c9afbd5ab9f4bbc82784ab6ef8faa611165565b11156118fc577351efaf4c8b3c9afbd5ab9f4bbc82784ab6ef8faa6000806101000a81548173ffffffffffffffffffffffffffffffffffffffff021916908373ffffffffffffffffffffffffffffffffffffffff16021790555060019050611901565b600090505b90565b806002908051906020019061191a92919061191e565b5050565b828054600181600116156101000203166002900490600052602060002090601f016020900481019282601f1061195f57805160ff191683800117855561198d565b8280016001018555821561198d579182015b8281111561198c578251825591602001919060010190611971565b5b50905061199a919061199e565b5090565b6119c091905b808211156119bc5760008160009055506001016119a4565b5090565b905600a165627a7a7230582007ec69562ecf0d18fdff392e3d883fe7206c02964a1e1119c4c6e225963b8b8e0029",
  "source": "pragma solidity ^0.4.23;\r\n\r\nimport \"../installed_contracts/oraclize-api/contracts/usingOraclize.sol\";\r\n\r\ncontract VehicleRegistryPriceChecker is usingOraclize {\r\n\r\n    uint public RegistrationPriceEth;\r\n\r\n    event newOraclizeQuery(string _description);\r\n    event newRegistrationPrice(string price);\r\n\r\n    constructor () public {\r\n        oraclize_setProof(proofType_TLSNotary | proofStorage_IPFS);\r\n        updatePrices();\r\n    }\r\n\r\n    function __callback(bytes32 myid, string result) public {\r\n        require(msg.sender == oraclize_cbAddress());\r\n        emit newRegistrationPrice(result);\r\n        RegistrationPriceEth = parseInt(result);\r\n    }\r\n\r\n    function updatePrices() public payable {\r\n\r\n        if (oraclize_getPrice(\"URL\") > address(this).balance) {\r\n            //emit LogNewOraclizeQuery(\"Oraclize query was NOT sent, please add some ETH to cover for the query fee\");\r\n        } else {\r\n            emit newOraclizeQuery(\"Oraclize query was sent - waiting for the answer\");\r\n            oraclize_query(60, \"URL\", \"json(https://pricehost.com/vehicleregistration/prices).prices.registration.ETH\");\r\n        }\r\n    }\r\n}",
  "sourcePath": "C:\\dev\\repos\\VehicleMaintenanceRegistry\\src\\VMR\\contracts\\VehicleRegistryPriceChecker.sol",
  "compiler": {
    "name": "solc",
    "version": "0.4.24+commit.e67f0147.Emscripten.clang"
  },
  "schemaVersion": "2.0.1",
  "updatedAt": "2018-07-06T11:02:15.088Z"
}