{
  "contractName": "VehicleManufacturerStorage",
  "abi": [
    {
      "constant": false,
      "inputs": [
        {
          "name": "_storageAccount",
          "type": "address"
        },
        {
          "name": "_name",
          "type": "bytes32"
        },
        {
          "name": "_owner",
          "type": "address"
        },
        {
          "name": "_enabled",
          "type": "bool"
        }
      ],
      "name": "store",
      "outputs": [
        {
          "name": "",
          "type": "uint256"
        }
      ],
      "payable": false,
      "stateMutability": "nonpayable",
      "type": "function"
    },
    {
      "constant": false,
      "inputs": [
        {
          "name": "_storageAccount",
          "type": "address"
        },
        {
          "name": "_number",
          "type": "uint256"
        },
        {
          "name": "_attributeName",
          "type": "bytes32"
        },
        {
          "name": "_val",
          "type": "string"
        }
      ],
      "name": "storeAttribute",
      "outputs": [
        {
          "name": "",
          "type": "uint256"
        }
      ],
      "payable": false,
      "stateMutability": "nonpayable",
      "type": "function"
    },
    {
      "constant": false,
      "inputs": [
        {
          "name": "_storageAccount",
          "type": "address"
        },
        {
          "name": "_number",
          "type": "uint256"
        },
        {
          "name": "_count",
          "type": "uint256"
        }
      ],
      "name": "setAttributeCount",
      "outputs": [],
      "payable": false,
      "stateMutability": "nonpayable",
      "type": "function"
    },
    {
      "constant": false,
      "inputs": [
        {
          "name": "_storageAccount",
          "type": "address"
        },
        {
          "name": "_number",
          "type": "uint256"
        },
        {
          "name": "_attributeName",
          "type": "bytes32"
        },
        {
          "name": "_attribNumber",
          "type": "uint256"
        }
      ],
      "name": "setAttributeNumber",
      "outputs": [],
      "payable": false,
      "stateMutability": "nonpayable",
      "type": "function"
    },
    {
      "constant": false,
      "inputs": [
        {
          "name": "_storageAccount",
          "type": "address"
        },
        {
          "name": "_number",
          "type": "uint256"
        },
        {
          "name": "_attribNumber",
          "type": "uint256"
        },
        {
          "name": "_attributeName",
          "type": "bytes32"
        }
      ],
      "name": "setAttributeName",
      "outputs": [],
      "payable": false,
      "stateMutability": "nonpayable",
      "type": "function"
    },
    {
      "constant": false,
      "inputs": [
        {
          "name": "_storageAccount",
          "type": "address"
        },
        {
          "name": "_number",
          "type": "uint256"
        },
        {
          "name": "_attribNumber",
          "type": "uint256"
        },
        {
          "name": "_val",
          "type": "string"
        }
      ],
      "name": "setAttributeValue",
      "outputs": [],
      "payable": false,
      "stateMutability": "nonpayable",
      "type": "function"
    },
    {
      "constant": true,
      "inputs": [
        {
          "name": "_storageAccount",
          "type": "address"
        },
        {
          "name": "_number",
          "type": "uint256"
        },
        {
          "name": "_attributeName",
          "type": "bytes32"
        }
      ],
      "name": "getAttributeNumber",
      "outputs": [
        {
          "name": "",
          "type": "uint256"
        }
      ],
      "payable": false,
      "stateMutability": "view",
      "type": "function"
    },
    {
      "constant": true,
      "inputs": [
        {
          "name": "_storageAccount",
          "type": "address"
        },
        {
          "name": "_number",
          "type": "uint256"
        },
        {
          "name": "_attribNumber",
          "type": "uint256"
        }
      ],
      "name": "getAttributeName",
      "outputs": [
        {
          "name": "",
          "type": "bytes32"
        }
      ],
      "payable": false,
      "stateMutability": "view",
      "type": "function"
    },
    {
      "constant": true,
      "inputs": [
        {
          "name": "_storageAccount",
          "type": "address"
        },
        {
          "name": "_number",
          "type": "uint256"
        },
        {
          "name": "_attribNumber",
          "type": "uint256"
        }
      ],
      "name": "getAttributeValue",
      "outputs": [
        {
          "name": "",
          "type": "string"
        }
      ],
      "payable": false,
      "stateMutability": "view",
      "type": "function"
    },
    {
      "constant": true,
      "inputs": [
        {
          "name": "_storageAccount",
          "type": "address"
        },
        {
          "name": "_number",
          "type": "uint256"
        }
      ],
      "name": "getAttributeCount",
      "outputs": [
        {
          "name": "",
          "type": "uint256"
        }
      ],
      "payable": false,
      "stateMutability": "view",
      "type": "function"
    },
    {
      "constant": true,
      "inputs": [
        {
          "name": "_storageAccount",
          "type": "address"
        }
      ],
      "name": "getTotalCount",
      "outputs": [
        {
          "name": "",
          "type": "uint256"
        }
      ],
      "payable": false,
      "stateMutability": "view",
      "type": "function"
    },
    {
      "constant": true,
      "inputs": [
        {
          "name": "_storageAccount",
          "type": "address"
        },
        {
          "name": "_number",
          "type": "uint256"
        }
      ],
      "name": "getName",
      "outputs": [
        {
          "name": "",
          "type": "bytes32"
        }
      ],
      "payable": false,
      "stateMutability": "view",
      "type": "function"
    },
    {
      "constant": true,
      "inputs": [
        {
          "name": "_storageAccount",
          "type": "address"
        },
        {
          "name": "_name",
          "type": "bytes32"
        }
      ],
      "name": "getNumber",
      "outputs": [
        {
          "name": "",
          "type": "uint256"
        }
      ],
      "payable": false,
      "stateMutability": "view",
      "type": "function"
    },
    {
      "constant": true,
      "inputs": [
        {
          "name": "_storageAccount",
          "type": "address"
        },
        {
          "name": "_number",
          "type": "uint256"
        }
      ],
      "name": "getOwner",
      "outputs": [
        {
          "name": "",
          "type": "address"
        }
      ],
      "payable": false,
      "stateMutability": "view",
      "type": "function"
    },
    {
      "constant": true,
      "inputs": [
        {
          "name": "_storageAccount",
          "type": "address"
        },
        {
          "name": "_number",
          "type": "uint256"
        }
      ],
      "name": "getEnabled",
      "outputs": [
        {
          "name": "",
          "type": "bool"
        }
      ],
      "payable": false,
      "stateMutability": "view",
      "type": "function"
    },
    {
      "constant": true,
      "inputs": [
        {
          "name": "_storageAccount",
          "type": "address"
        },
        {
          "name": "_number",
          "type": "uint256"
        }
      ],
      "name": "exists",
      "outputs": [
        {
          "name": "",
          "type": "bool"
        }
      ],
      "payable": false,
      "stateMutability": "view",
      "type": "function"
    },
    {
      "constant": true,
      "inputs": [
        {
          "name": "_storageAccount",
          "type": "address"
        },
        {
          "name": "_number",
          "type": "uint256"
        }
      ],
      "name": "getTransferKey",
      "outputs": [
        {
          "name": "",
          "type": "bytes32"
        }
      ],
      "payable": false,
      "stateMutability": "view",
      "type": "function"
    },
    {
      "constant": true,
      "inputs": [
        {
          "name": "_storageAccount",
          "type": "address"
        },
        {
          "name": "_number",
          "type": "uint256"
        }
      ],
      "name": "getPendingOwner",
      "outputs": [
        {
          "name": "",
          "type": "address"
        }
      ],
      "payable": false,
      "stateMutability": "view",
      "type": "function"
    },
    {
      "constant": false,
      "inputs": [
        {
          "name": "_storageAccount",
          "type": "address"
        },
        {
          "name": "_count",
          "type": "uint256"
        }
      ],
      "name": "setTotalCount",
      "outputs": [],
      "payable": false,
      "stateMutability": "nonpayable",
      "type": "function"
    },
    {
      "constant": false,
      "inputs": [
        {
          "name": "_storageAccount",
          "type": "address"
        },
        {
          "name": "_number",
          "type": "uint256"
        },
        {
          "name": "_name",
          "type": "bytes32"
        }
      ],
      "name": "setName",
      "outputs": [],
      "payable": false,
      "stateMutability": "nonpayable",
      "type": "function"
    },
    {
      "constant": false,
      "inputs": [
        {
          "name": "_storageAccount",
          "type": "address"
        },
        {
          "name": "_name",
          "type": "bytes32"
        },
        {
          "name": "_number",
          "type": "uint256"
        }
      ],
      "name": "setNumber",
      "outputs": [],
      "payable": false,
      "stateMutability": "nonpayable",
      "type": "function"
    },
    {
      "constant": false,
      "inputs": [
        {
          "name": "_storageAccount",
          "type": "address"
        },
        {
          "name": "_number",
          "type": "uint256"
        },
        {
          "name": "_owner",
          "type": "address"
        }
      ],
      "name": "setOwner",
      "outputs": [],
      "payable": false,
      "stateMutability": "nonpayable",
      "type": "function"
    },
    {
      "constant": false,
      "inputs": [
        {
          "name": "_storageAccount",
          "type": "address"
        },
        {
          "name": "_number",
          "type": "uint256"
        },
        {
          "name": "_enabled",
          "type": "bool"
        }
      ],
      "name": "setEnabled",
      "outputs": [],
      "payable": false,
      "stateMutability": "nonpayable",
      "type": "function"
    },
    {
      "constant": false,
      "inputs": [
        {
          "name": "_storageAccount",
          "type": "address"
        },
        {
          "name": "_number",
          "type": "uint256"
        },
        {
          "name": "_pendingOwner",
          "type": "address"
        }
      ],
      "name": "setPendingOwner",
      "outputs": [],
      "payable": false,
      "stateMutability": "nonpayable",
      "type": "function"
    },
    {
      "constant": false,
      "inputs": [
        {
          "name": "_storageAccount",
          "type": "address"
        },
        {
          "name": "_number",
          "type": "uint256"
        },
        {
          "name": "_keyHash",
          "type": "bytes32"
        }
      ],
      "name": "setTransferKey",
      "outputs": [],
      "payable": false,
      "stateMutability": "nonpayable",
      "type": "function"
    }
  ],
  "bytecode": "0x612d1a610030600b82828239805160001a6073146000811461002057610022565bfe5b5030600052607381538281f3007300000000000000000000000000000000000000003014608060405260043610610160576000357c0100000000000000000000000000000000000000000000000000000000900463ffffffff16806302a992b01461016557806319409a95146101bd5780631cb1bb441461022a5780632a9857271461027e5780632f634a901461030f57806359774ca11461038f5780635e8adda7146103ea57806366126894146104875780637dbc2fd6146104e3578063801645bc1461053e57806382045caa146105a35780639b15b8b2146106235780639f66058e14610685578063aae7df0514610748578063acdca44a146107a0578063afeef9b8146107f7578063bdea633a1461085d578063d3b860a0146108a7578063e1090cff1461090c578063e24bb30514610968578063e5864281146109d5578063e5b8e65c14610a8a578063ed2933ed14610ad7578063fab252b214610b2f578063fe41511014610b8a575b600080fd5b6101a3600480360381019080803573ffffffffffffffffffffffffffffffffffffffff16906020019092919080359060200190929190505050610be3565b604051808215151515815260200191505060405180910390f35b8180156101c957600080fd5b50610228600480360381019080803573ffffffffffffffffffffffffffffffffffffffff16906020019092919080359060200190929190803573ffffffffffffffffffffffffffffffffffffffff169060200190929190505050610d48565b005b610268600480360381019080803573ffffffffffffffffffffffffffffffffffffffff16906020019092919080359060200190929190505050610eb9565b6040518082815260200191505060405180910390f35b81801561028a57600080fd5b506102f9600480360381019080803573ffffffffffffffffffffffffffffffffffffffff1690602001909291908035600019169060200190929190803573ffffffffffffffffffffffffffffffffffffffff16906020019092919080351515906020019092919050505061101e565b6040518082815260200191505060405180910390f35b61034d600480360381019080803573ffffffffffffffffffffffffffffffffffffffff16906020019092919080359060200190929190505050611077565b604051808273ffffffffffffffffffffffffffffffffffffffff1673ffffffffffffffffffffffffffffffffffffffff16815260200191505060405180910390f35b81801561039b57600080fd5b506103e8600480360381019080803573ffffffffffffffffffffffffffffffffffffffff1690602001909291908035906020019092919080356000191690602001909291905050506111dc565b005b8180156103f657600080fd5b50610485600480360381019080803573ffffffffffffffffffffffffffffffffffffffff1690602001909291908035906020019092919080359060200190929190803590602001908201803590602001908080601f0160208091040260200160405190810160405280939291908181526020018383808284378201915050505050509192919290505050611329565b005b6104c5600480360381019080803573ffffffffffffffffffffffffffffffffffffffff169060200190929190803590602001909291905050506114dc565b60405180826000191660001916815260200191505060405180910390f35b8180156104ef57600080fd5b5061053c600480360381019080803573ffffffffffffffffffffffffffffffffffffffff169060200190929190803590602001909291908035600019169060200190929190505050611641565b005b81801561054a57600080fd5b506105a1600480360381019080803573ffffffffffffffffffffffffffffffffffffffff1690602001909291908035906020019092919080356000191690602001909291908035906020019092919050505061178e565b005b6105e1600480360381019080803573ffffffffffffffffffffffffffffffffffffffff169060200190929190803590602001909291905050506118e4565b604051808273ffffffffffffffffffffffffffffffffffffffff1673ffffffffffffffffffffffffffffffffffffffff16815260200191505060405180910390f35b61066f600480360381019080803573ffffffffffffffffffffffffffffffffffffffff169060200190929190803590602001909291908035600019169060200190929190505050611a49565b6040518082815260200191505060405180910390f35b6106cd600480360381019080803573ffffffffffffffffffffffffffffffffffffffff1690602001909291908035906020019092919080359060200190929190505050611bbf565b6040518080602001828103825283818151815260200191508051906020019080838360005b8381101561070d5780820151818401526020810190506106f2565b50505050905090810190601f16801561073a5780820380516001836020036101000a031916815260200191505b509250505060405180910390f35b61078a600480360381019080803573ffffffffffffffffffffffffffffffffffffffff1690602001909291908035600019169060200190929190505050611d83565b6040518082815260200191505060405180910390f35b8180156107ac57600080fd5b506107f5600480360381019080803573ffffffffffffffffffffffffffffffffffffffff1690602001909291908035906020019092919080359060200190929190505050611ef0565b005b61083f600480360381019080803573ffffffffffffffffffffffffffffffffffffffff1690602001909291908035906020019092919080359060200190929190505050612035565b60405180826000191660001916815260200191505060405180910390f35b610891600480360381019080803573ffffffffffffffffffffffffffffffffffffffff1690602001909291905050506121a3565b6040518082815260200191505060405180910390f35b8180156108b357600080fd5b5061090a600480360381019080803573ffffffffffffffffffffffffffffffffffffffff169060200190929190803590602001909291908035906020019092919080356000191690602001909291905050506122ff565b005b61094a600480360381019080803573ffffffffffffffffffffffffffffffffffffffff16906020019092919080359060200190929190505050612455565b60405180826000191660001916815260200191505060405180910390f35b81801561097457600080fd5b506109d3600480360381019080803573ffffffffffffffffffffffffffffffffffffffff16906020019092919080359060200190929190803573ffffffffffffffffffffffffffffffffffffffff1690602001909291905050506125ba565b005b8180156109e157600080fd5b50610a74600480360381019080803573ffffffffffffffffffffffffffffffffffffffff169060200190929190803590602001909291908035600019169060200190929190803590602001908201803590602001908080601f016020809104026020016040519081016040528093929190818152602001838380828437820191505050505050919291929050505061272b565b6040518082815260200191505060405180910390f35b818015610a9657600080fd5b50610ad5600480360381019080803573ffffffffffffffffffffffffffffffffffffffff1690602001909291908035906020019092919050505061277e565b005b610b15600480360381019080803573ffffffffffffffffffffffffffffffffffffffff169060200190929190803590602001909291905050506128ba565b604051808215151515815260200191505060405180910390f35b818015610b3b57600080fd5b50610b88600480360381019080803573ffffffffffffffffffffffffffffffffffffffff169060200190929190803560001916906020019092919080359060200190929190505050612a58565b005b818015610b9657600080fd5b50610be1600480360381019080803573ffffffffffffffffffffffffffffffffffffffff16906020019092919080359060200190929190803515159060200190929190505050612ba5565b005b60008273ffffffffffffffffffffffffffffffffffffffff166317e7dd228360405160200180828152602001807f656e61626c6564000000000000000000000000000000000000000000000000008152506007019150506040516020818303038152906040526040518082805190602001908083835b602083101515610c7e5780518252602082019150602081019050602083039250610c59565b6001836020036101000a03801982511681845116808217855250505050505090500191505060405180910390206040518263ffffffff167c0100000000000000000000000000000000000000000000000000000000028152600401808260001916600019168152602001915050602060405180830381600087803b158015610d0557600080fd5b505af1158015610d19573d6000803e3d6000fd5b505050506040513d6020811015610d2f57600080fd5b8101908080519060200190929190505050905092915050565b8273ffffffffffffffffffffffffffffffffffffffff16635a2bf25a8360405160200180828152602001807f6f776e65720000000000000000000000000000000000000000000000000000008152506005019150506040516020818303038152906040526040518082805190602001908083835b602083101515610de15780518252602082019150602081019050602083039250610dbc565b6001836020036101000a0380198251168184511680821785525050505050509050019150506040518091039020836040518363ffffffff167c01000000000000000000000000000000000000000000000000000000000281526004018083600019166000191681526020018273ffffffffffffffffffffffffffffffffffffffff1673ffffffffffffffffffffffffffffffffffffffff16815260200192505050600060405180830381600087803b158015610e9c57600080fd5b505af1158015610eb0573d6000803e3d6000fd5b50505050505050565b60008273ffffffffffffffffffffffffffffffffffffffff1663ac0945538360405160200180828152602001807f617474726962436f756e74000000000000000000000000000000000000000000815250600b019150506040516020818303038152906040526040518082805190602001908083835b602083101515610f545780518252602082019150602081019050602083039250610f2f565b6001836020036101000a03801982511681845116808217855250505050505090500191505060405180910390206040518263ffffffff167c0100000000000000000000000000000000000000000000000000000000028152600401808260001916600019168152602001915050602060405180830381600087803b158015610fdb57600080fd5b505af1158015610fef573d6000803e3d6000fd5b505050506040513d602081101561100557600080fd5b8101908080519060200190929190505050905092915050565b600080600061102c876121a3565b915060018201905061103f878783612a58565b61104a878288611641565b611055878287610d48565b611060878286612ba5565b61106a878261277e565b8092505050949350505050565b60008273ffffffffffffffffffffffffffffffffffffffff16634c77e5ba8360405160200180828152602001807f6f776e65720000000000000000000000000000000000000000000000000000008152506005019150506040516020818303038152906040526040518082805190602001908083835b60208310151561111257805182526020820191506020810190506020830392506110ed565b6001836020036101000a03801982511681845116808217855250505050505090500191505060405180910390206040518263ffffffff167c0100000000000000000000000000000000000000000000000000000000028152600401808260001916600019168152602001915050602060405180830381600087803b15801561119957600080fd5b505af11580156111ad573d6000803e3d6000fd5b505050506040513d60208110156111c357600080fd5b8101908080519060200190929190505050905092915050565b8273ffffffffffffffffffffffffffffffffffffffff166325cf512d8360405160200180828152602001807f7472616e736665724b6579000000000000000000000000000000000000000000815250600b019150506040516020818303038152906040526040518082805190602001908083835b6020831015156112755780518252602082019150602081019050602083039250611250565b6001836020036101000a0380198251168184511680821785525050505050509050019150506040518091039020836040518363ffffffff167c0100000000000000000000000000000000000000000000000000000000028152600401808360001916600019168152602001826000191660001916815260200192505050600060405180830381600087803b15801561130c57600080fd5b505af1158015611320573d6000803e3d6000fd5b50505050505050565b8373ffffffffffffffffffffffffffffffffffffffff1663f5866066848460405160200180838152602001828152602001807f76616c7565000000000000000000000000000000000000000000000000000000815250600501925050506040516020818303038152906040526040518082805190602001908083835b6020831015156113ca57805182526020820191506020810190506020830392506113a5565b6001836020036101000a0380198251168184511680821785525050505050509050019150506040518091039020836040518363ffffffff167c010000000000000000000000000000000000000000000000000000000002815260040180836000191660001916815260200180602001828103825283818151815260200191508051906020019080838360005b83811015611471578082015181840152602081019050611456565b50505050905090810190601f16801561149e5780820380516001836020036101000a031916815260200191505b509350505050600060405180830381600087803b1580156114be57600080fd5b505af11580156114d2573d6000803e3d6000fd5b5050505050505050565b60008273ffffffffffffffffffffffffffffffffffffffff1663025ec81a8360405160200180828152602001807f7472616e736665724b6579000000000000000000000000000000000000000000815250600b019150506040516020818303038152906040526040518082805190602001908083835b6020831015156115775780518252602082019150602081019050602083039250611552565b6001836020036101000a03801982511681845116808217855250505050505090500191505060405180910390206040518263ffffffff167c0100000000000000000000000000000000000000000000000000000000028152600401808260001916600019168152602001915050602060405180830381600087803b1580156115fe57600080fd5b505af1158015611612573d6000803e3d6000fd5b505050506040513d602081101561162857600080fd5b8101908080519060200190929190505050905092915050565b8273ffffffffffffffffffffffffffffffffffffffff166325cf512d8360405160200180828152602001807f6e616d65000000000000000000000000000000000000000000000000000000008152506004019150506040516020818303038152906040526040518082805190602001908083835b6020831015156116da57805182526020820191506020810190506020830392506116b5565b6001836020036101000a0380198251168184511680821785525050505050509050019150506040518091039020836040518363ffffffff167c0100000000000000000000000000000000000000000000000000000000028152600401808360001916600019168152602001826000191660001916815260200192505050600060405180830381600087803b15801561177157600080fd5b505af1158015611785573d6000803e3d6000fd5b50505050505050565b8373ffffffffffffffffffffffffffffffffffffffff1663dde5b9d58484604051602001808381526020018260001916600019168152602001807f6e756d6265720000000000000000000000000000000000000000000000000000815250600601925050506040516020818303038152906040526040518082805190602001908083835b6020831015156118375780518252602082019150602081019050602083039250611812565b6001836020036101000a0380198251168184511680821785525050505050509050019150506040518091039020836040518363ffffffff167c010000000000000000000000000000000000000000000000000000000002815260040180836000191660001916815260200182815260200192505050600060405180830381600087803b1580156118c657600080fd5b505af11580156118da573d6000803e3d6000fd5b5050505050505050565b60008273ffffffffffffffffffffffffffffffffffffffff16634c77e5ba8360405160200180828152602001807f70656e64696e674f776e65720000000000000000000000000000000000000000815250600c019150506040516020818303038152906040526040518082805190602001908083835b60208310151561197f578051825260208201915060208101905060208303925061195a565b6001836020036101000a03801982511681845116808217855250505050505090500191505060405180910390206040518263ffffffff167c0100000000000000000000000000000000000000000000000000000000028152600401808260001916600019168152602001915050602060405180830381600087803b158015611a0657600080fd5b505af1158015611a1a573d6000803e3d6000fd5b505050506040513d6020811015611a3057600080fd5b8101908080519060200190929190505050905092915050565b60008373ffffffffffffffffffffffffffffffffffffffff1663ac0945538484604051602001808381526020018260001916600019168152602001807f6e756d6265720000000000000000000000000000000000000000000000000000815250600601925050506040516020818303038152906040526040518082805190602001908083835b602083101515611af45780518252602082019150602081019050602083039250611acf565b6001836020036101000a03801982511681845116808217855250505050505090500191505060405180910390206040518263ffffffff167c0100000000000000000000000000000000000000000000000000000000028152600401808260001916600019168152602001915050602060405180830381600087803b158015611b7b57600080fd5b505af1158015611b8f573d6000803e3d6000fd5b505050506040513d6020811015611ba557600080fd5b810190808051906020019092919050505090509392505050565b60608373ffffffffffffffffffffffffffffffffffffffff1663a209a29c848460405160200180838152602001828152602001807f76616c7565000000000000000000000000000000000000000000000000000000815250600501925050506040516020818303038152906040526040518082805190602001908083835b602083101515611c625780518252602082019150602081019050602083039250611c3d565b6001836020036101000a03801982511681845116808217855250505050505090500191505060405180910390206040518263ffffffff167c0100000000000000000000000000000000000000000000000000000000028152600401808260001916600019168152602001915050600060405180830381600087803b158015611ce957600080fd5b505af1158015611cfd573d6000803e3d6000fd5b505050506040513d6000823e3d601f19601f820116820180604052506020811015611d2757600080fd5b810190808051640100000000811115611d3f57600080fd5b82810190506020810184811115611d5557600080fd5b8151856001820283011164010000000082111715611d7257600080fd5b505092919050505090509392505050565b60008273ffffffffffffffffffffffffffffffffffffffff1663ac09455383604051602001808260001916600019168152602001807f6e756d62657200000000000000000000000000000000000000000000000000008152506006019150506040516020818303038152906040526040518082805190602001908083835b602083101515611e265780518252602082019150602081019050602083039250611e01565b6001836020036101000a03801982511681845116808217855250505050505090500191505060405180910390206040518263ffffffff167c0100000000000000000000000000000000000000000000000000000000028152600401808260001916600019168152602001915050602060405180830381600087803b158015611ead57600080fd5b505af1158015611ec1573d6000803e3d6000fd5b505050506040513d6020811015611ed757600080fd5b8101908080519060200190929190505050905092915050565b8273ffffffffffffffffffffffffffffffffffffffff1663dde5b9d58360405160200180828152602001807f617474726962436f756e74000000000000000000000000000000000000000000815250600b019150506040516020818303038152906040526040518082805190602001908083835b602083101515611f895780518252602082019150602081019050602083039250611f64565b6001836020036101000a0380198251168184511680821785525050505050509050019150506040518091039020836040518363ffffffff167c010000000000000000000000000000000000000000000000000000000002815260040180836000191660001916815260200182815260200192505050600060405180830381600087803b15801561201857600080fd5b505af115801561202c573d6000803e3d6000fd5b50505050505050565b60008373ffffffffffffffffffffffffffffffffffffffff1663025ec81a848460405160200180838152602001828152602001807f6e756d6265720000000000000000000000000000000000000000000000000000815250600601925050506040516020818303038152906040526040518082805190602001908083835b6020831015156120d857805182526020820191506020810190506020830392506120b3565b6001836020036101000a03801982511681845116808217855250505050505090500191505060405180910390206040518263ffffffff167c0100000000000000000000000000000000000000000000000000000000028152600401808260001916600019168152602001915050602060405180830381600087803b15801561215f57600080fd5b505af1158015612173573d6000803e3d6000fd5b505050506040513d602081101561218957600080fd5b810190808051906020019092919050505090509392505050565b60008173ffffffffffffffffffffffffffffffffffffffff1663ac09455360405160200180807f746f74616c436f756e7400000000000000000000000000000000000000000000815250600a0190506040516020818303038152906040526040518082805190602001908083835b6020831015156122365780518252602082019150602081019050602083039250612211565b6001836020036101000a03801982511681845116808217855250505050505090500191505060405180910390206040518263ffffffff167c0100000000000000000000000000000000000000000000000000000000028152600401808260001916600019168152602001915050602060405180830381600087803b1580156122bd57600080fd5b505af11580156122d1573d6000803e3d6000fd5b505050506040513d60208110156122e757600080fd5b81019080805190602001909291905050509050919050565b8373ffffffffffffffffffffffffffffffffffffffff166325cf512d848460405160200180838152602001828152602001807f6e616d6500000000000000000000000000000000000000000000000000000000815250600401925050506040516020818303038152906040526040518082805190602001908083835b6020831015156123a0578051825260208201915060208101905060208303925061237b565b6001836020036101000a0380198251168184511680821785525050505050509050019150506040518091039020836040518363ffffffff167c0100000000000000000000000000000000000000000000000000000000028152600401808360001916600019168152602001826000191660001916815260200192505050600060405180830381600087803b15801561243757600080fd5b505af115801561244b573d6000803e3d6000fd5b5050505050505050565b60008273ffffffffffffffffffffffffffffffffffffffff1663025ec81a8360405160200180828152602001807f6e616d65000000000000000000000000000000000000000000000000000000008152506004019150506040516020818303038152906040526040518082805190602001908083835b6020831015156124f057805182526020820191506020810190506020830392506124cb565b6001836020036101000a03801982511681845116808217855250505050505090500191505060405180910390206040518263ffffffff167c0100000000000000000000000000000000000000000000000000000000028152600401808260001916600019168152602001915050602060405180830381600087803b15801561257757600080fd5b505af115801561258b573d6000803e3d6000fd5b505050506040513d60208110156125a157600080fd5b8101908080519060200190929190505050905092915050565b8273ffffffffffffffffffffffffffffffffffffffff16635a2bf25a8360405160200180828152602001807f70656e64696e674f776e65720000000000000000000000000000000000000000815250600c019150506040516020818303038152906040526040518082805190602001908083835b602083101515612653578051825260208201915060208101905060208303925061262e565b6001836020036101000a0380198251168184511680821785525050505050509050019150506040518091039020836040518363ffffffff167c01000000000000000000000000000000000000000000000000000000000281526004018083600019166000191681526020018273ffffffffffffffffffffffffffffffffffffffff1673ffffffffffffffffffffffffffffffffffffffff16815260200192505050600060405180830381600087803b15801561270e57600080fd5b505af1158015612722573d6000803e3d6000fd5b50505050505050565b600080600061273a8787610eb9565b915060018201905061274e878783886122ff565b61275a8787878461178e565b61276687878387611329565b612771878783611ef0565b8092505050949350505050565b8173ffffffffffffffffffffffffffffffffffffffff1663dde5b9d560405160200180807f746f74616c436f756e7400000000000000000000000000000000000000000000815250600a0190506040516020818303038152906040526040518082805190602001908083835b60208310151561280f57805182526020820191506020810190506020830392506127ea565b6001836020036101000a0380198251168184511680821785525050505050509050019150506040518091039020836040518363ffffffff167c010000000000000000000000000000000000000000000000000000000002815260040180836000191660001916815260200182815260200192505050600060405180830381600087803b15801561289e57600080fd5b505af11580156128b2573d6000803e3d6000fd5b505050505050565b600080821180156128d357506128cf836121a3565b8211155b8015612a50575060008373ffffffffffffffffffffffffffffffffffffffff16634c77e5ba8460405160200180828152602001807f6f776e65720000000000000000000000000000000000000000000000000000008152506005019150506040516020818303038152906040526040518082805190602001908083835b6020831015156129755780518252602082019150602081019050602083039250612950565b6001836020036101000a03801982511681845116808217855250505050505090500191505060405180910390206040518263ffffffff167c0100000000000000000000000000000000000000000000000000000000028152600401808260001916600019168152602001915050602060405180830381600087803b1580156129fc57600080fd5b505af1158015612a10573d6000803e3d6000fd5b505050506040513d6020811015612a2657600080fd5b810190808051906020019092919050505073ffffffffffffffffffffffffffffffffffffffff1614155b905092915050565b8273ffffffffffffffffffffffffffffffffffffffff1663dde5b9d583604051602001808260001916600019168152602001807f6e756d62657200000000000000000000000000000000000000000000000000008152506006019150506040516020818303038152906040526040518082805190602001908083835b602083101515612af95780518252602082019150602081019050602083039250612ad4565b6001836020036101000a0380198251168184511680821785525050505050509050019150506040518091039020836040518363ffffffff167c010000000000000000000000000000000000000000000000000000000002815260040180836000191660001916815260200182815260200192505050600060405180830381600087803b158015612b8857600080fd5b505af1158015612b9c573d6000803e3d6000fd5b50505050505050565b8273ffffffffffffffffffffffffffffffffffffffff16633eba9ed28360405160200180828152602001807f656e61626c6564000000000000000000000000000000000000000000000000008152506007019150506040516020818303038152906040526040518082805190602001908083835b602083101515612c3e5780518252602082019150602081019050602083039250612c19565b6001836020036101000a0380198251168184511680821785525050505050509050019150506040518091039020836040518363ffffffff167c01000000000000000000000000000000000000000000000000000000000281526004018083600019166000191681526020018215151515815260200192505050600060405180830381600087803b158015612cd157600080fd5b505af1158015612ce5573d6000803e3d6000fd5b505050505050505600a165627a7a72305820b2a2fae7ce193b12f0571387f7c87d68c348743c65b19d748b47dfdcc611a9f20029",
  "source": "pragma solidity ^0.4.23;\r\n\r\nimport \"./EternalStorage.sol\";\r\n\r\nlibrary VehicleManufacturerStorage {\r\n\r\n    function store (\r\n        address _storageAccount, \r\n        bytes32 _name,\r\n        address _owner, \r\n        bool _enabled) \r\n        public\r\n        returns (uint256) {\r\n        uint256 currentCount = getTotalCount(_storageAccount);\r\n        uint256 number = currentCount + 1;\r\n        setNumber(_storageAccount, _name, number);\r\n        setName(_storageAccount, number, _name);\r\n        setOwner(_storageAccount, number, _owner);\r\n        setEnabled(_storageAccount, number, _enabled);\r\n        setTotalCount(_storageAccount, number);\r\n        return number;\r\n    }\r\n\r\n    function storeAttribute (\r\n        address _storageAccount,\r\n        uint256 _number,\r\n        bytes32 _attributeName,\r\n        string _val) \r\n        public \r\n        returns (uint256) {\r\n\r\n        uint256 currentCount = getAttributeCount(_storageAccount, _number);\r\n        uint256 attribNumber = currentCount + 1;\r\n\r\n        setAttributeName(_storageAccount, _number, attribNumber, _attributeName);\r\n        setAttributeNumber(_storageAccount, _number, _attributeName, attribNumber);\r\n        setAttributeValue(_storageAccount, _number, attribNumber, _val);\r\n\r\n        setAttributeCount(_storageAccount, _number, attribNumber);\r\n        return attribNumber;\r\n    }\r\n\r\n    function setAttributeCount(address _storageAccount, uint256 _number, uint256 _count) public {\r\n        EternalStorage(_storageAccount).setUint256Value(\r\n            keccak256(abi.encodePacked(_number, \"attribCount\")), _count);   \r\n    }\r\n\r\n    function setAttributeNumber(address _storageAccount, uint256 _number, bytes32 _attributeName, uint256 _attribNumber) public {\r\n        EternalStorage(_storageAccount).setUint256Value(\r\n            keccak256(abi.encodePacked(_number, _attributeName, \"number\")), _attribNumber);   \r\n    }   \r\n\r\n    function setAttributeName(address _storageAccount, uint256 _number, uint256 _attribNumber, bytes32 _attributeName) public {\r\n        EternalStorage(_storageAccount).setBytes32Value(\r\n            keccak256(abi.encodePacked(_number, _attribNumber, \"name\")), _attributeName);   \r\n    }  \r\n\r\n    function setAttributeValue(address _storageAccount, uint256 _number, uint256 _attribNumber, string _val) public {\r\n        EternalStorage(_storageAccount).setStringValue(\r\n            keccak256(abi.encodePacked(_number, _attribNumber, \"value\")), _val);   \r\n    }    \r\n\r\n    function getAttributeNumber(address _storageAccount, uint256 _number, bytes32 _attributeName) \r\n        public view returns(uint256) {\r\n        return EternalStorage(_storageAccount).getUint256Value(\r\n            keccak256(abi.encodePacked(_number, _attributeName, \"number\")));   \r\n    }\r\n\r\n    function getAttributeName(address _storageAccount,  uint256 _number, uint256 _attribNumber) \r\n        public view returns(bytes32) {\r\n        return EternalStorage(_storageAccount).getBytes32Value(\r\n            keccak256(abi.encodePacked(_number, _attribNumber, \"number\")));   \r\n    }\r\n\r\n    function getAttributeValue(address _storageAccount,  uint256 _number, uint256 _attribNumber) \r\n        public view returns(string) {\r\n        return EternalStorage(_storageAccount).getStringValue(\r\n            keccak256(abi.encodePacked(_number, _attribNumber, \"value\")));   \r\n    }\r\n\r\n    function getAttributeCount(address _storageAccount, uint256 _number) \r\n        public view returns(uint256) {\r\n        return EternalStorage(_storageAccount).getUint256Value(\r\n            keccak256(abi.encodePacked(_number, \"attribCount\")));   \r\n    }    \r\n\r\n    function getTotalCount(address _storageAccount) public view returns(uint256) {\r\n        return EternalStorage(_storageAccount).getUint256Value(\r\n            keccak256(abi.encodePacked(\"totalCount\")));\r\n    } \r\n\r\n    function getName(address _storageAccount, uint256 _number) public view returns(bytes32) {\r\n        return EternalStorage(_storageAccount).getBytes32Value(\r\n            keccak256(abi.encodePacked(_number, \"name\")));\r\n    }\r\n\r\n    function getNumber(address _storageAccount, bytes32 _name) public view returns(uint256) {\r\n        return EternalStorage(_storageAccount).getUint256Value(\r\n            keccak256(abi.encodePacked(_name, \"number\")));\r\n    }\r\n\r\n    function getOwner(address _storageAccount, uint256 _number) public view returns(address) {\r\n        return EternalStorage(_storageAccount).getAddressValue(\r\n            keccak256(abi.encodePacked(_number, \"owner\")));\r\n    } \r\n\r\n    function getEnabled(address _storageAccount, uint256 _number) public view returns(bool) {\r\n        return EternalStorage(_storageAccount).getBooleanValue(\r\n            keccak256(abi.encodePacked(_number, \"enabled\")));\r\n    }           \r\n\r\n    function exists(address _storageAccount, uint256 _number) public view returns(bool) {\r\n        return\r\n            _number > 0 && _number <= getTotalCount(_storageAccount) &&\r\n            EternalStorage(_storageAccount).getAddressValue(keccak256(abi.encodePacked(_number, \"owner\"))) != 0;\r\n    } \r\n\r\n    function getTransferKey(address _storageAccount, uint256 _number) public view returns(bytes32) {\r\n        return EternalStorage(_storageAccount).getBytes32Value(\r\n            keccak256(abi.encodePacked(_number, \"transferKey\")));\r\n    }    \r\n\r\n    function getPendingOwner(address _storageAccount, uint256 _number) public view returns(address) {\r\n        return EternalStorage(_storageAccount).getAddressValue(\r\n            keccak256(abi.encodePacked(_number, \"pendingOwner\")));\r\n    } \r\n\r\n    function setTotalCount(address _storageAccount, uint256 _count) public {\r\n        EternalStorage(_storageAccount).setUint256Value(\r\n            keccak256(abi.encodePacked(\"totalCount\")), _count);\r\n    } \r\n\r\n    function setName(address _storageAccount, uint256 _number, bytes32 _name) public {\r\n        EternalStorage(_storageAccount).setBytes32Value(\r\n            keccak256(abi.encodePacked(_number, \"name\")), _name);\r\n    }\r\n\r\n    function setNumber(address _storageAccount, bytes32 _name, uint _number) public {\r\n        EternalStorage(_storageAccount).setUint256Value(\r\n            keccak256(abi.encodePacked(_name, \"number\")), _number);\r\n    }     \r\n\r\n    function setOwner(address _storageAccount, uint256 _number, address _owner) public {\r\n        EternalStorage(_storageAccount).setAddressValue(\r\n            keccak256(abi.encodePacked(_number, \"owner\")), _owner);\r\n    } \r\n\r\n    function setEnabled(address _storageAccount, uint256 _number, bool _enabled) public {\r\n        EternalStorage(_storageAccount).setBooleanValue(\r\n            keccak256(abi.encodePacked(_number, \"enabled\")), _enabled);\r\n    }          \r\n\r\n    function setPendingOwner(address _storageAccount, uint256 _number, address _pendingOwner) public {\r\n        EternalStorage(_storageAccount).setAddressValue(\r\n            keccak256(abi.encodePacked(_number, \"pendingOwner\")), _pendingOwner);\r\n    }   \r\n\r\n    function setTransferKey(address _storageAccount, uint256 _number, bytes32 _keyHash) public {\r\n        EternalStorage(_storageAccount).setBytes32Value(\r\n            keccak256(abi.encodePacked(_number, \"transferKey\")), _keyHash);\r\n    }    \r\n\r\n}",
  "sourcePath": "C:\\dev\\repos\\VehicleMaintenanceRegistry\\src\\VMR\\contracts\\VehicleManufacturerStorage.sol",
  "compiler": {
    "name": "solc",
    "version": "0.4.24+commit.e67f0147.Emscripten.clang"
  },
  "schemaVersion": "2.0.1",
  "updatedAt": "2018-07-10T21:01:42.019Z"
}