{
  "contractName": "VehicleManufacturerRegistry",
  "abi": [
    {
      "constant": false,
      "inputs": [],
      "name": "claimOwnership",
      "outputs": [],
      "payable": false,
      "stateMutability": "nonpayable",
      "type": "function"
    },
    {
      "constant": false,
      "inputs": [],
      "name": "renounceOwnership",
      "outputs": [],
      "payable": false,
      "stateMutability": "nonpayable",
      "type": "function"
    },
    {
      "constant": true,
      "inputs": [],
      "name": "owner",
      "outputs": [
        {
          "name": "",
          "type": "address"
        }
      ],
      "payable": false,
      "stateMutability": "view",
      "type": "function"
    },
    {
      "constant": true,
      "inputs": [],
      "name": "pendingOwner",
      "outputs": [
        {
          "name": "",
          "type": "address"
        }
      ],
      "payable": false,
      "stateMutability": "view",
      "type": "function"
    },
    {
      "constant": false,
      "inputs": [
        {
          "name": "newOwner",
          "type": "address"
        }
      ],
      "name": "transferOwnership",
      "outputs": [],
      "payable": false,
      "stateMutability": "nonpayable",
      "type": "function"
    },
    {
      "inputs": [
        {
          "name": "_vehicleManufacturerStorageAddress",
          "type": "address"
        }
      ],
      "payable": false,
      "stateMutability": "nonpayable",
      "type": "constructor"
    },
    {
      "anonymous": false,
      "inputs": [
        {
          "indexed": false,
          "name": "_name",
          "type": "bytes32"
        }
      ],
      "name": "ManufacturerRegistered",
      "type": "event"
    },
    {
      "anonymous": false,
      "inputs": [
        {
          "indexed": false,
          "name": "_name",
          "type": "bytes32"
        }
      ],
      "name": "ManufacturerEnabled",
      "type": "event"
    },
    {
      "anonymous": false,
      "inputs": [
        {
          "indexed": false,
          "name": "_name",
          "type": "bytes32"
        }
      ],
      "name": "ManufacturerDisabled",
      "type": "event"
    },
    {
      "anonymous": false,
      "inputs": [
        {
          "indexed": false,
          "name": "_name",
          "type": "bytes32"
        },
        {
          "indexed": false,
          "name": "_from",
          "type": "address"
        },
        {
          "indexed": false,
          "name": "_to",
          "type": "address"
        }
      ],
      "name": "ManufacturerOwnershipTransferRequest",
      "type": "event"
    },
    {
      "anonymous": false,
      "inputs": [
        {
          "indexed": false,
          "name": "_name",
          "type": "bytes32"
        },
        {
          "indexed": false,
          "name": "_newOwner",
          "type": "address"
        }
      ],
      "name": "ManufacturerOwnershipTransferAccepted",
      "type": "event"
    },
    {
      "anonymous": false,
      "inputs": [
        {
          "indexed": true,
          "name": "previousOwner",
          "type": "address"
        }
      ],
      "name": "OwnershipRenounced",
      "type": "event"
    },
    {
      "anonymous": false,
      "inputs": [
        {
          "indexed": true,
          "name": "previousOwner",
          "type": "address"
        },
        {
          "indexed": true,
          "name": "newOwner",
          "type": "address"
        }
      ],
      "name": "OwnershipTransferred",
      "type": "event"
    },
    {
      "constant": true,
      "inputs": [
        {
          "name": "_name",
          "type": "bytes32"
        }
      ],
      "name": "isRegistered",
      "outputs": [
        {
          "name": "",
          "type": "bool"
        }
      ],
      "payable": false,
      "stateMutability": "view",
      "type": "function"
    },
    {
      "constant": true,
      "inputs": [
        {
          "name": "_name",
          "type": "bytes32"
        }
      ],
      "name": "isEnabled",
      "outputs": [
        {
          "name": "",
          "type": "bool"
        }
      ],
      "payable": false,
      "stateMutability": "view",
      "type": "function"
    },
    {
      "constant": false,
      "inputs": [
        {
          "name": "_name",
          "type": "bytes32"
        },
        {
          "name": "_owner",
          "type": "address"
        }
      ],
      "name": "registerManufacturer",
      "outputs": [],
      "payable": true,
      "stateMutability": "payable",
      "type": "function"
    },
    {
      "constant": false,
      "inputs": [
        {
          "name": "_name",
          "type": "bytes32"
        }
      ],
      "name": "disableManufacturer",
      "outputs": [],
      "payable": true,
      "stateMutability": "payable",
      "type": "function"
    },
    {
      "constant": false,
      "inputs": [
        {
          "name": "_name",
          "type": "bytes32"
        }
      ],
      "name": "enableManufacturer",
      "outputs": [],
      "payable": true,
      "stateMutability": "payable",
      "type": "function"
    },
    {
      "constant": false,
      "inputs": [
        {
          "name": "_name",
          "type": "bytes32"
        },
        {
          "name": "_newOwner",
          "type": "address"
        },
        {
          "name": "_keyHash",
          "type": "bytes32"
        }
      ],
      "name": "transferManufacturerOwnership",
      "outputs": [],
      "payable": true,
      "stateMutability": "payable",
      "type": "function"
    },
    {
      "constant": false,
      "inputs": [
        {
          "name": "_name",
          "type": "bytes32"
        },
        {
          "name": "_keyHash",
          "type": "bytes32"
        }
      ],
      "name": "acceptManufacturerOwnership",
      "outputs": [],
      "payable": true,
      "stateMutability": "payable",
      "type": "function"
    }
  ],
  "bytecode": "0x608060405234801561001057600080fd5b50604051602080611c6c83398101806040528101908080519060200190929190505050336000806101000a81548173ffffffffffffffffffffffffffffffffffffffff021916908373ffffffffffffffffffffffffffffffffffffffff16021790555080600260006101000a81548173ffffffffffffffffffffffffffffffffffffffff021916908373ffffffffffffffffffffffffffffffffffffffff16021790555050611ba8806100c46000396000f3006080604052600436106100ba576000357c0100000000000000000000000000000000000000000000000000000000900463ffffffff1680630610e037146100bf57806327258b22146101085780634e71e0c81461015157806361918eb514610168578063715018a6146101ac57806379f3f7a1146101c35780638da5cb5b146101e7578063acc018901461023e578063bfba7b3314610290578063cd9bed95146102b4578063e30c3978146102e6578063f2fde38b1461033d575b600080fd5b3480156100cb57600080fd5b506100ee6004803603810190808035600019169060200190929190505050610380565b604051808215151515815260200191505060405180910390f35b34801561011457600080fd5b50610137600480360381019080803560001916906020019092919050505061048d565b604051808215151515815260200191505060405180910390f35b34801561015d57600080fd5b5061016661059a565b005b6101aa6004803603810190808035600019169060200190929190803573ffffffffffffffffffffffffffffffffffffffff169060200190929190505050610739565b005b3480156101b857600080fd5b506101c1610be5565b005b6101e56004803603810190808035600019169060200190929190505050610ce7565b005b3480156101f357600080fd5b506101fc610e72565b604051808273ffffffffffffffffffffffffffffffffffffffff1673ffffffffffffffffffffffffffffffffffffffff16815260200191505060405180910390f35b61028e6004803603810190808035600019169060200190929190803573ffffffffffffffffffffffffffffffffffffffff1690602001909291908035600019169060200190929190505050610e97565b005b6102b26004803603810190808035600019169060200190929190505050611420565b005b6102e4600480360381019080803560001916906020019092919080356000191690602001909291905050506115ab565b005b3480156102f257600080fd5b506102fb611ab7565b604051808273ffffffffffffffffffffffffffffffffffffffff1673ffffffffffffffffffffffffffffffffffffffff16815260200191505060405180910390f35b34801561034957600080fd5b5061037e600480360381019080803573ffffffffffffffffffffffffffffffffffffffff169060200190929190505050611add565b005b600073__VehicleManufacturerStorage____________63bc741bed600260009054906101000a900473ffffffffffffffffffffffffffffffffffffffff16846040518363ffffffff167c0100000000000000000000000000000000000000000000000000000000028152600401808373ffffffffffffffffffffffffffffffffffffffff1673ffffffffffffffffffffffffffffffffffffffff16815260200182600019166000191681526020019250505060206040518083038186803b15801561044b57600080fd5b505af415801561045f573d6000803e3d6000fd5b505050506040513d602081101561047557600080fd5b81019080805190602001909291905050509050919050565b600073__VehicleManufacturerStorage____________6345120511600260009054906101000a900473ffffffffffffffffffffffffffffffffffffffff16846040518363ffffffff167c0100000000000000000000000000000000000000000000000000000000028152600401808373ffffffffffffffffffffffffffffffffffffffff1673ffffffffffffffffffffffffffffffffffffffff16815260200182600019166000191681526020019250505060206040518083038186803b15801561055857600080fd5b505af415801561056c573d6000803e3d6000fd5b505050506040513d602081101561058257600080fd5b81019080805190602001909291905050509050919050565b600160009054906101000a900473ffffffffffffffffffffffffffffffffffffffff1673ffffffffffffffffffffffffffffffffffffffff163373ffffffffffffffffffffffffffffffffffffffff161415156105f657600080fd5b600160009054906101000a900473ffffffffffffffffffffffffffffffffffffffff1673ffffffffffffffffffffffffffffffffffffffff166000809054906101000a900473ffffffffffffffffffffffffffffffffffffffff1673ffffffffffffffffffffffffffffffffffffffff167f8be0079c531659141344cd1fd0a4f28419497f9722a3daafe3b4186f6b6457e060405160405180910390a3600160009054906101000a900473ffffffffffffffffffffffffffffffffffffffff166000806101000a81548173ffffffffffffffffffffffffffffffffffffffff021916908373ffffffffffffffffffffffffffffffffffffffff1602179055506000600160006101000a81548173ffffffffffffffffffffffffffffffffffffffff021916908373ffffffffffffffffffffffffffffffffffffffff160217905550565b6000809054906101000a900473ffffffffffffffffffffffffffffffffffffffff1673ffffffffffffffffffffffffffffffffffffffff163373ffffffffffffffffffffffffffffffffffffffff1614151561079457600080fd5b8173__VehicleManufacturerStorage____________6345120511600260009054906101000a900473ffffffffffffffffffffffffffffffffffffffff16836040518363ffffffff167c0100000000000000000000000000000000000000000000000000000000028152600401808373ffffffffffffffffffffffffffffffffffffffff1673ffffffffffffffffffffffffffffffffffffffff16815260200182600019166000191681526020019250505060206040518083038186803b15801561085e57600080fd5b505af4158015610872573d6000803e3d6000fd5b505050506040513d602081101561088857600080fd5b8101908080519060200190929190505050151515610934576040517f08c379a000000000000000000000000000000000000000000000000000000000815260040180806020018281038252602b8152602001807f4d616e756661637475726572206d757374206e6f7420616c726561647920626581526020017f207265676973746572656400000000000000000000000000000000000000000081525060400191505060405180910390fd5b73__VehicleManufacturerStorage____________63cbb19ac0600260009054906101000a900473ffffffffffffffffffffffffffffffffffffffff16853060016040518563ffffffff167c0100000000000000000000000000000000000000000000000000000000028152600401808573ffffffffffffffffffffffffffffffffffffffff1673ffffffffffffffffffffffffffffffffffffffff16815260200184600019166000191681526020018373ffffffffffffffffffffffffffffffffffffffff1673ffffffffffffffffffffffffffffffffffffffff1681526020018215151515815260200194505050505060006040518083038186803b158015610a3e57600080fd5b505af4158015610a52573d6000803e3d6000fd5b505050503073ffffffffffffffffffffffffffffffffffffffff168273ffffffffffffffffffffffffffffffffffffffff16141515610ba15773__VehicleManufacturerStorage____________638b8fa92f600260009054906101000a900473ffffffffffffffffffffffffffffffffffffffff1685856040518463ffffffff167c0100000000000000000000000000000000000000000000000000000000028152600401808473ffffffffffffffffffffffffffffffffffffffff1673ffffffffffffffffffffffffffffffffffffffff16815260200183600019166000191681526020018273ffffffffffffffffffffffffffffffffffffffff1673ffffffffffffffffffffffffffffffffffffffff168152602001935050505060006040518083038186803b158015610b8857600080fd5b505af4158015610b9c573d6000803e3d6000fd5b505050505b7f609592dd74d4a989c42f9f7e517a8498a6fe30a610e5fbf7f8df3344b1c5a6648360405180826000191660001916815260200191505060405180910390a1505050565b6000809054906101000a900473ffffffffffffffffffffffffffffffffffffffff1673ffffffffffffffffffffffffffffffffffffffff163373ffffffffffffffffffffffffffffffffffffffff16141515610c4057600080fd5b6000809054906101000a900473ffffffffffffffffffffffffffffffffffffffff1673ffffffffffffffffffffffffffffffffffffffff167ff8df31144d9c2f0f6b59d69b8b98abd5459d07f2742c4df920b25aae33c6482060405160405180910390a260008060006101000a81548173ffffffffffffffffffffffffffffffffffffffff021916908373ffffffffffffffffffffffffffffffffffffffff160217905550565b6000809054906101000a900473ffffffffffffffffffffffffffffffffffffffff1673ffffffffffffffffffffffffffffffffffffffff163373ffffffffffffffffffffffffffffffffffffffff16141515610d4257600080fd5b73__VehicleManufacturerStorage____________63b8754dd1600260009054906101000a900473ffffffffffffffffffffffffffffffffffffffff168360016040518463ffffffff167c0100000000000000000000000000000000000000000000000000000000028152600401808473ffffffffffffffffffffffffffffffffffffffff1673ffffffffffffffffffffffffffffffffffffffff168152602001836000191660001916815260200182151515158152602001935050505060006040518083038186803b158015610e1857600080fd5b505af4158015610e2c573d6000803e3d6000fd5b505050507f228ea707ffe35bf7295db73bc8c9e56eba2bbc705a6c9f9b0ac645f7b75869708160405180826000191660001916815260200191505060405180910390a150565b6000809054906101000a900473ffffffffffffffffffffffffffffffffffffffff1681565b6000833373ffffffffffffffffffffffffffffffffffffffff1673__VehicleManufacturerStorage____________6369c5b2b8600260009054906101000a900473ffffffffffffffffffffffffffffffffffffffff16846040518363ffffffff167c0100000000000000000000000000000000000000000000000000000000028152600401808373ffffffffffffffffffffffffffffffffffffffff1673ffffffffffffffffffffffffffffffffffffffff16815260200182600019166000191681526020019250505060206040518083038186803b158015610f7a57600080fd5b505af4158015610f8e573d6000803e3d6000fd5b505050506040513d6020811015610fa457600080fd5b810190808051906020019092919050505073ffffffffffffffffffffffffffffffffffffffff16141515611066576040517f08c379a00000000000000000000000000000000000000000000000000000000081526004018080602001828103825260388152602001807f4f6e6c7920746865206f776e6572206f6620746865206d616e7566616374757281526020017f65722063616e20706572666f726d2074686973207461736b000000000000000081525060400191505060405180910390fd5b73__VehicleManufacturerStorage____________6369c5b2b8600260009054906101000a900473ffffffffffffffffffffffffffffffffffffffff16876040518363ffffffff167c0100000000000000000000000000000000000000000000000000000000028152600401808373ffffffffffffffffffffffffffffffffffffffff1673ffffffffffffffffffffffffffffffffffffffff16815260200182600019166000191681526020019250505060206040518083038186803b15801561112f57600080fd5b505af4158015611143573d6000803e3d6000fd5b505050506040513d602081101561115957600080fd5b8101908080519060200190929190505050915073__VehicleManufacturerStorage____________638b8fa92f600260009054906101000a900473ffffffffffffffffffffffffffffffffffffffff1687876040518463ffffffff167c0100000000000000000000000000000000000000000000000000000000028152600401808473ffffffffffffffffffffffffffffffffffffffff1673ffffffffffffffffffffffffffffffffffffffff16815260200183600019166000191681526020018273ffffffffffffffffffffffffffffffffffffffff1673ffffffffffffffffffffffffffffffffffffffff168152602001935050505060006040518083038186803b15801561126957600080fd5b505af415801561127d573d6000803e3d6000fd5b5050505073__VehicleManufacturerStorage____________63d93b8c14600260009054906101000a900473ffffffffffffffffffffffffffffffffffffffff1687866040518463ffffffff167c0100000000000000000000000000000000000000000000000000000000028152600401808473ffffffffffffffffffffffffffffffffffffffff1673ffffffffffffffffffffffffffffffffffffffff16815260200183600019166000191681526020018260001916600019168152602001935050505060006040518083038186803b15801561135a57600080fd5b505af415801561136e573d6000803e3d6000fd5b505050507fada589b9351a396c2e7312d4ee9fc2bcf8505233ca0766798e54bd94989ebf588583866040518084600019166000191681526020018373ffffffffffffffffffffffffffffffffffffffff1673ffffffffffffffffffffffffffffffffffffffff1681526020018273ffffffffffffffffffffffffffffffffffffffff1673ffffffffffffffffffffffffffffffffffffffff168152602001935050505060405180910390a15050505050565b6000809054906101000a900473ffffffffffffffffffffffffffffffffffffffff1673ffffffffffffffffffffffffffffffffffffffff163373ffffffffffffffffffffffffffffffffffffffff1614151561147b57600080fd5b73__VehicleManufacturerStorage____________63b8754dd1600260009054906101000a900473ffffffffffffffffffffffffffffffffffffffff168360006040518463ffffffff167c0100000000000000000000000000000000000000000000000000000000028152600401808473ffffffffffffffffffffffffffffffffffffffff1673ffffffffffffffffffffffffffffffffffffffff168152602001836000191660001916815260200182151515158152602001935050505060006040518083038186803b15801561155157600080fd5b505af4158015611565573d6000803e3d6000fd5b505050507f06323fa6050c06977a789317f58e2827ab1390a6e26d5dc9e5dadca320611b818160405180826000191660001916815260200191505060405180910390a150565b813373ffffffffffffffffffffffffffffffffffffffff1673__VehicleManufacturerStorage____________63bb544060600260009054906101000a900473ffffffffffffffffffffffffffffffffffffffff16846040518363ffffffff167c0100000000000000000000000000000000000000000000000000000000028152600401808373ffffffffffffffffffffffffffffffffffffffff1673ffffffffffffffffffffffffffffffffffffffff16815260200182600019166000191681526020019250505060206040518083038186803b15801561168c57600080fd5b505af41580156116a0573d6000803e3d6000fd5b505050506040513d60208110156116b657600080fd5b810190808051906020019092919050505073ffffffffffffffffffffffffffffffffffffffff16141515611778576040517f08c379a00000000000000000000000000000000000000000000000000000000081526004018080602001828103825260408152602001807f4f6e6c79207468652070656e64696e67206f776e6572206f6620746865206d6181526020017f6e7566616374757265722063616e20706572666f726d2074686973207461736b81525060400191505060405180910390fd5b8282600073__VehicleManufacturerStorage____________639f7d4a2f600260009054906101000a900473ffffffffffffffffffffffffffffffffffffffff16856040518363ffffffff167c0100000000000000000000000000000000000000000000000000000000028152600401808373ffffffffffffffffffffffffffffffffffffffff1673ffffffffffffffffffffffffffffffffffffffff16815260200182600019166000191681526020019250505060206040518083038186803b15801561184557600080fd5b505af4158015611859573d6000803e3d6000fd5b505050506040513d602081101561186f57600080fd5b8101908080519060200190929190505050905081600019168160001916141515611927576040517f08c379a00000000000000000000000000000000000000000000000000000000081526004018080602001828103825260358152602001807f546865206b65792070726f7669646564206d757374206d61746368207468652081526020017f6578697374696e67207472616e73666572206b6579000000000000000000000081525060400191505060405180910390fd5b73__VehicleManufacturerStorage____________630f1ed0c6600260009054906101000a900473ffffffffffffffffffffffffffffffffffffffff1688336040518463ffffffff167c0100000000000000000000000000000000000000000000000000000000028152600401808473ffffffffffffffffffffffffffffffffffffffff1673ffffffffffffffffffffffffffffffffffffffff16815260200183600019166000191681526020018273ffffffffffffffffffffffffffffffffffffffff1673ffffffffffffffffffffffffffffffffffffffff168152602001935050505060006040518083038186803b158015611a2457600080fd5b505af4158015611a38573d6000803e3d6000fd5b505050507f6f0f4baa8b626fcd5e98d6472e00bea0c4c2da5d3389b0bb5fb178034acdc33086336040518083600019166000191681526020018273ffffffffffffffffffffffffffffffffffffffff1673ffffffffffffffffffffffffffffffffffffffff1681526020019250505060405180910390a1505050505050565b600160009054906101000a900473ffffffffffffffffffffffffffffffffffffffff1681565b6000809054906101000a900473ffffffffffffffffffffffffffffffffffffffff1673ffffffffffffffffffffffffffffffffffffffff163373ffffffffffffffffffffffffffffffffffffffff16141515611b3857600080fd5b80600160006101000a81548173ffffffffffffffffffffffffffffffffffffffff021916908373ffffffffffffffffffffffffffffffffffffffff160217905550505600a165627a7a72305820df5f4815772f86992cd2ad98151700e76906687d81b6283a7232279c690131b20029",
  "source": "pragma solidity ^0.4.23;\r\n\r\nimport \"../node_modules/openzeppelin-solidity/contracts/ownership/Claimable.sol\";\r\nimport \"./VehicleManufacturerStorage.sol\";\r\nimport \"./IVehicleManufacturerRegistry.sol\";\r\n\r\ncontract VehicleManufacturerRegistry is IVehicleManufacturerRegistry, Claimable {\r\n\r\n    address internal vehicleManufacturerStorageAddress;\r\n\r\n    constructor(address _vehicleManufacturerStorageAddress) public {\r\n        vehicleManufacturerStorageAddress = _vehicleManufacturerStorageAddress;\r\n    }\r\n\r\n    event ManufacturerRegistered(bytes32 _name);\r\n    event ManufacturerEnabled(bytes32 _name);\r\n    event ManufacturerDisabled(bytes32 _name);\r\n    event ManufacturerOwnershipTransferRequest(bytes32 _name, address _from, address _to);\r\n    event ManufacturerOwnershipTransferAccepted(bytes32 _name, address _newOwner);\r\n\r\n\r\n    modifier isARegisteredManufacturer(bytes32 _name) {\r\n        require(VehicleManufacturerStorage.exists(vehicleManufacturerStorageAddress, _name), \"Manufacturer must be registered\");\r\n        _;\r\n    }\r\n\r\n    modifier manufacturerMustBeEnabled(bytes32 _name) {\r\n        require(VehicleManufacturerStorage.getEnabled(vehicleManufacturerStorageAddress, _name), \"Manufacturer must be enabled\");\r\n        _;\r\n    }  \r\n\r\n    modifier manufacturerIsNotRegistered(bytes32 _name) {\r\n        require(!VehicleManufacturerStorage.exists(vehicleManufacturerStorageAddress, _name), \"Manufacturer must not already be registered\");\r\n        _;\r\n    }\r\n\r\n    modifier onlyManufacturerOwner(bytes32 _name) {\r\n        require(\r\n            VehicleManufacturerStorage.getOwner(vehicleManufacturerStorageAddress, _name) == msg.sender, \r\n            \"Only the owner of the manufacturer can perform this task\");\r\n        _;\r\n    }\r\n\r\n    modifier onlyPendingManufacturerOwner(bytes32 _name) {\r\n        require(\r\n            VehicleManufacturerStorage.getPendingOwner(vehicleManufacturerStorageAddress, _name) == msg.sender, \r\n            \"Only the pending owner of the manufacturer can perform this task\");\r\n        _;\r\n    }    \r\n\r\n    modifier manufacturerTransferKeyMatches(bytes32 _name, bytes32 _keyHash) {\r\n        bytes32 transferKey = VehicleManufacturerStorage.getTransferKey(vehicleManufacturerStorageAddress, _name);\r\n        require(transferKey == _keyHash, \"The key provided must match the existing transfer key\");\r\n        _;        \r\n    }       \r\n\r\n    function isRegistered(bytes32 _name) external view returns (bool) {\r\n        return VehicleManufacturerStorage.exists(vehicleManufacturerStorageAddress, _name);\r\n    }\r\n\r\n    function isEnabled(bytes32 _name) external view returns (bool) {\r\n        return VehicleManufacturerStorage.getEnabled(vehicleManufacturerStorageAddress, _name);\r\n    }\r\n    \r\n    function registerManufacturer(bytes32 _name, address _owner) \r\n        external payable\r\n        onlyOwner()\r\n        manufacturerIsNotRegistered(_name)\r\n         {\r\n        VehicleManufacturerStorage.storeManufacturer(vehicleManufacturerStorageAddress, _name, address(this), true);\r\n        if(_owner != address(this)){\r\n            VehicleManufacturerStorage.setPendingOwner(vehicleManufacturerStorageAddress, _name, _owner);\r\n        }\r\n        emit ManufacturerRegistered(_name);\r\n    }\r\n\r\n    function disableManufacturer(bytes32 _name) \r\n        external payable\r\n        onlyOwner()\r\n         {\r\n        VehicleManufacturerStorage.setEnabled(vehicleManufacturerStorageAddress, _name, false);    \r\n        emit ManufacturerDisabled(_name);\r\n    }\r\n\r\n    function enableManufacturer(bytes32 _name) \r\n        external payable \r\n        onlyOwner()\r\n        {\r\n        VehicleManufacturerStorage.setEnabled(vehicleManufacturerStorageAddress, _name, true);    \r\n        emit ManufacturerEnabled(_name);\r\n    }\r\n\r\n    function transferManufacturerOwnership(bytes32 _name, address _newOwner, bytes32 _keyHash) \r\n        external payable \r\n        onlyManufacturerOwner(_name)\r\n        {\r\n        address currentOwner = VehicleManufacturerStorage.getOwner(vehicleManufacturerStorageAddress, _name);  \r\n        VehicleManufacturerStorage.setPendingOwner(vehicleManufacturerStorageAddress, _name, _newOwner);  \r\n        VehicleManufacturerStorage.setTransferKey(vehicleManufacturerStorageAddress, _name, _keyHash);  \r\n        emit ManufacturerOwnershipTransferRequest(_name, currentOwner, _newOwner);\r\n    }\r\n\r\n    function acceptManufacturerOwnership(bytes32 _name, bytes32 _keyHash) \r\n        external payable\r\n        onlyPendingManufacturerOwner(_name)\r\n        manufacturerTransferKeyMatches(_name, _keyHash)\r\n         {\r\n        VehicleManufacturerStorage.setOwner(vehicleManufacturerStorageAddress, _name, msg.sender);\r\n        emit ManufacturerOwnershipTransferAccepted(_name, msg.sender);\r\n    } \r\n}",
  "sourcePath": "C:\\dev\\repos\\VehicleMaintenanceRegistry\\src\\VMR\\contracts\\VehicleManufacturerRegistry.sol",
  "compiler": {
    "name": "solc",
    "version": "0.4.24+commit.e67f0147.Emscripten.clang"
  },
  "schemaVersion": "2.0.1",
  "updatedAt": "2018-07-06T16:01:22.315Z"
}