{
  "contractName": "VehicleRegistry",
  "abi": [
    {
      "constant": true,
      "inputs": [],
      "name": "getMemberRegistrationFee",
      "outputs": [
        {
          "name": "",
          "type": "uint256"
        }
      ],
      "payable": false,
      "stateMutability": "view",
      "type": "function"
    },
    {
      "constant": true,
      "inputs": [
        {
          "name": "_memberId",
          "type": "bytes32"
        }
      ],
      "name": "getMemberNumber",
      "outputs": [
        {
          "name": "",
          "type": "uint256"
        }
      ],
      "payable": false,
      "stateMutability": "view",
      "type": "function"
    },
    {
      "constant": false,
      "inputs": [
        {
          "name": "_memberNumber",
          "type": "uint256"
        },
        {
          "name": "_attributeNumber",
          "type": "uint256"
        },
        {
          "name": "_attributeType",
          "type": "bytes32"
        },
        {
          "name": "_attributeValue",
          "type": "bytes32"
        }
      ],
      "name": "setMemberAttribute",
      "outputs": [],
      "payable": true,
      "stateMutability": "payable",
      "type": "function"
    },
    {
      "constant": true,
      "inputs": [
        {
          "name": "_memberNumber",
          "type": "uint256"
        },
        {
          "name": "_attributeNumber",
          "type": "uint256"
        }
      ],
      "name": "getMemberAttribute",
      "outputs": [
        {
          "name": "attributeNumber",
          "type": "uint256"
        },
        {
          "name": "attributeName",
          "type": "bytes32"
        },
        {
          "name": "attributeType",
          "type": "bytes32"
        },
        {
          "name": "attributeValue",
          "type": "bytes32"
        }
      ],
      "payable": false,
      "stateMutability": "view",
      "type": "function"
    },
    {
      "constant": true,
      "inputs": [],
      "name": "getStorageAddress",
      "outputs": [
        {
          "name": "",
          "type": "address"
        }
      ],
      "payable": false,
      "stateMutability": "view",
      "type": "function"
    },
    {
      "constant": false,
      "inputs": [],
      "name": "unpause",
      "outputs": [],
      "payable": false,
      "stateMutability": "nonpayable",
      "type": "function"
    },
    {
      "constant": true,
      "inputs": [],
      "name": "getMemberTotalCount",
      "outputs": [
        {
          "name": "",
          "type": "uint256"
        }
      ],
      "payable": false,
      "stateMutability": "view",
      "type": "function"
    },
    {
      "constant": false,
      "inputs": [
        {
          "name": "_memberNumber",
          "type": "uint256"
        },
        {
          "name": "_keyHash",
          "type": "bytes32"
        }
      ],
      "name": "acceptMemberOwnership",
      "outputs": [],
      "payable": true,
      "stateMutability": "payable",
      "type": "function"
    },
    {
      "constant": false,
      "inputs": [
        {
          "name": "_memberNumber",
          "type": "uint256"
        }
      ],
      "name": "enableMember",
      "outputs": [],
      "payable": true,
      "stateMutability": "payable",
      "type": "function"
    },
    {
      "constant": false,
      "inputs": [],
      "name": "claimOwnership",
      "outputs": [],
      "payable": false,
      "stateMutability": "nonpayable",
      "type": "function"
    },
    {
      "constant": false,
      "inputs": [
        {
          "name": "_storageAddress",
          "type": "address"
        }
      ],
      "name": "setStorageAddress",
      "outputs": [],
      "payable": false,
      "stateMutability": "nonpayable",
      "type": "function"
    },
    {
      "constant": true,
      "inputs": [],
      "name": "paused",
      "outputs": [
        {
          "name": "",
          "type": "bool"
        }
      ],
      "payable": false,
      "stateMutability": "view",
      "type": "function"
    },
    {
      "constant": false,
      "inputs": [],
      "name": "renounceOwnership",
      "outputs": [],
      "payable": false,
      "stateMutability": "nonpayable",
      "type": "function"
    },
    {
      "constant": false,
      "inputs": [
        {
          "name": "_memberNumber",
          "type": "uint256"
        },
        {
          "name": "_attributeName",
          "type": "bytes32"
        },
        {
          "name": "_attributeType",
          "type": "bytes32"
        },
        {
          "name": "_attributeValue",
          "type": "bytes32"
        }
      ],
      "name": "addMemberAttribute",
      "outputs": [
        {
          "name": "",
          "type": "uint256"
        }
      ],
      "payable": true,
      "stateMutability": "payable",
      "type": "function"
    },
    {
      "constant": false,
      "inputs": [
        {
          "name": "_memberNumber",
          "type": "uint256"
        },
        {
          "name": "_attributeNumber",
          "type": "uint256"
        },
        {
          "name": "_attributeValue",
          "type": "bytes32"
        }
      ],
      "name": "setMemberAttributeValue",
      "outputs": [],
      "payable": true,
      "stateMutability": "payable",
      "type": "function"
    },
    {
      "constant": false,
      "inputs": [],
      "name": "pause",
      "outputs": [],
      "payable": false,
      "stateMutability": "nonpayable",
      "type": "function"
    },
    {
      "constant": true,
      "inputs": [],
      "name": "owner",
      "outputs": [
        {
          "name": "",
          "type": "address"
        }
      ],
      "payable": false,
      "stateMutability": "view",
      "type": "function"
    },
    {
      "constant": true,
      "inputs": [
        {
          "name": "_memberNumber",
          "type": "uint256"
        }
      ],
      "name": "isMemberRegistered",
      "outputs": [
        {
          "name": "",
          "type": "bool"
        }
      ],
      "payable": false,
      "stateMutability": "view",
      "type": "function"
    },
    {
      "constant": true,
      "inputs": [
        {
          "name": "_memberNumber",
          "type": "uint256"
        }
      ],
      "name": "getMember",
      "outputs": [
        {
          "name": "memberNumber",
          "type": "uint256"
        },
        {
          "name": "memberId",
          "type": "bytes32"
        },
        {
          "name": "owner",
          "type": "address"
        },
        {
          "name": "enabled",
          "type": "bool"
        }
      ],
      "payable": false,
      "stateMutability": "view",
      "type": "function"
    },
    {
      "constant": false,
      "inputs": [
        {
          "name": "_memberNumber",
          "type": "uint256"
        },
        {
          "name": "_newOwner",
          "type": "address"
        },
        {
          "name": "_keyHash",
          "type": "bytes32"
        }
      ],
      "name": "transferMemberOwnership",
      "outputs": [],
      "payable": true,
      "stateMutability": "payable",
      "type": "function"
    },
    {
      "constant": true,
      "inputs": [
        {
          "name": "_memberNumber",
          "type": "uint256"
        },
        {
          "name": "_attributeName",
          "type": "bytes32"
        }
      ],
      "name": "getMemberAttributeNumber",
      "outputs": [
        {
          "name": "",
          "type": "uint256"
        }
      ],
      "payable": false,
      "stateMutability": "view",
      "type": "function"
    },
    {
      "constant": false,
      "inputs": [
        {
          "name": "_memberNumber",
          "type": "uint256"
        }
      ],
      "name": "disableMember",
      "outputs": [],
      "payable": true,
      "stateMutability": "payable",
      "type": "function"
    },
    {
      "constant": true,
      "inputs": [
        {
          "name": "_address",
          "type": "address"
        }
      ],
      "name": "isAllowedToRegisterMember",
      "outputs": [
        {
          "name": "",
          "type": "bool"
        }
      ],
      "payable": false,
      "stateMutability": "view",
      "type": "function"
    },
    {
      "constant": false,
      "inputs": [
        {
          "name": "tokens",
          "type": "address[]"
        }
      ],
      "name": "destroy",
      "outputs": [],
      "payable": false,
      "stateMutability": "nonpayable",
      "type": "function"
    },
    {
      "constant": false,
      "inputs": [
        {
          "name": "_feeLookupAddress",
          "type": "address"
        }
      ],
      "name": "setFeeLookupAddress",
      "outputs": [],
      "payable": false,
      "stateMutability": "nonpayable",
      "type": "function"
    },
    {
      "constant": true,
      "inputs": [
        {
          "name": "_memberNumber",
          "type": "uint256"
        }
      ],
      "name": "getMemberAttributeTotalCount",
      "outputs": [
        {
          "name": "",
          "type": "uint256"
        }
      ],
      "payable": false,
      "stateMutability": "view",
      "type": "function"
    },
    {
      "constant": true,
      "inputs": [],
      "name": "pendingOwner",
      "outputs": [
        {
          "name": "",
          "type": "address"
        }
      ],
      "payable": false,
      "stateMutability": "view",
      "type": "function"
    },
    {
      "constant": false,
      "inputs": [
        {
          "name": "newOwner",
          "type": "address"
        }
      ],
      "name": "transferOwnership",
      "outputs": [],
      "payable": false,
      "stateMutability": "nonpayable",
      "type": "function"
    },
    {
      "constant": true,
      "inputs": [],
      "name": "getMemberTransferFee",
      "outputs": [
        {
          "name": "",
          "type": "uint256"
        }
      ],
      "payable": false,
      "stateMutability": "view",
      "type": "function"
    },
    {
      "inputs": [
        {
          "name": "_storageAddress",
          "type": "address"
        },
        {
          "name": "_feeLookupAddres",
          "type": "address"
        },
        {
          "name": "_manufacturerRegistryStorageAddress",
          "type": "address"
        }
      ],
      "payable": false,
      "stateMutability": "nonpayable",
      "type": "constructor"
    },
    {
      "anonymous": false,
      "inputs": [
        {
          "indexed": true,
          "name": "memberNumber",
          "type": "uint256"
        },
        {
          "indexed": true,
          "name": "memberId",
          "type": "bytes32"
        }
      ],
      "name": "MemberRegistered",
      "type": "event"
    },
    {
      "anonymous": false,
      "inputs": [
        {
          "indexed": true,
          "name": "memberNumber",
          "type": "uint256"
        }
      ],
      "name": "MemberEnabled",
      "type": "event"
    },
    {
      "anonymous": false,
      "inputs": [
        {
          "indexed": true,
          "name": "memberNumber",
          "type": "uint256"
        }
      ],
      "name": "MemberDisabled",
      "type": "event"
    },
    {
      "anonymous": false,
      "inputs": [
        {
          "indexed": true,
          "name": "memberNumber",
          "type": "uint256"
        },
        {
          "indexed": true,
          "name": "from",
          "type": "address"
        },
        {
          "indexed": true,
          "name": "to",
          "type": "address"
        }
      ],
      "name": "MemberOwnershipTransferRequest",
      "type": "event"
    },
    {
      "anonymous": false,
      "inputs": [
        {
          "indexed": true,
          "name": "memberNumber",
          "type": "uint256"
        },
        {
          "indexed": true,
          "name": "newOwner",
          "type": "address"
        }
      ],
      "name": "MemberOwnershipTransferAccepted",
      "type": "event"
    },
    {
      "anonymous": false,
      "inputs": [
        {
          "indexed": true,
          "name": "memberNumber",
          "type": "uint256"
        },
        {
          "indexed": true,
          "name": "attributeNumber",
          "type": "uint256"
        },
        {
          "indexed": true,
          "name": "attributeName",
          "type": "bytes32"
        },
        {
          "indexed": false,
          "name": "attributeType",
          "type": "bytes32"
        },
        {
          "indexed": false,
          "name": "attributeValue",
          "type": "bytes32"
        }
      ],
      "name": "MemberAttributeChanged",
      "type": "event"
    },
    {
      "anonymous": false,
      "inputs": [],
      "name": "Pause",
      "type": "event"
    },
    {
      "anonymous": false,
      "inputs": [],
      "name": "Unpause",
      "type": "event"
    },
    {
      "anonymous": false,
      "inputs": [
        {
          "indexed": true,
          "name": "previousOwner",
          "type": "address"
        }
      ],
      "name": "OwnershipRenounced",
      "type": "event"
    },
    {
      "anonymous": false,
      "inputs": [
        {
          "indexed": true,
          "name": "previousOwner",
          "type": "address"
        },
        {
          "indexed": true,
          "name": "newOwner",
          "type": "address"
        }
      ],
      "name": "OwnershipTransferred",
      "type": "event"
    },
    {
      "constant": false,
      "inputs": [
        {
          "name": "_vin",
          "type": "bytes32"
        }
      ],
      "name": "getVehicleOwner",
      "outputs": [
        {
          "name": "",
          "type": "address"
        }
      ],
      "payable": false,
      "stateMutability": "nonpayable",
      "type": "function"
    },
    {
      "constant": false,
      "inputs": [
        {
          "name": "_vin",
          "type": "bytes32"
        }
      ],
      "name": "isVehicleRegistered",
      "outputs": [
        {
          "name": "",
          "type": "bool"
        }
      ],
      "payable": false,
      "stateMutability": "nonpayable",
      "type": "function"
    },
    {
      "constant": false,
      "inputs": [
        {
          "name": "",
          "type": "bytes32"
        }
      ],
      "name": "registerMember",
      "outputs": [
        {
          "name": "",
          "type": "uint256"
        }
      ],
      "payable": true,
      "stateMutability": "payable",
      "type": "function"
    },
    {
      "constant": false,
      "inputs": [
        {
          "name": "_vin",
          "type": "bytes32"
        },
        {
          "name": "_manufacturerId",
          "type": "bytes32"
        }
      ],
      "name": "registerVehicle",
      "outputs": [
        {
          "name": "",
          "type": "uint256"
        }
      ],
      "payable": true,
      "stateMutability": "payable",
      "type": "function"
    },
    {
      "constant": false,
      "inputs": [
        {
          "name": "_vin",
          "type": "bytes32"
        },
        {
          "name": "_address",
          "type": "address"
        }
      ],
      "name": "setMaintenanceLogAddress",
      "outputs": [],
      "payable": true,
      "stateMutability": "payable",
      "type": "function"
    },
    {
      "constant": false,
      "inputs": [
        {
          "name": "_vin",
          "type": "bytes32"
        }
      ],
      "name": "getMaintenanceLogAddress",
      "outputs": [
        {
          "name": "",
          "type": "address"
        }
      ],
      "payable": true,
      "stateMutability": "payable",
      "type": "function"
    }
  ],
  "bytecode": "0x60806040526000600160146101000a81548160ff02191690831515021790555034801561002b57600080fd5b5060405160608062006f7d8339810180604052810190808051906020019092919080519060200190929190805190602001909291905050508282336000806101000a81548173ffffffffffffffffffffffffffffffffffffffff021916908373ffffffffffffffffffffffffffffffffffffffff16021790555081600260006101000a81548173ffffffffffffffffffffffffffffffffffffffff021916908373ffffffffffffffffffffffffffffffffffffffff16021790555080600360006101000a81548173ffffffffffffffffffffffffffffffffffffffff021916908373ffffffffffffffffffffffffffffffffffffffff160217905550505080600460006101000a81548173ffffffffffffffffffffffffffffffffffffffff021916908373ffffffffffffffffffffffffffffffffffffffff160217905550505050616e00806200017d6000396000f3006080604052600436106101b7576000357c0100000000000000000000000000000000000000000000000000000000900463ffffffff1680630ed6060e146101bc57806314ef55b9146101e75780631f41c8771461022c57806324ce2195146102705780632a9cbbed146102b65780632e52e0261461032e578063337af6961461039f57806337546dfe14610403578063393a4d341461044c5780633f4ba83a146104a357806346dbf254146104ba57806347bd3489146104e55780634bd3dbb9146105135780634e71e0c81461053357806359b910d61461054a5780635c975abb1461058d57806369c6fbfb146105bc578063715018a6146106025780637aaca2f8146106195780637dbb6d05146106775780638456cb59146106af5780638da5cb5b146106c6578063a79e65331461071d578063ab3545e514610762578063ad1c5a7a146107f0578063b44691d61461083e578063b8f5138e1461088d578063c65a9d30146108ad578063c6786e5a14610908578063ca4967d51461096e578063de71e19a146109b1578063e30c3978146109f2578063f2fde38b14610a49578063f3e7953614610a8c578063fd8785c914610ab7575b600080fd5b3480156101c857600080fd5b506101d1610aef565b6040518082815260200191505060405180910390f35b3480156101f357600080fd5b506102166004803603810190808035600019169060200190929190505050610bb7565b6040518082815260200191505060405180910390f35b61026e6004803603810190808035600019169060200190929190803573ffffffffffffffffffffffffffffffffffffffff169060200190929190505050610d43565b005b6102b46004803603810190808035906020019092919080359060200190929190803560001916906020019092919080356000191690602001909291905050506113da565b005b3480156102c257600080fd5b506102eb6004803603810190808035906020019092919080359060200190929190505050611a86565b6040518085815260200184600019166000191681526020018360001916600019168152602001826000191660001916815260200194505050505060405180910390f35b34801561033a57600080fd5b5061035d6004803603810190808035600019169060200190929190505050612098565b604051808273ffffffffffffffffffffffffffffffffffffffff1673ffffffffffffffffffffffffffffffffffffffff16815260200191505060405180910390f35b6103c16004803603810190808035600019169060200190929190505050612241565b604051808273ffffffffffffffffffffffffffffffffffffffff1673ffffffffffffffffffffffffffffffffffffffff16815260200191505060405180910390f35b34801561040f57600080fd5b506104326004803603810190808035600019169060200190929190505050612726565b604051808215151515815260200191505060405180910390f35b34801561045857600080fd5b50610461612745565b604051808273ffffffffffffffffffffffffffffffffffffffff1673ffffffffffffffffffffffffffffffffffffffff16815260200191505060405180910390f35b3480156104af57600080fd5b506104b861276f565b005b3480156104c657600080fd5b506104cf61282e565b6040518082815260200191505060405180910390f35b610511600480360381019080803590602001909291908035600019169060200190929190505050612929565b005b61053160048036038101908080359060200190929190505050612f7c565b005b34801561053f57600080fd5b506105486133ee565b005b34801561055657600080fd5b5061058b600480360381019080803573ffffffffffffffffffffffffffffffffffffffff16906020019092919050505061358d565b005b34801561059957600080fd5b506105a2613733565b604051808215151515815260200191505060405180910390f35b6105ec60048036038101908080356000191690602001909291908035600019169060200190929190505050613746565b6040518082815260200191505060405180910390f35b34801561060e57600080fd5b50610617613f81565b005b61066160048036038101908080359060200190929190803560001916906020019092919080356000191690602001909291908035600019169060200190929190505050614083565b6040518082815260200191505060405180910390f35b6106ad600480360381019080803590602001909291908035906020019092919080356000191690602001909291905050506145ac565b005b3480156106bb57600080fd5b506106c4614c6e565b005b3480156106d257600080fd5b506106db614d2d565b604051808273ffffffffffffffffffffffffffffffffffffffff1673ffffffffffffffffffffffffffffffffffffffff16815260200191505060405180910390f35b34801561072957600080fd5b5061074860048036038101908080359060200190929190505050614d52565b604051808215151515815260200191505060405180910390f35b34801561076e57600080fd5b5061078d60048036038101908080359060200190929190505050614e57565b6040518085815260200184600019166000191681526020018373ffffffffffffffffffffffffffffffffffffffff1673ffffffffffffffffffffffffffffffffffffffff1681526020018215151515815260200194505050505060405180910390f35b61083c60048036038101908080359060200190929190803573ffffffffffffffffffffffffffffffffffffffff1690602001909291908035600019169060200190929190505050615006565b005b34801561084a57600080fd5b50610877600480360381019080803590602001909291908035600019169060200190929190505050615756565b6040518082815260200191505060405180910390f35b6108ab60048036038101908080359060200190929190505050615b65565b005b3480156108b957600080fd5b506108ee600480360381019080803573ffffffffffffffffffffffffffffffffffffffff169060200190929190505050615fd6565b604051808215151515815260200191505060405180910390f35b34801561091457600080fd5b5061096c6004803603810190808035906020019082018035906020019080806020026020016040519081016040528093929190818152602001838360200280828437820191505050505050919291929050505061602f565b005b34801561097a57600080fd5b506109af600480360381019080803573ffffffffffffffffffffffffffffffffffffffff1690602001909291905050506162d6565b005b3480156109bd57600080fd5b506109dc6004803603810190808035906020019092919050505061647c565b6040518082815260200191505060405180910390f35b3480156109fe57600080fd5b50610a076166f3565b604051808273ffffffffffffffffffffffffffffffffffffffff1673ffffffffffffffffffffffffffffffffffffffff16815260200191505060405180910390f35b348015610a5557600080fd5b50610a8a600480360381019080803573ffffffffffffffffffffffffffffffffffffffff169060200190929190505050616719565b005b348015610a9857600080fd5b50610aa16167b8565b6040518082815260200191505060405180910390f35b610ad96004803603810190808035600019169060200190929190505050616880565b6040518082815260200191505060405180910390f35b6000600360009054906101000a900473ffffffffffffffffffffffffffffffffffffffff1673ffffffffffffffffffffffffffffffffffffffff1663f812cdeb6040518163ffffffff167c0100000000000000000000000000000000000000000000000000000000028152600401602060405180830381600087803b158015610b7757600080fd5b505af1158015610b8b573d6000803e3d6000fd5b505050506040513d6020811015610ba157600080fd5b8101908080519060200190929190505050905090565b60008173__RegistryStorageLib____________________63cc40ddc0600260009054906101000a900473ffffffffffffffffffffffffffffffffffffffff16610c0084616926565b6040518363ffffffff167c0100000000000000000000000000000000000000000000000000000000028152600401808373ffffffffffffffffffffffffffffffffffffffff1673ffffffffffffffffffffffffffffffffffffffff1681526020018281526020019250505060206040518083038186803b158015610c8357600080fd5b505af4158015610c97573d6000803e3d6000fd5b505050506040513d6020811015610cad57600080fd5b81019080805190602001909291905050501515610d32576040517f08c379a00000000000000000000000000000000000000000000000000000000081526004018080602001828103825260198152602001807f4d656d626572206d75737420626520726567697374657265640000000000000081525060200191505060405180910390fd5b610d3b83616926565b915050919050565b6000806000600160149054906101000a900460ff16151515610d6457600080fd5b8473__RegistryStorageLib____________________63cc40ddc0600260009054906101000a900473ffffffffffffffffffffffffffffffffffffffff16610dab84616926565b6040518363ffffffff167c0100000000000000000000000000000000000000000000000000000000028152600401808373ffffffffffffffffffffffffffffffffffffffff1673ffffffffffffffffffffffffffffffffffffffff1681526020018281526020019250505060206040518083038186803b158015610e2e57600080fd5b505af4158015610e42573d6000803e3d6000fd5b505050506040513d6020811015610e5857600080fd5b81019080805190602001909291905050501515610edd576040517f08c379a00000000000000000000000000000000000000000000000000000000081526004018080602001828103825260198152602001807f4d656d626572206d75737420626520726567697374657265640000000000000081525060200191505060405180910390fd5b853373ffffffffffffffffffffffffffffffffffffffff1673__RegistryStorageLib____________________63df3967f2600260009054906101000a900473ffffffffffffffffffffffffffffffffffffffff16610f3b85616926565b6040518363ffffffff167c0100000000000000000000000000000000000000000000000000000000028152600401808373ffffffffffffffffffffffffffffffffffffffff1673ffffffffffffffffffffffffffffffffffffffff1681526020018281526020019250505060206040518083038186803b158015610fbe57600080fd5b505af4158015610fd2573d6000803e3d6000fd5b505050506040513d6020811015610fe857600080fd5b810190808051906020019092919050505073ffffffffffffffffffffffffffffffffffffffff161415156110aa576040517f08c379a00000000000000000000000000000000000000000000000000000000081526004018080602001828103825260328152602001807f4f6e6c7920746865206f776e6572206f6620746865206d656d6265722063616e81526020017f20706572666f726d2074686973207461736b000000000000000000000000000081525060400191505060405180910390fd5b856110ca8173ffffffffffffffffffffffffffffffffffffffff16616a33565b151561113e576040517f08c379a000000000000000000000000000000000000000000000000000000000815260040180806020018281038252601a8152602001807f41646472657373206d757374206265206120636f6e747261637400000000000081525060200191505060405180910390fd5b73__RegistryStorageLib____________________63bd64b8a6600260009054906101000a900473ffffffffffffffffffffffffffffffffffffffff168a6040518363ffffffff167c0100000000000000000000000000000000000000000000000000000000028152600401808373ffffffffffffffffffffffffffffffffffffffff1673ffffffffffffffffffffffffffffffffffffffff16815260200182600019166000191681526020019250505060206040518083038186803b15801561120757600080fd5b505af415801561121b573d6000803e3d6000fd5b505050506040513d602081101561123157600080fd5b810190808051906020019092919050505095507f6d61696e74656e616e63654c6f6741646472657373000000000000000000000094507f6164647265737300000000000000000000000000000000000000000000000000935073__RegistryStorageLib____________________63cbc4a142600260009054906101000a900473ffffffffffffffffffffffffffffffffffffffff168888888c73ffffffffffffffffffffffffffffffffffffffff166001026040518663ffffffff167c0100000000000000000000000000000000000000000000000000000000028152600401808673ffffffffffffffffffffffffffffffffffffffff1673ffffffffffffffffffffffffffffffffffffffff1681526020018581526020018460001916600019168152602001836000191660001916815260200182600019166000191681526020019550505050505060206040518083038186803b15801561139457600080fd5b505af41580156113a8573d6000803e3d6000fd5b505050506040513d60208110156113be57600080fd5b8101908080519060200190929190505050505050505050505050565b6000600160149054906101000a900460ff161515156113f857600080fd5b6000809054906101000a900473ffffffffffffffffffffffffffffffffffffffff1673ffffffffffffffffffffffffffffffffffffffff163373ffffffffffffffffffffffffffffffffffffffff1614151561145357600080fd5b8473__RegistryStorageLib____________________63cc40ddc0600260009054906101000a900473ffffffffffffffffffffffffffffffffffffffff16836040518363ffffffff167c0100000000000000000000000000000000000000000000000000000000028152600401808373ffffffffffffffffffffffffffffffffffffffff1673ffffffffffffffffffffffffffffffffffffffff1681526020018281526020019250505060206040518083038186803b15801561151557600080fd5b505af4158015611529573d6000803e3d6000fd5b505050506040513d602081101561153f57600080fd5b810190808051906020019092919050505015156115c4576040517f08c379a00000000000000000000000000000000000000000000000000000000081526004018080602001828103825260198152602001807f4d656d626572206d75737420626520726567697374657265640000000000000081525060200191505060405180910390fd5b858573__RegistryStorageLib____________________63775abae4600260009054906101000a900473ffffffffffffffffffffffffffffffffffffffff1684846040518463ffffffff167c0100000000000000000000000000000000000000000000000000000000028152600401808473ffffffffffffffffffffffffffffffffffffffff1673ffffffffffffffffffffffffffffffffffffffff168152602001838152602001828152602001935050505060206040518083038186803b15801561168f57600080fd5b505af41580156116a3573d6000803e3d6000fd5b505050506040513d60208110156116b957600080fd5b8101908080519060200190929190505050151561173e576040517f08c379a000000000000000000000000000000000000000000000000000000000815260040180806020018281038252601b8152602001807f417474726962757465206e756d626572206d757374206578697374000000000081525060200191505060405180910390fd5b73__RegistryStorageLib____________________6345d16469600260009054906101000a900473ffffffffffffffffffffffffffffffffffffffff168a8a8a6040518563ffffffff167c0100000000000000000000000000000000000000000000000000000000028152600401808573ffffffffffffffffffffffffffffffffffffffff1673ffffffffffffffffffffffffffffffffffffffff168152602001848152602001838152602001826000191660001916815260200194505050505060006040518083038186803b15801561181757600080fd5b505af415801561182b573d6000803e3d6000fd5b5050505073__RegistryStorageLib____________________63ea3f86cf600260009054906101000a900473ffffffffffffffffffffffffffffffffffffffff168a8a896040518563ffffffff167c0100000000000000000000000000000000000000000000000000000000028152600401808573ffffffffffffffffffffffffffffffffffffffff1673ffffffffffffffffffffffffffffffffffffffff168152602001848152602001838152602001826000191660001916815260200194505050505060006040518083038186803b15801561190857600080fd5b505af415801561191c573d6000803e3d6000fd5b5050505073__RegistryStorageLib____________________63afeef9b8600260009054906101000a900473ffffffffffffffffffffffffffffffffffffffff168a8a6040518463ffffffff167c0100000000000000000000000000000000000000000000000000000000028152600401808473ffffffffffffffffffffffffffffffffffffffff1673ffffffffffffffffffffffffffffffffffffffff168152602001838152602001828152602001935050505060206040518083038186803b1580156119e957600080fd5b505af41580156119fd573d6000803e3d6000fd5b505050506040513d6020811015611a1357600080fd5b81019080805190602001909291905050509350836000191687897fc4970cc78910aa0998aca6333d6db8a393651a6560a464ddc2d6bbbed55cfc1e898960405180836000191660001916815260200182600019166000191681526020019250505060405180910390a45050505050505050565b6000806000808573__RegistryStorageLib____________________63cc40ddc0600260009054906101000a900473ffffffffffffffffffffffffffffffffffffffff16836040518363ffffffff167c0100000000000000000000000000000000000000000000000000000000028152600401808373ffffffffffffffffffffffffffffffffffffffff1673ffffffffffffffffffffffffffffffffffffffff1681526020018281526020019250505060206040518083038186803b158015611b4e57600080fd5b505af4158015611b62573d6000803e3d6000fd5b505050506040513d6020811015611b7857600080fd5b81019080805190602001909291905050501515611bfd576040517f08c379a00000000000000000000000000000000000000000000000000000000081526004018080602001828103825260198152602001807f4d656d626572206d75737420626520726567697374657265640000000000000081525060200191505060405180910390fd5b868673__RegistryStorageLib____________________63775abae4600260009054906101000a900473ffffffffffffffffffffffffffffffffffffffff1684846040518463ffffffff167c0100000000000000000000000000000000000000000000000000000000028152600401808473ffffffffffffffffffffffffffffffffffffffff1673ffffffffffffffffffffffffffffffffffffffff168152602001838152602001828152602001935050505060206040518083038186803b158015611cc857600080fd5b505af4158015611cdc573d6000803e3d6000fd5b505050506040513d6020811015611cf257600080fd5b81019080805190602001909291905050501515611d77576040517f08c379a000000000000000000000000000000000000000000000000000000000815260040180806020018281038252601b8152602001807f417474726962757465206e756d626572206d757374206578697374000000000081525060200191505060405180910390fd5b87965073__RegistryStorageLib____________________63afeef9b8600260009054906101000a900473ffffffffffffffffffffffffffffffffffffffff168b8b6040518463ffffffff167c0100000000000000000000000000000000000000000000000000000000028152600401808473ffffffffffffffffffffffffffffffffffffffff1673ffffffffffffffffffffffffffffffffffffffff168152602001838152602001828152602001935050505060206040518083038186803b158015611e4357600080fd5b505af4158015611e57573d6000803e3d6000fd5b505050506040513d6020811015611e6d57600080fd5b8101908080519060200190929190505050955073__RegistryStorageLib____________________631f91a7f5600260009054906101000a900473ffffffffffffffffffffffffffffffffffffffff168b8b6040518463ffffffff167c0100000000000000000000000000000000000000000000000000000000028152600401808473ffffffffffffffffffffffffffffffffffffffff1673ffffffffffffffffffffffffffffffffffffffff168152602001838152602001828152602001935050505060206040518083038186803b158015611f4957600080fd5b505af4158015611f5d573d6000803e3d6000fd5b505050506040513d6020811015611f7357600080fd5b8101908080519060200190929190505050945073__RegistryStorageLib____________________639f66058e600260009054906101000a900473ffffffffffffffffffffffffffffffffffffffff168b8b6040518463ffffffff167c0100000000000000000000000000000000000000000000000000000000028152600401808473ffffffffffffffffffffffffffffffffffffffff1673ffffffffffffffffffffffffffffffffffffffff168152602001838152602001828152602001935050505060206040518083038186803b15801561204f57600080fd5b505af4158015612063573d6000803e3d6000fd5b505050506040513d602081101561207957600080fd5b8101908080519060200190929190505050935050505092959194509250565b6000806120a3616d90565b8373__RegistryStorageLib____________________63cc40ddc0600260009054906101000a900473ffffffffffffffffffffffffffffffffffffffff166120ea84616926565b6040518363ffffffff167c0100000000000000000000000000000000000000000000000000000000028152600401808373ffffffffffffffffffffffffffffffffffffffff1673ffffffffffffffffffffffffffffffffffffffff1681526020018281526020019250505060206040518083038186803b15801561216d57600080fd5b505af4158015612181573d6000803e3d6000fd5b505050506040513d602081101561219757600080fd5b8101908080519060200190929190505050151561221c576040517f08c379a00000000000000000000000000000000000000000000000000000000081526004018080602001828103825260198152602001807f4d656d626572206d75737420626520726567697374657265640000000000000081525060200191505060405180910390fd5b61222585610bb7565b925061223083616a46565b915081604001519350505050919050565b600080600080600160149054906101000a900460ff1615151561226357600080fd5b8473__RegistryStorageLib____________________63cc40ddc0600260009054906101000a900473ffffffffffffffffffffffffffffffffffffffff166122aa84616926565b6040518363ffffffff167c0100000000000000000000000000000000000000000000000000000000028152600401808373ffffffffffffffffffffffffffffffffffffffff1673ffffffffffffffffffffffffffffffffffffffff1681526020018281526020019250505060206040518083038186803b15801561232d57600080fd5b505af4158015612341573d6000803e3d6000fd5b505050506040513d602081101561235757600080fd5b810190808051906020019092919050505015156123dc576040517f08c379a00000000000000000000000000000000000000000000000000000000081526004018080602001828103825260198152602001807f4d656d626572206d75737420626520726567697374657265640000000000000081525060200191505060405180910390fd5b73__RegistryStorageLib____________________63bd64b8a6600260009054906101000a900473ffffffffffffffffffffffffffffffffffffffff16886040518363ffffffff167c0100000000000000000000000000000000000000000000000000000000028152600401808373ffffffffffffffffffffffffffffffffffffffff1673ffffffffffffffffffffffffffffffffffffffff16815260200182600019166000191681526020019250505060206040518083038186803b1580156124a557600080fd5b505af41580156124b9573d6000803e3d6000fd5b505050506040513d60208110156124cf57600080fd5b810190808051906020019092919050505093507f6d61696e74656e616e63654c6f67416464726573730000000000000000000000925073__RegistryStorageLib____________________639b15b8b2600260009054906101000a900473ffffffffffffffffffffffffffffffffffffffff1686866040518463ffffffff167c0100000000000000000000000000000000000000000000000000000000028152600401808473ffffffffffffffffffffffffffffffffffffffff1673ffffffffffffffffffffffffffffffffffffffff1681526020018381526020018260001916600019168152602001935050505060206040518083038186803b1580156125d657600080fd5b505af41580156125ea573d6000803e3d6000fd5b505050506040513d602081101561260057600080fd5b8101908080519060200190929190505050915073__RegistryStorageLib____________________639f66058e600260009054906101000a900473ffffffffffffffffffffffffffffffffffffffff1686856040518463ffffffff167c0100000000000000000000000000000000000000000000000000000000028152600401808473ffffffffffffffffffffffffffffffffffffffff1673ffffffffffffffffffffffffffffffffffffffff168152602001838152602001828152602001935050505060206040518083038186803b1580156126dc57600080fd5b505af41580156126f0573d6000803e3d6000fd5b505050506040513d602081101561270657600080fd5b810190808051906020019092919050505060019004945050505050919050565b60008061273283610bb7565b905061273d81614d52565b915050919050565b6000600260009054906101000a900473ffffffffffffffffffffffffffffffffffffffff16905090565b6000809054906101000a900473ffffffffffffffffffffffffffffffffffffffff1673ffffffffffffffffffffffffffffffffffffffff163373ffffffffffffffffffffffffffffffffffffffff161415156127ca57600080fd5b600160149054906101000a900460ff1615156127e557600080fd5b6000600160146101000a81548160ff0219169083151502179055507f7805862f689e2f13df9f062ff482ad3ad112aca9e0847911ed832e158c525b3360405160405180910390a1565b600073__RegistryStorageLib____________________6304543b61600260009054906101000a900473ffffffffffffffffffffffffffffffffffffffff166040518263ffffffff167c0100000000000000000000000000000000000000000000000000000000028152600401808273ffffffffffffffffffffffffffffffffffffffff1673ffffffffffffffffffffffffffffffffffffffff16815260200191505060206040518083038186803b1580156128e957600080fd5b505af41580156128fd573d6000803e3d6000fd5b505050506040513d602081101561291357600080fd5b8101908080519060200190929190505050905090565b600160149054906101000a900460ff1615151561294557600080fd5b8173__RegistryStorageLib____________________63cc40ddc0600260009054906101000a900473ffffffffffffffffffffffffffffffffffffffff16836040518363ffffffff167c0100000000000000000000000000000000000000000000000000000000028152600401808373ffffffffffffffffffffffffffffffffffffffff1673ffffffffffffffffffffffffffffffffffffffff1681526020018281526020019250505060206040518083038186803b158015612a0757600080fd5b505af4158015612a1b573d6000803e3d6000fd5b505050506040513d6020811015612a3157600080fd5b81019080805190602001909291905050501515612ab6576040517f08c379a00000000000000000000000000000000000000000000000000000000081526004018080602001828103825260198152602001807f4d656d626572206d75737420626520726567697374657265640000000000000081525060200191505060405180910390fd5b823373ffffffffffffffffffffffffffffffffffffffff1673__RegistryStorageLib____________________63b3931864600260009054906101000a900473ffffffffffffffffffffffffffffffffffffffff16846040518363ffffffff167c0100000000000000000000000000000000000000000000000000000000028152600401808373ffffffffffffffffffffffffffffffffffffffff1673ffffffffffffffffffffffffffffffffffffffff1681526020018281526020019250505060206040518083038186803b158015612b8f57600080fd5b505af4158015612ba3573d6000803e3d6000fd5b505050506040513d6020811015612bb957600080fd5b810190808051906020019092919050505073ffffffffffffffffffffffffffffffffffffffff16141515612c7b576040517f08c379a000000000000000000000000000000000000000000000000000000000815260040180806020018281038252603a8152602001807f4f6e6c79207468652070656e64696e67206f776e6572206f6620746865206d6581526020017f6d6265722063616e20706572666f726d2074686973207461736b00000000000081525060400191505060405180910390fd5b8383600073__RegistryStorageLib____________________6322a04c45600260009054906101000a900473ffffffffffffffffffffffffffffffffffffffff16856040518363ffffffff167c0100000000000000000000000000000000000000000000000000000000028152600401808373ffffffffffffffffffffffffffffffffffffffff1673ffffffffffffffffffffffffffffffffffffffff1681526020018281526020019250505060206040518083038186803b158015612d4057600080fd5b505af4158015612d54573d6000803e3d6000fd5b505050506040513d6020811015612d6a57600080fd5b8101908080519060200190929190505050905081600019168160001916141515612e22576040517f08c379a00000000000000000000000000000000000000000000000000000000081526004018080602001828103825260358152602001807f546865206b65792070726f7669646564206d757374206d61746368207468652081526020017f6578697374696e67207472616e73666572206b6579000000000000000000000081525060400191505060405180910390fd5b73__RegistryStorageLib____________________635821edb0600260009054906101000a900473ffffffffffffffffffffffffffffffffffffffff1689336040518463ffffffff167c0100000000000000000000000000000000000000000000000000000000028152600401808473ffffffffffffffffffffffffffffffffffffffff1673ffffffffffffffffffffffffffffffffffffffff1681526020018381526020018273ffffffffffffffffffffffffffffffffffffffff1673ffffffffffffffffffffffffffffffffffffffff168152602001935050505060006040518083038186803b158015612f1757600080fd5b505af4158015612f2b573d6000803e3d6000fd5b505050503373ffffffffffffffffffffffffffffffffffffffff16877feacf7aee9e4ba56fb2dcdea3b816570de0f2a2e54f43a87a96286bcddec9488960405160405180910390a350505050505050565b600160149054906101000a900460ff16151515612f9857600080fd5b6000809054906101000a900473ffffffffffffffffffffffffffffffffffffffff1673ffffffffffffffffffffffffffffffffffffffff163373ffffffffffffffffffffffffffffffffffffffff16141515612ff357600080fd5b8073__RegistryStorageLib____________________63cc40ddc0600260009054906101000a900473ffffffffffffffffffffffffffffffffffffffff16836040518363ffffffff167c0100000000000000000000000000000000000000000000000000000000028152600401808373ffffffffffffffffffffffffffffffffffffffff1673ffffffffffffffffffffffffffffffffffffffff1681526020018281526020019250505060206040518083038186803b1580156130b557600080fd5b505af41580156130c9573d6000803e3d6000fd5b505050506040513d60208110156130df57600080fd5b81019080805190602001909291905050501515613164576040517f08c379a00000000000000000000000000000000000000000000000000000000081526004018080602001828103825260198152602001807f4d656d626572206d75737420626520726567697374657265640000000000000081525060200191505060405180910390fd5b8173__RegistryStorageLib____________________63ac926120600260009054906101000a900473ffffffffffffffffffffffffffffffffffffffff16836040518363ffffffff167c0100000000000000000000000000000000000000000000000000000000028152600401808373ffffffffffffffffffffffffffffffffffffffff1673ffffffffffffffffffffffffffffffffffffffff1681526020018281526020019250505060206040518083038186803b15801561322657600080fd5b505af415801561323a573d6000803e3d6000fd5b505050506040513d602081101561325057600080fd5b81019080805190602001909291905050501515156132d6576040517f08c379a00000000000000000000000000000000000000000000000000000000081526004018080602001828103825260178152602001807f4d656d626572206d7573742062652064697361626c656400000000000000000081525060200191505060405180910390fd5b73__RegistryStorageLib____________________63d8263dac600260009054906101000a900473ffffffffffffffffffffffffffffffffffffffff168560016040518463ffffffff167c0100000000000000000000000000000000000000000000000000000000028152600401808473ffffffffffffffffffffffffffffffffffffffff1673ffffffffffffffffffffffffffffffffffffffff16815260200183815260200182151515158152602001935050505060006040518083038186803b1580156133a457600080fd5b505af41580156133b8573d6000803e3d6000fd5b50505050827f6c1c54cd1cc41dc1d40182830f8d9a3d73a7775038c567cb154b38a2355da9a160405160405180910390a2505050565b600160009054906101000a900473ffffffffffffffffffffffffffffffffffffffff1673ffffffffffffffffffffffffffffffffffffffff163373ffffffffffffffffffffffffffffffffffffffff1614151561344a57600080fd5b600160009054906101000a900473ffffffffffffffffffffffffffffffffffffffff1673ffffffffffffffffffffffffffffffffffffffff166000809054906101000a900473ffffffffffffffffffffffffffffffffffffffff1673ffffffffffffffffffffffffffffffffffffffff167f8be0079c531659141344cd1fd0a4f28419497f9722a3daafe3b4186f6b6457e060405160405180910390a3600160009054906101000a900473ffffffffffffffffffffffffffffffffffffffff166000806101000a81548173ffffffffffffffffffffffffffffffffffffffff021916908373ffffffffffffffffffffffffffffffffffffffff1602179055506000600160006101000a81548173ffffffffffffffffffffffffffffffffffffffff021916908373ffffffffffffffffffffffffffffffffffffffff160217905550565b6000809054906101000a900473ffffffffffffffffffffffffffffffffffffffff1673ffffffffffffffffffffffffffffffffffffffff163373ffffffffffffffffffffffffffffffffffffffff161415156135e857600080fd5b600160149054906101000a900460ff16151561360357600080fd5b600260009054906101000a900473ffffffffffffffffffffffffffffffffffffffff1673ffffffffffffffffffffffffffffffffffffffff168173ffffffffffffffffffffffffffffffffffffffff16141515156136ef576040517f08c379a000000000000000000000000000000000000000000000000000000000815260040180806020018281038252602b8152602001807f53746f726167652061646472657373206d75737420626520612064696666657281526020017f656e74206164647265737300000000000000000000000000000000000000000081525060400191505060405180910390fd5b80600260006101000a81548173ffffffffffffffffffffffffffffffffffffffff021916908373ffffffffffffffffffffffffffffffffffffffff16021790555050565b600160149054906101000a900460ff1681565b600080600080600160149054906101000a900460ff1615151561376857600080fd5b34613771610aef565b111515156137e7576040517f08c379a000000000000000000000000000000000000000000000000000000000815260040180806020018281038252601f8152602001807f56616c75652069732062656c6f7720726567697374726174696f6e206665650081525060200191505060405180910390fd5b8573__RegistryStorageLib____________________63cc40ddc0600260009054906101000a900473ffffffffffffffffffffffffffffffffffffffff1661382e84616926565b6040518363ffffffff167c0100000000000000000000000000000000000000000000000000000000028152600401808373ffffffffffffffffffffffffffffffffffffffff1673ffffffffffffffffffffffffffffffffffffffff1681526020018281526020019250505060206040518083038186803b1580156138b157600080fd5b505af41580156138c5573d6000803e3d6000fd5b505050506040513d60208110156138db57600080fd5b8101908080519060200190929190505050151515613987576040517f08c379a00000000000000000000000000000000000000000000000000000000081526004018080602001828103825260258152602001807f4d656d626572206d757374206e6f7420616c726561647920626520726567697381526020017f746572656400000000000000000000000000000000000000000000000000000081525060400191505060405180910390fd5b85600460009054906101000a900473ffffffffffffffffffffffffffffffffffffffff1673ffffffffffffffffffffffffffffffffffffffff16639cb50967826040518263ffffffff167c0100000000000000000000000000000000000000000000000000000000028152600401808260001916600019168152602001915050602060405180830381600087803b158015613a2157600080fd5b505af1158015613a35573d6000803e3d6000fd5b505050506040513d6020811015613a4b57600080fd5b81019080805190602001909291905050501515613af6576040517f08c379a000000000000000000000000000000000000000000000000000000000815260040180806020018281038252602b8152602001807f4d616e756661637475726572206d75737420626520726567697374657265642081526020017f616e6420656e61626c656400000000000000000000000000000000000000000081525060400191505060405180910390fd5b863373ffffffffffffffffffffffffffffffffffffffff16600460009054906101000a900473ffffffffffffffffffffffffffffffffffffffff1673ffffffffffffffffffffffffffffffffffffffff1663c9787805836040518263ffffffff167c0100000000000000000000000000000000000000000000000000000000028152600401808260001916600019168152602001915050602060405180830381600087803b158015613ba757600080fd5b505af1158015613bbb573d6000803e3d6000fd5b505050506040513d6020811015613bd157600080fd5b810190808051906020019092919050505073ffffffffffffffffffffffffffffffffffffffff16141515613c93576040517f08c379a00000000000000000000000000000000000000000000000000000000081526004018080602001828103825260398152602001807f4f6e6c7920746865206f776e6572206f6620746865206d616e7566616374757281526020017f65722063616e2063616c6c20746869732066756e6374696f6e0000000000000081525060400191505060405180910390fd5b73__RegistryStorageLib____________________631e87dd3a600260009054906101000a900473ffffffffffffffffffffffffffffffffffffffff168b336040518463ffffffff167c0100000000000000000000000000000000000000000000000000000000028152600401808473ffffffffffffffffffffffffffffffffffffffff1673ffffffffffffffffffffffffffffffffffffffff16815260200183600019166000191681526020018273ffffffffffffffffffffffffffffffffffffffff1673ffffffffffffffffffffffffffffffffffffffff168152602001935050505060206040518083038186803b158015613d9057600080fd5b505af4158015613da4573d6000803e3d6000fd5b505050506040513d6020811015613dba57600080fd5b810190808051906020019092919050505095507f6d616e756661637475726572000000000000000000000000000000000000000094507f6964000000000000000000000000000000000000000000000000000000000000935073__RegistryStorageLib____________________63cbc4a142600260009054906101000a900473ffffffffffffffffffffffffffffffffffffffff168888888d6040518663ffffffff167c0100000000000000000000000000000000000000000000000000000000028152600401808673ffffffffffffffffffffffffffffffffffffffff1673ffffffffffffffffffffffffffffffffffffffff1681526020018581526020018460001916600019168152602001836000191660001916815260200182600019166000191681526020019550505050505060206040518083038186803b158015613f0457600080fd5b505af4158015613f18573d6000803e3d6000fd5b505050506040513d6020811015613f2e57600080fd5b8101908080519060200190929190505050508860001916867f477b3314cd7115720db0596138d56c5433466f6c53df7c920e096fbc06bc175e60405160405180910390a385965050505050505092915050565b6000809054906101000a900473ffffffffffffffffffffffffffffffffffffffff1673ffffffffffffffffffffffffffffffffffffffff163373ffffffffffffffffffffffffffffffffffffffff16141515613fdc57600080fd5b6000809054906101000a900473ffffffffffffffffffffffffffffffffffffffff1673ffffffffffffffffffffffffffffffffffffffff167ff8df31144d9c2f0f6b59d69b8b98abd5459d07f2742c4df920b25aae33c6482060405160405180910390a260008060006101000a81548173ffffffffffffffffffffffffffffffffffffffff021916908373ffffffffffffffffffffffffffffffffffffffff160217905550565b600080600160149054906101000a900460ff161515156140a257600080fd5b6000809054906101000a900473ffffffffffffffffffffffffffffffffffffffff1673ffffffffffffffffffffffffffffffffffffffff163373ffffffffffffffffffffffffffffffffffffffff161415156140fd57600080fd5b8573__RegistryStorageLib____________________63cc40ddc0600260009054906101000a900473ffffffffffffffffffffffffffffffffffffffff16836040518363ffffffff167c0100000000000000000000000000000000000000000000000000000000028152600401808373ffffffffffffffffffffffffffffffffffffffff1673ffffffffffffffffffffffffffffffffffffffff1681526020018281526020019250505060206040518083038186803b1580156141bf57600080fd5b505af41580156141d3573d6000803e3d6000fd5b505050506040513d60208110156141e957600080fd5b8101908080519060200190929190505050151561426e576040517f08c379a00000000000000000000000000000000000000000000000000000000081526004018080602001828103825260198152602001807f4d656d626572206d75737420626520726567697374657265640000000000000081525060200191505060405180910390fd5b8686600073__RegistryStorageLib____________________639b15b8b2600260009054906101000a900473ffffffffffffffffffffffffffffffffffffffff1685856040518463ffffffff167c0100000000000000000000000000000000000000000000000000000000028152600401808473ffffffffffffffffffffffffffffffffffffffff1673ffffffffffffffffffffffffffffffffffffffff1681526020018381526020018260001916600019168152602001935050505060206040518083038186803b15801561434357600080fd5b505af4158015614357573d6000803e3d6000fd5b505050506040513d602081101561436d57600080fd5b8101908080519060200190929190505050141515614419576040517f08c379a00000000000000000000000000000000000000000000000000000000081526004018080602001828103825260258152602001807f417474726962757465206e616d65206d757374206e6f7420616c72656164792081526020017f657869737400000000000000000000000000000000000000000000000000000081525060400191505060405180910390fd5b73__RegistryStorageLib____________________63cbc4a142600260009054906101000a900473ffffffffffffffffffffffffffffffffffffffff168b8b8b8b6040518663ffffffff167c0100000000000000000000000000000000000000000000000000000000028152600401808673ffffffffffffffffffffffffffffffffffffffff1673ffffffffffffffffffffffffffffffffffffffff1681526020018581526020018460001916600019168152602001836000191660001916815260200182600019166000191681526020019550505050505060206040518083038186803b15801561450a57600080fd5b505af415801561451e573d6000803e3d6000fd5b505050506040513d602081101561453457600080fd5b810190808051906020019092919050505093508760001916848a7fc4970cc78910aa0998aca6333d6db8a393651a6560a464ddc2d6bbbed55cfc1e8a8a60405180836000191660001916815260200182600019166000191681526020019250505060405180910390a483945050505050949350505050565b600080600160149054906101000a900460ff161515156145cb57600080fd5b6000809054906101000a900473ffffffffffffffffffffffffffffffffffffffff1673ffffffffffffffffffffffffffffffffffffffff163373ffffffffffffffffffffffffffffffffffffffff1614151561462657600080fd5b8473__RegistryStorageLib____________________63cc40ddc0600260009054906101000a900473ffffffffffffffffffffffffffffffffffffffff16836040518363ffffffff167c0100000000000000000000000000000000000000000000000000000000028152600401808373ffffffffffffffffffffffffffffffffffffffff1673ffffffffffffffffffffffffffffffffffffffff1681526020018281526020019250505060206040518083038186803b1580156146e857600080fd5b505af41580156146fc573d6000803e3d6000fd5b505050506040513d602081101561471257600080fd5b81019080805190602001909291905050501515614797576040517f08c379a00000000000000000000000000000000000000000000000000000000081526004018080602001828103825260198152602001807f4d656d626572206d75737420626520726567697374657265640000000000000081525060200191505060405180910390fd5b858573__RegistryStorageLib____________________63775abae4600260009054906101000a900473ffffffffffffffffffffffffffffffffffffffff1684846040518463ffffffff167c0100000000000000000000000000000000000000000000000000000000028152600401808473ffffffffffffffffffffffffffffffffffffffff1673ffffffffffffffffffffffffffffffffffffffff168152602001838152602001828152602001935050505060206040518083038186803b15801561486257600080fd5b505af4158015614876573d6000803e3d6000fd5b505050506040513d602081101561488c57600080fd5b81019080805190602001909291905050501515614911576040517f08c379a000000000000000000000000000000000000000000000000000000000815260040180806020018281038252601b8152602001807f417474726962757465206e756d626572206d757374206578697374000000000081525060200191505060405180910390fd5b73__RegistryStorageLib____________________63ea3f86cf600260009054906101000a900473ffffffffffffffffffffffffffffffffffffffff168a8a8a6040518563ffffffff167c0100000000000000000000000000000000000000000000000000000000028152600401808573ffffffffffffffffffffffffffffffffffffffff1673ffffffffffffffffffffffffffffffffffffffff168152602001848152602001838152602001826000191660001916815260200194505050505060006040518083038186803b1580156149ea57600080fd5b505af41580156149fe573d6000803e3d6000fd5b5050505073__RegistryStorageLib____________________631f91a7f5600260009054906101000a900473ffffffffffffffffffffffffffffffffffffffff168a8a6040518463ffffffff167c0100000000000000000000000000000000000000000000000000000000028152600401808473ffffffffffffffffffffffffffffffffffffffff1673ffffffffffffffffffffffffffffffffffffffff168152602001838152602001828152602001935050505060206040518083038186803b158015614acb57600080fd5b505af4158015614adf573d6000803e3d6000fd5b505050506040513d6020811015614af557600080fd5b8101908080519060200190929190505050945073__RegistryStorageLib____________________63afeef9b8600260009054906101000a900473ffffffffffffffffffffffffffffffffffffffff168a8a6040518463ffffffff167c0100000000000000000000000000000000000000000000000000000000028152600401808473ffffffffffffffffffffffffffffffffffffffff1673ffffffffffffffffffffffffffffffffffffffff168152602001838152602001828152602001935050505060206040518083038186803b158015614bd157600080fd5b505af4158015614be5573d6000803e3d6000fd5b505050506040513d6020811015614bfb57600080fd5b81019080805190602001909291905050509350836000191687897fc4970cc78910aa0998aca6333d6db8a393651a6560a464ddc2d6bbbed55cfc1e888a60405180836000191660001916815260200182600019166000191681526020019250505060405180910390a45050505050505050565b6000809054906101000a900473ffffffffffffffffffffffffffffffffffffffff1673ffffffffffffffffffffffffffffffffffffffff163373ffffffffffffffffffffffffffffffffffffffff16141515614cc957600080fd5b600160149054906101000a900460ff16151515614ce557600080fd5b60018060146101000a81548160ff0219169083151502179055507f6985a02210a168e66602d3235cb6db0e70f92b3ba4d376a33c0f3d9434bff62560405160405180910390a1565b6000809054906101000a900473ffffffffffffffffffffffffffffffffffffffff1681565b600073__RegistryStorageLib____________________63cc40ddc0600260009054906101000a900473ffffffffffffffffffffffffffffffffffffffff16846040518363ffffffff167c0100000000000000000000000000000000000000000000000000000000028152600401808373ffffffffffffffffffffffffffffffffffffffff1673ffffffffffffffffffffffffffffffffffffffff1681526020018281526020019250505060206040518083038186803b158015614e1557600080fd5b505af4158015614e29573d6000803e3d6000fd5b505050506040513d6020811015614e3f57600080fd5b81019080805190602001909291905050509050919050565b600080600080614e65616d90565b8573__RegistryStorageLib____________________63cc40ddc0600260009054906101000a900473ffffffffffffffffffffffffffffffffffffffff16836040518363ffffffff167c0100000000000000000000000000000000000000000000000000000000028152600401808373ffffffffffffffffffffffffffffffffffffffff1673ffffffffffffffffffffffffffffffffffffffff1681526020018281526020019250505060206040518083038186803b158015614f2757600080fd5b505af4158015614f3b573d6000803e3d6000fd5b505050506040513d6020811015614f5157600080fd5b81019080805190602001909291905050501515614fd6576040517f08c379a00000000000000000000000000000000000000000000000000000000081526004018080602001828103825260198152602001807f4d656d626572206d75737420626520726567697374657265640000000000000081525060200191505060405180910390fd5b614fdf87616a46565b91508160000151955081602001519450816040015193508160600151925050509193509193565b6000600160149054906101000a900460ff1615151561502457600080fd5b8373__RegistryStorageLib____________________63cc40ddc0600260009054906101000a900473ffffffffffffffffffffffffffffffffffffffff16836040518363ffffffff167c0100000000000000000000000000000000000000000000000000000000028152600401808373ffffffffffffffffffffffffffffffffffffffff1673ffffffffffffffffffffffffffffffffffffffff1681526020018281526020019250505060206040518083038186803b1580156150e657600080fd5b505af41580156150fa573d6000803e3d6000fd5b505050506040513d602081101561511057600080fd5b81019080805190602001909291905050501515615195576040517f08c379a00000000000000000000000000000000000000000000000000000000081526004018080602001828103825260198152602001807f4d656d626572206d75737420626520726567697374657265640000000000000081525060200191505060405180910390fd5b843373ffffffffffffffffffffffffffffffffffffffff1673__RegistryStorageLib____________________63df3967f2600260009054906101000a900473ffffffffffffffffffffffffffffffffffffffff16846040518363ffffffff167c0100000000000000000000000000000000000000000000000000000000028152600401808373ffffffffffffffffffffffffffffffffffffffff1673ffffffffffffffffffffffffffffffffffffffff1681526020018281526020019250505060206040518083038186803b15801561526e57600080fd5b505af4158015615282573d6000803e3d6000fd5b505050506040513d602081101561529857600080fd5b810190808051906020019092919050505073ffffffffffffffffffffffffffffffffffffffff1614151561535a576040517f08c379a00000000000000000000000000000000000000000000000000000000081526004018080602001828103825260328152602001807f4f6e6c7920746865206f776e6572206f6620746865206d656d6265722063616e81526020017f20706572666f726d2074686973207461736b000000000000000000000000000081525060400191505060405180910390fd5b346153636167b8565b111515156153ff576040517f08c379a00000000000000000000000000000000000000000000000000000000081526004018080602001828103825260288152602001807f56616c75652069732062656c6f7720726567697374726174696f6e207472616e81526020017f736665722066656500000000000000000000000000000000000000000000000081525060400191505060405180910390fd5b73__RegistryStorageLib____________________63df3967f2600260009054906101000a900473ffffffffffffffffffffffffffffffffffffffff16886040518363ffffffff167c0100000000000000000000000000000000000000000000000000000000028152600401808373ffffffffffffffffffffffffffffffffffffffff1673ffffffffffffffffffffffffffffffffffffffff1681526020018281526020019250505060206040518083038186803b1580156154c057600080fd5b505af41580156154d4573d6000803e3d6000fd5b505050506040513d60208110156154ea57600080fd5b8101908080519060200190929190505050925073__RegistryStorageLib____________________6339e7c3d6600260009054906101000a900473ffffffffffffffffffffffffffffffffffffffff1688886040518463ffffffff167c0100000000000000000000000000000000000000000000000000000000028152600401808473ffffffffffffffffffffffffffffffffffffffff1673ffffffffffffffffffffffffffffffffffffffff1681526020018381526020018273ffffffffffffffffffffffffffffffffffffffff1673ffffffffffffffffffffffffffffffffffffffff168152602001935050505060006040518083038186803b1580156155f257600080fd5b505af4158015615606573d6000803e3d6000fd5b5050505073__RegistryStorageLib____________________63e9a56575600260009054906101000a900473ffffffffffffffffffffffffffffffffffffffff1688876040518463ffffffff167c0100000000000000000000000000000000000000000000000000000000028152600401808473ffffffffffffffffffffffffffffffffffffffff1673ffffffffffffffffffffffffffffffffffffffff1681526020018381526020018260001916600019168152602001935050505060006040518083038186803b1580156156db57600080fd5b505af41580156156ef573d6000803e3d6000fd5b505050508473ffffffffffffffffffffffffffffffffffffffff168373ffffffffffffffffffffffffffffffffffffffff16877f16da62289fb03291b4545b27ad6fd3329305dfae113f331e8523fcb90148cc6560405160405180910390a4505050505050565b60008273__RegistryStorageLib____________________63cc40ddc0600260009054906101000a900473ffffffffffffffffffffffffffffffffffffffff16836040518363ffffffff167c0100000000000000000000000000000000000000000000000000000000028152600401808373ffffffffffffffffffffffffffffffffffffffff1673ffffffffffffffffffffffffffffffffffffffff1681526020018281526020019250505060206040518083038186803b15801561581a57600080fd5b505af415801561582e573d6000803e3d6000fd5b505050506040513d602081101561584457600080fd5b810190808051906020019092919050505015156158c9576040517f08c379a00000000000000000000000000000000000000000000000000000000081526004018080602001828103825260198152602001807f4d656d626572206d75737420626520726567697374657265640000000000000081525060200191505060405180910390fd5b8383600073__RegistryStorageLib____________________639b15b8b2600260009054906101000a900473ffffffffffffffffffffffffffffffffffffffff1685856040518463ffffffff167c0100000000000000000000000000000000000000000000000000000000028152600401808473ffffffffffffffffffffffffffffffffffffffff1673ffffffffffffffffffffffffffffffffffffffff1681526020018381526020018260001916600019168152602001935050505060206040518083038186803b15801561599e57600080fd5b505af41580156159b2573d6000803e3d6000fd5b505050506040513d60208110156159c857600080fd5b8101908080519060200190929190505050111515615a4e576040517f08c379a00000000000000000000000000000000000000000000000000000000081526004018080602001828103825260198152602001807f417474726962757465206e616d65206d7573742065786973740000000000000081525060200191505060405180910390fd5b73__RegistryStorageLib____________________639b15b8b2600260009054906101000a900473ffffffffffffffffffffffffffffffffffffffff1688886040518463ffffffff167c0100000000000000000000000000000000000000000000000000000000028152600401808473ffffffffffffffffffffffffffffffffffffffff1673ffffffffffffffffffffffffffffffffffffffff1681526020018381526020018260001916600019168152602001935050505060206040518083038186803b158015615b1f57600080fd5b505af4158015615b33573d6000803e3d6000fd5b505050506040513d6020811015615b4957600080fd5b8101908080519060200190929190505050935050505092915050565b600160149054906101000a900460ff16151515615b8157600080fd5b6000809054906101000a900473ffffffffffffffffffffffffffffffffffffffff1673ffffffffffffffffffffffffffffffffffffffff163373ffffffffffffffffffffffffffffffffffffffff16141515615bdc57600080fd5b8073__RegistryStorageLib____________________63cc40ddc0600260009054906101000a900473ffffffffffffffffffffffffffffffffffffffff16836040518363ffffffff167c0100000000000000000000000000000000000000000000000000000000028152600401808373ffffffffffffffffffffffffffffffffffffffff1673ffffffffffffffffffffffffffffffffffffffff1681526020018281526020019250505060206040518083038186803b158015615c9e57600080fd5b505af4158015615cb2573d6000803e3d6000fd5b505050506040513d6020811015615cc857600080fd5b81019080805190602001909291905050501515615d4d576040517f08c379a00000000000000000000000000000000000000000000000000000000081526004018080602001828103825260198152602001807f4d656d626572206d75737420626520726567697374657265640000000000000081525060200191505060405180910390fd5b8173__RegistryStorageLib____________________63ac926120600260009054906101000a900473ffffffffffffffffffffffffffffffffffffffff16836040518363ffffffff167c0100000000000000000000000000000000000000000000000000000000028152600401808373ffffffffffffffffffffffffffffffffffffffff1673ffffffffffffffffffffffffffffffffffffffff1681526020018281526020019250505060206040518083038186803b158015615e0f57600080fd5b505af4158015615e23573d6000803e3d6000fd5b505050506040513d6020811015615e3957600080fd5b81019080805190602001909291905050501515615ebe576040517f08c379a00000000000000000000000000000000000000000000000000000000081526004018080602001828103825260168152602001807f4d656d626572206d75737420626520656e61626c65640000000000000000000081525060200191505060405180910390fd5b73__RegistryStorageLib____________________63d8263dac600260009054906101000a900473ffffffffffffffffffffffffffffffffffffffff168560006040518463ffffffff167c0100000000000000000000000000000000000000000000000000000000028152600401808473ffffffffffffffffffffffffffffffffffffffff1673ffffffffffffffffffffffffffffffffffffffff16815260200183815260200182151515158152602001935050505060006040518083038186803b158015615f8c57600080fd5b505af4158015615fa0573d6000803e3d6000fd5b50505050827f77a26bc01a7c1a1fc488dda7972e7db7e69f5d94fb4a553c00e2dfc462f2167860405160405180910390a2505050565b60008060009054906101000a900473ffffffffffffffffffffffffffffffffffffffff1673ffffffffffffffffffffffffffffffffffffffff168273ffffffffffffffffffffffffffffffffffffffff16149050919050565b60008060008060009054906101000a900473ffffffffffffffffffffffffffffffffffffffff1673ffffffffffffffffffffffffffffffffffffffff163373ffffffffffffffffffffffffffffffffffffffff1614151561608f57600080fd5b600092505b835183101561629c5783838151811015156160ab57fe5b9060200190602002015191508173ffffffffffffffffffffffffffffffffffffffff166370a08231306040518263ffffffff167c0100000000000000000000000000000000000000000000000000000000028152600401808273ffffffffffffffffffffffffffffffffffffffff1673ffffffffffffffffffffffffffffffffffffffff168152602001915050602060405180830381600087803b15801561615257600080fd5b505af1158015616166573d6000803e3d6000fd5b505050506040513d602081101561617c57600080fd5b810190808051906020019092919050505090508173ffffffffffffffffffffffffffffffffffffffff1663a9059cbb6000809054906101000a900473ffffffffffffffffffffffffffffffffffffffff16836040518363ffffffff167c0100000000000000000000000000000000000000000000000000000000028152600401808373ffffffffffffffffffffffffffffffffffffffff1673ffffffffffffffffffffffffffffffffffffffff16815260200182815260200192505050602060405180830381600087803b15801561625357600080fd5b505af1158015616267573d6000803e3d6000fd5b505050506040513d602081101561627d57600080fd5b8101908080519060200190929190505050508280600101935050616094565b6000809054906101000a900473ffffffffffffffffffffffffffffffffffffffff1673ffffffffffffffffffffffffffffffffffffffff16ff5b6000809054906101000a900473ffffffffffffffffffffffffffffffffffffffff1673ffffffffffffffffffffffffffffffffffffffff163373ffffffffffffffffffffffffffffffffffffffff1614151561633157600080fd5b600160149054906101000a900460ff16151561634c57600080fd5b600360009054906101000a900473ffffffffffffffffffffffffffffffffffffffff1673ffffffffffffffffffffffffffffffffffffffff168173ffffffffffffffffffffffffffffffffffffffff1614151515616438576040517f08c379a000000000000000000000000000000000000000000000000000000000815260040180806020018281038252602e8152602001807f466565204c6f6f6b75702061646472657373206d75737420626520612064696681526020017f666572656e74206164647265737300000000000000000000000000000000000081525060400191505060405180910390fd5b80600360006101000a81548173ffffffffffffffffffffffffffffffffffffffff021916908373ffffffffffffffffffffffffffffffffffffffff16021790555050565b60008173__RegistryStorageLib____________________63cc40ddc0600260009054906101000a900473ffffffffffffffffffffffffffffffffffffffff16836040518363ffffffff167c0100000000000000000000000000000000000000000000000000000000028152600401808373ffffffffffffffffffffffffffffffffffffffff1673ffffffffffffffffffffffffffffffffffffffff1681526020018281526020019250505060206040518083038186803b15801561654057600080fd5b505af4158015616554573d6000803e3d6000fd5b505050506040513d602081101561656a57600080fd5b810190808051906020019092919050505015156165ef576040517f08c379a00000000000000000000000000000000000000000000000000000000081526004018080602001828103825260198152602001807f4d656d626572206d75737420626520726567697374657265640000000000000081525060200191505060405180910390fd5b73__RegistryStorageLib____________________6315f22968600260009054906101000a900473ffffffffffffffffffffffffffffffffffffffff16856040518363ffffffff167c0100000000000000000000000000000000000000000000000000000000028152600401808373ffffffffffffffffffffffffffffffffffffffff1673ffffffffffffffffffffffffffffffffffffffff1681526020018281526020019250505060206040518083038186803b1580156166b057600080fd5b505af41580156166c4573d6000803e3d6000fd5b505050506040513d60208110156166da57600080fd5b8101908080519060200190929190505050915050919050565b600160009054906101000a900473ffffffffffffffffffffffffffffffffffffffff1681565b6000809054906101000a900473ffffffffffffffffffffffffffffffffffffffff1673ffffffffffffffffffffffffffffffffffffffff163373ffffffffffffffffffffffffffffffffffffffff1614151561677457600080fd5b80600160006101000a81548173ffffffffffffffffffffffffffffffffffffffff021916908373ffffffffffffffffffffffffffffffffffffffff16021790555050565b6000600360009054906101000a900473ffffffffffffffffffffffffffffffffffffffff1673ffffffffffffffffffffffffffffffffffffffff166309c7a6946040518163ffffffff167c0100000000000000000000000000000000000000000000000000000000028152600401602060405180830381600087803b15801561684057600080fd5b505af1158015616854573d6000803e3d6000fd5b505050506040513d602081101561686a57600080fd5b8101908080519060200190929190505050905090565b600080151561691d576040517f08c379a000000000000000000000000000000000000000000000000000000000815260040180806020018281038252602a8152602001807f546869732066756e6374696f6e2069732064697361626c6564206f6e2074686981526020017f7320636f6e74726163740000000000000000000000000000000000000000000081525060400191505060405180910390fd5b60009050919050565b600073__RegistryStorageLib____________________63bd64b8a6600260009054906101000a900473ffffffffffffffffffffffffffffffffffffffff16846040518363ffffffff167c0100000000000000000000000000000000000000000000000000000000028152600401808373ffffffffffffffffffffffffffffffffffffffff1673ffffffffffffffffffffffffffffffffffffffff16815260200182600019166000191681526020019250505060206040518083038186803b1580156169f157600080fd5b505af4158015616a05573d6000803e3d6000fd5b505050506040513d6020811015616a1b57600080fd5b81019080805190602001909291905050509050919050565b600080823b905060008111915050919050565b616a4e616d90565b616a56616d90565b60806040519081016040528084815260200173__RegistryStorageLib____________________631eef249c600260009054906101000a900473ffffffffffffffffffffffffffffffffffffffff16876040518363ffffffff167c0100000000000000000000000000000000000000000000000000000000028152600401808373ffffffffffffffffffffffffffffffffffffffff1673ffffffffffffffffffffffffffffffffffffffff1681526020018281526020019250505060206040518083038186803b158015616b2957600080fd5b505af4158015616b3d573d6000803e3d6000fd5b505050506040513d6020811015616b5357600080fd5b810190808051906020019092919050505060001916815260200173__RegistryStorageLib____________________63df3967f2600260009054906101000a900473ffffffffffffffffffffffffffffffffffffffff16876040518363ffffffff167c0100000000000000000000000000000000000000000000000000000000028152600401808373ffffffffffffffffffffffffffffffffffffffff1673ffffffffffffffffffffffffffffffffffffffff1681526020018281526020019250505060206040518083038186803b158015616c2e57600080fd5b505af4158015616c42573d6000803e3d6000fd5b505050506040513d6020811015616c5857600080fd5b810190808051906020019092919050505073ffffffffffffffffffffffffffffffffffffffff16815260200173__RegistryStorageLib____________________63ac926120600260009054906101000a900473ffffffffffffffffffffffffffffffffffffffff16876040518363ffffffff167c0100000000000000000000000000000000000000000000000000000000028152600401808373ffffffffffffffffffffffffffffffffffffffff1673ffffffffffffffffffffffffffffffffffffffff1681526020018281526020019250505060206040518083038186803b158015616d4557600080fd5b505af4158015616d59573d6000803e3d6000fd5b505050506040513d6020811015616d6f57600080fd5b81019080805190602001909291905050501515815250905080915050919050565b6080604051908101604052806000815260200160008019168152602001600073ffffffffffffffffffffffffffffffffffffffff16815260200160001515815250905600a165627a7a7230582093a3855bce006e25eba3efa10b254bbe57d1583b74b2d258d158135d7b314ed10029",
  "source": "pragma solidity ^0.4.23;\r\n\r\nimport \"./Registry.sol\";\r\nimport \"./IVehicleRegistry.sol\";\r\nimport \"./IManufacturerRegistry.sol\";\r\nimport \"../node_modules/openzeppelin-solidity/contracts/AddressUtils.sol\";\r\n\r\ncontract VehicleRegistry is Registry, IVehicleRegistry {\r\n\r\n    using AddressUtils for address;\r\n\r\n    address private manufacturerRegistryStorageAddress;\r\n\r\n    constructor(address _storageAddress, address _feeLookupAddres, address _manufacturerRegistryStorageAddress) \r\n        Registry(_storageAddress, _feeLookupAddres)\r\n        public {\r\n        manufacturerRegistryStorageAddress = _manufacturerRegistryStorageAddress;\r\n    }\r\n\r\n//modifiers\r\n    modifier registeredAndEnabledManufacturer (bytes32 _manufacturerId) {\r\n        require(\r\n            IManufacturerRegistry(manufacturerRegistryStorageAddress).isManufacturerRegisteredAndEnabled(_manufacturerId), \r\n            \"Manufacturer must be registered and enabled\");\r\n        _;\r\n    }\r\n\r\n    modifier senderIsManufacturerOwner (bytes32 _manufacturerId) {\r\n        require(\r\n            IManufacturerRegistry(manufacturerRegistryStorageAddress).getManufacturerOwner(_manufacturerId) == msg.sender, \r\n            \"Only the owner of the manufacturer can call this function\");\r\n        _;\r\n    }\r\n\r\n    modifier isContractAddress(address _address) {\r\n        require(_address.isContract(), \"Address must be a contract\");\r\n        _;\r\n    }\r\n\r\n//IVehicleRegistry\r\n    function getVehicleOwner(bytes32 _vin) \r\n        external \r\n        memberIdRegistered(_vin)\r\n        returns (address) {\r\n        uint256 memberNumber = getMemberNumber(_vin);\r\n        Member memory member = getMemberInternal(memberNumber);\r\n        return member.owner;\r\n    }\r\n\r\n    function isVehicleRegistered(bytes32 _vin) \r\n        external \r\n        returns (bool) {\r\n        uint256 memberNumber = getMemberNumber(_vin);\r\n        return isMemberRegistered(memberNumber);\r\n    }\r\n\r\n//base overrides\r\n    //override base function to disable it - must use registerVehicle\r\n    function registerMember(bytes32) \r\n        public payable\r\n        returns (uint256) {\r\n        require(false, \"This function is disabled on this contract\");\r\n        return 0;\r\n    }    \r\n\r\n//external VehicleRegistry specific\r\n    function registerVehicle(bytes32 _vin, bytes32 _manufacturerId) \r\n        external payable\r\n        whenNotPaused()\r\n        paidMemberRegistrationFee()\r\n        memberIdNotRegistered(_vin)\r\n        registeredAndEnabledManufacturer(_manufacturerId)\r\n        senderIsManufacturerOwner(_manufacturerId)\r\n        returns (uint256) {\r\n        uint256 memberNumber = RegistryStorageLib.storeMember(storageAddress, _vin, msg.sender);\r\n        bytes32 attributeName = \"manufacturer\";\r\n        bytes32 attributeType = \"id\";\r\n        RegistryStorageLib.storeMemberAttribute(storageAddress, memberNumber, attributeName, attributeType, _manufacturerId);\r\n        emit MemberRegistered(memberNumber, _vin);\r\n        return memberNumber;\r\n    }\r\n\r\n    function setMaintenanceLogAddress(bytes32 _vin, address _address) \r\n        external payable \r\n        whenNotPaused()    \r\n        memberIdRegistered(_vin)\r\n        memberIdOwner(_vin)\r\n        isContractAddress(_address)\r\n    {\r\n        uint256 memberNumber = RegistryStorageLib.getMemberNumber(storageAddress, _vin);\r\n        bytes32 attributeName = \"maintenanceLogAddress\";\r\n        bytes32 attributeType = \"address\";\r\n        RegistryStorageLib.storeMemberAttribute(storageAddress, memberNumber, attributeName, attributeType, bytes32(_address));\r\n    }\r\n\r\n    function getMaintenanceLogAddress(bytes32 _vin) \r\n        external payable \r\n        whenNotPaused()    \r\n        memberIdRegistered(_vin)\r\n        returns (address)\r\n    {\r\n        uint256 memberNumber = RegistryStorageLib.getMemberNumber(storageAddress, _vin);\r\n        bytes32 attributeName = \"maintenanceLogAddress\";\r\n        uint256 attributeNumber = RegistryStorageLib.getAttributeNumber(storageAddress, memberNumber, attributeName);\r\n        return address(RegistryStorageLib.getAttributeValue(storageAddress, memberNumber, attributeNumber));\r\n    }    \r\n}",
  "sourcePath": "C:\\dev\\repos\\VehicleMaintenanceRegistry\\src\\VMR\\contracts\\VehicleRegistry.sol",
  "compiler": {
    "name": "solc",
    "version": "0.4.24+commit.e67f0147.Emscripten.clang"
  },
  "schemaVersion": "2.0.1",
  "updatedAt": "2018-07-12T11:59:48.091Z"
}