{
  "contractName": "VehicleRegistry",
  "abi": [
    {
      "constant": false,
      "inputs": [],
      "name": "unpause",
      "outputs": [],
      "payable": false,
      "stateMutability": "nonpayable",
      "type": "function"
    },
    {
      "constant": false,
      "inputs": [],
      "name": "claimOwnership",
      "outputs": [],
      "payable": false,
      "stateMutability": "nonpayable",
      "type": "function"
    },
    {
      "constant": true,
      "inputs": [],
      "name": "paused",
      "outputs": [
        {
          "name": "",
          "type": "bool"
        }
      ],
      "payable": false,
      "stateMutability": "view",
      "type": "function"
    },
    {
      "constant": false,
      "inputs": [],
      "name": "renounceOwnership",
      "outputs": [],
      "payable": false,
      "stateMutability": "nonpayable",
      "type": "function"
    },
    {
      "constant": false,
      "inputs": [],
      "name": "pause",
      "outputs": [],
      "payable": false,
      "stateMutability": "nonpayable",
      "type": "function"
    },
    {
      "constant": true,
      "inputs": [],
      "name": "owner",
      "outputs": [
        {
          "name": "",
          "type": "address"
        }
      ],
      "payable": false,
      "stateMutability": "view",
      "type": "function"
    },
    {
      "constant": false,
      "inputs": [
        {
          "name": "tokens",
          "type": "address[]"
        }
      ],
      "name": "destroy",
      "outputs": [],
      "payable": false,
      "stateMutability": "nonpayable",
      "type": "function"
    },
    {
      "constant": true,
      "inputs": [],
      "name": "pendingOwner",
      "outputs": [
        {
          "name": "",
          "type": "address"
        }
      ],
      "payable": false,
      "stateMutability": "view",
      "type": "function"
    },
    {
      "constant": false,
      "inputs": [
        {
          "name": "newOwner",
          "type": "address"
        }
      ],
      "name": "transferOwnership",
      "outputs": [],
      "payable": false,
      "stateMutability": "nonpayable",
      "type": "function"
    },
    {
      "inputs": [
        {
          "name": "_vehicleRegistryStorageAddress",
          "type": "address"
        },
        {
          "name": "_vehicleManufacturerRegistryAddress",
          "type": "address"
        },
        {
          "name": "_feeCheckerAddress",
          "type": "address"
        }
      ],
      "payable": false,
      "stateMutability": "nonpayable",
      "type": "constructor"
    },
    {
      "anonymous": false,
      "inputs": [
        {
          "indexed": false,
          "name": "_VIN",
          "type": "bytes32"
        }
      ],
      "name": "Registered",
      "type": "event"
    },
    {
      "anonymous": false,
      "inputs": [
        {
          "indexed": false,
          "name": "_VIN",
          "type": "bytes32"
        },
        {
          "indexed": false,
          "name": "_from",
          "type": "address"
        },
        {
          "indexed": false,
          "name": "_to",
          "type": "address"
        }
      ],
      "name": "VehicleOwnershipTransferRequest",
      "type": "event"
    },
    {
      "anonymous": false,
      "inputs": [
        {
          "indexed": false,
          "name": "_VIN",
          "type": "bytes32"
        },
        {
          "indexed": false,
          "name": "_newOwner",
          "type": "address"
        }
      ],
      "name": "VehicleOwnershipTransferAccepted",
      "type": "event"
    },
    {
      "anonymous": false,
      "inputs": [
        {
          "indexed": false,
          "name": "_VIN",
          "type": "bytes32"
        },
        {
          "indexed": false,
          "name": "_from",
          "type": "address"
        },
        {
          "indexed": false,
          "name": "_to",
          "type": "address"
        }
      ],
      "name": "VehicleServiceHistoryAddressChanged",
      "type": "event"
    },
    {
      "anonymous": false,
      "inputs": [],
      "name": "Pause",
      "type": "event"
    },
    {
      "anonymous": false,
      "inputs": [],
      "name": "Unpause",
      "type": "event"
    },
    {
      "anonymous": false,
      "inputs": [
        {
          "indexed": true,
          "name": "previousOwner",
          "type": "address"
        }
      ],
      "name": "OwnershipRenounced",
      "type": "event"
    },
    {
      "anonymous": false,
      "inputs": [
        {
          "indexed": true,
          "name": "previousOwner",
          "type": "address"
        },
        {
          "indexed": true,
          "name": "newOwner",
          "type": "address"
        }
      ],
      "name": "OwnershipTransferred",
      "type": "event"
    },
    {
      "constant": false,
      "inputs": [
        {
          "name": "_address",
          "type": "address"
        }
      ],
      "name": "setStorageAddress",
      "outputs": [],
      "payable": true,
      "stateMutability": "payable",
      "type": "function"
    },
    {
      "constant": false,
      "inputs": [
        {
          "name": "_address",
          "type": "address"
        }
      ],
      "name": "setManufacturerRegistryAddress",
      "outputs": [],
      "payable": true,
      "stateMutability": "payable",
      "type": "function"
    },
    {
      "constant": false,
      "inputs": [
        {
          "name": "_address",
          "type": "address"
        }
      ],
      "name": "setFeeCheckerAddress",
      "outputs": [],
      "payable": true,
      "stateMutability": "payable",
      "type": "function"
    },
    {
      "constant": true,
      "inputs": [
        {
          "name": "_VIN",
          "type": "bytes32"
        }
      ],
      "name": "isRegistered",
      "outputs": [
        {
          "name": "",
          "type": "bool"
        }
      ],
      "payable": false,
      "stateMutability": "view",
      "type": "function"
    },
    {
      "constant": true,
      "inputs": [
        {
          "name": "_VIN",
          "type": "bytes32"
        }
      ],
      "name": "getVehicleManufacturerName",
      "outputs": [
        {
          "name": "manufacturerName",
          "type": "bytes32"
        }
      ],
      "payable": false,
      "stateMutability": "view",
      "type": "function"
    },
    {
      "constant": true,
      "inputs": [
        {
          "name": "_VIN",
          "type": "bytes32"
        }
      ],
      "name": "getVehicleLicencePlate",
      "outputs": [
        {
          "name": "licencePlate",
          "type": "bytes32"
        }
      ],
      "payable": false,
      "stateMutability": "view",
      "type": "function"
    },
    {
      "constant": true,
      "inputs": [
        {
          "name": "_VIN",
          "type": "bytes32"
        }
      ],
      "name": "getVehicleOwner",
      "outputs": [
        {
          "name": "owner",
          "type": "address"
        }
      ],
      "payable": false,
      "stateMutability": "view",
      "type": "function"
    },
    {
      "constant": true,
      "inputs": [
        {
          "name": "_VIN",
          "type": "bytes32"
        }
      ],
      "name": "getVehicleServiceHistoryAddress",
      "outputs": [
        {
          "name": "serviceHistoryAddress",
          "type": "address"
        }
      ],
      "payable": false,
      "stateMutability": "view",
      "type": "function"
    },
    {
      "constant": true,
      "inputs": [
        {
          "name": "_VIN",
          "type": "bytes32"
        }
      ],
      "name": "getVehicleRegisteredDate",
      "outputs": [
        {
          "name": "registeredDate",
          "type": "uint256"
        }
      ],
      "payable": false,
      "stateMutability": "view",
      "type": "function"
    },
    {
      "constant": false,
      "inputs": [
        {
          "name": "_VIN",
          "type": "bytes32"
        },
        {
          "name": "_licencePlate",
          "type": "bytes32"
        },
        {
          "name": "_manufacturerName",
          "type": "bytes32"
        }
      ],
      "name": "register",
      "outputs": [],
      "payable": true,
      "stateMutability": "payable",
      "type": "function"
    },
    {
      "constant": false,
      "inputs": [
        {
          "name": "_VIN",
          "type": "bytes32"
        },
        {
          "name": "_newOwner",
          "type": "address"
        },
        {
          "name": "_keyHash",
          "type": "bytes32"
        }
      ],
      "name": "transferVehicleOwnership",
      "outputs": [],
      "payable": true,
      "stateMutability": "payable",
      "type": "function"
    },
    {
      "constant": false,
      "inputs": [
        {
          "name": "_VIN",
          "type": "bytes32"
        },
        {
          "name": "_keyHash",
          "type": "bytes32"
        }
      ],
      "name": "acceptVehicleOwnership",
      "outputs": [],
      "payable": true,
      "stateMutability": "payable",
      "type": "function"
    },
    {
      "constant": false,
      "inputs": [
        {
          "name": "_VIN",
          "type": "bytes32"
        },
        {
          "name": "_serviceHistoryAddress",
          "type": "address"
        }
      ],
      "name": "setServiceHistoryAddress",
      "outputs": [],
      "payable": true,
      "stateMutability": "payable",
      "type": "function"
    }
  ],
  "bytecode": "0x60806040526000600160146101000a81548160ff02191690831515021790555034801561002b57600080fd5b506040516060806142c9833981018060405281019080805190602001909291908051906020019092919080519060200190929190505050336000806101000a81548173ffffffffffffffffffffffffffffffffffffffff021916908373ffffffffffffffffffffffffffffffffffffffff16021790555082600260006101000a81548173ffffffffffffffffffffffffffffffffffffffff021916908373ffffffffffffffffffffffffffffffffffffffff16021790555081600360006101000a81548173ffffffffffffffffffffffffffffffffffffffff021916908373ffffffffffffffffffffffffffffffffffffffff16021790555080600460006101000a81548173ffffffffffffffffffffffffffffffffffffffff021916908373ffffffffffffffffffffffffffffffffffffffff160217905550505050614152806101776000396000f300608060405260043610610128576000357c0100000000000000000000000000000000000000000000000000000000900463ffffffff16806327258b221461012d5780632c9df151146101765780632e52e026146101a85780633f4ba83a146102195780634da274fd146102305780634e71e0c81461027057806359b910d61461028757806359f1a879146102bd5780635c975abb146103015780636122a13414610330578063715018a61461037d5780638456cb59146103945780638da5cb5b146103ab578063c2dea66a14610402578063c3b4410a14610447578063c6786e5a14610494578063e30c3978146104fa578063e7c6336a14610551578063ea8bcc8a14610587578063f2fde38b146105bd578063f9d3102b14610600578063faf0c0ed14610652575b600080fd5b34801561013957600080fd5b5061015c60048036038101908080356000191690602001909291905050506106c3565b604051808215151515815260200191505060405180910390f35b6101a660048036038101908080356000191690602001909291908035600019169060200190929190505050610799565b005b3480156101b457600080fd5b506101d76004803603810190808035600019169060200190929190505050610f30565b604051808273ffffffffffffffffffffffffffffffffffffffff1673ffffffffffffffffffffffffffffffffffffffff16815260200191505060405180910390f35b34801561022557600080fd5b5061022e6111a6565b005b61026e600480360381019080803560001916906020019092919080356000191690602001909291908035600019169060200190929190505050611265565b005b34801561027c57600080fd5b50610285611a14565b005b6102bb600480360381019080803573ffffffffffffffffffffffffffffffffffffffff169060200190929190505050611bb3565b005b6102ff6004803603810190808035600019169060200190929190803573ffffffffffffffffffffffffffffffffffffffff169060200190929190505050611d0d565b005b34801561030d57600080fd5b506103166124b4565b604051808215151515815260200191505060405180910390f35b34801561033c57600080fd5b5061035f60048036038101908080356000191690602001909291905050506124c7565b60405180826000191660001916815260200191505060405180910390f35b34801561038957600080fd5b5061039261273d565b005b3480156103a057600080fd5b506103a961283f565b005b3480156103b757600080fd5b506103c06128fe565b604051808273ffffffffffffffffffffffffffffffffffffffff1673ffffffffffffffffffffffffffffffffffffffff16815260200191505060405180910390f35b34801561040e57600080fd5b506104316004803603810190808035600019169060200190929190505050612923565b6040518082815260200191505060405180910390f35b34801561045357600080fd5b506104766004803603810190808035600019169060200190929190505050612b99565b60405180826000191660001916815260200191505060405180910390f35b3480156104a057600080fd5b506104f860048036038101908080359060200190820180359060200190808060200260200160405190810160405280939291908181526020018383602002808284378201915050505050509192919290505050612e0f565b005b34801561050657600080fd5b5061050f6130b6565b604051808273ffffffffffffffffffffffffffffffffffffffff1673ffffffffffffffffffffffffffffffffffffffff16815260200191505060405180910390f35b610585600480360381019080803573ffffffffffffffffffffffffffffffffffffffff1690602001909291905050506130dc565b005b6105bb600480360381019080803573ffffffffffffffffffffffffffffffffffffffff169060200190929190505050613236565b005b3480156105c957600080fd5b506105fe600480360381019080803573ffffffffffffffffffffffffffffffffffffffff169060200190929190505050613390565b005b6106506004803603810190808035600019169060200190929190803573ffffffffffffffffffffffffffffffffffffffff169060200190929190803560001916906020019092919050505061342f565b005b34801561065e57600080fd5b506106816004803603810190808035600019169060200190929190505050613bed565b604051808273ffffffffffffffffffffffffffffffffffffffff1673ffffffffffffffffffffffffffffffffffffffff16815260200191505060405180910390f35b6000816011816000191673__ByteUtils_____________________________6335d7654d90916040518263ffffffff167c010000000000000000000000000000000000000000000000000000000002815260040180826000191660001916815260200191505060206040518083038186803b15801561074157600080fd5b505af4158015610755573d6000803e3d6000fd5b505050506040513d602081101561076b57600080fd5b810190808051906020019092919050505014151561078857600080fd5b61079183613e63565b915050919050565b600160149054906101000a900460ff161515156107b557600080fd5b816011816000191673__ByteUtils_____________________________6335d7654d90916040518263ffffffff167c010000000000000000000000000000000000000000000000000000000002815260040180826000191660001916815260200191505060206040518083038186803b15801561083157600080fd5b505af4158015610845573d6000803e3d6000fd5b505050506040513d602081101561085b57600080fd5b810190808051906020019092919050505014151561087857600080fd5b8261088281613e63565b151561091c576040517f08c379a00000000000000000000000000000000000000000000000000000000081526004018080602001828103825260378152602001807f5468652076656869636c65206d7573742062652072656769737465726564207481526020017f6f20706572666f726d20746869732066756e6374696f6e00000000000000000081525060400191505060405180910390fd5b83600073__VehicleRegistryStorage________________63bb544060600260009054906101000a900473ffffffffffffffffffffffffffffffffffffffff16846040518363ffffffff167c0100000000000000000000000000000000000000000000000000000000028152600401808373ffffffffffffffffffffffffffffffffffffffff1673ffffffffffffffffffffffffffffffffffffffff16815260200182600019166000191681526020019250505060206040518083038186803b1580156109e857600080fd5b505af41580156109fc573d6000803e3d6000fd5b505050506040513d6020811015610a1257600080fd5b810190808051906020019092919050505090508073ffffffffffffffffffffffffffffffffffffffff163373ffffffffffffffffffffffffffffffffffffffff16141515610aee576040517f08c379a00000000000000000000000000000000000000000000000000000000081526004018080602001828103825260388152602001807f4f6e6c79207468652070656e64696e672076656869636c65206f776e6572206381526020017f616e20706572666f726d20746869732066756e6374696f6e000000000000000081525060400191505060405180910390fd5b8585600073__VehicleRegistryStorage________________639f7d4a2f600260009054906101000a900473ffffffffffffffffffffffffffffffffffffffff16856040518363ffffffff167c0100000000000000000000000000000000000000000000000000000000028152600401808373ffffffffffffffffffffffffffffffffffffffff1673ffffffffffffffffffffffffffffffffffffffff16815260200182600019166000191681526020019250505060206040518083038186803b158015610bbb57600080fd5b505af4158015610bcf573d6000803e3d6000fd5b505050506040513d6020811015610be557600080fd5b8101908080519060200190929190505050905081600019168160001916141515610c9d576040517f08c379a00000000000000000000000000000000000000000000000000000000081526004018080602001828103825260358152602001807f546865206b65792070726f7669646564206d757374206d61746368207468652081526020017f6578697374696e67207472616e73666572206b6579000000000000000000000081525060400191505060405180910390fd5b73__VehicleRegistryStorage________________630f1ed0c6600260009054906101000a900473ffffffffffffffffffffffffffffffffffffffff168b336040518463ffffffff167c0100000000000000000000000000000000000000000000000000000000028152600401808473ffffffffffffffffffffffffffffffffffffffff1673ffffffffffffffffffffffffffffffffffffffff16815260200183600019166000191681526020018273ffffffffffffffffffffffffffffffffffffffff1673ffffffffffffffffffffffffffffffffffffffff168152602001935050505060006040518083038186803b158015610d9a57600080fd5b505af4158015610dae573d6000803e3d6000fd5b5050505073__VehicleRegistryStorage________________638b8fa92f600260009054906101000a900473ffffffffffffffffffffffffffffffffffffffff168b60006040518463ffffffff167c0100000000000000000000000000000000000000000000000000000000028152600401808473ffffffffffffffffffffffffffffffffffffffff1673ffffffffffffffffffffffffffffffffffffffff16815260200183600019166000191681526020018273ffffffffffffffffffffffffffffffffffffffff168152602001935050505060006040518083038186803b158015610e9a57600080fd5b505af4158015610eae573d6000803e3d6000fd5b505050507f07da1ce8cfc572f78d8bf120feca8a8d4ca65803ccc7395b6056dd3c7aef9eee89336040518083600019166000191681526020018273ffffffffffffffffffffffffffffffffffffffff1673ffffffffffffffffffffffffffffffffffffffff1681526020019250505060405180910390a1505050505050505050565b6000816011816000191673__ByteUtils_____________________________6335d7654d90916040518263ffffffff167c010000000000000000000000000000000000000000000000000000000002815260040180826000191660001916815260200191505060206040518083038186803b158015610fae57600080fd5b505af4158015610fc2573d6000803e3d6000fd5b505050506040513d6020811015610fd857600080fd5b8101908080519060200190929190505050141515610ff557600080fd5b82610fff81613e63565b1515611099576040517f08c379a00000000000000000000000000000000000000000000000000000000081526004018080602001828103825260378152602001807f5468652076656869636c65206d7573742062652072656769737465726564207481526020017f6f20706572666f726d20746869732066756e6374696f6e00000000000000000081525060400191505060405180910390fd5b73__VehicleRegistryStorage________________6369c5b2b8600260009054906101000a900473ffffffffffffffffffffffffffffffffffffffff16866040518363ffffffff167c0100000000000000000000000000000000000000000000000000000000028152600401808373ffffffffffffffffffffffffffffffffffffffff1673ffffffffffffffffffffffffffffffffffffffff16815260200182600019166000191681526020019250505060206040518083038186803b15801561116257600080fd5b505af4158015611176573d6000803e3d6000fd5b505050506040513d602081101561118c57600080fd5b810190808051906020019092919050505092505050919050565b6000809054906101000a900473ffffffffffffffffffffffffffffffffffffffff1673ffffffffffffffffffffffffffffffffffffffff163373ffffffffffffffffffffffffffffffffffffffff1614151561120157600080fd5b600160149054906101000a900460ff16151561121c57600080fd5b6000600160146101000a81548160ff0219169083151502179055507f7805862f689e2f13df9f062ff482ad3ad112aca9e0847911ed832e158c525b3360405160405180910390a1565b600160149054906101000a900460ff1615151561128157600080fd5b826011816000191673__ByteUtils_____________________________6335d7654d90916040518263ffffffff167c010000000000000000000000000000000000000000000000000000000002815260040180826000191660001916815260200191505060206040518083038186803b1580156112fd57600080fd5b505af4158015611311573d6000803e3d6000fd5b505050506040513d602081101561132757600080fd5b810190808051906020019092919050505014151561134457600080fd5b8361134e81613f70565b15156113e8576040517f08c379a00000000000000000000000000000000000000000000000000000000081526004018080602001828103825260398152602001807f5468652076656869636c65206d75737420626520756e7265676973746572656481526020017f20746f20706572666f726d20746869732066756e6374696f6e0000000000000081525060400191505060405180910390fd5b60006113f2613f83565b90508034101515611491576040517f08c379a000000000000000000000000000000000000000000000000000000000815260040180806020018281038252602f8152602001807f4e6f7420656e6f75676820457468207761732073656e7420746f20636f76657281526020017f206120726567697374726174696f6e000000000000000000000000000000000081525060400191505060405180910390fd5b83600360009054906101000a900473ffffffffffffffffffffffffffffffffffffffff1673ffffffffffffffffffffffffffffffffffffffff166327258b22826040518263ffffffff167c0100000000000000000000000000000000000000000000000000000000028152600401808260001916600019168152602001915050602060405180830381600087803b15801561152b57600080fd5b505af115801561153f573d6000803e3d6000fd5b505050506040513d602081101561155557600080fd5b81019080805190602001909291905050501515611600576040517f08c379a000000000000000000000000000000000000000000000000000000000815260040180806020018281038252603b8152602001807f546865206d616e756661637475726572206d757374206265207265676973746581526020017f72656420746f20696e766f6b6520746869732066756e6374696f6e000000000081525060400191505060405180910390fd5b84600360009054906101000a900473ffffffffffffffffffffffffffffffffffffffff1673ffffffffffffffffffffffffffffffffffffffff16630610e037826040518263ffffffff167c0100000000000000000000000000000000000000000000000000000000028152600401808260001916600019168152602001915050602060405180830381600087803b15801561169a57600080fd5b505af11580156116ae573d6000803e3d6000fd5b505050506040513d60208110156116c457600080fd5b8101908080519060200190929190505050151561176f576040517f08c379a00000000000000000000000000000000000000000000000000000000081526004018080602001828103825260388152602001807f546865206d616e756661637475726572206d75737420626520656e61626c656481526020017f20746f20696e766f6b6520746869732066756e6374696f6e000000000000000081525060400191505060405180910390fd5b73__VehicleRegistryStorage________________63a729e966600260009054906101000a900473ffffffffffffffffffffffffffffffffffffffff168a898b336000426040518863ffffffff167c0100000000000000000000000000000000000000000000000000000000028152600401808873ffffffffffffffffffffffffffffffffffffffff1673ffffffffffffffffffffffffffffffffffffffff1681526020018760001916600019168152602001866000191660001916815260200185600019166000191681526020018473ffffffffffffffffffffffffffffffffffffffff1673ffffffffffffffffffffffffffffffffffffffff1681526020018373ffffffffffffffffffffffffffffffffffffffff16815260200182815260200197505050505050505060006040518083038186803b1580156118b357600080fd5b505af41580156118c7573d6000803e3d6000fd5b5050505073__VehicleRegistryStorage________________63fee3dc99600260009054906101000a900473ffffffffffffffffffffffffffffffffffffffff168a60006040518463ffffffff167c0100000000000000000000000000000000000000000000000000000000028152600401808473ffffffffffffffffffffffffffffffffffffffff1673ffffffffffffffffffffffffffffffffffffffff16815260200183600019166000191681526020018273ffffffffffffffffffffffffffffffffffffffff168152602001935050505060006040518083038186803b1580156119b357600080fd5b505af41580156119c7573d6000803e3d6000fd5b505050507f10906fae603eebfac53ddc0f103bee8a044dd7643c425c7a90f921dfa15ef62c8860405180826000191660001916815260200191505060405180910390a15050505050505050565b600160009054906101000a900473ffffffffffffffffffffffffffffffffffffffff1673ffffffffffffffffffffffffffffffffffffffff163373ffffffffffffffffffffffffffffffffffffffff16141515611a7057600080fd5b600160009054906101000a900473ffffffffffffffffffffffffffffffffffffffff1673ffffffffffffffffffffffffffffffffffffffff166000809054906101000a900473ffffffffffffffffffffffffffffffffffffffff1673ffffffffffffffffffffffffffffffffffffffff167f8be0079c531659141344cd1fd0a4f28419497f9722a3daafe3b4186f6b6457e060405160405180910390a3600160009054906101000a900473ffffffffffffffffffffffffffffffffffffffff166000806101000a81548173ffffffffffffffffffffffffffffffffffffffff021916908373ffffffffffffffffffffffffffffffffffffffff1602179055506000600160006101000a81548173ffffffffffffffffffffffffffffffffffffffff021916908373ffffffffffffffffffffffffffffffffffffffff160217905550565b6000809054906101000a900473ffffffffffffffffffffffffffffffffffffffff1673ffffffffffffffffffffffffffffffffffffffff163373ffffffffffffffffffffffffffffffffffffffff16141515611c0e57600080fd5b80611c2e8173ffffffffffffffffffffffffffffffffffffffff1661404b565b1515611cc8576040517f08c379a00000000000000000000000000000000000000000000000000000000081526004018080602001828103825260308152602001807f546865206164647265737320737065636966696564206d75737420626520612081526020017f636f6e747261637420616464726573730000000000000000000000000000000081525060400191505060405180910390fd5b81600260006101000a81548173ffffffffffffffffffffffffffffffffffffffff021916908373ffffffffffffffffffffffffffffffffffffffff1602179055505050565b6000600160149054906101000a900460ff16151515611d2b57600080fd5b826011816000191673__ByteUtils_____________________________6335d7654d90916040518263ffffffff167c010000000000000000000000000000000000000000000000000000000002815260040180826000191660001916815260200191505060206040518083038186803b158015611da757600080fd5b505af4158015611dbb573d6000803e3d6000fd5b505050506040513d6020811015611dd157600080fd5b8101908080519060200190929190505050141515611dee57600080fd5b83611df881613e63565b1515611e92576040517f08c379a00000000000000000000000000000000000000000000000000000000081526004018080602001828103825260378152602001807f5468652076656869636c65206d7573742062652072656769737465726564207481526020017f6f20706572666f726d20746869732066756e6374696f6e00000000000000000081525060400191505060405180910390fd5b84600073__VehicleRegistryStorage________________6369c5b2b8600260009054906101000a900473ffffffffffffffffffffffffffffffffffffffff16846040518363ffffffff167c0100000000000000000000000000000000000000000000000000000000028152600401808373ffffffffffffffffffffffffffffffffffffffff1673ffffffffffffffffffffffffffffffffffffffff16815260200182600019166000191681526020019250505060206040518083038186803b158015611f5e57600080fd5b505af4158015611f72573d6000803e3d6000fd5b505050506040513d6020811015611f8857600080fd5b810190808051906020019092919050505090508073ffffffffffffffffffffffffffffffffffffffff163373ffffffffffffffffffffffffffffffffffffffff16141515612064576040517f08c379a00000000000000000000000000000000000000000000000000000000081526004018080602001828103825260308152602001807f4f6e6c79207468652076656869636c65206f776e65722063616e20706572666f81526020017f726d20746869732066756e6374696f6e0000000000000000000000000000000081525060400191505060405180910390fd5b856120848173ffffffffffffffffffffffffffffffffffffffff1661404b565b151561211e576040517f08c379a00000000000000000000000000000000000000000000000000000000081526004018080602001828103825260308152602001807f546865206164647265737320737065636966696564206d75737420626520612081526020017f636f6e747261637420616464726573730000000000000000000000000000000081525060400191505060405180910390fd5b73__VehicleRegistryStorage________________6380a9f75b600260009054906101000a900473ffffffffffffffffffffffffffffffffffffffff168a6040518363ffffffff167c0100000000000000000000000000000000000000000000000000000000028152600401808373ffffffffffffffffffffffffffffffffffffffff1673ffffffffffffffffffffffffffffffffffffffff16815260200182600019166000191681526020019250505060206040518083038186803b1580156121e757600080fd5b505af41580156121fb573d6000803e3d6000fd5b505050506040513d602081101561221157600080fd5b810190808051906020019092919050505095508673ffffffffffffffffffffffffffffffffffffffff168673ffffffffffffffffffffffffffffffffffffffff16141515156122ee576040517f08c379a00000000000000000000000000000000000000000000000000000000081526004018080602001828103825260348152602001807f546865206e65772061646472657373206d75737420626520646966666572656e81526020017f7420746f20746865206f6c64206164647265737300000000000000000000000081525060400191505060405180910390fd5b73__VehicleRegistryStorage________________63fee3dc99600260009054906101000a900473ffffffffffffffffffffffffffffffffffffffff168a8a6040518463ffffffff167c0100000000000000000000000000000000000000000000000000000000028152600401808473ffffffffffffffffffffffffffffffffffffffff1673ffffffffffffffffffffffffffffffffffffffff16815260200183600019166000191681526020018273ffffffffffffffffffffffffffffffffffffffff1673ffffffffffffffffffffffffffffffffffffffff168152602001935050505060006040518083038186803b1580156123eb57600080fd5b505af41580156123ff573d6000803e3d6000fd5b505050507fa858aa396ce169b6a3c6a22e661665721305b5be9ed57258b85f3cbc4fe08ddf8887896040518084600019166000191681526020018373ffffffffffffffffffffffffffffffffffffffff1673ffffffffffffffffffffffffffffffffffffffff1681526020018273ffffffffffffffffffffffffffffffffffffffff1673ffffffffffffffffffffffffffffffffffffffff168152602001935050505060405180910390a15050505050505050565b600160149054906101000a900460ff1681565b6000816011816000191673__ByteUtils_____________________________6335d7654d90916040518263ffffffff167c010000000000000000000000000000000000000000000000000000000002815260040180826000191660001916815260200191505060206040518083038186803b15801561254557600080fd5b505af4158015612559573d6000803e3d6000fd5b505050506040513d602081101561256f57600080fd5b810190808051906020019092919050505014151561258c57600080fd5b8261259681613e63565b1515612630576040517f08c379a00000000000000000000000000000000000000000000000000000000081526004018080602001828103825260378152602001807f5468652076656869636c65206d7573742062652072656769737465726564207481526020017f6f20706572666f726d20746869732066756e6374696f6e00000000000000000081525060400191505060405180910390fd5b73__VehicleRegistryStorage________________6399d54f40600260009054906101000a900473ffffffffffffffffffffffffffffffffffffffff16866040518363ffffffff167c0100000000000000000000000000000000000000000000000000000000028152600401808373ffffffffffffffffffffffffffffffffffffffff1673ffffffffffffffffffffffffffffffffffffffff16815260200182600019166000191681526020019250505060206040518083038186803b1580156126f957600080fd5b505af415801561270d573d6000803e3d6000fd5b505050506040513d602081101561272357600080fd5b810190808051906020019092919050505092505050919050565b6000809054906101000a900473ffffffffffffffffffffffffffffffffffffffff1673ffffffffffffffffffffffffffffffffffffffff163373ffffffffffffffffffffffffffffffffffffffff1614151561279857600080fd5b6000809054906101000a900473ffffffffffffffffffffffffffffffffffffffff1673ffffffffffffffffffffffffffffffffffffffff167ff8df31144d9c2f0f6b59d69b8b98abd5459d07f2742c4df920b25aae33c6482060405160405180910390a260008060006101000a81548173ffffffffffffffffffffffffffffffffffffffff021916908373ffffffffffffffffffffffffffffffffffffffff160217905550565b6000809054906101000a900473ffffffffffffffffffffffffffffffffffffffff1673ffffffffffffffffffffffffffffffffffffffff163373ffffffffffffffffffffffffffffffffffffffff1614151561289a57600080fd5b600160149054906101000a900460ff161515156128b657600080fd5b60018060146101000a81548160ff0219169083151502179055507f6985a02210a168e66602d3235cb6db0e70f92b3ba4d376a33c0f3d9434bff62560405160405180910390a1565b6000809054906101000a900473ffffffffffffffffffffffffffffffffffffffff1681565b6000816011816000191673__ByteUtils_____________________________6335d7654d90916040518263ffffffff167c010000000000000000000000000000000000000000000000000000000002815260040180826000191660001916815260200191505060206040518083038186803b1580156129a157600080fd5b505af41580156129b5573d6000803e3d6000fd5b505050506040513d60208110156129cb57600080fd5b81019080805190602001909291905050501415156129e857600080fd5b826129f281613e63565b1515612a8c576040517f08c379a00000000000000000000000000000000000000000000000000000000081526004018080602001828103825260378152602001807f5468652076656869636c65206d7573742062652072656769737465726564207481526020017f6f20706572666f726d20746869732066756e6374696f6e00000000000000000081525060400191505060405180910390fd5b73__VehicleRegistryStorage________________6372c72a7d600260009054906101000a900473ffffffffffffffffffffffffffffffffffffffff16866040518363ffffffff167c0100000000000000000000000000000000000000000000000000000000028152600401808373ffffffffffffffffffffffffffffffffffffffff1673ffffffffffffffffffffffffffffffffffffffff16815260200182600019166000191681526020019250505060206040518083038186803b158015612b5557600080fd5b505af4158015612b69573d6000803e3d6000fd5b505050506040513d6020811015612b7f57600080fd5b810190808051906020019092919050505092505050919050565b6000816011816000191673__ByteUtils_____________________________6335d7654d90916040518263ffffffff167c010000000000000000000000000000000000000000000000000000000002815260040180826000191660001916815260200191505060206040518083038186803b158015612c1757600080fd5b505af4158015612c2b573d6000803e3d6000fd5b505050506040513d6020811015612c4157600080fd5b8101908080519060200190929190505050141515612c5e57600080fd5b82612c6881613e63565b1515612d02576040517f08c379a00000000000000000000000000000000000000000000000000000000081526004018080602001828103825260378152602001807f5468652076656869636c65206d7573742062652072656769737465726564207481526020017f6f20706572666f726d20746869732066756e6374696f6e00000000000000000081525060400191505060405180910390fd5b73__VehicleRegistryStorage________________63171321d5600260009054906101000a900473ffffffffffffffffffffffffffffffffffffffff16866040518363ffffffff167c0100000000000000000000000000000000000000000000000000000000028152600401808373ffffffffffffffffffffffffffffffffffffffff1673ffffffffffffffffffffffffffffffffffffffff16815260200182600019166000191681526020019250505060206040518083038186803b158015612dcb57600080fd5b505af4158015612ddf573d6000803e3d6000fd5b505050506040513d6020811015612df557600080fd5b810190808051906020019092919050505092505050919050565b60008060008060009054906101000a900473ffffffffffffffffffffffffffffffffffffffff1673ffffffffffffffffffffffffffffffffffffffff163373ffffffffffffffffffffffffffffffffffffffff16141515612e6f57600080fd5b600092505b835183101561307c578383815181101515612e8b57fe5b9060200190602002015191508173ffffffffffffffffffffffffffffffffffffffff166370a08231306040518263ffffffff167c0100000000000000000000000000000000000000000000000000000000028152600401808273ffffffffffffffffffffffffffffffffffffffff1673ffffffffffffffffffffffffffffffffffffffff168152602001915050602060405180830381600087803b158015612f3257600080fd5b505af1158015612f46573d6000803e3d6000fd5b505050506040513d6020811015612f5c57600080fd5b810190808051906020019092919050505090508173ffffffffffffffffffffffffffffffffffffffff1663a9059cbb6000809054906101000a900473ffffffffffffffffffffffffffffffffffffffff16836040518363ffffffff167c0100000000000000000000000000000000000000000000000000000000028152600401808373ffffffffffffffffffffffffffffffffffffffff1673ffffffffffffffffffffffffffffffffffffffff16815260200182815260200192505050602060405180830381600087803b15801561303357600080fd5b505af1158015613047573d6000803e3d6000fd5b505050506040513d602081101561305d57600080fd5b8101908080519060200190929190505050508280600101935050612e74565b6000809054906101000a900473ffffffffffffffffffffffffffffffffffffffff1673ffffffffffffffffffffffffffffffffffffffff16ff5b600160009054906101000a900473ffffffffffffffffffffffffffffffffffffffff1681565b6000809054906101000a900473ffffffffffffffffffffffffffffffffffffffff1673ffffffffffffffffffffffffffffffffffffffff163373ffffffffffffffffffffffffffffffffffffffff1614151561313757600080fd5b806131578173ffffffffffffffffffffffffffffffffffffffff1661404b565b15156131f1576040517f08c379a00000000000000000000000000000000000000000000000000000000081526004018080602001828103825260308152602001807f546865206164647265737320737065636966696564206d75737420626520612081526020017f636f6e747261637420616464726573730000000000000000000000000000000081525060400191505060405180910390fd5b81600360006101000a81548173ffffffffffffffffffffffffffffffffffffffff021916908373ffffffffffffffffffffffffffffffffffffffff1602179055505050565b6000809054906101000a900473ffffffffffffffffffffffffffffffffffffffff1673ffffffffffffffffffffffffffffffffffffffff163373ffffffffffffffffffffffffffffffffffffffff1614151561329157600080fd5b806132b18173ffffffffffffffffffffffffffffffffffffffff1661404b565b151561334b576040517f08c379a00000000000000000000000000000000000000000000000000000000081526004018080602001828103825260308152602001807f546865206164647265737320737065636966696564206d75737420626520612081526020017f636f6e747261637420616464726573730000000000000000000000000000000081525060400191505060405180910390fd5b81600460006101000a81548173ffffffffffffffffffffffffffffffffffffffff021916908373ffffffffffffffffffffffffffffffffffffffff1602179055505050565b6000809054906101000a900473ffffffffffffffffffffffffffffffffffffffff1673ffffffffffffffffffffffffffffffffffffffff163373ffffffffffffffffffffffffffffffffffffffff161415156133eb57600080fd5b80600160006101000a81548173ffffffffffffffffffffffffffffffffffffffff021916908373ffffffffffffffffffffffffffffffffffffffff16021790555050565b6000600160149054906101000a900460ff1615151561344d57600080fd5b836011816000191673__ByteUtils_____________________________6335d7654d90916040518263ffffffff167c010000000000000000000000000000000000000000000000000000000002815260040180826000191660001916815260200191505060206040518083038186803b1580156134c957600080fd5b505af41580156134dd573d6000803e3d6000fd5b505050506040513d60208110156134f357600080fd5b810190808051906020019092919050505014151561351057600080fd5b8461351a81613e63565b15156135b4576040517f08c379a00000000000000000000000000000000000000000000000000000000081526004018080602001828103825260378152602001807f5468652076656869636c65206d7573742062652072656769737465726564207481526020017f6f20706572666f726d20746869732066756e6374696f6e00000000000000000081525060400191505060405180910390fd5b85600073__VehicleRegistryStorage________________6369c5b2b8600260009054906101000a900473ffffffffffffffffffffffffffffffffffffffff16846040518363ffffffff167c0100000000000000000000000000000000000000000000000000000000028152600401808373ffffffffffffffffffffffffffffffffffffffff1673ffffffffffffffffffffffffffffffffffffffff16815260200182600019166000191681526020019250505060206040518083038186803b15801561368057600080fd5b505af4158015613694573d6000803e3d6000fd5b505050506040513d60208110156136aa57600080fd5b810190808051906020019092919050505090508073ffffffffffffffffffffffffffffffffffffffff163373ffffffffffffffffffffffffffffffffffffffff16141515613786576040517f08c379a00000000000000000000000000000000000000000000000000000000081526004018080602001828103825260308152602001807f4f6e6c79207468652076656869636c65206f776e65722063616e20706572666f81526020017f726d20746869732066756e6374696f6e0000000000000000000000000000000081525060400191505060405180910390fd5b600061379061405e565b9050803410151561382f576040517f08c379a000000000000000000000000000000000000000000000000000000000815260040180806020018281038252602b8152602001807f4e6f7420656e6f75676820457468207761732073656e7420746f20636f76657281526020017f2061207472616e7366657200000000000000000000000000000000000000000081525060400191505060405180910390fd5b73__VehicleRegistryStorage________________6369c5b2b8600260009054906101000a900473ffffffffffffffffffffffffffffffffffffffff168b6040518363ffffffff167c0100000000000000000000000000000000000000000000000000000000028152600401808373ffffffffffffffffffffffffffffffffffffffff1673ffffffffffffffffffffffffffffffffffffffff16815260200182600019166000191681526020019250505060206040518083038186803b1580156138f857600080fd5b505af415801561390c573d6000803e3d6000fd5b505050506040513d602081101561392257600080fd5b8101908080519060200190929190505050955073__VehicleRegistryStorage________________638b8fa92f600260009054906101000a900473ffffffffffffffffffffffffffffffffffffffff168b8b6040518463ffffffff167c0100000000000000000000000000000000000000000000000000000000028152600401808473ffffffffffffffffffffffffffffffffffffffff1673ffffffffffffffffffffffffffffffffffffffff16815260200183600019166000191681526020018273ffffffffffffffffffffffffffffffffffffffff1673ffffffffffffffffffffffffffffffffffffffff168152602001935050505060006040518083038186803b158015613a3257600080fd5b505af4158015613a46573d6000803e3d6000fd5b5050505073__VehicleRegistryStorage________________63d93b8c14600260009054906101000a900473ffffffffffffffffffffffffffffffffffffffff168b8a6040518463ffffffff167c0100000000000000000000000000000000000000000000000000000000028152600401808473ffffffffffffffffffffffffffffffffffffffff1673ffffffffffffffffffffffffffffffffffffffff16815260200183600019166000191681526020018260001916600019168152602001935050505060006040518083038186803b158015613b2357600080fd5b505af4158015613b37573d6000803e3d6000fd5b505050507f0b6aa8bb444256cc851e9ba81d86b7262267fb388273a816090c109b4b6b214489878a6040518084600019166000191681526020018373ffffffffffffffffffffffffffffffffffffffff1673ffffffffffffffffffffffffffffffffffffffff1681526020018273ffffffffffffffffffffffffffffffffffffffff1673ffffffffffffffffffffffffffffffffffffffff168152602001935050505060405180910390a1505050505050505050565b6000816011816000191673__ByteUtils_____________________________6335d7654d90916040518263ffffffff167c010000000000000000000000000000000000000000000000000000000002815260040180826000191660001916815260200191505060206040518083038186803b158015613c6b57600080fd5b505af4158015613c7f573d6000803e3d6000fd5b505050506040513d6020811015613c9557600080fd5b8101908080519060200190929190505050141515613cb257600080fd5b82613cbc81613e63565b1515613d56576040517f08c379a00000000000000000000000000000000000000000000000000000000081526004018080602001828103825260378152602001807f5468652076656869636c65206d7573742062652072656769737465726564207481526020017f6f20706572666f726d20746869732066756e6374696f6e00000000000000000081525060400191505060405180910390fd5b73__VehicleRegistryStorage________________6380a9f75b600260009054906101000a900473ffffffffffffffffffffffffffffffffffffffff16866040518363ffffffff167c0100000000000000000000000000000000000000000000000000000000028152600401808373ffffffffffffffffffffffffffffffffffffffff1673ffffffffffffffffffffffffffffffffffffffff16815260200182600019166000191681526020019250505060206040518083038186803b158015613e1f57600080fd5b505af4158015613e33573d6000803e3d6000fd5b505050506040513d6020811015613e4957600080fd5b810190808051906020019092919050505092505050919050565b600073__VehicleRegistryStorage________________6345120511600260009054906101000a900473ffffffffffffffffffffffffffffffffffffffff16846040518363ffffffff167c0100000000000000000000000000000000000000000000000000000000028152600401808373ffffffffffffffffffffffffffffffffffffffff1673ffffffffffffffffffffffffffffffffffffffff16815260200182600019166000191681526020019250505060206040518083038186803b158015613f2e57600080fd5b505af4158015613f42573d6000803e3d6000fd5b505050506040513d6020811015613f5857600080fd5b81019080805190602001909291905050509050919050565b6000613f7b82613e63565b159050919050565b6000600460009054906101000a900473ffffffffffffffffffffffffffffffffffffffff1673ffffffffffffffffffffffffffffffffffffffff1663aa1d5e7d6040518163ffffffff167c0100000000000000000000000000000000000000000000000000000000028152600401602060405180830381600087803b15801561400b57600080fd5b505af115801561401f573d6000803e3d6000fd5b505050506040513d602081101561403557600080fd5b8101908080519060200190929190505050905090565b600080823b905060008111915050919050565b6000600460009054906101000a900473ffffffffffffffffffffffffffffffffffffffff1673ffffffffffffffffffffffffffffffffffffffff166354bb3da96040518163ffffffff167c0100000000000000000000000000000000000000000000000000000000028152600401602060405180830381600087803b1580156140e657600080fd5b505af11580156140fa573d6000803e3d6000fd5b505050506040513d602081101561411057600080fd5b81019080805190602001909291905050509050905600a165627a7a72305820397cf41ae53e02693fd2e55bb40ed798489b000b0e4bbe5c0ff350d71ef55c440029",
  "source": "pragma solidity ^0.4.23;\r\n\r\nimport \"./IVehicleRegistry.sol\";\r\nimport \"./IVehicleManufacturerRegistry.sol\";\r\nimport \"./ByteUtils.sol\";\r\nimport \"./VehicleRegistryStorage.sol\";\r\nimport \"./VehicleManufacturerRegistry.sol\";\r\nimport \"./VehicleRegistryFeeChecker.sol\";\r\nimport \"../node_modules/openzeppelin-solidity/contracts/AddressUtils.sol\";\r\nimport \"../node_modules/openzeppelin-solidity/contracts/ownership/Claimable.sol\";\r\nimport \"../node_modules/openzeppelin-solidity/contracts/lifecycle/TokenDestructible.sol\";\r\nimport \"../node_modules/openzeppelin-solidity/contracts/lifecycle/Pausable.sol\";\r\n\r\n/** @title Vehicle Registry. */\r\ncontract VehicleRegistry is IVehicleRegistry, TokenDestructible, Claimable, Pausable {\r\n\r\n    using ByteUtils for bytes32;\r\n    using AddressUtils for address;\r\n\r\n    address private vehicleRegistryStorageAddress;\r\n    address private vehicleManufacturerRegistryAddress;\r\n    address private feeCheckerAddress;\r\n\r\n//admin only functions\r\n    function setStorageAddress(address _address) \r\n        public \r\n        payable \r\n        onlyOwner() \r\n        addressIsContract(_address) {\r\n        vehicleRegistryStorageAddress = _address;\r\n    }\r\n\r\n    function setManufacturerRegistryAddress(address _address) \r\n        public \r\n        payable \r\n        onlyOwner() \r\n        addressIsContract(_address) {\r\n        vehicleManufacturerRegistryAddress = _address;\r\n    } \r\n\r\n    function setFeeCheckerAddress(address _address) \r\n        public \r\n        payable \r\n        onlyOwner() \r\n        addressIsContract(_address) {\r\n        feeCheckerAddress = _address;\r\n    }        \r\n\r\n//constructor\r\n    constructor(address _vehicleRegistryStorageAddress, address _vehicleManufacturerRegistryAddress, address _feeCheckerAddress) public {\r\n        vehicleRegistryStorageAddress = _vehicleRegistryStorageAddress;\r\n        vehicleManufacturerRegistryAddress = _vehicleManufacturerRegistryAddress;\r\n        feeCheckerAddress = _feeCheckerAddress;\r\n    }\r\n\r\n//events\r\n    event Registered(bytes32 _VIN);\r\n    event VehicleOwnershipTransferRequest(bytes32 _VIN, address _from, address _to);\r\n    event VehicleOwnershipTransferAccepted(bytes32 _VIN, address _newOwner);\r\n    event VehicleServiceHistoryAddressChanged(bytes32 _VIN, address _from, address _to);\r\n\r\n//modifiers\r\n    modifier vehicleOwner (bytes32 _VIN) {\r\n        address owner = VehicleRegistryStorage.getOwner(vehicleRegistryStorageAddress, _VIN);\r\n        require(msg.sender == owner, \"Only the vehicle owner can perform this function\"); \r\n        _;\r\n    }\r\n\r\n    modifier pendingVehicleOwner (bytes32 _VIN) {\r\n        address owner = VehicleRegistryStorage.getPendingOwner(vehicleRegistryStorageAddress, _VIN);\r\n        require(msg.sender == owner, \"Only the pending vehicle owner can perform this function\"); \r\n        _;\r\n    }    \r\n\r\n    modifier transferKeyMatches(bytes32 _VIN, bytes32 _keyHash) {\r\n        bytes32 transferKey = VehicleRegistryStorage.getTransferKey(vehicleRegistryStorageAddress, _VIN);\r\n        require(transferKey == _keyHash, \"The key provided must match the existing transfer key\");\r\n        _;        \r\n    }\r\n\r\n    modifier registered(bytes32 _VIN) {\r\n        require(privateIsRegistered(_VIN), \"The vehicle must be registered to perform this function\"); \r\n        _;\r\n    }\r\n\r\n    modifier unregistered(bytes32 _VIN) {\r\n        require(privateIsUnRegistered(_VIN), \"The vehicle must be unregistered to perform this function\"); \r\n        _;\r\n    }    \r\n\r\n    modifier addressIsContract(address _address) {\r\n        require(_address.isContract(), \"The address specified must be a contract address\"); \r\n        _;\r\n    }\r\n\r\n    modifier validVin(bytes32 _VIN) {\r\n        require(_VIN.getStringLength() == 17);\r\n        _;\r\n    }\r\n\r\n    modifier paidEnoughToRegister() {\r\n        uint minRegistrationFee = getMinRegistrationFee();\r\n        require(msg.value < minRegistrationFee, \"Not enough Eth was sent to cover a registration\");\r\n        _;\r\n    }\r\n\r\n    modifier paidEnoughToTransfer() {\r\n        uint minTransferFee = getMinTransferFee();\r\n        require(msg.value < minTransferFee, \"Not enough Eth was sent to cover a transfer\");\r\n        _;\r\n    }    \r\n\r\n    modifier isARegisteredManufacturer(bytes32 _name) {\r\n        require (\r\n            IVehicleManufacturerRegistry(vehicleManufacturerRegistryAddress).isRegistered(_name),\r\n            \"The manufacturer must be registered to invoke this function\");\r\n        _;\r\n    }\r\n\r\n    modifier manufacturerMustBeEnabled(bytes32 _name) {\r\n        require (\r\n            IVehicleManufacturerRegistry(vehicleManufacturerRegistryAddress).isEnabled(_name),\r\n            \"The manufacturer must be enabled to invoke this function\");\r\n        _;\r\n    }    \r\n  \r\n//external methods\r\n\r\n//view\r\n    function isRegistered(bytes32 _VIN) \r\n        external view \r\n        validVin(_VIN)\r\n        returns(bool) {\r\n        return privateIsRegistered(_VIN);\r\n    }\r\n\r\n    function getVehicleManufacturerName(bytes32 _VIN) external view validVin(_VIN) registered(_VIN) returns (bytes32 manufacturerName) {\r\n        return VehicleRegistryStorage.getManufacturerName(vehicleRegistryStorageAddress, _VIN);\r\n    }\r\n\r\n    function getVehicleLicencePlate(bytes32 _VIN) external view validVin(_VIN) registered(_VIN) returns (bytes32 licencePlate) {\r\n        return VehicleRegistryStorage.getLicencePlate(vehicleRegistryStorageAddress, _VIN);\r\n    }\r\n\r\n    function getVehicleOwner(bytes32 _VIN) external view validVin(_VIN) registered(_VIN) returns (address owner) {\r\n        return VehicleRegistryStorage.getOwner(vehicleRegistryStorageAddress, _VIN);\r\n    }\r\n\r\n    function getVehicleServiceHistoryAddress(bytes32 _VIN) \r\n        external view \r\n        validVin(_VIN) registered(_VIN) \r\n        returns (address serviceHistoryAddress) {\r\n        return VehicleRegistryStorage.getServiceHistoryAddress(vehicleRegistryStorageAddress, _VIN);\r\n    }\r\n\r\n    function getVehicleRegisteredDate(bytes32 _VIN) external view validVin(_VIN) registered(_VIN) returns (uint256 registeredDate) {\r\n        return VehicleRegistryStorage.getRegistered(vehicleRegistryStorageAddress, _VIN);\r\n    }\r\n\r\n//state altering\r\n\r\n    /** @dev Registers a vehicle.\r\n      * @param _VIN the vehicle identification number.\r\n      * @param _licencePlate the licence / number plate of the vehicle.\r\n      * @param _manufacturerName - the unique id of the manufacturer\r\n      */\r\n    function register(bytes32 _VIN, bytes32 _licencePlate, bytes32 _manufacturerName) \r\n        external payable \r\n        whenNotPaused()\r\n        validVin(_VIN) \r\n        unregistered(_VIN) \r\n        paidEnoughToRegister()\r\n        isARegisteredManufacturer(_manufacturerName)\r\n        manufacturerMustBeEnabled(_manufacturerName)\r\n        {\r\n\r\n        VehicleRegistryStorage.storeVehicle(vehicleRegistryStorageAddress, _VIN, _manufacturerName, _licencePlate, msg.sender, 0, now);\r\n        VehicleRegistryStorage.setServiceHistoryAddress(vehicleRegistryStorageAddress, _VIN, 0);\r\n        //deploy new serviceHistoryAddress\r\n        //which contract - how do we know...?\r\n        //set contract address\r\n        //v.maintenanceContractAddress = newAddress;\r\n\r\n        emit Registered(_VIN);\r\n    }\r\n\r\n    function transferVehicleOwnership(bytes32 _VIN, address _newOwner, bytes32 _keyHash) \r\n        external payable \r\n        whenNotPaused()\r\n        validVin(_VIN) \r\n        registered(_VIN) \r\n        vehicleOwner(_VIN) \r\n        paidEnoughToTransfer()\r\n        {\r\n        address oldOwner = VehicleRegistryStorage.getOwner(vehicleRegistryStorageAddress, _VIN);\r\n        VehicleRegistryStorage.setPendingOwner(vehicleRegistryStorageAddress, _VIN, _newOwner);\r\n        VehicleRegistryStorage.setTransferKey(vehicleRegistryStorageAddress, _VIN, _keyHash);\r\n        emit VehicleOwnershipTransferRequest(_VIN, oldOwner, _newOwner);\r\n    }\r\n\r\n    function acceptVehicleOwnership(bytes32 _VIN, bytes32 _keyHash)\r\n        external payable\r\n        whenNotPaused()\r\n        validVin(_VIN)\r\n        registered(_VIN)\r\n        pendingVehicleOwner(_VIN)\r\n        transferKeyMatches(_VIN, _keyHash)\r\n        {\r\n        VehicleRegistryStorage.setOwner(vehicleRegistryStorageAddress, _VIN, msg.sender);\r\n        VehicleRegistryStorage.setPendingOwner(vehicleRegistryStorageAddress, _VIN, 0);\r\n        emit VehicleOwnershipTransferAccepted(_VIN, msg.sender);         \r\n    }\r\n\r\n    //allow contract to be upgraded\r\n    function setServiceHistoryAddress(bytes32 _VIN, address _serviceHistoryAddress) \r\n        external payable\r\n        whenNotPaused()\r\n        validVin(_VIN)\r\n        registered(_VIN)\r\n        vehicleOwner(_VIN)\r\n        addressIsContract(_serviceHistoryAddress)\r\n        {\r\n        address oldAddress = VehicleRegistryStorage.getServiceHistoryAddress(vehicleRegistryStorageAddress, _VIN);\r\n        require(oldAddress != _serviceHistoryAddress, \"The new address must be different to the old address\");\r\n        VehicleRegistryStorage.setServiceHistoryAddress(vehicleRegistryStorageAddress, _VIN, _serviceHistoryAddress);\r\n        emit VehicleServiceHistoryAddressChanged(_VIN, oldAddress, _serviceHistoryAddress);\r\n    }    \r\n\r\n//private functions\r\n\r\n    function privateIsUnRegistered(bytes32 _VIN) private view returns(bool) {\r\n        return !privateIsRegistered(_VIN);\r\n    }      \r\n\r\n    function privateIsRegistered(bytes32 _VIN) private view returns(bool)  {\r\n        return VehicleRegistryStorage.exists(vehicleRegistryStorageAddress, _VIN);\r\n    }    \r\n\r\n    function getMinRegistrationFee() private view returns(uint) {\r\n        return IVehicleRegistryFeeChecker(feeCheckerAddress).getRegistrationFeeEth();\r\n    }\r\n\r\n    function getMinTransferFee() private view returns(uint) {\r\n        return IVehicleRegistryFeeChecker(feeCheckerAddress).getTransferFeeEth();\r\n    }    \r\n \r\n}",
  "sourcePath": "C:\\dev\\repos\\VehicleMaintenanceRegistry\\src\\VMR\\contracts\\VehicleRegistry.sol",
  "compiler": {
    "name": "solc",
    "version": "0.4.24+commit.e67f0147.Emscripten.clang"
  },
  "schemaVersion": "2.0.1",
  "updatedAt": "2018-07-06T16:35:45.626Z"
}